{
	"staking/StakingRewardsDualFactory.sol": {
		"StakingDualRewards": {
			"abi": [
				{
					"inputs": [
						{
							"internalType": "address",
							"name": "_owner",
							"type": "address"
						},
						{
							"internalType": "address",
							"name": "_dualRewardsDistribution",
							"type": "address"
						},
						{
							"internalType": "address",
							"name": "_rewardsTokenA",
							"type": "address"
						},
						{
							"internalType": "address",
							"name": "_rewardsTokenB",
							"type": "address"
						},
						{
							"internalType": "address",
							"name": "_stakingToken",
							"type": "address"
						}
					],
					"payable": false,
					"stateMutability": "nonpayable",
					"type": "constructor"
				},
				{
					"anonymous": false,
					"inputs": [
						{
							"indexed": false,
							"internalType": "address",
							"name": "oldOwner",
							"type": "address"
						},
						{
							"indexed": false,
							"internalType": "address",
							"name": "newOwner",
							"type": "address"
						}
					],
					"name": "OwnerChanged",
					"type": "event"
				},
				{
					"anonymous": false,
					"inputs": [
						{
							"indexed": false,
							"internalType": "address",
							"name": "newOwner",
							"type": "address"
						}
					],
					"name": "OwnerNominated",
					"type": "event"
				},
				{
					"anonymous": false,
					"inputs": [
						{
							"indexed": false,
							"internalType": "bool",
							"name": "isPaused",
							"type": "bool"
						}
					],
					"name": "PauseChanged",
					"type": "event"
				},
				{
					"anonymous": false,
					"inputs": [
						{
							"indexed": false,
							"internalType": "address",
							"name": "token",
							"type": "address"
						},
						{
							"indexed": false,
							"internalType": "uint256",
							"name": "amount",
							"type": "uint256"
						}
					],
					"name": "Recovered",
					"type": "event"
				},
				{
					"anonymous": false,
					"inputs": [
						{
							"indexed": false,
							"internalType": "uint256",
							"name": "rewardA",
							"type": "uint256"
						},
						{
							"indexed": false,
							"internalType": "uint256",
							"name": "rewardB",
							"type": "uint256"
						},
						{
							"indexed": false,
							"internalType": "uint256",
							"name": "periodFinish",
							"type": "uint256"
						}
					],
					"name": "RewardAdded",
					"type": "event"
				},
				{
					"anonymous": false,
					"inputs": [
						{
							"indexed": true,
							"internalType": "address",
							"name": "user",
							"type": "address"
						},
						{
							"indexed": false,
							"internalType": "address",
							"name": "rewardToken",
							"type": "address"
						},
						{
							"indexed": false,
							"internalType": "uint256",
							"name": "reward",
							"type": "uint256"
						}
					],
					"name": "RewardPaid",
					"type": "event"
				},
				{
					"anonymous": false,
					"inputs": [
						{
							"indexed": true,
							"internalType": "address",
							"name": "user",
							"type": "address"
						},
						{
							"indexed": false,
							"internalType": "uint256",
							"name": "amount",
							"type": "uint256"
						}
					],
					"name": "Staked",
					"type": "event"
				},
				{
					"anonymous": false,
					"inputs": [
						{
							"indexed": true,
							"internalType": "address",
							"name": "user",
							"type": "address"
						},
						{
							"indexed": false,
							"internalType": "uint256",
							"name": "amount",
							"type": "uint256"
						}
					],
					"name": "Withdrawn",
					"type": "event"
				},
				{
					"constant": false,
					"inputs": [],
					"name": "acceptOwnership",
					"outputs": [],
					"payable": false,
					"stateMutability": "nonpayable",
					"type": "function"
				},
				{
					"constant": true,
					"inputs": [
						{
							"internalType": "address",
							"name": "account",
							"type": "address"
						}
					],
					"name": "balanceOf",
					"outputs": [
						{
							"internalType": "uint256",
							"name": "",
							"type": "uint256"
						}
					],
					"payable": false,
					"stateMutability": "view",
					"type": "function"
				},
				{
					"constant": true,
					"inputs": [],
					"name": "dualRewardsDistribution",
					"outputs": [
						{
							"internalType": "address",
							"name": "",
							"type": "address"
						}
					],
					"payable": false,
					"stateMutability": "view",
					"type": "function"
				},
				{
					"constant": true,
					"inputs": [
						{
							"internalType": "address",
							"name": "account",
							"type": "address"
						}
					],
					"name": "earnedA",
					"outputs": [
						{
							"internalType": "uint256",
							"name": "",
							"type": "uint256"
						}
					],
					"payable": false,
					"stateMutability": "view",
					"type": "function"
				},
				{
					"constant": true,
					"inputs": [
						{
							"internalType": "address",
							"name": "account",
							"type": "address"
						}
					],
					"name": "earnedB",
					"outputs": [
						{
							"internalType": "uint256",
							"name": "",
							"type": "uint256"
						}
					],
					"payable": false,
					"stateMutability": "view",
					"type": "function"
				},
				{
					"constant": false,
					"inputs": [],
					"name": "exit",
					"outputs": [],
					"payable": false,
					"stateMutability": "nonpayable",
					"type": "function"
				},
				{
					"constant": false,
					"inputs": [],
					"name": "getReward",
					"outputs": [],
					"payable": false,
					"stateMutability": "nonpayable",
					"type": "function"
				},
				{
					"constant": true,
					"inputs": [],
					"name": "lastPauseTime",
					"outputs": [
						{
							"internalType": "uint256",
							"name": "",
							"type": "uint256"
						}
					],
					"payable": false,
					"stateMutability": "view",
					"type": "function"
				},
				{
					"constant": true,
					"inputs": [],
					"name": "lastTimeRewardApplicable",
					"outputs": [
						{
							"internalType": "uint256",
							"name": "",
							"type": "uint256"
						}
					],
					"payable": false,
					"stateMutability": "view",
					"type": "function"
				},
				{
					"constant": true,
					"inputs": [],
					"name": "lastUpdateTime",
					"outputs": [
						{
							"internalType": "uint256",
							"name": "",
							"type": "uint256"
						}
					],
					"payable": false,
					"stateMutability": "view",
					"type": "function"
				},
				{
					"constant": false,
					"inputs": [
						{
							"internalType": "address",
							"name": "_owner",
							"type": "address"
						}
					],
					"name": "nominateNewOwner",
					"outputs": [],
					"payable": false,
					"stateMutability": "nonpayable",
					"type": "function"
				},
				{
					"constant": true,
					"inputs": [],
					"name": "nominatedOwner",
					"outputs": [
						{
							"internalType": "address",
							"name": "",
							"type": "address"
						}
					],
					"payable": false,
					"stateMutability": "view",
					"type": "function"
				},
				{
					"constant": false,
					"inputs": [
						{
							"internalType": "uint256",
							"name": "rewardA",
							"type": "uint256"
						},
						{
							"internalType": "uint256",
							"name": "rewardB",
							"type": "uint256"
						},
						{
							"internalType": "uint256",
							"name": "rewardsDuration",
							"type": "uint256"
						}
					],
					"name": "notifyRewardAmount",
					"outputs": [],
					"payable": false,
					"stateMutability": "nonpayable",
					"type": "function"
				},
				{
					"constant": true,
					"inputs": [],
					"name": "owner",
					"outputs": [
						{
							"internalType": "address",
							"name": "",
							"type": "address"
						}
					],
					"payable": false,
					"stateMutability": "view",
					"type": "function"
				},
				{
					"constant": true,
					"inputs": [],
					"name": "paused",
					"outputs": [
						{
							"internalType": "bool",
							"name": "",
							"type": "bool"
						}
					],
					"payable": false,
					"stateMutability": "view",
					"type": "function"
				},
				{
					"constant": true,
					"inputs": [],
					"name": "periodFinish",
					"outputs": [
						{
							"internalType": "uint256",
							"name": "",
							"type": "uint256"
						}
					],
					"payable": false,
					"stateMutability": "view",
					"type": "function"
				},
				{
					"constant": false,
					"inputs": [
						{
							"internalType": "address",
							"name": "tokenAddress",
							"type": "address"
						},
						{
							"internalType": "uint256",
							"name": "tokenAmount",
							"type": "uint256"
						}
					],
					"name": "recoverERC20",
					"outputs": [],
					"payable": false,
					"stateMutability": "nonpayable",
					"type": "function"
				},
				{
					"constant": true,
					"inputs": [],
					"name": "rewardPerTokenA",
					"outputs": [
						{
							"internalType": "uint256",
							"name": "",
							"type": "uint256"
						}
					],
					"payable": false,
					"stateMutability": "view",
					"type": "function"
				},
				{
					"constant": true,
					"inputs": [],
					"name": "rewardPerTokenAStored",
					"outputs": [
						{
							"internalType": "uint256",
							"name": "",
							"type": "uint256"
						}
					],
					"payable": false,
					"stateMutability": "view",
					"type": "function"
				},
				{
					"constant": true,
					"inputs": [],
					"name": "rewardPerTokenB",
					"outputs": [
						{
							"internalType": "uint256",
							"name": "",
							"type": "uint256"
						}
					],
					"payable": false,
					"stateMutability": "view",
					"type": "function"
				},
				{
					"constant": true,
					"inputs": [],
					"name": "rewardPerTokenBStored",
					"outputs": [
						{
							"internalType": "uint256",
							"name": "",
							"type": "uint256"
						}
					],
					"payable": false,
					"stateMutability": "view",
					"type": "function"
				},
				{
					"constant": true,
					"inputs": [],
					"name": "rewardRateA",
					"outputs": [
						{
							"internalType": "uint256",
							"name": "",
							"type": "uint256"
						}
					],
					"payable": false,
					"stateMutability": "view",
					"type": "function"
				},
				{
					"constant": true,
					"inputs": [],
					"name": "rewardRateB",
					"outputs": [
						{
							"internalType": "uint256",
							"name": "",
							"type": "uint256"
						}
					],
					"payable": false,
					"stateMutability": "view",
					"type": "function"
				},
				{
					"constant": true,
					"inputs": [
						{
							"internalType": "address",
							"name": "",
							"type": "address"
						}
					],
					"name": "rewardsA",
					"outputs": [
						{
							"internalType": "uint256",
							"name": "",
							"type": "uint256"
						}
					],
					"payable": false,
					"stateMutability": "view",
					"type": "function"
				},
				{
					"constant": true,
					"inputs": [
						{
							"internalType": "address",
							"name": "",
							"type": "address"
						}
					],
					"name": "rewardsB",
					"outputs": [
						{
							"internalType": "uint256",
							"name": "",
							"type": "uint256"
						}
					],
					"payable": false,
					"stateMutability": "view",
					"type": "function"
				},
				{
					"constant": true,
					"inputs": [],
					"name": "rewardsTokenA",
					"outputs": [
						{
							"internalType": "contract IERC20",
							"name": "",
							"type": "address"
						}
					],
					"payable": false,
					"stateMutability": "view",
					"type": "function"
				},
				{
					"constant": true,
					"inputs": [],
					"name": "rewardsTokenB",
					"outputs": [
						{
							"internalType": "contract IERC20",
							"name": "",
							"type": "address"
						}
					],
					"payable": false,
					"stateMutability": "view",
					"type": "function"
				},
				{
					"constant": false,
					"inputs": [
						{
							"internalType": "bool",
							"name": "_paused",
							"type": "bool"
						}
					],
					"name": "setPaused",
					"outputs": [],
					"payable": false,
					"stateMutability": "nonpayable",
					"type": "function"
				},
				{
					"constant": false,
					"inputs": [
						{
							"internalType": "uint256",
							"name": "amount",
							"type": "uint256"
						}
					],
					"name": "stake",
					"outputs": [],
					"payable": false,
					"stateMutability": "nonpayable",
					"type": "function"
				},
				{
					"constant": true,
					"inputs": [],
					"name": "stakingToken",
					"outputs": [
						{
							"internalType": "contract IERC20",
							"name": "",
							"type": "address"
						}
					],
					"payable": false,
					"stateMutability": "view",
					"type": "function"
				},
				{
					"constant": true,
					"inputs": [],
					"name": "totalSupply",
					"outputs": [
						{
							"internalType": "uint256",
							"name": "",
							"type": "uint256"
						}
					],
					"payable": false,
					"stateMutability": "view",
					"type": "function"
				},
				{
					"constant": true,
					"inputs": [
						{
							"internalType": "address",
							"name": "",
							"type": "address"
						}
					],
					"name": "userRewardPerTokenAPaid",
					"outputs": [
						{
							"internalType": "uint256",
							"name": "",
							"type": "uint256"
						}
					],
					"payable": false,
					"stateMutability": "view",
					"type": "function"
				},
				{
					"constant": true,
					"inputs": [
						{
							"internalType": "address",
							"name": "",
							"type": "address"
						}
					],
					"name": "userRewardPerTokenBPaid",
					"outputs": [
						{
							"internalType": "uint256",
							"name": "",
							"type": "uint256"
						}
					],
					"payable": false,
					"stateMutability": "view",
					"type": "function"
				},
				{
					"constant": false,
					"inputs": [
						{
							"internalType": "uint256",
							"name": "amount",
							"type": "uint256"
						}
					],
					"name": "withdraw",
					"outputs": [],
					"payable": false,
					"stateMutability": "nonpayable",
					"type": "function"
				}
			],
			"devdoc": {
				"methods": {
					"setPaused(bool)": {
						"details": "Only the contract owner may call this."
					}
				}
			},
			"evm": {
				"assembly": "    /* \"staking/StakingRewardsDualFactory.sol\":19725:27149  contract StakingDualRewards is IStakingDualRewards, DualRewardsDistributionRecipient, ReentrancyGuard, Pausable {... */\n  mstore(0x40, 0x80)\n    /* \"staking/StakingRewardsDualFactory.sol\":20085:20086  0 */\n  0x00\n    /* \"staking/StakingRewardsDualFactory.sol\":20055:20086  uint256 public periodFinish = 0 */\n  0x08\n  sstore\n    /* \"staking/StakingRewardsDualFactory.sol\":20121:20122  0 */\n  0x00\n    /* \"staking/StakingRewardsDualFactory.sol\":20092:20122  uint256 public rewardRateA = 0 */\n  0x09\n  sstore\n    /* \"staking/StakingRewardsDualFactory.sol\":20157:20158  0 */\n  0x00\n    /* \"staking/StakingRewardsDualFactory.sol\":20128:20158  uint256 public rewardRateB = 0 */\n  0x0a\n  sstore\n    /* \"staking/StakingRewardsDualFactory.sol\":20642:21140  constructor(... */\n  callvalue\n    /* \"--CODEGEN--\":8:17   */\n  dup1\n    /* \"--CODEGEN--\":5:7   */\n  iszero\n  tag_1\n  jumpi\n    /* \"--CODEGEN--\":30:31   */\n  0x00\n    /* \"--CODEGEN--\":27:28   */\n  dup1\n    /* \"--CODEGEN--\":20:32   */\n  revert\n    /* \"--CODEGEN--\":5:7   */\ntag_1:\n    /* \"staking/StakingRewardsDualFactory.sol\":20642:21140  constructor(... */\n  pop\n  mload(0x40)\n  sub(codesize, bytecodeSize)\n  dup1\n  bytecodeSize\n  dup4\n  codecopy\n  dup2\n  dup2\n  add\n  0x40\n  mstore\n    /* \"--CODEGEN--\":13:16   */\n  0xa0\n    /* \"--CODEGEN--\":8:11   */\n  dup2\n    /* \"--CODEGEN--\":5:17   */\n  lt\n    /* \"--CODEGEN--\":2:4   */\n  iszero\n  tag_2\n  jumpi\n    /* \"--CODEGEN--\":30:31   */\n  0x00\n    /* \"--CODEGEN--\":27:28   */\n  dup1\n    /* \"--CODEGEN--\":20:32   */\n  revert\n    /* \"--CODEGEN--\":2:4   */\ntag_2:\n    /* \"staking/StakingRewardsDualFactory.sol\":20642:21140  constructor(... */\n  dup2\n  add\n  swap1\n  dup1\n  dup1\n  mload\n  swap1\n  0x20\n  add\n  swap1\n  swap3\n  swap2\n  swap1\n  dup1\n  mload\n  swap1\n  0x20\n  add\n  swap1\n  swap3\n  swap2\n  swap1\n  dup1\n  mload\n  swap1\n  0x20\n  add\n  swap1\n  swap3\n  swap2\n  swap1\n  dup1\n  mload\n  swap1\n  0x20\n  add\n  swap1\n  swap3\n  swap2\n  swap1\n  dup1\n  mload\n  swap1\n  0x20\n  add\n  swap1\n  swap3\n  swap2\n  swap1\n  pop\n  pop\n  pop\n    /* \"staking/StakingRewardsDualFactory.sol\":20834:20840  _owner */\n  dup5\n    /* \"staking/StakingRewardsDualFactory.sol\":17283:17284  0 */\n  0x00\n    /* \"staking/StakingRewardsDualFactory.sol\":17265:17285  _owner != address(0) */\n  0xffffffffffffffffffffffffffffffffffffffff\n  and\n    /* \"staking/StakingRewardsDualFactory.sol\":17265:17271  _owner */\n  dup2\n    /* \"staking/StakingRewardsDualFactory.sol\":17265:17285  _owner != address(0) */\n  0xffffffffffffffffffffffffffffffffffffffff\n  and\n  eq\n  iszero\n    /* \"staking/StakingRewardsDualFactory.sol\":17257:17315  require(_owner != address(0), \"Owner address cannot be 0\") */\n  tag_8\n  jumpi\n  mload(0x40)\n  0x08c379a000000000000000000000000000000000000000000000000000000000\n  dup2\n  mstore\n  0x04\n  add\n  dup1\n  dup1\n  0x20\n  add\n  dup3\n  dup2\n  sub\n  dup3\n  mstore\n  0x19\n  dup2\n  mstore\n  0x20\n  add\n  dup1\n  0x4f776e657220616464726573732063616e6e6f74206265203000000000000000\n  dup2\n  mstore\n  pop\n  0x20\n  add\n  swap2\n  pop\n  pop\n  mload(0x40)\n  dup1\n  swap2\n  sub\n  swap1\n  revert\ntag_8:\n    /* \"staking/StakingRewardsDualFactory.sol\":17333:17339  _owner */\n  dup1\n    /* \"staking/StakingRewardsDualFactory.sol\":17325:17330  owner */\n  0x00\n  dup1\n    /* \"staking/StakingRewardsDualFactory.sol\":17325:17339  owner = _owner */\n  0x0100\n  exp\n  dup2\n  sload\n  dup2\n  0xffffffffffffffffffffffffffffffffffffffff\n  mul\n  not\n  and\n  swap1\n  dup4\n  0xffffffffffffffffffffffffffffffffffffffff\n  and\n  mul\n  or\n  swap1\n  sstore\n  pop\n    /* \"staking/StakingRewardsDualFactory.sol\":17354:17386  OwnerChanged(address(0), _owner) */\n  0xb532073b38c83145e3e5135377a08bf9aab55bc0fd7c1179cd4fb995d2a5159c\n    /* \"staking/StakingRewardsDualFactory.sol\":17375:17376  0 */\n  0x00\n    /* \"staking/StakingRewardsDualFactory.sol\":17379:17385  _owner */\n  dup3\n    /* \"staking/StakingRewardsDualFactory.sol\":17354:17386  OwnerChanged(address(0), _owner) */\n  mload(0x40)\n  dup1\n  dup4\n  0xffffffffffffffffffffffffffffffffffffffff\n  and\n  0xffffffffffffffffffffffffffffffffffffffff\n  and\n  dup2\n  mstore\n  0x20\n  add\n  dup3\n  0xffffffffffffffffffffffffffffffffffffffff\n  and\n  0xffffffffffffffffffffffffffffffffffffffff\n  and\n  dup2\n  mstore\n  0x20\n  add\n  swap3\n  pop\n  pop\n  pop\n  mload(0x40)\n  dup1\n  swap2\n  sub\n  swap1\n  log1\n    /* \"staking/StakingRewardsDualFactory.sol\":17212:17393  constructor(address _owner) public {... */\n  pop\n    /* \"staking/StakingRewardsDualFactory.sol\":15768:15769  1 */\n  0x01\n    /* \"staking/StakingRewardsDualFactory.sol\":15752:15765  _guardCounter */\n  0x03\n    /* \"staking/StakingRewardsDualFactory.sol\":15752:15769  _guardCounter = 1 */\n  dup2\n  swap1\n  sstore\n  pop\n    /* \"staking/StakingRewardsDualFactory.sol\":18818:18819  0 */\n  0x00\n    /* \"staking/StakingRewardsDualFactory.sol\":18801:18820  owner != address(0) */\n  0xffffffffffffffffffffffffffffffffffffffff\n  and\n    /* \"staking/StakingRewardsDualFactory.sol\":18801:18806  owner */\n  0x00\n  dup1\n  swap1\n  sload\n  swap1\n  0x0100\n  exp\n  swap1\n  div\n  0xffffffffffffffffffffffffffffffffffffffff\n  and\n    /* \"staking/StakingRewardsDualFactory.sol\":18801:18820  owner != address(0) */\n  0xffffffffffffffffffffffffffffffffffffffff\n  and\n  eq\n  iszero\n    /* \"staking/StakingRewardsDualFactory.sol\":18793:18842  require(owner != address(0), \"Owner must be set\") */\n  tag_11\n  jumpi\n  mload(0x40)\n  0x08c379a000000000000000000000000000000000000000000000000000000000\n  dup2\n  mstore\n  0x04\n  add\n  dup1\n  dup1\n  0x20\n  add\n  dup3\n  dup2\n  sub\n  dup3\n  mstore\n  0x11\n  dup2\n  mstore\n  0x20\n  add\n  dup1\n  0x4f776e6572206d75737420626520736574000000000000000000000000000000\n  dup2\n  mstore\n  pop\n  0x20\n  add\n  swap2\n  pop\n  pop\n  mload(0x40)\n  dup1\n  swap2\n  sub\n  swap1\n  revert\ntag_11:\n    /* \"staking/StakingRewardsDualFactory.sol\":20878:20892  _rewardsTokenB */\n  dup2\n    /* \"staking/StakingRewardsDualFactory.sol\":20860:20892  _rewardsTokenA != _rewardsTokenB */\n  0xffffffffffffffffffffffffffffffffffffffff\n  and\n    /* \"staking/StakingRewardsDualFactory.sol\":20860:20874  _rewardsTokenA */\n  dup4\n    /* \"staking/StakingRewardsDualFactory.sol\":20860:20892  _rewardsTokenA != _rewardsTokenB */\n  0xffffffffffffffffffffffffffffffffffffffff\n  and\n  eq\n  iszero\n    /* \"staking/StakingRewardsDualFactory.sol\":20852:20931  require(_rewardsTokenA != _rewardsTokenB, \"rewards tokens should be different\") */\n  tag_13\n  jumpi\n  mload(0x40)\n  0x08c379a000000000000000000000000000000000000000000000000000000000\n  dup2\n  mstore\n  0x04\n  add\n  dup1\n  dup1\n  0x20\n  add\n  dup3\n  dup2\n  sub\n  dup3\n  mstore\n  0x22\n  dup2\n  mstore\n  0x20\n  add\n  dup1\n  data_32d4aa508c5525731b634a5fdf5993209fcc02069f0f1686fbb7486f21984272\n  0x22\n  swap2\n  codecopy\n  0x40\n  add\n  swap2\n  pop\n  pop\n  mload(0x40)\n  dup1\n  swap2\n  sub\n  swap1\n  revert\ntag_13:\n    /* \"staking/StakingRewardsDualFactory.sol\":20964:20978  _rewardsTokenA */\n  dup3\n    /* \"staking/StakingRewardsDualFactory.sol\":20941:20954  rewardsTokenA */\n  0x05\n  0x01\n    /* \"staking/StakingRewardsDualFactory.sol\":20941:20979  rewardsTokenA = IERC20(_rewardsTokenA) */\n  0x0100\n  exp\n  dup2\n  sload\n  dup2\n  0xffffffffffffffffffffffffffffffffffffffff\n  mul\n  not\n  and\n  swap1\n  dup4\n  0xffffffffffffffffffffffffffffffffffffffff\n  and\n  mul\n  or\n  swap1\n  sstore\n  pop\n    /* \"staking/StakingRewardsDualFactory.sol\":21012:21026  _rewardsTokenB */\n  dup2\n    /* \"staking/StakingRewardsDualFactory.sol\":20989:21002  rewardsTokenB */\n  0x06\n  0x00\n    /* \"staking/StakingRewardsDualFactory.sol\":20989:21027  rewardsTokenB = IERC20(_rewardsTokenB) */\n  0x0100\n  exp\n  dup2\n  sload\n  dup2\n  0xffffffffffffffffffffffffffffffffffffffff\n  mul\n  not\n  and\n  swap1\n  dup4\n  0xffffffffffffffffffffffffffffffffffffffff\n  and\n  mul\n  or\n  swap1\n  sstore\n  pop\n    /* \"staking/StakingRewardsDualFactory.sol\":21059:21072  _stakingToken */\n  dup1\n    /* \"staking/StakingRewardsDualFactory.sol\":21037:21049  stakingToken */\n  0x07\n  0x00\n    /* \"staking/StakingRewardsDualFactory.sol\":21037:21073  stakingToken = IERC20(_stakingToken) */\n  0x0100\n  exp\n  dup2\n  sload\n  dup2\n  0xffffffffffffffffffffffffffffffffffffffff\n  mul\n  not\n  and\n  swap1\n  dup4\n  0xffffffffffffffffffffffffffffffffffffffff\n  and\n  mul\n  or\n  swap1\n  sstore\n  pop\n    /* \"staking/StakingRewardsDualFactory.sol\":21109:21133  _dualRewardsDistribution */\n  dup4\n    /* \"staking/StakingRewardsDualFactory.sol\":21083:21106  dualRewardsDistribution */\n  0x02\n  0x00\n    /* \"staking/StakingRewardsDualFactory.sol\":21083:21133  dualRewardsDistribution = _dualRewardsDistribution */\n  0x0100\n  exp\n  dup2\n  sload\n  dup2\n  0xffffffffffffffffffffffffffffffffffffffff\n  mul\n  not\n  and\n  swap1\n  dup4\n  0xffffffffffffffffffffffffffffffffffffffff\n  and\n  mul\n  or\n  swap1\n  sstore\n  pop\n    /* \"staking/StakingRewardsDualFactory.sol\":20642:21140  constructor(... */\n  pop\n  pop\n  pop\n  pop\n  pop\n    /* \"staking/StakingRewardsDualFactory.sol\":19725:27149  contract StakingDualRewards is IStakingDualRewards, DualRewardsDistributionRecipient, ReentrancyGuard, Pausable {... */\n  dataSize(sub_0)\n  dup1\n  dataOffset(sub_0)\n  0x00\n  codecopy\n  0x00\n  return\nstop\ndata_32d4aa508c5525731b634a5fdf5993209fcc02069f0f1686fbb7486f21984272 7265776172647320746f6b656e732073686f756c6420626520646966666572656e74\n\nsub_0: assembly {\n        /* \"staking/StakingRewardsDualFactory.sol\":19725:27149  contract StakingDualRewards is IStakingDualRewards, DualRewardsDistributionRecipient, ReentrancyGuard, Pausable {... */\n      mstore(0x40, 0x80)\n      callvalue\n        /* \"--CODEGEN--\":8:17   */\n      dup1\n        /* \"--CODEGEN--\":5:7   */\n      iszero\n      tag_1\n      jumpi\n        /* \"--CODEGEN--\":30:31   */\n      0x00\n        /* \"--CODEGEN--\":27:28   */\n      dup1\n        /* \"--CODEGEN--\":20:32   */\n      revert\n        /* \"--CODEGEN--\":5:7   */\n    tag_1:\n        /* \"staking/StakingRewardsDualFactory.sol\":19725:27149  contract StakingDualRewards is IStakingDualRewards, DualRewardsDistributionRecipient, ReentrancyGuard, Pausable {... */\n      pop\n      jumpi(tag_2, lt(calldatasize, 0x04))\n      shr(0xe0, calldataload(0x00))\n      dup1\n      0x70a08231\n      gt\n      tag_37\n      jumpi\n      dup1\n      0xa694fc3a\n      gt\n      tag_38\n      jumpi\n      dup1\n      0xe9fad8ee\n      gt\n      tag_39\n      jumpi\n      dup1\n      0xe9fad8ee\n      eq\n      tag_32\n      jumpi\n      dup1\n      0xebe2b12b\n      eq\n      tag_33\n      jumpi\n      dup1\n      0xefa1c63c\n      eq\n      tag_34\n      jumpi\n      dup1\n      0xf5630550\n      eq\n      tag_35\n      jumpi\n      dup1\n      0xff510b06\n      eq\n      tag_36\n      jumpi\n      jump(tag_2)\n    tag_39:\n      dup1\n      0xa694fc3a\n      eq\n      tag_28\n      jumpi\n      dup1\n      0xa85594ad\n      eq\n      tag_29\n      jumpi\n      dup1\n      0xb95f0079\n      eq\n      tag_30\n      jumpi\n      dup1\n      0xc8f33c91\n      eq\n      tag_31\n      jumpi\n      jump(tag_2)\n    tag_38:\n      dup1\n      0x88c4c666\n      gt\n      tag_40\n      jumpi\n      dup1\n      0x88c4c666\n      eq\n      tag_24\n      jumpi\n      dup1\n      0x8980f11f\n      eq\n      tag_25\n      jumpi\n      dup1\n      0x8da5cb5b\n      eq\n      tag_26\n      jumpi\n      dup1\n      0x91b4ded9\n      eq\n      tag_27\n      jumpi\n      jump(tag_2)\n    tag_40:\n      dup1\n      0x70a08231\n      eq\n      tag_20\n      jumpi\n      dup1\n      0x72f702f3\n      eq\n      tag_21\n      jumpi\n      dup1\n      0x79ba5097\n      eq\n      tag_22\n      jumpi\n      dup1\n      0x80faa57d\n      eq\n      tag_23\n      jumpi\n      jump(tag_2)\n    tag_37:\n      dup1\n      0x34584d3a\n      gt\n      tag_41\n      jumpi\n      dup1\n      0x53a47bb7\n      gt\n      tag_42\n      jumpi\n      dup1\n      0x53a47bb7\n      eq\n      tag_15\n      jumpi\n      dup1\n      0x5c975abb\n      eq\n      tag_16\n      jumpi\n      dup1\n      0x5fd1020c\n      eq\n      tag_17\n      jumpi\n      dup1\n      0x60fb3626\n      eq\n      tag_18\n      jumpi\n      dup1\n      0x68213329\n      eq\n      tag_19\n      jumpi\n      jump(tag_2)\n    tag_42:\n      dup1\n      0x34584d3a\n      eq\n      tag_11\n      jumpi\n      dup1\n      0x3d18b912\n      eq\n      tag_12\n      jumpi\n      dup1\n      0x4ea4618b\n      eq\n      tag_13\n      jumpi\n      dup1\n      0x513c508a\n      eq\n      tag_14\n      jumpi\n      jump(tag_2)\n    tag_41:\n      dup1\n      0x1820d739\n      gt\n      tag_43\n      jumpi\n      dup1\n      0x1820d739\n      eq\n      tag_7\n      jumpi\n      dup1\n      0x255cfca3\n      eq\n      tag_8\n      jumpi\n      dup1\n      0x266a74ca\n      eq\n      tag_9\n      jumpi\n      dup1\n      0x2e1a7d4d\n      eq\n      tag_10\n      jumpi\n      jump(tag_2)\n    tag_43:\n      dup1\n      0x06e32820\n      eq\n      tag_3\n      jumpi\n      dup1\n      0x1627540c\n      eq\n      tag_4\n      jumpi\n      dup1\n      0x16c38b3c\n      eq\n      tag_5\n      jumpi\n      dup1\n      0x18160ddd\n      eq\n      tag_6\n      jumpi\n    tag_2:\n      0x00\n      dup1\n      revert\n        /* \"staking/StakingRewardsDualFactory.sol\":24208:25811  function notifyRewardAmount(uint256 rewardA, uint256 rewardB,  uint256 rewardsDuration) external onlyDualRewardsDistribution updateReward(address(0)) {... */\n    tag_3:\n      tag_44\n      0x04\n      dup1\n      calldatasize\n      sub\n        /* \"--CODEGEN--\":13:15   */\n      0x60\n        /* \"--CODEGEN--\":8:11   */\n      dup2\n        /* \"--CODEGEN--\":5:16   */\n      lt\n        /* \"--CODEGEN--\":2:4   */\n      iszero\n      tag_45\n      jumpi\n        /* \"--CODEGEN--\":29:30   */\n      0x00\n        /* \"--CODEGEN--\":26:27   */\n      dup1\n        /* \"--CODEGEN--\":19:31   */\n      revert\n        /* \"--CODEGEN--\":2:4   */\n    tag_45:\n        /* \"staking/StakingRewardsDualFactory.sol\":24208:25811  function notifyRewardAmount(uint256 rewardA, uint256 rewardB,  uint256 rewardsDuration) external onlyDualRewardsDistribution updateReward(address(0)) {... */\n      dup2\n      add\n      swap1\n      dup1\n      dup1\n      calldataload\n      swap1\n      0x20\n      add\n      swap1\n      swap3\n      swap2\n      swap1\n      dup1\n      calldataload\n      swap1\n      0x20\n      add\n      swap1\n      swap3\n      swap2\n      swap1\n      dup1\n      calldataload\n      swap1\n      0x20\n      add\n      swap1\n      swap3\n      swap2\n      swap1\n      pop\n      pop\n      pop\n      tag_46\n      jump\t// in\n    tag_44:\n      stop\n        /* \"staking/StakingRewardsDualFactory.sol\":17399:17537  function nominateNewOwner(address _owner) external onlyOwner {... */\n    tag_4:\n      tag_47\n      0x04\n      dup1\n      calldatasize\n      sub\n        /* \"--CODEGEN--\":13:15   */\n      0x20\n        /* \"--CODEGEN--\":8:11   */\n      dup2\n        /* \"--CODEGEN--\":5:16   */\n      lt\n        /* \"--CODEGEN--\":2:4   */\n      iszero\n      tag_48\n      jumpi\n        /* \"--CODEGEN--\":29:30   */\n      0x00\n        /* \"--CODEGEN--\":26:27   */\n      dup1\n        /* \"--CODEGEN--\":19:31   */\n      revert\n        /* \"--CODEGEN--\":2:4   */\n    tag_48:\n        /* \"staking/StakingRewardsDualFactory.sol\":17399:17537  function nominateNewOwner(address _owner) external onlyOwner {... */\n      dup2\n      add\n      swap1\n      dup1\n      dup1\n      calldataload\n      0xffffffffffffffffffffffffffffffffffffffff\n      and\n      swap1\n      0x20\n      add\n      swap1\n      swap3\n      swap2\n      swap1\n      pop\n      pop\n      pop\n      tag_49\n      jump\t// in\n    tag_47:\n      stop\n        /* \"staking/StakingRewardsDualFactory.sol\":19058:19530  function setPaused(bool _paused) external onlyOwner {... */\n    tag_5:\n      tag_50\n      0x04\n      dup1\n      calldatasize\n      sub\n        /* \"--CODEGEN--\":13:15   */\n      0x20\n        /* \"--CODEGEN--\":8:11   */\n      dup2\n        /* \"--CODEGEN--\":5:16   */\n      lt\n        /* \"--CODEGEN--\":2:4   */\n      iszero\n      tag_51\n      jumpi\n        /* \"--CODEGEN--\":29:30   */\n      0x00\n        /* \"--CODEGEN--\":26:27   */\n      dup1\n        /* \"--CODEGEN--\":19:31   */\n      revert\n        /* \"--CODEGEN--\":2:4   */\n    tag_51:\n        /* \"staking/StakingRewardsDualFactory.sol\":19058:19530  function setPaused(bool _paused) external onlyOwner {... */\n      dup2\n      add\n      swap1\n      dup1\n      dup1\n      calldataload\n      iszero\n      iszero\n      swap1\n      0x20\n      add\n      swap1\n      swap3\n      swap2\n      swap1\n      pop\n      pop\n      pop\n      tag_52\n      jump\t// in\n    tag_50:\n      stop\n        /* \"staking/StakingRewardsDualFactory.sol\":21185:21276  function totalSupply() external view returns (uint256) {... */\n    tag_6:\n      tag_53\n      tag_54\n      jump\t// in\n    tag_53:\n      mload(0x40)\n      dup1\n      dup3\n      dup2\n      mstore\n      0x20\n      add\n      swap2\n      pop\n      pop\n      mload(0x40)\n      dup1\n      swap2\n      sub\n      swap1\n      return\n        /* \"staking/StakingRewardsDualFactory.sol\":22198:22398  function earnedA(address account) public view returns (uint256) {... */\n    tag_7:\n      tag_55\n      0x04\n      dup1\n      calldatasize\n      sub\n        /* \"--CODEGEN--\":13:15   */\n      0x20\n        /* \"--CODEGEN--\":8:11   */\n      dup2\n        /* \"--CODEGEN--\":5:16   */\n      lt\n        /* \"--CODEGEN--\":2:4   */\n      iszero\n      tag_56\n      jumpi\n        /* \"--CODEGEN--\":29:30   */\n      0x00\n        /* \"--CODEGEN--\":26:27   */\n      dup1\n        /* \"--CODEGEN--\":19:31   */\n      revert\n        /* \"--CODEGEN--\":2:4   */\n    tag_56:\n        /* \"staking/StakingRewardsDualFactory.sol\":22198:22398  function earnedA(address account) public view returns (uint256) {... */\n      dup2\n      add\n      swap1\n      dup1\n      dup1\n      calldataload\n      0xffffffffffffffffffffffffffffffffffffffff\n      and\n      swap1\n      0x20\n      add\n      swap1\n      swap3\n      swap2\n      swap1\n      pop\n      pop\n      pop\n      tag_57\n      jump\t// in\n    tag_55:\n      mload(0x40)\n      dup1\n      dup3\n      dup2\n      mstore\n      0x20\n      add\n      swap2\n      pop\n      pop\n      mload(0x40)\n      dup1\n      swap2\n      sub\n      swap1\n      return\n        /* \"staking/StakingRewardsDualFactory.sol\":20092:20122  uint256 public rewardRateA = 0 */\n    tag_8:\n      tag_58\n      tag_59\n      jump\t// in\n    tag_58:\n      mload(0x40)\n      dup1\n      dup3\n      dup2\n      mstore\n      0x20\n      add\n      swap2\n      pop\n      pop\n      mload(0x40)\n      dup1\n      swap2\n      sub\n      swap1\n      return\n        /* \"staking/StakingRewardsDualFactory.sol\":20412:20455  mapping(address => uint256) public rewardsA */\n    tag_9:\n      tag_60\n      0x04\n      dup1\n      calldatasize\n      sub\n        /* \"--CODEGEN--\":13:15   */\n      0x20\n        /* \"--CODEGEN--\":8:11   */\n      dup2\n        /* \"--CODEGEN--\":5:16   */\n      lt\n        /* \"--CODEGEN--\":2:4   */\n      iszero\n      tag_61\n      jumpi\n        /* \"--CODEGEN--\":29:30   */\n      0x00\n        /* \"--CODEGEN--\":26:27   */\n      dup1\n        /* \"--CODEGEN--\":19:31   */\n      revert\n        /* \"--CODEGEN--\":2:4   */\n    tag_61:\n        /* \"staking/StakingRewardsDualFactory.sol\":20412:20455  mapping(address => uint256) public rewardsA */\n      dup2\n      add\n      swap1\n      dup1\n      dup1\n      calldataload\n      0xffffffffffffffffffffffffffffffffffffffff\n      and\n      swap1\n      0x20\n      add\n      swap1\n      swap3\n      swap2\n      swap1\n      pop\n      pop\n      pop\n      tag_62\n      jump\t// in\n    tag_60:\n      mload(0x40)\n      dup1\n      dup3\n      dup2\n      mstore\n      0x20\n      add\n      swap2\n      pop\n      pop\n      mload(0x40)\n      dup1\n      swap2\n      sub\n      swap1\n      return\n        /* \"staking/StakingRewardsDualFactory.sol\":23053:23404  function withdraw(uint256 amount) public nonReentrant updateReward(msg.sender) {... */\n    tag_10:\n      tag_63\n      0x04\n      dup1\n      calldatasize\n      sub\n        /* \"--CODEGEN--\":13:15   */\n      0x20\n        /* \"--CODEGEN--\":8:11   */\n      dup2\n        /* \"--CODEGEN--\":5:16   */\n      lt\n        /* \"--CODEGEN--\":2:4   */\n      iszero\n      tag_64\n      jumpi\n        /* \"--CODEGEN--\":29:30   */\n      0x00\n        /* \"--CODEGEN--\":26:27   */\n      dup1\n        /* \"--CODEGEN--\":19:31   */\n      revert\n        /* \"--CODEGEN--\":2:4   */\n    tag_64:\n        /* \"staking/StakingRewardsDualFactory.sol\":23053:23404  function withdraw(uint256 amount) public nonReentrant updateReward(msg.sender) {... */\n      dup2\n      add\n      swap1\n      dup1\n      dup1\n      calldataload\n      swap1\n      0x20\n      add\n      swap1\n      swap3\n      swap2\n      swap1\n      pop\n      pop\n      pop\n      tag_65\n      jump\t// in\n    tag_63:\n      stop\n        /* \"staking/StakingRewardsDualFactory.sol\":20348:20406  mapping(address => uint256) public userRewardPerTokenBPaid */\n    tag_11:\n      tag_66\n      0x04\n      dup1\n      calldatasize\n      sub\n        /* \"--CODEGEN--\":13:15   */\n      0x20\n        /* \"--CODEGEN--\":8:11   */\n      dup2\n        /* \"--CODEGEN--\":5:16   */\n      lt\n        /* \"--CODEGEN--\":2:4   */\n      iszero\n      tag_67\n      jumpi\n        /* \"--CODEGEN--\":29:30   */\n      0x00\n        /* \"--CODEGEN--\":26:27   */\n      dup1\n        /* \"--CODEGEN--\":19:31   */\n      revert\n        /* \"--CODEGEN--\":2:4   */\n    tag_67:\n        /* \"staking/StakingRewardsDualFactory.sol\":20348:20406  mapping(address => uint256) public userRewardPerTokenBPaid */\n      dup2\n      add\n      swap1\n      dup1\n      dup1\n      calldataload\n      0xffffffffffffffffffffffffffffffffffffffff\n      and\n      swap1\n      0x20\n      add\n      swap1\n      swap3\n      swap2\n      swap1\n      pop\n      pop\n      pop\n      tag_68\n      jump\t// in\n    tag_66:\n      mload(0x40)\n      dup1\n      dup3\n      dup2\n      mstore\n      0x20\n      add\n      swap2\n      pop\n      pop\n      mload(0x40)\n      dup1\n      swap2\n      sub\n      swap1\n      return\n        /* \"staking/StakingRewardsDualFactory.sol\":23410:24048  function getReward() public nonReentrant updateReward(msg.sender) {... */\n    tag_12:\n      tag_69\n      tag_70\n      jump\t// in\n    tag_69:\n      stop\n        /* \"staking/StakingRewardsDualFactory.sol\":20284:20342  mapping(address => uint256) public userRewardPerTokenAPaid */\n    tag_13:\n      tag_71\n      0x04\n      dup1\n      calldatasize\n      sub\n        /* \"--CODEGEN--\":13:15   */\n      0x20\n        /* \"--CODEGEN--\":8:11   */\n      dup2\n        /* \"--CODEGEN--\":5:16   */\n      lt\n        /* \"--CODEGEN--\":2:4   */\n      iszero\n      tag_72\n      jumpi\n        /* \"--CODEGEN--\":29:30   */\n      0x00\n        /* \"--CODEGEN--\":26:27   */\n      dup1\n        /* \"--CODEGEN--\":19:31   */\n      revert\n        /* \"--CODEGEN--\":2:4   */\n    tag_72:\n        /* \"staking/StakingRewardsDualFactory.sol\":20284:20342  mapping(address => uint256) public userRewardPerTokenAPaid */\n      dup2\n      add\n      swap1\n      dup1\n      dup1\n      calldataload\n      0xffffffffffffffffffffffffffffffffffffffff\n      and\n      swap1\n      0x20\n      add\n      swap1\n      swap3\n      swap2\n      swap1\n      pop\n      pop\n      pop\n      tag_73\n      jump\t// in\n    tag_71:\n      mload(0x40)\n      dup1\n      dup3\n      dup2\n      mstore\n      0x20\n      add\n      swap2\n      pop\n      pop\n      mload(0x40)\n      dup1\n      swap2\n      sub\n      swap1\n      return\n        /* \"staking/StakingRewardsDualFactory.sol\":20241:20277  uint256 public rewardPerTokenBStored */\n    tag_14:\n      tag_74\n      tag_75\n      jump\t// in\n    tag_74:\n      mload(0x40)\n      dup1\n      dup3\n      dup2\n      mstore\n      0x20\n      add\n      swap2\n      pop\n      pop\n      mload(0x40)\n      dup1\n      swap2\n      sub\n      swap1\n      return\n        /* \"staking/StakingRewardsDualFactory.sol\":17176:17205  address public nominatedOwner */\n    tag_15:\n      tag_76\n      tag_77\n      jump\t// in\n    tag_76:\n      mload(0x40)\n      dup1\n      dup3\n      0xffffffffffffffffffffffffffffffffffffffff\n      and\n      0xffffffffffffffffffffffffffffffffffffffff\n      and\n      dup2\n      mstore\n      0x20\n      add\n      swap2\n      pop\n      pop\n      mload(0x40)\n      dup1\n      swap2\n      sub\n      swap1\n      return\n        /* \"staking/StakingRewardsDualFactory.sol\":18656:18674  bool public paused */\n    tag_16:\n      tag_78\n      tag_79\n      jump\t// in\n    tag_78:\n      mload(0x40)\n      dup1\n      dup3\n      iszero\n      iszero\n      iszero\n      iszero\n      dup2\n      mstore\n      0x20\n      add\n      swap2\n      pop\n      pop\n      mload(0x40)\n      dup1\n      swap2\n      sub\n      swap1\n      return\n        /* \"staking/StakingRewardsDualFactory.sol\":19957:19984  IERC20 public rewardsTokenA */\n    tag_17:\n      tag_80\n      tag_81\n      jump\t// in\n    tag_80:\n      mload(0x40)\n      dup1\n      dup3\n      0xffffffffffffffffffffffffffffffffffffffff\n      and\n      0xffffffffffffffffffffffffffffffffffffffff\n      and\n      dup2\n      mstore\n      0x20\n      add\n      swap2\n      pop\n      pop\n      mload(0x40)\n      dup1\n      swap2\n      sub\n      swap1\n      return\n        /* \"staking/StakingRewardsDualFactory.sol\":22404:22616  function earnedB(address account) public view returns (uint256) {... */\n    tag_18:\n      tag_82\n      0x04\n      dup1\n      calldatasize\n      sub\n        /* \"--CODEGEN--\":13:15   */\n      0x20\n        /* \"--CODEGEN--\":8:11   */\n      dup2\n        /* \"--CODEGEN--\":5:16   */\n      lt\n        /* \"--CODEGEN--\":2:4   */\n      iszero\n      tag_83\n      jumpi\n        /* \"--CODEGEN--\":29:30   */\n      0x00\n        /* \"--CODEGEN--\":26:27   */\n      dup1\n        /* \"--CODEGEN--\":19:31   */\n      revert\n        /* \"--CODEGEN--\":2:4   */\n    tag_83:\n        /* \"staking/StakingRewardsDualFactory.sol\":22404:22616  function earnedB(address account) public view returns (uint256) {... */\n      dup2\n      add\n      swap1\n      dup1\n      dup1\n      calldataload\n      0xffffffffffffffffffffffffffffffffffffffff\n      and\n      swap1\n      0x20\n      add\n      swap1\n      swap3\n      swap2\n      swap1\n      pop\n      pop\n      pop\n      tag_84\n      jump\t// in\n    tag_82:\n      mload(0x40)\n      dup1\n      dup3\n      dup2\n      mstore\n      0x20\n      add\n      swap2\n      pop\n      pop\n      mload(0x40)\n      dup1\n      swap2\n      sub\n      swap1\n      return\n        /* \"staking/StakingRewardsDualFactory.sol\":21865:22192  function rewardPerTokenB() public view returns (uint256) {... */\n    tag_19:\n      tag_85\n      tag_86\n      jump\t// in\n    tag_85:\n      mload(0x40)\n      dup1\n      dup3\n      dup2\n      mstore\n      0x20\n      add\n      swap2\n      pop\n      pop\n      mload(0x40)\n      dup1\n      swap2\n      sub\n      swap1\n      return\n        /* \"staking/StakingRewardsDualFactory.sol\":21282:21392  function balanceOf(address account) external view returns (uint256) {... */\n    tag_20:\n      tag_87\n      0x04\n      dup1\n      calldatasize\n      sub\n        /* \"--CODEGEN--\":13:15   */\n      0x20\n        /* \"--CODEGEN--\":8:11   */\n      dup2\n        /* \"--CODEGEN--\":5:16   */\n      lt\n        /* \"--CODEGEN--\":2:4   */\n      iszero\n      tag_88\n      jumpi\n        /* \"--CODEGEN--\":29:30   */\n      0x00\n        /* \"--CODEGEN--\":26:27   */\n      dup1\n        /* \"--CODEGEN--\":19:31   */\n      revert\n        /* \"--CODEGEN--\":2:4   */\n    tag_88:\n        /* \"staking/StakingRewardsDualFactory.sol\":21282:21392  function balanceOf(address account) external view returns (uint256) {... */\n      dup2\n      add\n      swap1\n      dup1\n      dup1\n      calldataload\n      0xffffffffffffffffffffffffffffffffffffffff\n      and\n      swap1\n      0x20\n      add\n      swap1\n      swap3\n      swap2\n      swap1\n      pop\n      pop\n      pop\n      tag_89\n      jump\t// in\n    tag_87:\n      mload(0x40)\n      dup1\n      dup3\n      dup2\n      mstore\n      0x20\n      add\n      swap2\n      pop\n      pop\n      mload(0x40)\n      dup1\n      swap2\n      sub\n      swap1\n      return\n        /* \"staking/StakingRewardsDualFactory.sol\":20023:20049  IERC20 public stakingToken */\n    tag_21:\n      tag_90\n      tag_91\n      jump\t// in\n    tag_90:\n      mload(0x40)\n      dup1\n      dup3\n      0xffffffffffffffffffffffffffffffffffffffff\n      and\n      0xffffffffffffffffffffffffffffffffffffffff\n      and\n      dup2\n      mstore\n      0x20\n      add\n      swap2\n      pop\n      pop\n      mload(0x40)\n      dup1\n      swap2\n      sub\n      swap1\n      return\n        /* \"staking/StakingRewardsDualFactory.sol\":17543:17809  function acceptOwnership() external {... */\n    tag_22:\n      tag_92\n      tag_93\n      jump\t// in\n    tag_92:\n      stop\n        /* \"staking/StakingRewardsDualFactory.sol\":21398:21527  function lastTimeRewardApplicable() public view returns (uint256) {... */\n    tag_23:\n      tag_94\n      tag_95\n      jump\t// in\n    tag_94:\n      mload(0x40)\n      dup1\n      dup3\n      dup2\n      mstore\n      0x20\n      add\n      swap2\n      pop\n      pop\n      mload(0x40)\n      dup1\n      swap2\n      sub\n      swap1\n      return\n        /* \"staking/StakingRewardsDualFactory.sol\":19990:20017  IERC20 public rewardsTokenB */\n    tag_24:\n      tag_96\n      tag_97\n      jump\t// in\n    tag_96:\n      mload(0x40)\n      dup1\n      dup3\n      0xffffffffffffffffffffffffffffffffffffffff\n      and\n      0xffffffffffffffffffffffffffffffffffffffff\n      and\n      dup2\n      mstore\n      0x20\n      add\n      swap2\n      pop\n      pop\n      mload(0x40)\n      dup1\n      swap2\n      sub\n      swap1\n      return\n        /* \"staking/StakingRewardsDualFactory.sol\":25884:26182  function recoverERC20(address tokenAddress, uint256 tokenAmount) external onlyOwner {... */\n    tag_25:\n      tag_98\n      0x04\n      dup1\n      calldatasize\n      sub\n        /* \"--CODEGEN--\":13:15   */\n      0x40\n        /* \"--CODEGEN--\":8:11   */\n      dup2\n        /* \"--CODEGEN--\":5:16   */\n      lt\n        /* \"--CODEGEN--\":2:4   */\n      iszero\n      tag_99\n      jumpi\n        /* \"--CODEGEN--\":29:30   */\n      0x00\n        /* \"--CODEGEN--\":26:27   */\n      dup1\n        /* \"--CODEGEN--\":19:31   */\n      revert\n        /* \"--CODEGEN--\":2:4   */\n    tag_99:\n        /* \"staking/StakingRewardsDualFactory.sol\":25884:26182  function recoverERC20(address tokenAddress, uint256 tokenAmount) external onlyOwner {... */\n      dup2\n      add\n      swap1\n      dup1\n      dup1\n      calldataload\n      0xffffffffffffffffffffffffffffffffffffffff\n      and\n      swap1\n      0x20\n      add\n      swap1\n      swap3\n      swap2\n      swap1\n      dup1\n      calldataload\n      swap1\n      0x20\n      add\n      swap1\n      swap3\n      swap2\n      swap1\n      pop\n      pop\n      pop\n      tag_100\n      jump\t// in\n    tag_98:\n      stop\n        /* \"staking/StakingRewardsDualFactory.sol\":17150:17170  address public owner */\n    tag_26:\n      tag_101\n      tag_102\n      jump\t// in\n    tag_101:\n      mload(0x40)\n      dup1\n      dup3\n      0xffffffffffffffffffffffffffffffffffffffff\n      and\n      0xffffffffffffffffffffffffffffffffffffffff\n      and\n      dup2\n      mstore\n      0x20\n      add\n      swap2\n      pop\n      pop\n      mload(0x40)\n      dup1\n      swap2\n      sub\n      swap1\n      return\n        /* \"staking/StakingRewardsDualFactory.sol\":18625:18650  uint public lastPauseTime */\n    tag_27:\n      tag_103\n      tag_104\n      jump\t// in\n    tag_103:\n      mload(0x40)\n      dup1\n      dup3\n      dup2\n      mstore\n      0x20\n      add\n      swap2\n      pop\n      pop\n      mload(0x40)\n      dup1\n      swap2\n      sub\n      swap1\n      return\n        /* \"staking/StakingRewardsDualFactory.sol\":22674:23047  function stake(uint256 amount) external nonReentrant notPaused updateReward(msg.sender) {... */\n    tag_28:\n      tag_105\n      0x04\n      dup1\n      calldatasize\n      sub\n        /* \"--CODEGEN--\":13:15   */\n      0x20\n        /* \"--CODEGEN--\":8:11   */\n      dup2\n        /* \"--CODEGEN--\":5:16   */\n      lt\n        /* \"--CODEGEN--\":2:4   */\n      iszero\n      tag_106\n      jumpi\n        /* \"--CODEGEN--\":29:30   */\n      0x00\n        /* \"--CODEGEN--\":26:27   */\n      dup1\n        /* \"--CODEGEN--\":19:31   */\n      revert\n        /* \"--CODEGEN--\":2:4   */\n    tag_106:\n        /* \"staking/StakingRewardsDualFactory.sol\":22674:23047  function stake(uint256 amount) external nonReentrant notPaused updateReward(msg.sender) {... */\n      dup2\n      add\n      swap1\n      dup1\n      dup1\n      calldataload\n      swap1\n      0x20\n      add\n      swap1\n      swap3\n      swap2\n      swap1\n      pop\n      pop\n      pop\n      tag_107\n      jump\t// in\n    tag_105:\n      stop\n        /* \"staking/StakingRewardsDualFactory.sol\":21533:21859  function rewardPerTokenA() public view returns (uint256) {... */\n    tag_29:\n      tag_108\n      tag_109\n      jump\t// in\n    tag_108:\n      mload(0x40)\n      dup1\n      dup3\n      dup2\n      mstore\n      0x20\n      add\n      swap2\n      pop\n      pop\n      mload(0x40)\n      dup1\n      swap2\n      sub\n      swap1\n      return\n        /* \"staking/StakingRewardsDualFactory.sol\":20461:20504  mapping(address => uint256) public rewardsB */\n    tag_30:\n      tag_110\n      0x04\n      dup1\n      calldatasize\n      sub\n        /* \"--CODEGEN--\":13:15   */\n      0x20\n        /* \"--CODEGEN--\":8:11   */\n      dup2\n        /* \"--CODEGEN--\":5:16   */\n      lt\n        /* \"--CODEGEN--\":2:4   */\n      iszero\n      tag_111\n      jumpi\n        /* \"--CODEGEN--\":29:30   */\n      0x00\n        /* \"--CODEGEN--\":26:27   */\n      dup1\n        /* \"--CODEGEN--\":19:31   */\n      revert\n        /* \"--CODEGEN--\":2:4   */\n    tag_111:\n        /* \"staking/StakingRewardsDualFactory.sol\":20461:20504  mapping(address => uint256) public rewardsB */\n      dup2\n      add\n      swap1\n      dup1\n      dup1\n      calldataload\n      0xffffffffffffffffffffffffffffffffffffffff\n      and\n      swap1\n      0x20\n      add\n      swap1\n      swap3\n      swap2\n      swap1\n      pop\n      pop\n      pop\n      tag_112\n      jump\t// in\n    tag_110:\n      mload(0x40)\n      dup1\n      dup3\n      dup2\n      mstore\n      0x20\n      add\n      swap2\n      pop\n      pop\n      mload(0x40)\n      dup1\n      swap2\n      sub\n      swap1\n      return\n        /* \"staking/StakingRewardsDualFactory.sol\":20164:20193  uint256 public lastUpdateTime */\n    tag_31:\n      tag_113\n      tag_114\n      jump\t// in\n    tag_113:\n      mload(0x40)\n      dup1\n      dup3\n      dup2\n      mstore\n      0x20\n      add\n      swap2\n      pop\n      pop\n      mload(0x40)\n      dup1\n      swap2\n      sub\n      swap1\n      return\n        /* \"staking/StakingRewardsDualFactory.sol\":24054:24148  function exit() external {... */\n    tag_32:\n      tag_115\n      tag_116\n      jump\t// in\n    tag_115:\n      stop\n        /* \"staking/StakingRewardsDualFactory.sol\":20055:20086  uint256 public periodFinish = 0 */\n    tag_33:\n      tag_117\n      tag_118\n      jump\t// in\n    tag_117:\n      mload(0x40)\n      dup1\n      dup3\n      dup2\n      mstore\n      0x20\n      add\n      swap2\n      pop\n      pop\n      mload(0x40)\n      dup1\n      swap2\n      sub\n      swap1\n      return\n        /* \"staking/StakingRewardsDualFactory.sol\":20128:20158  uint256 public rewardRateB = 0 */\n    tag_34:\n      tag_119\n      tag_120\n      jump\t// in\n    tag_119:\n      mload(0x40)\n      dup1\n      dup3\n      dup2\n      mstore\n      0x20\n      add\n      swap2\n      pop\n      pop\n      mload(0x40)\n      dup1\n      swap2\n      sub\n      swap1\n      return\n        /* \"staking/StakingRewardsDualFactory.sol\":20199:20235  uint256 public rewardPerTokenAStored */\n    tag_35:\n      tag_121\n      tag_122\n      jump\t// in\n    tag_121:\n      mload(0x40)\n      dup1\n      dup3\n      dup2\n      mstore\n      0x20\n      add\n      swap2\n      pop\n      pop\n      mload(0x40)\n      dup1\n      swap2\n      sub\n      swap1\n      return\n        /* \"staking/StakingRewardsDualFactory.sol\":18195:18233  address public dualRewardsDistribution */\n    tag_36:\n      tag_123\n      tag_124\n      jump\t// in\n    tag_123:\n      mload(0x40)\n      dup1\n      dup3\n      0xffffffffffffffffffffffffffffffffffffffff\n      and\n      0xffffffffffffffffffffffffffffffffffffffff\n      and\n      dup2\n      mstore\n      0x20\n      add\n      swap2\n      pop\n      pop\n      mload(0x40)\n      dup1\n      swap2\n      sub\n      swap1\n      return\n        /* \"staking/StakingRewardsDualFactory.sol\":24208:25811  function notifyRewardAmount(uint256 rewardA, uint256 rewardB,  uint256 rewardsDuration) external onlyDualRewardsDistribution updateReward(address(0)) {... */\n    tag_46:\n        /* \"staking/StakingRewardsDualFactory.sol\":18413:18436  dualRewardsDistribution */\n      0x02\n      0x00\n      swap1\n      sload\n      swap1\n      0x0100\n      exp\n      swap1\n      div\n      0xffffffffffffffffffffffffffffffffffffffff\n      and\n        /* \"staking/StakingRewardsDualFactory.sol\":18399:18436  msg.sender == dualRewardsDistribution */\n      0xffffffffffffffffffffffffffffffffffffffff\n      and\n        /* \"staking/StakingRewardsDualFactory.sol\":18399:18409  msg.sender */\n      caller\n        /* \"staking/StakingRewardsDualFactory.sol\":18399:18436  msg.sender == dualRewardsDistribution */\n      0xffffffffffffffffffffffffffffffffffffffff\n      and\n      eq\n        /* \"staking/StakingRewardsDualFactory.sol\":18391:18487  require(msg.sender == dualRewardsDistribution, \"Caller is not DualRewardsDistribution contract\") */\n      tag_126\n      jumpi\n      mload(0x40)\n      0x08c379a000000000000000000000000000000000000000000000000000000000\n      dup2\n      mstore\n      0x04\n      add\n      dup1\n      dup1\n      0x20\n      add\n      dup3\n      dup2\n      sub\n      dup3\n      mstore\n      0x2e\n      dup2\n      mstore\n      0x20\n      add\n      dup1\n      data_d0a4b9d39046169b5d3a6add3d2c6fbd461c7a23943052d17fea7bf37fec189b\n      0x2e\n      swap2\n      codecopy\n      0x40\n      add\n      swap2\n      pop\n      pop\n      mload(0x40)\n      dup1\n      swap2\n      sub\n      swap1\n      revert\n    tag_126:\n        /* \"staking/StakingRewardsDualFactory.sol\":24354:24355  0 */\n      0x00\n        /* \"staking/StakingRewardsDualFactory.sol\":26305:26322  rewardPerTokenA() */\n      tag_128\n        /* \"staking/StakingRewardsDualFactory.sol\":26305:26320  rewardPerTokenA */\n      tag_109\n        /* \"staking/StakingRewardsDualFactory.sol\":26305:26322  rewardPerTokenA() */\n      jump\t// in\n    tag_128:\n        /* \"staking/StakingRewardsDualFactory.sol\":26281:26302  rewardPerTokenAStored */\n      0x0c\n        /* \"staking/StakingRewardsDualFactory.sol\":26281:26322  rewardPerTokenAStored = rewardPerTokenA() */\n      dup2\n      swap1\n      sstore\n      pop\n        /* \"staking/StakingRewardsDualFactory.sol\":26356:26373  rewardPerTokenB() */\n      tag_129\n        /* \"staking/StakingRewardsDualFactory.sol\":26356:26371  rewardPerTokenB */\n      tag_86\n        /* \"staking/StakingRewardsDualFactory.sol\":26356:26373  rewardPerTokenB() */\n      jump\t// in\n    tag_129:\n        /* \"staking/StakingRewardsDualFactory.sol\":26332:26353  rewardPerTokenBStored */\n      0x0d\n        /* \"staking/StakingRewardsDualFactory.sol\":26332:26373  rewardPerTokenBStored = rewardPerTokenB() */\n      dup2\n      swap1\n      sstore\n      pop\n        /* \"staking/StakingRewardsDualFactory.sol\":26400:26426  lastTimeRewardApplicable() */\n      tag_130\n        /* \"staking/StakingRewardsDualFactory.sol\":26400:26424  lastTimeRewardApplicable */\n      tag_95\n        /* \"staking/StakingRewardsDualFactory.sol\":26400:26426  lastTimeRewardApplicable() */\n      jump\t// in\n    tag_130:\n        /* \"staking/StakingRewardsDualFactory.sol\":26383:26397  lastUpdateTime */\n      0x0b\n        /* \"staking/StakingRewardsDualFactory.sol\":26383:26426  lastUpdateTime = lastTimeRewardApplicable() */\n      dup2\n      swap1\n      sstore\n      pop\n        /* \"staking/StakingRewardsDualFactory.sol\":26459:26460  0 */\n      0x00\n        /* \"staking/StakingRewardsDualFactory.sol\":26440:26461  account != address(0) */\n      0xffffffffffffffffffffffffffffffffffffffff\n      and\n        /* \"staking/StakingRewardsDualFactory.sol\":26440:26447  account */\n      dup2\n        /* \"staking/StakingRewardsDualFactory.sol\":26440:26461  account != address(0) */\n      0xffffffffffffffffffffffffffffffffffffffff\n      and\n      eq\n        /* \"staking/StakingRewardsDualFactory.sol\":26436:26594  if (account != address(0)) {... */\n      tag_131\n      jumpi\n        /* \"staking/StakingRewardsDualFactory.sol\":26497:26513  earnedA(account) */\n      tag_132\n        /* \"staking/StakingRewardsDualFactory.sol\":26505:26512  account */\n      dup2\n        /* \"staking/StakingRewardsDualFactory.sol\":26497:26504  earnedA */\n      tag_57\n        /* \"staking/StakingRewardsDualFactory.sol\":26497:26513  earnedA(account) */\n      jump\t// in\n    tag_132:\n        /* \"staking/StakingRewardsDualFactory.sol\":26477:26485  rewardsA */\n      0x10\n        /* \"staking/StakingRewardsDualFactory.sol\":26477:26494  rewardsA[account] */\n      0x00\n        /* \"staking/StakingRewardsDualFactory.sol\":26486:26493  account */\n      dup4\n        /* \"staking/StakingRewardsDualFactory.sol\":26477:26494  rewardsA[account] */\n      0xffffffffffffffffffffffffffffffffffffffff\n      and\n      0xffffffffffffffffffffffffffffffffffffffff\n      and\n      dup2\n      mstore\n      0x20\n      add\n      swap1\n      dup2\n      mstore\n      0x20\n      add\n      0x00\n      keccak256\n        /* \"staking/StakingRewardsDualFactory.sol\":26477:26513  rewardsA[account] = earnedA(account) */\n      dup2\n      swap1\n      sstore\n      pop\n        /* \"staking/StakingRewardsDualFactory.sol\":26562:26583  rewardPerTokenAStored */\n      sload(0x0c)\n        /* \"staking/StakingRewardsDualFactory.sol\":26527:26550  userRewardPerTokenAPaid */\n      0x0e\n        /* \"staking/StakingRewardsDualFactory.sol\":26527:26559  userRewardPerTokenAPaid[account] */\n      0x00\n        /* \"staking/StakingRewardsDualFactory.sol\":26551:26558  account */\n      dup4\n        /* \"staking/StakingRewardsDualFactory.sol\":26527:26559  userRewardPerTokenAPaid[account] */\n      0xffffffffffffffffffffffffffffffffffffffff\n      and\n      0xffffffffffffffffffffffffffffffffffffffff\n      and\n      dup2\n      mstore\n      0x20\n      add\n      swap1\n      dup2\n      mstore\n      0x20\n      add\n      0x00\n      keccak256\n        /* \"staking/StakingRewardsDualFactory.sol\":26527:26583  userRewardPerTokenAPaid[account] = rewardPerTokenAStored */\n      dup2\n      swap1\n      sstore\n      pop\n        /* \"staking/StakingRewardsDualFactory.sol\":26436:26594  if (account != address(0)) {... */\n    tag_131:\n        /* \"staking/StakingRewardsDualFactory.sol\":26627:26628  0 */\n      0x00\n        /* \"staking/StakingRewardsDualFactory.sol\":26608:26629  account != address(0) */\n      0xffffffffffffffffffffffffffffffffffffffff\n      and\n        /* \"staking/StakingRewardsDualFactory.sol\":26608:26615  account */\n      dup2\n        /* \"staking/StakingRewardsDualFactory.sol\":26608:26629  account != address(0) */\n      0xffffffffffffffffffffffffffffffffffffffff\n      and\n      eq\n        /* \"staking/StakingRewardsDualFactory.sol\":26604:26762  if (account != address(0)) {... */\n      tag_133\n      jumpi\n        /* \"staking/StakingRewardsDualFactory.sol\":26665:26681  earnedB(account) */\n      tag_134\n        /* \"staking/StakingRewardsDualFactory.sol\":26673:26680  account */\n      dup2\n        /* \"staking/StakingRewardsDualFactory.sol\":26665:26672  earnedB */\n      tag_84\n        /* \"staking/StakingRewardsDualFactory.sol\":26665:26681  earnedB(account) */\n      jump\t// in\n    tag_134:\n        /* \"staking/StakingRewardsDualFactory.sol\":26645:26653  rewardsB */\n      0x11\n        /* \"staking/StakingRewardsDualFactory.sol\":26645:26662  rewardsB[account] */\n      0x00\n        /* \"staking/StakingRewardsDualFactory.sol\":26654:26661  account */\n      dup4\n        /* \"staking/StakingRewardsDualFactory.sol\":26645:26662  rewardsB[account] */\n      0xffffffffffffffffffffffffffffffffffffffff\n      and\n      0xffffffffffffffffffffffffffffffffffffffff\n      and\n      dup2\n      mstore\n      0x20\n      add\n      swap1\n      dup2\n      mstore\n      0x20\n      add\n      0x00\n      keccak256\n        /* \"staking/StakingRewardsDualFactory.sol\":26645:26681  rewardsB[account] = earnedB(account) */\n      dup2\n      swap1\n      sstore\n      pop\n        /* \"staking/StakingRewardsDualFactory.sol\":26730:26751  rewardPerTokenBStored */\n      sload(0x0d)\n        /* \"staking/StakingRewardsDualFactory.sol\":26695:26718  userRewardPerTokenBPaid */\n      0x0f\n        /* \"staking/StakingRewardsDualFactory.sol\":26695:26727  userRewardPerTokenBPaid[account] */\n      0x00\n        /* \"staking/StakingRewardsDualFactory.sol\":26719:26726  account */\n      dup4\n        /* \"staking/StakingRewardsDualFactory.sol\":26695:26727  userRewardPerTokenBPaid[account] */\n      0xffffffffffffffffffffffffffffffffffffffff\n      and\n      0xffffffffffffffffffffffffffffffffffffffff\n      and\n      dup2\n      mstore\n      0x20\n      add\n      swap1\n      dup2\n      mstore\n      0x20\n      add\n      0x00\n      keccak256\n        /* \"staking/StakingRewardsDualFactory.sol\":26695:26751  userRewardPerTokenBPaid[account] = rewardPerTokenBStored */\n      dup2\n      swap1\n      sstore\n      pop\n        /* \"staking/StakingRewardsDualFactory.sol\":26604:26762  if (account != address(0)) {... */\n    tag_133:\n        /* \"staking/StakingRewardsDualFactory.sol\":24416:24428  periodFinish */\n      sload(0x08)\n        /* \"staking/StakingRewardsDualFactory.sol\":24376:24412  block.timestamp.add(rewardsDuration) */\n      tag_136\n        /* \"staking/StakingRewardsDualFactory.sol\":24396:24411  rewardsDuration */\n      dup4\n        /* \"staking/StakingRewardsDualFactory.sol\":24376:24391  block.timestamp */\n      timestamp\n        /* \"staking/StakingRewardsDualFactory.sol\":24376:24395  block.timestamp.add */\n      tag_137\n      swap1\n        /* \"staking/StakingRewardsDualFactory.sol\":24376:24412  block.timestamp.add(rewardsDuration) */\n      swap2\n      swap1\n      0xffffffff\n      and\n      jump\t// in\n    tag_136:\n        /* \"staking/StakingRewardsDualFactory.sol\":24376:24428  block.timestamp.add(rewardsDuration) >= periodFinish */\n      lt\n      iszero\n        /* \"staking/StakingRewardsDualFactory.sol\":24368:24462  require(block.timestamp.add(rewardsDuration) >= periodFinish, \"Cannot reduce existing period\") */\n      tag_138\n      jumpi\n      mload(0x40)\n      0x08c379a000000000000000000000000000000000000000000000000000000000\n      dup2\n      mstore\n      0x04\n      add\n      dup1\n      dup1\n      0x20\n      add\n      dup3\n      dup2\n      sub\n      dup3\n      mstore\n      0x1d\n      dup2\n      mstore\n      0x20\n      add\n      dup1\n      0x43616e6e6f7420726564756365206578697374696e6720706572696f64000000\n      dup2\n      mstore\n      pop\n      0x20\n      add\n      swap2\n      pop\n      pop\n      mload(0x40)\n      dup1\n      swap2\n      sub\n      swap1\n      revert\n    tag_138:\n        /* \"staking/StakingRewardsDualFactory.sol\":24496:24508  periodFinish */\n      sload(0x08)\n        /* \"staking/StakingRewardsDualFactory.sol\":24477:24492  block.timestamp */\n      timestamp\n        /* \"staking/StakingRewardsDualFactory.sol\":24477:24508  block.timestamp >= periodFinish */\n      lt\n        /* \"staking/StakingRewardsDualFactory.sol\":24473:24983  if (block.timestamp >= periodFinish) {... */\n      tag_139\n      jumpi\n        /* \"staking/StakingRewardsDualFactory.sol\":24538:24566  rewardA.div(rewardsDuration) */\n      tag_140\n        /* \"staking/StakingRewardsDualFactory.sol\":24550:24565  rewardsDuration */\n      dup3\n        /* \"staking/StakingRewardsDualFactory.sol\":24538:24545  rewardA */\n      dup6\n        /* \"staking/StakingRewardsDualFactory.sol\":24538:24549  rewardA.div */\n      tag_141\n      swap1\n        /* \"staking/StakingRewardsDualFactory.sol\":24538:24566  rewardA.div(rewardsDuration) */\n      swap2\n      swap1\n      0xffffffff\n      and\n      jump\t// in\n    tag_140:\n        /* \"staking/StakingRewardsDualFactory.sol\":24524:24535  rewardRateA */\n      0x09\n        /* \"staking/StakingRewardsDualFactory.sol\":24524:24566  rewardRateA = rewardA.div(rewardsDuration) */\n      dup2\n      swap1\n      sstore\n      pop\n        /* \"staking/StakingRewardsDualFactory.sol\":24594:24622  rewardB.div(rewardsDuration) */\n      tag_142\n        /* \"staking/StakingRewardsDualFactory.sol\":24606:24621  rewardsDuration */\n      dup3\n        /* \"staking/StakingRewardsDualFactory.sol\":24594:24601  rewardB */\n      dup5\n        /* \"staking/StakingRewardsDualFactory.sol\":24594:24605  rewardB.div */\n      tag_141\n      swap1\n        /* \"staking/StakingRewardsDualFactory.sol\":24594:24622  rewardB.div(rewardsDuration) */\n      swap2\n      swap1\n      0xffffffff\n      and\n      jump\t// in\n    tag_142:\n        /* \"staking/StakingRewardsDualFactory.sol\":24580:24591  rewardRateB */\n      0x0a\n        /* \"staking/StakingRewardsDualFactory.sol\":24580:24622  rewardRateB = rewardB.div(rewardsDuration) */\n      dup2\n      swap1\n      sstore\n      pop\n        /* \"staking/StakingRewardsDualFactory.sol\":24473:24983  if (block.timestamp >= periodFinish) {... */\n      jump(tag_143)\n    tag_139:\n        /* \"staking/StakingRewardsDualFactory.sol\":24653:24670  uint256 remaining */\n      0x00\n        /* \"staking/StakingRewardsDualFactory.sol\":24673:24706  periodFinish.sub(block.timestamp) */\n      tag_144\n        /* \"staking/StakingRewardsDualFactory.sol\":24690:24705  block.timestamp */\n      timestamp\n        /* \"staking/StakingRewardsDualFactory.sol\":24673:24685  periodFinish */\n      sload(0x08)\n        /* \"staking/StakingRewardsDualFactory.sol\":24673:24689  periodFinish.sub */\n      tag_145\n      swap1\n        /* \"staking/StakingRewardsDualFactory.sol\":24673:24706  periodFinish.sub(block.timestamp) */\n      swap2\n      swap1\n      0xffffffff\n      and\n      jump\t// in\n    tag_144:\n        /* \"staking/StakingRewardsDualFactory.sol\":24653:24706  uint256 remaining = periodFinish.sub(block.timestamp) */\n      swap1\n      pop\n        /* \"staking/StakingRewardsDualFactory.sol\":24721:24738  uint256 leftoverA */\n      0x00\n        /* \"staking/StakingRewardsDualFactory.sol\":24741:24767  remaining.mul(rewardRateA) */\n      tag_146\n        /* \"staking/StakingRewardsDualFactory.sol\":24755:24766  rewardRateA */\n      sload(0x09)\n        /* \"staking/StakingRewardsDualFactory.sol\":24741:24750  remaining */\n      dup4\n        /* \"staking/StakingRewardsDualFactory.sol\":24741:24754  remaining.mul */\n      tag_147\n      swap1\n        /* \"staking/StakingRewardsDualFactory.sol\":24741:24767  remaining.mul(rewardRateA) */\n      swap2\n      swap1\n      0xffffffff\n      and\n      jump\t// in\n    tag_146:\n        /* \"staking/StakingRewardsDualFactory.sol\":24721:24767  uint256 leftoverA = remaining.mul(rewardRateA) */\n      swap1\n      pop\n        /* \"staking/StakingRewardsDualFactory.sol\":24795:24838  rewardA.add(leftoverA).div(rewardsDuration) */\n      tag_148\n        /* \"staking/StakingRewardsDualFactory.sol\":24822:24837  rewardsDuration */\n      dup5\n        /* \"staking/StakingRewardsDualFactory.sol\":24795:24817  rewardA.add(leftoverA) */\n      tag_149\n        /* \"staking/StakingRewardsDualFactory.sol\":24807:24816  leftoverA */\n      dup4\n        /* \"staking/StakingRewardsDualFactory.sol\":24795:24802  rewardA */\n      dup10\n        /* \"staking/StakingRewardsDualFactory.sol\":24795:24806  rewardA.add */\n      tag_137\n      swap1\n        /* \"staking/StakingRewardsDualFactory.sol\":24795:24817  rewardA.add(leftoverA) */\n      swap2\n      swap1\n      0xffffffff\n      and\n      jump\t// in\n    tag_149:\n        /* \"staking/StakingRewardsDualFactory.sol\":24795:24821  rewardA.add(leftoverA).div */\n      tag_141\n      swap1\n        /* \"staking/StakingRewardsDualFactory.sol\":24795:24838  rewardA.add(leftoverA).div(rewardsDuration) */\n      swap2\n      swap1\n      0xffffffff\n      and\n      jump\t// in\n    tag_148:\n        /* \"staking/StakingRewardsDualFactory.sol\":24781:24792  rewardRateA */\n      0x09\n        /* \"staking/StakingRewardsDualFactory.sol\":24781:24838  rewardRateA = rewardA.add(leftoverA).div(rewardsDuration) */\n      dup2\n      swap1\n      sstore\n      pop\n        /* \"staking/StakingRewardsDualFactory.sol\":24853:24870  uint256 leftoverB */\n      0x00\n        /* \"staking/StakingRewardsDualFactory.sol\":24873:24899  remaining.mul(rewardRateB) */\n      tag_150\n        /* \"staking/StakingRewardsDualFactory.sol\":24887:24898  rewardRateB */\n      sload(0x0a)\n        /* \"staking/StakingRewardsDualFactory.sol\":24873:24882  remaining */\n      dup5\n        /* \"staking/StakingRewardsDualFactory.sol\":24873:24886  remaining.mul */\n      tag_147\n      swap1\n        /* \"staking/StakingRewardsDualFactory.sol\":24873:24899  remaining.mul(rewardRateB) */\n      swap2\n      swap1\n      0xffffffff\n      and\n      jump\t// in\n    tag_150:\n        /* \"staking/StakingRewardsDualFactory.sol\":24853:24899  uint256 leftoverB = remaining.mul(rewardRateB) */\n      swap1\n      pop\n        /* \"staking/StakingRewardsDualFactory.sol\":24927:24970  rewardB.add(leftoverB).div(rewardsDuration) */\n      tag_151\n        /* \"staking/StakingRewardsDualFactory.sol\":24954:24969  rewardsDuration */\n      dup6\n        /* \"staking/StakingRewardsDualFactory.sol\":24927:24949  rewardB.add(leftoverB) */\n      tag_152\n        /* \"staking/StakingRewardsDualFactory.sol\":24939:24948  leftoverB */\n      dup4\n        /* \"staking/StakingRewardsDualFactory.sol\":24927:24934  rewardB */\n      dup10\n        /* \"staking/StakingRewardsDualFactory.sol\":24927:24938  rewardB.add */\n      tag_137\n      swap1\n        /* \"staking/StakingRewardsDualFactory.sol\":24927:24949  rewardB.add(leftoverB) */\n      swap2\n      swap1\n      0xffffffff\n      and\n      jump\t// in\n    tag_152:\n        /* \"staking/StakingRewardsDualFactory.sol\":24927:24953  rewardB.add(leftoverB).div */\n      tag_141\n      swap1\n        /* \"staking/StakingRewardsDualFactory.sol\":24927:24970  rewardB.add(leftoverB).div(rewardsDuration) */\n      swap2\n      swap1\n      0xffffffff\n      and\n      jump\t// in\n    tag_151:\n        /* \"staking/StakingRewardsDualFactory.sol\":24913:24924  rewardRateB */\n      0x0a\n        /* \"staking/StakingRewardsDualFactory.sol\":24913:24970  rewardRateB = rewardB.add(leftoverB).div(rewardsDuration) */\n      dup2\n      swap1\n      sstore\n      pop\n        /* \"staking/StakingRewardsDualFactory.sol\":24473:24983  if (block.timestamp >= periodFinish) {... */\n      pop\n      pop\n      pop\n    tag_143:\n        /* \"staking/StakingRewardsDualFactory.sol\":25337:25350  uint balanceA */\n      0x00\n        /* \"staking/StakingRewardsDualFactory.sol\":25353:25366  rewardsTokenA */\n      0x05\n      0x01\n      swap1\n      sload\n      swap1\n      0x0100\n      exp\n      swap1\n      div\n      0xffffffffffffffffffffffffffffffffffffffff\n      and\n        /* \"staking/StakingRewardsDualFactory.sol\":25353:25376  rewardsTokenA.balanceOf */\n      0xffffffffffffffffffffffffffffffffffffffff\n      and\n      0x70a08231\n        /* \"staking/StakingRewardsDualFactory.sol\":25385:25389  this */\n      address\n        /* \"staking/StakingRewardsDualFactory.sol\":25353:25391  rewardsTokenA.balanceOf(address(this)) */\n      mload(0x40)\n      dup3\n      0xffffffff\n      and\n      0xe0\n      shl\n      dup2\n      mstore\n      0x04\n      add\n      dup1\n      dup3\n      0xffffffffffffffffffffffffffffffffffffffff\n      and\n      0xffffffffffffffffffffffffffffffffffffffff\n      and\n      dup2\n      mstore\n      0x20\n      add\n      swap2\n      pop\n      pop\n      0x20\n      mload(0x40)\n      dup1\n      dup4\n      sub\n      dup2\n      dup7\n      dup1\n      extcodesize\n      iszero\n        /* \"--CODEGEN--\":8:17   */\n      dup1\n        /* \"--CODEGEN--\":5:7   */\n      iszero\n      tag_153\n      jumpi\n        /* \"--CODEGEN--\":30:31   */\n      0x00\n        /* \"--CODEGEN--\":27:28   */\n      dup1\n        /* \"--CODEGEN--\":20:32   */\n      revert\n        /* \"--CODEGEN--\":5:7   */\n    tag_153:\n        /* \"staking/StakingRewardsDualFactory.sol\":25353:25391  rewardsTokenA.balanceOf(address(this)) */\n      pop\n      gas\n      staticcall\n      iszero\n        /* \"--CODEGEN--\":8:17   */\n      dup1\n        /* \"--CODEGEN--\":5:7   */\n      iszero\n      tag_154\n      jumpi\n        /* \"--CODEGEN--\":45:61   */\n      returndatasize\n        /* \"--CODEGEN--\":42:43   */\n      0x00\n        /* \"--CODEGEN--\":39:40   */\n      dup1\n        /* \"--CODEGEN--\":24:62   */\n      returndatacopy\n        /* \"--CODEGEN--\":77:93   */\n      returndatasize\n        /* \"--CODEGEN--\":74:75   */\n      0x00\n        /* \"--CODEGEN--\":67:94   */\n      revert\n        /* \"--CODEGEN--\":5:7   */\n    tag_154:\n        /* \"staking/StakingRewardsDualFactory.sol\":25353:25391  rewardsTokenA.balanceOf(address(this)) */\n      pop\n      pop\n      pop\n      pop\n      mload(0x40)\n      returndatasize\n        /* \"--CODEGEN--\":13:15   */\n      0x20\n        /* \"--CODEGEN--\":8:11   */\n      dup2\n        /* \"--CODEGEN--\":5:16   */\n      lt\n        /* \"--CODEGEN--\":2:4   */\n      iszero\n      tag_155\n      jumpi\n        /* \"--CODEGEN--\":29:30   */\n      0x00\n        /* \"--CODEGEN--\":26:27   */\n      dup1\n        /* \"--CODEGEN--\":19:31   */\n      revert\n        /* \"--CODEGEN--\":2:4   */\n    tag_155:\n        /* \"staking/StakingRewardsDualFactory.sol\":25353:25391  rewardsTokenA.balanceOf(address(this)) */\n      dup2\n      add\n      swap1\n      dup1\n      dup1\n      mload\n      swap1\n      0x20\n      add\n      swap1\n      swap3\n      swap2\n      swap1\n      pop\n      pop\n      pop\n        /* \"staking/StakingRewardsDualFactory.sol\":25337:25391  uint balanceA = rewardsTokenA.balanceOf(address(this)) */\n      swap1\n      pop\n        /* \"staking/StakingRewardsDualFactory.sol\":25424:25453  balanceA.div(rewardsDuration) */\n      tag_156\n        /* \"staking/StakingRewardsDualFactory.sol\":25437:25452  rewardsDuration */\n      dup4\n        /* \"staking/StakingRewardsDualFactory.sol\":25424:25432  balanceA */\n      dup3\n        /* \"staking/StakingRewardsDualFactory.sol\":25424:25436  balanceA.div */\n      tag_141\n      swap1\n        /* \"staking/StakingRewardsDualFactory.sol\":25424:25453  balanceA.div(rewardsDuration) */\n      swap2\n      swap1\n      0xffffffff\n      and\n      jump\t// in\n    tag_156:\n        /* \"staking/StakingRewardsDualFactory.sol\":25409:25420  rewardRateA */\n      sload(0x09)\n        /* \"staking/StakingRewardsDualFactory.sol\":25409:25453  rewardRateA <= balanceA.div(rewardsDuration) */\n      gt\n      iszero\n        /* \"staking/StakingRewardsDualFactory.sol\":25401:25484  require(rewardRateA <= balanceA.div(rewardsDuration), \"Provided reward-A too high\") */\n      tag_157\n      jumpi\n      mload(0x40)\n      0x08c379a000000000000000000000000000000000000000000000000000000000\n      dup2\n      mstore\n      0x04\n      add\n      dup1\n      dup1\n      0x20\n      add\n      dup3\n      dup2\n      sub\n      dup3\n      mstore\n      0x1a\n      dup2\n      mstore\n      0x20\n      add\n      dup1\n      0x50726f7669646564207265776172642d4120746f6f2068696768000000000000\n      dup2\n      mstore\n      pop\n      0x20\n      add\n      swap2\n      pop\n      pop\n      mload(0x40)\n      dup1\n      swap2\n      sub\n      swap1\n      revert\n    tag_157:\n        /* \"staking/StakingRewardsDualFactory.sol\":25495:25508  uint balanceB */\n      0x00\n        /* \"staking/StakingRewardsDualFactory.sol\":25511:25524  rewardsTokenB */\n      0x06\n      0x00\n      swap1\n      sload\n      swap1\n      0x0100\n      exp\n      swap1\n      div\n      0xffffffffffffffffffffffffffffffffffffffff\n      and\n        /* \"staking/StakingRewardsDualFactory.sol\":25511:25534  rewardsTokenB.balanceOf */\n      0xffffffffffffffffffffffffffffffffffffffff\n      and\n      0x70a08231\n        /* \"staking/StakingRewardsDualFactory.sol\":25543:25547  this */\n      address\n        /* \"staking/StakingRewardsDualFactory.sol\":25511:25549  rewardsTokenB.balanceOf(address(this)) */\n      mload(0x40)\n      dup3\n      0xffffffff\n      and\n      0xe0\n      shl\n      dup2\n      mstore\n      0x04\n      add\n      dup1\n      dup3\n      0xffffffffffffffffffffffffffffffffffffffff\n      and\n      0xffffffffffffffffffffffffffffffffffffffff\n      and\n      dup2\n      mstore\n      0x20\n      add\n      swap2\n      pop\n      pop\n      0x20\n      mload(0x40)\n      dup1\n      dup4\n      sub\n      dup2\n      dup7\n      dup1\n      extcodesize\n      iszero\n        /* \"--CODEGEN--\":8:17   */\n      dup1\n        /* \"--CODEGEN--\":5:7   */\n      iszero\n      tag_158\n      jumpi\n        /* \"--CODEGEN--\":30:31   */\n      0x00\n        /* \"--CODEGEN--\":27:28   */\n      dup1\n        /* \"--CODEGEN--\":20:32   */\n      revert\n        /* \"--CODEGEN--\":5:7   */\n    tag_158:\n        /* \"staking/StakingRewardsDualFactory.sol\":25511:25549  rewardsTokenB.balanceOf(address(this)) */\n      pop\n      gas\n      staticcall\n      iszero\n        /* \"--CODEGEN--\":8:17   */\n      dup1\n        /* \"--CODEGEN--\":5:7   */\n      iszero\n      tag_159\n      jumpi\n        /* \"--CODEGEN--\":45:61   */\n      returndatasize\n        /* \"--CODEGEN--\":42:43   */\n      0x00\n        /* \"--CODEGEN--\":39:40   */\n      dup1\n        /* \"--CODEGEN--\":24:62   */\n      returndatacopy\n        /* \"--CODEGEN--\":77:93   */\n      returndatasize\n        /* \"--CODEGEN--\":74:75   */\n      0x00\n        /* \"--CODEGEN--\":67:94   */\n      revert\n        /* \"--CODEGEN--\":5:7   */\n    tag_159:\n        /* \"staking/StakingRewardsDualFactory.sol\":25511:25549  rewardsTokenB.balanceOf(address(this)) */\n      pop\n      pop\n      pop\n      pop\n      mload(0x40)\n      returndatasize\n        /* \"--CODEGEN--\":13:15   */\n      0x20\n        /* \"--CODEGEN--\":8:11   */\n      dup2\n        /* \"--CODEGEN--\":5:16   */\n      lt\n        /* \"--CODEGEN--\":2:4   */\n      iszero\n      tag_160\n      jumpi\n        /* \"--CODEGEN--\":29:30   */\n      0x00\n        /* \"--CODEGEN--\":26:27   */\n      dup1\n        /* \"--CODEGEN--\":19:31   */\n      revert\n        /* \"--CODEGEN--\":2:4   */\n    tag_160:\n        /* \"staking/StakingRewardsDualFactory.sol\":25511:25549  rewardsTokenB.balanceOf(address(this)) */\n      dup2\n      add\n      swap1\n      dup1\n      dup1\n      mload\n      swap1\n      0x20\n      add\n      swap1\n      swap3\n      swap2\n      swap1\n      pop\n      pop\n      pop\n        /* \"staking/StakingRewardsDualFactory.sol\":25495:25549  uint balanceB = rewardsTokenB.balanceOf(address(this)) */\n      swap1\n      pop\n        /* \"staking/StakingRewardsDualFactory.sol\":25582:25611  balanceB.div(rewardsDuration) */\n      tag_161\n        /* \"staking/StakingRewardsDualFactory.sol\":25595:25610  rewardsDuration */\n      dup5\n        /* \"staking/StakingRewardsDualFactory.sol\":25582:25590  balanceB */\n      dup3\n        /* \"staking/StakingRewardsDualFactory.sol\":25582:25594  balanceB.div */\n      tag_141\n      swap1\n        /* \"staking/StakingRewardsDualFactory.sol\":25582:25611  balanceB.div(rewardsDuration) */\n      swap2\n      swap1\n      0xffffffff\n      and\n      jump\t// in\n    tag_161:\n        /* \"staking/StakingRewardsDualFactory.sol\":25567:25578  rewardRateB */\n      sload(0x0a)\n        /* \"staking/StakingRewardsDualFactory.sol\":25567:25611  rewardRateB <= balanceB.div(rewardsDuration) */\n      gt\n      iszero\n        /* \"staking/StakingRewardsDualFactory.sol\":25559:25642  require(rewardRateB <= balanceB.div(rewardsDuration), \"Provided reward-B too high\") */\n      tag_162\n      jumpi\n      mload(0x40)\n      0x08c379a000000000000000000000000000000000000000000000000000000000\n      dup2\n      mstore\n      0x04\n      add\n      dup1\n      dup1\n      0x20\n      add\n      dup3\n      dup2\n      sub\n      dup3\n      mstore\n      0x1a\n      dup2\n      mstore\n      0x20\n      add\n      dup1\n      0x50726f7669646564207265776172642d4220746f6f2068696768000000000000\n      dup2\n      mstore\n      pop\n      0x20\n      add\n      swap2\n      pop\n      pop\n      mload(0x40)\n      dup1\n      swap2\n      sub\n      swap1\n      revert\n    tag_162:\n        /* \"staking/StakingRewardsDualFactory.sol\":25670:25685  block.timestamp */\n      timestamp\n        /* \"staking/StakingRewardsDualFactory.sol\":25653:25667  lastUpdateTime */\n      0x0b\n        /* \"staking/StakingRewardsDualFactory.sol\":25653:25685  lastUpdateTime = block.timestamp */\n      dup2\n      swap1\n      sstore\n      pop\n        /* \"staking/StakingRewardsDualFactory.sol\":25710:25746  block.timestamp.add(rewardsDuration) */\n      tag_163\n        /* \"staking/StakingRewardsDualFactory.sol\":25730:25745  rewardsDuration */\n      dup5\n        /* \"staking/StakingRewardsDualFactory.sol\":25710:25725  block.timestamp */\n      timestamp\n        /* \"staking/StakingRewardsDualFactory.sol\":25710:25729  block.timestamp.add */\n      tag_137\n      swap1\n        /* \"staking/StakingRewardsDualFactory.sol\":25710:25746  block.timestamp.add(rewardsDuration) */\n      swap2\n      swap1\n      0xffffffff\n      and\n      jump\t// in\n    tag_163:\n        /* \"staking/StakingRewardsDualFactory.sol\":25695:25707  periodFinish */\n      0x08\n        /* \"staking/StakingRewardsDualFactory.sol\":25695:25746  periodFinish = block.timestamp.add(rewardsDuration) */\n      dup2\n      swap1\n      sstore\n      pop\n        /* \"staking/StakingRewardsDualFactory.sol\":25761:25804  RewardAdded(rewardA, rewardB, periodFinish) */\n      0x9795f222c951ae3e749f872dbe287f78d21fa52353e9175cb20ed3aa2b29b82b\n        /* \"staking/StakingRewardsDualFactory.sol\":25773:25780  rewardA */\n      dup7\n        /* \"staking/StakingRewardsDualFactory.sol\":25782:25789  rewardB */\n      dup7\n        /* \"staking/StakingRewardsDualFactory.sol\":25791:25803  periodFinish */\n      sload(0x08)\n        /* \"staking/StakingRewardsDualFactory.sol\":25761:25804  RewardAdded(rewardA, rewardB, periodFinish) */\n      mload(0x40)\n      dup1\n      dup5\n      dup2\n      mstore\n      0x20\n      add\n      dup4\n      dup2\n      mstore\n      0x20\n      add\n      dup3\n      dup2\n      mstore\n      0x20\n      add\n      swap4\n      pop\n      pop\n      pop\n      pop\n      mload(0x40)\n      dup1\n      swap2\n      sub\n      swap1\n      log1\n        /* \"staking/StakingRewardsDualFactory.sol\":26771:26772  _ */\n      pop\n      pop\n        /* \"staking/StakingRewardsDualFactory.sol\":18497:18498  _ */\n      pop\n        /* \"staking/StakingRewardsDualFactory.sol\":24208:25811  function notifyRewardAmount(uint256 rewardA, uint256 rewardB,  uint256 rewardsDuration) external onlyDualRewardsDistribution updateReward(address(0)) {... */\n      pop\n      pop\n      pop\n      jump\t// out\n        /* \"staking/StakingRewardsDualFactory.sol\":17399:17537  function nominateNewOwner(address _owner) external onlyOwner {... */\n    tag_49:\n        /* \"staking/StakingRewardsDualFactory.sol\":17844:17856  _onlyOwner() */\n      tag_165\n        /* \"staking/StakingRewardsDualFactory.sol\":17844:17854  _onlyOwner */\n      tag_166\n        /* \"staking/StakingRewardsDualFactory.sol\":17844:17856  _onlyOwner() */\n      jump\t// in\n    tag_165:\n        /* \"staking/StakingRewardsDualFactory.sol\":17487:17493  _owner */\n      dup1\n        /* \"staking/StakingRewardsDualFactory.sol\":17470:17484  nominatedOwner */\n      0x01\n      0x00\n        /* \"staking/StakingRewardsDualFactory.sol\":17470:17493  nominatedOwner = _owner */\n      0x0100\n      exp\n      dup2\n      sload\n      dup2\n      0xffffffffffffffffffffffffffffffffffffffff\n      mul\n      not\n      and\n      swap1\n      dup4\n      0xffffffffffffffffffffffffffffffffffffffff\n      and\n      mul\n      or\n      swap1\n      sstore\n      pop\n        /* \"staking/StakingRewardsDualFactory.sol\":17508:17530  OwnerNominated(_owner) */\n      0x906a1c6bd7e3091ea86693dd029a831c19049ce77f1dce2ce0bab1cacbabce22\n        /* \"staking/StakingRewardsDualFactory.sol\":17523:17529  _owner */\n      dup2\n        /* \"staking/StakingRewardsDualFactory.sol\":17508:17530  OwnerNominated(_owner) */\n      mload(0x40)\n      dup1\n      dup3\n      0xffffffffffffffffffffffffffffffffffffffff\n      and\n      0xffffffffffffffffffffffffffffffffffffffff\n      and\n      dup2\n      mstore\n      0x20\n      add\n      swap2\n      pop\n      pop\n      mload(0x40)\n      dup1\n      swap2\n      sub\n      swap1\n      log1\n        /* \"staking/StakingRewardsDualFactory.sol\":17399:17537  function nominateNewOwner(address _owner) external onlyOwner {... */\n      pop\n      jump\t// out\n        /* \"staking/StakingRewardsDualFactory.sol\":19058:19530  function setPaused(bool _paused) external onlyOwner {... */\n    tag_52:\n        /* \"staking/StakingRewardsDualFactory.sol\":17844:17856  _onlyOwner() */\n      tag_169\n        /* \"staking/StakingRewardsDualFactory.sol\":17844:17854  _onlyOwner */\n      tag_166\n        /* \"staking/StakingRewardsDualFactory.sol\":17844:17856  _onlyOwner() */\n      jump\t// in\n    tag_169:\n        /* \"staking/StakingRewardsDualFactory.sol\":19209:19215  paused */\n      0x05\n      0x00\n      swap1\n      sload\n      swap1\n      0x0100\n      exp\n      swap1\n      div\n      0xff\n      and\n        /* \"staking/StakingRewardsDualFactory.sol\":19198:19215  _paused == paused */\n      iszero\n      iszero\n        /* \"staking/StakingRewardsDualFactory.sol\":19198:19205  _paused */\n      dup2\n        /* \"staking/StakingRewardsDualFactory.sol\":19198:19215  _paused == paused */\n      iszero\n      iszero\n      eq\n        /* \"staking/StakingRewardsDualFactory.sol\":19194:19248  if (_paused == paused) {... */\n      iszero\n      tag_171\n      jumpi\n        /* \"staking/StakingRewardsDualFactory.sol\":19231:19238  return; */\n      jump(tag_170)\n        /* \"staking/StakingRewardsDualFactory.sol\":19194:19248  if (_paused == paused) {... */\n    tag_171:\n        /* \"staking/StakingRewardsDualFactory.sol\":19300:19307  _paused */\n      dup1\n        /* \"staking/StakingRewardsDualFactory.sol\":19291:19297  paused */\n      0x05\n      0x00\n        /* \"staking/StakingRewardsDualFactory.sol\":19291:19307  paused = _paused */\n      0x0100\n      exp\n      dup2\n      sload\n      dup2\n      0xff\n      mul\n      not\n      and\n      swap1\n      dup4\n      iszero\n      iszero\n      mul\n      or\n      swap1\n      sstore\n      pop\n        /* \"staking/StakingRewardsDualFactory.sol\":19373:19379  paused */\n      0x05\n      0x00\n      swap1\n      sload\n      swap1\n      0x0100\n      exp\n      swap1\n      div\n      0xff\n      and\n        /* \"staking/StakingRewardsDualFactory.sol\":19369:19425  if (paused) {... */\n      iszero\n      tag_172\n      jumpi\n        /* \"staking/StakingRewardsDualFactory.sol\":19411:19414  now */\n      timestamp\n        /* \"staking/StakingRewardsDualFactory.sol\":19395:19408  lastPauseTime */\n      0x04\n        /* \"staking/StakingRewardsDualFactory.sol\":19395:19414  lastPauseTime = now */\n      dup2\n      swap1\n      sstore\n      pop\n        /* \"staking/StakingRewardsDualFactory.sol\":19369:19425  if (paused) {... */\n    tag_172:\n        /* \"staking/StakingRewardsDualFactory.sol\":19503:19523  PauseChanged(paused) */\n      0x8fb6c181ee25a520cf3dd6565006ef91229fcfe5a989566c2a3b8c115570cec5\n        /* \"staking/StakingRewardsDualFactory.sol\":19516:19522  paused */\n      0x05\n      0x00\n      swap1\n      sload\n      swap1\n      0x0100\n      exp\n      swap1\n      div\n      0xff\n      and\n        /* \"staking/StakingRewardsDualFactory.sol\":19503:19523  PauseChanged(paused) */\n      mload(0x40)\n      dup1\n      dup3\n      iszero\n      iszero\n      iszero\n      iszero\n      dup2\n      mstore\n      0x20\n      add\n      swap2\n      pop\n      pop\n      mload(0x40)\n      dup1\n      swap2\n      sub\n      swap1\n      log1\n        /* \"staking/StakingRewardsDualFactory.sol\":17866:17867  _ */\n    tag_170:\n        /* \"staking/StakingRewardsDualFactory.sol\":19058:19530  function setPaused(bool _paused) external onlyOwner {... */\n      pop\n      jump\t// out\n        /* \"staking/StakingRewardsDualFactory.sol\":21185:21276  function totalSupply() external view returns (uint256) {... */\n    tag_54:\n        /* \"staking/StakingRewardsDualFactory.sol\":21231:21238  uint256 */\n      0x00\n        /* \"staking/StakingRewardsDualFactory.sol\":21257:21269  _totalSupply */\n      sload(0x12)\n        /* \"staking/StakingRewardsDualFactory.sol\":21250:21269  return _totalSupply */\n      swap1\n      pop\n        /* \"staking/StakingRewardsDualFactory.sol\":21185:21276  function totalSupply() external view returns (uint256) {... */\n      swap1\n      jump\t// out\n        /* \"staking/StakingRewardsDualFactory.sol\":22198:22398  function earnedA(address account) public view returns (uint256) {... */\n    tag_57:\n        /* \"staking/StakingRewardsDualFactory.sol\":22253:22260  uint256 */\n      0x00\n        /* \"staking/StakingRewardsDualFactory.sol\":22279:22391  _balances[account].mul(rewardPerTokenA().sub(userRewardPerTokenAPaid[account])).div(1e18).add(rewardsA[account]) */\n      tag_175\n        /* \"staking/StakingRewardsDualFactory.sol\":22373:22381  rewardsA */\n      0x10\n        /* \"staking/StakingRewardsDualFactory.sol\":22373:22390  rewardsA[account] */\n      0x00\n        /* \"staking/StakingRewardsDualFactory.sol\":22382:22389  account */\n      dup5\n        /* \"staking/StakingRewardsDualFactory.sol\":22373:22390  rewardsA[account] */\n      0xffffffffffffffffffffffffffffffffffffffff\n      and\n      0xffffffffffffffffffffffffffffffffffffffff\n      and\n      dup2\n      mstore\n      0x20\n      add\n      swap1\n      dup2\n      mstore\n      0x20\n      add\n      0x00\n      keccak256\n      sload\n        /* \"staking/StakingRewardsDualFactory.sol\":22279:22368  _balances[account].mul(rewardPerTokenA().sub(userRewardPerTokenAPaid[account])).div(1e18) */\n      tag_176\n        /* \"staking/StakingRewardsDualFactory.sol\":22363:22367  1e18 */\n      0x0de0b6b3a7640000\n        /* \"staking/StakingRewardsDualFactory.sol\":22279:22358  _balances[account].mul(rewardPerTokenA().sub(userRewardPerTokenAPaid[account])) */\n      tag_177\n        /* \"staking/StakingRewardsDualFactory.sol\":22302:22357  rewardPerTokenA().sub(userRewardPerTokenAPaid[account]) */\n      tag_178\n        /* \"staking/StakingRewardsDualFactory.sol\":22324:22347  userRewardPerTokenAPaid */\n      0x0e\n        /* \"staking/StakingRewardsDualFactory.sol\":22324:22356  userRewardPerTokenAPaid[account] */\n      0x00\n        /* \"staking/StakingRewardsDualFactory.sol\":22348:22355  account */\n      dup10\n        /* \"staking/StakingRewardsDualFactory.sol\":22324:22356  userRewardPerTokenAPaid[account] */\n      0xffffffffffffffffffffffffffffffffffffffff\n      and\n      0xffffffffffffffffffffffffffffffffffffffff\n      and\n      dup2\n      mstore\n      0x20\n      add\n      swap1\n      dup2\n      mstore\n      0x20\n      add\n      0x00\n      keccak256\n      sload\n        /* \"staking/StakingRewardsDualFactory.sol\":22302:22319  rewardPerTokenA() */\n      tag_179\n        /* \"staking/StakingRewardsDualFactory.sol\":22302:22317  rewardPerTokenA */\n      tag_109\n        /* \"staking/StakingRewardsDualFactory.sol\":22302:22319  rewardPerTokenA() */\n      jump\t// in\n    tag_179:\n        /* \"staking/StakingRewardsDualFactory.sol\":22302:22323  rewardPerTokenA().sub */\n      tag_145\n      swap1\n        /* \"staking/StakingRewardsDualFactory.sol\":22302:22357  rewardPerTokenA().sub(userRewardPerTokenAPaid[account]) */\n      swap2\n      swap1\n      0xffffffff\n      and\n      jump\t// in\n    tag_178:\n        /* \"staking/StakingRewardsDualFactory.sol\":22279:22288  _balances */\n      0x13\n        /* \"staking/StakingRewardsDualFactory.sol\":22279:22297  _balances[account] */\n      0x00\n        /* \"staking/StakingRewardsDualFactory.sol\":22289:22296  account */\n      dup10\n        /* \"staking/StakingRewardsDualFactory.sol\":22279:22297  _balances[account] */\n      0xffffffffffffffffffffffffffffffffffffffff\n      and\n      0xffffffffffffffffffffffffffffffffffffffff\n      and\n      dup2\n      mstore\n      0x20\n      add\n      swap1\n      dup2\n      mstore\n      0x20\n      add\n      0x00\n      keccak256\n      sload\n        /* \"staking/StakingRewardsDualFactory.sol\":22279:22301  _balances[account].mul */\n      tag_147\n      swap1\n        /* \"staking/StakingRewardsDualFactory.sol\":22279:22358  _balances[account].mul(rewardPerTokenA().sub(userRewardPerTokenAPaid[account])) */\n      swap2\n      swap1\n      0xffffffff\n      and\n      jump\t// in\n    tag_177:\n        /* \"staking/StakingRewardsDualFactory.sol\":22279:22362  _balances[account].mul(rewardPerTokenA().sub(userRewardPerTokenAPaid[account])).div */\n      tag_141\n      swap1\n        /* \"staking/StakingRewardsDualFactory.sol\":22279:22368  _balances[account].mul(rewardPerTokenA().sub(userRewardPerTokenAPaid[account])).div(1e18) */\n      swap2\n      swap1\n      0xffffffff\n      and\n      jump\t// in\n    tag_176:\n        /* \"staking/StakingRewardsDualFactory.sol\":22279:22372  _balances[account].mul(rewardPerTokenA().sub(userRewardPerTokenAPaid[account])).div(1e18).add */\n      tag_137\n      swap1\n        /* \"staking/StakingRewardsDualFactory.sol\":22279:22391  _balances[account].mul(rewardPerTokenA().sub(userRewardPerTokenAPaid[account])).div(1e18).add(rewardsA[account]) */\n      swap2\n      swap1\n      0xffffffff\n      and\n      jump\t// in\n    tag_175:\n        /* \"staking/StakingRewardsDualFactory.sol\":22272:22391  return _balances[account].mul(rewardPerTokenA().sub(userRewardPerTokenAPaid[account])).div(1e18).add(rewardsA[account]) */\n      swap1\n      pop\n        /* \"staking/StakingRewardsDualFactory.sol\":22198:22398  function earnedA(address account) public view returns (uint256) {... */\n      swap2\n      swap1\n      pop\n      jump\t// out\n        /* \"staking/StakingRewardsDualFactory.sol\":20092:20122  uint256 public rewardRateA = 0 */\n    tag_59:\n      sload(0x09)\n      dup2\n      jump\t// out\n        /* \"staking/StakingRewardsDualFactory.sol\":20412:20455  mapping(address => uint256) public rewardsA */\n    tag_62:\n      mstore(0x20, 0x10)\n      dup1\n      0x00\n      mstore\n      keccak256(0x00, 0x40)\n      0x00\n      swap2\n      pop\n      swap1\n      pop\n      sload\n      dup2\n      jump\t// out\n        /* \"staking/StakingRewardsDualFactory.sol\":23053:23404  function withdraw(uint256 amount) public nonReentrant updateReward(msg.sender) {... */\n    tag_65:\n        /* \"staking/StakingRewardsDualFactory.sol\":16202:16203  1 */\n      0x01\n        /* \"staking/StakingRewardsDualFactory.sol\":16185:16198  _guardCounter */\n      0x03\n      0x00\n        /* \"staking/StakingRewardsDualFactory.sol\":16185:16203  _guardCounter += 1 */\n      dup3\n      dup3\n      sload\n      add\n      swap3\n      pop\n      pop\n      dup2\n      swap1\n      sstore\n      pop\n        /* \"staking/StakingRewardsDualFactory.sol\":16213:16233  uint256 localCounter */\n      0x00\n        /* \"staking/StakingRewardsDualFactory.sol\":16236:16249  _guardCounter */\n      sload(0x03)\n        /* \"staking/StakingRewardsDualFactory.sol\":16213:16249  uint256 localCounter = _guardCounter */\n      swap1\n      pop\n        /* \"staking/StakingRewardsDualFactory.sol\":23120:23130  msg.sender */\n      caller\n        /* \"staking/StakingRewardsDualFactory.sol\":26305:26322  rewardPerTokenA() */\n      tag_182\n        /* \"staking/StakingRewardsDualFactory.sol\":26305:26320  rewardPerTokenA */\n      tag_109\n        /* \"staking/StakingRewardsDualFactory.sol\":26305:26322  rewardPerTokenA() */\n      jump\t// in\n    tag_182:\n        /* \"staking/StakingRewardsDualFactory.sol\":26281:26302  rewardPerTokenAStored */\n      0x0c\n        /* \"staking/StakingRewardsDualFactory.sol\":26281:26322  rewardPerTokenAStored = rewardPerTokenA() */\n      dup2\n      swap1\n      sstore\n      pop\n        /* \"staking/StakingRewardsDualFactory.sol\":26356:26373  rewardPerTokenB() */\n      tag_183\n        /* \"staking/StakingRewardsDualFactory.sol\":26356:26371  rewardPerTokenB */\n      tag_86\n        /* \"staking/StakingRewardsDualFactory.sol\":26356:26373  rewardPerTokenB() */\n      jump\t// in\n    tag_183:\n        /* \"staking/StakingRewardsDualFactory.sol\":26332:26353  rewardPerTokenBStored */\n      0x0d\n        /* \"staking/StakingRewardsDualFactory.sol\":26332:26373  rewardPerTokenBStored = rewardPerTokenB() */\n      dup2\n      swap1\n      sstore\n      pop\n        /* \"staking/StakingRewardsDualFactory.sol\":26400:26426  lastTimeRewardApplicable() */\n      tag_184\n        /* \"staking/StakingRewardsDualFactory.sol\":26400:26424  lastTimeRewardApplicable */\n      tag_95\n        /* \"staking/StakingRewardsDualFactory.sol\":26400:26426  lastTimeRewardApplicable() */\n      jump\t// in\n    tag_184:\n        /* \"staking/StakingRewardsDualFactory.sol\":26383:26397  lastUpdateTime */\n      0x0b\n        /* \"staking/StakingRewardsDualFactory.sol\":26383:26426  lastUpdateTime = lastTimeRewardApplicable() */\n      dup2\n      swap1\n      sstore\n      pop\n        /* \"staking/StakingRewardsDualFactory.sol\":26459:26460  0 */\n      0x00\n        /* \"staking/StakingRewardsDualFactory.sol\":26440:26461  account != address(0) */\n      0xffffffffffffffffffffffffffffffffffffffff\n      and\n        /* \"staking/StakingRewardsDualFactory.sol\":26440:26447  account */\n      dup2\n        /* \"staking/StakingRewardsDualFactory.sol\":26440:26461  account != address(0) */\n      0xffffffffffffffffffffffffffffffffffffffff\n      and\n      eq\n        /* \"staking/StakingRewardsDualFactory.sol\":26436:26594  if (account != address(0)) {... */\n      tag_185\n      jumpi\n        /* \"staking/StakingRewardsDualFactory.sol\":26497:26513  earnedA(account) */\n      tag_186\n        /* \"staking/StakingRewardsDualFactory.sol\":26505:26512  account */\n      dup2\n        /* \"staking/StakingRewardsDualFactory.sol\":26497:26504  earnedA */\n      tag_57\n        /* \"staking/StakingRewardsDualFactory.sol\":26497:26513  earnedA(account) */\n      jump\t// in\n    tag_186:\n        /* \"staking/StakingRewardsDualFactory.sol\":26477:26485  rewardsA */\n      0x10\n        /* \"staking/StakingRewardsDualFactory.sol\":26477:26494  rewardsA[account] */\n      0x00\n        /* \"staking/StakingRewardsDualFactory.sol\":26486:26493  account */\n      dup4\n        /* \"staking/StakingRewardsDualFactory.sol\":26477:26494  rewardsA[account] */\n      0xffffffffffffffffffffffffffffffffffffffff\n      and\n      0xffffffffffffffffffffffffffffffffffffffff\n      and\n      dup2\n      mstore\n      0x20\n      add\n      swap1\n      dup2\n      mstore\n      0x20\n      add\n      0x00\n      keccak256\n        /* \"staking/StakingRewardsDualFactory.sol\":26477:26513  rewardsA[account] = earnedA(account) */\n      dup2\n      swap1\n      sstore\n      pop\n        /* \"staking/StakingRewardsDualFactory.sol\":26562:26583  rewardPerTokenAStored */\n      sload(0x0c)\n        /* \"staking/StakingRewardsDualFactory.sol\":26527:26550  userRewardPerTokenAPaid */\n      0x0e\n        /* \"staking/StakingRewardsDualFactory.sol\":26527:26559  userRewardPerTokenAPaid[account] */\n      0x00\n        /* \"staking/StakingRewardsDualFactory.sol\":26551:26558  account */\n      dup4\n        /* \"staking/StakingRewardsDualFactory.sol\":26527:26559  userRewardPerTokenAPaid[account] */\n      0xffffffffffffffffffffffffffffffffffffffff\n      and\n      0xffffffffffffffffffffffffffffffffffffffff\n      and\n      dup2\n      mstore\n      0x20\n      add\n      swap1\n      dup2\n      mstore\n      0x20\n      add\n      0x00\n      keccak256\n        /* \"staking/StakingRewardsDualFactory.sol\":26527:26583  userRewardPerTokenAPaid[account] = rewardPerTokenAStored */\n      dup2\n      swap1\n      sstore\n      pop\n        /* \"staking/StakingRewardsDualFactory.sol\":26436:26594  if (account != address(0)) {... */\n    tag_185:\n        /* \"staking/StakingRewardsDualFactory.sol\":26627:26628  0 */\n      0x00\n        /* \"staking/StakingRewardsDualFactory.sol\":26608:26629  account != address(0) */\n      0xffffffffffffffffffffffffffffffffffffffff\n      and\n        /* \"staking/StakingRewardsDualFactory.sol\":26608:26615  account */\n      dup2\n        /* \"staking/StakingRewardsDualFactory.sol\":26608:26629  account != address(0) */\n      0xffffffffffffffffffffffffffffffffffffffff\n      and\n      eq\n        /* \"staking/StakingRewardsDualFactory.sol\":26604:26762  if (account != address(0)) {... */\n      tag_187\n      jumpi\n        /* \"staking/StakingRewardsDualFactory.sol\":26665:26681  earnedB(account) */\n      tag_188\n        /* \"staking/StakingRewardsDualFactory.sol\":26673:26680  account */\n      dup2\n        /* \"staking/StakingRewardsDualFactory.sol\":26665:26672  earnedB */\n      tag_84\n        /* \"staking/StakingRewardsDualFactory.sol\":26665:26681  earnedB(account) */\n      jump\t// in\n    tag_188:\n        /* \"staking/StakingRewardsDualFactory.sol\":26645:26653  rewardsB */\n      0x11\n        /* \"staking/StakingRewardsDualFactory.sol\":26645:26662  rewardsB[account] */\n      0x00\n        /* \"staking/StakingRewardsDualFactory.sol\":26654:26661  account */\n      dup4\n        /* \"staking/StakingRewardsDualFactory.sol\":26645:26662  rewardsB[account] */\n      0xffffffffffffffffffffffffffffffffffffffff\n      and\n      0xffffffffffffffffffffffffffffffffffffffff\n      and\n      dup2\n      mstore\n      0x20\n      add\n      swap1\n      dup2\n      mstore\n      0x20\n      add\n      0x00\n      keccak256\n        /* \"staking/StakingRewardsDualFactory.sol\":26645:26681  rewardsB[account] = earnedB(account) */\n      dup2\n      swap1\n      sstore\n      pop\n        /* \"staking/StakingRewardsDualFactory.sol\":26730:26751  rewardPerTokenBStored */\n      sload(0x0d)\n        /* \"staking/StakingRewardsDualFactory.sol\":26695:26718  userRewardPerTokenBPaid */\n      0x0f\n        /* \"staking/StakingRewardsDualFactory.sol\":26695:26727  userRewardPerTokenBPaid[account] */\n      0x00\n        /* \"staking/StakingRewardsDualFactory.sol\":26719:26726  account */\n      dup4\n        /* \"staking/StakingRewardsDualFactory.sol\":26695:26727  userRewardPerTokenBPaid[account] */\n      0xffffffffffffffffffffffffffffffffffffffff\n      and\n      0xffffffffffffffffffffffffffffffffffffffff\n      and\n      dup2\n      mstore\n      0x20\n      add\n      swap1\n      dup2\n      mstore\n      0x20\n      add\n      0x00\n      keccak256\n        /* \"staking/StakingRewardsDualFactory.sol\":26695:26751  userRewardPerTokenBPaid[account] = rewardPerTokenBStored */\n      dup2\n      swap1\n      sstore\n      pop\n        /* \"staking/StakingRewardsDualFactory.sol\":26604:26762  if (account != address(0)) {... */\n    tag_187:\n        /* \"staking/StakingRewardsDualFactory.sol\":23159:23160  0 */\n      0x00\n        /* \"staking/StakingRewardsDualFactory.sol\":23150:23156  amount */\n      dup4\n        /* \"staking/StakingRewardsDualFactory.sol\":23150:23160  amount > 0 */\n      gt\n        /* \"staking/StakingRewardsDualFactory.sol\":23142:23182  require(amount > 0, \"Cannot withdraw 0\") */\n      tag_190\n      jumpi\n      mload(0x40)\n      0x08c379a000000000000000000000000000000000000000000000000000000000\n      dup2\n      mstore\n      0x04\n      add\n      dup1\n      dup1\n      0x20\n      add\n      dup3\n      dup2\n      sub\n      dup3\n      mstore\n      0x11\n      dup2\n      mstore\n      0x20\n      add\n      dup1\n      0x43616e6e6f742077697468647261772030000000000000000000000000000000\n      dup2\n      mstore\n      pop\n      0x20\n      add\n      swap2\n      pop\n      pop\n      mload(0x40)\n      dup1\n      swap2\n      sub\n      swap1\n      revert\n    tag_190:\n        /* \"staking/StakingRewardsDualFactory.sol\":23207:23231  _totalSupply.sub(amount) */\n      tag_191\n        /* \"staking/StakingRewardsDualFactory.sol\":23224:23230  amount */\n      dup4\n        /* \"staking/StakingRewardsDualFactory.sol\":23207:23219  _totalSupply */\n      sload(0x12)\n        /* \"staking/StakingRewardsDualFactory.sol\":23207:23223  _totalSupply.sub */\n      tag_145\n      swap1\n        /* \"staking/StakingRewardsDualFactory.sol\":23207:23231  _totalSupply.sub(amount) */\n      swap2\n      swap1\n      0xffffffff\n      and\n      jump\t// in\n    tag_191:\n        /* \"staking/StakingRewardsDualFactory.sol\":23192:23204  _totalSupply */\n      0x12\n        /* \"staking/StakingRewardsDualFactory.sol\":23192:23231  _totalSupply = _totalSupply.sub(amount) */\n      dup2\n      swap1\n      sstore\n      pop\n        /* \"staking/StakingRewardsDualFactory.sol\":23265:23298  _balances[msg.sender].sub(amount) */\n      tag_192\n        /* \"staking/StakingRewardsDualFactory.sol\":23291:23297  amount */\n      dup4\n        /* \"staking/StakingRewardsDualFactory.sol\":23265:23274  _balances */\n      0x13\n        /* \"staking/StakingRewardsDualFactory.sol\":23265:23286  _balances[msg.sender] */\n      0x00\n        /* \"staking/StakingRewardsDualFactory.sol\":23275:23285  msg.sender */\n      caller\n        /* \"staking/StakingRewardsDualFactory.sol\":23265:23286  _balances[msg.sender] */\n      0xffffffffffffffffffffffffffffffffffffffff\n      and\n      0xffffffffffffffffffffffffffffffffffffffff\n      and\n      dup2\n      mstore\n      0x20\n      add\n      swap1\n      dup2\n      mstore\n      0x20\n      add\n      0x00\n      keccak256\n      sload\n        /* \"staking/StakingRewardsDualFactory.sol\":23265:23290  _balances[msg.sender].sub */\n      tag_145\n      swap1\n        /* \"staking/StakingRewardsDualFactory.sol\":23265:23298  _balances[msg.sender].sub(amount) */\n      swap2\n      swap1\n      0xffffffff\n      and\n      jump\t// in\n    tag_192:\n        /* \"staking/StakingRewardsDualFactory.sol\":23241:23250  _balances */\n      0x13\n        /* \"staking/StakingRewardsDualFactory.sol\":23241:23262  _balances[msg.sender] */\n      0x00\n        /* \"staking/StakingRewardsDualFactory.sol\":23251:23261  msg.sender */\n      caller\n        /* \"staking/StakingRewardsDualFactory.sol\":23241:23262  _balances[msg.sender] */\n      0xffffffffffffffffffffffffffffffffffffffff\n      and\n      0xffffffffffffffffffffffffffffffffffffffff\n      and\n      dup2\n      mstore\n      0x20\n      add\n      swap1\n      dup2\n      mstore\n      0x20\n      add\n      0x00\n      keccak256\n        /* \"staking/StakingRewardsDualFactory.sol\":23241:23298  _balances[msg.sender] = _balances[msg.sender].sub(amount) */\n      dup2\n      swap1\n      sstore\n      pop\n        /* \"staking/StakingRewardsDualFactory.sol\":23308:23353  stakingToken.safeTransfer(msg.sender, amount) */\n      tag_193\n        /* \"staking/StakingRewardsDualFactory.sol\":23334:23344  msg.sender */\n      caller\n        /* \"staking/StakingRewardsDualFactory.sol\":23346:23352  amount */\n      dup5\n        /* \"staking/StakingRewardsDualFactory.sol\":23308:23320  stakingToken */\n      0x07\n      0x00\n      swap1\n      sload\n      swap1\n      0x0100\n      exp\n      swap1\n      div\n      0xffffffffffffffffffffffffffffffffffffffff\n      and\n        /* \"staking/StakingRewardsDualFactory.sol\":23308:23333  stakingToken.safeTransfer */\n      0xffffffffffffffffffffffffffffffffffffffff\n      and\n      tag_194\n      swap1\n        /* \"staking/StakingRewardsDualFactory.sol\":23308:23353  stakingToken.safeTransfer(msg.sender, amount) */\n      swap3\n      swap2\n      swap1\n      0xffffffff\n      and\n      jump\t// in\n    tag_193:\n        /* \"staking/StakingRewardsDualFactory.sol\":23378:23388  msg.sender */\n      caller\n        /* \"staking/StakingRewardsDualFactory.sol\":23368:23397  Withdrawn(msg.sender, amount) */\n      0xffffffffffffffffffffffffffffffffffffffff\n      and\n      0x7084f5476618d8e60b11ef0d7d3f06914655adb8793e28ff7f018d4c76d505d5\n        /* \"staking/StakingRewardsDualFactory.sol\":23390:23396  amount */\n      dup5\n        /* \"staking/StakingRewardsDualFactory.sol\":23368:23397  Withdrawn(msg.sender, amount) */\n      mload(0x40)\n      dup1\n      dup3\n      dup2\n      mstore\n      0x20\n      add\n      swap2\n      pop\n      pop\n      mload(0x40)\n      dup1\n      swap2\n      sub\n      swap1\n      log2\n        /* \"staking/StakingRewardsDualFactory.sol\":16259:16260  _ */\n      pop\n        /* \"staking/StakingRewardsDualFactory.sol\":16294:16307  _guardCounter */\n      sload(0x03)\n        /* \"staking/StakingRewardsDualFactory.sol\":16278:16290  localCounter */\n      dup2\n        /* \"staking/StakingRewardsDualFactory.sol\":16278:16307  localCounter == _guardCounter */\n      eq\n        /* \"staking/StakingRewardsDualFactory.sol\":16270:16343  require(localCounter == _guardCounter, \"ReentrancyGuard: reentrant call\") */\n      tag_195\n      jumpi\n      mload(0x40)\n      0x08c379a000000000000000000000000000000000000000000000000000000000\n      dup2\n      mstore\n      0x04\n      add\n      dup1\n      dup1\n      0x20\n      add\n      dup3\n      dup2\n      sub\n      dup3\n      mstore\n      0x1f\n      dup2\n      mstore\n      0x20\n      add\n      dup1\n      0x5265656e7472616e637947756172643a207265656e7472616e742063616c6c00\n      dup2\n      mstore\n      pop\n      0x20\n      add\n      swap2\n      pop\n      pop\n      mload(0x40)\n      dup1\n      swap2\n      sub\n      swap1\n      revert\n    tag_195:\n        /* \"staking/StakingRewardsDualFactory.sol\":23053:23404  function withdraw(uint256 amount) public nonReentrant updateReward(msg.sender) {... */\n      pop\n      pop\n      jump\t// out\n        /* \"staking/StakingRewardsDualFactory.sol\":20348:20406  mapping(address => uint256) public userRewardPerTokenBPaid */\n    tag_68:\n      mstore(0x20, 0x0f)\n      dup1\n      0x00\n      mstore\n      keccak256(0x00, 0x40)\n      0x00\n      swap2\n      pop\n      swap1\n      pop\n      sload\n      dup2\n      jump\t// out\n        /* \"staking/StakingRewardsDualFactory.sol\":23410:24048  function getReward() public nonReentrant updateReward(msg.sender) {... */\n    tag_70:\n        /* \"staking/StakingRewardsDualFactory.sol\":16202:16203  1 */\n      0x01\n        /* \"staking/StakingRewardsDualFactory.sol\":16185:16198  _guardCounter */\n      0x03\n      0x00\n        /* \"staking/StakingRewardsDualFactory.sol\":16185:16203  _guardCounter += 1 */\n      dup3\n      dup3\n      sload\n      add\n      swap3\n      pop\n      pop\n      dup2\n      swap1\n      sstore\n      pop\n        /* \"staking/StakingRewardsDualFactory.sol\":16213:16233  uint256 localCounter */\n      0x00\n        /* \"staking/StakingRewardsDualFactory.sol\":16236:16249  _guardCounter */\n      sload(0x03)\n        /* \"staking/StakingRewardsDualFactory.sol\":16213:16249  uint256 localCounter = _guardCounter */\n      swap1\n      pop\n        /* \"staking/StakingRewardsDualFactory.sol\":23464:23474  msg.sender */\n      caller\n        /* \"staking/StakingRewardsDualFactory.sol\":26305:26322  rewardPerTokenA() */\n      tag_198\n        /* \"staking/StakingRewardsDualFactory.sol\":26305:26320  rewardPerTokenA */\n      tag_109\n        /* \"staking/StakingRewardsDualFactory.sol\":26305:26322  rewardPerTokenA() */\n      jump\t// in\n    tag_198:\n        /* \"staking/StakingRewardsDualFactory.sol\":26281:26302  rewardPerTokenAStored */\n      0x0c\n        /* \"staking/StakingRewardsDualFactory.sol\":26281:26322  rewardPerTokenAStored = rewardPerTokenA() */\n      dup2\n      swap1\n      sstore\n      pop\n        /* \"staking/StakingRewardsDualFactory.sol\":26356:26373  rewardPerTokenB() */\n      tag_199\n        /* \"staking/StakingRewardsDualFactory.sol\":26356:26371  rewardPerTokenB */\n      tag_86\n        /* \"staking/StakingRewardsDualFactory.sol\":26356:26373  rewardPerTokenB() */\n      jump\t// in\n    tag_199:\n        /* \"staking/StakingRewardsDualFactory.sol\":26332:26353  rewardPerTokenBStored */\n      0x0d\n        /* \"staking/StakingRewardsDualFactory.sol\":26332:26373  rewardPerTokenBStored = rewardPerTokenB() */\n      dup2\n      swap1\n      sstore\n      pop\n        /* \"staking/StakingRewardsDualFactory.sol\":26400:26426  lastTimeRewardApplicable() */\n      tag_200\n        /* \"staking/StakingRewardsDualFactory.sol\":26400:26424  lastTimeRewardApplicable */\n      tag_95\n        /* \"staking/StakingRewardsDualFactory.sol\":26400:26426  lastTimeRewardApplicable() */\n      jump\t// in\n    tag_200:\n        /* \"staking/StakingRewardsDualFactory.sol\":26383:26397  lastUpdateTime */\n      0x0b\n        /* \"staking/StakingRewardsDualFactory.sol\":26383:26426  lastUpdateTime = lastTimeRewardApplicable() */\n      dup2\n      swap1\n      sstore\n      pop\n        /* \"staking/StakingRewardsDualFactory.sol\":26459:26460  0 */\n      0x00\n        /* \"staking/StakingRewardsDualFactory.sol\":26440:26461  account != address(0) */\n      0xffffffffffffffffffffffffffffffffffffffff\n      and\n        /* \"staking/StakingRewardsDualFactory.sol\":26440:26447  account */\n      dup2\n        /* \"staking/StakingRewardsDualFactory.sol\":26440:26461  account != address(0) */\n      0xffffffffffffffffffffffffffffffffffffffff\n      and\n      eq\n        /* \"staking/StakingRewardsDualFactory.sol\":26436:26594  if (account != address(0)) {... */\n      tag_201\n      jumpi\n        /* \"staking/StakingRewardsDualFactory.sol\":26497:26513  earnedA(account) */\n      tag_202\n        /* \"staking/StakingRewardsDualFactory.sol\":26505:26512  account */\n      dup2\n        /* \"staking/StakingRewardsDualFactory.sol\":26497:26504  earnedA */\n      tag_57\n        /* \"staking/StakingRewardsDualFactory.sol\":26497:26513  earnedA(account) */\n      jump\t// in\n    tag_202:\n        /* \"staking/StakingRewardsDualFactory.sol\":26477:26485  rewardsA */\n      0x10\n        /* \"staking/StakingRewardsDualFactory.sol\":26477:26494  rewardsA[account] */\n      0x00\n        /* \"staking/StakingRewardsDualFactory.sol\":26486:26493  account */\n      dup4\n        /* \"staking/StakingRewardsDualFactory.sol\":26477:26494  rewardsA[account] */\n      0xffffffffffffffffffffffffffffffffffffffff\n      and\n      0xffffffffffffffffffffffffffffffffffffffff\n      and\n      dup2\n      mstore\n      0x20\n      add\n      swap1\n      dup2\n      mstore\n      0x20\n      add\n      0x00\n      keccak256\n        /* \"staking/StakingRewardsDualFactory.sol\":26477:26513  rewardsA[account] = earnedA(account) */\n      dup2\n      swap1\n      sstore\n      pop\n        /* \"staking/StakingRewardsDualFactory.sol\":26562:26583  rewardPerTokenAStored */\n      sload(0x0c)\n        /* \"staking/StakingRewardsDualFactory.sol\":26527:26550  userRewardPerTokenAPaid */\n      0x0e\n        /* \"staking/StakingRewardsDualFactory.sol\":26527:26559  userRewardPerTokenAPaid[account] */\n      0x00\n        /* \"staking/StakingRewardsDualFactory.sol\":26551:26558  account */\n      dup4\n        /* \"staking/StakingRewardsDualFactory.sol\":26527:26559  userRewardPerTokenAPaid[account] */\n      0xffffffffffffffffffffffffffffffffffffffff\n      and\n      0xffffffffffffffffffffffffffffffffffffffff\n      and\n      dup2\n      mstore\n      0x20\n      add\n      swap1\n      dup2\n      mstore\n      0x20\n      add\n      0x00\n      keccak256\n        /* \"staking/StakingRewardsDualFactory.sol\":26527:26583  userRewardPerTokenAPaid[account] = rewardPerTokenAStored */\n      dup2\n      swap1\n      sstore\n      pop\n        /* \"staking/StakingRewardsDualFactory.sol\":26436:26594  if (account != address(0)) {... */\n    tag_201:\n        /* \"staking/StakingRewardsDualFactory.sol\":26627:26628  0 */\n      0x00\n        /* \"staking/StakingRewardsDualFactory.sol\":26608:26629  account != address(0) */\n      0xffffffffffffffffffffffffffffffffffffffff\n      and\n        /* \"staking/StakingRewardsDualFactory.sol\":26608:26615  account */\n      dup2\n        /* \"staking/StakingRewardsDualFactory.sol\":26608:26629  account != address(0) */\n      0xffffffffffffffffffffffffffffffffffffffff\n      and\n      eq\n        /* \"staking/StakingRewardsDualFactory.sol\":26604:26762  if (account != address(0)) {... */\n      tag_203\n      jumpi\n        /* \"staking/StakingRewardsDualFactory.sol\":26665:26681  earnedB(account) */\n      tag_204\n        /* \"staking/StakingRewardsDualFactory.sol\":26673:26680  account */\n      dup2\n        /* \"staking/StakingRewardsDualFactory.sol\":26665:26672  earnedB */\n      tag_84\n        /* \"staking/StakingRewardsDualFactory.sol\":26665:26681  earnedB(account) */\n      jump\t// in\n    tag_204:\n        /* \"staking/StakingRewardsDualFactory.sol\":26645:26653  rewardsB */\n      0x11\n        /* \"staking/StakingRewardsDualFactory.sol\":26645:26662  rewardsB[account] */\n      0x00\n        /* \"staking/StakingRewardsDualFactory.sol\":26654:26661  account */\n      dup4\n        /* \"staking/StakingRewardsDualFactory.sol\":26645:26662  rewardsB[account] */\n      0xffffffffffffffffffffffffffffffffffffffff\n      and\n      0xffffffffffffffffffffffffffffffffffffffff\n      and\n      dup2\n      mstore\n      0x20\n      add\n      swap1\n      dup2\n      mstore\n      0x20\n      add\n      0x00\n      keccak256\n        /* \"staking/StakingRewardsDualFactory.sol\":26645:26681  rewardsB[account] = earnedB(account) */\n      dup2\n      swap1\n      sstore\n      pop\n        /* \"staking/StakingRewardsDualFactory.sol\":26730:26751  rewardPerTokenBStored */\n      sload(0x0d)\n        /* \"staking/StakingRewardsDualFactory.sol\":26695:26718  userRewardPerTokenBPaid */\n      0x0f\n        /* \"staking/StakingRewardsDualFactory.sol\":26695:26727  userRewardPerTokenBPaid[account] */\n      0x00\n        /* \"staking/StakingRewardsDualFactory.sol\":26719:26726  account */\n      dup4\n        /* \"staking/StakingRewardsDualFactory.sol\":26695:26727  userRewardPerTokenBPaid[account] */\n      0xffffffffffffffffffffffffffffffffffffffff\n      and\n      0xffffffffffffffffffffffffffffffffffffffff\n      and\n      dup2\n      mstore\n      0x20\n      add\n      swap1\n      dup2\n      mstore\n      0x20\n      add\n      0x00\n      keccak256\n        /* \"staking/StakingRewardsDualFactory.sol\":26695:26751  userRewardPerTokenBPaid[account] = rewardPerTokenBStored */\n      dup2\n      swap1\n      sstore\n      pop\n        /* \"staking/StakingRewardsDualFactory.sol\":26604:26762  if (account != address(0)) {... */\n    tag_203:\n        /* \"staking/StakingRewardsDualFactory.sol\":23486:23507  uint256 rewardAmountA */\n      0x00\n        /* \"staking/StakingRewardsDualFactory.sol\":23510:23518  rewardsA */\n      0x10\n        /* \"staking/StakingRewardsDualFactory.sol\":23510:23530  rewardsA[msg.sender] */\n      0x00\n        /* \"staking/StakingRewardsDualFactory.sol\":23519:23529  msg.sender */\n      caller\n        /* \"staking/StakingRewardsDualFactory.sol\":23510:23530  rewardsA[msg.sender] */\n      0xffffffffffffffffffffffffffffffffffffffff\n      and\n      0xffffffffffffffffffffffffffffffffffffffff\n      and\n      dup2\n      mstore\n      0x20\n      add\n      swap1\n      dup2\n      mstore\n      0x20\n      add\n      0x00\n      keccak256\n      sload\n        /* \"staking/StakingRewardsDualFactory.sol\":23486:23530  uint256 rewardAmountA = rewardsA[msg.sender] */\n      swap1\n      pop\n        /* \"staking/StakingRewardsDualFactory.sol\":23560:23561  0 */\n      0x00\n        /* \"staking/StakingRewardsDualFactory.sol\":23544:23557  rewardAmountA */\n      dup2\n        /* \"staking/StakingRewardsDualFactory.sol\":23544:23561  rewardAmountA > 0 */\n      gt\n        /* \"staking/StakingRewardsDualFactory.sol\":23540:23759  if (rewardAmountA > 0) {... */\n      iszero\n      tag_206\n      jumpi\n        /* \"staking/StakingRewardsDualFactory.sol\":23600:23601  0 */\n      0x00\n        /* \"staking/StakingRewardsDualFactory.sol\":23577:23585  rewardsA */\n      0x10\n        /* \"staking/StakingRewardsDualFactory.sol\":23577:23597  rewardsA[msg.sender] */\n      0x00\n        /* \"staking/StakingRewardsDualFactory.sol\":23586:23596  msg.sender */\n      caller\n        /* \"staking/StakingRewardsDualFactory.sol\":23577:23597  rewardsA[msg.sender] */\n      0xffffffffffffffffffffffffffffffffffffffff\n      and\n      0xffffffffffffffffffffffffffffffffffffffff\n      and\n      dup2\n      mstore\n      0x20\n      add\n      swap1\n      dup2\n      mstore\n      0x20\n      add\n      0x00\n      keccak256\n        /* \"staking/StakingRewardsDualFactory.sol\":23577:23601  rewardsA[msg.sender] = 0 */\n      dup2\n      swap1\n      sstore\n      pop\n        /* \"staking/StakingRewardsDualFactory.sol\":23615:23668  rewardsTokenA.safeTransfer(msg.sender, rewardAmountA) */\n      tag_207\n        /* \"staking/StakingRewardsDualFactory.sol\":23642:23652  msg.sender */\n      caller\n        /* \"staking/StakingRewardsDualFactory.sol\":23654:23667  rewardAmountA */\n      dup3\n        /* \"staking/StakingRewardsDualFactory.sol\":23615:23628  rewardsTokenA */\n      0x05\n      0x01\n      swap1\n      sload\n      swap1\n      0x0100\n      exp\n      swap1\n      div\n      0xffffffffffffffffffffffffffffffffffffffff\n      and\n        /* \"staking/StakingRewardsDualFactory.sol\":23615:23641  rewardsTokenA.safeTransfer */\n      0xffffffffffffffffffffffffffffffffffffffff\n      and\n      tag_194\n      swap1\n        /* \"staking/StakingRewardsDualFactory.sol\":23615:23668  rewardsTokenA.safeTransfer(msg.sender, rewardAmountA) */\n      swap3\n      swap2\n      swap1\n      0xffffffff\n      and\n      jump\t// in\n    tag_207:\n        /* \"staking/StakingRewardsDualFactory.sol\":23698:23708  msg.sender */\n      caller\n        /* \"staking/StakingRewardsDualFactory.sol\":23687:23748  RewardPaid(msg.sender, address(rewardsTokenA), rewardAmountA) */\n      0xffffffffffffffffffffffffffffffffffffffff\n      and\n      0x540798df468d7b23d11f156fdb954cb19ad414d150722a7b6d55ba369dea792e\n        /* \"staking/StakingRewardsDualFactory.sol\":23718:23731  rewardsTokenA */\n      0x05\n      0x01\n      swap1\n      sload\n      swap1\n      0x0100\n      exp\n      swap1\n      div\n      0xffffffffffffffffffffffffffffffffffffffff\n      and\n        /* \"staking/StakingRewardsDualFactory.sol\":23734:23747  rewardAmountA */\n      dup4\n        /* \"staking/StakingRewardsDualFactory.sol\":23687:23748  RewardPaid(msg.sender, address(rewardsTokenA), rewardAmountA) */\n      mload(0x40)\n      dup1\n      dup4\n      0xffffffffffffffffffffffffffffffffffffffff\n      and\n      0xffffffffffffffffffffffffffffffffffffffff\n      and\n      dup2\n      mstore\n      0x20\n      add\n      dup3\n      dup2\n      mstore\n      0x20\n      add\n      swap3\n      pop\n      pop\n      pop\n      mload(0x40)\n      dup1\n      swap2\n      sub\n      swap1\n      log2\n        /* \"staking/StakingRewardsDualFactory.sol\":23540:23759  if (rewardAmountA > 0) {... */\n    tag_206:\n        /* \"staking/StakingRewardsDualFactory.sol\":23769:23790  uint256 rewardAmountB */\n      0x00\n        /* \"staking/StakingRewardsDualFactory.sol\":23793:23801  rewardsB */\n      0x11\n        /* \"staking/StakingRewardsDualFactory.sol\":23793:23813  rewardsB[msg.sender] */\n      0x00\n        /* \"staking/StakingRewardsDualFactory.sol\":23802:23812  msg.sender */\n      caller\n        /* \"staking/StakingRewardsDualFactory.sol\":23793:23813  rewardsB[msg.sender] */\n      0xffffffffffffffffffffffffffffffffffffffff\n      and\n      0xffffffffffffffffffffffffffffffffffffffff\n      and\n      dup2\n      mstore\n      0x20\n      add\n      swap1\n      dup2\n      mstore\n      0x20\n      add\n      0x00\n      keccak256\n      sload\n        /* \"staking/StakingRewardsDualFactory.sol\":23769:23813  uint256 rewardAmountB = rewardsB[msg.sender] */\n      swap1\n      pop\n        /* \"staking/StakingRewardsDualFactory.sol\":23843:23844  0 */\n      0x00\n        /* \"staking/StakingRewardsDualFactory.sol\":23827:23840  rewardAmountB */\n      dup2\n        /* \"staking/StakingRewardsDualFactory.sol\":23827:23844  rewardAmountB > 0 */\n      gt\n        /* \"staking/StakingRewardsDualFactory.sol\":23823:24042  if (rewardAmountB > 0) {... */\n      iszero\n      tag_208\n      jumpi\n        /* \"staking/StakingRewardsDualFactory.sol\":23883:23884  0 */\n      0x00\n        /* \"staking/StakingRewardsDualFactory.sol\":23860:23868  rewardsB */\n      0x11\n        /* \"staking/StakingRewardsDualFactory.sol\":23860:23880  rewardsB[msg.sender] */\n      0x00\n        /* \"staking/StakingRewardsDualFactory.sol\":23869:23879  msg.sender */\n      caller\n        /* \"staking/StakingRewardsDualFactory.sol\":23860:23880  rewardsB[msg.sender] */\n      0xffffffffffffffffffffffffffffffffffffffff\n      and\n      0xffffffffffffffffffffffffffffffffffffffff\n      and\n      dup2\n      mstore\n      0x20\n      add\n      swap1\n      dup2\n      mstore\n      0x20\n      add\n      0x00\n      keccak256\n        /* \"staking/StakingRewardsDualFactory.sol\":23860:23884  rewardsB[msg.sender] = 0 */\n      dup2\n      swap1\n      sstore\n      pop\n        /* \"staking/StakingRewardsDualFactory.sol\":23898:23951  rewardsTokenB.safeTransfer(msg.sender, rewardAmountB) */\n      tag_209\n        /* \"staking/StakingRewardsDualFactory.sol\":23925:23935  msg.sender */\n      caller\n        /* \"staking/StakingRewardsDualFactory.sol\":23937:23950  rewardAmountB */\n      dup3\n        /* \"staking/StakingRewardsDualFactory.sol\":23898:23911  rewardsTokenB */\n      0x06\n      0x00\n      swap1\n      sload\n      swap1\n      0x0100\n      exp\n      swap1\n      div\n      0xffffffffffffffffffffffffffffffffffffffff\n      and\n        /* \"staking/StakingRewardsDualFactory.sol\":23898:23924  rewardsTokenB.safeTransfer */\n      0xffffffffffffffffffffffffffffffffffffffff\n      and\n      tag_194\n      swap1\n        /* \"staking/StakingRewardsDualFactory.sol\":23898:23951  rewardsTokenB.safeTransfer(msg.sender, rewardAmountB) */\n      swap3\n      swap2\n      swap1\n      0xffffffff\n      and\n      jump\t// in\n    tag_209:\n        /* \"staking/StakingRewardsDualFactory.sol\":23981:23991  msg.sender */\n      caller\n        /* \"staking/StakingRewardsDualFactory.sol\":23970:24031  RewardPaid(msg.sender, address(rewardsTokenB), rewardAmountB) */\n      0xffffffffffffffffffffffffffffffffffffffff\n      and\n      0x540798df468d7b23d11f156fdb954cb19ad414d150722a7b6d55ba369dea792e\n        /* \"staking/StakingRewardsDualFactory.sol\":24001:24014  rewardsTokenB */\n      0x06\n      0x00\n      swap1\n      sload\n      swap1\n      0x0100\n      exp\n      swap1\n      div\n      0xffffffffffffffffffffffffffffffffffffffff\n      and\n        /* \"staking/StakingRewardsDualFactory.sol\":24017:24030  rewardAmountB */\n      dup4\n        /* \"staking/StakingRewardsDualFactory.sol\":23970:24031  RewardPaid(msg.sender, address(rewardsTokenB), rewardAmountB) */\n      mload(0x40)\n      dup1\n      dup4\n      0xffffffffffffffffffffffffffffffffffffffff\n      and\n      0xffffffffffffffffffffffffffffffffffffffff\n      and\n      dup2\n      mstore\n      0x20\n      add\n      dup3\n      dup2\n      mstore\n      0x20\n      add\n      swap3\n      pop\n      pop\n      pop\n      mload(0x40)\n      dup1\n      swap2\n      sub\n      swap1\n      log2\n        /* \"staking/StakingRewardsDualFactory.sol\":23823:24042  if (rewardAmountB > 0) {... */\n    tag_208:\n        /* \"staking/StakingRewardsDualFactory.sol\":26771:26772  _ */\n      pop\n      pop\n        /* \"staking/StakingRewardsDualFactory.sol\":16259:16260  _ */\n      pop\n        /* \"staking/StakingRewardsDualFactory.sol\":16294:16307  _guardCounter */\n      sload(0x03)\n        /* \"staking/StakingRewardsDualFactory.sol\":16278:16290  localCounter */\n      dup2\n        /* \"staking/StakingRewardsDualFactory.sol\":16278:16307  localCounter == _guardCounter */\n      eq\n        /* \"staking/StakingRewardsDualFactory.sol\":16270:16343  require(localCounter == _guardCounter, \"ReentrancyGuard: reentrant call\") */\n      tag_210\n      jumpi\n      mload(0x40)\n      0x08c379a000000000000000000000000000000000000000000000000000000000\n      dup2\n      mstore\n      0x04\n      add\n      dup1\n      dup1\n      0x20\n      add\n      dup3\n      dup2\n      sub\n      dup3\n      mstore\n      0x1f\n      dup2\n      mstore\n      0x20\n      add\n      dup1\n      0x5265656e7472616e637947756172643a207265656e7472616e742063616c6c00\n      dup2\n      mstore\n      pop\n      0x20\n      add\n      swap2\n      pop\n      pop\n      mload(0x40)\n      dup1\n      swap2\n      sub\n      swap1\n      revert\n    tag_210:\n        /* \"staking/StakingRewardsDualFactory.sol\":23410:24048  function getReward() public nonReentrant updateReward(msg.sender) {... */\n      pop\n      jump\t// out\n        /* \"staking/StakingRewardsDualFactory.sol\":20284:20342  mapping(address => uint256) public userRewardPerTokenAPaid */\n    tag_73:\n      mstore(0x20, 0x0e)\n      dup1\n      0x00\n      mstore\n      keccak256(0x00, 0x40)\n      0x00\n      swap2\n      pop\n      swap1\n      pop\n      sload\n      dup2\n      jump\t// out\n        /* \"staking/StakingRewardsDualFactory.sol\":20241:20277  uint256 public rewardPerTokenBStored */\n    tag_75:\n      sload(0x0d)\n      dup2\n      jump\t// out\n        /* \"staking/StakingRewardsDualFactory.sol\":17176:17205  address public nominatedOwner */\n    tag_77:\n      0x01\n      0x00\n      swap1\n      sload\n      swap1\n      0x0100\n      exp\n      swap1\n      div\n      0xffffffffffffffffffffffffffffffffffffffff\n      and\n      dup2\n      jump\t// out\n        /* \"staking/StakingRewardsDualFactory.sol\":18656:18674  bool public paused */\n    tag_79:\n      0x05\n      0x00\n      swap1\n      sload\n      swap1\n      0x0100\n      exp\n      swap1\n      div\n      0xff\n      and\n      dup2\n      jump\t// out\n        /* \"staking/StakingRewardsDualFactory.sol\":19957:19984  IERC20 public rewardsTokenA */\n    tag_81:\n      0x05\n      0x01\n      swap1\n      sload\n      swap1\n      0x0100\n      exp\n      swap1\n      div\n      0xffffffffffffffffffffffffffffffffffffffff\n      and\n      dup2\n      jump\t// out\n        /* \"staking/StakingRewardsDualFactory.sol\":22404:22616  function earnedB(address account) public view returns (uint256) {... */\n    tag_84:\n        /* \"staking/StakingRewardsDualFactory.sol\":22459:22466  uint256 */\n      0x00\n        /* \"staking/StakingRewardsDualFactory.sol\":22497:22609  _balances[account].mul(rewardPerTokenB().sub(userRewardPerTokenBPaid[account])).div(1e18).add(rewardsB[account]) */\n      tag_212\n        /* \"staking/StakingRewardsDualFactory.sol\":22591:22599  rewardsB */\n      0x11\n        /* \"staking/StakingRewardsDualFactory.sol\":22591:22608  rewardsB[account] */\n      0x00\n        /* \"staking/StakingRewardsDualFactory.sol\":22600:22607  account */\n      dup5\n        /* \"staking/StakingRewardsDualFactory.sol\":22591:22608  rewardsB[account] */\n      0xffffffffffffffffffffffffffffffffffffffff\n      and\n      0xffffffffffffffffffffffffffffffffffffffff\n      and\n      dup2\n      mstore\n      0x20\n      add\n      swap1\n      dup2\n      mstore\n      0x20\n      add\n      0x00\n      keccak256\n      sload\n        /* \"staking/StakingRewardsDualFactory.sol\":22497:22586  _balances[account].mul(rewardPerTokenB().sub(userRewardPerTokenBPaid[account])).div(1e18) */\n      tag_213\n        /* \"staking/StakingRewardsDualFactory.sol\":22581:22585  1e18 */\n      0x0de0b6b3a7640000\n        /* \"staking/StakingRewardsDualFactory.sol\":22497:22576  _balances[account].mul(rewardPerTokenB().sub(userRewardPerTokenBPaid[account])) */\n      tag_214\n        /* \"staking/StakingRewardsDualFactory.sol\":22520:22575  rewardPerTokenB().sub(userRewardPerTokenBPaid[account]) */\n      tag_215\n        /* \"staking/StakingRewardsDualFactory.sol\":22542:22565  userRewardPerTokenBPaid */\n      0x0f\n        /* \"staking/StakingRewardsDualFactory.sol\":22542:22574  userRewardPerTokenBPaid[account] */\n      0x00\n        /* \"staking/StakingRewardsDualFactory.sol\":22566:22573  account */\n      dup10\n        /* \"staking/StakingRewardsDualFactory.sol\":22542:22574  userRewardPerTokenBPaid[account] */\n      0xffffffffffffffffffffffffffffffffffffffff\n      and\n      0xffffffffffffffffffffffffffffffffffffffff\n      and\n      dup2\n      mstore\n      0x20\n      add\n      swap1\n      dup2\n      mstore\n      0x20\n      add\n      0x00\n      keccak256\n      sload\n        /* \"staking/StakingRewardsDualFactory.sol\":22520:22537  rewardPerTokenB() */\n      tag_216\n        /* \"staking/StakingRewardsDualFactory.sol\":22520:22535  rewardPerTokenB */\n      tag_86\n        /* \"staking/StakingRewardsDualFactory.sol\":22520:22537  rewardPerTokenB() */\n      jump\t// in\n    tag_216:\n        /* \"staking/StakingRewardsDualFactory.sol\":22520:22541  rewardPerTokenB().sub */\n      tag_145\n      swap1\n        /* \"staking/StakingRewardsDualFactory.sol\":22520:22575  rewardPerTokenB().sub(userRewardPerTokenBPaid[account]) */\n      swap2\n      swap1\n      0xffffffff\n      and\n      jump\t// in\n    tag_215:\n        /* \"staking/StakingRewardsDualFactory.sol\":22497:22506  _balances */\n      0x13\n        /* \"staking/StakingRewardsDualFactory.sol\":22497:22515  _balances[account] */\n      0x00\n        /* \"staking/StakingRewardsDualFactory.sol\":22507:22514  account */\n      dup10\n        /* \"staking/StakingRewardsDualFactory.sol\":22497:22515  _balances[account] */\n      0xffffffffffffffffffffffffffffffffffffffff\n      and\n      0xffffffffffffffffffffffffffffffffffffffff\n      and\n      dup2\n      mstore\n      0x20\n      add\n      swap1\n      dup2\n      mstore\n      0x20\n      add\n      0x00\n      keccak256\n      sload\n        /* \"staking/StakingRewardsDualFactory.sol\":22497:22519  _balances[account].mul */\n      tag_147\n      swap1\n        /* \"staking/StakingRewardsDualFactory.sol\":22497:22576  _balances[account].mul(rewardPerTokenB().sub(userRewardPerTokenBPaid[account])) */\n      swap2\n      swap1\n      0xffffffff\n      and\n      jump\t// in\n    tag_214:\n        /* \"staking/StakingRewardsDualFactory.sol\":22497:22580  _balances[account].mul(rewardPerTokenB().sub(userRewardPerTokenBPaid[account])).div */\n      tag_141\n      swap1\n        /* \"staking/StakingRewardsDualFactory.sol\":22497:22586  _balances[account].mul(rewardPerTokenB().sub(userRewardPerTokenBPaid[account])).div(1e18) */\n      swap2\n      swap1\n      0xffffffff\n      and\n      jump\t// in\n    tag_213:\n        /* \"staking/StakingRewardsDualFactory.sol\":22497:22590  _balances[account].mul(rewardPerTokenB().sub(userRewardPerTokenBPaid[account])).div(1e18).add */\n      tag_137\n      swap1\n        /* \"staking/StakingRewardsDualFactory.sol\":22497:22609  _balances[account].mul(rewardPerTokenB().sub(userRewardPerTokenBPaid[account])).div(1e18).add(rewardsB[account]) */\n      swap2\n      swap1\n      0xffffffff\n      and\n      jump\t// in\n    tag_212:\n        /* \"staking/StakingRewardsDualFactory.sol\":22478:22609  return... */\n      swap1\n      pop\n        /* \"staking/StakingRewardsDualFactory.sol\":22404:22616  function earnedB(address account) public view returns (uint256) {... */\n      swap2\n      swap1\n      pop\n      jump\t// out\n        /* \"staking/StakingRewardsDualFactory.sol\":21865:22192  function rewardPerTokenB() public view returns (uint256) {... */\n    tag_86:\n        /* \"staking/StakingRewardsDualFactory.sol\":21913:21920  uint256 */\n      0x00\n        /* \"staking/StakingRewardsDualFactory.sol\":21952:21953  0 */\n      dup1\n        /* \"staking/StakingRewardsDualFactory.sol\":21936:21948  _totalSupply */\n      sload(0x12)\n        /* \"staking/StakingRewardsDualFactory.sol\":21936:21953  _totalSupply == 0 */\n      eq\n        /* \"staking/StakingRewardsDualFactory.sol\":21932:22008  if (_totalSupply == 0) {... */\n      iszero\n      tag_218\n      jumpi\n        /* \"staking/StakingRewardsDualFactory.sol\":21976:21997  rewardPerTokenBStored */\n      sload(0x0d)\n        /* \"staking/StakingRewardsDualFactory.sol\":21969:21997  return rewardPerTokenBStored */\n      swap1\n      pop\n      jump(tag_217)\n        /* \"staking/StakingRewardsDualFactory.sol\":21932:22008  if (_totalSupply == 0) {... */\n    tag_218:\n        /* \"staking/StakingRewardsDualFactory.sol\":22037:22185  rewardPerTokenBStored.add(... */\n      tag_219\n        /* \"staking/StakingRewardsDualFactory.sol\":22080:22171  lastTimeRewardApplicable().sub(lastUpdateTime).mul(rewardRateB).mul(1e18).div(_totalSupply) */\n      tag_220\n        /* \"staking/StakingRewardsDualFactory.sol\":22158:22170  _totalSupply */\n      sload(0x12)\n        /* \"staking/StakingRewardsDualFactory.sol\":22080:22153  lastTimeRewardApplicable().sub(lastUpdateTime).mul(rewardRateB).mul(1e18) */\n      tag_221\n        /* \"staking/StakingRewardsDualFactory.sol\":22148:22152  1e18 */\n      0x0de0b6b3a7640000\n        /* \"staking/StakingRewardsDualFactory.sol\":22080:22143  lastTimeRewardApplicable().sub(lastUpdateTime).mul(rewardRateB) */\n      tag_222\n        /* \"staking/StakingRewardsDualFactory.sol\":22131:22142  rewardRateB */\n      sload(0x0a)\n        /* \"staking/StakingRewardsDualFactory.sol\":22080:22126  lastTimeRewardApplicable().sub(lastUpdateTime) */\n      tag_223\n        /* \"staking/StakingRewardsDualFactory.sol\":22111:22125  lastUpdateTime */\n      sload(0x0b)\n        /* \"staking/StakingRewardsDualFactory.sol\":22080:22106  lastTimeRewardApplicable() */\n      tag_224\n        /* \"staking/StakingRewardsDualFactory.sol\":22080:22104  lastTimeRewardApplicable */\n      tag_95\n        /* \"staking/StakingRewardsDualFactory.sol\":22080:22106  lastTimeRewardApplicable() */\n      jump\t// in\n    tag_224:\n        /* \"staking/StakingRewardsDualFactory.sol\":22080:22110  lastTimeRewardApplicable().sub */\n      tag_145\n      swap1\n        /* \"staking/StakingRewardsDualFactory.sol\":22080:22126  lastTimeRewardApplicable().sub(lastUpdateTime) */\n      swap2\n      swap1\n      0xffffffff\n      and\n      jump\t// in\n    tag_223:\n        /* \"staking/StakingRewardsDualFactory.sol\":22080:22130  lastTimeRewardApplicable().sub(lastUpdateTime).mul */\n      tag_147\n      swap1\n        /* \"staking/StakingRewardsDualFactory.sol\":22080:22143  lastTimeRewardApplicable().sub(lastUpdateTime).mul(rewardRateB) */\n      swap2\n      swap1\n      0xffffffff\n      and\n      jump\t// in\n    tag_222:\n        /* \"staking/StakingRewardsDualFactory.sol\":22080:22147  lastTimeRewardApplicable().sub(lastUpdateTime).mul(rewardRateB).mul */\n      tag_147\n      swap1\n        /* \"staking/StakingRewardsDualFactory.sol\":22080:22153  lastTimeRewardApplicable().sub(lastUpdateTime).mul(rewardRateB).mul(1e18) */\n      swap2\n      swap1\n      0xffffffff\n      and\n      jump\t// in\n    tag_221:\n        /* \"staking/StakingRewardsDualFactory.sol\":22080:22157  lastTimeRewardApplicable().sub(lastUpdateTime).mul(rewardRateB).mul(1e18).div */\n      tag_141\n      swap1\n        /* \"staking/StakingRewardsDualFactory.sol\":22080:22171  lastTimeRewardApplicable().sub(lastUpdateTime).mul(rewardRateB).mul(1e18).div(_totalSupply) */\n      swap2\n      swap1\n      0xffffffff\n      and\n      jump\t// in\n    tag_220:\n        /* \"staking/StakingRewardsDualFactory.sol\":22037:22058  rewardPerTokenBStored */\n      sload(0x0d)\n        /* \"staking/StakingRewardsDualFactory.sol\":22037:22062  rewardPerTokenBStored.add */\n      tag_137\n      swap1\n        /* \"staking/StakingRewardsDualFactory.sol\":22037:22185  rewardPerTokenBStored.add(... */\n      swap2\n      swap1\n      0xffffffff\n      and\n      jump\t// in\n    tag_219:\n        /* \"staking/StakingRewardsDualFactory.sol\":22018:22185  return... */\n      swap1\n      pop\n        /* \"staking/StakingRewardsDualFactory.sol\":21865:22192  function rewardPerTokenB() public view returns (uint256) {... */\n    tag_217:\n      swap1\n      jump\t// out\n        /* \"staking/StakingRewardsDualFactory.sol\":21282:21392  function balanceOf(address account) external view returns (uint256) {... */\n    tag_89:\n        /* \"staking/StakingRewardsDualFactory.sol\":21341:21348  uint256 */\n      0x00\n        /* \"staking/StakingRewardsDualFactory.sol\":21367:21376  _balances */\n      0x13\n        /* \"staking/StakingRewardsDualFactory.sol\":21367:21385  _balances[account] */\n      0x00\n        /* \"staking/StakingRewardsDualFactory.sol\":21377:21384  account */\n      dup4\n        /* \"staking/StakingRewardsDualFactory.sol\":21367:21385  _balances[account] */\n      0xffffffffffffffffffffffffffffffffffffffff\n      and\n      0xffffffffffffffffffffffffffffffffffffffff\n      and\n      dup2\n      mstore\n      0x20\n      add\n      swap1\n      dup2\n      mstore\n      0x20\n      add\n      0x00\n      keccak256\n      sload\n        /* \"staking/StakingRewardsDualFactory.sol\":21360:21385  return _balances[account] */\n      swap1\n      pop\n        /* \"staking/StakingRewardsDualFactory.sol\":21282:21392  function balanceOf(address account) external view returns (uint256) {... */\n      swap2\n      swap1\n      pop\n      jump\t// out\n        /* \"staking/StakingRewardsDualFactory.sol\":20023:20049  IERC20 public stakingToken */\n    tag_91:\n      0x07\n      0x00\n      swap1\n      sload\n      swap1\n      0x0100\n      exp\n      swap1\n      div\n      0xffffffffffffffffffffffffffffffffffffffff\n      and\n      dup2\n      jump\t// out\n        /* \"staking/StakingRewardsDualFactory.sol\":17543:17809  function acceptOwnership() external {... */\n    tag_93:\n        /* \"staking/StakingRewardsDualFactory.sol\":17611:17625  nominatedOwner */\n      0x01\n      0x00\n      swap1\n      sload\n      swap1\n      0x0100\n      exp\n      swap1\n      div\n      0xffffffffffffffffffffffffffffffffffffffff\n      and\n        /* \"staking/StakingRewardsDualFactory.sol\":17597:17625  msg.sender == nominatedOwner */\n      0xffffffffffffffffffffffffffffffffffffffff\n      and\n        /* \"staking/StakingRewardsDualFactory.sol\":17597:17607  msg.sender */\n      caller\n        /* \"staking/StakingRewardsDualFactory.sol\":17597:17625  msg.sender == nominatedOwner */\n      0xffffffffffffffffffffffffffffffffffffffff\n      and\n      eq\n        /* \"staking/StakingRewardsDualFactory.sol\":17589:17683  require(msg.sender == nominatedOwner, \"You must be nominated before you can accept ownership\") */\n      tag_227\n      jumpi\n      mload(0x40)\n      0x08c379a000000000000000000000000000000000000000000000000000000000\n      dup2\n      mstore\n      0x04\n      add\n      dup1\n      dup1\n      0x20\n      add\n      dup3\n      dup2\n      sub\n      dup3\n      mstore\n      0x35\n      dup2\n      mstore\n      0x20\n      add\n      dup1\n      data_1149e36cd24095bebc9341ef03810e0e2a00039190624df6f2d7934141e2233b\n      0x35\n      swap2\n      codecopy\n      0x40\n      add\n      swap2\n      pop\n      pop\n      mload(0x40)\n      dup1\n      swap2\n      sub\n      swap1\n      revert\n    tag_227:\n        /* \"staking/StakingRewardsDualFactory.sol\":17698:17733  OwnerChanged(owner, nominatedOwner) */\n      0xb532073b38c83145e3e5135377a08bf9aab55bc0fd7c1179cd4fb995d2a5159c\n        /* \"staking/StakingRewardsDualFactory.sol\":17711:17716  owner */\n      0x00\n      dup1\n      swap1\n      sload\n      swap1\n      0x0100\n      exp\n      swap1\n      div\n      0xffffffffffffffffffffffffffffffffffffffff\n      and\n        /* \"staking/StakingRewardsDualFactory.sol\":17718:17732  nominatedOwner */\n      0x01\n      0x00\n      swap1\n      sload\n      swap1\n      0x0100\n      exp\n      swap1\n      div\n      0xffffffffffffffffffffffffffffffffffffffff\n      and\n        /* \"staking/StakingRewardsDualFactory.sol\":17698:17733  OwnerChanged(owner, nominatedOwner) */\n      mload(0x40)\n      dup1\n      dup4\n      0xffffffffffffffffffffffffffffffffffffffff\n      and\n      0xffffffffffffffffffffffffffffffffffffffff\n      and\n      dup2\n      mstore\n      0x20\n      add\n      dup3\n      0xffffffffffffffffffffffffffffffffffffffff\n      and\n      0xffffffffffffffffffffffffffffffffffffffff\n      and\n      dup2\n      mstore\n      0x20\n      add\n      swap3\n      pop\n      pop\n      pop\n      mload(0x40)\n      dup1\n      swap2\n      sub\n      swap1\n      log1\n        /* \"staking/StakingRewardsDualFactory.sol\":17751:17765  nominatedOwner */\n      0x01\n      0x00\n      swap1\n      sload\n      swap1\n      0x0100\n      exp\n      swap1\n      div\n      0xffffffffffffffffffffffffffffffffffffffff\n      and\n        /* \"staking/StakingRewardsDualFactory.sol\":17743:17748  owner */\n      0x00\n      dup1\n        /* \"staking/StakingRewardsDualFactory.sol\":17743:17765  owner = nominatedOwner */\n      0x0100\n      exp\n      dup2\n      sload\n      dup2\n      0xffffffffffffffffffffffffffffffffffffffff\n      mul\n      not\n      and\n      swap1\n      dup4\n      0xffffffffffffffffffffffffffffffffffffffff\n      and\n      mul\n      or\n      swap1\n      sstore\n      pop\n        /* \"staking/StakingRewardsDualFactory.sol\":17800:17801  0 */\n      0x00\n        /* \"staking/StakingRewardsDualFactory.sol\":17775:17789  nominatedOwner */\n      0x01\n      0x00\n        /* \"staking/StakingRewardsDualFactory.sol\":17775:17802  nominatedOwner = address(0) */\n      0x0100\n      exp\n      dup2\n      sload\n      dup2\n      0xffffffffffffffffffffffffffffffffffffffff\n      mul\n      not\n      and\n      swap1\n      dup4\n      0xffffffffffffffffffffffffffffffffffffffff\n      and\n      mul\n      or\n      swap1\n      sstore\n      pop\n        /* \"staking/StakingRewardsDualFactory.sol\":17543:17809  function acceptOwnership() external {... */\n      jump\t// out\n        /* \"staking/StakingRewardsDualFactory.sol\":21398:21527  function lastTimeRewardApplicable() public view returns (uint256) {... */\n    tag_95:\n        /* \"staking/StakingRewardsDualFactory.sol\":21455:21462  uint256 */\n      0x00\n        /* \"staking/StakingRewardsDualFactory.sol\":21481:21520  Math.min(block.timestamp, periodFinish) */\n      tag_229\n        /* \"staking/StakingRewardsDualFactory.sol\":21490:21505  block.timestamp */\n      timestamp\n        /* \"staking/StakingRewardsDualFactory.sol\":21507:21519  periodFinish */\n      sload(0x08)\n        /* \"staking/StakingRewardsDualFactory.sol\":21481:21489  Math.min */\n      tag_230\n        /* \"staking/StakingRewardsDualFactory.sol\":21481:21520  Math.min(block.timestamp, periodFinish) */\n      jump\t// in\n    tag_229:\n        /* \"staking/StakingRewardsDualFactory.sol\":21474:21520  return Math.min(block.timestamp, periodFinish) */\n      swap1\n      pop\n        /* \"staking/StakingRewardsDualFactory.sol\":21398:21527  function lastTimeRewardApplicable() public view returns (uint256) {... */\n      swap1\n      jump\t// out\n        /* \"staking/StakingRewardsDualFactory.sol\":19990:20017  IERC20 public rewardsTokenB */\n    tag_97:\n      0x06\n      0x00\n      swap1\n      sload\n      swap1\n      0x0100\n      exp\n      swap1\n      div\n      0xffffffffffffffffffffffffffffffffffffffff\n      and\n      dup2\n      jump\t// out\n        /* \"staking/StakingRewardsDualFactory.sol\":25884:26182  function recoverERC20(address tokenAddress, uint256 tokenAmount) external onlyOwner {... */\n    tag_100:\n        /* \"staking/StakingRewardsDualFactory.sol\":17844:17856  _onlyOwner() */\n      tag_232\n        /* \"staking/StakingRewardsDualFactory.sol\":17844:17854  _onlyOwner */\n      tag_166\n        /* \"staking/StakingRewardsDualFactory.sol\":17844:17856  _onlyOwner() */\n      jump\t// in\n    tag_232:\n        /* \"staking/StakingRewardsDualFactory.sol\":26010:26022  stakingToken */\n      0x07\n      0x00\n      swap1\n      sload\n      swap1\n      0x0100\n      exp\n      swap1\n      div\n      0xffffffffffffffffffffffffffffffffffffffff\n      and\n        /* \"staking/StakingRewardsDualFactory.sol\":25986:26023  tokenAddress != address(stakingToken) */\n      0xffffffffffffffffffffffffffffffffffffffff\n      and\n        /* \"staking/StakingRewardsDualFactory.sol\":25986:25998  tokenAddress */\n      dup3\n        /* \"staking/StakingRewardsDualFactory.sol\":25986:26023  tokenAddress != address(stakingToken) */\n      0xffffffffffffffffffffffffffffffffffffffff\n      and\n      eq\n      iszero\n        /* \"staking/StakingRewardsDualFactory.sol\":25978:26061  require(tokenAddress != address(stakingToken), \"Cannot withdraw the staking token\") */\n      tag_234\n      jumpi\n      mload(0x40)\n      0x08c379a000000000000000000000000000000000000000000000000000000000\n      dup2\n      mstore\n      0x04\n      add\n      dup1\n      dup1\n      0x20\n      add\n      dup3\n      dup2\n      sub\n      dup3\n      mstore\n      0x21\n      dup2\n      mstore\n      0x20\n      add\n      dup1\n      data_f43de9f2a3539b2ac9cf1844588e9cc0acd1b2bdb1ec43734f76440993ede0a9\n      0x21\n      swap2\n      codecopy\n      0x40\n      add\n      swap2\n      pop\n      pop\n      mload(0x40)\n      dup1\n      swap2\n      sub\n      swap1\n      revert\n    tag_234:\n        /* \"staking/StakingRewardsDualFactory.sol\":26071:26124  IERC20(tokenAddress).safeTransfer(owner, tokenAmount) */\n      tag_235\n        /* \"staking/StakingRewardsDualFactory.sol\":26105:26110  owner */\n      0x00\n      dup1\n      swap1\n      sload\n      swap1\n      0x0100\n      exp\n      swap1\n      div\n      0xffffffffffffffffffffffffffffffffffffffff\n      and\n        /* \"staking/StakingRewardsDualFactory.sol\":26112:26123  tokenAmount */\n      dup3\n        /* \"staking/StakingRewardsDualFactory.sol\":26078:26090  tokenAddress */\n      dup5\n        /* \"staking/StakingRewardsDualFactory.sol\":26071:26104  IERC20(tokenAddress).safeTransfer */\n      0xffffffffffffffffffffffffffffffffffffffff\n      and\n      tag_194\n      swap1\n        /* \"staking/StakingRewardsDualFactory.sol\":26071:26124  IERC20(tokenAddress).safeTransfer(owner, tokenAmount) */\n      swap3\n      swap2\n      swap1\n      0xffffffff\n      and\n      jump\t// in\n    tag_235:\n        /* \"staking/StakingRewardsDualFactory.sol\":26139:26175  Recovered(tokenAddress, tokenAmount) */\n      0x8c1256b8896378cd5044f80c202f9772b9d77dc85c8a6eb51967210b09bfaa28\n        /* \"staking/StakingRewardsDualFactory.sol\":26149:26161  tokenAddress */\n      dup3\n        /* \"staking/StakingRewardsDualFactory.sol\":26163:26174  tokenAmount */\n      dup3\n        /* \"staking/StakingRewardsDualFactory.sol\":26139:26175  Recovered(tokenAddress, tokenAmount) */\n      mload(0x40)\n      dup1\n      dup4\n      0xffffffffffffffffffffffffffffffffffffffff\n      and\n      0xffffffffffffffffffffffffffffffffffffffff\n      and\n      dup2\n      mstore\n      0x20\n      add\n      dup3\n      dup2\n      mstore\n      0x20\n      add\n      swap3\n      pop\n      pop\n      pop\n      mload(0x40)\n      dup1\n      swap2\n      sub\n      swap1\n      log1\n        /* \"staking/StakingRewardsDualFactory.sol\":25884:26182  function recoverERC20(address tokenAddress, uint256 tokenAmount) external onlyOwner {... */\n      pop\n      pop\n      jump\t// out\n        /* \"staking/StakingRewardsDualFactory.sol\":17150:17170  address public owner */\n    tag_102:\n      0x00\n      dup1\n      swap1\n      sload\n      swap1\n      0x0100\n      exp\n      swap1\n      div\n      0xffffffffffffffffffffffffffffffffffffffff\n      and\n      dup2\n      jump\t// out\n        /* \"staking/StakingRewardsDualFactory.sol\":18625:18650  uint public lastPauseTime */\n    tag_104:\n      sload(0x04)\n      dup2\n      jump\t// out\n        /* \"staking/StakingRewardsDualFactory.sol\":22674:23047  function stake(uint256 amount) external nonReentrant notPaused updateReward(msg.sender) {... */\n    tag_107:\n        /* \"staking/StakingRewardsDualFactory.sol\":16202:16203  1 */\n      0x01\n        /* \"staking/StakingRewardsDualFactory.sol\":16185:16198  _guardCounter */\n      0x03\n      0x00\n        /* \"staking/StakingRewardsDualFactory.sol\":16185:16203  _guardCounter += 1 */\n      dup3\n      dup3\n      sload\n      add\n      swap3\n      pop\n      pop\n      dup2\n      swap1\n      sstore\n      pop\n        /* \"staking/StakingRewardsDualFactory.sol\":16213:16233  uint256 localCounter */\n      0x00\n        /* \"staking/StakingRewardsDualFactory.sol\":16236:16249  _guardCounter */\n      sload(0x03)\n        /* \"staking/StakingRewardsDualFactory.sol\":16213:16249  uint256 localCounter = _guardCounter */\n      swap1\n      pop\n        /* \"staking/StakingRewardsDualFactory.sol\":19614:19620  paused */\n      0x05\n      0x00\n      swap1\n      sload\n      swap1\n      0x0100\n      exp\n      swap1\n      div\n      0xff\n      and\n        /* \"staking/StakingRewardsDualFactory.sol\":19613:19620  !paused */\n      iszero\n        /* \"staking/StakingRewardsDualFactory.sol\":19605:19685  require(!paused, \"This action cannot be performed while the contract is paused\") */\n      tag_238\n      jumpi\n      mload(0x40)\n      0x08c379a000000000000000000000000000000000000000000000000000000000\n      dup2\n      mstore\n      0x04\n      add\n      dup1\n      dup1\n      0x20\n      add\n      dup3\n      dup2\n      sub\n      dup3\n      mstore\n      0x3c\n      dup2\n      mstore\n      0x20\n      add\n      dup1\n      data_b214273cdb244871f55e1966d43ad7febce81860c609dda0e226c7c1b7959d6f\n      0x3c\n      swap2\n      codecopy\n      0x40\n      add\n      swap2\n      pop\n      pop\n      mload(0x40)\n      dup1\n      swap2\n      sub\n      swap1\n      revert\n    tag_238:\n        /* \"staking/StakingRewardsDualFactory.sol\":22750:22760  msg.sender */\n      caller\n        /* \"staking/StakingRewardsDualFactory.sol\":26305:26322  rewardPerTokenA() */\n      tag_240\n        /* \"staking/StakingRewardsDualFactory.sol\":26305:26320  rewardPerTokenA */\n      tag_109\n        /* \"staking/StakingRewardsDualFactory.sol\":26305:26322  rewardPerTokenA() */\n      jump\t// in\n    tag_240:\n        /* \"staking/StakingRewardsDualFactory.sol\":26281:26302  rewardPerTokenAStored */\n      0x0c\n        /* \"staking/StakingRewardsDualFactory.sol\":26281:26322  rewardPerTokenAStored = rewardPerTokenA() */\n      dup2\n      swap1\n      sstore\n      pop\n        /* \"staking/StakingRewardsDualFactory.sol\":26356:26373  rewardPerTokenB() */\n      tag_241\n        /* \"staking/StakingRewardsDualFactory.sol\":26356:26371  rewardPerTokenB */\n      tag_86\n        /* \"staking/StakingRewardsDualFactory.sol\":26356:26373  rewardPerTokenB() */\n      jump\t// in\n    tag_241:\n        /* \"staking/StakingRewardsDualFactory.sol\":26332:26353  rewardPerTokenBStored */\n      0x0d\n        /* \"staking/StakingRewardsDualFactory.sol\":26332:26373  rewardPerTokenBStored = rewardPerTokenB() */\n      dup2\n      swap1\n      sstore\n      pop\n        /* \"staking/StakingRewardsDualFactory.sol\":26400:26426  lastTimeRewardApplicable() */\n      tag_242\n        /* \"staking/StakingRewardsDualFactory.sol\":26400:26424  lastTimeRewardApplicable */\n      tag_95\n        /* \"staking/StakingRewardsDualFactory.sol\":26400:26426  lastTimeRewardApplicable() */\n      jump\t// in\n    tag_242:\n        /* \"staking/StakingRewardsDualFactory.sol\":26383:26397  lastUpdateTime */\n      0x0b\n        /* \"staking/StakingRewardsDualFactory.sol\":26383:26426  lastUpdateTime = lastTimeRewardApplicable() */\n      dup2\n      swap1\n      sstore\n      pop\n        /* \"staking/StakingRewardsDualFactory.sol\":26459:26460  0 */\n      0x00\n        /* \"staking/StakingRewardsDualFactory.sol\":26440:26461  account != address(0) */\n      0xffffffffffffffffffffffffffffffffffffffff\n      and\n        /* \"staking/StakingRewardsDualFactory.sol\":26440:26447  account */\n      dup2\n        /* \"staking/StakingRewardsDualFactory.sol\":26440:26461  account != address(0) */\n      0xffffffffffffffffffffffffffffffffffffffff\n      and\n      eq\n        /* \"staking/StakingRewardsDualFactory.sol\":26436:26594  if (account != address(0)) {... */\n      tag_243\n      jumpi\n        /* \"staking/StakingRewardsDualFactory.sol\":26497:26513  earnedA(account) */\n      tag_244\n        /* \"staking/StakingRewardsDualFactory.sol\":26505:26512  account */\n      dup2\n        /* \"staking/StakingRewardsDualFactory.sol\":26497:26504  earnedA */\n      tag_57\n        /* \"staking/StakingRewardsDualFactory.sol\":26497:26513  earnedA(account) */\n      jump\t// in\n    tag_244:\n        /* \"staking/StakingRewardsDualFactory.sol\":26477:26485  rewardsA */\n      0x10\n        /* \"staking/StakingRewardsDualFactory.sol\":26477:26494  rewardsA[account] */\n      0x00\n        /* \"staking/StakingRewardsDualFactory.sol\":26486:26493  account */\n      dup4\n        /* \"staking/StakingRewardsDualFactory.sol\":26477:26494  rewardsA[account] */\n      0xffffffffffffffffffffffffffffffffffffffff\n      and\n      0xffffffffffffffffffffffffffffffffffffffff\n      and\n      dup2\n      mstore\n      0x20\n      add\n      swap1\n      dup2\n      mstore\n      0x20\n      add\n      0x00\n      keccak256\n        /* \"staking/StakingRewardsDualFactory.sol\":26477:26513  rewardsA[account] = earnedA(account) */\n      dup2\n      swap1\n      sstore\n      pop\n        /* \"staking/StakingRewardsDualFactory.sol\":26562:26583  rewardPerTokenAStored */\n      sload(0x0c)\n        /* \"staking/StakingRewardsDualFactory.sol\":26527:26550  userRewardPerTokenAPaid */\n      0x0e\n        /* \"staking/StakingRewardsDualFactory.sol\":26527:26559  userRewardPerTokenAPaid[account] */\n      0x00\n        /* \"staking/StakingRewardsDualFactory.sol\":26551:26558  account */\n      dup4\n        /* \"staking/StakingRewardsDualFactory.sol\":26527:26559  userRewardPerTokenAPaid[account] */\n      0xffffffffffffffffffffffffffffffffffffffff\n      and\n      0xffffffffffffffffffffffffffffffffffffffff\n      and\n      dup2\n      mstore\n      0x20\n      add\n      swap1\n      dup2\n      mstore\n      0x20\n      add\n      0x00\n      keccak256\n        /* \"staking/StakingRewardsDualFactory.sol\":26527:26583  userRewardPerTokenAPaid[account] = rewardPerTokenAStored */\n      dup2\n      swap1\n      sstore\n      pop\n        /* \"staking/StakingRewardsDualFactory.sol\":26436:26594  if (account != address(0)) {... */\n    tag_243:\n        /* \"staking/StakingRewardsDualFactory.sol\":26627:26628  0 */\n      0x00\n        /* \"staking/StakingRewardsDualFactory.sol\":26608:26629  account != address(0) */\n      0xffffffffffffffffffffffffffffffffffffffff\n      and\n        /* \"staking/StakingRewardsDualFactory.sol\":26608:26615  account */\n      dup2\n        /* \"staking/StakingRewardsDualFactory.sol\":26608:26629  account != address(0) */\n      0xffffffffffffffffffffffffffffffffffffffff\n      and\n      eq\n        /* \"staking/StakingRewardsDualFactory.sol\":26604:26762  if (account != address(0)) {... */\n      tag_245\n      jumpi\n        /* \"staking/StakingRewardsDualFactory.sol\":26665:26681  earnedB(account) */\n      tag_246\n        /* \"staking/StakingRewardsDualFactory.sol\":26673:26680  account */\n      dup2\n        /* \"staking/StakingRewardsDualFactory.sol\":26665:26672  earnedB */\n      tag_84\n        /* \"staking/StakingRewardsDualFactory.sol\":26665:26681  earnedB(account) */\n      jump\t// in\n    tag_246:\n        /* \"staking/StakingRewardsDualFactory.sol\":26645:26653  rewardsB */\n      0x11\n        /* \"staking/StakingRewardsDualFactory.sol\":26645:26662  rewardsB[account] */\n      0x00\n        /* \"staking/StakingRewardsDualFactory.sol\":26654:26661  account */\n      dup4\n        /* \"staking/StakingRewardsDualFactory.sol\":26645:26662  rewardsB[account] */\n      0xffffffffffffffffffffffffffffffffffffffff\n      and\n      0xffffffffffffffffffffffffffffffffffffffff\n      and\n      dup2\n      mstore\n      0x20\n      add\n      swap1\n      dup2\n      mstore\n      0x20\n      add\n      0x00\n      keccak256\n        /* \"staking/StakingRewardsDualFactory.sol\":26645:26681  rewardsB[account] = earnedB(account) */\n      dup2\n      swap1\n      sstore\n      pop\n        /* \"staking/StakingRewardsDualFactory.sol\":26730:26751  rewardPerTokenBStored */\n      sload(0x0d)\n        /* \"staking/StakingRewardsDualFactory.sol\":26695:26718  userRewardPerTokenBPaid */\n      0x0f\n        /* \"staking/StakingRewardsDualFactory.sol\":26695:26727  userRewardPerTokenBPaid[account] */\n      0x00\n        /* \"staking/StakingRewardsDualFactory.sol\":26719:26726  account */\n      dup4\n        /* \"staking/StakingRewardsDualFactory.sol\":26695:26727  userRewardPerTokenBPaid[account] */\n      0xffffffffffffffffffffffffffffffffffffffff\n      and\n      0xffffffffffffffffffffffffffffffffffffffff\n      and\n      dup2\n      mstore\n      0x20\n      add\n      swap1\n      dup2\n      mstore\n      0x20\n      add\n      0x00\n      keccak256\n        /* \"staking/StakingRewardsDualFactory.sol\":26695:26751  userRewardPerTokenBPaid[account] = rewardPerTokenBStored */\n      dup2\n      swap1\n      sstore\n      pop\n        /* \"staking/StakingRewardsDualFactory.sol\":26604:26762  if (account != address(0)) {... */\n    tag_245:\n        /* \"staking/StakingRewardsDualFactory.sol\":22789:22790  0 */\n      0x00\n        /* \"staking/StakingRewardsDualFactory.sol\":22780:22786  amount */\n      dup4\n        /* \"staking/StakingRewardsDualFactory.sol\":22780:22790  amount > 0 */\n      gt\n        /* \"staking/StakingRewardsDualFactory.sol\":22772:22809  require(amount > 0, \"Cannot stake 0\") */\n      tag_248\n      jumpi\n      mload(0x40)\n      0x08c379a000000000000000000000000000000000000000000000000000000000\n      dup2\n      mstore\n      0x04\n      add\n      dup1\n      dup1\n      0x20\n      add\n      dup3\n      dup2\n      sub\n      dup3\n      mstore\n      0x0e\n      dup2\n      mstore\n      0x20\n      add\n      dup1\n      0x43616e6e6f74207374616b652030000000000000000000000000000000000000\n      dup2\n      mstore\n      pop\n      0x20\n      add\n      swap2\n      pop\n      pop\n      mload(0x40)\n      dup1\n      swap2\n      sub\n      swap1\n      revert\n    tag_248:\n        /* \"staking/StakingRewardsDualFactory.sol\":22834:22858  _totalSupply.add(amount) */\n      tag_249\n        /* \"staking/StakingRewardsDualFactory.sol\":22851:22857  amount */\n      dup4\n        /* \"staking/StakingRewardsDualFactory.sol\":22834:22846  _totalSupply */\n      sload(0x12)\n        /* \"staking/StakingRewardsDualFactory.sol\":22834:22850  _totalSupply.add */\n      tag_137\n      swap1\n        /* \"staking/StakingRewardsDualFactory.sol\":22834:22858  _totalSupply.add(amount) */\n      swap2\n      swap1\n      0xffffffff\n      and\n      jump\t// in\n    tag_249:\n        /* \"staking/StakingRewardsDualFactory.sol\":22819:22831  _totalSupply */\n      0x12\n        /* \"staking/StakingRewardsDualFactory.sol\":22819:22858  _totalSupply = _totalSupply.add(amount) */\n      dup2\n      swap1\n      sstore\n      pop\n        /* \"staking/StakingRewardsDualFactory.sol\":22892:22925  _balances[msg.sender].add(amount) */\n      tag_250\n        /* \"staking/StakingRewardsDualFactory.sol\":22918:22924  amount */\n      dup4\n        /* \"staking/StakingRewardsDualFactory.sol\":22892:22901  _balances */\n      0x13\n        /* \"staking/StakingRewardsDualFactory.sol\":22892:22913  _balances[msg.sender] */\n      0x00\n        /* \"staking/StakingRewardsDualFactory.sol\":22902:22912  msg.sender */\n      caller\n        /* \"staking/StakingRewardsDualFactory.sol\":22892:22913  _balances[msg.sender] */\n      0xffffffffffffffffffffffffffffffffffffffff\n      and\n      0xffffffffffffffffffffffffffffffffffffffff\n      and\n      dup2\n      mstore\n      0x20\n      add\n      swap1\n      dup2\n      mstore\n      0x20\n      add\n      0x00\n      keccak256\n      sload\n        /* \"staking/StakingRewardsDualFactory.sol\":22892:22917  _balances[msg.sender].add */\n      tag_137\n      swap1\n        /* \"staking/StakingRewardsDualFactory.sol\":22892:22925  _balances[msg.sender].add(amount) */\n      swap2\n      swap1\n      0xffffffff\n      and\n      jump\t// in\n    tag_250:\n        /* \"staking/StakingRewardsDualFactory.sol\":22868:22877  _balances */\n      0x13\n        /* \"staking/StakingRewardsDualFactory.sol\":22868:22889  _balances[msg.sender] */\n      0x00\n        /* \"staking/StakingRewardsDualFactory.sol\":22878:22888  msg.sender */\n      caller\n        /* \"staking/StakingRewardsDualFactory.sol\":22868:22889  _balances[msg.sender] */\n      0xffffffffffffffffffffffffffffffffffffffff\n      and\n      0xffffffffffffffffffffffffffffffffffffffff\n      and\n      dup2\n      mstore\n      0x20\n      add\n      swap1\n      dup2\n      mstore\n      0x20\n      add\n      0x00\n      keccak256\n        /* \"staking/StakingRewardsDualFactory.sol\":22868:22925  _balances[msg.sender] = _balances[msg.sender].add(amount) */\n      dup2\n      swap1\n      sstore\n      pop\n        /* \"staking/StakingRewardsDualFactory.sol\":22935:22999  stakingToken.safeTransferFrom(msg.sender, address(this), amount) */\n      tag_251\n        /* \"staking/StakingRewardsDualFactory.sol\":22965:22975  msg.sender */\n      caller\n        /* \"staking/StakingRewardsDualFactory.sol\":22985:22989  this */\n      address\n        /* \"staking/StakingRewardsDualFactory.sol\":22992:22998  amount */\n      dup6\n        /* \"staking/StakingRewardsDualFactory.sol\":22935:22947  stakingToken */\n      0x07\n      0x00\n      swap1\n      sload\n      swap1\n      0x0100\n      exp\n      swap1\n      div\n      0xffffffffffffffffffffffffffffffffffffffff\n      and\n        /* \"staking/StakingRewardsDualFactory.sol\":22935:22964  stakingToken.safeTransferFrom */\n      0xffffffffffffffffffffffffffffffffffffffff\n      and\n      tag_252\n      swap1\n        /* \"staking/StakingRewardsDualFactory.sol\":22935:22999  stakingToken.safeTransferFrom(msg.sender, address(this), amount) */\n      swap4\n      swap3\n      swap2\n      swap1\n      0xffffffff\n      and\n      jump\t// in\n    tag_251:\n        /* \"staking/StakingRewardsDualFactory.sol\":23021:23031  msg.sender */\n      caller\n        /* \"staking/StakingRewardsDualFactory.sol\":23014:23040  Staked(msg.sender, amount) */\n      0xffffffffffffffffffffffffffffffffffffffff\n      and\n      0x9e71bc8eea02a63969f509818f2dafb9254532904319f9dbda79b67bd34a5f3d\n        /* \"staking/StakingRewardsDualFactory.sol\":23033:23039  amount */\n      dup5\n        /* \"staking/StakingRewardsDualFactory.sol\":23014:23040  Staked(msg.sender, amount) */\n      mload(0x40)\n      dup1\n      dup3\n      dup2\n      mstore\n      0x20\n      add\n      swap2\n      pop\n      pop\n      mload(0x40)\n      dup1\n      swap2\n      sub\n      swap1\n      log2\n        /* \"staking/StakingRewardsDualFactory.sol\":19695:19696  _ */\n      pop\n        /* \"staking/StakingRewardsDualFactory.sol\":16294:16307  _guardCounter */\n      sload(0x03)\n        /* \"staking/StakingRewardsDualFactory.sol\":16278:16290  localCounter */\n      dup2\n        /* \"staking/StakingRewardsDualFactory.sol\":16278:16307  localCounter == _guardCounter */\n      eq\n        /* \"staking/StakingRewardsDualFactory.sol\":16270:16343  require(localCounter == _guardCounter, \"ReentrancyGuard: reentrant call\") */\n      tag_253\n      jumpi\n      mload(0x40)\n      0x08c379a000000000000000000000000000000000000000000000000000000000\n      dup2\n      mstore\n      0x04\n      add\n      dup1\n      dup1\n      0x20\n      add\n      dup3\n      dup2\n      sub\n      dup3\n      mstore\n      0x1f\n      dup2\n      mstore\n      0x20\n      add\n      dup1\n      0x5265656e7472616e637947756172643a207265656e7472616e742063616c6c00\n      dup2\n      mstore\n      pop\n      0x20\n      add\n      swap2\n      pop\n      pop\n      mload(0x40)\n      dup1\n      swap2\n      sub\n      swap1\n      revert\n    tag_253:\n        /* \"staking/StakingRewardsDualFactory.sol\":22674:23047  function stake(uint256 amount) external nonReentrant notPaused updateReward(msg.sender) {... */\n      pop\n      pop\n      jump\t// out\n        /* \"staking/StakingRewardsDualFactory.sol\":21533:21859  function rewardPerTokenA() public view returns (uint256) {... */\n    tag_109:\n        /* \"staking/StakingRewardsDualFactory.sol\":21581:21588  uint256 */\n      0x00\n        /* \"staking/StakingRewardsDualFactory.sol\":21620:21621  0 */\n      dup1\n        /* \"staking/StakingRewardsDualFactory.sol\":21604:21616  _totalSupply */\n      sload(0x12)\n        /* \"staking/StakingRewardsDualFactory.sol\":21604:21621  _totalSupply == 0 */\n      eq\n        /* \"staking/StakingRewardsDualFactory.sol\":21600:21676  if (_totalSupply == 0) {... */\n      iszero\n      tag_255\n      jumpi\n        /* \"staking/StakingRewardsDualFactory.sol\":21644:21665  rewardPerTokenAStored */\n      sload(0x0c)\n        /* \"staking/StakingRewardsDualFactory.sol\":21637:21665  return rewardPerTokenAStored */\n      swap1\n      pop\n      jump(tag_254)\n        /* \"staking/StakingRewardsDualFactory.sol\":21600:21676  if (_totalSupply == 0) {... */\n    tag_255:\n        /* \"staking/StakingRewardsDualFactory.sol\":21704:21852  rewardPerTokenAStored.add(... */\n      tag_256\n        /* \"staking/StakingRewardsDualFactory.sol\":21747:21838  lastTimeRewardApplicable().sub(lastUpdateTime).mul(rewardRateA).mul(1e18).div(_totalSupply) */\n      tag_257\n        /* \"staking/StakingRewardsDualFactory.sol\":21825:21837  _totalSupply */\n      sload(0x12)\n        /* \"staking/StakingRewardsDualFactory.sol\":21747:21820  lastTimeRewardApplicable().sub(lastUpdateTime).mul(rewardRateA).mul(1e18) */\n      tag_258\n        /* \"staking/StakingRewardsDualFactory.sol\":21815:21819  1e18 */\n      0x0de0b6b3a7640000\n        /* \"staking/StakingRewardsDualFactory.sol\":21747:21810  lastTimeRewardApplicable().sub(lastUpdateTime).mul(rewardRateA) */\n      tag_259\n        /* \"staking/StakingRewardsDualFactory.sol\":21798:21809  rewardRateA */\n      sload(0x09)\n        /* \"staking/StakingRewardsDualFactory.sol\":21747:21793  lastTimeRewardApplicable().sub(lastUpdateTime) */\n      tag_260\n        /* \"staking/StakingRewardsDualFactory.sol\":21778:21792  lastUpdateTime */\n      sload(0x0b)\n        /* \"staking/StakingRewardsDualFactory.sol\":21747:21773  lastTimeRewardApplicable() */\n      tag_261\n        /* \"staking/StakingRewardsDualFactory.sol\":21747:21771  lastTimeRewardApplicable */\n      tag_95\n        /* \"staking/StakingRewardsDualFactory.sol\":21747:21773  lastTimeRewardApplicable() */\n      jump\t// in\n    tag_261:\n        /* \"staking/StakingRewardsDualFactory.sol\":21747:21777  lastTimeRewardApplicable().sub */\n      tag_145\n      swap1\n        /* \"staking/StakingRewardsDualFactory.sol\":21747:21793  lastTimeRewardApplicable().sub(lastUpdateTime) */\n      swap2\n      swap1\n      0xffffffff\n      and\n      jump\t// in\n    tag_260:\n        /* \"staking/StakingRewardsDualFactory.sol\":21747:21797  lastTimeRewardApplicable().sub(lastUpdateTime).mul */\n      tag_147\n      swap1\n        /* \"staking/StakingRewardsDualFactory.sol\":21747:21810  lastTimeRewardApplicable().sub(lastUpdateTime).mul(rewardRateA) */\n      swap2\n      swap1\n      0xffffffff\n      and\n      jump\t// in\n    tag_259:\n        /* \"staking/StakingRewardsDualFactory.sol\":21747:21814  lastTimeRewardApplicable().sub(lastUpdateTime).mul(rewardRateA).mul */\n      tag_147\n      swap1\n        /* \"staking/StakingRewardsDualFactory.sol\":21747:21820  lastTimeRewardApplicable().sub(lastUpdateTime).mul(rewardRateA).mul(1e18) */\n      swap2\n      swap1\n      0xffffffff\n      and\n      jump\t// in\n    tag_258:\n        /* \"staking/StakingRewardsDualFactory.sol\":21747:21824  lastTimeRewardApplicable().sub(lastUpdateTime).mul(rewardRateA).mul(1e18).div */\n      tag_141\n      swap1\n        /* \"staking/StakingRewardsDualFactory.sol\":21747:21838  lastTimeRewardApplicable().sub(lastUpdateTime).mul(rewardRateA).mul(1e18).div(_totalSupply) */\n      swap2\n      swap1\n      0xffffffff\n      and\n      jump\t// in\n    tag_257:\n        /* \"staking/StakingRewardsDualFactory.sol\":21704:21725  rewardPerTokenAStored */\n      sload(0x0c)\n        /* \"staking/StakingRewardsDualFactory.sol\":21704:21729  rewardPerTokenAStored.add */\n      tag_137\n      swap1\n        /* \"staking/StakingRewardsDualFactory.sol\":21704:21852  rewardPerTokenAStored.add(... */\n      swap2\n      swap1\n      0xffffffff\n      and\n      jump\t// in\n    tag_256:\n        /* \"staking/StakingRewardsDualFactory.sol\":21685:21852  return... */\n      swap1\n      pop\n        /* \"staking/StakingRewardsDualFactory.sol\":21533:21859  function rewardPerTokenA() public view returns (uint256) {... */\n    tag_254:\n      swap1\n      jump\t// out\n        /* \"staking/StakingRewardsDualFactory.sol\":20461:20504  mapping(address => uint256) public rewardsB */\n    tag_112:\n      mstore(0x20, 0x11)\n      dup1\n      0x00\n      mstore\n      keccak256(0x00, 0x40)\n      0x00\n      swap2\n      pop\n      swap1\n      pop\n      sload\n      dup2\n      jump\t// out\n        /* \"staking/StakingRewardsDualFactory.sol\":20164:20193  uint256 public lastUpdateTime */\n    tag_114:\n      sload(0x0b)\n      dup2\n      jump\t// out\n        /* \"staking/StakingRewardsDualFactory.sol\":24054:24148  function exit() external {... */\n    tag_116:\n        /* \"staking/StakingRewardsDualFactory.sol\":24089:24120  withdraw(_balances[msg.sender]) */\n      tag_263\n        /* \"staking/StakingRewardsDualFactory.sol\":24098:24107  _balances */\n      0x13\n        /* \"staking/StakingRewardsDualFactory.sol\":24098:24119  _balances[msg.sender] */\n      0x00\n        /* \"staking/StakingRewardsDualFactory.sol\":24108:24118  msg.sender */\n      caller\n        /* \"staking/StakingRewardsDualFactory.sol\":24098:24119  _balances[msg.sender] */\n      0xffffffffffffffffffffffffffffffffffffffff\n      and\n      0xffffffffffffffffffffffffffffffffffffffff\n      and\n      dup2\n      mstore\n      0x20\n      add\n      swap1\n      dup2\n      mstore\n      0x20\n      add\n      0x00\n      keccak256\n      sload\n        /* \"staking/StakingRewardsDualFactory.sol\":24089:24097  withdraw */\n      tag_65\n        /* \"staking/StakingRewardsDualFactory.sol\":24089:24120  withdraw(_balances[msg.sender]) */\n      jump\t// in\n    tag_263:\n        /* \"staking/StakingRewardsDualFactory.sol\":24130:24141  getReward() */\n      tag_264\n        /* \"staking/StakingRewardsDualFactory.sol\":24130:24139  getReward */\n      tag_70\n        /* \"staking/StakingRewardsDualFactory.sol\":24130:24141  getReward() */\n      jump\t// in\n    tag_264:\n        /* \"staking/StakingRewardsDualFactory.sol\":24054:24148  function exit() external {... */\n      jump\t// out\n        /* \"staking/StakingRewardsDualFactory.sol\":20055:20086  uint256 public periodFinish = 0 */\n    tag_118:\n      sload(0x08)\n      dup2\n      jump\t// out\n        /* \"staking/StakingRewardsDualFactory.sol\":20128:20158  uint256 public rewardRateB = 0 */\n    tag_120:\n      sload(0x0a)\n      dup2\n      jump\t// out\n        /* \"staking/StakingRewardsDualFactory.sol\":20199:20235  uint256 public rewardPerTokenAStored */\n    tag_122:\n      sload(0x0c)\n      dup2\n      jump\t// out\n        /* \"staking/StakingRewardsDualFactory.sol\":18195:18233  address public dualRewardsDistribution */\n    tag_124:\n      0x02\n      0x00\n      swap1\n      sload\n      swap1\n      0x0100\n      exp\n      swap1\n      div\n      0xffffffffffffffffffffffffffffffffffffffff\n      and\n      dup2\n      jump\t// out\n        /* \"staking/StakingRewardsDualFactory.sol\":3448:3624  function add(uint256 a, uint256 b) internal pure returns (uint256) {... */\n    tag_137:\n        /* \"staking/StakingRewardsDualFactory.sol\":3506:3513  uint256 */\n      0x00\n        /* \"staking/StakingRewardsDualFactory.sol\":3525:3534  uint256 c */\n      dup1\n        /* \"staking/StakingRewardsDualFactory.sol\":3541:3542  b */\n      dup3\n        /* \"staking/StakingRewardsDualFactory.sol\":3537:3538  a */\n      dup5\n        /* \"staking/StakingRewardsDualFactory.sol\":3537:3542  a + b */\n      add\n        /* \"staking/StakingRewardsDualFactory.sol\":3525:3542  uint256 c = a + b */\n      swap1\n      pop\n        /* \"staking/StakingRewardsDualFactory.sol\":3565:3566  a */\n      dup4\n        /* \"staking/StakingRewardsDualFactory.sol\":3560:3561  c */\n      dup2\n        /* \"staking/StakingRewardsDualFactory.sol\":3560:3566  c >= a */\n      lt\n      iszero\n        /* \"staking/StakingRewardsDualFactory.sol\":3552:3598  require(c >= a, \"SafeMath: addition overflow\") */\n      tag_266\n      jumpi\n      mload(0x40)\n      0x08c379a000000000000000000000000000000000000000000000000000000000\n      dup2\n      mstore\n      0x04\n      add\n      dup1\n      dup1\n      0x20\n      add\n      dup3\n      dup2\n      sub\n      dup3\n      mstore\n      0x1b\n      dup2\n      mstore\n      0x20\n      add\n      dup1\n      0x536166654d6174683a206164646974696f6e206f766572666c6f770000000000\n      dup2\n      mstore\n      pop\n      0x20\n      add\n      swap2\n      pop\n      pop\n      mload(0x40)\n      dup1\n      swap2\n      sub\n      swap1\n      revert\n    tag_266:\n        /* \"staking/StakingRewardsDualFactory.sol\":3616:3617  c */\n      dup1\n        /* \"staking/StakingRewardsDualFactory.sol\":3609:3617  return c */\n      swap2\n      pop\n      pop\n        /* \"staking/StakingRewardsDualFactory.sol\":3448:3624  function add(uint256 a, uint256 b) internal pure returns (uint256) {... */\n      swap3\n      swap2\n      pop\n      pop\n      jump\t// out\n        /* \"staking/StakingRewardsDualFactory.sol\":5220:5546  function div(uint256 a, uint256 b) internal pure returns (uint256) {... */\n    tag_141:\n        /* \"staking/StakingRewardsDualFactory.sol\":5278:5285  uint256 */\n      0x00\n        /* \"staking/StakingRewardsDualFactory.sol\":5375:5376  0 */\n      dup1\n        /* \"staking/StakingRewardsDualFactory.sol\":5371:5372  b */\n      dup3\n        /* \"staking/StakingRewardsDualFactory.sol\":5371:5376  b > 0 */\n      gt\n        /* \"staking/StakingRewardsDualFactory.sol\":5363:5407  require(b > 0, \"SafeMath: division by zero\") */\n      tag_268\n      jumpi\n      mload(0x40)\n      0x08c379a000000000000000000000000000000000000000000000000000000000\n      dup2\n      mstore\n      0x04\n      add\n      dup1\n      dup1\n      0x20\n      add\n      dup3\n      dup2\n      sub\n      dup3\n      mstore\n      0x1a\n      dup2\n      mstore\n      0x20\n      add\n      dup1\n      0x536166654d6174683a206469766973696f6e206279207a65726f000000000000\n      dup2\n      mstore\n      pop\n      0x20\n      add\n      swap2\n      pop\n      pop\n      mload(0x40)\n      dup1\n      swap2\n      sub\n      swap1\n      revert\n    tag_268:\n        /* \"staking/StakingRewardsDualFactory.sol\":5417:5426  uint256 c */\n      0x00\n        /* \"staking/StakingRewardsDualFactory.sol\":5433:5434  b */\n      dup3\n        /* \"staking/StakingRewardsDualFactory.sol\":5429:5430  a */\n      dup5\n        /* \"staking/StakingRewardsDualFactory.sol\":5429:5434  a / b */\n      dup2\n      tag_269\n      jumpi\n      invalid\n    tag_269:\n      div\n        /* \"staking/StakingRewardsDualFactory.sol\":5417:5434  uint256 c = a / b */\n      swap1\n      pop\n        /* \"staking/StakingRewardsDualFactory.sol\":5538:5539  c */\n      dup1\n        /* \"staking/StakingRewardsDualFactory.sol\":5531:5539  return c */\n      swap2\n      pop\n      pop\n        /* \"staking/StakingRewardsDualFactory.sol\":5220:5546  function div(uint256 a, uint256 b) internal pure returns (uint256) {... */\n      swap3\n      swap2\n      pop\n      pop\n      jump\t// out\n        /* \"staking/StakingRewardsDualFactory.sol\":3888:4067  function sub(uint256 a, uint256 b) internal pure returns (uint256) {... */\n    tag_145:\n        /* \"staking/StakingRewardsDualFactory.sol\":3946:3953  uint256 */\n      0x00\n        /* \"staking/StakingRewardsDualFactory.sol\":3978:3979  a */\n      dup3\n        /* \"staking/StakingRewardsDualFactory.sol\":3973:3974  b */\n      dup3\n        /* \"staking/StakingRewardsDualFactory.sol\":3973:3979  b <= a */\n      gt\n      iszero\n        /* \"staking/StakingRewardsDualFactory.sol\":3965:4014  require(b <= a, \"SafeMath: subtraction overflow\") */\n      tag_271\n      jumpi\n      mload(0x40)\n      0x08c379a000000000000000000000000000000000000000000000000000000000\n      dup2\n      mstore\n      0x04\n      add\n      dup1\n      dup1\n      0x20\n      add\n      dup3\n      dup2\n      sub\n      dup3\n      mstore\n      0x1e\n      dup2\n      mstore\n      0x20\n      add\n      dup1\n      0x536166654d6174683a207375627472616374696f6e206f766572666c6f770000\n      dup2\n      mstore\n      pop\n      0x20\n      add\n      swap2\n      pop\n      pop\n      mload(0x40)\n      dup1\n      swap2\n      sub\n      swap1\n      revert\n    tag_271:\n        /* \"staking/StakingRewardsDualFactory.sol\":4024:4033  uint256 c */\n      0x00\n        /* \"staking/StakingRewardsDualFactory.sol\":4040:4041  b */\n      dup3\n        /* \"staking/StakingRewardsDualFactory.sol\":4036:4037  a */\n      dup5\n        /* \"staking/StakingRewardsDualFactory.sol\":4036:4041  a - b */\n      sub\n        /* \"staking/StakingRewardsDualFactory.sol\":4024:4041  uint256 c = a - b */\n      swap1\n      pop\n        /* \"staking/StakingRewardsDualFactory.sol\":4059:4060  c */\n      dup1\n        /* \"staking/StakingRewardsDualFactory.sol\":4052:4060  return c */\n      swap2\n      pop\n      pop\n        /* \"staking/StakingRewardsDualFactory.sol\":3888:4067  function sub(uint256 a, uint256 b) internal pure returns (uint256) {... */\n      swap3\n      swap2\n      pop\n      pop\n      jump\t// out\n        /* \"staking/StakingRewardsDualFactory.sol\":4307:4765  function mul(uint256 a, uint256 b) internal pure returns (uint256) {... */\n    tag_147:\n        /* \"staking/StakingRewardsDualFactory.sol\":4365:4372  uint256 */\n      0x00\n        /* \"staking/StakingRewardsDualFactory.sol\":4610:4611  0 */\n      dup1\n        /* \"staking/StakingRewardsDualFactory.sol\":4605:4606  a */\n      dup4\n        /* \"staking/StakingRewardsDualFactory.sol\":4605:4611  a == 0 */\n      eq\n        /* \"staking/StakingRewardsDualFactory.sol\":4601:4646  if (a == 0) {... */\n      iszero\n      tag_273\n      jumpi\n        /* \"staking/StakingRewardsDualFactory.sol\":4634:4635  0 */\n      0x00\n        /* \"staking/StakingRewardsDualFactory.sol\":4627:4635  return 0 */\n      swap1\n      pop\n      jump(tag_272)\n        /* \"staking/StakingRewardsDualFactory.sol\":4601:4646  if (a == 0) {... */\n    tag_273:\n        /* \"staking/StakingRewardsDualFactory.sol\":4656:4665  uint256 c */\n      0x00\n        /* \"staking/StakingRewardsDualFactory.sol\":4672:4673  b */\n      dup3\n        /* \"staking/StakingRewardsDualFactory.sol\":4668:4669  a */\n      dup5\n        /* \"staking/StakingRewardsDualFactory.sol\":4668:4673  a * b */\n      mul\n        /* \"staking/StakingRewardsDualFactory.sol\":4656:4673  uint256 c = a * b */\n      swap1\n      pop\n        /* \"staking/StakingRewardsDualFactory.sol\":4700:4701  b */\n      dup3\n        /* \"staking/StakingRewardsDualFactory.sol\":4695:4696  a */\n      dup5\n        /* \"staking/StakingRewardsDualFactory.sol\":4691:4692  c */\n      dup3\n        /* \"staking/StakingRewardsDualFactory.sol\":4691:4696  c / a */\n      dup2\n      tag_274\n      jumpi\n      invalid\n    tag_274:\n      div\n        /* \"staking/StakingRewardsDualFactory.sol\":4691:4701  c / a == b */\n      eq\n        /* \"staking/StakingRewardsDualFactory.sol\":4683:4739  require(c / a == b, \"SafeMath: multiplication overflow\") */\n      tag_275\n      jumpi\n      mload(0x40)\n      0x08c379a000000000000000000000000000000000000000000000000000000000\n      dup2\n      mstore\n      0x04\n      add\n      dup1\n      dup1\n      0x20\n      add\n      dup3\n      dup2\n      sub\n      dup3\n      mstore\n      0x21\n      dup2\n      mstore\n      0x20\n      add\n      dup1\n      data_9113bb53c2876a3805b2c9242029423fc540a728243ce887ab24c82cf119fba3\n      0x21\n      swap2\n      codecopy\n      0x40\n      add\n      swap2\n      pop\n      pop\n      mload(0x40)\n      dup1\n      swap2\n      sub\n      swap1\n      revert\n    tag_275:\n        /* \"staking/StakingRewardsDualFactory.sol\":4757:4758  c */\n      dup1\n        /* \"staking/StakingRewardsDualFactory.sol\":4750:4758  return c */\n      swap2\n      pop\n      pop\n        /* \"staking/StakingRewardsDualFactory.sol\":4307:4765  function mul(uint256 a, uint256 b) internal pure returns (uint256) {... */\n    tag_272:\n      swap3\n      swap2\n      pop\n      pop\n      jump\t// out\n        /* \"staking/StakingRewardsDualFactory.sol\":17880:18011  function _onlyOwner() private view {... */\n    tag_166:\n        /* \"staking/StakingRewardsDualFactory.sol\":17947:17952  owner */\n      0x00\n      dup1\n      swap1\n      sload\n      swap1\n      0x0100\n      exp\n      swap1\n      div\n      0xffffffffffffffffffffffffffffffffffffffff\n      and\n        /* \"staking/StakingRewardsDualFactory.sol\":17933:17952  msg.sender == owner */\n      0xffffffffffffffffffffffffffffffffffffffff\n      and\n        /* \"staking/StakingRewardsDualFactory.sol\":17933:17943  msg.sender */\n      caller\n        /* \"staking/StakingRewardsDualFactory.sol\":17933:17952  msg.sender == owner */\n      0xffffffffffffffffffffffffffffffffffffffff\n      and\n      eq\n        /* \"staking/StakingRewardsDualFactory.sol\":17925:18004  require(msg.sender == owner, \"Only the contract owner may perform this action\") */\n      tag_277\n      jumpi\n      mload(0x40)\n      0x08c379a000000000000000000000000000000000000000000000000000000000\n      dup2\n      mstore\n      0x04\n      add\n      dup1\n      dup1\n      0x20\n      add\n      dup3\n      dup2\n      sub\n      dup3\n      mstore\n      0x2f\n      dup2\n      mstore\n      0x20\n      add\n      dup1\n      data_873d2051b76e0142b287297afdfc273bf1ab5c24ee229ed4ef117f1ff0679a4a\n      0x2f\n      swap2\n      codecopy\n      0x40\n      add\n      swap2\n      pop\n      pop\n      mload(0x40)\n      dup1\n      swap2\n      sub\n      swap1\n      revert\n    tag_277:\n        /* \"staking/StakingRewardsDualFactory.sol\":17880:18011  function _onlyOwner() private view {... */\n      jump\t// out\n        /* \"staking/StakingRewardsDualFactory.sol\":11850:12024  function safeTransfer(IERC20 token, address to, uint256 value) internal {... */\n    tag_194:\n        /* \"staking/StakingRewardsDualFactory.sol\":11932:12017  callOptionalReturn(token, abi.encodeWithSelector(token.transfer.selector, to, value)) */\n      tag_279\n        /* \"staking/StakingRewardsDualFactory.sol\":11951:11956  token */\n      dup4\n        /* \"staking/StakingRewardsDualFactory.sol\":11981:11986  token */\n      dup5\n        /* \"staking/StakingRewardsDualFactory.sol\":11981:11995  token.transfer */\n      0xffffffffffffffffffffffffffffffffffffffff\n      and\n      0xa9059cbb\n        /* \"staking/StakingRewardsDualFactory.sol\":11981:12004  token.transfer.selector */\n      swap1\n      pop\n      0xe0\n      shl\n        /* \"staking/StakingRewardsDualFactory.sol\":12006:12008  to */\n      dup5\n        /* \"staking/StakingRewardsDualFactory.sol\":12010:12015  value */\n      dup5\n        /* \"staking/StakingRewardsDualFactory.sol\":11958:12016  abi.encodeWithSelector(token.transfer.selector, to, value) */\n      add(0x24, mload(0x40))\n      dup1\n      dup4\n      0xffffffffffffffffffffffffffffffffffffffff\n      and\n      0xffffffffffffffffffffffffffffffffffffffff\n      and\n      dup2\n      mstore\n      0x20\n      add\n      dup3\n      dup2\n      mstore\n      0x20\n      add\n      swap3\n      pop\n      pop\n      pop\n      mload(0x40)\n        /* \"--CODEGEN--\":49:53   */\n      0x20\n        /* \"--CODEGEN--\":39:46   */\n      dup2\n        /* \"--CODEGEN--\":30:37   */\n      dup4\n        /* \"--CODEGEN--\":26:47   */\n      sub\n        /* \"--CODEGEN--\":22:54   */\n      sub\n        /* \"--CODEGEN--\":13:20   */\n      dup2\n        /* \"--CODEGEN--\":6:55   */\n      mstore\n        /* \"staking/StakingRewardsDualFactory.sol\":11958:12016  abi.encodeWithSelector(token.transfer.selector, to, value) */\n      swap1\n      0x40\n      mstore\n      swap1\n      not(0xffffffffffffffffffffffffffffffffffffffffffffffffffffffff)\n      and\n        /* \"--CODEGEN--\":38:42   */\n      0x20\n        /* \"--CODEGEN--\":29:36   */\n      dup3\n        /* \"--CODEGEN--\":25:43   */\n      add\n        /* \"--CODEGEN--\":67:77   */\n      dup1\n        /* \"--CODEGEN--\":61:78   */\n      mload\n        /* \"--CODEGEN--\":96:154   */\n      0xffffffffffffffffffffffffffffffffffffffffffffffffffffffff\n        /* \"--CODEGEN--\":199:207   */\n      dup4\n        /* \"--CODEGEN--\":192:196   */\n      dup2\n        /* \"--CODEGEN--\":186:190   */\n      dup4\n        /* \"--CODEGEN--\":182:197   */\n      and\n        /* \"--CODEGEN--\":179:208   */\n      or\n        /* \"--CODEGEN--\":167:177   */\n      dup4\n        /* \"--CODEGEN--\":160:209   */\n      mstore\n        /* \"--CODEGEN--\":0:215   */\n      pop\n      pop\n      pop\n        /* \"staking/StakingRewardsDualFactory.sol\":11958:12016  abi.encodeWithSelector(token.transfer.selector, to, value) */\n      pop\n        /* \"staking/StakingRewardsDualFactory.sol\":11932:11950  callOptionalReturn */\n      tag_280\n        /* \"staking/StakingRewardsDualFactory.sol\":11932:12017  callOptionalReturn(token, abi.encodeWithSelector(token.transfer.selector, to, value)) */\n      jump\t// in\n    tag_279:\n        /* \"staking/StakingRewardsDualFactory.sol\":11850:12024  function safeTransfer(IERC20 token, address to, uint256 value) internal {... */\n      pop\n      pop\n      pop\n      jump\t// out\n        /* \"staking/StakingRewardsDualFactory.sol\":2227:2331  function min(uint256 a, uint256 b) internal pure returns (uint256) {... */\n    tag_230:\n        /* \"staking/StakingRewardsDualFactory.sol\":2285:2292  uint256 */\n      0x00\n        /* \"staking/StakingRewardsDualFactory.sol\":2315:2316  b */\n      dup2\n        /* \"staking/StakingRewardsDualFactory.sol\":2311:2312  a */\n      dup4\n        /* \"staking/StakingRewardsDualFactory.sol\":2311:2316  a < b */\n      lt\n        /* \"staking/StakingRewardsDualFactory.sol\":2311:2324  a < b ? a : b */\n      tag_282\n      jumpi\n        /* \"staking/StakingRewardsDualFactory.sol\":2323:2324  b */\n      dup2\n        /* \"staking/StakingRewardsDualFactory.sol\":2311:2324  a < b ? a : b */\n      jump(tag_283)\n    tag_282:\n        /* \"staking/StakingRewardsDualFactory.sol\":2319:2320  a */\n      dup3\n        /* \"staking/StakingRewardsDualFactory.sol\":2311:2324  a < b ? a : b */\n    tag_283:\n        /* \"staking/StakingRewardsDualFactory.sol\":2304:2324  return a < b ? a : b */\n      swap1\n      pop\n        /* \"staking/StakingRewardsDualFactory.sol\":2227:2331  function min(uint256 a, uint256 b) internal pure returns (uint256) {... */\n      swap3\n      swap2\n      pop\n      pop\n      jump\t// out\n        /* \"staking/StakingRewardsDualFactory.sol\":12030:12232  function safeTransferFrom(IERC20 token, address from, address to, uint256 value) internal {... */\n    tag_252:\n        /* \"staking/StakingRewardsDualFactory.sol\":12130:12225  callOptionalReturn(token, abi.encodeWithSelector(token.transferFrom.selector, from, to, value)) */\n      tag_285\n        /* \"staking/StakingRewardsDualFactory.sol\":12149:12154  token */\n      dup5\n        /* \"staking/StakingRewardsDualFactory.sol\":12179:12184  token */\n      dup6\n        /* \"staking/StakingRewardsDualFactory.sol\":12179:12197  token.transferFrom */\n      0xffffffffffffffffffffffffffffffffffffffff\n      and\n      0x23b872dd\n        /* \"staking/StakingRewardsDualFactory.sol\":12179:12206  token.transferFrom.selector */\n      swap1\n      pop\n      0xe0\n      shl\n        /* \"staking/StakingRewardsDualFactory.sol\":12208:12212  from */\n      dup6\n        /* \"staking/StakingRewardsDualFactory.sol\":12214:12216  to */\n      dup6\n        /* \"staking/StakingRewardsDualFactory.sol\":12218:12223  value */\n      dup6\n        /* \"staking/StakingRewardsDualFactory.sol\":12156:12224  abi.encodeWithSelector(token.transferFrom.selector, from, to, value) */\n      add(0x24, mload(0x40))\n      dup1\n      dup5\n      0xffffffffffffffffffffffffffffffffffffffff\n      and\n      0xffffffffffffffffffffffffffffffffffffffff\n      and\n      dup2\n      mstore\n      0x20\n      add\n      dup4\n      0xffffffffffffffffffffffffffffffffffffffff\n      and\n      0xffffffffffffffffffffffffffffffffffffffff\n      and\n      dup2\n      mstore\n      0x20\n      add\n      dup3\n      dup2\n      mstore\n      0x20\n      add\n      swap4\n      pop\n      pop\n      pop\n      pop\n      mload(0x40)\n        /* \"--CODEGEN--\":49:53   */\n      0x20\n        /* \"--CODEGEN--\":39:46   */\n      dup2\n        /* \"--CODEGEN--\":30:37   */\n      dup4\n        /* \"--CODEGEN--\":26:47   */\n      sub\n        /* \"--CODEGEN--\":22:54   */\n      sub\n        /* \"--CODEGEN--\":13:20   */\n      dup2\n        /* \"--CODEGEN--\":6:55   */\n      mstore\n        /* \"staking/StakingRewardsDualFactory.sol\":12156:12224  abi.encodeWithSelector(token.transferFrom.selector, from, to, value) */\n      swap1\n      0x40\n      mstore\n      swap1\n      not(0xffffffffffffffffffffffffffffffffffffffffffffffffffffffff)\n      and\n        /* \"--CODEGEN--\":38:42   */\n      0x20\n        /* \"--CODEGEN--\":29:36   */\n      dup3\n        /* \"--CODEGEN--\":25:43   */\n      add\n        /* \"--CODEGEN--\":67:77   */\n      dup1\n        /* \"--CODEGEN--\":61:78   */\n      mload\n        /* \"--CODEGEN--\":96:154   */\n      0xffffffffffffffffffffffffffffffffffffffffffffffffffffffff\n        /* \"--CODEGEN--\":199:207   */\n      dup4\n        /* \"--CODEGEN--\":192:196   */\n      dup2\n        /* \"--CODEGEN--\":186:190   */\n      dup4\n        /* \"--CODEGEN--\":182:197   */\n      and\n        /* \"--CODEGEN--\":179:208   */\n      or\n        /* \"--CODEGEN--\":167:177   */\n      dup4\n        /* \"--CODEGEN--\":160:209   */\n      mstore\n        /* \"--CODEGEN--\":0:215   */\n      pop\n      pop\n      pop\n        /* \"staking/StakingRewardsDualFactory.sol\":12156:12224  abi.encodeWithSelector(token.transferFrom.selector, from, to, value) */\n      pop\n        /* \"staking/StakingRewardsDualFactory.sol\":12130:12148  callOptionalReturn */\n      tag_280\n        /* \"staking/StakingRewardsDualFactory.sol\":12130:12225  callOptionalReturn(token, abi.encodeWithSelector(token.transferFrom.selector, from, to, value)) */\n      jump\t// in\n    tag_285:\n        /* \"staking/StakingRewardsDualFactory.sol\":12030:12232  function safeTransferFrom(IERC20 token, address from, address to, uint256 value) internal {... */\n      pop\n      pop\n      pop\n      pop\n      jump\t// out\n        /* \"staking/StakingRewardsDualFactory.sol\":13809:14904  function callOptionalReturn(IERC20 token, bytes memory data) private {... */\n    tag_280:\n        /* \"staking/StakingRewardsDualFactory.sol\":14404:14431  address(token).isContract() */\n      tag_287\n        /* \"staking/StakingRewardsDualFactory.sol\":14412:14417  token */\n      dup3\n        /* \"staking/StakingRewardsDualFactory.sol\":14404:14429  address(token).isContract */\n      0xffffffffffffffffffffffffffffffffffffffff\n      and\n      tag_288\n        /* \"staking/StakingRewardsDualFactory.sol\":14404:14431  address(token).isContract() */\n      jump\t// in\n    tag_287:\n        /* \"staking/StakingRewardsDualFactory.sol\":14396:14467  require(address(token).isContract(), \"SafeERC20: call to non-contract\") */\n      tag_289\n      jumpi\n      mload(0x40)\n      0x08c379a000000000000000000000000000000000000000000000000000000000\n      dup2\n      mstore\n      0x04\n      add\n      dup1\n      dup1\n      0x20\n      add\n      dup3\n      dup2\n      sub\n      dup3\n      mstore\n      0x1f\n      dup2\n      mstore\n      0x20\n      add\n      dup1\n      0x5361666545524332303a2063616c6c20746f206e6f6e2d636f6e747261637400\n      dup2\n      mstore\n      pop\n      0x20\n      add\n      swap2\n      pop\n      pop\n      mload(0x40)\n      dup1\n      swap2\n      sub\n      swap1\n      revert\n    tag_289:\n        /* \"staking/StakingRewardsDualFactory.sol\":14538:14550  bool success */\n      0x00\n        /* \"staking/StakingRewardsDualFactory.sol\":14552:14575  bytes memory returndata */\n      0x60\n        /* \"staking/StakingRewardsDualFactory.sol\":14587:14592  token */\n      dup4\n        /* \"staking/StakingRewardsDualFactory.sol\":14579:14598  address(token).call */\n      0xffffffffffffffffffffffffffffffffffffffff\n      and\n        /* \"staking/StakingRewardsDualFactory.sol\":14599:14603  data */\n      dup4\n        /* \"staking/StakingRewardsDualFactory.sol\":14579:14604  address(token).call(data) */\n      mload(0x40)\n      dup1\n      dup3\n      dup1\n      mload\n      swap1\n      0x20\n      add\n      swap1\n      dup1\n      dup4\n      dup4\n        /* \"--CODEGEN--\":36:189   */\n    tag_290:\n        /* \"--CODEGEN--\":66:68   */\n      0x20\n        /* \"--CODEGEN--\":61:64   */\n      dup4\n        /* \"--CODEGEN--\":58:69   */\n      lt\n        /* \"--CODEGEN--\":36:189   */\n      tag_292\n      jumpi\n        /* \"--CODEGEN--\":182:185   */\n      dup1\n        /* \"--CODEGEN--\":176:186   */\n      mload\n        /* \"--CODEGEN--\":171:174   */\n      dup3\n        /* \"--CODEGEN--\":164:187   */\n      mstore\n        /* \"--CODEGEN--\":98:100   */\n      0x20\n        /* \"--CODEGEN--\":93:96   */\n      dup3\n        /* \"--CODEGEN--\":89:101   */\n      add\n        /* \"--CODEGEN--\":82:101   */\n      swap2\n      pop\n        /* \"--CODEGEN--\":123:125   */\n      0x20\n        /* \"--CODEGEN--\":118:121   */\n      dup2\n        /* \"--CODEGEN--\":114:126   */\n      add\n        /* \"--CODEGEN--\":107:126   */\n      swap1\n      pop\n        /* \"--CODEGEN--\":148:150   */\n      0x20\n        /* \"--CODEGEN--\":143:146   */\n      dup4\n        /* \"--CODEGEN--\":139:151   */\n      sub\n        /* \"--CODEGEN--\":132:151   */\n      swap3\n      pop\n        /* \"--CODEGEN--\":36:189   */\n      jump(tag_290)\n    tag_292:\n        /* \"--CODEGEN--\":274:275   */\n      0x01\n        /* \"--CODEGEN--\":267:270   */\n      dup4\n        /* \"--CODEGEN--\":263:265   */\n      0x20\n        /* \"--CODEGEN--\":259:271   */\n      sub\n        /* \"--CODEGEN--\":254:257   */\n      0x0100\n        /* \"--CODEGEN--\":250:272   */\n      exp\n        /* \"--CODEGEN--\":246:276   */\n      sub\n        /* \"--CODEGEN--\":315:319   */\n      dup1\n        /* \"--CODEGEN--\":311:320   */\n      not\n        /* \"--CODEGEN--\":305:308   */\n      dup3\n        /* \"--CODEGEN--\":299:309   */\n      mload\n        /* \"--CODEGEN--\":295:321   */\n      and\n        /* \"--CODEGEN--\":356:360   */\n      dup2\n        /* \"--CODEGEN--\":350:353   */\n      dup5\n        /* \"--CODEGEN--\":344:354   */\n      mload\n        /* \"--CODEGEN--\":340:361   */\n      and\n        /* \"--CODEGEN--\":389:396   */\n      dup1\n        /* \"--CODEGEN--\":380:387   */\n      dup3\n        /* \"--CODEGEN--\":377:397   */\n      or\n        /* \"--CODEGEN--\":372:375   */\n      dup6\n        /* \"--CODEGEN--\":365:398   */\n      mstore\n        /* \"--CODEGEN--\":3:402   */\n      pop\n      pop\n      pop\n        /* \"staking/StakingRewardsDualFactory.sol\":14579:14604  address(token).call(data) */\n      pop\n      pop\n      pop\n      swap1\n      pop\n      add\n      swap2\n      pop\n      pop\n      0x00\n      mload(0x40)\n      dup1\n      dup4\n      sub\n      dup2\n      0x00\n      dup7\n      gas\n      call\n      swap2\n      pop\n      pop\n      returndatasize\n        /* \"--CODEGEN--\":14:15   */\n      dup1\n        /* \"--CODEGEN--\":21:22   */\n      0x00\n        /* \"--CODEGEN--\":16:47   */\n      dup2\n      eq\n      tag_294\n      jumpi\n        /* \"--CODEGEN--\":75:79   */\n      0x40\n        /* \"--CODEGEN--\":69:80   */\n      mload\n        /* \"--CODEGEN--\":64:80   */\n      swap2\n      pop\n        /* \"--CODEGEN--\":144:148   */\n      0x1f\n        /* \"--CODEGEN--\":140:149   */\n      not\n        /* \"--CODEGEN--\":133:137   */\n      0x3f\n        /* \"--CODEGEN--\":115:131   */\n      returndatasize\n        /* \"--CODEGEN--\":111:138   */\n      add\n        /* \"--CODEGEN--\":107:150   */\n      and\n        /* \"--CODEGEN--\":104:105   */\n      dup3\n        /* \"--CODEGEN--\":100:151   */\n      add\n        /* \"--CODEGEN--\":94:98   */\n      0x40\n        /* \"--CODEGEN--\":87:152   */\n      mstore\n        /* \"--CODEGEN--\":169:185   */\n      returndatasize\n        /* \"--CODEGEN--\":166:167   */\n      dup3\n        /* \"--CODEGEN--\":159:186   */\n      mstore\n        /* \"--CODEGEN--\":225:241   */\n      returndatasize\n        /* \"--CODEGEN--\":222:223   */\n      0x00\n        /* \"--CODEGEN--\":215:219   */\n      0x20\n        /* \"--CODEGEN--\":212:213   */\n      dup5\n        /* \"--CODEGEN--\":208:220   */\n      add\n        /* \"--CODEGEN--\":193:242   */\n      returndatacopy\n        /* \"--CODEGEN--\":7:249   */\n      jump(tag_293)\n        /* \"--CODEGEN--\":16:47   */\n    tag_294:\n        /* \"--CODEGEN--\":36:40   */\n      0x60\n        /* \"--CODEGEN--\":31:40   */\n      swap2\n      pop\n        /* \"--CODEGEN--\":7:249   */\n    tag_293:\n      pop\n        /* \"staking/StakingRewardsDualFactory.sol\":14537:14604  (bool success, bytes memory returndata) = address(token).call(data) */\n      swap2\n      pop\n      swap2\n      pop\n        /* \"staking/StakingRewardsDualFactory.sol\":14622:14629  success */\n      dup2\n        /* \"staking/StakingRewardsDualFactory.sol\":14614:14666  require(success, \"SafeERC20: low-level call failed\") */\n      tag_295\n      jumpi\n      mload(0x40)\n      0x08c379a000000000000000000000000000000000000000000000000000000000\n      dup2\n      mstore\n      0x04\n      add\n      dup1\n      dup1\n      0x20\n      add\n      dup3\n      dup2\n      sub\n      dup3\n      mstore\n      0x20\n      dup2\n      mstore\n      0x20\n      add\n      dup1\n      0x5361666545524332303a206c6f772d6c6576656c2063616c6c206661696c6564\n      dup2\n      mstore\n      pop\n      0x20\n      add\n      swap2\n      pop\n      pop\n      mload(0x40)\n      dup1\n      swap2\n      sub\n      swap1\n      revert\n    tag_295:\n        /* \"staking/StakingRewardsDualFactory.sol\":14701:14702  0 */\n      0x00\n        /* \"staking/StakingRewardsDualFactory.sol\":14681:14691  returndata */\n      dup2\n        /* \"staking/StakingRewardsDualFactory.sol\":14681:14698  returndata.length */\n      mload\n        /* \"staking/StakingRewardsDualFactory.sol\":14681:14702  returndata.length > 0 */\n      gt\n        /* \"staking/StakingRewardsDualFactory.sol\":14677:14898  if (returndata.length > 0) { // Return data is optional... */\n      iszero\n      tag_296\n      jumpi\n        /* \"staking/StakingRewardsDualFactory.sol\":14821:14831  returndata */\n      dup1\n        /* \"staking/StakingRewardsDualFactory.sol\":14810:14840  abi.decode(returndata, (bool)) */\n      dup1\n      0x20\n      add\n      swap1\n      mload\n        /* \"--CODEGEN--\":13:15   */\n      0x20\n        /* \"--CODEGEN--\":8:11   */\n      dup2\n        /* \"--CODEGEN--\":5:16   */\n      lt\n        /* \"--CODEGEN--\":2:4   */\n      iszero\n      tag_297\n      jumpi\n        /* \"--CODEGEN--\":29:30   */\n      0x00\n        /* \"--CODEGEN--\":26:27   */\n      dup1\n        /* \"--CODEGEN--\":19:31   */\n      revert\n        /* \"--CODEGEN--\":2:4   */\n    tag_297:\n        /* \"staking/StakingRewardsDualFactory.sol\":14810:14840  abi.decode(returndata, (bool)) */\n      dup2\n      add\n      swap1\n      dup1\n      dup1\n      mload\n      swap1\n      0x20\n      add\n      swap1\n      swap3\n      swap2\n      swap1\n      pop\n      pop\n      pop\n        /* \"staking/StakingRewardsDualFactory.sol\":14802:14887  require(abi.decode(returndata, (bool)), \"SafeERC20: ERC20 operation did not succeed\") */\n      tag_298\n      jumpi\n      mload(0x40)\n      0x08c379a000000000000000000000000000000000000000000000000000000000\n      dup2\n      mstore\n      0x04\n      add\n      dup1\n      dup1\n      0x20\n      add\n      dup3\n      dup2\n      sub\n      dup3\n      mstore\n      0x2a\n      dup2\n      mstore\n      0x20\n      add\n      dup1\n      data_e11ad79d1e4a7f2e5f376964cb99e8e8f7904e3fc16a109f7a7ecb9aa7956dcd\n      0x2a\n      swap2\n      codecopy\n      0x40\n      add\n      swap2\n      pop\n      pop\n      mload(0x40)\n      dup1\n      swap2\n      sub\n      swap1\n      revert\n    tag_298:\n        /* \"staking/StakingRewardsDualFactory.sol\":14677:14898  if (returndata.length > 0) { // Return data is optional... */\n    tag_296:\n        /* \"staking/StakingRewardsDualFactory.sol\":13809:14904  function callOptionalReturn(IERC20 token, bytes memory data) private {... */\n      pop\n      pop\n      pop\n      pop\n      jump\t// out\n        /* \"staking/StakingRewardsDualFactory.sol\":10887:11300  function isContract(address account) internal view returns (bool) {... */\n    tag_288:\n        /* \"staking/StakingRewardsDualFactory.sol\":10947:10951  bool */\n      0x00\n        /* \"staking/StakingRewardsDualFactory.sol\":11150:11162  uint256 size */\n      dup1\n        /* \"staking/StakingRewardsDualFactory.sol\":11259:11266  account */\n      dup3\n        /* \"staking/StakingRewardsDualFactory.sol\":11247:11267  extcodesize(account) */\n      extcodesize\n        /* \"staking/StakingRewardsDualFactory.sol\":11239:11267  size := extcodesize(account) */\n      swap1\n      pop\n        /* \"staking/StakingRewardsDualFactory.sol\":11292:11293  0 */\n      0x00\n        /* \"staking/StakingRewardsDualFactory.sol\":11285:11289  size */\n      dup2\n        /* \"staking/StakingRewardsDualFactory.sol\":11285:11293  size > 0 */\n      gt\n        /* \"staking/StakingRewardsDualFactory.sol\":11278:11293  return size > 0 */\n      swap2\n      pop\n      pop\n        /* \"staking/StakingRewardsDualFactory.sol\":10887:11300  function isContract(address account) internal view returns (bool) {... */\n      swap2\n      swap1\n      pop\n      jump\t// out\n    stop\n    data_1149e36cd24095bebc9341ef03810e0e2a00039190624df6f2d7934141e2233b 596f75206d757374206265206e6f6d696e61746564206265666f726520796f752063616e20616363657074206f776e657273686970\n    data_873d2051b76e0142b287297afdfc273bf1ab5c24ee229ed4ef117f1ff0679a4a 4f6e6c792074686520636f6e7472616374206f776e6572206d617920706572666f726d207468697320616374696f6e\n    data_9113bb53c2876a3805b2c9242029423fc540a728243ce887ab24c82cf119fba3 536166654d6174683a206d756c7469706c69636174696f6e206f766572666c6f77\n    data_b214273cdb244871f55e1966d43ad7febce81860c609dda0e226c7c1b7959d6f 5468697320616374696f6e2063616e6e6f7420626520706572666f726d6564207768696c652074686520636f6e747261637420697320706175736564\n    data_d0a4b9d39046169b5d3a6add3d2c6fbd461c7a23943052d17fea7bf37fec189b 43616c6c6572206973206e6f74204475616c52657761726473446973747269627574696f6e20636f6e7472616374\n    data_e11ad79d1e4a7f2e5f376964cb99e8e8f7904e3fc16a109f7a7ecb9aa7956dcd 5361666545524332303a204552433230206f7065726174696f6e20646964206e6f742073756363656564\n    data_f43de9f2a3539b2ac9cf1844588e9cc0acd1b2bdb1ec43734f76440993ede0a9 43616e6e6f7420776974686472617720746865207374616b696e6720746f6b656e\n\n    auxdata: 0xa265627a7a72315820d7a26dec729452026ff8d2e8760293d513aefa98d9d63edc8c37325096ba50d464736f6c63430005100032\n}\n",
				"bytecode": {
					"linkReferences": {},
					"object": "6080604052600060085560006009556000600a553480156200002057600080fd5b506040516200359538038062003595833981810160405260a08110156200004657600080fd5b81019080805190602001909291908051906020019092919080519060200190929190805190602001909291908051906020019092919050505084600073ffffffffffffffffffffffffffffffffffffffff168173ffffffffffffffffffffffffffffffffffffffff16141562000124576040517f08c379a00000000000000000000000000000000000000000000000000000000081526004018080602001828103825260198152602001807f4f776e657220616464726573732063616e6e6f7420626520300000000000000081525060200191505060405180910390fd5b806000806101000a81548173ffffffffffffffffffffffffffffffffffffffff021916908373ffffffffffffffffffffffffffffffffffffffff1602179055507fb532073b38c83145e3e5135377a08bf9aab55bc0fd7c1179cd4fb995d2a5159c600082604051808373ffffffffffffffffffffffffffffffffffffffff1673ffffffffffffffffffffffffffffffffffffffff1681526020018273ffffffffffffffffffffffffffffffffffffffff1673ffffffffffffffffffffffffffffffffffffffff1681526020019250505060405180910390a1506001600381905550600073ffffffffffffffffffffffffffffffffffffffff166000809054906101000a900473ffffffffffffffffffffffffffffffffffffffff1673ffffffffffffffffffffffffffffffffffffffff161415620002ca576040517f08c379a00000000000000000000000000000000000000000000000000000000081526004018080602001828103825260118152602001807f4f776e6572206d7573742062652073657400000000000000000000000000000081525060200191505060405180910390fd5b8173ffffffffffffffffffffffffffffffffffffffff168373ffffffffffffffffffffffffffffffffffffffff16141562000351576040517f08c379a0000000000000000000000000000000000000000000000000000000008152600401808060200182810382526022815260200180620035736022913960400191505060405180910390fd5b82600560016101000a81548173ffffffffffffffffffffffffffffffffffffffff021916908373ffffffffffffffffffffffffffffffffffffffff16021790555081600660006101000a81548173ffffffffffffffffffffffffffffffffffffffff021916908373ffffffffffffffffffffffffffffffffffffffff16021790555080600760006101000a81548173ffffffffffffffffffffffffffffffffffffffff021916908373ffffffffffffffffffffffffffffffffffffffff16021790555083600260006101000a81548173ffffffffffffffffffffffffffffffffffffffff021916908373ffffffffffffffffffffffffffffffffffffffff1602179055505050505050613109806200046a6000396000f3fe608060405234801561001057600080fd5b50600436106102065760003560e01c806370a082311161011a578063a694fc3a116100ad578063e9fad8ee1161007c578063e9fad8ee1461086b578063ebe2b12b14610875578063efa1c63c14610893578063f5630550146108b1578063ff510b06146108cf57610206565b8063a694fc3a146107a9578063a85594ad146107d7578063b95f0079146107f5578063c8f33c911461084d57610206565b806388c4c666116100e957806388c4c666146106a95780638980f11f146106f35780638da5cb5b1461074157806391b4ded91461078b57610206565b806370a08231146105df57806372f702f31461063757806379ba50971461068157806380faa57d1461068b57610206565b806334584d3a1161019d57806353a47bb71161016c57806353a47bb7146104b35780635c975abb146104fd5780635fd1020c1461051f57806360fb36261461056957806368213329146105c157610206565b806334584d3a146103db5780633d18b912146104335780634ea4618b1461043d578063513c508a1461049557610206565b80631820d739116101d95780631820d739146102df578063255cfca314610337578063266a74ca146103555780632e1a7d4d146103ad57610206565b806306e328201461020b5780631627540c1461024d57806316c38b3c1461029157806318160ddd146102c1575b600080fd5b61024b6004803603606081101561022157600080fd5b81019080803590602001909291908035906020019092919080359060200190929190505050610919565b005b61028f6004803603602081101561026357600080fd5b81019080803573ffffffffffffffffffffffffffffffffffffffff169060200190929190505050611029565b005b6102bf600480360360208110156102a757600080fd5b810190808035151590602001909291905050506110d8565b005b6102c9611185565b6040518082815260200191505060405180910390f35b610321600480360360208110156102f557600080fd5b81019080803573ffffffffffffffffffffffffffffffffffffffff16906020019092919050505061118f565b6040518082815260200191505060405180910390f35b61033f6112ad565b6040518082815260200191505060405180910390f35b6103976004803603602081101561036b57600080fd5b81019080803573ffffffffffffffffffffffffffffffffffffffff1690602001909291905050506112b3565b6040518082815260200191505060405180910390f35b6103d9600480360360208110156103c357600080fd5b81019080803590602001909291905050506112cb565b005b61041d600480360360208110156103f157600080fd5b81019080803573ffffffffffffffffffffffffffffffffffffffff1690602001909291905050506116d9565b6040518082815260200191505060405180910390f35b61043b6116f1565b005b61047f6004803603602081101561045357600080fd5b81019080803573ffffffffffffffffffffffffffffffffffffffff169060200190929190505050611c47565b6040518082815260200191505060405180910390f35b61049d611c5f565b6040518082815260200191505060405180910390f35b6104bb611c65565b604051808273ffffffffffffffffffffffffffffffffffffffff1673ffffffffffffffffffffffffffffffffffffffff16815260200191505060405180910390f35b610505611c8b565b604051808215151515815260200191505060405180910390f35b610527611c9e565b604051808273ffffffffffffffffffffffffffffffffffffffff1673ffffffffffffffffffffffffffffffffffffffff16815260200191505060405180910390f35b6105ab6004803603602081101561057f57600080fd5b81019080803573ffffffffffffffffffffffffffffffffffffffff169060200190929190505050611cc4565b6040518082815260200191505060405180910390f35b6105c9611de2565b6040518082815260200191505060405180910390f35b610621600480360360208110156105f557600080fd5b81019080803573ffffffffffffffffffffffffffffffffffffffff169060200190929190505050611e70565b6040518082815260200191505060405180910390f35b61063f611eb9565b604051808273ffffffffffffffffffffffffffffffffffffffff1673ffffffffffffffffffffffffffffffffffffffff16815260200191505060405180910390f35b610689611edf565b005b610693612105565b6040518082815260200191505060405180910390f35b6106b1612118565b604051808273ffffffffffffffffffffffffffffffffffffffff1673ffffffffffffffffffffffffffffffffffffffff16815260200191505060405180910390f35b61073f6004803603604081101561070957600080fd5b81019080803573ffffffffffffffffffffffffffffffffffffffff1690602001909291908035906020019092919050505061213e565b005b6107496122a8565b604051808273ffffffffffffffffffffffffffffffffffffffff1673ffffffffffffffffffffffffffffffffffffffff16815260200191505060405180910390f35b6107936122cd565b6040518082815260200191505060405180910390f35b6107d5600480360360208110156107bf57600080fd5b81019080803590602001909291905050506122d3565b005b6107df612749565b6040518082815260200191505060405180910390f35b6108376004803603602081101561080b57600080fd5b81019080803573ffffffffffffffffffffffffffffffffffffffff1690602001909291905050506127d7565b6040518082815260200191505060405180910390f35b6108556127ef565b6040518082815260200191505060405180910390f35b6108736127f5565b005b61087d612847565b6040518082815260200191505060405180910390f35b61089b61284d565b6040518082815260200191505060405180910390f35b6108b9612853565b6040518082815260200191505060405180910390f35b6108d7612859565b604051808273ffffffffffffffffffffffffffffffffffffffff1673ffffffffffffffffffffffffffffffffffffffff16815260200191505060405180910390f35b600260009054906101000a900473ffffffffffffffffffffffffffffffffffffffff1673ffffffffffffffffffffffffffffffffffffffff163373ffffffffffffffffffffffffffffffffffffffff16146109bf576040517f08c379a000000000000000000000000000000000000000000000000000000000815260040180806020018281038252602e81526020018061305c602e913960400191505060405180910390fd5b60006109c9612749565b600c819055506109d7611de2565b600d819055506109e5612105565b600b81905550600073ffffffffffffffffffffffffffffffffffffffff168173ffffffffffffffffffffffffffffffffffffffff1614610ab257610a288161118f565b601060008373ffffffffffffffffffffffffffffffffffffffff1673ffffffffffffffffffffffffffffffffffffffff16815260200190815260200160002081905550600c54600e60008373ffffffffffffffffffffffffffffffffffffffff1673ffffffffffffffffffffffffffffffffffffffff168152602001908152602001600020819055505b600073ffffffffffffffffffffffffffffffffffffffff168173ffffffffffffffffffffffffffffffffffffffff1614610b7957610aef81611cc4565b601160008373ffffffffffffffffffffffffffffffffffffffff1673ffffffffffffffffffffffffffffffffffffffff16815260200190815260200160002081905550600d54600f60008373ffffffffffffffffffffffffffffffffffffffff1673ffffffffffffffffffffffffffffffffffffffff168152602001908152602001600020819055505b600854610b8f834261287f90919063ffffffff16565b1015610c03576040517f08c379a000000000000000000000000000000000000000000000000000000000815260040180806020018281038252601d8152602001807f43616e6e6f7420726564756365206578697374696e6720706572696f6400000081525060200191505060405180910390fd5b6008544210610c4357610c1f828561290790919063ffffffff16565b600981905550610c38828461290790919063ffffffff16565b600a81905550610ce8565b6000610c5a4260085461299690919063ffffffff16565b90506000610c7360095483612a1f90919063ffffffff16565b9050610c9a84610c8c838961287f90919063ffffffff16565b61290790919063ffffffff16565b6009819055506000610cb7600a5484612a1f90919063ffffffff16565b9050610cde85610cd0838961287f90919063ffffffff16565b61290790919063ffffffff16565b600a819055505050505b6000600560019054906101000a900473ffffffffffffffffffffffffffffffffffffffff1673ffffffffffffffffffffffffffffffffffffffff166370a08231306040518263ffffffff1660e01b8152600401808273ffffffffffffffffffffffffffffffffffffffff1673ffffffffffffffffffffffffffffffffffffffff16815260200191505060206040518083038186803b158015610d8957600080fd5b505afa158015610d9d573d6000803e3d6000fd5b505050506040513d6020811015610db357600080fd5b81019080805190602001909291905050509050610dd9838261290790919063ffffffff16565b6009541115610e50576040517f08c379a000000000000000000000000000000000000000000000000000000000815260040180806020018281038252601a8152602001807f50726f7669646564207265776172642d4120746f6f206869676800000000000081525060200191505060405180910390fd5b6000600660009054906101000a900473ffffffffffffffffffffffffffffffffffffffff1673ffffffffffffffffffffffffffffffffffffffff166370a08231306040518263ffffffff1660e01b8152600401808273ffffffffffffffffffffffffffffffffffffffff1673ffffffffffffffffffffffffffffffffffffffff16815260200191505060206040518083038186803b158015610ef157600080fd5b505afa158015610f05573d6000803e3d6000fd5b505050506040513d6020811015610f1b57600080fd5b81019080805190602001909291905050509050610f41848261290790919063ffffffff16565b600a541115610fb8576040517f08c379a000000000000000000000000000000000000000000000000000000000815260040180806020018281038252601a8152602001807f50726f7669646564207265776172642d4220746f6f206869676800000000000081525060200191505060405180910390fd5b42600b81905550610fd2844261287f90919063ffffffff16565b6008819055507f9795f222c951ae3e749f872dbe287f78d21fa52353e9175cb20ed3aa2b29b82b868660085460405180848152602001838152602001828152602001935050505060405180910390a1505050505050565b611031612aa5565b80600160006101000a81548173ffffffffffffffffffffffffffffffffffffffff021916908373ffffffffffffffffffffffffffffffffffffffff1602179055507f906a1c6bd7e3091ea86693dd029a831c19049ce77f1dce2ce0bab1cacbabce2281604051808273ffffffffffffffffffffffffffffffffffffffff1673ffffffffffffffffffffffffffffffffffffffff16815260200191505060405180910390a150565b6110e0612aa5565b600560009054906101000a900460ff161515811515141561110057611182565b80600560006101000a81548160ff021916908315150217905550600560009054906101000a900460ff161561113757426004819055505b7f8fb6c181ee25a520cf3dd6565006ef91229fcfe5a989566c2a3b8c115570cec5600560009054906101000a900460ff16604051808215151515815260200191505060405180910390a15b50565b6000601254905090565b60006112a6601060008473ffffffffffffffffffffffffffffffffffffffff1673ffffffffffffffffffffffffffffffffffffffff16815260200190815260200160002054611298670de0b6b3a764000061128a61123c600e60008973ffffffffffffffffffffffffffffffffffffffff1673ffffffffffffffffffffffffffffffffffffffff1681526020019081526020016000205461122e612749565b61299690919063ffffffff16565b601360008973ffffffffffffffffffffffffffffffffffffffff1673ffffffffffffffffffffffffffffffffffffffff16815260200190815260200160002054612a1f90919063ffffffff16565b61290790919063ffffffff16565b61287f90919063ffffffff16565b9050919050565b60095481565b60106020528060005260406000206000915090505481565b600160036000828254019250508190555060006003549050336112ec612749565b600c819055506112fa611de2565b600d81905550611308612105565b600b81905550600073ffffffffffffffffffffffffffffffffffffffff168173ffffffffffffffffffffffffffffffffffffffff16146113d55761134b8161118f565b601060008373ffffffffffffffffffffffffffffffffffffffff1673ffffffffffffffffffffffffffffffffffffffff16815260200190815260200160002081905550600c54600e60008373ffffffffffffffffffffffffffffffffffffffff1673ffffffffffffffffffffffffffffffffffffffff168152602001908152602001600020819055505b600073ffffffffffffffffffffffffffffffffffffffff168173ffffffffffffffffffffffffffffffffffffffff161461149c5761141281611cc4565b601160008373ffffffffffffffffffffffffffffffffffffffff1673ffffffffffffffffffffffffffffffffffffffff16815260200190815260200160002081905550600d54600f60008373ffffffffffffffffffffffffffffffffffffffff1673ffffffffffffffffffffffffffffffffffffffff168152602001908152602001600020819055505b60008311611512576040517f08c379a00000000000000000000000000000000000000000000000000000000081526004018080602001828103825260118152602001807f43616e6e6f74207769746864726177203000000000000000000000000000000081525060200191505060405180910390fd5b6115278360125461299690919063ffffffff16565b60128190555061157f83601360003373ffffffffffffffffffffffffffffffffffffffff1673ffffffffffffffffffffffffffffffffffffffff1681526020019081526020016000205461299690919063ffffffff16565b601360003373ffffffffffffffffffffffffffffffffffffffff1673ffffffffffffffffffffffffffffffffffffffff1681526020019081526020016000208190555061160f3384600760009054906101000a900473ffffffffffffffffffffffffffffffffffffffff1673ffffffffffffffffffffffffffffffffffffffff16612b4c9092919063ffffffff16565b3373ffffffffffffffffffffffffffffffffffffffff167f7084f5476618d8e60b11ef0d7d3f06914655adb8793e28ff7f018d4c76d505d5846040518082815260200191505060405180910390a25060035481146116d5576040517f08c379a000000000000000000000000000000000000000000000000000000000815260040180806020018281038252601f8152602001807f5265656e7472616e637947756172643a207265656e7472616e742063616c6c0081525060200191505060405180910390fd5b5050565b600f6020528060005260406000206000915090505481565b60016003600082825401925050819055506000600354905033611712612749565b600c81905550611720611de2565b600d8190555061172e612105565b600b81905550600073ffffffffffffffffffffffffffffffffffffffff168173ffffffffffffffffffffffffffffffffffffffff16146117fb576117718161118f565b601060008373ffffffffffffffffffffffffffffffffffffffff1673ffffffffffffffffffffffffffffffffffffffff16815260200190815260200160002081905550600c54600e60008373ffffffffffffffffffffffffffffffffffffffff1673ffffffffffffffffffffffffffffffffffffffff168152602001908152602001600020819055505b600073ffffffffffffffffffffffffffffffffffffffff168173ffffffffffffffffffffffffffffffffffffffff16146118c25761183881611cc4565b601160008373ffffffffffffffffffffffffffffffffffffffff1673ffffffffffffffffffffffffffffffffffffffff16815260200190815260200160002081905550600d54600f60008373ffffffffffffffffffffffffffffffffffffffff1673ffffffffffffffffffffffffffffffffffffffff168152602001908152602001600020819055505b6000601060003373ffffffffffffffffffffffffffffffffffffffff1673ffffffffffffffffffffffffffffffffffffffff1681526020019081526020016000205490506000811115611a46576000601060003373ffffffffffffffffffffffffffffffffffffffff1673ffffffffffffffffffffffffffffffffffffffff168152602001908152602001600020819055506119a13382600560019054906101000a900473ffffffffffffffffffffffffffffffffffffffff1673ffffffffffffffffffffffffffffffffffffffff16612b4c9092919063ffffffff16565b3373ffffffffffffffffffffffffffffffffffffffff167f540798df468d7b23d11f156fdb954cb19ad414d150722a7b6d55ba369dea792e600560019054906101000a900473ffffffffffffffffffffffffffffffffffffffff1683604051808373ffffffffffffffffffffffffffffffffffffffff1673ffffffffffffffffffffffffffffffffffffffff1681526020018281526020019250505060405180910390a25b6000601160003373ffffffffffffffffffffffffffffffffffffffff1673ffffffffffffffffffffffffffffffffffffffff1681526020019081526020016000205490506000811115611bca576000601160003373ffffffffffffffffffffffffffffffffffffffff1673ffffffffffffffffffffffffffffffffffffffff16815260200190815260200160002081905550611b253382600660009054906101000a900473ffffffffffffffffffffffffffffffffffffffff1673ffffffffffffffffffffffffffffffffffffffff16612b4c9092919063ffffffff16565b3373ffffffffffffffffffffffffffffffffffffffff167f540798df468d7b23d11f156fdb954cb19ad414d150722a7b6d55ba369dea792e600660009054906101000a900473ffffffffffffffffffffffffffffffffffffffff1683604051808373ffffffffffffffffffffffffffffffffffffffff1673ffffffffffffffffffffffffffffffffffffffff1681526020018281526020019250505060405180910390a25b5050506003548114611c44576040517f08c379a000000000000000000000000000000000000000000000000000000000815260040180806020018281038252601f8152602001807f5265656e7472616e637947756172643a207265656e7472616e742063616c6c0081525060200191505060405180910390fd5b50565b600e6020528060005260406000206000915090505481565b600d5481565b600160009054906101000a900473ffffffffffffffffffffffffffffffffffffffff1681565b600560009054906101000a900460ff1681565b600560019054906101000a900473ffffffffffffffffffffffffffffffffffffffff1681565b6000611ddb601160008473ffffffffffffffffffffffffffffffffffffffff1673ffffffffffffffffffffffffffffffffffffffff16815260200190815260200160002054611dcd670de0b6b3a7640000611dbf611d71600f60008973ffffffffffffffffffffffffffffffffffffffff1673ffffffffffffffffffffffffffffffffffffffff16815260200190815260200160002054611d63611de2565b61299690919063ffffffff16565b601360008973ffffffffffffffffffffffffffffffffffffffff1673ffffffffffffffffffffffffffffffffffffffff16815260200190815260200160002054612a1f90919063ffffffff16565b61290790919063ffffffff16565b61287f90919063ffffffff16565b9050919050565b6000806012541415611df857600d549050611e6d565b611e6a611e59601254611e4b670de0b6b3a7640000611e3d600a54611e2f600b54611e21612105565b61299690919063ffffffff16565b612a1f90919063ffffffff16565b612a1f90919063ffffffff16565b61290790919063ffffffff16565b600d5461287f90919063ffffffff16565b90505b90565b6000601360008373ffffffffffffffffffffffffffffffffffffffff1673ffffffffffffffffffffffffffffffffffffffff168152602001908152602001600020549050919050565b600760009054906101000a900473ffffffffffffffffffffffffffffffffffffffff1681565b600160009054906101000a900473ffffffffffffffffffffffffffffffffffffffff1673ffffffffffffffffffffffffffffffffffffffff163373ffffffffffffffffffffffffffffffffffffffff1614611f85576040517f08c379a0000000000000000000000000000000000000000000000000000000008152600401808060200182810382526035815260200180612f9b6035913960400191505060405180910390fd5b7fb532073b38c83145e3e5135377a08bf9aab55bc0fd7c1179cd4fb995d2a5159c6000809054906101000a900473ffffffffffffffffffffffffffffffffffffffff16600160009054906101000a900473ffffffffffffffffffffffffffffffffffffffff16604051808373ffffffffffffffffffffffffffffffffffffffff1673ffffffffffffffffffffffffffffffffffffffff1681526020018273ffffffffffffffffffffffffffffffffffffffff1673ffffffffffffffffffffffffffffffffffffffff1681526020019250505060405180910390a1600160009054906101000a900473ffffffffffffffffffffffffffffffffffffffff166000806101000a81548173ffffffffffffffffffffffffffffffffffffffff021916908373ffffffffffffffffffffffffffffffffffffffff1602179055506000600160006101000a81548173ffffffffffffffffffffffffffffffffffffffff021916908373ffffffffffffffffffffffffffffffffffffffff160217905550565b600061211342600854612c1d565b905090565b600660009054906101000a900473ffffffffffffffffffffffffffffffffffffffff1681565b612146612aa5565b600760009054906101000a900473ffffffffffffffffffffffffffffffffffffffff1673ffffffffffffffffffffffffffffffffffffffff168273ffffffffffffffffffffffffffffffffffffffff1614156121ed576040517f08c379a00000000000000000000000000000000000000000000000000000000081526004018080602001828103825260218152602001806130b46021913960400191505060405180910390fd5b6122396000809054906101000a900473ffffffffffffffffffffffffffffffffffffffff16828473ffffffffffffffffffffffffffffffffffffffff16612b4c9092919063ffffffff16565b7f8c1256b8896378cd5044f80c202f9772b9d77dc85c8a6eb51967210b09bfaa288282604051808373ffffffffffffffffffffffffffffffffffffffff1673ffffffffffffffffffffffffffffffffffffffff1681526020018281526020019250505060405180910390a15050565b6000809054906101000a900473ffffffffffffffffffffffffffffffffffffffff1681565b60045481565b600160036000828254019250508190555060006003549050600560009054906101000a900460ff1615612351576040517f08c379a000000000000000000000000000000000000000000000000000000000815260040180806020018281038252603c815260200180613020603c913960400191505060405180910390fd5b3361235a612749565b600c81905550612368611de2565b600d81905550612376612105565b600b81905550600073ffffffffffffffffffffffffffffffffffffffff168173ffffffffffffffffffffffffffffffffffffffff1614612443576123b98161118f565b601060008373ffffffffffffffffffffffffffffffffffffffff1673ffffffffffffffffffffffffffffffffffffffff16815260200190815260200160002081905550600c54600e60008373ffffffffffffffffffffffffffffffffffffffff1673ffffffffffffffffffffffffffffffffffffffff168152602001908152602001600020819055505b600073ffffffffffffffffffffffffffffffffffffffff168173ffffffffffffffffffffffffffffffffffffffff161461250a5761248081611cc4565b601160008373ffffffffffffffffffffffffffffffffffffffff1673ffffffffffffffffffffffffffffffffffffffff16815260200190815260200160002081905550600d54600f60008373ffffffffffffffffffffffffffffffffffffffff1673ffffffffffffffffffffffffffffffffffffffff168152602001908152602001600020819055505b60008311612580576040517f08c379a000000000000000000000000000000000000000000000000000000000815260040180806020018281038252600e8152602001807f43616e6e6f74207374616b65203000000000000000000000000000000000000081525060200191505060405180910390fd5b6125958360125461287f90919063ffffffff16565b6012819055506125ed83601360003373ffffffffffffffffffffffffffffffffffffffff1673ffffffffffffffffffffffffffffffffffffffff1681526020019081526020016000205461287f90919063ffffffff16565b601360003373ffffffffffffffffffffffffffffffffffffffff1673ffffffffffffffffffffffffffffffffffffffff1681526020019081526020016000208190555061267f333085600760009054906101000a900473ffffffffffffffffffffffffffffffffffffffff1673ffffffffffffffffffffffffffffffffffffffff16612c36909392919063ffffffff16565b3373ffffffffffffffffffffffffffffffffffffffff167f9e71bc8eea02a63969f509818f2dafb9254532904319f9dbda79b67bd34a5f3d846040518082815260200191505060405180910390a2506003548114612745576040517f08c379a000000000000000000000000000000000000000000000000000000000815260040180806020018281038252601f8152602001807f5265656e7472616e637947756172643a207265656e7472616e742063616c6c0081525060200191505060405180910390fd5b5050565b600080601254141561275f57600c5490506127d4565b6127d16127c06012546127b2670de0b6b3a76400006127a4600954612796600b54612788612105565b61299690919063ffffffff16565b612a1f90919063ffffffff16565b612a1f90919063ffffffff16565b61290790919063ffffffff16565b600c5461287f90919063ffffffff16565b90505b90565b60116020528060005260406000206000915090505481565b600b5481565b61283d601360003373ffffffffffffffffffffffffffffffffffffffff1673ffffffffffffffffffffffffffffffffffffffff168152602001908152602001600020546112cb565b6128456116f1565b565b60085481565b600a5481565b600c5481565b600260009054906101000a900473ffffffffffffffffffffffffffffffffffffffff1681565b6000808284019050838110156128fd576040517f08c379a000000000000000000000000000000000000000000000000000000000815260040180806020018281038252601b8152602001807f536166654d6174683a206164646974696f6e206f766572666c6f77000000000081525060200191505060405180910390fd5b8091505092915050565b600080821161297e576040517f08c379a000000000000000000000000000000000000000000000000000000000815260040180806020018281038252601a8152602001807f536166654d6174683a206469766973696f6e206279207a65726f00000000000081525060200191505060405180910390fd5b600082848161298957fe5b0490508091505092915050565b600082821115612a0e576040517f08c379a000000000000000000000000000000000000000000000000000000000815260040180806020018281038252601e8152602001807f536166654d6174683a207375627472616374696f6e206f766572666c6f77000081525060200191505060405180910390fd5b600082840390508091505092915050565b600080831415612a325760009050612a9f565b6000828402905082848281612a4357fe5b0414612a9a576040517f08c379a0000000000000000000000000000000000000000000000000000000008152600401808060200182810382526021815260200180612fff6021913960400191505060405180910390fd5b809150505b92915050565b6000809054906101000a900473ffffffffffffffffffffffffffffffffffffffff1673ffffffffffffffffffffffffffffffffffffffff163373ffffffffffffffffffffffffffffffffffffffff1614612b4a576040517f08c379a000000000000000000000000000000000000000000000000000000000815260040180806020018281038252602f815260200180612fd0602f913960400191505060405180910390fd5b565b612c18838473ffffffffffffffffffffffffffffffffffffffff1663a9059cbb905060e01b8484604051602401808373ffffffffffffffffffffffffffffffffffffffff1673ffffffffffffffffffffffffffffffffffffffff16815260200182815260200192505050604051602081830303815290604052907bffffffffffffffffffffffffffffffffffffffffffffffffffffffff19166020820180517bffffffffffffffffffffffffffffffffffffffffffffffffffffffff8381831617835250505050612d3c565b505050565b6000818310612c2c5781612c2e565b825b905092915050565b612d36848573ffffffffffffffffffffffffffffffffffffffff166323b872dd905060e01b858585604051602401808473ffffffffffffffffffffffffffffffffffffffff1673ffffffffffffffffffffffffffffffffffffffff1681526020018373ffffffffffffffffffffffffffffffffffffffff1673ffffffffffffffffffffffffffffffffffffffff1681526020018281526020019350505050604051602081830303815290604052907bffffffffffffffffffffffffffffffffffffffffffffffffffffffff19166020820180517bffffffffffffffffffffffffffffffffffffffffffffffffffffffff8381831617835250505050612d3c565b50505050565b612d5b8273ffffffffffffffffffffffffffffffffffffffff16612f87565b612dcd576040517f08c379a000000000000000000000000000000000000000000000000000000000815260040180806020018281038252601f8152602001807f5361666545524332303a2063616c6c20746f206e6f6e2d636f6e74726163740081525060200191505060405180910390fd5b600060608373ffffffffffffffffffffffffffffffffffffffff16836040518082805190602001908083835b60208310612e1c5780518252602082019150602081019050602083039250612df9565b6001836020036101000a0380198251168184511680821785525050505050509050019150506000604051808303816000865af19150503d8060008114612e7e576040519150601f19603f3d011682016040523d82523d6000602084013e612e83565b606091505b509150915081612efb576040517f08c379a00000000000000000000000000000000000000000000000000000000081526004018080602001828103825260208152602001807f5361666545524332303a206c6f772d6c6576656c2063616c6c206661696c656481525060200191505060405180910390fd5b600081511115612f8157808060200190516020811015612f1a57600080fd5b8101908080519060200190929190505050612f80576040517f08c379a000000000000000000000000000000000000000000000000000000000815260040180806020018281038252602a81526020018061308a602a913960400191505060405180910390fd5b5b50505050565b600080823b90506000811191505091905056fe596f75206d757374206265206e6f6d696e61746564206265666f726520796f752063616e20616363657074206f776e6572736869704f6e6c792074686520636f6e7472616374206f776e6572206d617920706572666f726d207468697320616374696f6e536166654d6174683a206d756c7469706c69636174696f6e206f766572666c6f775468697320616374696f6e2063616e6e6f7420626520706572666f726d6564207768696c652074686520636f6e74726163742069732070617573656443616c6c6572206973206e6f74204475616c52657761726473446973747269627574696f6e20636f6e74726163745361666545524332303a204552433230206f7065726174696f6e20646964206e6f74207375636365656443616e6e6f7420776974686472617720746865207374616b696e6720746f6b656ea265627a7a72315820d7a26dec729452026ff8d2e8760293d513aefa98d9d63edc8c37325096ba50d464736f6c634300051000327265776172647320746f6b656e732073686f756c6420626520646966666572656e74",
					"opcodes": "PUSH1 0x80 PUSH1 0x40 MSTORE PUSH1 0x0 PUSH1 0x8 SSTORE PUSH1 0x0 PUSH1 0x9 SSTORE PUSH1 0x0 PUSH1 0xA SSTORE CALLVALUE DUP1 ISZERO PUSH3 0x20 JUMPI PUSH1 0x0 DUP1 REVERT JUMPDEST POP PUSH1 0x40 MLOAD PUSH3 0x3595 CODESIZE SUB DUP1 PUSH3 0x3595 DUP4 CODECOPY DUP2 DUP2 ADD PUSH1 0x40 MSTORE PUSH1 0xA0 DUP2 LT ISZERO PUSH3 0x46 JUMPI PUSH1 0x0 DUP1 REVERT JUMPDEST DUP2 ADD SWAP1 DUP1 DUP1 MLOAD SWAP1 PUSH1 0x20 ADD SWAP1 SWAP3 SWAP2 SWAP1 DUP1 MLOAD SWAP1 PUSH1 0x20 ADD SWAP1 SWAP3 SWAP2 SWAP1 DUP1 MLOAD SWAP1 PUSH1 0x20 ADD SWAP1 SWAP3 SWAP2 SWAP1 DUP1 MLOAD SWAP1 PUSH1 0x20 ADD SWAP1 SWAP3 SWAP2 SWAP1 DUP1 MLOAD SWAP1 PUSH1 0x20 ADD SWAP1 SWAP3 SWAP2 SWAP1 POP POP POP DUP5 PUSH1 0x0 PUSH20 0xFFFFFFFFFFFFFFFFFFFFFFFFFFFFFFFFFFFFFFFF AND DUP2 PUSH20 0xFFFFFFFFFFFFFFFFFFFFFFFFFFFFFFFFFFFFFFFF AND EQ ISZERO PUSH3 0x124 JUMPI PUSH1 0x40 MLOAD PUSH32 0x8C379A000000000000000000000000000000000000000000000000000000000 DUP2 MSTORE PUSH1 0x4 ADD DUP1 DUP1 PUSH1 0x20 ADD DUP3 DUP2 SUB DUP3 MSTORE PUSH1 0x19 DUP2 MSTORE PUSH1 0x20 ADD DUP1 PUSH32 0x4F776E657220616464726573732063616E6E6F74206265203000000000000000 DUP2 MSTORE POP PUSH1 0x20 ADD SWAP2 POP POP PUSH1 0x40 MLOAD DUP1 SWAP2 SUB SWAP1 REVERT JUMPDEST DUP1 PUSH1 0x0 DUP1 PUSH2 0x100 EXP DUP2 SLOAD DUP2 PUSH20 0xFFFFFFFFFFFFFFFFFFFFFFFFFFFFFFFFFFFFFFFF MUL NOT AND SWAP1 DUP4 PUSH20 0xFFFFFFFFFFFFFFFFFFFFFFFFFFFFFFFFFFFFFFFF AND MUL OR SWAP1 SSTORE POP PUSH32 0xB532073B38C83145E3E5135377A08BF9AAB55BC0FD7C1179CD4FB995D2A5159C PUSH1 0x0 DUP3 PUSH1 0x40 MLOAD DUP1 DUP4 PUSH20 0xFFFFFFFFFFFFFFFFFFFFFFFFFFFFFFFFFFFFFFFF AND PUSH20 0xFFFFFFFFFFFFFFFFFFFFFFFFFFFFFFFFFFFFFFFF AND DUP2 MSTORE PUSH1 0x20 ADD DUP3 PUSH20 0xFFFFFFFFFFFFFFFFFFFFFFFFFFFFFFFFFFFFFFFF AND PUSH20 0xFFFFFFFFFFFFFFFFFFFFFFFFFFFFFFFFFFFFFFFF AND DUP2 MSTORE PUSH1 0x20 ADD SWAP3 POP POP POP PUSH1 0x40 MLOAD DUP1 SWAP2 SUB SWAP1 LOG1 POP PUSH1 0x1 PUSH1 0x3 DUP2 SWAP1 SSTORE POP PUSH1 0x0 PUSH20 0xFFFFFFFFFFFFFFFFFFFFFFFFFFFFFFFFFFFFFFFF AND PUSH1 0x0 DUP1 SWAP1 SLOAD SWAP1 PUSH2 0x100 EXP SWAP1 DIV PUSH20 0xFFFFFFFFFFFFFFFFFFFFFFFFFFFFFFFFFFFFFFFF AND PUSH20 0xFFFFFFFFFFFFFFFFFFFFFFFFFFFFFFFFFFFFFFFF AND EQ ISZERO PUSH3 0x2CA JUMPI PUSH1 0x40 MLOAD PUSH32 0x8C379A000000000000000000000000000000000000000000000000000000000 DUP2 MSTORE PUSH1 0x4 ADD DUP1 DUP1 PUSH1 0x20 ADD DUP3 DUP2 SUB DUP3 MSTORE PUSH1 0x11 DUP2 MSTORE PUSH1 0x20 ADD DUP1 PUSH32 0x4F776E6572206D75737420626520736574000000000000000000000000000000 DUP2 MSTORE POP PUSH1 0x20 ADD SWAP2 POP POP PUSH1 0x40 MLOAD DUP1 SWAP2 SUB SWAP1 REVERT JUMPDEST DUP2 PUSH20 0xFFFFFFFFFFFFFFFFFFFFFFFFFFFFFFFFFFFFFFFF AND DUP4 PUSH20 0xFFFFFFFFFFFFFFFFFFFFFFFFFFFFFFFFFFFFFFFF AND EQ ISZERO PUSH3 0x351 JUMPI PUSH1 0x40 MLOAD PUSH32 0x8C379A000000000000000000000000000000000000000000000000000000000 DUP2 MSTORE PUSH1 0x4 ADD DUP1 DUP1 PUSH1 0x20 ADD DUP3 DUP2 SUB DUP3 MSTORE PUSH1 0x22 DUP2 MSTORE PUSH1 0x20 ADD DUP1 PUSH3 0x3573 PUSH1 0x22 SWAP2 CODECOPY PUSH1 0x40 ADD SWAP2 POP POP PUSH1 0x40 MLOAD DUP1 SWAP2 SUB SWAP1 REVERT JUMPDEST DUP3 PUSH1 0x5 PUSH1 0x1 PUSH2 0x100 EXP DUP2 SLOAD DUP2 PUSH20 0xFFFFFFFFFFFFFFFFFFFFFFFFFFFFFFFFFFFFFFFF MUL NOT AND SWAP1 DUP4 PUSH20 0xFFFFFFFFFFFFFFFFFFFFFFFFFFFFFFFFFFFFFFFF AND MUL OR SWAP1 SSTORE POP DUP2 PUSH1 0x6 PUSH1 0x0 PUSH2 0x100 EXP DUP2 SLOAD DUP2 PUSH20 0xFFFFFFFFFFFFFFFFFFFFFFFFFFFFFFFFFFFFFFFF MUL NOT AND SWAP1 DUP4 PUSH20 0xFFFFFFFFFFFFFFFFFFFFFFFFFFFFFFFFFFFFFFFF AND MUL OR SWAP1 SSTORE POP DUP1 PUSH1 0x7 PUSH1 0x0 PUSH2 0x100 EXP DUP2 SLOAD DUP2 PUSH20 0xFFFFFFFFFFFFFFFFFFFFFFFFFFFFFFFFFFFFFFFF MUL NOT AND SWAP1 DUP4 PUSH20 0xFFFFFFFFFFFFFFFFFFFFFFFFFFFFFFFFFFFFFFFF AND MUL OR SWAP1 SSTORE POP DUP4 PUSH1 0x2 PUSH1 0x0 PUSH2 0x100 EXP DUP2 SLOAD DUP2 PUSH20 0xFFFFFFFFFFFFFFFFFFFFFFFFFFFFFFFFFFFFFFFF MUL NOT AND SWAP1 DUP4 PUSH20 0xFFFFFFFFFFFFFFFFFFFFFFFFFFFFFFFFFFFFFFFF AND MUL OR SWAP1 SSTORE POP POP POP POP POP POP PUSH2 0x3109 DUP1 PUSH3 0x46A PUSH1 0x0 CODECOPY PUSH1 0x0 RETURN INVALID PUSH1 0x80 PUSH1 0x40 MSTORE CALLVALUE DUP1 ISZERO PUSH2 0x10 JUMPI PUSH1 0x0 DUP1 REVERT JUMPDEST POP PUSH1 0x4 CALLDATASIZE LT PUSH2 0x206 JUMPI PUSH1 0x0 CALLDATALOAD PUSH1 0xE0 SHR DUP1 PUSH4 0x70A08231 GT PUSH2 0x11A JUMPI DUP1 PUSH4 0xA694FC3A GT PUSH2 0xAD JUMPI DUP1 PUSH4 0xE9FAD8EE GT PUSH2 0x7C JUMPI DUP1 PUSH4 0xE9FAD8EE EQ PUSH2 0x86B JUMPI DUP1 PUSH4 0xEBE2B12B EQ PUSH2 0x875 JUMPI DUP1 PUSH4 0xEFA1C63C EQ PUSH2 0x893 JUMPI DUP1 PUSH4 0xF5630550 EQ PUSH2 0x8B1 JUMPI DUP1 PUSH4 0xFF510B06 EQ PUSH2 0x8CF JUMPI PUSH2 0x206 JUMP JUMPDEST DUP1 PUSH4 0xA694FC3A EQ PUSH2 0x7A9 JUMPI DUP1 PUSH4 0xA85594AD EQ PUSH2 0x7D7 JUMPI DUP1 PUSH4 0xB95F0079 EQ PUSH2 0x7F5 JUMPI DUP1 PUSH4 0xC8F33C91 EQ PUSH2 0x84D JUMPI PUSH2 0x206 JUMP JUMPDEST DUP1 PUSH4 0x88C4C666 GT PUSH2 0xE9 JUMPI DUP1 PUSH4 0x88C4C666 EQ PUSH2 0x6A9 JUMPI DUP1 PUSH4 0x8980F11F EQ PUSH2 0x6F3 JUMPI DUP1 PUSH4 0x8DA5CB5B EQ PUSH2 0x741 JUMPI DUP1 PUSH4 0x91B4DED9 EQ PUSH2 0x78B JUMPI PUSH2 0x206 JUMP JUMPDEST DUP1 PUSH4 0x70A08231 EQ PUSH2 0x5DF JUMPI DUP1 PUSH4 0x72F702F3 EQ PUSH2 0x637 JUMPI DUP1 PUSH4 0x79BA5097 EQ PUSH2 0x681 JUMPI DUP1 PUSH4 0x80FAA57D EQ PUSH2 0x68B JUMPI PUSH2 0x206 JUMP JUMPDEST DUP1 PUSH4 0x34584D3A GT PUSH2 0x19D JUMPI DUP1 PUSH4 0x53A47BB7 GT PUSH2 0x16C JUMPI DUP1 PUSH4 0x53A47BB7 EQ PUSH2 0x4B3 JUMPI DUP1 PUSH4 0x5C975ABB EQ PUSH2 0x4FD JUMPI DUP1 PUSH4 0x5FD1020C EQ PUSH2 0x51F JUMPI DUP1 PUSH4 0x60FB3626 EQ PUSH2 0x569 JUMPI DUP1 PUSH4 0x68213329 EQ PUSH2 0x5C1 JUMPI PUSH2 0x206 JUMP JUMPDEST DUP1 PUSH4 0x34584D3A EQ PUSH2 0x3DB JUMPI DUP1 PUSH4 0x3D18B912 EQ PUSH2 0x433 JUMPI DUP1 PUSH4 0x4EA4618B EQ PUSH2 0x43D JUMPI DUP1 PUSH4 0x513C508A EQ PUSH2 0x495 JUMPI PUSH2 0x206 JUMP JUMPDEST DUP1 PUSH4 0x1820D739 GT PUSH2 0x1D9 JUMPI DUP1 PUSH4 0x1820D739 EQ PUSH2 0x2DF JUMPI DUP1 PUSH4 0x255CFCA3 EQ PUSH2 0x337 JUMPI DUP1 PUSH4 0x266A74CA EQ PUSH2 0x355 JUMPI DUP1 PUSH4 0x2E1A7D4D EQ PUSH2 0x3AD JUMPI PUSH2 0x206 JUMP JUMPDEST DUP1 PUSH4 0x6E32820 EQ PUSH2 0x20B JUMPI DUP1 PUSH4 0x1627540C EQ PUSH2 0x24D JUMPI DUP1 PUSH4 0x16C38B3C EQ PUSH2 0x291 JUMPI DUP1 PUSH4 0x18160DDD EQ PUSH2 0x2C1 JUMPI JUMPDEST PUSH1 0x0 DUP1 REVERT JUMPDEST PUSH2 0x24B PUSH1 0x4 DUP1 CALLDATASIZE SUB PUSH1 0x60 DUP2 LT ISZERO PUSH2 0x221 JUMPI PUSH1 0x0 DUP1 REVERT JUMPDEST DUP2 ADD SWAP1 DUP1 DUP1 CALLDATALOAD SWAP1 PUSH1 0x20 ADD SWAP1 SWAP3 SWAP2 SWAP1 DUP1 CALLDATALOAD SWAP1 PUSH1 0x20 ADD SWAP1 SWAP3 SWAP2 SWAP1 DUP1 CALLDATALOAD SWAP1 PUSH1 0x20 ADD SWAP1 SWAP3 SWAP2 SWAP1 POP POP POP PUSH2 0x919 JUMP JUMPDEST STOP JUMPDEST PUSH2 0x28F PUSH1 0x4 DUP1 CALLDATASIZE SUB PUSH1 0x20 DUP2 LT ISZERO PUSH2 0x263 JUMPI PUSH1 0x0 DUP1 REVERT JUMPDEST DUP2 ADD SWAP1 DUP1 DUP1 CALLDATALOAD PUSH20 0xFFFFFFFFFFFFFFFFFFFFFFFFFFFFFFFFFFFFFFFF AND SWAP1 PUSH1 0x20 ADD SWAP1 SWAP3 SWAP2 SWAP1 POP POP POP PUSH2 0x1029 JUMP JUMPDEST STOP JUMPDEST PUSH2 0x2BF PUSH1 0x4 DUP1 CALLDATASIZE SUB PUSH1 0x20 DUP2 LT ISZERO PUSH2 0x2A7 JUMPI PUSH1 0x0 DUP1 REVERT JUMPDEST DUP2 ADD SWAP1 DUP1 DUP1 CALLDATALOAD ISZERO ISZERO SWAP1 PUSH1 0x20 ADD SWAP1 SWAP3 SWAP2 SWAP1 POP POP POP PUSH2 0x10D8 JUMP JUMPDEST STOP JUMPDEST PUSH2 0x2C9 PUSH2 0x1185 JUMP JUMPDEST PUSH1 0x40 MLOAD DUP1 DUP3 DUP2 MSTORE PUSH1 0x20 ADD SWAP2 POP POP PUSH1 0x40 MLOAD DUP1 SWAP2 SUB SWAP1 RETURN JUMPDEST PUSH2 0x321 PUSH1 0x4 DUP1 CALLDATASIZE SUB PUSH1 0x20 DUP2 LT ISZERO PUSH2 0x2F5 JUMPI PUSH1 0x0 DUP1 REVERT JUMPDEST DUP2 ADD SWAP1 DUP1 DUP1 CALLDATALOAD PUSH20 0xFFFFFFFFFFFFFFFFFFFFFFFFFFFFFFFFFFFFFFFF AND SWAP1 PUSH1 0x20 ADD SWAP1 SWAP3 SWAP2 SWAP1 POP POP POP PUSH2 0x118F JUMP JUMPDEST PUSH1 0x40 MLOAD DUP1 DUP3 DUP2 MSTORE PUSH1 0x20 ADD SWAP2 POP POP PUSH1 0x40 MLOAD DUP1 SWAP2 SUB SWAP1 RETURN JUMPDEST PUSH2 0x33F PUSH2 0x12AD JUMP JUMPDEST PUSH1 0x40 MLOAD DUP1 DUP3 DUP2 MSTORE PUSH1 0x20 ADD SWAP2 POP POP PUSH1 0x40 MLOAD DUP1 SWAP2 SUB SWAP1 RETURN JUMPDEST PUSH2 0x397 PUSH1 0x4 DUP1 CALLDATASIZE SUB PUSH1 0x20 DUP2 LT ISZERO PUSH2 0x36B JUMPI PUSH1 0x0 DUP1 REVERT JUMPDEST DUP2 ADD SWAP1 DUP1 DUP1 CALLDATALOAD PUSH20 0xFFFFFFFFFFFFFFFFFFFFFFFFFFFFFFFFFFFFFFFF AND SWAP1 PUSH1 0x20 ADD SWAP1 SWAP3 SWAP2 SWAP1 POP POP POP PUSH2 0x12B3 JUMP JUMPDEST PUSH1 0x40 MLOAD DUP1 DUP3 DUP2 MSTORE PUSH1 0x20 ADD SWAP2 POP POP PUSH1 0x40 MLOAD DUP1 SWAP2 SUB SWAP1 RETURN JUMPDEST PUSH2 0x3D9 PUSH1 0x4 DUP1 CALLDATASIZE SUB PUSH1 0x20 DUP2 LT ISZERO PUSH2 0x3C3 JUMPI PUSH1 0x0 DUP1 REVERT JUMPDEST DUP2 ADD SWAP1 DUP1 DUP1 CALLDATALOAD SWAP1 PUSH1 0x20 ADD SWAP1 SWAP3 SWAP2 SWAP1 POP POP POP PUSH2 0x12CB JUMP JUMPDEST STOP JUMPDEST PUSH2 0x41D PUSH1 0x4 DUP1 CALLDATASIZE SUB PUSH1 0x20 DUP2 LT ISZERO PUSH2 0x3F1 JUMPI PUSH1 0x0 DUP1 REVERT JUMPDEST DUP2 ADD SWAP1 DUP1 DUP1 CALLDATALOAD PUSH20 0xFFFFFFFFFFFFFFFFFFFFFFFFFFFFFFFFFFFFFFFF AND SWAP1 PUSH1 0x20 ADD SWAP1 SWAP3 SWAP2 SWAP1 POP POP POP PUSH2 0x16D9 JUMP JUMPDEST PUSH1 0x40 MLOAD DUP1 DUP3 DUP2 MSTORE PUSH1 0x20 ADD SWAP2 POP POP PUSH1 0x40 MLOAD DUP1 SWAP2 SUB SWAP1 RETURN JUMPDEST PUSH2 0x43B PUSH2 0x16F1 JUMP JUMPDEST STOP JUMPDEST PUSH2 0x47F PUSH1 0x4 DUP1 CALLDATASIZE SUB PUSH1 0x20 DUP2 LT ISZERO PUSH2 0x453 JUMPI PUSH1 0x0 DUP1 REVERT JUMPDEST DUP2 ADD SWAP1 DUP1 DUP1 CALLDATALOAD PUSH20 0xFFFFFFFFFFFFFFFFFFFFFFFFFFFFFFFFFFFFFFFF AND SWAP1 PUSH1 0x20 ADD SWAP1 SWAP3 SWAP2 SWAP1 POP POP POP PUSH2 0x1C47 JUMP JUMPDEST PUSH1 0x40 MLOAD DUP1 DUP3 DUP2 MSTORE PUSH1 0x20 ADD SWAP2 POP POP PUSH1 0x40 MLOAD DUP1 SWAP2 SUB SWAP1 RETURN JUMPDEST PUSH2 0x49D PUSH2 0x1C5F JUMP JUMPDEST PUSH1 0x40 MLOAD DUP1 DUP3 DUP2 MSTORE PUSH1 0x20 ADD SWAP2 POP POP PUSH1 0x40 MLOAD DUP1 SWAP2 SUB SWAP1 RETURN JUMPDEST PUSH2 0x4BB PUSH2 0x1C65 JUMP JUMPDEST PUSH1 0x40 MLOAD DUP1 DUP3 PUSH20 0xFFFFFFFFFFFFFFFFFFFFFFFFFFFFFFFFFFFFFFFF AND PUSH20 0xFFFFFFFFFFFFFFFFFFFFFFFFFFFFFFFFFFFFFFFF AND DUP2 MSTORE PUSH1 0x20 ADD SWAP2 POP POP PUSH1 0x40 MLOAD DUP1 SWAP2 SUB SWAP1 RETURN JUMPDEST PUSH2 0x505 PUSH2 0x1C8B JUMP JUMPDEST PUSH1 0x40 MLOAD DUP1 DUP3 ISZERO ISZERO ISZERO ISZERO DUP2 MSTORE PUSH1 0x20 ADD SWAP2 POP POP PUSH1 0x40 MLOAD DUP1 SWAP2 SUB SWAP1 RETURN JUMPDEST PUSH2 0x527 PUSH2 0x1C9E JUMP JUMPDEST PUSH1 0x40 MLOAD DUP1 DUP3 PUSH20 0xFFFFFFFFFFFFFFFFFFFFFFFFFFFFFFFFFFFFFFFF AND PUSH20 0xFFFFFFFFFFFFFFFFFFFFFFFFFFFFFFFFFFFFFFFF AND DUP2 MSTORE PUSH1 0x20 ADD SWAP2 POP POP PUSH1 0x40 MLOAD DUP1 SWAP2 SUB SWAP1 RETURN JUMPDEST PUSH2 0x5AB PUSH1 0x4 DUP1 CALLDATASIZE SUB PUSH1 0x20 DUP2 LT ISZERO PUSH2 0x57F JUMPI PUSH1 0x0 DUP1 REVERT JUMPDEST DUP2 ADD SWAP1 DUP1 DUP1 CALLDATALOAD PUSH20 0xFFFFFFFFFFFFFFFFFFFFFFFFFFFFFFFFFFFFFFFF AND SWAP1 PUSH1 0x20 ADD SWAP1 SWAP3 SWAP2 SWAP1 POP POP POP PUSH2 0x1CC4 JUMP JUMPDEST PUSH1 0x40 MLOAD DUP1 DUP3 DUP2 MSTORE PUSH1 0x20 ADD SWAP2 POP POP PUSH1 0x40 MLOAD DUP1 SWAP2 SUB SWAP1 RETURN JUMPDEST PUSH2 0x5C9 PUSH2 0x1DE2 JUMP JUMPDEST PUSH1 0x40 MLOAD DUP1 DUP3 DUP2 MSTORE PUSH1 0x20 ADD SWAP2 POP POP PUSH1 0x40 MLOAD DUP1 SWAP2 SUB SWAP1 RETURN JUMPDEST PUSH2 0x621 PUSH1 0x4 DUP1 CALLDATASIZE SUB PUSH1 0x20 DUP2 LT ISZERO PUSH2 0x5F5 JUMPI PUSH1 0x0 DUP1 REVERT JUMPDEST DUP2 ADD SWAP1 DUP1 DUP1 CALLDATALOAD PUSH20 0xFFFFFFFFFFFFFFFFFFFFFFFFFFFFFFFFFFFFFFFF AND SWAP1 PUSH1 0x20 ADD SWAP1 SWAP3 SWAP2 SWAP1 POP POP POP PUSH2 0x1E70 JUMP JUMPDEST PUSH1 0x40 MLOAD DUP1 DUP3 DUP2 MSTORE PUSH1 0x20 ADD SWAP2 POP POP PUSH1 0x40 MLOAD DUP1 SWAP2 SUB SWAP1 RETURN JUMPDEST PUSH2 0x63F PUSH2 0x1EB9 JUMP JUMPDEST PUSH1 0x40 MLOAD DUP1 DUP3 PUSH20 0xFFFFFFFFFFFFFFFFFFFFFFFFFFFFFFFFFFFFFFFF AND PUSH20 0xFFFFFFFFFFFFFFFFFFFFFFFFFFFFFFFFFFFFFFFF AND DUP2 MSTORE PUSH1 0x20 ADD SWAP2 POP POP PUSH1 0x40 MLOAD DUP1 SWAP2 SUB SWAP1 RETURN JUMPDEST PUSH2 0x689 PUSH2 0x1EDF JUMP JUMPDEST STOP JUMPDEST PUSH2 0x693 PUSH2 0x2105 JUMP JUMPDEST PUSH1 0x40 MLOAD DUP1 DUP3 DUP2 MSTORE PUSH1 0x20 ADD SWAP2 POP POP PUSH1 0x40 MLOAD DUP1 SWAP2 SUB SWAP1 RETURN JUMPDEST PUSH2 0x6B1 PUSH2 0x2118 JUMP JUMPDEST PUSH1 0x40 MLOAD DUP1 DUP3 PUSH20 0xFFFFFFFFFFFFFFFFFFFFFFFFFFFFFFFFFFFFFFFF AND PUSH20 0xFFFFFFFFFFFFFFFFFFFFFFFFFFFFFFFFFFFFFFFF AND DUP2 MSTORE PUSH1 0x20 ADD SWAP2 POP POP PUSH1 0x40 MLOAD DUP1 SWAP2 SUB SWAP1 RETURN JUMPDEST PUSH2 0x73F PUSH1 0x4 DUP1 CALLDATASIZE SUB PUSH1 0x40 DUP2 LT ISZERO PUSH2 0x709 JUMPI PUSH1 0x0 DUP1 REVERT JUMPDEST DUP2 ADD SWAP1 DUP1 DUP1 CALLDATALOAD PUSH20 0xFFFFFFFFFFFFFFFFFFFFFFFFFFFFFFFFFFFFFFFF AND SWAP1 PUSH1 0x20 ADD SWAP1 SWAP3 SWAP2 SWAP1 DUP1 CALLDATALOAD SWAP1 PUSH1 0x20 ADD SWAP1 SWAP3 SWAP2 SWAP1 POP POP POP PUSH2 0x213E JUMP JUMPDEST STOP JUMPDEST PUSH2 0x749 PUSH2 0x22A8 JUMP JUMPDEST PUSH1 0x40 MLOAD DUP1 DUP3 PUSH20 0xFFFFFFFFFFFFFFFFFFFFFFFFFFFFFFFFFFFFFFFF AND PUSH20 0xFFFFFFFFFFFFFFFFFFFFFFFFFFFFFFFFFFFFFFFF AND DUP2 MSTORE PUSH1 0x20 ADD SWAP2 POP POP PUSH1 0x40 MLOAD DUP1 SWAP2 SUB SWAP1 RETURN JUMPDEST PUSH2 0x793 PUSH2 0x22CD JUMP JUMPDEST PUSH1 0x40 MLOAD DUP1 DUP3 DUP2 MSTORE PUSH1 0x20 ADD SWAP2 POP POP PUSH1 0x40 MLOAD DUP1 SWAP2 SUB SWAP1 RETURN JUMPDEST PUSH2 0x7D5 PUSH1 0x4 DUP1 CALLDATASIZE SUB PUSH1 0x20 DUP2 LT ISZERO PUSH2 0x7BF JUMPI PUSH1 0x0 DUP1 REVERT JUMPDEST DUP2 ADD SWAP1 DUP1 DUP1 CALLDATALOAD SWAP1 PUSH1 0x20 ADD SWAP1 SWAP3 SWAP2 SWAP1 POP POP POP PUSH2 0x22D3 JUMP JUMPDEST STOP JUMPDEST PUSH2 0x7DF PUSH2 0x2749 JUMP JUMPDEST PUSH1 0x40 MLOAD DUP1 DUP3 DUP2 MSTORE PUSH1 0x20 ADD SWAP2 POP POP PUSH1 0x40 MLOAD DUP1 SWAP2 SUB SWAP1 RETURN JUMPDEST PUSH2 0x837 PUSH1 0x4 DUP1 CALLDATASIZE SUB PUSH1 0x20 DUP2 LT ISZERO PUSH2 0x80B JUMPI PUSH1 0x0 DUP1 REVERT JUMPDEST DUP2 ADD SWAP1 DUP1 DUP1 CALLDATALOAD PUSH20 0xFFFFFFFFFFFFFFFFFFFFFFFFFFFFFFFFFFFFFFFF AND SWAP1 PUSH1 0x20 ADD SWAP1 SWAP3 SWAP2 SWAP1 POP POP POP PUSH2 0x27D7 JUMP JUMPDEST PUSH1 0x40 MLOAD DUP1 DUP3 DUP2 MSTORE PUSH1 0x20 ADD SWAP2 POP POP PUSH1 0x40 MLOAD DUP1 SWAP2 SUB SWAP1 RETURN JUMPDEST PUSH2 0x855 PUSH2 0x27EF JUMP JUMPDEST PUSH1 0x40 MLOAD DUP1 DUP3 DUP2 MSTORE PUSH1 0x20 ADD SWAP2 POP POP PUSH1 0x40 MLOAD DUP1 SWAP2 SUB SWAP1 RETURN JUMPDEST PUSH2 0x873 PUSH2 0x27F5 JUMP JUMPDEST STOP JUMPDEST PUSH2 0x87D PUSH2 0x2847 JUMP JUMPDEST PUSH1 0x40 MLOAD DUP1 DUP3 DUP2 MSTORE PUSH1 0x20 ADD SWAP2 POP POP PUSH1 0x40 MLOAD DUP1 SWAP2 SUB SWAP1 RETURN JUMPDEST PUSH2 0x89B PUSH2 0x284D JUMP JUMPDEST PUSH1 0x40 MLOAD DUP1 DUP3 DUP2 MSTORE PUSH1 0x20 ADD SWAP2 POP POP PUSH1 0x40 MLOAD DUP1 SWAP2 SUB SWAP1 RETURN JUMPDEST PUSH2 0x8B9 PUSH2 0x2853 JUMP JUMPDEST PUSH1 0x40 MLOAD DUP1 DUP3 DUP2 MSTORE PUSH1 0x20 ADD SWAP2 POP POP PUSH1 0x40 MLOAD DUP1 SWAP2 SUB SWAP1 RETURN JUMPDEST PUSH2 0x8D7 PUSH2 0x2859 JUMP JUMPDEST PUSH1 0x40 MLOAD DUP1 DUP3 PUSH20 0xFFFFFFFFFFFFFFFFFFFFFFFFFFFFFFFFFFFFFFFF AND PUSH20 0xFFFFFFFFFFFFFFFFFFFFFFFFFFFFFFFFFFFFFFFF AND DUP2 MSTORE PUSH1 0x20 ADD SWAP2 POP POP PUSH1 0x40 MLOAD DUP1 SWAP2 SUB SWAP1 RETURN JUMPDEST PUSH1 0x2 PUSH1 0x0 SWAP1 SLOAD SWAP1 PUSH2 0x100 EXP SWAP1 DIV PUSH20 0xFFFFFFFFFFFFFFFFFFFFFFFFFFFFFFFFFFFFFFFF AND PUSH20 0xFFFFFFFFFFFFFFFFFFFFFFFFFFFFFFFFFFFFFFFF AND CALLER PUSH20 0xFFFFFFFFFFFFFFFFFFFFFFFFFFFFFFFFFFFFFFFF AND EQ PUSH2 0x9BF JUMPI PUSH1 0x40 MLOAD PUSH32 0x8C379A000000000000000000000000000000000000000000000000000000000 DUP2 MSTORE PUSH1 0x4 ADD DUP1 DUP1 PUSH1 0x20 ADD DUP3 DUP2 SUB DUP3 MSTORE PUSH1 0x2E DUP2 MSTORE PUSH1 0x20 ADD DUP1 PUSH2 0x305C PUSH1 0x2E SWAP2 CODECOPY PUSH1 0x40 ADD SWAP2 POP POP PUSH1 0x40 MLOAD DUP1 SWAP2 SUB SWAP1 REVERT JUMPDEST PUSH1 0x0 PUSH2 0x9C9 PUSH2 0x2749 JUMP JUMPDEST PUSH1 0xC DUP2 SWAP1 SSTORE POP PUSH2 0x9D7 PUSH2 0x1DE2 JUMP JUMPDEST PUSH1 0xD DUP2 SWAP1 SSTORE POP PUSH2 0x9E5 PUSH2 0x2105 JUMP JUMPDEST PUSH1 0xB DUP2 SWAP1 SSTORE POP PUSH1 0x0 PUSH20 0xFFFFFFFFFFFFFFFFFFFFFFFFFFFFFFFFFFFFFFFF AND DUP2 PUSH20 0xFFFFFFFFFFFFFFFFFFFFFFFFFFFFFFFFFFFFFFFF AND EQ PUSH2 0xAB2 JUMPI PUSH2 0xA28 DUP2 PUSH2 0x118F JUMP JUMPDEST PUSH1 0x10 PUSH1 0x0 DUP4 PUSH20 0xFFFFFFFFFFFFFFFFFFFFFFFFFFFFFFFFFFFFFFFF AND PUSH20 0xFFFFFFFFFFFFFFFFFFFFFFFFFFFFFFFFFFFFFFFF AND DUP2 MSTORE PUSH1 0x20 ADD SWAP1 DUP2 MSTORE PUSH1 0x20 ADD PUSH1 0x0 KECCAK256 DUP2 SWAP1 SSTORE POP PUSH1 0xC SLOAD PUSH1 0xE PUSH1 0x0 DUP4 PUSH20 0xFFFFFFFFFFFFFFFFFFFFFFFFFFFFFFFFFFFFFFFF AND PUSH20 0xFFFFFFFFFFFFFFFFFFFFFFFFFFFFFFFFFFFFFFFF AND DUP2 MSTORE PUSH1 0x20 ADD SWAP1 DUP2 MSTORE PUSH1 0x20 ADD PUSH1 0x0 KECCAK256 DUP2 SWAP1 SSTORE POP JUMPDEST PUSH1 0x0 PUSH20 0xFFFFFFFFFFFFFFFFFFFFFFFFFFFFFFFFFFFFFFFF AND DUP2 PUSH20 0xFFFFFFFFFFFFFFFFFFFFFFFFFFFFFFFFFFFFFFFF AND EQ PUSH2 0xB79 JUMPI PUSH2 0xAEF DUP2 PUSH2 0x1CC4 JUMP JUMPDEST PUSH1 0x11 PUSH1 0x0 DUP4 PUSH20 0xFFFFFFFFFFFFFFFFFFFFFFFFFFFFFFFFFFFFFFFF AND PUSH20 0xFFFFFFFFFFFFFFFFFFFFFFFFFFFFFFFFFFFFFFFF AND DUP2 MSTORE PUSH1 0x20 ADD SWAP1 DUP2 MSTORE PUSH1 0x20 ADD PUSH1 0x0 KECCAK256 DUP2 SWAP1 SSTORE POP PUSH1 0xD SLOAD PUSH1 0xF PUSH1 0x0 DUP4 PUSH20 0xFFFFFFFFFFFFFFFFFFFFFFFFFFFFFFFFFFFFFFFF AND PUSH20 0xFFFFFFFFFFFFFFFFFFFFFFFFFFFFFFFFFFFFFFFF AND DUP2 MSTORE PUSH1 0x20 ADD SWAP1 DUP2 MSTORE PUSH1 0x20 ADD PUSH1 0x0 KECCAK256 DUP2 SWAP1 SSTORE POP JUMPDEST PUSH1 0x8 SLOAD PUSH2 0xB8F DUP4 TIMESTAMP PUSH2 0x287F SWAP1 SWAP2 SWAP1 PUSH4 0xFFFFFFFF AND JUMP JUMPDEST LT ISZERO PUSH2 0xC03 JUMPI PUSH1 0x40 MLOAD PUSH32 0x8C379A000000000000000000000000000000000000000000000000000000000 DUP2 MSTORE PUSH1 0x4 ADD DUP1 DUP1 PUSH1 0x20 ADD DUP3 DUP2 SUB DUP3 MSTORE PUSH1 0x1D DUP2 MSTORE PUSH1 0x20 ADD DUP1 PUSH32 0x43616E6E6F7420726564756365206578697374696E6720706572696F64000000 DUP2 MSTORE POP PUSH1 0x20 ADD SWAP2 POP POP PUSH1 0x40 MLOAD DUP1 SWAP2 SUB SWAP1 REVERT JUMPDEST PUSH1 0x8 SLOAD TIMESTAMP LT PUSH2 0xC43 JUMPI PUSH2 0xC1F DUP3 DUP6 PUSH2 0x2907 SWAP1 SWAP2 SWAP1 PUSH4 0xFFFFFFFF AND JUMP JUMPDEST PUSH1 0x9 DUP2 SWAP1 SSTORE POP PUSH2 0xC38 DUP3 DUP5 PUSH2 0x2907 SWAP1 SWAP2 SWAP1 PUSH4 0xFFFFFFFF AND JUMP JUMPDEST PUSH1 0xA DUP2 SWAP1 SSTORE POP PUSH2 0xCE8 JUMP JUMPDEST PUSH1 0x0 PUSH2 0xC5A TIMESTAMP PUSH1 0x8 SLOAD PUSH2 0x2996 SWAP1 SWAP2 SWAP1 PUSH4 0xFFFFFFFF AND JUMP JUMPDEST SWAP1 POP PUSH1 0x0 PUSH2 0xC73 PUSH1 0x9 SLOAD DUP4 PUSH2 0x2A1F SWAP1 SWAP2 SWAP1 PUSH4 0xFFFFFFFF AND JUMP JUMPDEST SWAP1 POP PUSH2 0xC9A DUP5 PUSH2 0xC8C DUP4 DUP10 PUSH2 0x287F SWAP1 SWAP2 SWAP1 PUSH4 0xFFFFFFFF AND JUMP JUMPDEST PUSH2 0x2907 SWAP1 SWAP2 SWAP1 PUSH4 0xFFFFFFFF AND JUMP JUMPDEST PUSH1 0x9 DUP2 SWAP1 SSTORE POP PUSH1 0x0 PUSH2 0xCB7 PUSH1 0xA SLOAD DUP5 PUSH2 0x2A1F SWAP1 SWAP2 SWAP1 PUSH4 0xFFFFFFFF AND JUMP JUMPDEST SWAP1 POP PUSH2 0xCDE DUP6 PUSH2 0xCD0 DUP4 DUP10 PUSH2 0x287F SWAP1 SWAP2 SWAP1 PUSH4 0xFFFFFFFF AND JUMP JUMPDEST PUSH2 0x2907 SWAP1 SWAP2 SWAP1 PUSH4 0xFFFFFFFF AND JUMP JUMPDEST PUSH1 0xA DUP2 SWAP1 SSTORE POP POP POP POP JUMPDEST PUSH1 0x0 PUSH1 0x5 PUSH1 0x1 SWAP1 SLOAD SWAP1 PUSH2 0x100 EXP SWAP1 DIV PUSH20 0xFFFFFFFFFFFFFFFFFFFFFFFFFFFFFFFFFFFFFFFF AND PUSH20 0xFFFFFFFFFFFFFFFFFFFFFFFFFFFFFFFFFFFFFFFF AND PUSH4 0x70A08231 ADDRESS PUSH1 0x40 MLOAD DUP3 PUSH4 0xFFFFFFFF AND PUSH1 0xE0 SHL DUP2 MSTORE PUSH1 0x4 ADD DUP1 DUP3 PUSH20 0xFFFFFFFFFFFFFFFFFFFFFFFFFFFFFFFFFFFFFFFF AND PUSH20 0xFFFFFFFFFFFFFFFFFFFFFFFFFFFFFFFFFFFFFFFF AND DUP2 MSTORE PUSH1 0x20 ADD SWAP2 POP POP PUSH1 0x20 PUSH1 0x40 MLOAD DUP1 DUP4 SUB DUP2 DUP7 DUP1 EXTCODESIZE ISZERO DUP1 ISZERO PUSH2 0xD89 JUMPI PUSH1 0x0 DUP1 REVERT JUMPDEST POP GAS STATICCALL ISZERO DUP1 ISZERO PUSH2 0xD9D JUMPI RETURNDATASIZE PUSH1 0x0 DUP1 RETURNDATACOPY RETURNDATASIZE PUSH1 0x0 REVERT JUMPDEST POP POP POP POP PUSH1 0x40 MLOAD RETURNDATASIZE PUSH1 0x20 DUP2 LT ISZERO PUSH2 0xDB3 JUMPI PUSH1 0x0 DUP1 REVERT JUMPDEST DUP2 ADD SWAP1 DUP1 DUP1 MLOAD SWAP1 PUSH1 0x20 ADD SWAP1 SWAP3 SWAP2 SWAP1 POP POP POP SWAP1 POP PUSH2 0xDD9 DUP4 DUP3 PUSH2 0x2907 SWAP1 SWAP2 SWAP1 PUSH4 0xFFFFFFFF AND JUMP JUMPDEST PUSH1 0x9 SLOAD GT ISZERO PUSH2 0xE50 JUMPI PUSH1 0x40 MLOAD PUSH32 0x8C379A000000000000000000000000000000000000000000000000000000000 DUP2 MSTORE PUSH1 0x4 ADD DUP1 DUP1 PUSH1 0x20 ADD DUP3 DUP2 SUB DUP3 MSTORE PUSH1 0x1A DUP2 MSTORE PUSH1 0x20 ADD DUP1 PUSH32 0x50726F7669646564207265776172642D4120746F6F2068696768000000000000 DUP2 MSTORE POP PUSH1 0x20 ADD SWAP2 POP POP PUSH1 0x40 MLOAD DUP1 SWAP2 SUB SWAP1 REVERT JUMPDEST PUSH1 0x0 PUSH1 0x6 PUSH1 0x0 SWAP1 SLOAD SWAP1 PUSH2 0x100 EXP SWAP1 DIV PUSH20 0xFFFFFFFFFFFFFFFFFFFFFFFFFFFFFFFFFFFFFFFF AND PUSH20 0xFFFFFFFFFFFFFFFFFFFFFFFFFFFFFFFFFFFFFFFF AND PUSH4 0x70A08231 ADDRESS PUSH1 0x40 MLOAD DUP3 PUSH4 0xFFFFFFFF AND PUSH1 0xE0 SHL DUP2 MSTORE PUSH1 0x4 ADD DUP1 DUP3 PUSH20 0xFFFFFFFFFFFFFFFFFFFFFFFFFFFFFFFFFFFFFFFF AND PUSH20 0xFFFFFFFFFFFFFFFFFFFFFFFFFFFFFFFFFFFFFFFF AND DUP2 MSTORE PUSH1 0x20 ADD SWAP2 POP POP PUSH1 0x20 PUSH1 0x40 MLOAD DUP1 DUP4 SUB DUP2 DUP7 DUP1 EXTCODESIZE ISZERO DUP1 ISZERO PUSH2 0xEF1 JUMPI PUSH1 0x0 DUP1 REVERT JUMPDEST POP GAS STATICCALL ISZERO DUP1 ISZERO PUSH2 0xF05 JUMPI RETURNDATASIZE PUSH1 0x0 DUP1 RETURNDATACOPY RETURNDATASIZE PUSH1 0x0 REVERT JUMPDEST POP POP POP POP PUSH1 0x40 MLOAD RETURNDATASIZE PUSH1 0x20 DUP2 LT ISZERO PUSH2 0xF1B JUMPI PUSH1 0x0 DUP1 REVERT JUMPDEST DUP2 ADD SWAP1 DUP1 DUP1 MLOAD SWAP1 PUSH1 0x20 ADD SWAP1 SWAP3 SWAP2 SWAP1 POP POP POP SWAP1 POP PUSH2 0xF41 DUP5 DUP3 PUSH2 0x2907 SWAP1 SWAP2 SWAP1 PUSH4 0xFFFFFFFF AND JUMP JUMPDEST PUSH1 0xA SLOAD GT ISZERO PUSH2 0xFB8 JUMPI PUSH1 0x40 MLOAD PUSH32 0x8C379A000000000000000000000000000000000000000000000000000000000 DUP2 MSTORE PUSH1 0x4 ADD DUP1 DUP1 PUSH1 0x20 ADD DUP3 DUP2 SUB DUP3 MSTORE PUSH1 0x1A DUP2 MSTORE PUSH1 0x20 ADD DUP1 PUSH32 0x50726F7669646564207265776172642D4220746F6F2068696768000000000000 DUP2 MSTORE POP PUSH1 0x20 ADD SWAP2 POP POP PUSH1 0x40 MLOAD DUP1 SWAP2 SUB SWAP1 REVERT JUMPDEST TIMESTAMP PUSH1 0xB DUP2 SWAP1 SSTORE POP PUSH2 0xFD2 DUP5 TIMESTAMP PUSH2 0x287F SWAP1 SWAP2 SWAP1 PUSH4 0xFFFFFFFF AND JUMP JUMPDEST PUSH1 0x8 DUP2 SWAP1 SSTORE POP PUSH32 0x9795F222C951AE3E749F872DBE287F78D21FA52353E9175CB20ED3AA2B29B82B DUP7 DUP7 PUSH1 0x8 SLOAD PUSH1 0x40 MLOAD DUP1 DUP5 DUP2 MSTORE PUSH1 0x20 ADD DUP4 DUP2 MSTORE PUSH1 0x20 ADD DUP3 DUP2 MSTORE PUSH1 0x20 ADD SWAP4 POP POP POP POP PUSH1 0x40 MLOAD DUP1 SWAP2 SUB SWAP1 LOG1 POP POP POP POP POP POP JUMP JUMPDEST PUSH2 0x1031 PUSH2 0x2AA5 JUMP JUMPDEST DUP1 PUSH1 0x1 PUSH1 0x0 PUSH2 0x100 EXP DUP2 SLOAD DUP2 PUSH20 0xFFFFFFFFFFFFFFFFFFFFFFFFFFFFFFFFFFFFFFFF MUL NOT AND SWAP1 DUP4 PUSH20 0xFFFFFFFFFFFFFFFFFFFFFFFFFFFFFFFFFFFFFFFF AND MUL OR SWAP1 SSTORE POP PUSH32 0x906A1C6BD7E3091EA86693DD029A831C19049CE77F1DCE2CE0BAB1CACBABCE22 DUP2 PUSH1 0x40 MLOAD DUP1 DUP3 PUSH20 0xFFFFFFFFFFFFFFFFFFFFFFFFFFFFFFFFFFFFFFFF AND PUSH20 0xFFFFFFFFFFFFFFFFFFFFFFFFFFFFFFFFFFFFFFFF AND DUP2 MSTORE PUSH1 0x20 ADD SWAP2 POP POP PUSH1 0x40 MLOAD DUP1 SWAP2 SUB SWAP1 LOG1 POP JUMP JUMPDEST PUSH2 0x10E0 PUSH2 0x2AA5 JUMP JUMPDEST PUSH1 0x5 PUSH1 0x0 SWAP1 SLOAD SWAP1 PUSH2 0x100 EXP SWAP1 DIV PUSH1 0xFF AND ISZERO ISZERO DUP2 ISZERO ISZERO EQ ISZERO PUSH2 0x1100 JUMPI PUSH2 0x1182 JUMP JUMPDEST DUP1 PUSH1 0x5 PUSH1 0x0 PUSH2 0x100 EXP DUP2 SLOAD DUP2 PUSH1 0xFF MUL NOT AND SWAP1 DUP4 ISZERO ISZERO MUL OR SWAP1 SSTORE POP PUSH1 0x5 PUSH1 0x0 SWAP1 SLOAD SWAP1 PUSH2 0x100 EXP SWAP1 DIV PUSH1 0xFF AND ISZERO PUSH2 0x1137 JUMPI TIMESTAMP PUSH1 0x4 DUP2 SWAP1 SSTORE POP JUMPDEST PUSH32 0x8FB6C181EE25A520CF3DD6565006EF91229FCFE5A989566C2A3B8C115570CEC5 PUSH1 0x5 PUSH1 0x0 SWAP1 SLOAD SWAP1 PUSH2 0x100 EXP SWAP1 DIV PUSH1 0xFF AND PUSH1 0x40 MLOAD DUP1 DUP3 ISZERO ISZERO ISZERO ISZERO DUP2 MSTORE PUSH1 0x20 ADD SWAP2 POP POP PUSH1 0x40 MLOAD DUP1 SWAP2 SUB SWAP1 LOG1 JUMPDEST POP JUMP JUMPDEST PUSH1 0x0 PUSH1 0x12 SLOAD SWAP1 POP SWAP1 JUMP JUMPDEST PUSH1 0x0 PUSH2 0x12A6 PUSH1 0x10 PUSH1 0x0 DUP5 PUSH20 0xFFFFFFFFFFFFFFFFFFFFFFFFFFFFFFFFFFFFFFFF AND PUSH20 0xFFFFFFFFFFFFFFFFFFFFFFFFFFFFFFFFFFFFFFFF AND DUP2 MSTORE PUSH1 0x20 ADD SWAP1 DUP2 MSTORE PUSH1 0x20 ADD PUSH1 0x0 KECCAK256 SLOAD PUSH2 0x1298 PUSH8 0xDE0B6B3A7640000 PUSH2 0x128A PUSH2 0x123C PUSH1 0xE PUSH1 0x0 DUP10 PUSH20 0xFFFFFFFFFFFFFFFFFFFFFFFFFFFFFFFFFFFFFFFF AND PUSH20 0xFFFFFFFFFFFFFFFFFFFFFFFFFFFFFFFFFFFFFFFF AND DUP2 MSTORE PUSH1 0x20 ADD SWAP1 DUP2 MSTORE PUSH1 0x20 ADD PUSH1 0x0 KECCAK256 SLOAD PUSH2 0x122E PUSH2 0x2749 JUMP JUMPDEST PUSH2 0x2996 SWAP1 SWAP2 SWAP1 PUSH4 0xFFFFFFFF AND JUMP JUMPDEST PUSH1 0x13 PUSH1 0x0 DUP10 PUSH20 0xFFFFFFFFFFFFFFFFFFFFFFFFFFFFFFFFFFFFFFFF AND PUSH20 0xFFFFFFFFFFFFFFFFFFFFFFFFFFFFFFFFFFFFFFFF AND DUP2 MSTORE PUSH1 0x20 ADD SWAP1 DUP2 MSTORE PUSH1 0x20 ADD PUSH1 0x0 KECCAK256 SLOAD PUSH2 0x2A1F SWAP1 SWAP2 SWAP1 PUSH4 0xFFFFFFFF AND JUMP JUMPDEST PUSH2 0x2907 SWAP1 SWAP2 SWAP1 PUSH4 0xFFFFFFFF AND JUMP JUMPDEST PUSH2 0x287F SWAP1 SWAP2 SWAP1 PUSH4 0xFFFFFFFF AND JUMP JUMPDEST SWAP1 POP SWAP2 SWAP1 POP JUMP JUMPDEST PUSH1 0x9 SLOAD DUP2 JUMP JUMPDEST PUSH1 0x10 PUSH1 0x20 MSTORE DUP1 PUSH1 0x0 MSTORE PUSH1 0x40 PUSH1 0x0 KECCAK256 PUSH1 0x0 SWAP2 POP SWAP1 POP SLOAD DUP2 JUMP JUMPDEST PUSH1 0x1 PUSH1 0x3 PUSH1 0x0 DUP3 DUP3 SLOAD ADD SWAP3 POP POP DUP2 SWAP1 SSTORE POP PUSH1 0x0 PUSH1 0x3 SLOAD SWAP1 POP CALLER PUSH2 0x12EC PUSH2 0x2749 JUMP JUMPDEST PUSH1 0xC DUP2 SWAP1 SSTORE POP PUSH2 0x12FA PUSH2 0x1DE2 JUMP JUMPDEST PUSH1 0xD DUP2 SWAP1 SSTORE POP PUSH2 0x1308 PUSH2 0x2105 JUMP JUMPDEST PUSH1 0xB DUP2 SWAP1 SSTORE POP PUSH1 0x0 PUSH20 0xFFFFFFFFFFFFFFFFFFFFFFFFFFFFFFFFFFFFFFFF AND DUP2 PUSH20 0xFFFFFFFFFFFFFFFFFFFFFFFFFFFFFFFFFFFFFFFF AND EQ PUSH2 0x13D5 JUMPI PUSH2 0x134B DUP2 PUSH2 0x118F JUMP JUMPDEST PUSH1 0x10 PUSH1 0x0 DUP4 PUSH20 0xFFFFFFFFFFFFFFFFFFFFFFFFFFFFFFFFFFFFFFFF AND PUSH20 0xFFFFFFFFFFFFFFFFFFFFFFFFFFFFFFFFFFFFFFFF AND DUP2 MSTORE PUSH1 0x20 ADD SWAP1 DUP2 MSTORE PUSH1 0x20 ADD PUSH1 0x0 KECCAK256 DUP2 SWAP1 SSTORE POP PUSH1 0xC SLOAD PUSH1 0xE PUSH1 0x0 DUP4 PUSH20 0xFFFFFFFFFFFFFFFFFFFFFFFFFFFFFFFFFFFFFFFF AND PUSH20 0xFFFFFFFFFFFFFFFFFFFFFFFFFFFFFFFFFFFFFFFF AND DUP2 MSTORE PUSH1 0x20 ADD SWAP1 DUP2 MSTORE PUSH1 0x20 ADD PUSH1 0x0 KECCAK256 DUP2 SWAP1 SSTORE POP JUMPDEST PUSH1 0x0 PUSH20 0xFFFFFFFFFFFFFFFFFFFFFFFFFFFFFFFFFFFFFFFF AND DUP2 PUSH20 0xFFFFFFFFFFFFFFFFFFFFFFFFFFFFFFFFFFFFFFFF AND EQ PUSH2 0x149C JUMPI PUSH2 0x1412 DUP2 PUSH2 0x1CC4 JUMP JUMPDEST PUSH1 0x11 PUSH1 0x0 DUP4 PUSH20 0xFFFFFFFFFFFFFFFFFFFFFFFFFFFFFFFFFFFFFFFF AND PUSH20 0xFFFFFFFFFFFFFFFFFFFFFFFFFFFFFFFFFFFFFFFF AND DUP2 MSTORE PUSH1 0x20 ADD SWAP1 DUP2 MSTORE PUSH1 0x20 ADD PUSH1 0x0 KECCAK256 DUP2 SWAP1 SSTORE POP PUSH1 0xD SLOAD PUSH1 0xF PUSH1 0x0 DUP4 PUSH20 0xFFFFFFFFFFFFFFFFFFFFFFFFFFFFFFFFFFFFFFFF AND PUSH20 0xFFFFFFFFFFFFFFFFFFFFFFFFFFFFFFFFFFFFFFFF AND DUP2 MSTORE PUSH1 0x20 ADD SWAP1 DUP2 MSTORE PUSH1 0x20 ADD PUSH1 0x0 KECCAK256 DUP2 SWAP1 SSTORE POP JUMPDEST PUSH1 0x0 DUP4 GT PUSH2 0x1512 JUMPI PUSH1 0x40 MLOAD PUSH32 0x8C379A000000000000000000000000000000000000000000000000000000000 DUP2 MSTORE PUSH1 0x4 ADD DUP1 DUP1 PUSH1 0x20 ADD DUP3 DUP2 SUB DUP3 MSTORE PUSH1 0x11 DUP2 MSTORE PUSH1 0x20 ADD DUP1 PUSH32 0x43616E6E6F742077697468647261772030000000000000000000000000000000 DUP2 MSTORE POP PUSH1 0x20 ADD SWAP2 POP POP PUSH1 0x40 MLOAD DUP1 SWAP2 SUB SWAP1 REVERT JUMPDEST PUSH2 0x1527 DUP4 PUSH1 0x12 SLOAD PUSH2 0x2996 SWAP1 SWAP2 SWAP1 PUSH4 0xFFFFFFFF AND JUMP JUMPDEST PUSH1 0x12 DUP2 SWAP1 SSTORE POP PUSH2 0x157F DUP4 PUSH1 0x13 PUSH1 0x0 CALLER PUSH20 0xFFFFFFFFFFFFFFFFFFFFFFFFFFFFFFFFFFFFFFFF AND PUSH20 0xFFFFFFFFFFFFFFFFFFFFFFFFFFFFFFFFFFFFFFFF AND DUP2 MSTORE PUSH1 0x20 ADD SWAP1 DUP2 MSTORE PUSH1 0x20 ADD PUSH1 0x0 KECCAK256 SLOAD PUSH2 0x2996 SWAP1 SWAP2 SWAP1 PUSH4 0xFFFFFFFF AND JUMP JUMPDEST PUSH1 0x13 PUSH1 0x0 CALLER PUSH20 0xFFFFFFFFFFFFFFFFFFFFFFFFFFFFFFFFFFFFFFFF AND PUSH20 0xFFFFFFFFFFFFFFFFFFFFFFFFFFFFFFFFFFFFFFFF AND DUP2 MSTORE PUSH1 0x20 ADD SWAP1 DUP2 MSTORE PUSH1 0x20 ADD PUSH1 0x0 KECCAK256 DUP2 SWAP1 SSTORE POP PUSH2 0x160F CALLER DUP5 PUSH1 0x7 PUSH1 0x0 SWAP1 SLOAD SWAP1 PUSH2 0x100 EXP SWAP1 DIV PUSH20 0xFFFFFFFFFFFFFFFFFFFFFFFFFFFFFFFFFFFFFFFF AND PUSH20 0xFFFFFFFFFFFFFFFFFFFFFFFFFFFFFFFFFFFFFFFF AND PUSH2 0x2B4C SWAP1 SWAP3 SWAP2 SWAP1 PUSH4 0xFFFFFFFF AND JUMP JUMPDEST CALLER PUSH20 0xFFFFFFFFFFFFFFFFFFFFFFFFFFFFFFFFFFFFFFFF AND PUSH32 0x7084F5476618D8E60B11EF0D7D3F06914655ADB8793E28FF7F018D4C76D505D5 DUP5 PUSH1 0x40 MLOAD DUP1 DUP3 DUP2 MSTORE PUSH1 0x20 ADD SWAP2 POP POP PUSH1 0x40 MLOAD DUP1 SWAP2 SUB SWAP1 LOG2 POP PUSH1 0x3 SLOAD DUP2 EQ PUSH2 0x16D5 JUMPI PUSH1 0x40 MLOAD PUSH32 0x8C379A000000000000000000000000000000000000000000000000000000000 DUP2 MSTORE PUSH1 0x4 ADD DUP1 DUP1 PUSH1 0x20 ADD DUP3 DUP2 SUB DUP3 MSTORE PUSH1 0x1F DUP2 MSTORE PUSH1 0x20 ADD DUP1 PUSH32 0x5265656E7472616E637947756172643A207265656E7472616E742063616C6C00 DUP2 MSTORE POP PUSH1 0x20 ADD SWAP2 POP POP PUSH1 0x40 MLOAD DUP1 SWAP2 SUB SWAP1 REVERT JUMPDEST POP POP JUMP JUMPDEST PUSH1 0xF PUSH1 0x20 MSTORE DUP1 PUSH1 0x0 MSTORE PUSH1 0x40 PUSH1 0x0 KECCAK256 PUSH1 0x0 SWAP2 POP SWAP1 POP SLOAD DUP2 JUMP JUMPDEST PUSH1 0x1 PUSH1 0x3 PUSH1 0x0 DUP3 DUP3 SLOAD ADD SWAP3 POP POP DUP2 SWAP1 SSTORE POP PUSH1 0x0 PUSH1 0x3 SLOAD SWAP1 POP CALLER PUSH2 0x1712 PUSH2 0x2749 JUMP JUMPDEST PUSH1 0xC DUP2 SWAP1 SSTORE POP PUSH2 0x1720 PUSH2 0x1DE2 JUMP JUMPDEST PUSH1 0xD DUP2 SWAP1 SSTORE POP PUSH2 0x172E PUSH2 0x2105 JUMP JUMPDEST PUSH1 0xB DUP2 SWAP1 SSTORE POP PUSH1 0x0 PUSH20 0xFFFFFFFFFFFFFFFFFFFFFFFFFFFFFFFFFFFFFFFF AND DUP2 PUSH20 0xFFFFFFFFFFFFFFFFFFFFFFFFFFFFFFFFFFFFFFFF AND EQ PUSH2 0x17FB JUMPI PUSH2 0x1771 DUP2 PUSH2 0x118F JUMP JUMPDEST PUSH1 0x10 PUSH1 0x0 DUP4 PUSH20 0xFFFFFFFFFFFFFFFFFFFFFFFFFFFFFFFFFFFFFFFF AND PUSH20 0xFFFFFFFFFFFFFFFFFFFFFFFFFFFFFFFFFFFFFFFF AND DUP2 MSTORE PUSH1 0x20 ADD SWAP1 DUP2 MSTORE PUSH1 0x20 ADD PUSH1 0x0 KECCAK256 DUP2 SWAP1 SSTORE POP PUSH1 0xC SLOAD PUSH1 0xE PUSH1 0x0 DUP4 PUSH20 0xFFFFFFFFFFFFFFFFFFFFFFFFFFFFFFFFFFFFFFFF AND PUSH20 0xFFFFFFFFFFFFFFFFFFFFFFFFFFFFFFFFFFFFFFFF AND DUP2 MSTORE PUSH1 0x20 ADD SWAP1 DUP2 MSTORE PUSH1 0x20 ADD PUSH1 0x0 KECCAK256 DUP2 SWAP1 SSTORE POP JUMPDEST PUSH1 0x0 PUSH20 0xFFFFFFFFFFFFFFFFFFFFFFFFFFFFFFFFFFFFFFFF AND DUP2 PUSH20 0xFFFFFFFFFFFFFFFFFFFFFFFFFFFFFFFFFFFFFFFF AND EQ PUSH2 0x18C2 JUMPI PUSH2 0x1838 DUP2 PUSH2 0x1CC4 JUMP JUMPDEST PUSH1 0x11 PUSH1 0x0 DUP4 PUSH20 0xFFFFFFFFFFFFFFFFFFFFFFFFFFFFFFFFFFFFFFFF AND PUSH20 0xFFFFFFFFFFFFFFFFFFFFFFFFFFFFFFFFFFFFFFFF AND DUP2 MSTORE PUSH1 0x20 ADD SWAP1 DUP2 MSTORE PUSH1 0x20 ADD PUSH1 0x0 KECCAK256 DUP2 SWAP1 SSTORE POP PUSH1 0xD SLOAD PUSH1 0xF PUSH1 0x0 DUP4 PUSH20 0xFFFFFFFFFFFFFFFFFFFFFFFFFFFFFFFFFFFFFFFF AND PUSH20 0xFFFFFFFFFFFFFFFFFFFFFFFFFFFFFFFFFFFFFFFF AND DUP2 MSTORE PUSH1 0x20 ADD SWAP1 DUP2 MSTORE PUSH1 0x20 ADD PUSH1 0x0 KECCAK256 DUP2 SWAP1 SSTORE POP JUMPDEST PUSH1 0x0 PUSH1 0x10 PUSH1 0x0 CALLER PUSH20 0xFFFFFFFFFFFFFFFFFFFFFFFFFFFFFFFFFFFFFFFF AND PUSH20 0xFFFFFFFFFFFFFFFFFFFFFFFFFFFFFFFFFFFFFFFF AND DUP2 MSTORE PUSH1 0x20 ADD SWAP1 DUP2 MSTORE PUSH1 0x20 ADD PUSH1 0x0 KECCAK256 SLOAD SWAP1 POP PUSH1 0x0 DUP2 GT ISZERO PUSH2 0x1A46 JUMPI PUSH1 0x0 PUSH1 0x10 PUSH1 0x0 CALLER PUSH20 0xFFFFFFFFFFFFFFFFFFFFFFFFFFFFFFFFFFFFFFFF AND PUSH20 0xFFFFFFFFFFFFFFFFFFFFFFFFFFFFFFFFFFFFFFFF AND DUP2 MSTORE PUSH1 0x20 ADD SWAP1 DUP2 MSTORE PUSH1 0x20 ADD PUSH1 0x0 KECCAK256 DUP2 SWAP1 SSTORE POP PUSH2 0x19A1 CALLER DUP3 PUSH1 0x5 PUSH1 0x1 SWAP1 SLOAD SWAP1 PUSH2 0x100 EXP SWAP1 DIV PUSH20 0xFFFFFFFFFFFFFFFFFFFFFFFFFFFFFFFFFFFFFFFF AND PUSH20 0xFFFFFFFFFFFFFFFFFFFFFFFFFFFFFFFFFFFFFFFF AND PUSH2 0x2B4C SWAP1 SWAP3 SWAP2 SWAP1 PUSH4 0xFFFFFFFF AND JUMP JUMPDEST CALLER PUSH20 0xFFFFFFFFFFFFFFFFFFFFFFFFFFFFFFFFFFFFFFFF AND PUSH32 0x540798DF468D7B23D11F156FDB954CB19AD414D150722A7B6D55BA369DEA792E PUSH1 0x5 PUSH1 0x1 SWAP1 SLOAD SWAP1 PUSH2 0x100 EXP SWAP1 DIV PUSH20 0xFFFFFFFFFFFFFFFFFFFFFFFFFFFFFFFFFFFFFFFF AND DUP4 PUSH1 0x40 MLOAD DUP1 DUP4 PUSH20 0xFFFFFFFFFFFFFFFFFFFFFFFFFFFFFFFFFFFFFFFF AND PUSH20 0xFFFFFFFFFFFFFFFFFFFFFFFFFFFFFFFFFFFFFFFF AND DUP2 MSTORE PUSH1 0x20 ADD DUP3 DUP2 MSTORE PUSH1 0x20 ADD SWAP3 POP POP POP PUSH1 0x40 MLOAD DUP1 SWAP2 SUB SWAP1 LOG2 JUMPDEST PUSH1 0x0 PUSH1 0x11 PUSH1 0x0 CALLER PUSH20 0xFFFFFFFFFFFFFFFFFFFFFFFFFFFFFFFFFFFFFFFF AND PUSH20 0xFFFFFFFFFFFFFFFFFFFFFFFFFFFFFFFFFFFFFFFF AND DUP2 MSTORE PUSH1 0x20 ADD SWAP1 DUP2 MSTORE PUSH1 0x20 ADD PUSH1 0x0 KECCAK256 SLOAD SWAP1 POP PUSH1 0x0 DUP2 GT ISZERO PUSH2 0x1BCA JUMPI PUSH1 0x0 PUSH1 0x11 PUSH1 0x0 CALLER PUSH20 0xFFFFFFFFFFFFFFFFFFFFFFFFFFFFFFFFFFFFFFFF AND PUSH20 0xFFFFFFFFFFFFFFFFFFFFFFFFFFFFFFFFFFFFFFFF AND DUP2 MSTORE PUSH1 0x20 ADD SWAP1 DUP2 MSTORE PUSH1 0x20 ADD PUSH1 0x0 KECCAK256 DUP2 SWAP1 SSTORE POP PUSH2 0x1B25 CALLER DUP3 PUSH1 0x6 PUSH1 0x0 SWAP1 SLOAD SWAP1 PUSH2 0x100 EXP SWAP1 DIV PUSH20 0xFFFFFFFFFFFFFFFFFFFFFFFFFFFFFFFFFFFFFFFF AND PUSH20 0xFFFFFFFFFFFFFFFFFFFFFFFFFFFFFFFFFFFFFFFF AND PUSH2 0x2B4C SWAP1 SWAP3 SWAP2 SWAP1 PUSH4 0xFFFFFFFF AND JUMP JUMPDEST CALLER PUSH20 0xFFFFFFFFFFFFFFFFFFFFFFFFFFFFFFFFFFFFFFFF AND PUSH32 0x540798DF468D7B23D11F156FDB954CB19AD414D150722A7B6D55BA369DEA792E PUSH1 0x6 PUSH1 0x0 SWAP1 SLOAD SWAP1 PUSH2 0x100 EXP SWAP1 DIV PUSH20 0xFFFFFFFFFFFFFFFFFFFFFFFFFFFFFFFFFFFFFFFF AND DUP4 PUSH1 0x40 MLOAD DUP1 DUP4 PUSH20 0xFFFFFFFFFFFFFFFFFFFFFFFFFFFFFFFFFFFFFFFF AND PUSH20 0xFFFFFFFFFFFFFFFFFFFFFFFFFFFFFFFFFFFFFFFF AND DUP2 MSTORE PUSH1 0x20 ADD DUP3 DUP2 MSTORE PUSH1 0x20 ADD SWAP3 POP POP POP PUSH1 0x40 MLOAD DUP1 SWAP2 SUB SWAP1 LOG2 JUMPDEST POP POP POP PUSH1 0x3 SLOAD DUP2 EQ PUSH2 0x1C44 JUMPI PUSH1 0x40 MLOAD PUSH32 0x8C379A000000000000000000000000000000000000000000000000000000000 DUP2 MSTORE PUSH1 0x4 ADD DUP1 DUP1 PUSH1 0x20 ADD DUP3 DUP2 SUB DUP3 MSTORE PUSH1 0x1F DUP2 MSTORE PUSH1 0x20 ADD DUP1 PUSH32 0x5265656E7472616E637947756172643A207265656E7472616E742063616C6C00 DUP2 MSTORE POP PUSH1 0x20 ADD SWAP2 POP POP PUSH1 0x40 MLOAD DUP1 SWAP2 SUB SWAP1 REVERT JUMPDEST POP JUMP JUMPDEST PUSH1 0xE PUSH1 0x20 MSTORE DUP1 PUSH1 0x0 MSTORE PUSH1 0x40 PUSH1 0x0 KECCAK256 PUSH1 0x0 SWAP2 POP SWAP1 POP SLOAD DUP2 JUMP JUMPDEST PUSH1 0xD SLOAD DUP2 JUMP JUMPDEST PUSH1 0x1 PUSH1 0x0 SWAP1 SLOAD SWAP1 PUSH2 0x100 EXP SWAP1 DIV PUSH20 0xFFFFFFFFFFFFFFFFFFFFFFFFFFFFFFFFFFFFFFFF AND DUP2 JUMP JUMPDEST PUSH1 0x5 PUSH1 0x0 SWAP1 SLOAD SWAP1 PUSH2 0x100 EXP SWAP1 DIV PUSH1 0xFF AND DUP2 JUMP JUMPDEST PUSH1 0x5 PUSH1 0x1 SWAP1 SLOAD SWAP1 PUSH2 0x100 EXP SWAP1 DIV PUSH20 0xFFFFFFFFFFFFFFFFFFFFFFFFFFFFFFFFFFFFFFFF AND DUP2 JUMP JUMPDEST PUSH1 0x0 PUSH2 0x1DDB PUSH1 0x11 PUSH1 0x0 DUP5 PUSH20 0xFFFFFFFFFFFFFFFFFFFFFFFFFFFFFFFFFFFFFFFF AND PUSH20 0xFFFFFFFFFFFFFFFFFFFFFFFFFFFFFFFFFFFFFFFF AND DUP2 MSTORE PUSH1 0x20 ADD SWAP1 DUP2 MSTORE PUSH1 0x20 ADD PUSH1 0x0 KECCAK256 SLOAD PUSH2 0x1DCD PUSH8 0xDE0B6B3A7640000 PUSH2 0x1DBF PUSH2 0x1D71 PUSH1 0xF PUSH1 0x0 DUP10 PUSH20 0xFFFFFFFFFFFFFFFFFFFFFFFFFFFFFFFFFFFFFFFF AND PUSH20 0xFFFFFFFFFFFFFFFFFFFFFFFFFFFFFFFFFFFFFFFF AND DUP2 MSTORE PUSH1 0x20 ADD SWAP1 DUP2 MSTORE PUSH1 0x20 ADD PUSH1 0x0 KECCAK256 SLOAD PUSH2 0x1D63 PUSH2 0x1DE2 JUMP JUMPDEST PUSH2 0x2996 SWAP1 SWAP2 SWAP1 PUSH4 0xFFFFFFFF AND JUMP JUMPDEST PUSH1 0x13 PUSH1 0x0 DUP10 PUSH20 0xFFFFFFFFFFFFFFFFFFFFFFFFFFFFFFFFFFFFFFFF AND PUSH20 0xFFFFFFFFFFFFFFFFFFFFFFFFFFFFFFFFFFFFFFFF AND DUP2 MSTORE PUSH1 0x20 ADD SWAP1 DUP2 MSTORE PUSH1 0x20 ADD PUSH1 0x0 KECCAK256 SLOAD PUSH2 0x2A1F SWAP1 SWAP2 SWAP1 PUSH4 0xFFFFFFFF AND JUMP JUMPDEST PUSH2 0x2907 SWAP1 SWAP2 SWAP1 PUSH4 0xFFFFFFFF AND JUMP JUMPDEST PUSH2 0x287F SWAP1 SWAP2 SWAP1 PUSH4 0xFFFFFFFF AND JUMP JUMPDEST SWAP1 POP SWAP2 SWAP1 POP JUMP JUMPDEST PUSH1 0x0 DUP1 PUSH1 0x12 SLOAD EQ ISZERO PUSH2 0x1DF8 JUMPI PUSH1 0xD SLOAD SWAP1 POP PUSH2 0x1E6D JUMP JUMPDEST PUSH2 0x1E6A PUSH2 0x1E59 PUSH1 0x12 SLOAD PUSH2 0x1E4B PUSH8 0xDE0B6B3A7640000 PUSH2 0x1E3D PUSH1 0xA SLOAD PUSH2 0x1E2F PUSH1 0xB SLOAD PUSH2 0x1E21 PUSH2 0x2105 JUMP JUMPDEST PUSH2 0x2996 SWAP1 SWAP2 SWAP1 PUSH4 0xFFFFFFFF AND JUMP JUMPDEST PUSH2 0x2A1F SWAP1 SWAP2 SWAP1 PUSH4 0xFFFFFFFF AND JUMP JUMPDEST PUSH2 0x2A1F SWAP1 SWAP2 SWAP1 PUSH4 0xFFFFFFFF AND JUMP JUMPDEST PUSH2 0x2907 SWAP1 SWAP2 SWAP1 PUSH4 0xFFFFFFFF AND JUMP JUMPDEST PUSH1 0xD SLOAD PUSH2 0x287F SWAP1 SWAP2 SWAP1 PUSH4 0xFFFFFFFF AND JUMP JUMPDEST SWAP1 POP JUMPDEST SWAP1 JUMP JUMPDEST PUSH1 0x0 PUSH1 0x13 PUSH1 0x0 DUP4 PUSH20 0xFFFFFFFFFFFFFFFFFFFFFFFFFFFFFFFFFFFFFFFF AND PUSH20 0xFFFFFFFFFFFFFFFFFFFFFFFFFFFFFFFFFFFFFFFF AND DUP2 MSTORE PUSH1 0x20 ADD SWAP1 DUP2 MSTORE PUSH1 0x20 ADD PUSH1 0x0 KECCAK256 SLOAD SWAP1 POP SWAP2 SWAP1 POP JUMP JUMPDEST PUSH1 0x7 PUSH1 0x0 SWAP1 SLOAD SWAP1 PUSH2 0x100 EXP SWAP1 DIV PUSH20 0xFFFFFFFFFFFFFFFFFFFFFFFFFFFFFFFFFFFFFFFF AND DUP2 JUMP JUMPDEST PUSH1 0x1 PUSH1 0x0 SWAP1 SLOAD SWAP1 PUSH2 0x100 EXP SWAP1 DIV PUSH20 0xFFFFFFFFFFFFFFFFFFFFFFFFFFFFFFFFFFFFFFFF AND PUSH20 0xFFFFFFFFFFFFFFFFFFFFFFFFFFFFFFFFFFFFFFFF AND CALLER PUSH20 0xFFFFFFFFFFFFFFFFFFFFFFFFFFFFFFFFFFFFFFFF AND EQ PUSH2 0x1F85 JUMPI PUSH1 0x40 MLOAD PUSH32 0x8C379A000000000000000000000000000000000000000000000000000000000 DUP2 MSTORE PUSH1 0x4 ADD DUP1 DUP1 PUSH1 0x20 ADD DUP3 DUP2 SUB DUP3 MSTORE PUSH1 0x35 DUP2 MSTORE PUSH1 0x20 ADD DUP1 PUSH2 0x2F9B PUSH1 0x35 SWAP2 CODECOPY PUSH1 0x40 ADD SWAP2 POP POP PUSH1 0x40 MLOAD DUP1 SWAP2 SUB SWAP1 REVERT JUMPDEST PUSH32 0xB532073B38C83145E3E5135377A08BF9AAB55BC0FD7C1179CD4FB995D2A5159C PUSH1 0x0 DUP1 SWAP1 SLOAD SWAP1 PUSH2 0x100 EXP SWAP1 DIV PUSH20 0xFFFFFFFFFFFFFFFFFFFFFFFFFFFFFFFFFFFFFFFF AND PUSH1 0x1 PUSH1 0x0 SWAP1 SLOAD SWAP1 PUSH2 0x100 EXP SWAP1 DIV PUSH20 0xFFFFFFFFFFFFFFFFFFFFFFFFFFFFFFFFFFFFFFFF AND PUSH1 0x40 MLOAD DUP1 DUP4 PUSH20 0xFFFFFFFFFFFFFFFFFFFFFFFFFFFFFFFFFFFFFFFF AND PUSH20 0xFFFFFFFFFFFFFFFFFFFFFFFFFFFFFFFFFFFFFFFF AND DUP2 MSTORE PUSH1 0x20 ADD DUP3 PUSH20 0xFFFFFFFFFFFFFFFFFFFFFFFFFFFFFFFFFFFFFFFF AND PUSH20 0xFFFFFFFFFFFFFFFFFFFFFFFFFFFFFFFFFFFFFFFF AND DUP2 MSTORE PUSH1 0x20 ADD SWAP3 POP POP POP PUSH1 0x40 MLOAD DUP1 SWAP2 SUB SWAP1 LOG1 PUSH1 0x1 PUSH1 0x0 SWAP1 SLOAD SWAP1 PUSH2 0x100 EXP SWAP1 DIV PUSH20 0xFFFFFFFFFFFFFFFFFFFFFFFFFFFFFFFFFFFFFFFF AND PUSH1 0x0 DUP1 PUSH2 0x100 EXP DUP2 SLOAD DUP2 PUSH20 0xFFFFFFFFFFFFFFFFFFFFFFFFFFFFFFFFFFFFFFFF MUL NOT AND SWAP1 DUP4 PUSH20 0xFFFFFFFFFFFFFFFFFFFFFFFFFFFFFFFFFFFFFFFF AND MUL OR SWAP1 SSTORE POP PUSH1 0x0 PUSH1 0x1 PUSH1 0x0 PUSH2 0x100 EXP DUP2 SLOAD DUP2 PUSH20 0xFFFFFFFFFFFFFFFFFFFFFFFFFFFFFFFFFFFFFFFF MUL NOT AND SWAP1 DUP4 PUSH20 0xFFFFFFFFFFFFFFFFFFFFFFFFFFFFFFFFFFFFFFFF AND MUL OR SWAP1 SSTORE POP JUMP JUMPDEST PUSH1 0x0 PUSH2 0x2113 TIMESTAMP PUSH1 0x8 SLOAD PUSH2 0x2C1D JUMP JUMPDEST SWAP1 POP SWAP1 JUMP JUMPDEST PUSH1 0x6 PUSH1 0x0 SWAP1 SLOAD SWAP1 PUSH2 0x100 EXP SWAP1 DIV PUSH20 0xFFFFFFFFFFFFFFFFFFFFFFFFFFFFFFFFFFFFFFFF AND DUP2 JUMP JUMPDEST PUSH2 0x2146 PUSH2 0x2AA5 JUMP JUMPDEST PUSH1 0x7 PUSH1 0x0 SWAP1 SLOAD SWAP1 PUSH2 0x100 EXP SWAP1 DIV PUSH20 0xFFFFFFFFFFFFFFFFFFFFFFFFFFFFFFFFFFFFFFFF AND PUSH20 0xFFFFFFFFFFFFFFFFFFFFFFFFFFFFFFFFFFFFFFFF AND DUP3 PUSH20 0xFFFFFFFFFFFFFFFFFFFFFFFFFFFFFFFFFFFFFFFF AND EQ ISZERO PUSH2 0x21ED JUMPI PUSH1 0x40 MLOAD PUSH32 0x8C379A000000000000000000000000000000000000000000000000000000000 DUP2 MSTORE PUSH1 0x4 ADD DUP1 DUP1 PUSH1 0x20 ADD DUP3 DUP2 SUB DUP3 MSTORE PUSH1 0x21 DUP2 MSTORE PUSH1 0x20 ADD DUP1 PUSH2 0x30B4 PUSH1 0x21 SWAP2 CODECOPY PUSH1 0x40 ADD SWAP2 POP POP PUSH1 0x40 MLOAD DUP1 SWAP2 SUB SWAP1 REVERT JUMPDEST PUSH2 0x2239 PUSH1 0x0 DUP1 SWAP1 SLOAD SWAP1 PUSH2 0x100 EXP SWAP1 DIV PUSH20 0xFFFFFFFFFFFFFFFFFFFFFFFFFFFFFFFFFFFFFFFF AND DUP3 DUP5 PUSH20 0xFFFFFFFFFFFFFFFFFFFFFFFFFFFFFFFFFFFFFFFF AND PUSH2 0x2B4C SWAP1 SWAP3 SWAP2 SWAP1 PUSH4 0xFFFFFFFF AND JUMP JUMPDEST PUSH32 0x8C1256B8896378CD5044F80C202F9772B9D77DC85C8A6EB51967210B09BFAA28 DUP3 DUP3 PUSH1 0x40 MLOAD DUP1 DUP4 PUSH20 0xFFFFFFFFFFFFFFFFFFFFFFFFFFFFFFFFFFFFFFFF AND PUSH20 0xFFFFFFFFFFFFFFFFFFFFFFFFFFFFFFFFFFFFFFFF AND DUP2 MSTORE PUSH1 0x20 ADD DUP3 DUP2 MSTORE PUSH1 0x20 ADD SWAP3 POP POP POP PUSH1 0x40 MLOAD DUP1 SWAP2 SUB SWAP1 LOG1 POP POP JUMP JUMPDEST PUSH1 0x0 DUP1 SWAP1 SLOAD SWAP1 PUSH2 0x100 EXP SWAP1 DIV PUSH20 0xFFFFFFFFFFFFFFFFFFFFFFFFFFFFFFFFFFFFFFFF AND DUP2 JUMP JUMPDEST PUSH1 0x4 SLOAD DUP2 JUMP JUMPDEST PUSH1 0x1 PUSH1 0x3 PUSH1 0x0 DUP3 DUP3 SLOAD ADD SWAP3 POP POP DUP2 SWAP1 SSTORE POP PUSH1 0x0 PUSH1 0x3 SLOAD SWAP1 POP PUSH1 0x5 PUSH1 0x0 SWAP1 SLOAD SWAP1 PUSH2 0x100 EXP SWAP1 DIV PUSH1 0xFF AND ISZERO PUSH2 0x2351 JUMPI PUSH1 0x40 MLOAD PUSH32 0x8C379A000000000000000000000000000000000000000000000000000000000 DUP2 MSTORE PUSH1 0x4 ADD DUP1 DUP1 PUSH1 0x20 ADD DUP3 DUP2 SUB DUP3 MSTORE PUSH1 0x3C DUP2 MSTORE PUSH1 0x20 ADD DUP1 PUSH2 0x3020 PUSH1 0x3C SWAP2 CODECOPY PUSH1 0x40 ADD SWAP2 POP POP PUSH1 0x40 MLOAD DUP1 SWAP2 SUB SWAP1 REVERT JUMPDEST CALLER PUSH2 0x235A PUSH2 0x2749 JUMP JUMPDEST PUSH1 0xC DUP2 SWAP1 SSTORE POP PUSH2 0x2368 PUSH2 0x1DE2 JUMP JUMPDEST PUSH1 0xD DUP2 SWAP1 SSTORE POP PUSH2 0x2376 PUSH2 0x2105 JUMP JUMPDEST PUSH1 0xB DUP2 SWAP1 SSTORE POP PUSH1 0x0 PUSH20 0xFFFFFFFFFFFFFFFFFFFFFFFFFFFFFFFFFFFFFFFF AND DUP2 PUSH20 0xFFFFFFFFFFFFFFFFFFFFFFFFFFFFFFFFFFFFFFFF AND EQ PUSH2 0x2443 JUMPI PUSH2 0x23B9 DUP2 PUSH2 0x118F JUMP JUMPDEST PUSH1 0x10 PUSH1 0x0 DUP4 PUSH20 0xFFFFFFFFFFFFFFFFFFFFFFFFFFFFFFFFFFFFFFFF AND PUSH20 0xFFFFFFFFFFFFFFFFFFFFFFFFFFFFFFFFFFFFFFFF AND DUP2 MSTORE PUSH1 0x20 ADD SWAP1 DUP2 MSTORE PUSH1 0x20 ADD PUSH1 0x0 KECCAK256 DUP2 SWAP1 SSTORE POP PUSH1 0xC SLOAD PUSH1 0xE PUSH1 0x0 DUP4 PUSH20 0xFFFFFFFFFFFFFFFFFFFFFFFFFFFFFFFFFFFFFFFF AND PUSH20 0xFFFFFFFFFFFFFFFFFFFFFFFFFFFFFFFFFFFFFFFF AND DUP2 MSTORE PUSH1 0x20 ADD SWAP1 DUP2 MSTORE PUSH1 0x20 ADD PUSH1 0x0 KECCAK256 DUP2 SWAP1 SSTORE POP JUMPDEST PUSH1 0x0 PUSH20 0xFFFFFFFFFFFFFFFFFFFFFFFFFFFFFFFFFFFFFFFF AND DUP2 PUSH20 0xFFFFFFFFFFFFFFFFFFFFFFFFFFFFFFFFFFFFFFFF AND EQ PUSH2 0x250A JUMPI PUSH2 0x2480 DUP2 PUSH2 0x1CC4 JUMP JUMPDEST PUSH1 0x11 PUSH1 0x0 DUP4 PUSH20 0xFFFFFFFFFFFFFFFFFFFFFFFFFFFFFFFFFFFFFFFF AND PUSH20 0xFFFFFFFFFFFFFFFFFFFFFFFFFFFFFFFFFFFFFFFF AND DUP2 MSTORE PUSH1 0x20 ADD SWAP1 DUP2 MSTORE PUSH1 0x20 ADD PUSH1 0x0 KECCAK256 DUP2 SWAP1 SSTORE POP PUSH1 0xD SLOAD PUSH1 0xF PUSH1 0x0 DUP4 PUSH20 0xFFFFFFFFFFFFFFFFFFFFFFFFFFFFFFFFFFFFFFFF AND PUSH20 0xFFFFFFFFFFFFFFFFFFFFFFFFFFFFFFFFFFFFFFFF AND DUP2 MSTORE PUSH1 0x20 ADD SWAP1 DUP2 MSTORE PUSH1 0x20 ADD PUSH1 0x0 KECCAK256 DUP2 SWAP1 SSTORE POP JUMPDEST PUSH1 0x0 DUP4 GT PUSH2 0x2580 JUMPI PUSH1 0x40 MLOAD PUSH32 0x8C379A000000000000000000000000000000000000000000000000000000000 DUP2 MSTORE PUSH1 0x4 ADD DUP1 DUP1 PUSH1 0x20 ADD DUP3 DUP2 SUB DUP3 MSTORE PUSH1 0xE DUP2 MSTORE PUSH1 0x20 ADD DUP1 PUSH32 0x43616E6E6F74207374616B652030000000000000000000000000000000000000 DUP2 MSTORE POP PUSH1 0x20 ADD SWAP2 POP POP PUSH1 0x40 MLOAD DUP1 SWAP2 SUB SWAP1 REVERT JUMPDEST PUSH2 0x2595 DUP4 PUSH1 0x12 SLOAD PUSH2 0x287F SWAP1 SWAP2 SWAP1 PUSH4 0xFFFFFFFF AND JUMP JUMPDEST PUSH1 0x12 DUP2 SWAP1 SSTORE POP PUSH2 0x25ED DUP4 PUSH1 0x13 PUSH1 0x0 CALLER PUSH20 0xFFFFFFFFFFFFFFFFFFFFFFFFFFFFFFFFFFFFFFFF AND PUSH20 0xFFFFFFFFFFFFFFFFFFFFFFFFFFFFFFFFFFFFFFFF AND DUP2 MSTORE PUSH1 0x20 ADD SWAP1 DUP2 MSTORE PUSH1 0x20 ADD PUSH1 0x0 KECCAK256 SLOAD PUSH2 0x287F SWAP1 SWAP2 SWAP1 PUSH4 0xFFFFFFFF AND JUMP JUMPDEST PUSH1 0x13 PUSH1 0x0 CALLER PUSH20 0xFFFFFFFFFFFFFFFFFFFFFFFFFFFFFFFFFFFFFFFF AND PUSH20 0xFFFFFFFFFFFFFFFFFFFFFFFFFFFFFFFFFFFFFFFF AND DUP2 MSTORE PUSH1 0x20 ADD SWAP1 DUP2 MSTORE PUSH1 0x20 ADD PUSH1 0x0 KECCAK256 DUP2 SWAP1 SSTORE POP PUSH2 0x267F CALLER ADDRESS DUP6 PUSH1 0x7 PUSH1 0x0 SWAP1 SLOAD SWAP1 PUSH2 0x100 EXP SWAP1 DIV PUSH20 0xFFFFFFFFFFFFFFFFFFFFFFFFFFFFFFFFFFFFFFFF AND PUSH20 0xFFFFFFFFFFFFFFFFFFFFFFFFFFFFFFFFFFFFFFFF AND PUSH2 0x2C36 SWAP1 SWAP4 SWAP3 SWAP2 SWAP1 PUSH4 0xFFFFFFFF AND JUMP JUMPDEST CALLER PUSH20 0xFFFFFFFFFFFFFFFFFFFFFFFFFFFFFFFFFFFFFFFF AND PUSH32 0x9E71BC8EEA02A63969F509818F2DAFB9254532904319F9DBDA79B67BD34A5F3D DUP5 PUSH1 0x40 MLOAD DUP1 DUP3 DUP2 MSTORE PUSH1 0x20 ADD SWAP2 POP POP PUSH1 0x40 MLOAD DUP1 SWAP2 SUB SWAP1 LOG2 POP PUSH1 0x3 SLOAD DUP2 EQ PUSH2 0x2745 JUMPI PUSH1 0x40 MLOAD PUSH32 0x8C379A000000000000000000000000000000000000000000000000000000000 DUP2 MSTORE PUSH1 0x4 ADD DUP1 DUP1 PUSH1 0x20 ADD DUP3 DUP2 SUB DUP3 MSTORE PUSH1 0x1F DUP2 MSTORE PUSH1 0x20 ADD DUP1 PUSH32 0x5265656E7472616E637947756172643A207265656E7472616E742063616C6C00 DUP2 MSTORE POP PUSH1 0x20 ADD SWAP2 POP POP PUSH1 0x40 MLOAD DUP1 SWAP2 SUB SWAP1 REVERT JUMPDEST POP POP JUMP JUMPDEST PUSH1 0x0 DUP1 PUSH1 0x12 SLOAD EQ ISZERO PUSH2 0x275F JUMPI PUSH1 0xC SLOAD SWAP1 POP PUSH2 0x27D4 JUMP JUMPDEST PUSH2 0x27D1 PUSH2 0x27C0 PUSH1 0x12 SLOAD PUSH2 0x27B2 PUSH8 0xDE0B6B3A7640000 PUSH2 0x27A4 PUSH1 0x9 SLOAD PUSH2 0x2796 PUSH1 0xB SLOAD PUSH2 0x2788 PUSH2 0x2105 JUMP JUMPDEST PUSH2 0x2996 SWAP1 SWAP2 SWAP1 PUSH4 0xFFFFFFFF AND JUMP JUMPDEST PUSH2 0x2A1F SWAP1 SWAP2 SWAP1 PUSH4 0xFFFFFFFF AND JUMP JUMPDEST PUSH2 0x2A1F SWAP1 SWAP2 SWAP1 PUSH4 0xFFFFFFFF AND JUMP JUMPDEST PUSH2 0x2907 SWAP1 SWAP2 SWAP1 PUSH4 0xFFFFFFFF AND JUMP JUMPDEST PUSH1 0xC SLOAD PUSH2 0x287F SWAP1 SWAP2 SWAP1 PUSH4 0xFFFFFFFF AND JUMP JUMPDEST SWAP1 POP JUMPDEST SWAP1 JUMP JUMPDEST PUSH1 0x11 PUSH1 0x20 MSTORE DUP1 PUSH1 0x0 MSTORE PUSH1 0x40 PUSH1 0x0 KECCAK256 PUSH1 0x0 SWAP2 POP SWAP1 POP SLOAD DUP2 JUMP JUMPDEST PUSH1 0xB SLOAD DUP2 JUMP JUMPDEST PUSH2 0x283D PUSH1 0x13 PUSH1 0x0 CALLER PUSH20 0xFFFFFFFFFFFFFFFFFFFFFFFFFFFFFFFFFFFFFFFF AND PUSH20 0xFFFFFFFFFFFFFFFFFFFFFFFFFFFFFFFFFFFFFFFF AND DUP2 MSTORE PUSH1 0x20 ADD SWAP1 DUP2 MSTORE PUSH1 0x20 ADD PUSH1 0x0 KECCAK256 SLOAD PUSH2 0x12CB JUMP JUMPDEST PUSH2 0x2845 PUSH2 0x16F1 JUMP JUMPDEST JUMP JUMPDEST PUSH1 0x8 SLOAD DUP2 JUMP JUMPDEST PUSH1 0xA SLOAD DUP2 JUMP JUMPDEST PUSH1 0xC SLOAD DUP2 JUMP JUMPDEST PUSH1 0x2 PUSH1 0x0 SWAP1 SLOAD SWAP1 PUSH2 0x100 EXP SWAP1 DIV PUSH20 0xFFFFFFFFFFFFFFFFFFFFFFFFFFFFFFFFFFFFFFFF AND DUP2 JUMP JUMPDEST PUSH1 0x0 DUP1 DUP3 DUP5 ADD SWAP1 POP DUP4 DUP2 LT ISZERO PUSH2 0x28FD JUMPI PUSH1 0x40 MLOAD PUSH32 0x8C379A000000000000000000000000000000000000000000000000000000000 DUP2 MSTORE PUSH1 0x4 ADD DUP1 DUP1 PUSH1 0x20 ADD DUP3 DUP2 SUB DUP3 MSTORE PUSH1 0x1B DUP2 MSTORE PUSH1 0x20 ADD DUP1 PUSH32 0x536166654D6174683A206164646974696F6E206F766572666C6F770000000000 DUP2 MSTORE POP PUSH1 0x20 ADD SWAP2 POP POP PUSH1 0x40 MLOAD DUP1 SWAP2 SUB SWAP1 REVERT JUMPDEST DUP1 SWAP2 POP POP SWAP3 SWAP2 POP POP JUMP JUMPDEST PUSH1 0x0 DUP1 DUP3 GT PUSH2 0x297E JUMPI PUSH1 0x40 MLOAD PUSH32 0x8C379A000000000000000000000000000000000000000000000000000000000 DUP2 MSTORE PUSH1 0x4 ADD DUP1 DUP1 PUSH1 0x20 ADD DUP3 DUP2 SUB DUP3 MSTORE PUSH1 0x1A DUP2 MSTORE PUSH1 0x20 ADD DUP1 PUSH32 0x536166654D6174683A206469766973696F6E206279207A65726F000000000000 DUP2 MSTORE POP PUSH1 0x20 ADD SWAP2 POP POP PUSH1 0x40 MLOAD DUP1 SWAP2 SUB SWAP1 REVERT JUMPDEST PUSH1 0x0 DUP3 DUP5 DUP2 PUSH2 0x2989 JUMPI INVALID JUMPDEST DIV SWAP1 POP DUP1 SWAP2 POP POP SWAP3 SWAP2 POP POP JUMP JUMPDEST PUSH1 0x0 DUP3 DUP3 GT ISZERO PUSH2 0x2A0E JUMPI PUSH1 0x40 MLOAD PUSH32 0x8C379A000000000000000000000000000000000000000000000000000000000 DUP2 MSTORE PUSH1 0x4 ADD DUP1 DUP1 PUSH1 0x20 ADD DUP3 DUP2 SUB DUP3 MSTORE PUSH1 0x1E DUP2 MSTORE PUSH1 0x20 ADD DUP1 PUSH32 0x536166654D6174683A207375627472616374696F6E206F766572666C6F770000 DUP2 MSTORE POP PUSH1 0x20 ADD SWAP2 POP POP PUSH1 0x40 MLOAD DUP1 SWAP2 SUB SWAP1 REVERT JUMPDEST PUSH1 0x0 DUP3 DUP5 SUB SWAP1 POP DUP1 SWAP2 POP POP SWAP3 SWAP2 POP POP JUMP JUMPDEST PUSH1 0x0 DUP1 DUP4 EQ ISZERO PUSH2 0x2A32 JUMPI PUSH1 0x0 SWAP1 POP PUSH2 0x2A9F JUMP JUMPDEST PUSH1 0x0 DUP3 DUP5 MUL SWAP1 POP DUP3 DUP5 DUP3 DUP2 PUSH2 0x2A43 JUMPI INVALID JUMPDEST DIV EQ PUSH2 0x2A9A JUMPI PUSH1 0x40 MLOAD PUSH32 0x8C379A000000000000000000000000000000000000000000000000000000000 DUP2 MSTORE PUSH1 0x4 ADD DUP1 DUP1 PUSH1 0x20 ADD DUP3 DUP2 SUB DUP3 MSTORE PUSH1 0x21 DUP2 MSTORE PUSH1 0x20 ADD DUP1 PUSH2 0x2FFF PUSH1 0x21 SWAP2 CODECOPY PUSH1 0x40 ADD SWAP2 POP POP PUSH1 0x40 MLOAD DUP1 SWAP2 SUB SWAP1 REVERT JUMPDEST DUP1 SWAP2 POP POP JUMPDEST SWAP3 SWAP2 POP POP JUMP JUMPDEST PUSH1 0x0 DUP1 SWAP1 SLOAD SWAP1 PUSH2 0x100 EXP SWAP1 DIV PUSH20 0xFFFFFFFFFFFFFFFFFFFFFFFFFFFFFFFFFFFFFFFF AND PUSH20 0xFFFFFFFFFFFFFFFFFFFFFFFFFFFFFFFFFFFFFFFF AND CALLER PUSH20 0xFFFFFFFFFFFFFFFFFFFFFFFFFFFFFFFFFFFFFFFF AND EQ PUSH2 0x2B4A JUMPI PUSH1 0x40 MLOAD PUSH32 0x8C379A000000000000000000000000000000000000000000000000000000000 DUP2 MSTORE PUSH1 0x4 ADD DUP1 DUP1 PUSH1 0x20 ADD DUP3 DUP2 SUB DUP3 MSTORE PUSH1 0x2F DUP2 MSTORE PUSH1 0x20 ADD DUP1 PUSH2 0x2FD0 PUSH1 0x2F SWAP2 CODECOPY PUSH1 0x40 ADD SWAP2 POP POP PUSH1 0x40 MLOAD DUP1 SWAP2 SUB SWAP1 REVERT JUMPDEST JUMP JUMPDEST PUSH2 0x2C18 DUP4 DUP5 PUSH20 0xFFFFFFFFFFFFFFFFFFFFFFFFFFFFFFFFFFFFFFFF AND PUSH4 0xA9059CBB SWAP1 POP PUSH1 0xE0 SHL DUP5 DUP5 PUSH1 0x40 MLOAD PUSH1 0x24 ADD DUP1 DUP4 PUSH20 0xFFFFFFFFFFFFFFFFFFFFFFFFFFFFFFFFFFFFFFFF AND PUSH20 0xFFFFFFFFFFFFFFFFFFFFFFFFFFFFFFFFFFFFFFFF AND DUP2 MSTORE PUSH1 0x20 ADD DUP3 DUP2 MSTORE PUSH1 0x20 ADD SWAP3 POP POP POP PUSH1 0x40 MLOAD PUSH1 0x20 DUP2 DUP4 SUB SUB DUP2 MSTORE SWAP1 PUSH1 0x40 MSTORE SWAP1 PUSH28 0xFFFFFFFFFFFFFFFFFFFFFFFFFFFFFFFFFFFFFFFFFFFFFFFFFFFFFFFF NOT AND PUSH1 0x20 DUP3 ADD DUP1 MLOAD PUSH28 0xFFFFFFFFFFFFFFFFFFFFFFFFFFFFFFFFFFFFFFFFFFFFFFFFFFFFFFFF DUP4 DUP2 DUP4 AND OR DUP4 MSTORE POP POP POP POP PUSH2 0x2D3C JUMP JUMPDEST POP POP POP JUMP JUMPDEST PUSH1 0x0 DUP2 DUP4 LT PUSH2 0x2C2C JUMPI DUP2 PUSH2 0x2C2E JUMP JUMPDEST DUP3 JUMPDEST SWAP1 POP SWAP3 SWAP2 POP POP JUMP JUMPDEST PUSH2 0x2D36 DUP5 DUP6 PUSH20 0xFFFFFFFFFFFFFFFFFFFFFFFFFFFFFFFFFFFFFFFF AND PUSH4 0x23B872DD SWAP1 POP PUSH1 0xE0 SHL DUP6 DUP6 DUP6 PUSH1 0x40 MLOAD PUSH1 0x24 ADD DUP1 DUP5 PUSH20 0xFFFFFFFFFFFFFFFFFFFFFFFFFFFFFFFFFFFFFFFF AND PUSH20 0xFFFFFFFFFFFFFFFFFFFFFFFFFFFFFFFFFFFFFFFF AND DUP2 MSTORE PUSH1 0x20 ADD DUP4 PUSH20 0xFFFFFFFFFFFFFFFFFFFFFFFFFFFFFFFFFFFFFFFF AND PUSH20 0xFFFFFFFFFFFFFFFFFFFFFFFFFFFFFFFFFFFFFFFF AND DUP2 MSTORE PUSH1 0x20 ADD DUP3 DUP2 MSTORE PUSH1 0x20 ADD SWAP4 POP POP POP POP PUSH1 0x40 MLOAD PUSH1 0x20 DUP2 DUP4 SUB SUB DUP2 MSTORE SWAP1 PUSH1 0x40 MSTORE SWAP1 PUSH28 0xFFFFFFFFFFFFFFFFFFFFFFFFFFFFFFFFFFFFFFFFFFFFFFFFFFFFFFFF NOT AND PUSH1 0x20 DUP3 ADD DUP1 MLOAD PUSH28 0xFFFFFFFFFFFFFFFFFFFFFFFFFFFFFFFFFFFFFFFFFFFFFFFFFFFFFFFF DUP4 DUP2 DUP4 AND OR DUP4 MSTORE POP POP POP POP PUSH2 0x2D3C JUMP JUMPDEST POP POP POP POP JUMP JUMPDEST PUSH2 0x2D5B DUP3 PUSH20 0xFFFFFFFFFFFFFFFFFFFFFFFFFFFFFFFFFFFFFFFF AND PUSH2 0x2F87 JUMP JUMPDEST PUSH2 0x2DCD JUMPI PUSH1 0x40 MLOAD PUSH32 0x8C379A000000000000000000000000000000000000000000000000000000000 DUP2 MSTORE PUSH1 0x4 ADD DUP1 DUP1 PUSH1 0x20 ADD DUP3 DUP2 SUB DUP3 MSTORE PUSH1 0x1F DUP2 MSTORE PUSH1 0x20 ADD DUP1 PUSH32 0x5361666545524332303A2063616C6C20746F206E6F6E2D636F6E747261637400 DUP2 MSTORE POP PUSH1 0x20 ADD SWAP2 POP POP PUSH1 0x40 MLOAD DUP1 SWAP2 SUB SWAP1 REVERT JUMPDEST PUSH1 0x0 PUSH1 0x60 DUP4 PUSH20 0xFFFFFFFFFFFFFFFFFFFFFFFFFFFFFFFFFFFFFFFF AND DUP4 PUSH1 0x40 MLOAD DUP1 DUP3 DUP1 MLOAD SWAP1 PUSH1 0x20 ADD SWAP1 DUP1 DUP4 DUP4 JUMPDEST PUSH1 0x20 DUP4 LT PUSH2 0x2E1C JUMPI DUP1 MLOAD DUP3 MSTORE PUSH1 0x20 DUP3 ADD SWAP2 POP PUSH1 0x20 DUP2 ADD SWAP1 POP PUSH1 0x20 DUP4 SUB SWAP3 POP PUSH2 0x2DF9 JUMP JUMPDEST PUSH1 0x1 DUP4 PUSH1 0x20 SUB PUSH2 0x100 EXP SUB DUP1 NOT DUP3 MLOAD AND DUP2 DUP5 MLOAD AND DUP1 DUP3 OR DUP6 MSTORE POP POP POP POP POP POP SWAP1 POP ADD SWAP2 POP POP PUSH1 0x0 PUSH1 0x40 MLOAD DUP1 DUP4 SUB DUP2 PUSH1 0x0 DUP7 GAS CALL SWAP2 POP POP RETURNDATASIZE DUP1 PUSH1 0x0 DUP2 EQ PUSH2 0x2E7E JUMPI PUSH1 0x40 MLOAD SWAP2 POP PUSH1 0x1F NOT PUSH1 0x3F RETURNDATASIZE ADD AND DUP3 ADD PUSH1 0x40 MSTORE RETURNDATASIZE DUP3 MSTORE RETURNDATASIZE PUSH1 0x0 PUSH1 0x20 DUP5 ADD RETURNDATACOPY PUSH2 0x2E83 JUMP JUMPDEST PUSH1 0x60 SWAP2 POP JUMPDEST POP SWAP2 POP SWAP2 POP DUP2 PUSH2 0x2EFB JUMPI PUSH1 0x40 MLOAD PUSH32 0x8C379A000000000000000000000000000000000000000000000000000000000 DUP2 MSTORE PUSH1 0x4 ADD DUP1 DUP1 PUSH1 0x20 ADD DUP3 DUP2 SUB DUP3 MSTORE PUSH1 0x20 DUP2 MSTORE PUSH1 0x20 ADD DUP1 PUSH32 0x5361666545524332303A206C6F772D6C6576656C2063616C6C206661696C6564 DUP2 MSTORE POP PUSH1 0x20 ADD SWAP2 POP POP PUSH1 0x40 MLOAD DUP1 SWAP2 SUB SWAP1 REVERT JUMPDEST PUSH1 0x0 DUP2 MLOAD GT ISZERO PUSH2 0x2F81 JUMPI DUP1 DUP1 PUSH1 0x20 ADD SWAP1 MLOAD PUSH1 0x20 DUP2 LT ISZERO PUSH2 0x2F1A JUMPI PUSH1 0x0 DUP1 REVERT JUMPDEST DUP2 ADD SWAP1 DUP1 DUP1 MLOAD SWAP1 PUSH1 0x20 ADD SWAP1 SWAP3 SWAP2 SWAP1 POP POP POP PUSH2 0x2F80 JUMPI PUSH1 0x40 MLOAD PUSH32 0x8C379A000000000000000000000000000000000000000000000000000000000 DUP2 MSTORE PUSH1 0x4 ADD DUP1 DUP1 PUSH1 0x20 ADD DUP3 DUP2 SUB DUP3 MSTORE PUSH1 0x2A DUP2 MSTORE PUSH1 0x20 ADD DUP1 PUSH2 0x308A PUSH1 0x2A SWAP2 CODECOPY PUSH1 0x40 ADD SWAP2 POP POP PUSH1 0x40 MLOAD DUP1 SWAP2 SUB SWAP1 REVERT JUMPDEST JUMPDEST POP POP POP POP JUMP JUMPDEST PUSH1 0x0 DUP1 DUP3 EXTCODESIZE SWAP1 POP PUSH1 0x0 DUP2 GT SWAP2 POP POP SWAP2 SWAP1 POP JUMP INVALID MSIZE PUSH16 0x75206D757374206265206E6F6D696E61 PUSH21 0x6564206265666F726520796F752063616E20616363 PUSH6 0x7074206F776E PUSH6 0x72736869704F PUSH15 0x6C792074686520636F6E7472616374 KECCAK256 PUSH16 0x776E6572206D617920706572666F726D KECCAK256 PUSH21 0x68697320616374696F6E536166654D6174683A206D PUSH22 0x6C7469706C69636174696F6E206F766572666C6F7754 PUSH9 0x697320616374696F6E KECCAK256 PUSH4 0x616E6E6F PUSH21 0x20626520706572666F726D6564207768696C652074 PUSH9 0x6520636F6E74726163 PUSH21 0x2069732070617573656443616C6C6572206973206E PUSH16 0x74204475616C52657761726473446973 PUSH21 0x7269627574696F6E20636F6E747261637453616665 GASLIMIT MSTORE NUMBER ORIGIN ADDRESS GASPRICE KECCAK256 GASLIMIT MSTORE NUMBER ORIGIN ADDRESS KECCAK256 PUSH16 0x7065726174696F6E20646964206E6F74 KECCAK256 PUSH20 0x75636365656443616E6E6F742077697468647261 PUSH24 0x20746865207374616B696E6720746F6B656EA265627A7A72 BALANCE PC KECCAK256 0xD7 LOG2 PUSH14 0xEC729452026FF8D2E8760293D513 0xAE STATICCALL SWAP9 0xD9 0xD6 RETURNDATACOPY 0xDC DUP13 CALLDATACOPY ORIGIN POP SWAP7 0xBA POP 0xD4 PUSH5 0x736F6C6343 STOP SDIV LT STOP ORIGIN PUSH19 0x65776172647320746F6B656E732073686F756C PUSH5 0x2062652064 PUSH10 0x66666572656E74000000 "
				},
				"gasEstimates": {
					"creation": {
						"codeDepositCost": "2510600",
						"executionCost": "infinite",
						"totalCost": "infinite"
					},
					"external": {
						"acceptOwnership()": "infinite",
						"balanceOf(address)": "1242",
						"dualRewardsDistribution()": "1185",
						"earnedA(address)": "infinite",
						"earnedB(address)": "infinite",
						"exit()": "infinite",
						"getReward()": "infinite",
						"lastPauseTime()": "1116",
						"lastTimeRewardApplicable()": "1206",
						"lastUpdateTime()": "1116",
						"nominateNewOwner(address)": "infinite",
						"nominatedOwner()": "1098",
						"notifyRewardAmount(uint256,uint256,uint256)": "infinite",
						"owner()": "1142",
						"paused()": "1120",
						"periodFinish()": "1071",
						"recoverERC20(address,uint256)": "infinite",
						"rewardPerTokenA()": "infinite",
						"rewardPerTokenAStored()": "1115",
						"rewardPerTokenB()": "infinite",
						"rewardPerTokenBStored()": "1117",
						"rewardRateA()": "1073",
						"rewardRateB()": "1093",
						"rewardsA(address)": "1259",
						"rewardsB(address)": "1258",
						"rewardsTokenA()": "1192",
						"rewardsTokenB()": "1098",
						"setPaused(bool)": "infinite",
						"stake(uint256)": "infinite",
						"stakingToken()": "1121",
						"totalSupply()": "1126",
						"userRewardPerTokenAPaid(address)": "1259",
						"userRewardPerTokenBPaid(address)": "1215",
						"withdraw(uint256)": "infinite"
					}
				},
				"methodIdentifiers": {
					"acceptOwnership()": "79ba5097",
					"balanceOf(address)": "70a08231",
					"dualRewardsDistribution()": "ff510b06",
					"earnedA(address)": "1820d739",
					"earnedB(address)": "60fb3626",
					"exit()": "e9fad8ee",
					"getReward()": "3d18b912",
					"lastPauseTime()": "91b4ded9",
					"lastTimeRewardApplicable()": "80faa57d",
					"lastUpdateTime()": "c8f33c91",
					"nominateNewOwner(address)": "1627540c",
					"nominatedOwner()": "53a47bb7",
					"notifyRewardAmount(uint256,uint256,uint256)": "06e32820",
					"owner()": "8da5cb5b",
					"paused()": "5c975abb",
					"periodFinish()": "ebe2b12b",
					"recoverERC20(address,uint256)": "8980f11f",
					"rewardPerTokenA()": "a85594ad",
					"rewardPerTokenAStored()": "f5630550",
					"rewardPerTokenB()": "68213329",
					"rewardPerTokenBStored()": "513c508a",
					"rewardRateA()": "255cfca3",
					"rewardRateB()": "efa1c63c",
					"rewardsA(address)": "266a74ca",
					"rewardsB(address)": "b95f0079",
					"rewardsTokenA()": "5fd1020c",
					"rewardsTokenB()": "88c4c666",
					"setPaused(bool)": "16c38b3c",
					"stake(uint256)": "a694fc3a",
					"stakingToken()": "72f702f3",
					"totalSupply()": "18160ddd",
					"userRewardPerTokenAPaid(address)": "4ea4618b",
					"userRewardPerTokenBPaid(address)": "34584d3a",
					"withdraw(uint256)": "2e1a7d4d"
				}
			},
			"storageLayout": {
				"storage": [
					{
						"astId": 642,
						"contract": "staking/StakingRewardsDualFactory.sol:StakingDualRewards",
						"label": "owner",
						"offset": 0,
						"slot": "0",
						"type": "t_address"
					},
					{
						"astId": 644,
						"contract": "staking/StakingRewardsDualFactory.sol:StakingDualRewards",
						"label": "nominatedOwner",
						"offset": 0,
						"slot": "1",
						"type": "t_address"
					},
					{
						"astId": 747,
						"contract": "staking/StakingRewardsDualFactory.sol:StakingDualRewards",
						"label": "dualRewardsDistribution",
						"offset": 0,
						"slot": "2",
						"type": "t_address"
					},
					{
						"astId": 554,
						"contract": "staking/StakingRewardsDualFactory.sol:StakingDualRewards",
						"label": "_guardCounter",
						"offset": 0,
						"slot": "3",
						"type": "t_uint256"
					},
					{
						"astId": 773,
						"contract": "staking/StakingRewardsDualFactory.sol:StakingDualRewards",
						"label": "lastPauseTime",
						"offset": 0,
						"slot": "4",
						"type": "t_uint256"
					},
					{
						"astId": 775,
						"contract": "staking/StakingRewardsDualFactory.sol:StakingDualRewards",
						"label": "paused",
						"offset": 0,
						"slot": "5",
						"type": "t_bool"
					},
					{
						"astId": 848,
						"contract": "staking/StakingRewardsDualFactory.sol:StakingDualRewards",
						"label": "rewardsTokenA",
						"offset": 1,
						"slot": "5",
						"type": "t_contract(IERC20)266"
					},
					{
						"astId": 850,
						"contract": "staking/StakingRewardsDualFactory.sol:StakingDualRewards",
						"label": "rewardsTokenB",
						"offset": 0,
						"slot": "6",
						"type": "t_contract(IERC20)266"
					},
					{
						"astId": 852,
						"contract": "staking/StakingRewardsDualFactory.sol:StakingDualRewards",
						"label": "stakingToken",
						"offset": 0,
						"slot": "7",
						"type": "t_contract(IERC20)266"
					},
					{
						"astId": 855,
						"contract": "staking/StakingRewardsDualFactory.sol:StakingDualRewards",
						"label": "periodFinish",
						"offset": 0,
						"slot": "8",
						"type": "t_uint256"
					},
					{
						"astId": 858,
						"contract": "staking/StakingRewardsDualFactory.sol:StakingDualRewards",
						"label": "rewardRateA",
						"offset": 0,
						"slot": "9",
						"type": "t_uint256"
					},
					{
						"astId": 861,
						"contract": "staking/StakingRewardsDualFactory.sol:StakingDualRewards",
						"label": "rewardRateB",
						"offset": 0,
						"slot": "10",
						"type": "t_uint256"
					},
					{
						"astId": 863,
						"contract": "staking/StakingRewardsDualFactory.sol:StakingDualRewards",
						"label": "lastUpdateTime",
						"offset": 0,
						"slot": "11",
						"type": "t_uint256"
					},
					{
						"astId": 865,
						"contract": "staking/StakingRewardsDualFactory.sol:StakingDualRewards",
						"label": "rewardPerTokenAStored",
						"offset": 0,
						"slot": "12",
						"type": "t_uint256"
					},
					{
						"astId": 867,
						"contract": "staking/StakingRewardsDualFactory.sol:StakingDualRewards",
						"label": "rewardPerTokenBStored",
						"offset": 0,
						"slot": "13",
						"type": "t_uint256"
					},
					{
						"astId": 871,
						"contract": "staking/StakingRewardsDualFactory.sol:StakingDualRewards",
						"label": "userRewardPerTokenAPaid",
						"offset": 0,
						"slot": "14",
						"type": "t_mapping(t_address,t_uint256)"
					},
					{
						"astId": 875,
						"contract": "staking/StakingRewardsDualFactory.sol:StakingDualRewards",
						"label": "userRewardPerTokenBPaid",
						"offset": 0,
						"slot": "15",
						"type": "t_mapping(t_address,t_uint256)"
					},
					{
						"astId": 879,
						"contract": "staking/StakingRewardsDualFactory.sol:StakingDualRewards",
						"label": "rewardsA",
						"offset": 0,
						"slot": "16",
						"type": "t_mapping(t_address,t_uint256)"
					},
					{
						"astId": 883,
						"contract": "staking/StakingRewardsDualFactory.sol:StakingDualRewards",
						"label": "rewardsB",
						"offset": 0,
						"slot": "17",
						"type": "t_mapping(t_address,t_uint256)"
					},
					{
						"astId": 885,
						"contract": "staking/StakingRewardsDualFactory.sol:StakingDualRewards",
						"label": "_totalSupply",
						"offset": 0,
						"slot": "18",
						"type": "t_uint256"
					},
					{
						"astId": 889,
						"contract": "staking/StakingRewardsDualFactory.sol:StakingDualRewards",
						"label": "_balances",
						"offset": 0,
						"slot": "19",
						"type": "t_mapping(t_address,t_uint256)"
					}
				],
				"types": {
					"t_address": {
						"encoding": "inplace",
						"label": "address",
						"numberOfBytes": "20"
					},
					"t_bool": {
						"encoding": "inplace",
						"label": "bool",
						"numberOfBytes": "1"
					},
					"t_contract(IERC20)266": {
						"encoding": "inplace",
						"label": "contract IERC20",
						"numberOfBytes": "20"
					},
					"t_mapping(t_address,t_uint256)": {
						"encoding": "mapping",
						"key": "t_address",
						"label": "mapping(address => uint256)",
						"numberOfBytes": "32",
						"value": "t_uint256"
					},
					"t_uint256": {
						"encoding": "inplace",
						"label": "uint256",
						"numberOfBytes": "32"
					}
				}
			},
			"userdoc": {
				"methods": {
					"setPaused(bool)": {
						"notice": "Change the paused state of the contract"
					}
				}
			}
		}
	}
}