{
	"staking/StakingRewardsFactory.sol": {
		"StakingRewardsFactory": {
			"abi": [
				{
					"inputs": [
						{
							"internalType": "address",
							"name": "_rewardsToken",
							"type": "address"
						},
						{
							"internalType": "uint256",
							"name": "_stakingRewardsGenesis",
							"type": "uint256"
						}
					],
					"payable": false,
					"stateMutability": "nonpayable",
					"type": "constructor"
				},
				{
					"anonymous": false,
					"inputs": [
						{
							"indexed": true,
							"internalType": "address",
							"name": "previousOwner",
							"type": "address"
						},
						{
							"indexed": true,
							"internalType": "address",
							"name": "newOwner",
							"type": "address"
						}
					],
					"name": "OwnershipTransferred",
					"type": "event"
				},
				{
					"constant": false,
					"inputs": [
						{
							"internalType": "address",
							"name": "stakingToken",
							"type": "address"
						},
						{
							"internalType": "uint256",
							"name": "rewardAmount",
							"type": "uint256"
						},
						{
							"internalType": "uint256",
							"name": "rewardsDuration",
							"type": "uint256"
						}
					],
					"name": "deploy",
					"outputs": [],
					"payable": false,
					"stateMutability": "nonpayable",
					"type": "function"
				},
				{
					"constant": true,
					"inputs": [],
					"name": "isOwner",
					"outputs": [
						{
							"internalType": "bool",
							"name": "",
							"type": "bool"
						}
					],
					"payable": false,
					"stateMutability": "view",
					"type": "function"
				},
				{
					"constant": false,
					"inputs": [
						{
							"internalType": "address",
							"name": "stakingToken",
							"type": "address"
						}
					],
					"name": "notifyRewardAmount",
					"outputs": [],
					"payable": false,
					"stateMutability": "nonpayable",
					"type": "function"
				},
				{
					"constant": false,
					"inputs": [],
					"name": "notifyRewardAmounts",
					"outputs": [],
					"payable": false,
					"stateMutability": "nonpayable",
					"type": "function"
				},
				{
					"constant": true,
					"inputs": [],
					"name": "owner",
					"outputs": [
						{
							"internalType": "address",
							"name": "",
							"type": "address"
						}
					],
					"payable": false,
					"stateMutability": "view",
					"type": "function"
				},
				{
					"constant": false,
					"inputs": [
						{
							"internalType": "address",
							"name": "token",
							"type": "address"
						},
						{
							"internalType": "uint256",
							"name": "amount",
							"type": "uint256"
						}
					],
					"name": "pullExtraTokens",
					"outputs": [],
					"payable": false,
					"stateMutability": "nonpayable",
					"type": "function"
				},
				{
					"constant": false,
					"inputs": [],
					"name": "renounceOwnership",
					"outputs": [],
					"payable": false,
					"stateMutability": "nonpayable",
					"type": "function"
				},
				{
					"constant": true,
					"inputs": [],
					"name": "rewardsToken",
					"outputs": [
						{
							"internalType": "address",
							"name": "",
							"type": "address"
						}
					],
					"payable": false,
					"stateMutability": "view",
					"type": "function"
				},
				{
					"constant": true,
					"inputs": [],
					"name": "stakingRewardsGenesis",
					"outputs": [
						{
							"internalType": "uint256",
							"name": "",
							"type": "uint256"
						}
					],
					"payable": false,
					"stateMutability": "view",
					"type": "function"
				},
				{
					"constant": true,
					"inputs": [
						{
							"internalType": "address",
							"name": "",
							"type": "address"
						}
					],
					"name": "stakingRewardsInfoByStakingToken",
					"outputs": [
						{
							"internalType": "address",
							"name": "stakingRewards",
							"type": "address"
						},
						{
							"internalType": "uint256",
							"name": "rewardAmount",
							"type": "uint256"
						},
						{
							"internalType": "uint256",
							"name": "duration",
							"type": "uint256"
						}
					],
					"payable": false,
					"stateMutability": "view",
					"type": "function"
				},
				{
					"constant": true,
					"inputs": [
						{
							"internalType": "uint256",
							"name": "",
							"type": "uint256"
						}
					],
					"name": "stakingTokens",
					"outputs": [
						{
							"internalType": "address",
							"name": "",
							"type": "address"
						}
					],
					"payable": false,
					"stateMutability": "view",
					"type": "function"
				},
				{
					"constant": false,
					"inputs": [
						{
							"internalType": "address",
							"name": "newOwner",
							"type": "address"
						}
					],
					"name": "transferOwnership",
					"outputs": [],
					"payable": false,
					"stateMutability": "nonpayable",
					"type": "function"
				},
				{
					"constant": false,
					"inputs": [
						{
							"internalType": "address",
							"name": "stakingToken",
							"type": "address"
						},
						{
							"internalType": "uint256",
							"name": "rewardAmount",
							"type": "uint256"
						},
						{
							"internalType": "uint256",
							"name": "rewardsDuration",
							"type": "uint256"
						}
					],
					"name": "update",
					"outputs": [],
					"payable": false,
					"stateMutability": "nonpayable",
					"type": "function"
				}
			],
			"devdoc": {
				"methods": {
					"isOwner()": {
						"details": "Returns true if the caller is the current owner."
					},
					"owner()": {
						"details": "Returns the address of the current owner."
					},
					"renounceOwnership()": {
						"details": "Leaves the contract without owner. It will not be possible to call `onlyOwner` functions anymore. Can only be called by the current owner.     * > Note: Renouncing ownership will leave the contract without an owner, thereby removing any functionality that is only available to the owner."
					},
					"transferOwnership(address)": {
						"details": "Transfers ownership of the contract to a new account (`newOwner`). Can only be called by the current owner."
					}
				}
			},
			"evm": {
				"assembly": "    /* \"staking/StakingRewardsFactory.sol\":23417:27045  contract StakingRewardsFactory is Ownable {... */\n  mstore(0x40, 0x80)\n    /* \"staking/StakingRewardsFactory.sol\":23968:24289  constructor(... */\n  callvalue\n    /* \"--CODEGEN--\":8:17   */\n  dup1\n    /* \"--CODEGEN--\":5:7   */\n  iszero\n  tag_1\n  jumpi\n    /* \"--CODEGEN--\":30:31   */\n  0x00\n    /* \"--CODEGEN--\":27:28   */\n  dup1\n    /* \"--CODEGEN--\":20:32   */\n  revert\n    /* \"--CODEGEN--\":5:7   */\ntag_1:\n    /* \"staking/StakingRewardsFactory.sol\":23968:24289  constructor(... */\n  pop\n  mload(0x40)\n  sub(codesize, bytecodeSize)\n  dup1\n  bytecodeSize\n  dup4\n  codecopy\n  dup2\n  dup2\n  add\n  0x40\n  mstore\n    /* \"--CODEGEN--\":13:15   */\n  0x40\n    /* \"--CODEGEN--\":8:11   */\n  dup2\n    /* \"--CODEGEN--\":5:16   */\n  lt\n    /* \"--CODEGEN--\":2:4   */\n  iszero\n  tag_2\n  jumpi\n    /* \"--CODEGEN--\":29:30   */\n  0x00\n    /* \"--CODEGEN--\":26:27   */\n  dup1\n    /* \"--CODEGEN--\":19:31   */\n  revert\n    /* \"--CODEGEN--\":2:4   */\ntag_2:\n    /* \"staking/StakingRewardsFactory.sol\":23968:24289  constructor(... */\n  dup2\n  add\n  swap1\n  dup1\n  dup1\n  mload\n  swap1\n  0x20\n  add\n  swap1\n  swap3\n  swap2\n  swap1\n  dup1\n  mload\n  swap1\n  0x20\n  add\n  swap1\n  swap3\n  swap2\n  swap1\n  pop\n  pop\n  pop\n    /* \"staking/StakingRewardsFactory.sol\":3444:3454  msg.sender */\n  caller\n    /* \"staking/StakingRewardsFactory.sol\":3435:3441  _owner */\n  0x00\n  dup1\n    /* \"staking/StakingRewardsFactory.sol\":3435:3454  _owner = msg.sender */\n  0x0100\n  exp\n  dup2\n  sload\n  dup2\n  0xffffffffffffffffffffffffffffffffffffffff\n  mul\n  not\n  and\n  swap1\n  dup4\n  0xffffffffffffffffffffffffffffffffffffffff\n  and\n  mul\n  or\n  swap1\n  sstore\n  pop\n    /* \"staking/StakingRewardsFactory.sol\":3502:3508  _owner */\n  0x00\n  dup1\n  swap1\n  sload\n  swap1\n  0x0100\n  exp\n  swap1\n  div\n  0xffffffffffffffffffffffffffffffffffffffff\n  and\n    /* \"staking/StakingRewardsFactory.sol\":3469:3509  OwnershipTransferred(address(0), _owner) */\n  0xffffffffffffffffffffffffffffffffffffffff\n  and\n    /* \"staking/StakingRewardsFactory.sol\":3498:3499  0 */\n  0x00\n    /* \"staking/StakingRewardsFactory.sol\":3469:3509  OwnershipTransferred(address(0), _owner) */\n  0xffffffffffffffffffffffffffffffffffffffff\n  and\n  0x8be0079c531659141344cd1fd0a4f28419497f9722a3daafe3b4186f6b6457e0\n  mload(0x40)\n  mload(0x40)\n  dup1\n  swap2\n  sub\n  swap1\n  log3\n    /* \"staking/StakingRewardsFactory.sol\":24115:24130  block.timestamp */\n  timestamp\n    /* \"staking/StakingRewardsFactory.sol\":24089:24111  _stakingRewardsGenesis */\n  dup2\n    /* \"staking/StakingRewardsFactory.sol\":24089:24130  _stakingRewardsGenesis >= block.timestamp */\n  lt\n  iszero\n    /* \"staking/StakingRewardsFactory.sol\":24081:24187  require(_stakingRewardsGenesis >= block.timestamp, 'StakingRewardsFactory::constructor: genesis too soon') */\n  tag_7\n  jumpi\n  mload(0x40)\n  0x08c379a000000000000000000000000000000000000000000000000000000000\n  dup2\n  mstore\n  0x04\n  add\n  dup1\n  dup1\n  0x20\n  add\n  dup3\n  dup2\n  sub\n  dup3\n  mstore\n  0x34\n  dup2\n  mstore\n  0x20\n  add\n  dup1\n  data_f22e14100106eb9f2180e576eda6e762fdcbd26e14106a6823275a3b8fdea515\n  0x34\n  swap2\n  codecopy\n  0x40\n  add\n  swap2\n  pop\n  pop\n  mload(0x40)\n  dup1\n  swap2\n  sub\n  swap1\n  revert\ntag_7:\n    /* \"staking/StakingRewardsFactory.sol\":24213:24226  _rewardsToken */\n  dup2\n    /* \"staking/StakingRewardsFactory.sol\":24198:24210  rewardsToken */\n  0x01\n  0x00\n    /* \"staking/StakingRewardsFactory.sol\":24198:24226  rewardsToken = _rewardsToken */\n  0x0100\n  exp\n  dup2\n  sload\n  dup2\n  0xffffffffffffffffffffffffffffffffffffffff\n  mul\n  not\n  and\n  swap1\n  dup4\n  0xffffffffffffffffffffffffffffffffffffffff\n  and\n  mul\n  or\n  swap1\n  sstore\n  pop\n    /* \"staking/StakingRewardsFactory.sol\":24260:24282  _stakingRewardsGenesis */\n  dup1\n    /* \"staking/StakingRewardsFactory.sol\":24236:24257  stakingRewardsGenesis */\n  0x02\n    /* \"staking/StakingRewardsFactory.sol\":24236:24282  stakingRewardsGenesis = _stakingRewardsGenesis */\n  dup2\n  swap1\n  sstore\n  pop\n    /* \"staking/StakingRewardsFactory.sol\":23968:24289  constructor(... */\n  pop\n  pop\n    /* \"staking/StakingRewardsFactory.sol\":23417:27045  contract StakingRewardsFactory is Ownable {... */\n  dataSize(sub_0)\n  dup1\n  dataOffset(sub_0)\n  0x00\n  codecopy\n  0x00\n  return\nstop\ndata_f22e14100106eb9f2180e576eda6e762fdcbd26e14106a6823275a3b8fdea515 5374616b696e6752657761726473466163746f72793a3a636f6e7374727563746f723a2067656e6573697320746f6f20736f6f6e\n\nsub_0: assembly {\n        /* \"staking/StakingRewardsFactory.sol\":23417:27045  contract StakingRewardsFactory is Ownable {... */\n      mstore(0x40, 0x80)\n      callvalue\n        /* \"--CODEGEN--\":8:17   */\n      dup1\n        /* \"--CODEGEN--\":5:7   */\n      iszero\n      tag_1\n      jumpi\n        /* \"--CODEGEN--\":30:31   */\n      0x00\n        /* \"--CODEGEN--\":27:28   */\n      dup1\n        /* \"--CODEGEN--\":20:32   */\n      revert\n        /* \"--CODEGEN--\":5:7   */\n    tag_1:\n        /* \"staking/StakingRewardsFactory.sol\":23417:27045  contract StakingRewardsFactory is Ownable {... */\n      pop\n      jumpi(tag_2, lt(calldatasize, 0x04))\n      shr(0xe0, calldataload(0x00))\n      dup1\n      0x8f32d59b\n      gt\n      tag_16\n      jumpi\n      dup1\n      0xcfda5478\n      gt\n      tag_17\n      jumpi\n      dup1\n      0xcfda5478\n      eq\n      tag_12\n      jumpi\n      dup1\n      0xd09b6d43\n      eq\n      tag_13\n      jumpi\n      dup1\n      0xd1af0c7d\n      eq\n      tag_14\n      jumpi\n      dup1\n      0xf2fde38b\n      eq\n      tag_15\n      jumpi\n      jump(tag_2)\n    tag_17:\n      dup1\n      0x8f32d59b\n      eq\n      tag_9\n      jumpi\n      dup1\n      0xa0928c11\n      eq\n      tag_10\n      jumpi\n      dup1\n      0xae741d8d\n      eq\n      tag_11\n      jumpi\n      jump(tag_2)\n    tag_16:\n      dup1\n      0x344e5e34\n      eq\n      tag_3\n      jumpi\n      dup1\n      0x6cf8caf8\n      eq\n      tag_4\n      jumpi\n      dup1\n      0x715018a6\n      eq\n      tag_5\n      jumpi\n      dup1\n      0x7572719e\n      eq\n      tag_6\n      jumpi\n      dup1\n      0x81e16298\n      eq\n      tag_7\n      jumpi\n      dup1\n      0x8da5cb5b\n      eq\n      tag_8\n      jumpi\n    tag_2:\n      0x00\n      dup1\n      revert\n        /* \"staking/StakingRewardsFactory.sol\":23631:23661  address[] public stakingTokens */\n    tag_3:\n      tag_18\n      0x04\n      dup1\n      calldatasize\n      sub\n        /* \"--CODEGEN--\":13:15   */\n      0x20\n        /* \"--CODEGEN--\":8:11   */\n      dup2\n        /* \"--CODEGEN--\":5:16   */\n      lt\n        /* \"--CODEGEN--\":2:4   */\n      iszero\n      tag_19\n      jumpi\n        /* \"--CODEGEN--\":29:30   */\n      0x00\n        /* \"--CODEGEN--\":26:27   */\n      dup1\n        /* \"--CODEGEN--\":19:31   */\n      revert\n        /* \"--CODEGEN--\":2:4   */\n    tag_19:\n        /* \"staking/StakingRewardsFactory.sol\":23631:23661  address[] public stakingTokens */\n      dup2\n      add\n      swap1\n      dup1\n      dup1\n      calldataload\n      swap1\n      0x20\n      add\n      swap1\n      swap3\n      swap2\n      swap1\n      pop\n      pop\n      pop\n      tag_20\n      jump\t// in\n    tag_18:\n      mload(0x40)\n      dup1\n      dup3\n      0xffffffffffffffffffffffffffffffffffffffff\n      and\n      0xffffffffffffffffffffffffffffffffffffffff\n      and\n      dup2\n      mstore\n      0x20\n      add\n      swap2\n      pop\n      pop\n      mload(0x40)\n      dup1\n      swap2\n      sub\n      swap1\n      return\n        /* \"staking/StakingRewardsFactory.sol\":23883:23961  mapping(address => StakingRewardsInfo) public stakingRewardsInfoByStakingToken */\n    tag_4:\n      tag_21\n      0x04\n      dup1\n      calldatasize\n      sub\n        /* \"--CODEGEN--\":13:15   */\n      0x20\n        /* \"--CODEGEN--\":8:11   */\n      dup2\n        /* \"--CODEGEN--\":5:16   */\n      lt\n        /* \"--CODEGEN--\":2:4   */\n      iszero\n      tag_22\n      jumpi\n        /* \"--CODEGEN--\":29:30   */\n      0x00\n        /* \"--CODEGEN--\":26:27   */\n      dup1\n        /* \"--CODEGEN--\":19:31   */\n      revert\n        /* \"--CODEGEN--\":2:4   */\n    tag_22:\n        /* \"staking/StakingRewardsFactory.sol\":23883:23961  mapping(address => StakingRewardsInfo) public stakingRewardsInfoByStakingToken */\n      dup2\n      add\n      swap1\n      dup1\n      dup1\n      calldataload\n      0xffffffffffffffffffffffffffffffffffffffff\n      and\n      swap1\n      0x20\n      add\n      swap1\n      swap3\n      swap2\n      swap1\n      pop\n      pop\n      pop\n      tag_23\n      jump\t// in\n    tag_21:\n      mload(0x40)\n      dup1\n      dup5\n      0xffffffffffffffffffffffffffffffffffffffff\n      and\n      0xffffffffffffffffffffffffffffffffffffffff\n      and\n      dup2\n      mstore\n      0x20\n      add\n      dup4\n      dup2\n      mstore\n      0x20\n      add\n      dup3\n      dup2\n      mstore\n      0x20\n      add\n      swap4\n      pop\n      pop\n      pop\n      pop\n      mload(0x40)\n      dup1\n      swap2\n      sub\n      swap1\n      return\n        /* \"staking/StakingRewardsFactory.sol\":4377:4514  function renounceOwnership() public onlyOwner {... */\n    tag_5:\n      tag_24\n      tag_25\n      jump\t// in\n    tag_24:\n      stop\n        /* \"staking/StakingRewardsFactory.sol\":26909:27043  function pullExtraTokens(address token, uint256 amount) external onlyOwner {... */\n    tag_6:\n      tag_26\n      0x04\n      dup1\n      calldatasize\n      sub\n        /* \"--CODEGEN--\":13:15   */\n      0x40\n        /* \"--CODEGEN--\":8:11   */\n      dup2\n        /* \"--CODEGEN--\":5:16   */\n      lt\n        /* \"--CODEGEN--\":2:4   */\n      iszero\n      tag_27\n      jumpi\n        /* \"--CODEGEN--\":29:30   */\n      0x00\n        /* \"--CODEGEN--\":26:27   */\n      dup1\n        /* \"--CODEGEN--\":19:31   */\n      revert\n        /* \"--CODEGEN--\":2:4   */\n    tag_27:\n        /* \"staking/StakingRewardsFactory.sol\":26909:27043  function pullExtraTokens(address token, uint256 amount) external onlyOwner {... */\n      dup2\n      add\n      swap1\n      dup1\n      dup1\n      calldataload\n      0xffffffffffffffffffffffffffffffffffffffff\n      and\n      swap1\n      0x20\n      add\n      swap1\n      swap3\n      swap2\n      swap1\n      dup1\n      calldataload\n      swap1\n      0x20\n      add\n      swap1\n      swap3\n      swap2\n      swap1\n      pop\n      pop\n      pop\n      tag_28\n      jump\t// in\n    tag_26:\n      stop\n        /* \"staking/StakingRewardsFactory.sol\":26002:26903  function notifyRewardAmount(address stakingToken) public {... */\n    tag_7:\n      tag_29\n      0x04\n      dup1\n      calldatasize\n      sub\n        /* \"--CODEGEN--\":13:15   */\n      0x20\n        /* \"--CODEGEN--\":8:11   */\n      dup2\n        /* \"--CODEGEN--\":5:16   */\n      lt\n        /* \"--CODEGEN--\":2:4   */\n      iszero\n      tag_30\n      jumpi\n        /* \"--CODEGEN--\":29:30   */\n      0x00\n        /* \"--CODEGEN--\":26:27   */\n      dup1\n        /* \"--CODEGEN--\":19:31   */\n      revert\n        /* \"--CODEGEN--\":2:4   */\n    tag_30:\n        /* \"staking/StakingRewardsFactory.sol\":26002:26903  function notifyRewardAmount(address stakingToken) public {... */\n      dup2\n      add\n      swap1\n      dup1\n      dup1\n      calldataload\n      0xffffffffffffffffffffffffffffffffffffffff\n      and\n      swap1\n      0x20\n      add\n      swap1\n      swap3\n      swap2\n      swap1\n      pop\n      pop\n      pop\n      tag_31\n      jump\t// in\n    tag_29:\n      stop\n        /* \"staking/StakingRewardsFactory.sol\":3592:3669  function owner() public view returns (address) {... */\n    tag_8:\n      tag_32\n      tag_33\n      jump\t// in\n    tag_32:\n      mload(0x40)\n      dup1\n      dup3\n      0xffffffffffffffffffffffffffffffffffffffff\n      and\n      0xffffffffffffffffffffffffffffffffffffffff\n      and\n      dup2\n      mstore\n      0x20\n      add\n      swap2\n      pop\n      pop\n      mload(0x40)\n      dup1\n      swap2\n      sub\n      swap1\n      return\n        /* \"staking/StakingRewardsFactory.sol\":3943:4033  function isOwner() public view returns (bool) {... */\n    tag_9:\n      tag_34\n      tag_35\n      jump\t// in\n    tag_34:\n      mload(0x40)\n      dup1\n      dup3\n      iszero\n      iszero\n      iszero\n      iszero\n      dup2\n      mstore\n      0x20\n      add\n      swap2\n      pop\n      pop\n      mload(0x40)\n      dup1\n      swap2\n      sub\n      swap1\n      return\n        /* \"staking/StakingRewardsFactory.sol\":23516:23549  uint public stakingRewardsGenesis */\n    tag_10:\n      tag_36\n      tag_37\n      jump\t// in\n    tag_36:\n      mload(0x40)\n      dup1\n      dup3\n      dup2\n      mstore\n      0x20\n      add\n      swap2\n      pop\n      pop\n      mload(0x40)\n      dup1\n      swap2\n      sub\n      swap1\n      return\n        /* \"staking/StakingRewardsFactory.sol\":25553:25832  function notifyRewardAmounts() public {... */\n    tag_11:\n      tag_38\n      tag_39\n      jump\t// in\n    tag_38:\n      stop\n        /* \"staking/StakingRewardsFactory.sol\":24516:25069  function deploy(address stakingToken, uint rewardAmount, uint256 rewardsDuration) public onlyOwner {... */\n    tag_12:\n      tag_40\n      0x04\n      dup1\n      calldatasize\n      sub\n        /* \"--CODEGEN--\":13:15   */\n      0x60\n        /* \"--CODEGEN--\":8:11   */\n      dup2\n        /* \"--CODEGEN--\":5:16   */\n      lt\n        /* \"--CODEGEN--\":2:4   */\n      iszero\n      tag_41\n      jumpi\n        /* \"--CODEGEN--\":29:30   */\n      0x00\n        /* \"--CODEGEN--\":26:27   */\n      dup1\n        /* \"--CODEGEN--\":19:31   */\n      revert\n        /* \"--CODEGEN--\":2:4   */\n    tag_41:\n        /* \"staking/StakingRewardsFactory.sol\":24516:25069  function deploy(address stakingToken, uint rewardAmount, uint256 rewardsDuration) public onlyOwner {... */\n      dup2\n      add\n      swap1\n      dup1\n      dup1\n      calldataload\n      0xffffffffffffffffffffffffffffffffffffffff\n      and\n      swap1\n      0x20\n      add\n      swap1\n      swap3\n      swap2\n      swap1\n      dup1\n      calldataload\n      swap1\n      0x20\n      add\n      swap1\n      swap3\n      swap2\n      swap1\n      dup1\n      calldataload\n      swap1\n      0x20\n      add\n      swap1\n      swap3\n      swap2\n      swap1\n      pop\n      pop\n      pop\n      tag_42\n      jump\t// in\n    tag_40:\n      stop\n        /* \"staking/StakingRewardsFactory.sol\":25075:25454  function update(address stakingToken, uint rewardAmount, uint256 rewardsDuration) public onlyOwner {... */\n    tag_13:\n      tag_43\n      0x04\n      dup1\n      calldatasize\n      sub\n        /* \"--CODEGEN--\":13:15   */\n      0x60\n        /* \"--CODEGEN--\":8:11   */\n      dup2\n        /* \"--CODEGEN--\":5:16   */\n      lt\n        /* \"--CODEGEN--\":2:4   */\n      iszero\n      tag_44\n      jumpi\n        /* \"--CODEGEN--\":29:30   */\n      0x00\n        /* \"--CODEGEN--\":26:27   */\n      dup1\n        /* \"--CODEGEN--\":19:31   */\n      revert\n        /* \"--CODEGEN--\":2:4   */\n    tag_44:\n        /* \"staking/StakingRewardsFactory.sol\":25075:25454  function update(address stakingToken, uint rewardAmount, uint256 rewardsDuration) public onlyOwner {... */\n      dup2\n      add\n      swap1\n      dup1\n      dup1\n      calldataload\n      0xffffffffffffffffffffffffffffffffffffffff\n      and\n      swap1\n      0x20\n      add\n      swap1\n      swap3\n      swap2\n      swap1\n      dup1\n      calldataload\n      swap1\n      0x20\n      add\n      swap1\n      swap3\n      swap2\n      swap1\n      dup1\n      calldataload\n      swap1\n      0x20\n      add\n      swap1\n      swap3\n      swap2\n      swap1\n      pop\n      pop\n      pop\n      tag_45\n      jump\t// in\n    tag_43:\n      stop\n        /* \"staking/StakingRewardsFactory.sol\":23483:23510  address public rewardsToken */\n    tag_14:\n      tag_46\n      tag_47\n      jump\t// in\n    tag_46:\n      mload(0x40)\n      dup1\n      dup3\n      0xffffffffffffffffffffffffffffffffffffffff\n      and\n      0xffffffffffffffffffffffffffffffffffffffff\n      and\n      dup2\n      mstore\n      0x20\n      add\n      swap2\n      pop\n      pop\n      mload(0x40)\n      dup1\n      swap2\n      sub\n      swap1\n      return\n        /* \"staking/StakingRewardsFactory.sol\":4663:4770  function transferOwnership(address newOwner) public onlyOwner {... */\n    tag_15:\n      tag_48\n      0x04\n      dup1\n      calldatasize\n      sub\n        /* \"--CODEGEN--\":13:15   */\n      0x20\n        /* \"--CODEGEN--\":8:11   */\n      dup2\n        /* \"--CODEGEN--\":5:16   */\n      lt\n        /* \"--CODEGEN--\":2:4   */\n      iszero\n      tag_49\n      jumpi\n        /* \"--CODEGEN--\":29:30   */\n      0x00\n        /* \"--CODEGEN--\":26:27   */\n      dup1\n        /* \"--CODEGEN--\":19:31   */\n      revert\n        /* \"--CODEGEN--\":2:4   */\n    tag_49:\n        /* \"staking/StakingRewardsFactory.sol\":4663:4770  function transferOwnership(address newOwner) public onlyOwner {... */\n      dup2\n      add\n      swap1\n      dup1\n      dup1\n      calldataload\n      0xffffffffffffffffffffffffffffffffffffffff\n      and\n      swap1\n      0x20\n      add\n      swap1\n      swap3\n      swap2\n      swap1\n      pop\n      pop\n      pop\n      tag_50\n      jump\t// in\n    tag_48:\n      stop\n        /* \"staking/StakingRewardsFactory.sol\":23631:23661  address[] public stakingTokens */\n    tag_20:\n      0x03\n      dup2\n      dup2\n      sload\n      dup2\n      lt\n      tag_51\n      jumpi\n      invalid\n    tag_51:\n      swap1\n      0x00\n      mstore\n      keccak256(0x00, 0x20)\n      add\n      0x00\n      swap2\n      pop\n      sload\n      swap1\n      0x0100\n      exp\n      swap1\n      div\n      0xffffffffffffffffffffffffffffffffffffffff\n      and\n      dup2\n      jump\t// out\n        /* \"staking/StakingRewardsFactory.sol\":23883:23961  mapping(address => StakingRewardsInfo) public stakingRewardsInfoByStakingToken */\n    tag_23:\n      mstore(0x20, 0x04)\n      dup1\n      0x00\n      mstore\n      keccak256(0x00, 0x40)\n      0x00\n      swap2\n      pop\n      swap1\n      pop\n      dup1\n      0x00\n      add\n      0x00\n      swap1\n      sload\n      swap1\n      0x0100\n      exp\n      swap1\n      div\n      0xffffffffffffffffffffffffffffffffffffffff\n      and\n      swap1\n      dup1\n      0x01\n      add\n      sload\n      swap1\n      dup1\n      0x02\n      add\n      sload\n      swap1\n      pop\n      dup4\n      jump\t// out\n        /* \"staking/StakingRewardsFactory.sol\":4377:4514  function renounceOwnership() public onlyOwner {... */\n    tag_25:\n        /* \"staking/StakingRewardsFactory.sol\":3796:3805  isOwner() */\n      tag_54\n        /* \"staking/StakingRewardsFactory.sol\":3796:3803  isOwner */\n      tag_35\n        /* \"staking/StakingRewardsFactory.sol\":3796:3805  isOwner() */\n      jump\t// in\n    tag_54:\n        /* \"staking/StakingRewardsFactory.sol\":3788:3842  require(isOwner(), \"Ownable: caller is not the owner\") */\n      tag_55\n      jumpi\n      mload(0x40)\n      0x08c379a000000000000000000000000000000000000000000000000000000000\n      dup2\n      mstore\n      0x04\n      add\n      dup1\n      dup1\n      0x20\n      add\n      dup3\n      dup2\n      sub\n      dup3\n      mstore\n      0x20\n      dup2\n      mstore\n      0x20\n      add\n      dup1\n      0x4f776e61626c653a2063616c6c6572206973206e6f7420746865206f776e6572\n      dup2\n      mstore\n      pop\n      0x20\n      add\n      swap2\n      pop\n      pop\n      mload(0x40)\n      dup1\n      swap2\n      sub\n      swap1\n      revert\n    tag_55:\n        /* \"staking/StakingRewardsFactory.sol\":4475:4476  0 */\n      0x00\n        /* \"staking/StakingRewardsFactory.sol\":4438:4478  OwnershipTransferred(_owner, address(0)) */\n      0xffffffffffffffffffffffffffffffffffffffff\n      and\n        /* \"staking/StakingRewardsFactory.sol\":4459:4465  _owner */\n      0x00\n      dup1\n      swap1\n      sload\n      swap1\n      0x0100\n      exp\n      swap1\n      div\n      0xffffffffffffffffffffffffffffffffffffffff\n      and\n        /* \"staking/StakingRewardsFactory.sol\":4438:4478  OwnershipTransferred(_owner, address(0)) */\n      0xffffffffffffffffffffffffffffffffffffffff\n      and\n      0x8be0079c531659141344cd1fd0a4f28419497f9722a3daafe3b4186f6b6457e0\n      mload(0x40)\n      mload(0x40)\n      dup1\n      swap2\n      sub\n      swap1\n      log3\n        /* \"staking/StakingRewardsFactory.sol\":4505:4506  0 */\n      0x00\n        /* \"staking/StakingRewardsFactory.sol\":4488:4494  _owner */\n      dup1\n      0x00\n        /* \"staking/StakingRewardsFactory.sol\":4488:4507  _owner = address(0) */\n      0x0100\n      exp\n      dup2\n      sload\n      dup2\n      0xffffffffffffffffffffffffffffffffffffffff\n      mul\n      not\n      and\n      swap1\n      dup4\n      0xffffffffffffffffffffffffffffffffffffffff\n      and\n      mul\n      or\n      swap1\n      sstore\n      pop\n        /* \"staking/StakingRewardsFactory.sol\":4377:4514  function renounceOwnership() public onlyOwner {... */\n      jump\t// out\n        /* \"staking/StakingRewardsFactory.sol\":26909:27043  function pullExtraTokens(address token, uint256 amount) external onlyOwner {... */\n    tag_28:\n        /* \"staking/StakingRewardsFactory.sol\":3796:3805  isOwner() */\n      tag_58\n        /* \"staking/StakingRewardsFactory.sol\":3796:3803  isOwner */\n      tag_35\n        /* \"staking/StakingRewardsFactory.sol\":3796:3805  isOwner() */\n      jump\t// in\n    tag_58:\n        /* \"staking/StakingRewardsFactory.sol\":3788:3842  require(isOwner(), \"Ownable: caller is not the owner\") */\n      tag_59\n      jumpi\n      mload(0x40)\n      0x08c379a000000000000000000000000000000000000000000000000000000000\n      dup2\n      mstore\n      0x04\n      add\n      dup1\n      dup1\n      0x20\n      add\n      dup3\n      dup2\n      sub\n      dup3\n      mstore\n      0x20\n      dup2\n      mstore\n      0x20\n      add\n      dup1\n      0x4f776e61626c653a2063616c6c6572206973206e6f7420746865206f776e6572\n      dup2\n      mstore\n      pop\n      0x20\n      add\n      swap2\n      pop\n      pop\n      mload(0x40)\n      dup1\n      swap2\n      sub\n      swap1\n      revert\n    tag_59:\n        /* \"staking/StakingRewardsFactory.sol\":27001:27006  token */\n      dup2\n        /* \"staking/StakingRewardsFactory.sol\":26994:27016  IERC20(token).transfer */\n      0xffffffffffffffffffffffffffffffffffffffff\n      and\n      0xa9059cbb\n        /* \"staking/StakingRewardsFactory.sol\":27017:27027  msg.sender */\n      caller\n        /* \"staking/StakingRewardsFactory.sol\":27029:27035  amount */\n      dup4\n        /* \"staking/StakingRewardsFactory.sol\":26994:27036  IERC20(token).transfer(msg.sender, amount) */\n      mload(0x40)\n      dup4\n      0xffffffff\n      and\n      0xe0\n      shl\n      dup2\n      mstore\n      0x04\n      add\n      dup1\n      dup4\n      0xffffffffffffffffffffffffffffffffffffffff\n      and\n      0xffffffffffffffffffffffffffffffffffffffff\n      and\n      dup2\n      mstore\n      0x20\n      add\n      dup3\n      dup2\n      mstore\n      0x20\n      add\n      swap3\n      pop\n      pop\n      pop\n      0x20\n      mload(0x40)\n      dup1\n      dup4\n      sub\n      dup2\n      0x00\n      dup8\n      dup1\n      extcodesize\n      iszero\n        /* \"--CODEGEN--\":8:17   */\n      dup1\n        /* \"--CODEGEN--\":5:7   */\n      iszero\n      tag_61\n      jumpi\n        /* \"--CODEGEN--\":30:31   */\n      0x00\n        /* \"--CODEGEN--\":27:28   */\n      dup1\n        /* \"--CODEGEN--\":20:32   */\n      revert\n        /* \"--CODEGEN--\":5:7   */\n    tag_61:\n        /* \"staking/StakingRewardsFactory.sol\":26994:27036  IERC20(token).transfer(msg.sender, amount) */\n      pop\n      gas\n      call\n      iszero\n        /* \"--CODEGEN--\":8:17   */\n      dup1\n        /* \"--CODEGEN--\":5:7   */\n      iszero\n      tag_62\n      jumpi\n        /* \"--CODEGEN--\":45:61   */\n      returndatasize\n        /* \"--CODEGEN--\":42:43   */\n      0x00\n        /* \"--CODEGEN--\":39:40   */\n      dup1\n        /* \"--CODEGEN--\":24:62   */\n      returndatacopy\n        /* \"--CODEGEN--\":77:93   */\n      returndatasize\n        /* \"--CODEGEN--\":74:75   */\n      0x00\n        /* \"--CODEGEN--\":67:94   */\n      revert\n        /* \"--CODEGEN--\":5:7   */\n    tag_62:\n        /* \"staking/StakingRewardsFactory.sol\":26994:27036  IERC20(token).transfer(msg.sender, amount) */\n      pop\n      pop\n      pop\n      pop\n      mload(0x40)\n      returndatasize\n        /* \"--CODEGEN--\":13:15   */\n      0x20\n        /* \"--CODEGEN--\":8:11   */\n      dup2\n        /* \"--CODEGEN--\":5:16   */\n      lt\n        /* \"--CODEGEN--\":2:4   */\n      iszero\n      tag_63\n      jumpi\n        /* \"--CODEGEN--\":29:30   */\n      0x00\n        /* \"--CODEGEN--\":26:27   */\n      dup1\n        /* \"--CODEGEN--\":19:31   */\n      revert\n        /* \"--CODEGEN--\":2:4   */\n    tag_63:\n        /* \"staking/StakingRewardsFactory.sol\":26994:27036  IERC20(token).transfer(msg.sender, amount) */\n      dup2\n      add\n      swap1\n      dup1\n      dup1\n      mload\n      swap1\n      0x20\n      add\n      swap1\n      swap3\n      swap2\n      swap1\n      pop\n      pop\n      pop\n      pop\n        /* \"staking/StakingRewardsFactory.sol\":26909:27043  function pullExtraTokens(address token, uint256 amount) external onlyOwner {... */\n      pop\n      pop\n      jump\t// out\n        /* \"staking/StakingRewardsFactory.sol\":26002:26903  function notifyRewardAmount(address stakingToken) public {... */\n    tag_31:\n        /* \"staking/StakingRewardsFactory.sol\":26096:26117  stakingRewardsGenesis */\n      sload(0x02)\n        /* \"staking/StakingRewardsFactory.sol\":26077:26092  block.timestamp */\n      timestamp\n        /* \"staking/StakingRewardsFactory.sol\":26077:26117  block.timestamp >= stakingRewardsGenesis */\n      lt\n      iszero\n        /* \"staking/StakingRewardsFactory.sol\":26069:26174  require(block.timestamp >= stakingRewardsGenesis, 'StakingRewardsFactory::notifyRewardAmount: not ready') */\n      tag_65\n      jumpi\n      mload(0x40)\n      0x08c379a000000000000000000000000000000000000000000000000000000000\n      dup2\n      mstore\n      0x04\n      add\n      dup1\n      dup1\n      0x20\n      add\n      dup3\n      dup2\n      sub\n      dup3\n      mstore\n      0x34\n      dup2\n      mstore\n      0x20\n      add\n      dup1\n      data_e71986032604f829ccaec9386c51e838a85cdbf506769bd103c829f640682adf\n      0x34\n      swap2\n      codecopy\n      0x40\n      add\n      swap2\n      pop\n      pop\n      mload(0x40)\n      dup1\n      swap2\n      sub\n      swap1\n      revert\n    tag_65:\n        /* \"staking/StakingRewardsFactory.sol\":26185:26216  StakingRewardsInfo storage info */\n      0x00\n        /* \"staking/StakingRewardsFactory.sol\":26219:26251  stakingRewardsInfoByStakingToken */\n      0x04\n        /* \"staking/StakingRewardsFactory.sol\":26219:26265  stakingRewardsInfoByStakingToken[stakingToken] */\n      0x00\n        /* \"staking/StakingRewardsFactory.sol\":26252:26264  stakingToken */\n      dup4\n        /* \"staking/StakingRewardsFactory.sol\":26219:26265  stakingRewardsInfoByStakingToken[stakingToken] */\n      0xffffffffffffffffffffffffffffffffffffffff\n      and\n      0xffffffffffffffffffffffffffffffffffffffff\n      and\n      dup2\n      mstore\n      0x20\n      add\n      swap1\n      dup2\n      mstore\n      0x20\n      add\n      0x00\n      keccak256\n        /* \"staking/StakingRewardsFactory.sol\":26185:26265  StakingRewardsInfo storage info = stakingRewardsInfoByStakingToken[stakingToken] */\n      swap1\n      pop\n        /* \"staking/StakingRewardsFactory.sol\":26314:26315  0 */\n      0x00\n        /* \"staking/StakingRewardsFactory.sol\":26283:26316  info.stakingRewards != address(0) */\n      0xffffffffffffffffffffffffffffffffffffffff\n      and\n        /* \"staking/StakingRewardsFactory.sol\":26283:26287  info */\n      dup2\n        /* \"staking/StakingRewardsFactory.sol\":26283:26302  info.stakingRewards */\n      0x00\n      add\n      0x00\n      swap1\n      sload\n      swap1\n      0x0100\n      exp\n      swap1\n      div\n      0xffffffffffffffffffffffffffffffffffffffff\n      and\n        /* \"staking/StakingRewardsFactory.sol\":26283:26316  info.stakingRewards != address(0) */\n      0xffffffffffffffffffffffffffffffffffffffff\n      and\n      eq\n      iszero\n        /* \"staking/StakingRewardsFactory.sol\":26275:26376  require(info.stakingRewards != address(0), 'StakingRewardsFactory::notifyRewardAmount: not deployed') */\n      tag_66\n      jumpi\n      mload(0x40)\n      0x08c379a000000000000000000000000000000000000000000000000000000000\n      dup2\n      mstore\n      0x04\n      add\n      dup1\n      dup1\n      0x20\n      add\n      dup3\n      dup2\n      sub\n      dup3\n      mstore\n      0x37\n      dup2\n      mstore\n      0x20\n      add\n      dup1\n      data_e8f5c4ca6631f4bfe6ffabf099741b79e5c6b86618ddcbeee6ba3c5940184427\n      0x37\n      swap2\n      codecopy\n      0x40\n      add\n      swap2\n      pop\n      pop\n      mload(0x40)\n      dup1\n      swap2\n      sub\n      swap1\n      revert\n    tag_66:\n        /* \"staking/StakingRewardsFactory.sol\":26411:26412  0 */\n      0x00\n        /* \"staking/StakingRewardsFactory.sol\":26391:26395  info */\n      dup2\n        /* \"staking/StakingRewardsFactory.sol\":26391:26408  info.rewardAmount */\n      0x01\n      add\n      sload\n        /* \"staking/StakingRewardsFactory.sol\":26391:26412  info.rewardAmount > 0 */\n      gt\n        /* \"staking/StakingRewardsFactory.sol\":26391:26433  info.rewardAmount > 0 && info.duration > 0 */\n      dup1\n      iszero\n      tag_67\n      jumpi\n      pop\n        /* \"staking/StakingRewardsFactory.sol\":26432:26433  0 */\n      0x00\n        /* \"staking/StakingRewardsFactory.sol\":26416:26420  info */\n      dup2\n        /* \"staking/StakingRewardsFactory.sol\":26416:26429  info.duration */\n      0x02\n      add\n      sload\n        /* \"staking/StakingRewardsFactory.sol\":26416:26433  info.duration > 0 */\n      gt\n        /* \"staking/StakingRewardsFactory.sol\":26391:26433  info.rewardAmount > 0 && info.duration > 0 */\n    tag_67:\n        /* \"staking/StakingRewardsFactory.sol\":26387:26897  if (info.rewardAmount > 0 && info.duration > 0) {... */\n      iszero\n      tag_68\n      jumpi\n        /* \"staking/StakingRewardsFactory.sol\":26449:26466  uint rewardAmount */\n      0x00\n        /* \"staking/StakingRewardsFactory.sol\":26469:26473  info */\n      dup2\n        /* \"staking/StakingRewardsFactory.sol\":26469:26486  info.rewardAmount */\n      0x01\n      add\n      sload\n        /* \"staking/StakingRewardsFactory.sol\":26449:26486  uint rewardAmount = info.rewardAmount */\n      swap1\n      pop\n        /* \"staking/StakingRewardsFactory.sol\":26500:26516  uint256 duration */\n      0x00\n        /* \"staking/StakingRewardsFactory.sol\":26519:26523  info */\n      dup3\n        /* \"staking/StakingRewardsFactory.sol\":26519:26532  info.duration */\n      0x02\n      add\n      sload\n        /* \"staking/StakingRewardsFactory.sol\":26500:26532  uint256 duration = info.duration */\n      swap1\n      pop\n        /* \"staking/StakingRewardsFactory.sol\":26566:26567  0 */\n      0x00\n        /* \"staking/StakingRewardsFactory.sol\":26546:26550  info */\n      dup4\n        /* \"staking/StakingRewardsFactory.sol\":26546:26563  info.rewardAmount */\n      0x01\n      add\n        /* \"staking/StakingRewardsFactory.sol\":26546:26567  info.rewardAmount = 0 */\n      dup2\n      swap1\n      sstore\n      pop\n        /* \"staking/StakingRewardsFactory.sol\":26597:26598  0 */\n      0x00\n        /* \"staking/StakingRewardsFactory.sol\":26581:26585  info */\n      dup4\n        /* \"staking/StakingRewardsFactory.sol\":26581:26594  info.duration */\n      0x02\n      add\n        /* \"staking/StakingRewardsFactory.sol\":26581:26598  info.duration = 0 */\n      dup2\n      swap1\n      sstore\n      pop\n        /* \"staking/StakingRewardsFactory.sol\":26645:26657  rewardsToken */\n      0x01\n      0x00\n      swap1\n      sload\n      swap1\n      0x0100\n      exp\n      swap1\n      div\n      0xffffffffffffffffffffffffffffffffffffffff\n      and\n        /* \"staking/StakingRewardsFactory.sol\":26638:26667  IERC20(rewardsToken).transfer */\n      0xffffffffffffffffffffffffffffffffffffffff\n      and\n      0xa9059cbb\n        /* \"staking/StakingRewardsFactory.sol\":26668:26672  info */\n      dup5\n        /* \"staking/StakingRewardsFactory.sol\":26668:26687  info.stakingRewards */\n      0x00\n      add\n      0x00\n      swap1\n      sload\n      swap1\n      0x0100\n      exp\n      swap1\n      div\n      0xffffffffffffffffffffffffffffffffffffffff\n      and\n        /* \"staking/StakingRewardsFactory.sol\":26689:26701  rewardAmount */\n      dup5\n        /* \"staking/StakingRewardsFactory.sol\":26638:26702  IERC20(rewardsToken).transfer(info.stakingRewards, rewardAmount) */\n      mload(0x40)\n      dup4\n      0xffffffff\n      and\n      0xe0\n      shl\n      dup2\n      mstore\n      0x04\n      add\n      dup1\n      dup4\n      0xffffffffffffffffffffffffffffffffffffffff\n      and\n      0xffffffffffffffffffffffffffffffffffffffff\n      and\n      dup2\n      mstore\n      0x20\n      add\n      dup3\n      dup2\n      mstore\n      0x20\n      add\n      swap3\n      pop\n      pop\n      pop\n      0x20\n      mload(0x40)\n      dup1\n      dup4\n      sub\n      dup2\n      0x00\n      dup8\n      dup1\n      extcodesize\n      iszero\n        /* \"--CODEGEN--\":8:17   */\n      dup1\n        /* \"--CODEGEN--\":5:7   */\n      iszero\n      tag_69\n      jumpi\n        /* \"--CODEGEN--\":30:31   */\n      0x00\n        /* \"--CODEGEN--\":27:28   */\n      dup1\n        /* \"--CODEGEN--\":20:32   */\n      revert\n        /* \"--CODEGEN--\":5:7   */\n    tag_69:\n        /* \"staking/StakingRewardsFactory.sol\":26638:26702  IERC20(rewardsToken).transfer(info.stakingRewards, rewardAmount) */\n      pop\n      gas\n      call\n      iszero\n        /* \"--CODEGEN--\":8:17   */\n      dup1\n        /* \"--CODEGEN--\":5:7   */\n      iszero\n      tag_70\n      jumpi\n        /* \"--CODEGEN--\":45:61   */\n      returndatasize\n        /* \"--CODEGEN--\":42:43   */\n      0x00\n        /* \"--CODEGEN--\":39:40   */\n      dup1\n        /* \"--CODEGEN--\":24:62   */\n      returndatacopy\n        /* \"--CODEGEN--\":77:93   */\n      returndatasize\n        /* \"--CODEGEN--\":74:75   */\n      0x00\n        /* \"--CODEGEN--\":67:94   */\n      revert\n        /* \"--CODEGEN--\":5:7   */\n    tag_70:\n        /* \"staking/StakingRewardsFactory.sol\":26638:26702  IERC20(rewardsToken).transfer(info.stakingRewards, rewardAmount) */\n      pop\n      pop\n      pop\n      pop\n      mload(0x40)\n      returndatasize\n        /* \"--CODEGEN--\":13:15   */\n      0x20\n        /* \"--CODEGEN--\":8:11   */\n      dup2\n        /* \"--CODEGEN--\":5:16   */\n      lt\n        /* \"--CODEGEN--\":2:4   */\n      iszero\n      tag_71\n      jumpi\n        /* \"--CODEGEN--\":29:30   */\n      0x00\n        /* \"--CODEGEN--\":26:27   */\n      dup1\n        /* \"--CODEGEN--\":19:31   */\n      revert\n        /* \"--CODEGEN--\":2:4   */\n    tag_71:\n        /* \"staking/StakingRewardsFactory.sol\":26638:26702  IERC20(rewardsToken).transfer(info.stakingRewards, rewardAmount) */\n      dup2\n      add\n      swap1\n      dup1\n      dup1\n      mload\n      swap1\n      0x20\n      add\n      swap1\n      swap3\n      swap2\n      swap1\n      pop\n      pop\n      pop\n        /* \"staking/StakingRewardsFactory.sol\":26613:26794  require(... */\n      tag_72\n      jumpi\n      mload(0x40)\n      0x08c379a000000000000000000000000000000000000000000000000000000000\n      dup2\n      mstore\n      0x04\n      add\n      dup1\n      dup1\n      0x20\n      add\n      dup3\n      dup2\n      sub\n      dup3\n      mstore\n      0x3a\n      dup2\n      mstore\n      0x20\n      add\n      dup1\n      data_afbe2226aded12cd2f0d3c83ff167eedc78632dc0894f92eea331d3f2b56d089\n      0x3a\n      swap2\n      codecopy\n      0x40\n      add\n      swap2\n      pop\n      pop\n      mload(0x40)\n      dup1\n      swap2\n      sub\n      swap1\n      revert\n    tag_72:\n        /* \"staking/StakingRewardsFactory.sol\":26823:26827  info */\n      dup3\n        /* \"staking/StakingRewardsFactory.sol\":26823:26842  info.stakingRewards */\n      0x00\n      add\n      0x00\n      swap1\n      sload\n      swap1\n      0x0100\n      exp\n      swap1\n      div\n      0xffffffffffffffffffffffffffffffffffffffff\n      and\n        /* \"staking/StakingRewardsFactory.sol\":26808:26862  StakingRewards(info.stakingRewards).notifyRewardAmount */\n      0xffffffffffffffffffffffffffffffffffffffff\n      and\n      0x246132f9\n        /* \"staking/StakingRewardsFactory.sol\":26863:26875  rewardAmount */\n      dup4\n        /* \"staking/StakingRewardsFactory.sol\":26877:26885  duration */\n      dup4\n        /* \"staking/StakingRewardsFactory.sol\":26808:26886  StakingRewards(info.stakingRewards).notifyRewardAmount(rewardAmount, duration) */\n      mload(0x40)\n      dup4\n      0xffffffff\n      and\n      0xe0\n      shl\n      dup2\n      mstore\n      0x04\n      add\n      dup1\n      dup4\n      dup2\n      mstore\n      0x20\n      add\n      dup3\n      dup2\n      mstore\n      0x20\n      add\n      swap3\n      pop\n      pop\n      pop\n      0x00\n      mload(0x40)\n      dup1\n      dup4\n      sub\n      dup2\n      0x00\n      dup8\n      dup1\n      extcodesize\n      iszero\n        /* \"--CODEGEN--\":8:17   */\n      dup1\n        /* \"--CODEGEN--\":5:7   */\n      iszero\n      tag_73\n      jumpi\n        /* \"--CODEGEN--\":30:31   */\n      0x00\n        /* \"--CODEGEN--\":27:28   */\n      dup1\n        /* \"--CODEGEN--\":20:32   */\n      revert\n        /* \"--CODEGEN--\":5:7   */\n    tag_73:\n        /* \"staking/StakingRewardsFactory.sol\":26808:26886  StakingRewards(info.stakingRewards).notifyRewardAmount(rewardAmount, duration) */\n      pop\n      gas\n      call\n      iszero\n        /* \"--CODEGEN--\":8:17   */\n      dup1\n        /* \"--CODEGEN--\":5:7   */\n      iszero\n      tag_74\n      jumpi\n        /* \"--CODEGEN--\":45:61   */\n      returndatasize\n        /* \"--CODEGEN--\":42:43   */\n      0x00\n        /* \"--CODEGEN--\":39:40   */\n      dup1\n        /* \"--CODEGEN--\":24:62   */\n      returndatacopy\n        /* \"--CODEGEN--\":77:93   */\n      returndatasize\n        /* \"--CODEGEN--\":74:75   */\n      0x00\n        /* \"--CODEGEN--\":67:94   */\n      revert\n        /* \"--CODEGEN--\":5:7   */\n    tag_74:\n        /* \"staking/StakingRewardsFactory.sol\":26808:26886  StakingRewards(info.stakingRewards).notifyRewardAmount(rewardAmount, duration) */\n      pop\n      pop\n      pop\n      pop\n        /* \"staking/StakingRewardsFactory.sol\":26387:26897  if (info.rewardAmount > 0 && info.duration > 0) {... */\n      pop\n      pop\n    tag_68:\n        /* \"staking/StakingRewardsFactory.sol\":26002:26903  function notifyRewardAmount(address stakingToken) public {... */\n      pop\n      pop\n      jump\t// out\n        /* \"staking/StakingRewardsFactory.sol\":3592:3669  function owner() public view returns (address) {... */\n    tag_33:\n        /* \"staking/StakingRewardsFactory.sol\":3630:3637  address */\n      0x00\n        /* \"staking/StakingRewardsFactory.sol\":3656:3662  _owner */\n      dup1\n      0x00\n      swap1\n      sload\n      swap1\n      0x0100\n      exp\n      swap1\n      div\n      0xffffffffffffffffffffffffffffffffffffffff\n      and\n        /* \"staking/StakingRewardsFactory.sol\":3649:3662  return _owner */\n      swap1\n      pop\n        /* \"staking/StakingRewardsFactory.sol\":3592:3669  function owner() public view returns (address) {... */\n      swap1\n      jump\t// out\n        /* \"staking/StakingRewardsFactory.sol\":3943:4033  function isOwner() public view returns (bool) {... */\n    tag_35:\n        /* \"staking/StakingRewardsFactory.sol\":3983:3987  bool */\n      0x00\n        /* \"staking/StakingRewardsFactory.sol\":4020:4026  _owner */\n      dup1\n      0x00\n      swap1\n      sload\n      swap1\n      0x0100\n      exp\n      swap1\n      div\n      0xffffffffffffffffffffffffffffffffffffffff\n      and\n        /* \"staking/StakingRewardsFactory.sol\":4006:4026  msg.sender == _owner */\n      0xffffffffffffffffffffffffffffffffffffffff\n      and\n        /* \"staking/StakingRewardsFactory.sol\":4006:4016  msg.sender */\n      caller\n        /* \"staking/StakingRewardsFactory.sol\":4006:4026  msg.sender == _owner */\n      0xffffffffffffffffffffffffffffffffffffffff\n      and\n      eq\n        /* \"staking/StakingRewardsFactory.sol\":3999:4026  return msg.sender == _owner */\n      swap1\n      pop\n        /* \"staking/StakingRewardsFactory.sol\":3943:4033  function isOwner() public view returns (bool) {... */\n      swap1\n      jump\t// out\n        /* \"staking/StakingRewardsFactory.sol\":23516:23549  uint public stakingRewardsGenesis */\n    tag_37:\n      sload(0x02)\n      dup2\n      jump\t// out\n        /* \"staking/StakingRewardsFactory.sol\":25553:25832  function notifyRewardAmounts() public {... */\n    tag_39:\n        /* \"staking/StakingRewardsFactory.sol\":25632:25633  0 */\n      0x00\n        /* \"staking/StakingRewardsFactory.sol\":25609:25622  stakingTokens */\n      0x03\n        /* \"staking/StakingRewardsFactory.sol\":25609:25629  stakingTokens.length */\n      dup1\n      sload\n      swap1\n      pop\n        /* \"staking/StakingRewardsFactory.sol\":25609:25633  stakingTokens.length > 0 */\n      gt\n        /* \"staking/StakingRewardsFactory.sol\":25601:25707  require(stakingTokens.length > 0, 'StakingRewardsFactory::notifyRewardAmounts: called before any deploys') */\n      tag_78\n      jumpi\n      mload(0x40)\n      0x08c379a000000000000000000000000000000000000000000000000000000000\n      dup2\n      mstore\n      0x04\n      add\n      dup1\n      dup1\n      0x20\n      add\n      dup3\n      dup2\n      sub\n      dup3\n      mstore\n      0x45\n      dup2\n      mstore\n      0x20\n      add\n      dup1\n      data_ae1f87e20c157d2878a2e48b377d209dfddfc6d5ec9b80ceecc5addd0ef6ffdb\n      0x45\n      swap2\n      codecopy\n      0x60\n      add\n      swap2\n      pop\n      pop\n      mload(0x40)\n      dup1\n      swap2\n      sub\n      swap1\n      revert\n    tag_78:\n        /* \"staking/StakingRewardsFactory.sol\":25722:25728  uint i */\n      0x00\n        /* \"staking/StakingRewardsFactory.sol\":25731:25732  0 */\n      dup1\n        /* \"staking/StakingRewardsFactory.sol\":25722:25732  uint i = 0 */\n      swap1\n      pop\n        /* \"staking/StakingRewardsFactory.sol\":25717:25826  for (uint i = 0; i < stakingTokens.length; i++) {... */\n    tag_79:\n        /* \"staking/StakingRewardsFactory.sol\":25738:25751  stakingTokens */\n      0x03\n        /* \"staking/StakingRewardsFactory.sol\":25738:25758  stakingTokens.length */\n      dup1\n      sload\n      swap1\n      pop\n        /* \"staking/StakingRewardsFactory.sol\":25734:25735  i */\n      dup2\n        /* \"staking/StakingRewardsFactory.sol\":25734:25758  i < stakingTokens.length */\n      lt\n        /* \"staking/StakingRewardsFactory.sol\":25717:25826  for (uint i = 0; i < stakingTokens.length; i++) {... */\n      iszero\n      tag_80\n      jumpi\n        /* \"staking/StakingRewardsFactory.sol\":25779:25815  notifyRewardAmount(stakingTokens[i]) */\n      tag_82\n        /* \"staking/StakingRewardsFactory.sol\":25798:25811  stakingTokens */\n      0x03\n        /* \"staking/StakingRewardsFactory.sol\":25812:25813  i */\n      dup3\n        /* \"staking/StakingRewardsFactory.sol\":25798:25814  stakingTokens[i] */\n      dup2\n      sload\n      dup2\n      lt\n      tag_83\n      jumpi\n      invalid\n    tag_83:\n      swap1\n      0x00\n      mstore\n      keccak256(0x00, 0x20)\n      add\n      0x00\n      swap1\n      sload\n      swap1\n      0x0100\n      exp\n      swap1\n      div\n      0xffffffffffffffffffffffffffffffffffffffff\n      and\n        /* \"staking/StakingRewardsFactory.sol\":25779:25797  notifyRewardAmount */\n      tag_31\n        /* \"staking/StakingRewardsFactory.sol\":25779:25815  notifyRewardAmount(stakingTokens[i]) */\n      jump\t// in\n    tag_82:\n        /* \"staking/StakingRewardsFactory.sol\":25760:25763  i++ */\n      dup1\n      dup1\n      0x01\n      add\n      swap2\n      pop\n      pop\n        /* \"staking/StakingRewardsFactory.sol\":25717:25826  for (uint i = 0; i < stakingTokens.length; i++) {... */\n      jump(tag_79)\n    tag_80:\n      pop\n        /* \"staking/StakingRewardsFactory.sol\":25553:25832  function notifyRewardAmounts() public {... */\n      jump\t// out\n        /* \"staking/StakingRewardsFactory.sol\":24516:25069  function deploy(address stakingToken, uint rewardAmount, uint256 rewardsDuration) public onlyOwner {... */\n    tag_42:\n        /* \"staking/StakingRewardsFactory.sol\":3796:3805  isOwner() */\n      tag_86\n        /* \"staking/StakingRewardsFactory.sol\":3796:3803  isOwner */\n      tag_35\n        /* \"staking/StakingRewardsFactory.sol\":3796:3805  isOwner() */\n      jump\t// in\n    tag_86:\n        /* \"staking/StakingRewardsFactory.sol\":3788:3842  require(isOwner(), \"Ownable: caller is not the owner\") */\n      tag_87\n      jumpi\n      mload(0x40)\n      0x08c379a000000000000000000000000000000000000000000000000000000000\n      dup2\n      mstore\n      0x04\n      add\n      dup1\n      dup1\n      0x20\n      add\n      dup3\n      dup2\n      sub\n      dup3\n      mstore\n      0x20\n      dup2\n      mstore\n      0x20\n      add\n      dup1\n      0x4f776e61626c653a2063616c6c6572206973206e6f7420746865206f776e6572\n      dup2\n      mstore\n      pop\n      0x20\n      add\n      swap2\n      pop\n      pop\n      mload(0x40)\n      dup1\n      swap2\n      sub\n      swap1\n      revert\n    tag_87:\n        /* \"staking/StakingRewardsFactory.sol\":24625:24656  StakingRewardsInfo storage info */\n      0x00\n        /* \"staking/StakingRewardsFactory.sol\":24659:24691  stakingRewardsInfoByStakingToken */\n      0x04\n        /* \"staking/StakingRewardsFactory.sol\":24659:24705  stakingRewardsInfoByStakingToken[stakingToken] */\n      0x00\n        /* \"staking/StakingRewardsFactory.sol\":24692:24704  stakingToken */\n      dup6\n        /* \"staking/StakingRewardsFactory.sol\":24659:24705  stakingRewardsInfoByStakingToken[stakingToken] */\n      0xffffffffffffffffffffffffffffffffffffffff\n      and\n      0xffffffffffffffffffffffffffffffffffffffff\n      and\n      dup2\n      mstore\n      0x20\n      add\n      swap1\n      dup2\n      mstore\n      0x20\n      add\n      0x00\n      keccak256\n        /* \"staking/StakingRewardsFactory.sol\":24625:24705  StakingRewardsInfo storage info = stakingRewardsInfoByStakingToken[stakingToken] */\n      swap1\n      pop\n        /* \"staking/StakingRewardsFactory.sol\":24754:24755  0 */\n      0x00\n        /* \"staking/StakingRewardsFactory.sol\":24723:24756  info.stakingRewards == address(0) */\n      0xffffffffffffffffffffffffffffffffffffffff\n      and\n        /* \"staking/StakingRewardsFactory.sol\":24723:24727  info */\n      dup2\n        /* \"staking/StakingRewardsFactory.sol\":24723:24742  info.stakingRewards */\n      0x00\n      add\n      0x00\n      swap1\n      sload\n      swap1\n      0x0100\n      exp\n      swap1\n      div\n      0xffffffffffffffffffffffffffffffffffffffff\n      and\n        /* \"staking/StakingRewardsFactory.sol\":24723:24756  info.stakingRewards == address(0) */\n      0xffffffffffffffffffffffffffffffffffffffff\n      and\n      eq\n        /* \"staking/StakingRewardsFactory.sol\":24715:24808  require(info.stakingRewards == address(0), 'StakingRewardsFactory::deploy: already deployed') */\n      tag_89\n      jumpi\n      mload(0x40)\n      0x08c379a000000000000000000000000000000000000000000000000000000000\n      dup2\n      mstore\n      0x04\n      add\n      dup1\n      dup1\n      0x20\n      add\n      dup3\n      dup2\n      sub\n      dup3\n      mstore\n      0x2f\n      dup2\n      mstore\n      0x20\n      add\n      dup1\n      data_77d8567a7b7bf9a9a30ea727f6e525cae6667d736cdaff555c86db8d81648a1a\n      0x2f\n      swap2\n      codecopy\n      0x40\n      add\n      swap2\n      pop\n      pop\n      mload(0x40)\n      dup1\n      swap2\n      sub\n      swap1\n      revert\n    tag_89:\n        /* \"staking/StakingRewardsFactory.sol\":24902:24906  this */\n      address\n        /* \"staking/StakingRewardsFactory.sol\":24909:24921  rewardsToken */\n      0x01\n      0x00\n      swap1\n      sload\n      swap1\n      0x0100\n      exp\n      swap1\n      div\n      0xffffffffffffffffffffffffffffffffffffffff\n      and\n        /* \"staking/StakingRewardsFactory.sol\":24923:24935  stakingToken */\n      dup6\n        /* \"staking/StakingRewardsFactory.sol\":24849:24936  new StakingRewards(/*_rewardsDistribution=*/ address(this), rewardsToken, stakingToken) */\n      mload(0x40)\n      tag_90\n      swap1\n      tag_91\n      jump\t// in\n    tag_90:\n      dup1\n      dup5\n      0xffffffffffffffffffffffffffffffffffffffff\n      and\n      0xffffffffffffffffffffffffffffffffffffffff\n      and\n      dup2\n      mstore\n      0x20\n      add\n      dup4\n      0xffffffffffffffffffffffffffffffffffffffff\n      and\n      0xffffffffffffffffffffffffffffffffffffffff\n      and\n      dup2\n      mstore\n      0x20\n      add\n      dup3\n      0xffffffffffffffffffffffffffffffffffffffff\n      and\n      0xffffffffffffffffffffffffffffffffffffffff\n      and\n      dup2\n      mstore\n      0x20\n      add\n      swap4\n      pop\n      pop\n      pop\n      pop\n      mload(0x40)\n      dup1\n      swap2\n      sub\n      swap1\n      0x00\n      create\n      dup1\n      iszero\n        /* \"--CODEGEN--\":8:17   */\n      dup1\n        /* \"--CODEGEN--\":5:7   */\n      iszero\n      tag_92\n      jumpi\n        /* \"--CODEGEN--\":45:61   */\n      returndatasize\n        /* \"--CODEGEN--\":42:43   */\n      0x00\n        /* \"--CODEGEN--\":39:40   */\n      dup1\n        /* \"--CODEGEN--\":24:62   */\n      returndatacopy\n        /* \"--CODEGEN--\":77:93   */\n      returndatasize\n        /* \"--CODEGEN--\":74:75   */\n      0x00\n        /* \"--CODEGEN--\":67:94   */\n      revert\n        /* \"--CODEGEN--\":5:7   */\n    tag_92:\n        /* \"staking/StakingRewardsFactory.sol\":24849:24936  new StakingRewards(/*_rewardsDistribution=*/ address(this), rewardsToken, stakingToken) */\n      pop\n        /* \"staking/StakingRewardsFactory.sol\":24819:24823  info */\n      dup2\n        /* \"staking/StakingRewardsFactory.sol\":24819:24838  info.stakingRewards */\n      0x00\n      add\n      0x00\n        /* \"staking/StakingRewardsFactory.sol\":24819:24937  info.stakingRewards = address(new StakingRewards(/*_rewardsDistribution=*/ address(this), rewardsToken, stakingToken)) */\n      0x0100\n      exp\n      dup2\n      sload\n      dup2\n      0xffffffffffffffffffffffffffffffffffffffff\n      mul\n      not\n      and\n      swap1\n      dup4\n      0xffffffffffffffffffffffffffffffffffffffff\n      and\n      mul\n      or\n      swap1\n      sstore\n      pop\n        /* \"staking/StakingRewardsFactory.sol\":24967:24979  rewardAmount */\n      dup3\n        /* \"staking/StakingRewardsFactory.sol\":24947:24951  info */\n      dup2\n        /* \"staking/StakingRewardsFactory.sol\":24947:24964  info.rewardAmount */\n      0x01\n      add\n        /* \"staking/StakingRewardsFactory.sol\":24947:24979  info.rewardAmount = rewardAmount */\n      dup2\n      swap1\n      sstore\n      pop\n        /* \"staking/StakingRewardsFactory.sol\":25005:25020  rewardsDuration */\n      dup2\n        /* \"staking/StakingRewardsFactory.sol\":24989:24993  info */\n      dup2\n        /* \"staking/StakingRewardsFactory.sol\":24989:25002  info.duration */\n      0x02\n      add\n        /* \"staking/StakingRewardsFactory.sol\":24989:25020  info.duration = rewardsDuration */\n      dup2\n      swap1\n      sstore\n      pop\n        /* \"staking/StakingRewardsFactory.sol\":25030:25043  stakingTokens */\n      0x03\n        /* \"staking/StakingRewardsFactory.sol\":25049:25061  stakingToken */\n      dup5\n        /* \"staking/StakingRewardsFactory.sol\":25030:25062  stakingTokens.push(stakingToken) */\n      swap1\n      dup1\n        /* \"--CODEGEN--\":39:40   */\n      0x01\n        /* \"--CODEGEN--\":33:36   */\n      dup2\n        /* \"--CODEGEN--\":27:37   */\n      sload\n        /* \"--CODEGEN--\":23:41   */\n      add\n        /* \"--CODEGEN--\":57:67   */\n      dup1\n        /* \"--CODEGEN--\":52:55   */\n      dup3\n        /* \"--CODEGEN--\":45:68   */\n      sstore\n        /* \"--CODEGEN--\":79:89   */\n      dup1\n        /* \"--CODEGEN--\":72:89   */\n      swap2\n      pop\n        /* \"--CODEGEN--\":0:93   */\n      pop\n        /* \"staking/StakingRewardsFactory.sol\":25030:25062  stakingTokens.push(stakingToken) */\n      swap1\n      0x01\n      dup3\n      sub\n      swap1\n      0x00\n      mstore\n      keccak256(0x00, 0x20)\n      add\n      0x00\n      swap1\n      swap2\n      swap3\n      swap1\n      swap2\n      swap1\n      swap2\n      0x0100\n      exp\n      dup2\n      sload\n      dup2\n      0xffffffffffffffffffffffffffffffffffffffff\n      mul\n      not\n      and\n      swap1\n      dup4\n      0xffffffffffffffffffffffffffffffffffffffff\n      and\n      mul\n      or\n      swap1\n      sstore\n      pop\n      pop\n        /* \"staking/StakingRewardsFactory.sol\":3852:3853  _ */\n      pop\n        /* \"staking/StakingRewardsFactory.sol\":24516:25069  function deploy(address stakingToken, uint rewardAmount, uint256 rewardsDuration) public onlyOwner {... */\n      pop\n      pop\n      pop\n      jump\t// out\n        /* \"staking/StakingRewardsFactory.sol\":25075:25454  function update(address stakingToken, uint rewardAmount, uint256 rewardsDuration) public onlyOwner {... */\n    tag_45:\n        /* \"staking/StakingRewardsFactory.sol\":3796:3805  isOwner() */\n      tag_95\n        /* \"staking/StakingRewardsFactory.sol\":3796:3803  isOwner */\n      tag_35\n        /* \"staking/StakingRewardsFactory.sol\":3796:3805  isOwner() */\n      jump\t// in\n    tag_95:\n        /* \"staking/StakingRewardsFactory.sol\":3788:3842  require(isOwner(), \"Ownable: caller is not the owner\") */\n      tag_96\n      jumpi\n      mload(0x40)\n      0x08c379a000000000000000000000000000000000000000000000000000000000\n      dup2\n      mstore\n      0x04\n      add\n      dup1\n      dup1\n      0x20\n      add\n      dup3\n      dup2\n      sub\n      dup3\n      mstore\n      0x20\n      dup2\n      mstore\n      0x20\n      add\n      dup1\n      0x4f776e61626c653a2063616c6c6572206973206e6f7420746865206f776e6572\n      dup2\n      mstore\n      pop\n      0x20\n      add\n      swap2\n      pop\n      pop\n      mload(0x40)\n      dup1\n      swap2\n      sub\n      swap1\n      revert\n    tag_96:\n        /* \"staking/StakingRewardsFactory.sol\":25184:25215  StakingRewardsInfo storage info */\n      0x00\n        /* \"staking/StakingRewardsFactory.sol\":25218:25250  stakingRewardsInfoByStakingToken */\n      0x04\n        /* \"staking/StakingRewardsFactory.sol\":25218:25264  stakingRewardsInfoByStakingToken[stakingToken] */\n      0x00\n        /* \"staking/StakingRewardsFactory.sol\":25251:25263  stakingToken */\n      dup6\n        /* \"staking/StakingRewardsFactory.sol\":25218:25264  stakingRewardsInfoByStakingToken[stakingToken] */\n      0xffffffffffffffffffffffffffffffffffffffff\n      and\n      0xffffffffffffffffffffffffffffffffffffffff\n      and\n      dup2\n      mstore\n      0x20\n      add\n      swap1\n      dup2\n      mstore\n      0x20\n      add\n      0x00\n      keccak256\n        /* \"staking/StakingRewardsFactory.sol\":25184:25264  StakingRewardsInfo storage info = stakingRewardsInfoByStakingToken[stakingToken] */\n      swap1\n      pop\n        /* \"staking/StakingRewardsFactory.sol\":25313:25314  0 */\n      0x00\n        /* \"staking/StakingRewardsFactory.sol\":25282:25315  info.stakingRewards != address(0) */\n      0xffffffffffffffffffffffffffffffffffffffff\n      and\n        /* \"staking/StakingRewardsFactory.sol\":25282:25286  info */\n      dup2\n        /* \"staking/StakingRewardsFactory.sol\":25282:25301  info.stakingRewards */\n      0x00\n      add\n      0x00\n      swap1\n      sload\n      swap1\n      0x0100\n      exp\n      swap1\n      div\n      0xffffffffffffffffffffffffffffffffffffffff\n      and\n        /* \"staking/StakingRewardsFactory.sol\":25282:25315  info.stakingRewards != address(0) */\n      0xffffffffffffffffffffffffffffffffffffffff\n      and\n      eq\n      iszero\n        /* \"staking/StakingRewardsFactory.sol\":25274:25363  require(info.stakingRewards != address(0), 'StakingRewardsFactory::update: not deployed') */\n      tag_98\n      jumpi\n      mload(0x40)\n      0x08c379a000000000000000000000000000000000000000000000000000000000\n      dup2\n      mstore\n      0x04\n      add\n      dup1\n      dup1\n      0x20\n      add\n      dup3\n      dup2\n      sub\n      dup3\n      mstore\n      0x2b\n      dup2\n      mstore\n      0x20\n      add\n      dup1\n      data_2680931cb8d2562eb985862b2b0f9b8f59411984dfac76c0f3e1c1ba0c024efb\n      0x2b\n      swap2\n      codecopy\n      0x40\n      add\n      swap2\n      pop\n      pop\n      mload(0x40)\n      dup1\n      swap2\n      sub\n      swap1\n      revert\n    tag_98:\n        /* \"staking/StakingRewardsFactory.sol\":25394:25406  rewardAmount */\n      dup3\n        /* \"staking/StakingRewardsFactory.sol\":25374:25378  info */\n      dup2\n        /* \"staking/StakingRewardsFactory.sol\":25374:25391  info.rewardAmount */\n      0x01\n      add\n        /* \"staking/StakingRewardsFactory.sol\":25374:25406  info.rewardAmount = rewardAmount */\n      dup2\n      swap1\n      sstore\n      pop\n        /* \"staking/StakingRewardsFactory.sol\":25432:25447  rewardsDuration */\n      dup2\n        /* \"staking/StakingRewardsFactory.sol\":25416:25420  info */\n      dup2\n        /* \"staking/StakingRewardsFactory.sol\":25416:25429  info.duration */\n      0x02\n      add\n        /* \"staking/StakingRewardsFactory.sol\":25416:25447  info.duration = rewardsDuration */\n      dup2\n      swap1\n      sstore\n      pop\n        /* \"staking/StakingRewardsFactory.sol\":3852:3853  _ */\n      pop\n        /* \"staking/StakingRewardsFactory.sol\":25075:25454  function update(address stakingToken, uint rewardAmount, uint256 rewardsDuration) public onlyOwner {... */\n      pop\n      pop\n      pop\n      jump\t// out\n        /* \"staking/StakingRewardsFactory.sol\":23483:23510  address public rewardsToken */\n    tag_47:\n      0x01\n      0x00\n      swap1\n      sload\n      swap1\n      0x0100\n      exp\n      swap1\n      div\n      0xffffffffffffffffffffffffffffffffffffffff\n      and\n      dup2\n      jump\t// out\n        /* \"staking/StakingRewardsFactory.sol\":4663:4770  function transferOwnership(address newOwner) public onlyOwner {... */\n    tag_50:\n        /* \"staking/StakingRewardsFactory.sol\":3796:3805  isOwner() */\n      tag_100\n        /* \"staking/StakingRewardsFactory.sol\":3796:3803  isOwner */\n      tag_35\n        /* \"staking/StakingRewardsFactory.sol\":3796:3805  isOwner() */\n      jump\t// in\n    tag_100:\n        /* \"staking/StakingRewardsFactory.sol\":3788:3842  require(isOwner(), \"Ownable: caller is not the owner\") */\n      tag_101\n      jumpi\n      mload(0x40)\n      0x08c379a000000000000000000000000000000000000000000000000000000000\n      dup2\n      mstore\n      0x04\n      add\n      dup1\n      dup1\n      0x20\n      add\n      dup3\n      dup2\n      sub\n      dup3\n      mstore\n      0x20\n      dup2\n      mstore\n      0x20\n      add\n      dup1\n      0x4f776e61626c653a2063616c6c6572206973206e6f7420746865206f776e6572\n      dup2\n      mstore\n      pop\n      0x20\n      add\n      swap2\n      pop\n      pop\n      mload(0x40)\n      dup1\n      swap2\n      sub\n      swap1\n      revert\n    tag_101:\n        /* \"staking/StakingRewardsFactory.sol\":4735:4763  _transferOwnership(newOwner) */\n      tag_103\n        /* \"staking/StakingRewardsFactory.sol\":4754:4762  newOwner */\n      dup2\n        /* \"staking/StakingRewardsFactory.sol\":4735:4753  _transferOwnership */\n      tag_104\n        /* \"staking/StakingRewardsFactory.sol\":4735:4763  _transferOwnership(newOwner) */\n      jump\t// in\n    tag_103:\n        /* \"staking/StakingRewardsFactory.sol\":4663:4770  function transferOwnership(address newOwner) public onlyOwner {... */\n      pop\n      jump\t// out\n        /* \"staking/StakingRewardsFactory.sol\":4871:5096  function _transferOwnership(address newOwner) internal {... */\n    tag_104:\n        /* \"staking/StakingRewardsFactory.sol\":4964:4965  0 */\n      0x00\n        /* \"staking/StakingRewardsFactory.sol\":4944:4966  newOwner != address(0) */\n      0xffffffffffffffffffffffffffffffffffffffff\n      and\n        /* \"staking/StakingRewardsFactory.sol\":4944:4952  newOwner */\n      dup2\n        /* \"staking/StakingRewardsFactory.sol\":4944:4966  newOwner != address(0) */\n      0xffffffffffffffffffffffffffffffffffffffff\n      and\n      eq\n      iszero\n        /* \"staking/StakingRewardsFactory.sol\":4936:5009  require(newOwner != address(0), \"Ownable: new owner is the zero address\") */\n      tag_106\n      jumpi\n      mload(0x40)\n      0x08c379a000000000000000000000000000000000000000000000000000000000\n      dup2\n      mstore\n      0x04\n      add\n      dup1\n      dup1\n      0x20\n      add\n      dup3\n      dup2\n      sub\n      dup3\n      mstore\n      0x26\n      dup2\n      mstore\n      0x20\n      add\n      dup1\n      data_245f15ff17f551913a7a18385165551503906a406f905ac1c2437281a7cd0cfe\n      0x26\n      swap2\n      codecopy\n      0x40\n      add\n      swap2\n      pop\n      pop\n      mload(0x40)\n      dup1\n      swap2\n      sub\n      swap1\n      revert\n    tag_106:\n        /* \"staking/StakingRewardsFactory.sol\":5053:5061  newOwner */\n      dup1\n        /* \"staking/StakingRewardsFactory.sol\":5024:5062  OwnershipTransferred(_owner, newOwner) */\n      0xffffffffffffffffffffffffffffffffffffffff\n      and\n        /* \"staking/StakingRewardsFactory.sol\":5045:5051  _owner */\n      0x00\n      dup1\n      swap1\n      sload\n      swap1\n      0x0100\n      exp\n      swap1\n      div\n      0xffffffffffffffffffffffffffffffffffffffff\n      and\n        /* \"staking/StakingRewardsFactory.sol\":5024:5062  OwnershipTransferred(_owner, newOwner) */\n      0xffffffffffffffffffffffffffffffffffffffff\n      and\n      0x8be0079c531659141344cd1fd0a4f28419497f9722a3daafe3b4186f6b6457e0\n      mload(0x40)\n      mload(0x40)\n      dup1\n      swap2\n      sub\n      swap1\n      log3\n        /* \"staking/StakingRewardsFactory.sol\":5081:5089  newOwner */\n      dup1\n        /* \"staking/StakingRewardsFactory.sol\":5072:5078  _owner */\n      0x00\n      dup1\n        /* \"staking/StakingRewardsFactory.sol\":5072:5089  _owner = newOwner */\n      0x0100\n      exp\n      dup2\n      sload\n      dup2\n      0xffffffffffffffffffffffffffffffffffffffff\n      mul\n      not\n      and\n      swap1\n      dup4\n      0xffffffffffffffffffffffffffffffffffffffff\n      and\n      mul\n      or\n      swap1\n      sstore\n      pop\n        /* \"staking/StakingRewardsFactory.sol\":4871:5096  function _transferOwnership(address newOwner) internal {... */\n      pop\n      jump\t// out\n        /* \"staking/StakingRewardsFactory.sol\":23417:27045  contract StakingRewardsFactory is Ownable {... */\n    tag_91:\n      dataSize(sub_0)\n      dup1\n      dataOffset(sub_0)\n      dup4\n      codecopy\n      add\n      swap1\n      jump\t// out\n    stop\n    data_245f15ff17f551913a7a18385165551503906a406f905ac1c2437281a7cd0cfe 4f776e61626c653a206e6577206f776e657220697320746865207a65726f2061646472657373\n    data_2680931cb8d2562eb985862b2b0f9b8f59411984dfac76c0f3e1c1ba0c024efb 5374616b696e6752657761726473466163746f72793a3a7570646174653a206e6f74206465706c6f796564\n    data_77d8567a7b7bf9a9a30ea727f6e525cae6667d736cdaff555c86db8d81648a1a 5374616b696e6752657761726473466163746f72793a3a6465706c6f793a20616c7265616479206465706c6f796564\n    data_ae1f87e20c157d2878a2e48b377d209dfddfc6d5ec9b80ceecc5addd0ef6ffdb 5374616b696e6752657761726473466163746f72793a3a6e6f74696679526577617264416d6f756e74733a2063616c6c6564206265666f726520616e79206465706c6f7973\n    data_afbe2226aded12cd2f0d3c83ff167eedc78632dc0894f92eea331d3f2b56d089 5374616b696e6752657761726473466163746f72793a3a6e6f74696679526577617264416d6f756e743a207472616e73666572206661696c6564\n    data_e71986032604f829ccaec9386c51e838a85cdbf506769bd103c829f640682adf 5374616b696e6752657761726473466163746f72793a3a6e6f74696679526577617264416d6f756e743a206e6f74207265616479\n    data_e8f5c4ca6631f4bfe6ffabf099741b79e5c6b86618ddcbeee6ba3c5940184427 5374616b696e6752657761726473466163746f72793a3a6e6f74696679526577617264416d6f756e743a206e6f74206465706c6f796564\n\n    sub_0: assembly {\n            /* \"staking/StakingRewardsFactory.sol\":17742:23265  contract StakingRewards is IStakingRewards, RewardsDistributionRecipient, ReentrancyGuard {... */\n          mstore(0x40, 0x80)\n            /* \"staking/StakingRewardsFactory.sol\":18046:18047  0 */\n          0x00\n            /* \"staking/StakingRewardsFactory.sol\":18016:18047  uint256 public periodFinish = 0 */\n          0x04\n          sstore\n            /* \"staking/StakingRewardsFactory.sol\":18081:18082  0 */\n          0x00\n            /* \"staking/StakingRewardsFactory.sol\":18053:18082  uint256 public rewardRate = 0 */\n          0x05\n          sstore\n            /* \"staking/StakingRewardsFactory.sol\":18408:18684  constructor(... */\n          callvalue\n            /* \"--CODEGEN--\":8:17   */\n          dup1\n            /* \"--CODEGEN--\":5:7   */\n          iszero\n          tag_1\n          jumpi\n            /* \"--CODEGEN--\":30:31   */\n          0x00\n            /* \"--CODEGEN--\":27:28   */\n          dup1\n            /* \"--CODEGEN--\":20:32   */\n          revert\n            /* \"--CODEGEN--\":5:7   */\n        tag_1:\n            /* \"staking/StakingRewardsFactory.sol\":18408:18684  constructor(... */\n          pop\n          mload(0x40)\n          sub(codesize, bytecodeSize)\n          dup1\n          bytecodeSize\n          dup4\n          codecopy\n          dup2\n          dup2\n          add\n          0x40\n          mstore\n            /* \"--CODEGEN--\":13:15   */\n          0x60\n            /* \"--CODEGEN--\":8:11   */\n          dup2\n            /* \"--CODEGEN--\":5:16   */\n          lt\n            /* \"--CODEGEN--\":2:4   */\n          iszero\n          tag_2\n          jumpi\n            /* \"--CODEGEN--\":29:30   */\n          0x00\n            /* \"--CODEGEN--\":26:27   */\n          dup1\n            /* \"--CODEGEN--\":19:31   */\n          revert\n            /* \"--CODEGEN--\":2:4   */\n        tag_2:\n            /* \"staking/StakingRewardsFactory.sol\":18408:18684  constructor(... */\n          dup2\n          add\n          swap1\n          dup1\n          dup1\n          mload\n          swap1\n          0x20\n          add\n          swap1\n          swap3\n          swap2\n          swap1\n          dup1\n          mload\n          swap1\n          0x20\n          add\n          swap1\n          swap3\n          swap2\n          swap1\n          dup1\n          mload\n          swap1\n          0x20\n          add\n          swap1\n          swap3\n          swap2\n          swap1\n          pop\n          pop\n          pop\n            /* \"staking/StakingRewardsFactory.sol\":16258:16259  1 */\n          0x01\n            /* \"staking/StakingRewardsFactory.sol\":16242:16255  _guardCounter */\n          dup1\n            /* \"staking/StakingRewardsFactory.sol\":16242:16259  _guardCounter = 1 */\n          dup2\n          swap1\n          sstore\n          pop\n            /* \"staking/StakingRewardsFactory.sol\":18565:18578  _rewardsToken */\n          dup2\n            /* \"staking/StakingRewardsFactory.sol\":18543:18555  rewardsToken */\n          0x02\n          0x00\n            /* \"staking/StakingRewardsFactory.sol\":18543:18579  rewardsToken = IERC20(_rewardsToken) */\n          0x0100\n          exp\n          dup2\n          sload\n          dup2\n          0xffffffffffffffffffffffffffffffffffffffff\n          mul\n          not\n          and\n          swap1\n          dup4\n          0xffffffffffffffffffffffffffffffffffffffff\n          and\n          mul\n          or\n          swap1\n          sstore\n          pop\n            /* \"staking/StakingRewardsFactory.sol\":18611:18624  _stakingToken */\n          dup1\n            /* \"staking/StakingRewardsFactory.sol\":18589:18601  stakingToken */\n          0x03\n          0x00\n            /* \"staking/StakingRewardsFactory.sol\":18589:18625  stakingToken = IERC20(_stakingToken) */\n          0x0100\n          exp\n          dup2\n          sload\n          dup2\n          0xffffffffffffffffffffffffffffffffffffffff\n          mul\n          not\n          and\n          swap1\n          dup4\n          0xffffffffffffffffffffffffffffffffffffffff\n          and\n          mul\n          or\n          swap1\n          sstore\n          pop\n            /* \"staking/StakingRewardsFactory.sol\":18657:18677  _rewardsDistribution */\n          dup3\n            /* \"staking/StakingRewardsFactory.sol\":18635:18654  rewardsDistribution */\n          0x00\n          dup1\n            /* \"staking/StakingRewardsFactory.sol\":18635:18677  rewardsDistribution = _rewardsDistribution */\n          0x0100\n          exp\n          dup2\n          sload\n          dup2\n          0xffffffffffffffffffffffffffffffffffffffff\n          mul\n          not\n          and\n          swap1\n          dup4\n          0xffffffffffffffffffffffffffffffffffffffff\n          and\n          mul\n          or\n          swap1\n          sstore\n          pop\n            /* \"staking/StakingRewardsFactory.sol\":18408:18684  constructor(... */\n          pop\n          pop\n          pop\n            /* \"staking/StakingRewardsFactory.sol\":17742:23265  contract StakingRewards is IStakingRewards, RewardsDistributionRecipient, ReentrancyGuard {... */\n          dataSize(sub_0)\n          dup1\n          dataOffset(sub_0)\n          0x00\n          codecopy\n          0x00\n          return\n        stop\n\n        sub_0: assembly {\n                /* \"staking/StakingRewardsFactory.sol\":17742:23265  contract StakingRewards is IStakingRewards, RewardsDistributionRecipient, ReentrancyGuard {... */\n              mstore(0x40, 0x80)\n              callvalue\n                /* \"--CODEGEN--\":8:17   */\n              dup1\n                /* \"--CODEGEN--\":5:7   */\n              iszero\n              tag_1\n              jumpi\n                /* \"--CODEGEN--\":30:31   */\n              0x00\n                /* \"--CODEGEN--\":27:28   */\n              dup1\n                /* \"--CODEGEN--\":20:32   */\n              revert\n                /* \"--CODEGEN--\":5:7   */\n            tag_1:\n                /* \"staking/StakingRewardsFactory.sol\":17742:23265  contract StakingRewards is IStakingRewards, RewardsDistributionRecipient, ReentrancyGuard {... */\n              pop\n              jumpi(tag_2, lt(calldatasize, 0x04))\n              shr(0xe0, calldataload(0x00))\n              dup1\n              0x80faa57d\n              gt\n              tag_23\n              jumpi\n              dup1\n              0xd1af0c7d\n              gt\n              tag_24\n              jumpi\n              dup1\n              0xd1af0c7d\n              eq\n              tag_18\n              jumpi\n              dup1\n              0xdf136d65\n              eq\n              tag_19\n              jumpi\n              dup1\n              0xe9fad8ee\n              eq\n              tag_20\n              jumpi\n              dup1\n              0xebe2b12b\n              eq\n              tag_21\n              jumpi\n              dup1\n              0xecd9ba82\n              eq\n              tag_22\n              jumpi\n              jump(tag_2)\n            tag_24:\n              dup1\n              0x80faa57d\n              eq\n              tag_13\n              jumpi\n              dup1\n              0x8b876347\n              eq\n              tag_14\n              jumpi\n              dup1\n              0xa694fc3a\n              eq\n              tag_15\n              jumpi\n              dup1\n              0xc8f33c91\n              eq\n              tag_16\n              jumpi\n              dup1\n              0xcd3daf9d\n              eq\n              tag_17\n              jumpi\n              jump(tag_2)\n            tag_23:\n              dup1\n              0x3d18b912\n              gt\n              tag_25\n              jumpi\n              dup1\n              0x3d18b912\n              eq\n              tag_8\n              jumpi\n              dup1\n              0x3fc6df6e\n              eq\n              tag_9\n              jumpi\n              dup1\n              0x70a08231\n              eq\n              tag_10\n              jumpi\n              dup1\n              0x72f702f3\n              eq\n              tag_11\n              jumpi\n              dup1\n              0x7b0a47ee\n              eq\n              tag_12\n              jumpi\n              jump(tag_2)\n            tag_25:\n              dup1\n              0x8cc262\n              eq\n              tag_3\n              jumpi\n              dup1\n              0x0700037d\n              eq\n              tag_4\n              jumpi\n              dup1\n              0x18160ddd\n              eq\n              tag_5\n              jumpi\n              dup1\n              0x246132f9\n              eq\n              tag_6\n              jumpi\n              dup1\n              0x2e1a7d4d\n              eq\n              tag_7\n              jumpi\n            tag_2:\n              0x00\n              dup1\n              revert\n                /* \"staking/StakingRewardsFactory.sol\":19405:19601  function earned(address account) public view returns (uint256) {... */\n            tag_3:\n              tag_26\n              0x04\n              dup1\n              calldatasize\n              sub\n                /* \"--CODEGEN--\":13:15   */\n              0x20\n                /* \"--CODEGEN--\":8:11   */\n              dup2\n                /* \"--CODEGEN--\":5:16   */\n              lt\n                /* \"--CODEGEN--\":2:4   */\n              iszero\n              tag_27\n              jumpi\n                /* \"--CODEGEN--\":29:30   */\n              0x00\n                /* \"--CODEGEN--\":26:27   */\n              dup1\n                /* \"--CODEGEN--\":19:31   */\n              revert\n                /* \"--CODEGEN--\":2:4   */\n            tag_27:\n                /* \"staking/StakingRewardsFactory.sol\":19405:19601  function earned(address account) public view returns (uint256) {... */\n              dup2\n              add\n              swap1\n              dup1\n              dup1\n              calldataload\n              0xffffffffffffffffffffffffffffffffffffffff\n              and\n              swap1\n              0x20\n              add\n              swap1\n              swap3\n              swap2\n              swap1\n              pop\n              pop\n              pop\n              tag_28\n              jump\t// in\n            tag_26:\n              mload(0x40)\n              dup1\n              dup3\n              dup2\n              mstore\n              0x20\n              add\n              swap2\n              pop\n              pop\n              mload(0x40)\n              dup1\n              swap2\n              sub\n              swap1\n              return\n                /* \"staking/StakingRewardsFactory.sol\":18228:18270  mapping(address => uint256) public rewards */\n            tag_4:\n              tag_29\n              0x04\n              dup1\n              calldatasize\n              sub\n                /* \"--CODEGEN--\":13:15   */\n              0x20\n                /* \"--CODEGEN--\":8:11   */\n              dup2\n                /* \"--CODEGEN--\":5:16   */\n              lt\n                /* \"--CODEGEN--\":2:4   */\n              iszero\n              tag_30\n              jumpi\n                /* \"--CODEGEN--\":29:30   */\n              0x00\n                /* \"--CODEGEN--\":26:27   */\n              dup1\n                /* \"--CODEGEN--\":19:31   */\n              revert\n                /* \"--CODEGEN--\":2:4   */\n            tag_30:\n                /* \"staking/StakingRewardsFactory.sol\":18228:18270  mapping(address => uint256) public rewards */\n              dup2\n              add\n              swap1\n              dup1\n              dup1\n              calldataload\n              0xffffffffffffffffffffffffffffffffffffffff\n              and\n              swap1\n              0x20\n              add\n              swap1\n              swap3\n              swap2\n              swap1\n              pop\n              pop\n              pop\n              tag_31\n              jump\t// in\n            tag_29:\n              mload(0x40)\n              dup1\n              dup3\n              dup2\n              mstore\n              0x20\n              add\n              swap2\n              pop\n              pop\n              mload(0x40)\n              dup1\n              swap2\n              sub\n              swap1\n              return\n                /* \"staking/StakingRewardsFactory.sol\":18729:18820  function totalSupply() external view returns (uint256) {... */\n            tag_5:\n              tag_32\n              tag_33\n              jump\t// in\n            tag_32:\n              mload(0x40)\n              dup1\n              dup3\n              dup2\n              mstore\n              0x20\n              add\n              swap2\n              pop\n              pop\n              mload(0x40)\n              dup1\n              swap2\n              sub\n              swap1\n              return\n                /* \"staking/StakingRewardsFactory.sol\":21399:22615  function notifyRewardAmount(uint256 reward, uint256 rewardsDuration) external onlyRewardsDistribution updateReward(address(0)) {... */\n            tag_6:\n              tag_34\n              0x04\n              dup1\n              calldatasize\n              sub\n                /* \"--CODEGEN--\":13:15   */\n              0x40\n                /* \"--CODEGEN--\":8:11   */\n              dup2\n                /* \"--CODEGEN--\":5:16   */\n              lt\n                /* \"--CODEGEN--\":2:4   */\n              iszero\n              tag_35\n              jumpi\n                /* \"--CODEGEN--\":29:30   */\n              0x00\n                /* \"--CODEGEN--\":26:27   */\n              dup1\n                /* \"--CODEGEN--\":19:31   */\n              revert\n                /* \"--CODEGEN--\":2:4   */\n            tag_35:\n                /* \"staking/StakingRewardsFactory.sol\":21399:22615  function notifyRewardAmount(uint256 reward, uint256 rewardsDuration) external onlyRewardsDistribution updateReward(address(0)) {... */\n              dup2\n              add\n              swap1\n              dup1\n              dup1\n              calldataload\n              swap1\n              0x20\n              add\n              swap1\n              swap3\n              swap2\n              swap1\n              dup1\n              calldataload\n              swap1\n              0x20\n              add\n              swap1\n              swap3\n              swap2\n              swap1\n              pop\n              pop\n              pop\n              tag_36\n              jump\t// in\n            tag_34:\n              stop\n                /* \"staking/StakingRewardsFactory.sol\":20582:20933  function withdraw(uint256 amount) public nonReentrant updateReward(msg.sender) {... */\n            tag_7:\n              tag_37\n              0x04\n              dup1\n              calldatasize\n              sub\n                /* \"--CODEGEN--\":13:15   */\n              0x20\n                /* \"--CODEGEN--\":8:11   */\n              dup2\n                /* \"--CODEGEN--\":5:16   */\n              lt\n                /* \"--CODEGEN--\":2:4   */\n              iszero\n              tag_38\n              jumpi\n                /* \"--CODEGEN--\":29:30   */\n              0x00\n                /* \"--CODEGEN--\":26:27   */\n              dup1\n                /* \"--CODEGEN--\":19:31   */\n              revert\n                /* \"--CODEGEN--\":2:4   */\n            tag_38:\n                /* \"staking/StakingRewardsFactory.sol\":20582:20933  function withdraw(uint256 amount) public nonReentrant updateReward(msg.sender) {... */\n              dup2\n              add\n              swap1\n              dup1\n              dup1\n              calldataload\n              swap1\n              0x20\n              add\n              swap1\n              swap3\n              swap2\n              swap1\n              pop\n              pop\n              pop\n              tag_39\n              jump\t// in\n            tag_37:\n              stop\n                /* \"staking/StakingRewardsFactory.sol\":20939:21239  function getReward() public nonReentrant updateReward(msg.sender) {... */\n            tag_8:\n              tag_40\n              tag_41\n              jump\t// in\n            tag_40:\n              stop\n                /* \"staking/StakingRewardsFactory.sol\":17469:17503  address public rewardsDistribution */\n            tag_9:\n              tag_42\n              tag_43\n              jump\t// in\n            tag_42:\n              mload(0x40)\n              dup1\n              dup3\n              0xffffffffffffffffffffffffffffffffffffffff\n              and\n              0xffffffffffffffffffffffffffffffffffffffff\n              and\n              dup2\n              mstore\n              0x20\n              add\n              swap2\n              pop\n              pop\n              mload(0x40)\n              dup1\n              swap2\n              sub\n              swap1\n              return\n                /* \"staking/StakingRewardsFactory.sol\":18826:18936  function balanceOf(address account) external view returns (uint256) {... */\n            tag_10:\n              tag_44\n              0x04\n              dup1\n              calldatasize\n              sub\n                /* \"--CODEGEN--\":13:15   */\n              0x20\n                /* \"--CODEGEN--\":8:11   */\n              dup2\n                /* \"--CODEGEN--\":5:16   */\n              lt\n                /* \"--CODEGEN--\":2:4   */\n              iszero\n              tag_45\n              jumpi\n                /* \"--CODEGEN--\":29:30   */\n              0x00\n                /* \"--CODEGEN--\":26:27   */\n              dup1\n                /* \"--CODEGEN--\":19:31   */\n              revert\n                /* \"--CODEGEN--\":2:4   */\n            tag_45:\n                /* \"staking/StakingRewardsFactory.sol\":18826:18936  function balanceOf(address account) external view returns (uint256) {... */\n              dup2\n              add\n              swap1\n              dup1\n              dup1\n              calldataload\n              0xffffffffffffffffffffffffffffffffffffffff\n              and\n              swap1\n              0x20\n              add\n              swap1\n              swap3\n              swap2\n              swap1\n              pop\n              pop\n              pop\n              tag_46\n              jump\t// in\n            tag_44:\n              mload(0x40)\n              dup1\n              dup3\n              dup2\n              mstore\n              0x20\n              add\n              swap2\n              pop\n              pop\n              mload(0x40)\n              dup1\n              swap2\n              sub\n              swap1\n              return\n                /* \"staking/StakingRewardsFactory.sol\":17984:18010  IERC20 public stakingToken */\n            tag_11:\n              tag_47\n              tag_48\n              jump\t// in\n            tag_47:\n              mload(0x40)\n              dup1\n              dup3\n              0xffffffffffffffffffffffffffffffffffffffff\n              and\n              0xffffffffffffffffffffffffffffffffffffffff\n              and\n              dup2\n              mstore\n              0x20\n              add\n              swap2\n              pop\n              pop\n              mload(0x40)\n              dup1\n              swap2\n              sub\n              swap1\n              return\n                /* \"staking/StakingRewardsFactory.sol\":18053:18082  uint256 public rewardRate = 0 */\n            tag_12:\n              tag_49\n              tag_50\n              jump\t// in\n            tag_49:\n              mload(0x40)\n              dup1\n              dup3\n              dup2\n              mstore\n              0x20\n              add\n              swap2\n              pop\n              pop\n              mload(0x40)\n              dup1\n              swap2\n              sub\n              swap1\n              return\n                /* \"staking/StakingRewardsFactory.sol\":18942:19071  function lastTimeRewardApplicable() public view returns (uint256) {... */\n            tag_13:\n              tag_51\n              tag_52\n              jump\t// in\n            tag_51:\n              mload(0x40)\n              dup1\n              dup3\n              dup2\n              mstore\n              0x20\n              add\n              swap2\n              pop\n              pop\n              mload(0x40)\n              dup1\n              swap2\n              sub\n              swap1\n              return\n                /* \"staking/StakingRewardsFactory.sol\":18165:18222  mapping(address => uint256) public userRewardPerTokenPaid */\n            tag_14:\n              tag_53\n              0x04\n              dup1\n              calldatasize\n              sub\n                /* \"--CODEGEN--\":13:15   */\n              0x20\n                /* \"--CODEGEN--\":8:11   */\n              dup2\n                /* \"--CODEGEN--\":5:16   */\n              lt\n                /* \"--CODEGEN--\":2:4   */\n              iszero\n              tag_54\n              jumpi\n                /* \"--CODEGEN--\":29:30   */\n              0x00\n                /* \"--CODEGEN--\":26:27   */\n              dup1\n                /* \"--CODEGEN--\":19:31   */\n              revert\n                /* \"--CODEGEN--\":2:4   */\n            tag_54:\n                /* \"staking/StakingRewardsFactory.sol\":18165:18222  mapping(address => uint256) public userRewardPerTokenPaid */\n              dup2\n              add\n              swap1\n              dup1\n              dup1\n              calldataload\n              0xffffffffffffffffffffffffffffffffffffffff\n              and\n              swap1\n              0x20\n              add\n              swap1\n              swap3\n              swap2\n              swap1\n              pop\n              pop\n              pop\n              tag_55\n              jump\t// in\n            tag_53:\n              mload(0x40)\n              dup1\n              dup3\n              dup2\n              mstore\n              0x20\n              add\n              swap2\n              pop\n              pop\n              mload(0x40)\n              dup1\n              swap2\n              sub\n              swap1\n              return\n                /* \"staking/StakingRewardsFactory.sol\":20213:20576  function stake(uint256 amount) external nonReentrant updateReward(msg.sender) {... */\n            tag_15:\n              tag_56\n              0x04\n              dup1\n              calldatasize\n              sub\n                /* \"--CODEGEN--\":13:15   */\n              0x20\n                /* \"--CODEGEN--\":8:11   */\n              dup2\n                /* \"--CODEGEN--\":5:16   */\n              lt\n                /* \"--CODEGEN--\":2:4   */\n              iszero\n              tag_57\n              jumpi\n                /* \"--CODEGEN--\":29:30   */\n              0x00\n                /* \"--CODEGEN--\":26:27   */\n              dup1\n                /* \"--CODEGEN--\":19:31   */\n              revert\n                /* \"--CODEGEN--\":2:4   */\n            tag_57:\n                /* \"staking/StakingRewardsFactory.sol\":20213:20576  function stake(uint256 amount) external nonReentrant updateReward(msg.sender) {... */\n              dup2\n              add\n              swap1\n              dup1\n              dup1\n              calldataload\n              swap1\n              0x20\n              add\n              swap1\n              swap3\n              swap2\n              swap1\n              pop\n              pop\n              pop\n              tag_58\n              jump\t// in\n            tag_56:\n              stop\n                /* \"staking/StakingRewardsFactory.sol\":18088:18117  uint256 public lastUpdateTime */\n            tag_16:\n              tag_59\n              tag_60\n              jump\t// in\n            tag_59:\n              mload(0x40)\n              dup1\n              dup3\n              dup2\n              mstore\n              0x20\n              add\n              swap2\n              pop\n              pop\n              mload(0x40)\n              dup1\n              swap2\n              sub\n              swap1\n              return\n                /* \"staking/StakingRewardsFactory.sol\":19077:19399  function rewardPerToken() public view returns (uint256) {... */\n            tag_17:\n              tag_61\n              tag_62\n              jump\t// in\n            tag_61:\n              mload(0x40)\n              dup1\n              dup3\n              dup2\n              mstore\n              0x20\n              add\n              swap2\n              pop\n              pop\n              mload(0x40)\n              dup1\n              swap2\n              sub\n              swap1\n              return\n                /* \"staking/StakingRewardsFactory.sol\":17952:17978  IERC20 public rewardsToken */\n            tag_18:\n              tag_63\n              tag_64\n              jump\t// in\n            tag_63:\n              mload(0x40)\n              dup1\n              dup3\n              0xffffffffffffffffffffffffffffffffffffffff\n              and\n              0xffffffffffffffffffffffffffffffffffffffff\n              and\n              dup2\n              mstore\n              0x20\n              add\n              swap2\n              pop\n              pop\n              mload(0x40)\n              dup1\n              swap2\n              sub\n              swap1\n              return\n                /* \"staking/StakingRewardsFactory.sol\":18123:18158  uint256 public rewardPerTokenStored */\n            tag_19:\n              tag_65\n              tag_66\n              jump\t// in\n            tag_65:\n              mload(0x40)\n              dup1\n              dup3\n              dup2\n              mstore\n              0x20\n              add\n              swap2\n              pop\n              pop\n              mload(0x40)\n              dup1\n              swap2\n              sub\n              swap1\n              return\n                /* \"staking/StakingRewardsFactory.sol\":21245:21339  function exit() external {... */\n            tag_20:\n              tag_67\n              tag_68\n              jump\t// in\n            tag_67:\n              stop\n                /* \"staking/StakingRewardsFactory.sol\":18016:18047  uint256 public periodFinish = 0 */\n            tag_21:\n              tag_69\n              tag_70\n              jump\t// in\n            tag_69:\n              mload(0x40)\n              dup1\n              dup3\n              dup2\n              mstore\n              0x20\n              add\n              swap2\n              pop\n              pop\n              mload(0x40)\n              dup1\n              swap2\n              sub\n              swap1\n              return\n                /* \"staking/StakingRewardsFactory.sol\":19659:20207  function stakeWithPermit(uint256 amount, uint deadline, uint8 v, bytes32 r, bytes32 s) external nonReentrant updateReward(msg.sender) {... */\n            tag_22:\n              tag_71\n              0x04\n              dup1\n              calldatasize\n              sub\n                /* \"--CODEGEN--\":13:16   */\n              0xa0\n                /* \"--CODEGEN--\":8:11   */\n              dup2\n                /* \"--CODEGEN--\":5:17   */\n              lt\n                /* \"--CODEGEN--\":2:4   */\n              iszero\n              tag_72\n              jumpi\n                /* \"--CODEGEN--\":30:31   */\n              0x00\n                /* \"--CODEGEN--\":27:28   */\n              dup1\n                /* \"--CODEGEN--\":20:32   */\n              revert\n                /* \"--CODEGEN--\":2:4   */\n            tag_72:\n                /* \"staking/StakingRewardsFactory.sol\":19659:20207  function stakeWithPermit(uint256 amount, uint deadline, uint8 v, bytes32 r, bytes32 s) external nonReentrant updateReward(msg.sender) {... */\n              dup2\n              add\n              swap1\n              dup1\n              dup1\n              calldataload\n              swap1\n              0x20\n              add\n              swap1\n              swap3\n              swap2\n              swap1\n              dup1\n              calldataload\n              swap1\n              0x20\n              add\n              swap1\n              swap3\n              swap2\n              swap1\n              dup1\n              calldataload\n              0xff\n              and\n              swap1\n              0x20\n              add\n              swap1\n              swap3\n              swap2\n              swap1\n              dup1\n              calldataload\n              swap1\n              0x20\n              add\n              swap1\n              swap3\n              swap2\n              swap1\n              dup1\n              calldataload\n              swap1\n              0x20\n              add\n              swap1\n              swap3\n              swap2\n              swap1\n              pop\n              pop\n              pop\n              tag_73\n              jump\t// in\n            tag_71:\n              stop\n                /* \"staking/StakingRewardsFactory.sol\":19405:19601  function earned(address account) public view returns (uint256) {... */\n            tag_28:\n                /* \"staking/StakingRewardsFactory.sol\":19459:19466  uint256 */\n              0x00\n                /* \"staking/StakingRewardsFactory.sol\":19485:19594  _balances[account].mul(rewardPerToken().sub(userRewardPerTokenPaid[account])).div(1e18).add(rewards[account]) */\n              tag_75\n                /* \"staking/StakingRewardsFactory.sol\":19577:19584  rewards */\n              0x09\n                /* \"staking/StakingRewardsFactory.sol\":19577:19593  rewards[account] */\n              0x00\n                /* \"staking/StakingRewardsFactory.sol\":19585:19592  account */\n              dup5\n                /* \"staking/StakingRewardsFactory.sol\":19577:19593  rewards[account] */\n              0xffffffffffffffffffffffffffffffffffffffff\n              and\n              0xffffffffffffffffffffffffffffffffffffffff\n              and\n              dup2\n              mstore\n              0x20\n              add\n              swap1\n              dup2\n              mstore\n              0x20\n              add\n              0x00\n              keccak256\n              sload\n                /* \"staking/StakingRewardsFactory.sol\":19485:19572  _balances[account].mul(rewardPerToken().sub(userRewardPerTokenPaid[account])).div(1e18) */\n              tag_76\n                /* \"staking/StakingRewardsFactory.sol\":19567:19571  1e18 */\n              0x0de0b6b3a7640000\n                /* \"staking/StakingRewardsFactory.sol\":19485:19562  _balances[account].mul(rewardPerToken().sub(userRewardPerTokenPaid[account])) */\n              tag_77\n                /* \"staking/StakingRewardsFactory.sol\":19508:19561  rewardPerToken().sub(userRewardPerTokenPaid[account]) */\n              tag_78\n                /* \"staking/StakingRewardsFactory.sol\":19529:19551  userRewardPerTokenPaid */\n              0x08\n                /* \"staking/StakingRewardsFactory.sol\":19529:19560  userRewardPerTokenPaid[account] */\n              0x00\n                /* \"staking/StakingRewardsFactory.sol\":19552:19559  account */\n              dup10\n                /* \"staking/StakingRewardsFactory.sol\":19529:19560  userRewardPerTokenPaid[account] */\n              0xffffffffffffffffffffffffffffffffffffffff\n              and\n              0xffffffffffffffffffffffffffffffffffffffff\n              and\n              dup2\n              mstore\n              0x20\n              add\n              swap1\n              dup2\n              mstore\n              0x20\n              add\n              0x00\n              keccak256\n              sload\n                /* \"staking/StakingRewardsFactory.sol\":19508:19524  rewardPerToken() */\n              tag_79\n                /* \"staking/StakingRewardsFactory.sol\":19508:19522  rewardPerToken */\n              tag_62\n                /* \"staking/StakingRewardsFactory.sol\":19508:19524  rewardPerToken() */\n              jump\t// in\n            tag_79:\n                /* \"staking/StakingRewardsFactory.sol\":19508:19528  rewardPerToken().sub */\n              tag_80\n              swap1\n                /* \"staking/StakingRewardsFactory.sol\":19508:19561  rewardPerToken().sub(userRewardPerTokenPaid[account]) */\n              swap2\n              swap1\n              0xffffffff\n              and\n              jump\t// in\n            tag_78:\n                /* \"staking/StakingRewardsFactory.sol\":19485:19494  _balances */\n              0x0b\n                /* \"staking/StakingRewardsFactory.sol\":19485:19503  _balances[account] */\n              0x00\n                /* \"staking/StakingRewardsFactory.sol\":19495:19502  account */\n              dup10\n                /* \"staking/StakingRewardsFactory.sol\":19485:19503  _balances[account] */\n              0xffffffffffffffffffffffffffffffffffffffff\n              and\n              0xffffffffffffffffffffffffffffffffffffffff\n              and\n              dup2\n              mstore\n              0x20\n              add\n              swap1\n              dup2\n              mstore\n              0x20\n              add\n              0x00\n              keccak256\n              sload\n                /* \"staking/StakingRewardsFactory.sol\":19485:19507  _balances[account].mul */\n              tag_81\n              swap1\n                /* \"staking/StakingRewardsFactory.sol\":19485:19562  _balances[account].mul(rewardPerToken().sub(userRewardPerTokenPaid[account])) */\n              swap2\n              swap1\n              0xffffffff\n              and\n              jump\t// in\n            tag_77:\n                /* \"staking/StakingRewardsFactory.sol\":19485:19566  _balances[account].mul(rewardPerToken().sub(userRewardPerTokenPaid[account])).div */\n              tag_82\n              swap1\n                /* \"staking/StakingRewardsFactory.sol\":19485:19572  _balances[account].mul(rewardPerToken().sub(userRewardPerTokenPaid[account])).div(1e18) */\n              swap2\n              swap1\n              0xffffffff\n              and\n              jump\t// in\n            tag_76:\n                /* \"staking/StakingRewardsFactory.sol\":19485:19576  _balances[account].mul(rewardPerToken().sub(userRewardPerTokenPaid[account])).div(1e18).add */\n              tag_83\n              swap1\n                /* \"staking/StakingRewardsFactory.sol\":19485:19594  _balances[account].mul(rewardPerToken().sub(userRewardPerTokenPaid[account])).div(1e18).add(rewards[account]) */\n              swap2\n              swap1\n              0xffffffff\n              and\n              jump\t// in\n            tag_75:\n                /* \"staking/StakingRewardsFactory.sol\":19478:19594  return _balances[account].mul(rewardPerToken().sub(userRewardPerTokenPaid[account])).div(1e18).add(rewards[account]) */\n              swap1\n              pop\n                /* \"staking/StakingRewardsFactory.sol\":19405:19601  function earned(address account) public view returns (uint256) {... */\n              swap2\n              swap1\n              pop\n              jump\t// out\n                /* \"staking/StakingRewardsFactory.sol\":18228:18270  mapping(address => uint256) public rewards */\n            tag_31:\n              mstore(0x20, 0x09)\n              dup1\n              0x00\n              mstore\n              keccak256(0x00, 0x40)\n              0x00\n              swap2\n              pop\n              swap1\n              pop\n              sload\n              dup2\n              jump\t// out\n                /* \"staking/StakingRewardsFactory.sol\":18729:18820  function totalSupply() external view returns (uint256) {... */\n            tag_33:\n                /* \"staking/StakingRewardsFactory.sol\":18775:18782  uint256 */\n              0x00\n                /* \"staking/StakingRewardsFactory.sol\":18801:18813  _totalSupply */\n              sload(0x0a)\n                /* \"staking/StakingRewardsFactory.sol\":18794:18813  return _totalSupply */\n              swap1\n              pop\n                /* \"staking/StakingRewardsFactory.sol\":18729:18820  function totalSupply() external view returns (uint256) {... */\n              swap1\n              jump\t// out\n                /* \"staking/StakingRewardsFactory.sol\":21399:22615  function notifyRewardAmount(uint256 reward, uint256 rewardsDuration) external onlyRewardsDistribution updateReward(address(0)) {... */\n            tag_36:\n                /* \"staking/StakingRewardsFactory.sol\":17654:17673  rewardsDistribution */\n              0x00\n              dup1\n              swap1\n              sload\n              swap1\n              0x0100\n              exp\n              swap1\n              div\n              0xffffffffffffffffffffffffffffffffffffffff\n              and\n                /* \"staking/StakingRewardsFactory.sol\":17640:17673  msg.sender == rewardsDistribution */\n              0xffffffffffffffffffffffffffffffffffffffff\n              and\n                /* \"staking/StakingRewardsFactory.sol\":17640:17650  msg.sender */\n              caller\n                /* \"staking/StakingRewardsFactory.sol\":17640:17673  msg.sender == rewardsDistribution */\n              0xffffffffffffffffffffffffffffffffffffffff\n              and\n              eq\n                /* \"staking/StakingRewardsFactory.sol\":17632:17720  require(msg.sender == rewardsDistribution, \"Caller is not RewardsDistribution contract\") */\n              tag_86\n              jumpi\n              mload(0x40)\n              0x08c379a000000000000000000000000000000000000000000000000000000000\n              dup2\n              mstore\n              0x04\n              add\n              dup1\n              dup1\n              0x20\n              add\n              dup3\n              dup2\n              sub\n              dup3\n              mstore\n              0x2a\n              dup2\n              mstore\n              0x20\n              add\n              dup1\n              data_d50b095422f4cbfcb4c90fbd4d55aaf0967bf1d90e94bb6a1ae9fc4ee7e733de\n              0x2a\n              swap2\n              codecopy\n              0x40\n              add\n              swap2\n              pop\n              pop\n              mload(0x40)\n              dup1\n              swap2\n              sub\n              swap1\n              revert\n            tag_86:\n                /* \"staking/StakingRewardsFactory.sol\":21522:21523  0 */\n              0x00\n                /* \"staking/StakingRewardsFactory.sol\":22736:22752  rewardPerToken() */\n              tag_88\n                /* \"staking/StakingRewardsFactory.sol\":22736:22750  rewardPerToken */\n              tag_62\n                /* \"staking/StakingRewardsFactory.sol\":22736:22752  rewardPerToken() */\n              jump\t// in\n            tag_88:\n                /* \"staking/StakingRewardsFactory.sol\":22713:22733  rewardPerTokenStored */\n              0x07\n                /* \"staking/StakingRewardsFactory.sol\":22713:22752  rewardPerTokenStored = rewardPerToken() */\n              dup2\n              swap1\n              sstore\n              pop\n                /* \"staking/StakingRewardsFactory.sol\":22779:22805  lastTimeRewardApplicable() */\n              tag_89\n                /* \"staking/StakingRewardsFactory.sol\":22779:22803  lastTimeRewardApplicable */\n              tag_52\n                /* \"staking/StakingRewardsFactory.sol\":22779:22805  lastTimeRewardApplicable() */\n              jump\t// in\n            tag_89:\n                /* \"staking/StakingRewardsFactory.sol\":22762:22776  lastUpdateTime */\n              0x06\n                /* \"staking/StakingRewardsFactory.sol\":22762:22805  lastUpdateTime = lastTimeRewardApplicable() */\n              dup2\n              swap1\n              sstore\n              pop\n                /* \"staking/StakingRewardsFactory.sol\":22838:22839  0 */\n              0x00\n                /* \"staking/StakingRewardsFactory.sol\":22819:22840  account != address(0) */\n              0xffffffffffffffffffffffffffffffffffffffff\n              and\n                /* \"staking/StakingRewardsFactory.sol\":22819:22826  account */\n              dup2\n                /* \"staking/StakingRewardsFactory.sol\":22819:22840  account != address(0) */\n              0xffffffffffffffffffffffffffffffffffffffff\n              and\n              eq\n                /* \"staking/StakingRewardsFactory.sol\":22815:22969  if (account != address(0)) {... */\n              tag_90\n              jumpi\n                /* \"staking/StakingRewardsFactory.sol\":22875:22890  earned(account) */\n              tag_91\n                /* \"staking/StakingRewardsFactory.sol\":22882:22889  account */\n              dup2\n                /* \"staking/StakingRewardsFactory.sol\":22875:22881  earned */\n              tag_28\n                /* \"staking/StakingRewardsFactory.sol\":22875:22890  earned(account) */\n              jump\t// in\n            tag_91:\n                /* \"staking/StakingRewardsFactory.sol\":22856:22863  rewards */\n              0x09\n                /* \"staking/StakingRewardsFactory.sol\":22856:22872  rewards[account] */\n              0x00\n                /* \"staking/StakingRewardsFactory.sol\":22864:22871  account */\n              dup4\n                /* \"staking/StakingRewardsFactory.sol\":22856:22872  rewards[account] */\n              0xffffffffffffffffffffffffffffffffffffffff\n              and\n              0xffffffffffffffffffffffffffffffffffffffff\n              and\n              dup2\n              mstore\n              0x20\n              add\n              swap1\n              dup2\n              mstore\n              0x20\n              add\n              0x00\n              keccak256\n                /* \"staking/StakingRewardsFactory.sol\":22856:22890  rewards[account] = earned(account) */\n              dup2\n              swap1\n              sstore\n              pop\n                /* \"staking/StakingRewardsFactory.sol\":22938:22958  rewardPerTokenStored */\n              sload(0x07)\n                /* \"staking/StakingRewardsFactory.sol\":22904:22926  userRewardPerTokenPaid */\n              0x08\n                /* \"staking/StakingRewardsFactory.sol\":22904:22935  userRewardPerTokenPaid[account] */\n              0x00\n                /* \"staking/StakingRewardsFactory.sol\":22927:22934  account */\n              dup4\n                /* \"staking/StakingRewardsFactory.sol\":22904:22935  userRewardPerTokenPaid[account] */\n              0xffffffffffffffffffffffffffffffffffffffff\n              and\n              0xffffffffffffffffffffffffffffffffffffffff\n              and\n              dup2\n              mstore\n              0x20\n              add\n              swap1\n              dup2\n              mstore\n              0x20\n              add\n              0x00\n              keccak256\n                /* \"staking/StakingRewardsFactory.sol\":22904:22958  userRewardPerTokenPaid[account] = rewardPerTokenStored */\n              dup2\n              swap1\n              sstore\n              pop\n                /* \"staking/StakingRewardsFactory.sol\":22815:22969  if (account != address(0)) {... */\n            tag_90:\n                /* \"staking/StakingRewardsFactory.sol\":21584:21596  periodFinish */\n              sload(0x04)\n                /* \"staking/StakingRewardsFactory.sol\":21544:21580  block.timestamp.add(rewardsDuration) */\n              tag_93\n                /* \"staking/StakingRewardsFactory.sol\":21564:21579  rewardsDuration */\n              dup4\n                /* \"staking/StakingRewardsFactory.sol\":21544:21559  block.timestamp */\n              timestamp\n                /* \"staking/StakingRewardsFactory.sol\":21544:21563  block.timestamp.add */\n              tag_83\n              swap1\n                /* \"staking/StakingRewardsFactory.sol\":21544:21580  block.timestamp.add(rewardsDuration) */\n              swap2\n              swap1\n              0xffffffff\n              and\n              jump\t// in\n            tag_93:\n                /* \"staking/StakingRewardsFactory.sol\":21544:21596  block.timestamp.add(rewardsDuration) >= periodFinish */\n              lt\n              iszero\n                /* \"staking/StakingRewardsFactory.sol\":21536:21630  require(block.timestamp.add(rewardsDuration) >= periodFinish, \"Cannot reduce existing period\") */\n              tag_94\n              jumpi\n              mload(0x40)\n              0x08c379a000000000000000000000000000000000000000000000000000000000\n              dup2\n              mstore\n              0x04\n              add\n              dup1\n              dup1\n              0x20\n              add\n              dup3\n              dup2\n              sub\n              dup3\n              mstore\n              0x1d\n              dup2\n              mstore\n              0x20\n              add\n              dup1\n              0x43616e6e6f7420726564756365206578697374696e6720706572696f64000000\n              dup2\n              mstore\n              pop\n              0x20\n              add\n              swap2\n              pop\n              pop\n              mload(0x40)\n              dup1\n              swap2\n              sub\n              swap1\n              revert\n            tag_94:\n                /* \"staking/StakingRewardsFactory.sol\":21672:21684  periodFinish */\n              sload(0x04)\n                /* \"staking/StakingRewardsFactory.sol\":21653:21668  block.timestamp */\n              timestamp\n                /* \"staking/StakingRewardsFactory.sol\":21653:21684  block.timestamp >= periodFinish */\n              lt\n                /* \"staking/StakingRewardsFactory.sol\":21649:21961  if (block.timestamp >= periodFinish) {... */\n              tag_95\n              jumpi\n                /* \"staking/StakingRewardsFactory.sol\":21713:21740  reward.div(rewardsDuration) */\n              tag_96\n                /* \"staking/StakingRewardsFactory.sol\":21724:21739  rewardsDuration */\n              dup3\n                /* \"staking/StakingRewardsFactory.sol\":21713:21719  reward */\n              dup5\n                /* \"staking/StakingRewardsFactory.sol\":21713:21723  reward.div */\n              tag_82\n              swap1\n                /* \"staking/StakingRewardsFactory.sol\":21713:21740  reward.div(rewardsDuration) */\n              swap2\n              swap1\n              0xffffffff\n              and\n              jump\t// in\n            tag_96:\n                /* \"staking/StakingRewardsFactory.sol\":21700:21710  rewardRate */\n              0x05\n                /* \"staking/StakingRewardsFactory.sol\":21700:21740  rewardRate = reward.div(rewardsDuration) */\n              dup2\n              swap1\n              sstore\n              pop\n                /* \"staking/StakingRewardsFactory.sol\":21649:21961  if (block.timestamp >= periodFinish) {... */\n              jump(tag_97)\n            tag_95:\n                /* \"staking/StakingRewardsFactory.sol\":21771:21788  uint256 remaining */\n              0x00\n                /* \"staking/StakingRewardsFactory.sol\":21791:21824  periodFinish.sub(block.timestamp) */\n              tag_98\n                /* \"staking/StakingRewardsFactory.sol\":21808:21823  block.timestamp */\n              timestamp\n                /* \"staking/StakingRewardsFactory.sol\":21791:21803  periodFinish */\n              sload(0x04)\n                /* \"staking/StakingRewardsFactory.sol\":21791:21807  periodFinish.sub */\n              tag_80\n              swap1\n                /* \"staking/StakingRewardsFactory.sol\":21791:21824  periodFinish.sub(block.timestamp) */\n              swap2\n              swap1\n              0xffffffff\n              and\n              jump\t// in\n            tag_98:\n                /* \"staking/StakingRewardsFactory.sol\":21771:21824  uint256 remaining = periodFinish.sub(block.timestamp) */\n              swap1\n              pop\n                /* \"staking/StakingRewardsFactory.sol\":21838:21854  uint256 leftover */\n              0x00\n                /* \"staking/StakingRewardsFactory.sol\":21857:21882  remaining.mul(rewardRate) */\n              tag_99\n                /* \"staking/StakingRewardsFactory.sol\":21871:21881  rewardRate */\n              sload(0x05)\n                /* \"staking/StakingRewardsFactory.sol\":21857:21866  remaining */\n              dup4\n                /* \"staking/StakingRewardsFactory.sol\":21857:21870  remaining.mul */\n              tag_81\n              swap1\n                /* \"staking/StakingRewardsFactory.sol\":21857:21882  remaining.mul(rewardRate) */\n              swap2\n              swap1\n              0xffffffff\n              and\n              jump\t// in\n            tag_99:\n                /* \"staking/StakingRewardsFactory.sol\":21838:21882  uint256 leftover = remaining.mul(rewardRate) */\n              swap1\n              pop\n                /* \"staking/StakingRewardsFactory.sol\":21909:21950  reward.add(leftover).div(rewardsDuration) */\n              tag_100\n                /* \"staking/StakingRewardsFactory.sol\":21934:21949  rewardsDuration */\n              dup5\n                /* \"staking/StakingRewardsFactory.sol\":21909:21929  reward.add(leftover) */\n              tag_101\n                /* \"staking/StakingRewardsFactory.sol\":21920:21928  leftover */\n              dup4\n                /* \"staking/StakingRewardsFactory.sol\":21909:21915  reward */\n              dup9\n                /* \"staking/StakingRewardsFactory.sol\":21909:21919  reward.add */\n              tag_83\n              swap1\n                /* \"staking/StakingRewardsFactory.sol\":21909:21929  reward.add(leftover) */\n              swap2\n              swap1\n              0xffffffff\n              and\n              jump\t// in\n            tag_101:\n                /* \"staking/StakingRewardsFactory.sol\":21909:21933  reward.add(leftover).div */\n              tag_82\n              swap1\n                /* \"staking/StakingRewardsFactory.sol\":21909:21950  reward.add(leftover).div(rewardsDuration) */\n              swap2\n              swap1\n              0xffffffff\n              and\n              jump\t// in\n            tag_100:\n                /* \"staking/StakingRewardsFactory.sol\":21896:21906  rewardRate */\n              0x05\n                /* \"staking/StakingRewardsFactory.sol\":21896:21950  rewardRate = reward.add(leftover).div(rewardsDuration) */\n              dup2\n              swap1\n              sstore\n              pop\n                /* \"staking/StakingRewardsFactory.sol\":21649:21961  if (block.timestamp >= periodFinish) {... */\n              pop\n              pop\n            tag_97:\n                /* \"staking/StakingRewardsFactory.sol\":22315:22327  uint balance */\n              0x00\n                /* \"staking/StakingRewardsFactory.sol\":22330:22342  rewardsToken */\n              0x02\n              0x00\n              swap1\n              sload\n              swap1\n              0x0100\n              exp\n              swap1\n              div\n              0xffffffffffffffffffffffffffffffffffffffff\n              and\n                /* \"staking/StakingRewardsFactory.sol\":22330:22352  rewardsToken.balanceOf */\n              0xffffffffffffffffffffffffffffffffffffffff\n              and\n              0x70a08231\n                /* \"staking/StakingRewardsFactory.sol\":22361:22365  this */\n              address\n                /* \"staking/StakingRewardsFactory.sol\":22330:22367  rewardsToken.balanceOf(address(this)) */\n              mload(0x40)\n              dup3\n              0xffffffff\n              and\n              0xe0\n              shl\n              dup2\n              mstore\n              0x04\n              add\n              dup1\n              dup3\n              0xffffffffffffffffffffffffffffffffffffffff\n              and\n              0xffffffffffffffffffffffffffffffffffffffff\n              and\n              dup2\n              mstore\n              0x20\n              add\n              swap2\n              pop\n              pop\n              0x20\n              mload(0x40)\n              dup1\n              dup4\n              sub\n              dup2\n              dup7\n              dup1\n              extcodesize\n              iszero\n                /* \"--CODEGEN--\":8:17   */\n              dup1\n                /* \"--CODEGEN--\":5:7   */\n              iszero\n              tag_102\n              jumpi\n                /* \"--CODEGEN--\":30:31   */\n              0x00\n                /* \"--CODEGEN--\":27:28   */\n              dup1\n                /* \"--CODEGEN--\":20:32   */\n              revert\n                /* \"--CODEGEN--\":5:7   */\n            tag_102:\n                /* \"staking/StakingRewardsFactory.sol\":22330:22367  rewardsToken.balanceOf(address(this)) */\n              pop\n              gas\n              staticcall\n              iszero\n                /* \"--CODEGEN--\":8:17   */\n              dup1\n                /* \"--CODEGEN--\":5:7   */\n              iszero\n              tag_103\n              jumpi\n                /* \"--CODEGEN--\":45:61   */\n              returndatasize\n                /* \"--CODEGEN--\":42:43   */\n              0x00\n                /* \"--CODEGEN--\":39:40   */\n              dup1\n                /* \"--CODEGEN--\":24:62   */\n              returndatacopy\n                /* \"--CODEGEN--\":77:93   */\n              returndatasize\n                /* \"--CODEGEN--\":74:75   */\n              0x00\n                /* \"--CODEGEN--\":67:94   */\n              revert\n                /* \"--CODEGEN--\":5:7   */\n            tag_103:\n                /* \"staking/StakingRewardsFactory.sol\":22330:22367  rewardsToken.balanceOf(address(this)) */\n              pop\n              pop\n              pop\n              pop\n              mload(0x40)\n              returndatasize\n                /* \"--CODEGEN--\":13:15   */\n              0x20\n                /* \"--CODEGEN--\":8:11   */\n              dup2\n                /* \"--CODEGEN--\":5:16   */\n              lt\n                /* \"--CODEGEN--\":2:4   */\n              iszero\n              tag_104\n              jumpi\n                /* \"--CODEGEN--\":29:30   */\n              0x00\n                /* \"--CODEGEN--\":26:27   */\n              dup1\n                /* \"--CODEGEN--\":19:31   */\n              revert\n                /* \"--CODEGEN--\":2:4   */\n            tag_104:\n                /* \"staking/StakingRewardsFactory.sol\":22330:22367  rewardsToken.balanceOf(address(this)) */\n              dup2\n              add\n              swap1\n              dup1\n              dup1\n              mload\n              swap1\n              0x20\n              add\n              swap1\n              swap3\n              swap2\n              swap1\n              pop\n              pop\n              pop\n                /* \"staking/StakingRewardsFactory.sol\":22315:22367  uint balance = rewardsToken.balanceOf(address(this)) */\n              swap1\n              pop\n                /* \"staking/StakingRewardsFactory.sol\":22399:22427  balance.div(rewardsDuration) */\n              tag_105\n                /* \"staking/StakingRewardsFactory.sol\":22411:22426  rewardsDuration */\n              dup4\n                /* \"staking/StakingRewardsFactory.sol\":22399:22406  balance */\n              dup3\n                /* \"staking/StakingRewardsFactory.sol\":22399:22410  balance.div */\n              tag_82\n              swap1\n                /* \"staking/StakingRewardsFactory.sol\":22399:22427  balance.div(rewardsDuration) */\n              swap2\n              swap1\n              0xffffffff\n              and\n              jump\t// in\n            tag_105:\n                /* \"staking/StakingRewardsFactory.sol\":22385:22395  rewardRate */\n              sload(0x05)\n                /* \"staking/StakingRewardsFactory.sol\":22385:22427  rewardRate <= balance.div(rewardsDuration) */\n              gt\n              iszero\n                /* \"staking/StakingRewardsFactory.sol\":22377:22456  require(rewardRate <= balance.div(rewardsDuration), \"Provided reward too high\") */\n              tag_106\n              jumpi\n              mload(0x40)\n              0x08c379a000000000000000000000000000000000000000000000000000000000\n              dup2\n              mstore\n              0x04\n              add\n              dup1\n              dup1\n              0x20\n              add\n              dup3\n              dup2\n              sub\n              dup3\n              mstore\n              0x18\n              dup2\n              mstore\n              0x20\n              add\n              dup1\n              0x50726f76696465642072657761726420746f6f20686967680000000000000000\n              dup2\n              mstore\n              pop\n              0x20\n              add\n              swap2\n              pop\n              pop\n              mload(0x40)\n              dup1\n              swap2\n              sub\n              swap1\n              revert\n            tag_106:\n                /* \"staking/StakingRewardsFactory.sol\":22484:22499  block.timestamp */\n              timestamp\n                /* \"staking/StakingRewardsFactory.sol\":22467:22481  lastUpdateTime */\n              0x06\n                /* \"staking/StakingRewardsFactory.sol\":22467:22499  lastUpdateTime = block.timestamp */\n              dup2\n              swap1\n              sstore\n              pop\n                /* \"staking/StakingRewardsFactory.sol\":22524:22560  block.timestamp.add(rewardsDuration) */\n              tag_107\n                /* \"staking/StakingRewardsFactory.sol\":22544:22559  rewardsDuration */\n              dup4\n                /* \"staking/StakingRewardsFactory.sol\":22524:22539  block.timestamp */\n              timestamp\n                /* \"staking/StakingRewardsFactory.sol\":22524:22543  block.timestamp.add */\n              tag_83\n              swap1\n                /* \"staking/StakingRewardsFactory.sol\":22524:22560  block.timestamp.add(rewardsDuration) */\n              swap2\n              swap1\n              0xffffffff\n              and\n              jump\t// in\n            tag_107:\n                /* \"staking/StakingRewardsFactory.sol\":22509:22521  periodFinish */\n              0x04\n                /* \"staking/StakingRewardsFactory.sol\":22509:22560  periodFinish = block.timestamp.add(rewardsDuration) */\n              dup2\n              swap1\n              sstore\n              pop\n                /* \"staking/StakingRewardsFactory.sol\":22575:22608  RewardAdded(reward, periodFinish) */\n              0x6c07ee05dcf262f13abf9d87b846ee789d2f90fe991d495acd7d7fc109ee1f55\n                /* \"staking/StakingRewardsFactory.sol\":22587:22593  reward */\n              dup5\n                /* \"staking/StakingRewardsFactory.sol\":22595:22607  periodFinish */\n              sload(0x04)\n                /* \"staking/StakingRewardsFactory.sol\":22575:22608  RewardAdded(reward, periodFinish) */\n              mload(0x40)\n              dup1\n              dup4\n              dup2\n              mstore\n              0x20\n              add\n              dup3\n              dup2\n              mstore\n              0x20\n              add\n              swap3\n              pop\n              pop\n              pop\n              mload(0x40)\n              dup1\n              swap2\n              sub\n              swap1\n              log1\n                /* \"staking/StakingRewardsFactory.sol\":22978:22979  _ */\n              pop\n                /* \"staking/StakingRewardsFactory.sol\":17730:17731  _ */\n              pop\n                /* \"staking/StakingRewardsFactory.sol\":21399:22615  function notifyRewardAmount(uint256 reward, uint256 rewardsDuration) external onlyRewardsDistribution updateReward(address(0)) {... */\n              pop\n              pop\n              jump\t// out\n                /* \"staking/StakingRewardsFactory.sol\":20582:20933  function withdraw(uint256 amount) public nonReentrant updateReward(msg.sender) {... */\n            tag_39:\n                /* \"staking/StakingRewardsFactory.sol\":16692:16693  1 */\n              0x01\n                /* \"staking/StakingRewardsFactory.sol\":16675:16688  _guardCounter */\n              dup1\n              0x00\n                /* \"staking/StakingRewardsFactory.sol\":16675:16693  _guardCounter += 1 */\n              dup3\n              dup3\n              sload\n              add\n              swap3\n              pop\n              pop\n              dup2\n              swap1\n              sstore\n              pop\n                /* \"staking/StakingRewardsFactory.sol\":16703:16723  uint256 localCounter */\n              0x00\n                /* \"staking/StakingRewardsFactory.sol\":16726:16739  _guardCounter */\n              sload(0x01)\n                /* \"staking/StakingRewardsFactory.sol\":16703:16739  uint256 localCounter = _guardCounter */\n              swap1\n              pop\n                /* \"staking/StakingRewardsFactory.sol\":20649:20659  msg.sender */\n              caller\n                /* \"staking/StakingRewardsFactory.sol\":22736:22752  rewardPerToken() */\n              tag_110\n                /* \"staking/StakingRewardsFactory.sol\":22736:22750  rewardPerToken */\n              tag_62\n                /* \"staking/StakingRewardsFactory.sol\":22736:22752  rewardPerToken() */\n              jump\t// in\n            tag_110:\n                /* \"staking/StakingRewardsFactory.sol\":22713:22733  rewardPerTokenStored */\n              0x07\n                /* \"staking/StakingRewardsFactory.sol\":22713:22752  rewardPerTokenStored = rewardPerToken() */\n              dup2\n              swap1\n              sstore\n              pop\n                /* \"staking/StakingRewardsFactory.sol\":22779:22805  lastTimeRewardApplicable() */\n              tag_111\n                /* \"staking/StakingRewardsFactory.sol\":22779:22803  lastTimeRewardApplicable */\n              tag_52\n                /* \"staking/StakingRewardsFactory.sol\":22779:22805  lastTimeRewardApplicable() */\n              jump\t// in\n            tag_111:\n                /* \"staking/StakingRewardsFactory.sol\":22762:22776  lastUpdateTime */\n              0x06\n                /* \"staking/StakingRewardsFactory.sol\":22762:22805  lastUpdateTime = lastTimeRewardApplicable() */\n              dup2\n              swap1\n              sstore\n              pop\n                /* \"staking/StakingRewardsFactory.sol\":22838:22839  0 */\n              0x00\n                /* \"staking/StakingRewardsFactory.sol\":22819:22840  account != address(0) */\n              0xffffffffffffffffffffffffffffffffffffffff\n              and\n                /* \"staking/StakingRewardsFactory.sol\":22819:22826  account */\n              dup2\n                /* \"staking/StakingRewardsFactory.sol\":22819:22840  account != address(0) */\n              0xffffffffffffffffffffffffffffffffffffffff\n              and\n              eq\n                /* \"staking/StakingRewardsFactory.sol\":22815:22969  if (account != address(0)) {... */\n              tag_112\n              jumpi\n                /* \"staking/StakingRewardsFactory.sol\":22875:22890  earned(account) */\n              tag_113\n                /* \"staking/StakingRewardsFactory.sol\":22882:22889  account */\n              dup2\n                /* \"staking/StakingRewardsFactory.sol\":22875:22881  earned */\n              tag_28\n                /* \"staking/StakingRewardsFactory.sol\":22875:22890  earned(account) */\n              jump\t// in\n            tag_113:\n                /* \"staking/StakingRewardsFactory.sol\":22856:22863  rewards */\n              0x09\n                /* \"staking/StakingRewardsFactory.sol\":22856:22872  rewards[account] */\n              0x00\n                /* \"staking/StakingRewardsFactory.sol\":22864:22871  account */\n              dup4\n                /* \"staking/StakingRewardsFactory.sol\":22856:22872  rewards[account] */\n              0xffffffffffffffffffffffffffffffffffffffff\n              and\n              0xffffffffffffffffffffffffffffffffffffffff\n              and\n              dup2\n              mstore\n              0x20\n              add\n              swap1\n              dup2\n              mstore\n              0x20\n              add\n              0x00\n              keccak256\n                /* \"staking/StakingRewardsFactory.sol\":22856:22890  rewards[account] = earned(account) */\n              dup2\n              swap1\n              sstore\n              pop\n                /* \"staking/StakingRewardsFactory.sol\":22938:22958  rewardPerTokenStored */\n              sload(0x07)\n                /* \"staking/StakingRewardsFactory.sol\":22904:22926  userRewardPerTokenPaid */\n              0x08\n                /* \"staking/StakingRewardsFactory.sol\":22904:22935  userRewardPerTokenPaid[account] */\n              0x00\n                /* \"staking/StakingRewardsFactory.sol\":22927:22934  account */\n              dup4\n                /* \"staking/StakingRewardsFactory.sol\":22904:22935  userRewardPerTokenPaid[account] */\n              0xffffffffffffffffffffffffffffffffffffffff\n              and\n              0xffffffffffffffffffffffffffffffffffffffff\n              and\n              dup2\n              mstore\n              0x20\n              add\n              swap1\n              dup2\n              mstore\n              0x20\n              add\n              0x00\n              keccak256\n                /* \"staking/StakingRewardsFactory.sol\":22904:22958  userRewardPerTokenPaid[account] = rewardPerTokenStored */\n              dup2\n              swap1\n              sstore\n              pop\n                /* \"staking/StakingRewardsFactory.sol\":22815:22969  if (account != address(0)) {... */\n            tag_112:\n                /* \"staking/StakingRewardsFactory.sol\":20688:20689  0 */\n              0x00\n                /* \"staking/StakingRewardsFactory.sol\":20679:20685  amount */\n              dup4\n                /* \"staking/StakingRewardsFactory.sol\":20679:20689  amount > 0 */\n              gt\n                /* \"staking/StakingRewardsFactory.sol\":20671:20711  require(amount > 0, \"Cannot withdraw 0\") */\n              tag_115\n              jumpi\n              mload(0x40)\n              0x08c379a000000000000000000000000000000000000000000000000000000000\n              dup2\n              mstore\n              0x04\n              add\n              dup1\n              dup1\n              0x20\n              add\n              dup3\n              dup2\n              sub\n              dup3\n              mstore\n              0x11\n              dup2\n              mstore\n              0x20\n              add\n              dup1\n              0x43616e6e6f742077697468647261772030000000000000000000000000000000\n              dup2\n              mstore\n              pop\n              0x20\n              add\n              swap2\n              pop\n              pop\n              mload(0x40)\n              dup1\n              swap2\n              sub\n              swap1\n              revert\n            tag_115:\n                /* \"staking/StakingRewardsFactory.sol\":20736:20760  _totalSupply.sub(amount) */\n              tag_116\n                /* \"staking/StakingRewardsFactory.sol\":20753:20759  amount */\n              dup4\n                /* \"staking/StakingRewardsFactory.sol\":20736:20748  _totalSupply */\n              sload(0x0a)\n                /* \"staking/StakingRewardsFactory.sol\":20736:20752  _totalSupply.sub */\n              tag_80\n              swap1\n                /* \"staking/StakingRewardsFactory.sol\":20736:20760  _totalSupply.sub(amount) */\n              swap2\n              swap1\n              0xffffffff\n              and\n              jump\t// in\n            tag_116:\n                /* \"staking/StakingRewardsFactory.sol\":20721:20733  _totalSupply */\n              0x0a\n                /* \"staking/StakingRewardsFactory.sol\":20721:20760  _totalSupply = _totalSupply.sub(amount) */\n              dup2\n              swap1\n              sstore\n              pop\n                /* \"staking/StakingRewardsFactory.sol\":20794:20827  _balances[msg.sender].sub(amount) */\n              tag_117\n                /* \"staking/StakingRewardsFactory.sol\":20820:20826  amount */\n              dup4\n                /* \"staking/StakingRewardsFactory.sol\":20794:20803  _balances */\n              0x0b\n                /* \"staking/StakingRewardsFactory.sol\":20794:20815  _balances[msg.sender] */\n              0x00\n                /* \"staking/StakingRewardsFactory.sol\":20804:20814  msg.sender */\n              caller\n                /* \"staking/StakingRewardsFactory.sol\":20794:20815  _balances[msg.sender] */\n              0xffffffffffffffffffffffffffffffffffffffff\n              and\n              0xffffffffffffffffffffffffffffffffffffffff\n              and\n              dup2\n              mstore\n              0x20\n              add\n              swap1\n              dup2\n              mstore\n              0x20\n              add\n              0x00\n              keccak256\n              sload\n                /* \"staking/StakingRewardsFactory.sol\":20794:20819  _balances[msg.sender].sub */\n              tag_80\n              swap1\n                /* \"staking/StakingRewardsFactory.sol\":20794:20827  _balances[msg.sender].sub(amount) */\n              swap2\n              swap1\n              0xffffffff\n              and\n              jump\t// in\n            tag_117:\n                /* \"staking/StakingRewardsFactory.sol\":20770:20779  _balances */\n              0x0b\n                /* \"staking/StakingRewardsFactory.sol\":20770:20791  _balances[msg.sender] */\n              0x00\n                /* \"staking/StakingRewardsFactory.sol\":20780:20790  msg.sender */\n              caller\n                /* \"staking/StakingRewardsFactory.sol\":20770:20791  _balances[msg.sender] */\n              0xffffffffffffffffffffffffffffffffffffffff\n              and\n              0xffffffffffffffffffffffffffffffffffffffff\n              and\n              dup2\n              mstore\n              0x20\n              add\n              swap1\n              dup2\n              mstore\n              0x20\n              add\n              0x00\n              keccak256\n                /* \"staking/StakingRewardsFactory.sol\":20770:20827  _balances[msg.sender] = _balances[msg.sender].sub(amount) */\n              dup2\n              swap1\n              sstore\n              pop\n                /* \"staking/StakingRewardsFactory.sol\":20837:20882  stakingToken.safeTransfer(msg.sender, amount) */\n              tag_118\n                /* \"staking/StakingRewardsFactory.sol\":20863:20873  msg.sender */\n              caller\n                /* \"staking/StakingRewardsFactory.sol\":20875:20881  amount */\n              dup5\n                /* \"staking/StakingRewardsFactory.sol\":20837:20849  stakingToken */\n              0x03\n              0x00\n              swap1\n              sload\n              swap1\n              0x0100\n              exp\n              swap1\n              div\n              0xffffffffffffffffffffffffffffffffffffffff\n              and\n                /* \"staking/StakingRewardsFactory.sol\":20837:20862  stakingToken.safeTransfer */\n              0xffffffffffffffffffffffffffffffffffffffff\n              and\n              tag_119\n              swap1\n                /* \"staking/StakingRewardsFactory.sol\":20837:20882  stakingToken.safeTransfer(msg.sender, amount) */\n              swap3\n              swap2\n              swap1\n              0xffffffff\n              and\n              jump\t// in\n            tag_118:\n                /* \"staking/StakingRewardsFactory.sol\":20907:20917  msg.sender */\n              caller\n                /* \"staking/StakingRewardsFactory.sol\":20897:20926  Withdrawn(msg.sender, amount) */\n              0xffffffffffffffffffffffffffffffffffffffff\n              and\n              0x7084f5476618d8e60b11ef0d7d3f06914655adb8793e28ff7f018d4c76d505d5\n                /* \"staking/StakingRewardsFactory.sol\":20919:20925  amount */\n              dup5\n                /* \"staking/StakingRewardsFactory.sol\":20897:20926  Withdrawn(msg.sender, amount) */\n              mload(0x40)\n              dup1\n              dup3\n              dup2\n              mstore\n              0x20\n              add\n              swap2\n              pop\n              pop\n              mload(0x40)\n              dup1\n              swap2\n              sub\n              swap1\n              log2\n                /* \"staking/StakingRewardsFactory.sol\":16749:16750  _ */\n              pop\n                /* \"staking/StakingRewardsFactory.sol\":16784:16797  _guardCounter */\n              sload(0x01)\n                /* \"staking/StakingRewardsFactory.sol\":16768:16780  localCounter */\n              dup2\n                /* \"staking/StakingRewardsFactory.sol\":16768:16797  localCounter == _guardCounter */\n              eq\n                /* \"staking/StakingRewardsFactory.sol\":16760:16833  require(localCounter == _guardCounter, \"ReentrancyGuard: reentrant call\") */\n              tag_120\n              jumpi\n              mload(0x40)\n              0x08c379a000000000000000000000000000000000000000000000000000000000\n              dup2\n              mstore\n              0x04\n              add\n              dup1\n              dup1\n              0x20\n              add\n              dup3\n              dup2\n              sub\n              dup3\n              mstore\n              0x1f\n              dup2\n              mstore\n              0x20\n              add\n              dup1\n              0x5265656e7472616e637947756172643a207265656e7472616e742063616c6c00\n              dup2\n              mstore\n              pop\n              0x20\n              add\n              swap2\n              pop\n              pop\n              mload(0x40)\n              dup1\n              swap2\n              sub\n              swap1\n              revert\n            tag_120:\n                /* \"staking/StakingRewardsFactory.sol\":20582:20933  function withdraw(uint256 amount) public nonReentrant updateReward(msg.sender) {... */\n              pop\n              pop\n              jump\t// out\n                /* \"staking/StakingRewardsFactory.sol\":20939:21239  function getReward() public nonReentrant updateReward(msg.sender) {... */\n            tag_41:\n                /* \"staking/StakingRewardsFactory.sol\":16692:16693  1 */\n              0x01\n                /* \"staking/StakingRewardsFactory.sol\":16675:16688  _guardCounter */\n              dup1\n              0x00\n                /* \"staking/StakingRewardsFactory.sol\":16675:16693  _guardCounter += 1 */\n              dup3\n              dup3\n              sload\n              add\n              swap3\n              pop\n              pop\n              dup2\n              swap1\n              sstore\n              pop\n                /* \"staking/StakingRewardsFactory.sol\":16703:16723  uint256 localCounter */\n              0x00\n                /* \"staking/StakingRewardsFactory.sol\":16726:16739  _guardCounter */\n              sload(0x01)\n                /* \"staking/StakingRewardsFactory.sol\":16703:16739  uint256 localCounter = _guardCounter */\n              swap1\n              pop\n                /* \"staking/StakingRewardsFactory.sol\":20993:21003  msg.sender */\n              caller\n                /* \"staking/StakingRewardsFactory.sol\":22736:22752  rewardPerToken() */\n              tag_123\n                /* \"staking/StakingRewardsFactory.sol\":22736:22750  rewardPerToken */\n              tag_62\n                /* \"staking/StakingRewardsFactory.sol\":22736:22752  rewardPerToken() */\n              jump\t// in\n            tag_123:\n                /* \"staking/StakingRewardsFactory.sol\":22713:22733  rewardPerTokenStored */\n              0x07\n                /* \"staking/StakingRewardsFactory.sol\":22713:22752  rewardPerTokenStored = rewardPerToken() */\n              dup2\n              swap1\n              sstore\n              pop\n                /* \"staking/StakingRewardsFactory.sol\":22779:22805  lastTimeRewardApplicable() */\n              tag_124\n                /* \"staking/StakingRewardsFactory.sol\":22779:22803  lastTimeRewardApplicable */\n              tag_52\n                /* \"staking/StakingRewardsFactory.sol\":22779:22805  lastTimeRewardApplicable() */\n              jump\t// in\n            tag_124:\n                /* \"staking/StakingRewardsFactory.sol\":22762:22776  lastUpdateTime */\n              0x06\n                /* \"staking/StakingRewardsFactory.sol\":22762:22805  lastUpdateTime = lastTimeRewardApplicable() */\n              dup2\n              swap1\n              sstore\n              pop\n                /* \"staking/StakingRewardsFactory.sol\":22838:22839  0 */\n              0x00\n                /* \"staking/StakingRewardsFactory.sol\":22819:22840  account != address(0) */\n              0xffffffffffffffffffffffffffffffffffffffff\n              and\n                /* \"staking/StakingRewardsFactory.sol\":22819:22826  account */\n              dup2\n                /* \"staking/StakingRewardsFactory.sol\":22819:22840  account != address(0) */\n              0xffffffffffffffffffffffffffffffffffffffff\n              and\n              eq\n                /* \"staking/StakingRewardsFactory.sol\":22815:22969  if (account != address(0)) {... */\n              tag_125\n              jumpi\n                /* \"staking/StakingRewardsFactory.sol\":22875:22890  earned(account) */\n              tag_126\n                /* \"staking/StakingRewardsFactory.sol\":22882:22889  account */\n              dup2\n                /* \"staking/StakingRewardsFactory.sol\":22875:22881  earned */\n              tag_28\n                /* \"staking/StakingRewardsFactory.sol\":22875:22890  earned(account) */\n              jump\t// in\n            tag_126:\n                /* \"staking/StakingRewardsFactory.sol\":22856:22863  rewards */\n              0x09\n                /* \"staking/StakingRewardsFactory.sol\":22856:22872  rewards[account] */\n              0x00\n                /* \"staking/StakingRewardsFactory.sol\":22864:22871  account */\n              dup4\n                /* \"staking/StakingRewardsFactory.sol\":22856:22872  rewards[account] */\n              0xffffffffffffffffffffffffffffffffffffffff\n              and\n              0xffffffffffffffffffffffffffffffffffffffff\n              and\n              dup2\n              mstore\n              0x20\n              add\n              swap1\n              dup2\n              mstore\n              0x20\n              add\n              0x00\n              keccak256\n                /* \"staking/StakingRewardsFactory.sol\":22856:22890  rewards[account] = earned(account) */\n              dup2\n              swap1\n              sstore\n              pop\n                /* \"staking/StakingRewardsFactory.sol\":22938:22958  rewardPerTokenStored */\n              sload(0x07)\n                /* \"staking/StakingRewardsFactory.sol\":22904:22926  userRewardPerTokenPaid */\n              0x08\n                /* \"staking/StakingRewardsFactory.sol\":22904:22935  userRewardPerTokenPaid[account] */\n              0x00\n                /* \"staking/StakingRewardsFactory.sol\":22927:22934  account */\n              dup4\n                /* \"staking/StakingRewardsFactory.sol\":22904:22935  userRewardPerTokenPaid[account] */\n              0xffffffffffffffffffffffffffffffffffffffff\n              and\n              0xffffffffffffffffffffffffffffffffffffffff\n              and\n              dup2\n              mstore\n              0x20\n              add\n              swap1\n              dup2\n              mstore\n              0x20\n              add\n              0x00\n              keccak256\n                /* \"staking/StakingRewardsFactory.sol\":22904:22958  userRewardPerTokenPaid[account] = rewardPerTokenStored */\n              dup2\n              swap1\n              sstore\n              pop\n                /* \"staking/StakingRewardsFactory.sol\":22815:22969  if (account != address(0)) {... */\n            tag_125:\n                /* \"staking/StakingRewardsFactory.sol\":21015:21029  uint256 reward */\n              0x00\n                /* \"staking/StakingRewardsFactory.sol\":21032:21039  rewards */\n              0x09\n                /* \"staking/StakingRewardsFactory.sol\":21032:21051  rewards[msg.sender] */\n              0x00\n                /* \"staking/StakingRewardsFactory.sol\":21040:21050  msg.sender */\n              caller\n                /* \"staking/StakingRewardsFactory.sol\":21032:21051  rewards[msg.sender] */\n              0xffffffffffffffffffffffffffffffffffffffff\n              and\n              0xffffffffffffffffffffffffffffffffffffffff\n              and\n              dup2\n              mstore\n              0x20\n              add\n              swap1\n              dup2\n              mstore\n              0x20\n              add\n              0x00\n              keccak256\n              sload\n                /* \"staking/StakingRewardsFactory.sol\":21015:21051  uint256 reward = rewards[msg.sender] */\n              swap1\n              pop\n                /* \"staking/StakingRewardsFactory.sol\":21074:21075  0 */\n              0x00\n                /* \"staking/StakingRewardsFactory.sol\":21065:21071  reward */\n              dup2\n                /* \"staking/StakingRewardsFactory.sol\":21065:21075  reward > 0 */\n              gt\n                /* \"staking/StakingRewardsFactory.sol\":21061:21233  if (reward > 0) {... */\n              iszero\n              tag_128\n              jumpi\n                /* \"staking/StakingRewardsFactory.sol\":21113:21114  0 */\n              0x00\n                /* \"staking/StakingRewardsFactory.sol\":21091:21098  rewards */\n              0x09\n                /* \"staking/StakingRewardsFactory.sol\":21091:21110  rewards[msg.sender] */\n              0x00\n                /* \"staking/StakingRewardsFactory.sol\":21099:21109  msg.sender */\n              caller\n                /* \"staking/StakingRewardsFactory.sol\":21091:21110  rewards[msg.sender] */\n              0xffffffffffffffffffffffffffffffffffffffff\n              and\n              0xffffffffffffffffffffffffffffffffffffffff\n              and\n              dup2\n              mstore\n              0x20\n              add\n              swap1\n              dup2\n              mstore\n              0x20\n              add\n              0x00\n              keccak256\n                /* \"staking/StakingRewardsFactory.sol\":21091:21114  rewards[msg.sender] = 0 */\n              dup2\n              swap1\n              sstore\n              pop\n                /* \"staking/StakingRewardsFactory.sol\":21128:21173  rewardsToken.safeTransfer(msg.sender, reward) */\n              tag_129\n                /* \"staking/StakingRewardsFactory.sol\":21154:21164  msg.sender */\n              caller\n                /* \"staking/StakingRewardsFactory.sol\":21166:21172  reward */\n              dup3\n                /* \"staking/StakingRewardsFactory.sol\":21128:21140  rewardsToken */\n              0x02\n              0x00\n              swap1\n              sload\n              swap1\n              0x0100\n              exp\n              swap1\n              div\n              0xffffffffffffffffffffffffffffffffffffffff\n              and\n                /* \"staking/StakingRewardsFactory.sol\":21128:21153  rewardsToken.safeTransfer */\n              0xffffffffffffffffffffffffffffffffffffffff\n              and\n              tag_119\n              swap1\n                /* \"staking/StakingRewardsFactory.sol\":21128:21173  rewardsToken.safeTransfer(msg.sender, reward) */\n              swap3\n              swap2\n              swap1\n              0xffffffff\n              and\n              jump\t// in\n            tag_129:\n                /* \"staking/StakingRewardsFactory.sol\":21203:21213  msg.sender */\n              caller\n                /* \"staking/StakingRewardsFactory.sol\":21192:21222  RewardPaid(msg.sender, reward) */\n              0xffffffffffffffffffffffffffffffffffffffff\n              and\n              0xe2403640ba68fed3a2f88b7557551d1993f84b99bb10ff833f0cf8db0c5e0486\n                /* \"staking/StakingRewardsFactory.sol\":21215:21221  reward */\n              dup3\n                /* \"staking/StakingRewardsFactory.sol\":21192:21222  RewardPaid(msg.sender, reward) */\n              mload(0x40)\n              dup1\n              dup3\n              dup2\n              mstore\n              0x20\n              add\n              swap2\n              pop\n              pop\n              mload(0x40)\n              dup1\n              swap2\n              sub\n              swap1\n              log2\n                /* \"staking/StakingRewardsFactory.sol\":21061:21233  if (reward > 0) {... */\n            tag_128:\n                /* \"staking/StakingRewardsFactory.sol\":22978:22979  _ */\n              pop\n                /* \"staking/StakingRewardsFactory.sol\":16749:16750  _ */\n              pop\n                /* \"staking/StakingRewardsFactory.sol\":16784:16797  _guardCounter */\n              sload(0x01)\n                /* \"staking/StakingRewardsFactory.sol\":16768:16780  localCounter */\n              dup2\n                /* \"staking/StakingRewardsFactory.sol\":16768:16797  localCounter == _guardCounter */\n              eq\n                /* \"staking/StakingRewardsFactory.sol\":16760:16833  require(localCounter == _guardCounter, \"ReentrancyGuard: reentrant call\") */\n              tag_130\n              jumpi\n              mload(0x40)\n              0x08c379a000000000000000000000000000000000000000000000000000000000\n              dup2\n              mstore\n              0x04\n              add\n              dup1\n              dup1\n              0x20\n              add\n              dup3\n              dup2\n              sub\n              dup3\n              mstore\n              0x1f\n              dup2\n              mstore\n              0x20\n              add\n              dup1\n              0x5265656e7472616e637947756172643a207265656e7472616e742063616c6c00\n              dup2\n              mstore\n              pop\n              0x20\n              add\n              swap2\n              pop\n              pop\n              mload(0x40)\n              dup1\n              swap2\n              sub\n              swap1\n              revert\n            tag_130:\n                /* \"staking/StakingRewardsFactory.sol\":20939:21239  function getReward() public nonReentrant updateReward(msg.sender) {... */\n              pop\n              jump\t// out\n                /* \"staking/StakingRewardsFactory.sol\":17469:17503  address public rewardsDistribution */\n            tag_43:\n              0x00\n              dup1\n              swap1\n              sload\n              swap1\n              0x0100\n              exp\n              swap1\n              div\n              0xffffffffffffffffffffffffffffffffffffffff\n              and\n              dup2\n              jump\t// out\n                /* \"staking/StakingRewardsFactory.sol\":18826:18936  function balanceOf(address account) external view returns (uint256) {... */\n            tag_46:\n                /* \"staking/StakingRewardsFactory.sol\":18885:18892  uint256 */\n              0x00\n                /* \"staking/StakingRewardsFactory.sol\":18911:18920  _balances */\n              0x0b\n                /* \"staking/StakingRewardsFactory.sol\":18911:18929  _balances[account] */\n              0x00\n                /* \"staking/StakingRewardsFactory.sol\":18921:18928  account */\n              dup4\n                /* \"staking/StakingRewardsFactory.sol\":18911:18929  _balances[account] */\n              0xffffffffffffffffffffffffffffffffffffffff\n              and\n              0xffffffffffffffffffffffffffffffffffffffff\n              and\n              dup2\n              mstore\n              0x20\n              add\n              swap1\n              dup2\n              mstore\n              0x20\n              add\n              0x00\n              keccak256\n              sload\n                /* \"staking/StakingRewardsFactory.sol\":18904:18929  return _balances[account] */\n              swap1\n              pop\n                /* \"staking/StakingRewardsFactory.sol\":18826:18936  function balanceOf(address account) external view returns (uint256) {... */\n              swap2\n              swap1\n              pop\n              jump\t// out\n                /* \"staking/StakingRewardsFactory.sol\":17984:18010  IERC20 public stakingToken */\n            tag_48:\n              0x03\n              0x00\n              swap1\n              sload\n              swap1\n              0x0100\n              exp\n              swap1\n              div\n              0xffffffffffffffffffffffffffffffffffffffff\n              and\n              dup2\n              jump\t// out\n                /* \"staking/StakingRewardsFactory.sol\":18053:18082  uint256 public rewardRate = 0 */\n            tag_50:\n              sload(0x05)\n              dup2\n              jump\t// out\n                /* \"staking/StakingRewardsFactory.sol\":18942:19071  function lastTimeRewardApplicable() public view returns (uint256) {... */\n            tag_52:\n                /* \"staking/StakingRewardsFactory.sol\":18999:19006  uint256 */\n              0x00\n                /* \"staking/StakingRewardsFactory.sol\":19025:19064  Math.min(block.timestamp, periodFinish) */\n              tag_133\n                /* \"staking/StakingRewardsFactory.sol\":19034:19049  block.timestamp */\n              timestamp\n                /* \"staking/StakingRewardsFactory.sol\":19051:19063  periodFinish */\n              sload(0x04)\n                /* \"staking/StakingRewardsFactory.sol\":19025:19033  Math.min */\n              tag_134\n                /* \"staking/StakingRewardsFactory.sol\":19025:19064  Math.min(block.timestamp, periodFinish) */\n              jump\t// in\n            tag_133:\n                /* \"staking/StakingRewardsFactory.sol\":19018:19064  return Math.min(block.timestamp, periodFinish) */\n              swap1\n              pop\n                /* \"staking/StakingRewardsFactory.sol\":18942:19071  function lastTimeRewardApplicable() public view returns (uint256) {... */\n              swap1\n              jump\t// out\n                /* \"staking/StakingRewardsFactory.sol\":18165:18222  mapping(address => uint256) public userRewardPerTokenPaid */\n            tag_55:\n              mstore(0x20, 0x08)\n              dup1\n              0x00\n              mstore\n              keccak256(0x00, 0x40)\n              0x00\n              swap2\n              pop\n              swap1\n              pop\n              sload\n              dup2\n              jump\t// out\n                /* \"staking/StakingRewardsFactory.sol\":20213:20576  function stake(uint256 amount) external nonReentrant updateReward(msg.sender) {... */\n            tag_58:\n                /* \"staking/StakingRewardsFactory.sol\":16692:16693  1 */\n              0x01\n                /* \"staking/StakingRewardsFactory.sol\":16675:16688  _guardCounter */\n              dup1\n              0x00\n                /* \"staking/StakingRewardsFactory.sol\":16675:16693  _guardCounter += 1 */\n              dup3\n              dup3\n              sload\n              add\n              swap3\n              pop\n              pop\n              dup2\n              swap1\n              sstore\n              pop\n                /* \"staking/StakingRewardsFactory.sol\":16703:16723  uint256 localCounter */\n              0x00\n                /* \"staking/StakingRewardsFactory.sol\":16726:16739  _guardCounter */\n              sload(0x01)\n                /* \"staking/StakingRewardsFactory.sol\":16703:16739  uint256 localCounter = _guardCounter */\n              swap1\n              pop\n                /* \"staking/StakingRewardsFactory.sol\":20279:20289  msg.sender */\n              caller\n                /* \"staking/StakingRewardsFactory.sol\":22736:22752  rewardPerToken() */\n              tag_137\n                /* \"staking/StakingRewardsFactory.sol\":22736:22750  rewardPerToken */\n              tag_62\n                /* \"staking/StakingRewardsFactory.sol\":22736:22752  rewardPerToken() */\n              jump\t// in\n            tag_137:\n                /* \"staking/StakingRewardsFactory.sol\":22713:22733  rewardPerTokenStored */\n              0x07\n                /* \"staking/StakingRewardsFactory.sol\":22713:22752  rewardPerTokenStored = rewardPerToken() */\n              dup2\n              swap1\n              sstore\n              pop\n                /* \"staking/StakingRewardsFactory.sol\":22779:22805  lastTimeRewardApplicable() */\n              tag_138\n                /* \"staking/StakingRewardsFactory.sol\":22779:22803  lastTimeRewardApplicable */\n              tag_52\n                /* \"staking/StakingRewardsFactory.sol\":22779:22805  lastTimeRewardApplicable() */\n              jump\t// in\n            tag_138:\n                /* \"staking/StakingRewardsFactory.sol\":22762:22776  lastUpdateTime */\n              0x06\n                /* \"staking/StakingRewardsFactory.sol\":22762:22805  lastUpdateTime = lastTimeRewardApplicable() */\n              dup2\n              swap1\n              sstore\n              pop\n                /* \"staking/StakingRewardsFactory.sol\":22838:22839  0 */\n              0x00\n                /* \"staking/StakingRewardsFactory.sol\":22819:22840  account != address(0) */\n              0xffffffffffffffffffffffffffffffffffffffff\n              and\n                /* \"staking/StakingRewardsFactory.sol\":22819:22826  account */\n              dup2\n                /* \"staking/StakingRewardsFactory.sol\":22819:22840  account != address(0) */\n              0xffffffffffffffffffffffffffffffffffffffff\n              and\n              eq\n                /* \"staking/StakingRewardsFactory.sol\":22815:22969  if (account != address(0)) {... */\n              tag_139\n              jumpi\n                /* \"staking/StakingRewardsFactory.sol\":22875:22890  earned(account) */\n              tag_140\n                /* \"staking/StakingRewardsFactory.sol\":22882:22889  account */\n              dup2\n                /* \"staking/StakingRewardsFactory.sol\":22875:22881  earned */\n              tag_28\n                /* \"staking/StakingRewardsFactory.sol\":22875:22890  earned(account) */\n              jump\t// in\n            tag_140:\n                /* \"staking/StakingRewardsFactory.sol\":22856:22863  rewards */\n              0x09\n                /* \"staking/StakingRewardsFactory.sol\":22856:22872  rewards[account] */\n              0x00\n                /* \"staking/StakingRewardsFactory.sol\":22864:22871  account */\n              dup4\n                /* \"staking/StakingRewardsFactory.sol\":22856:22872  rewards[account] */\n              0xffffffffffffffffffffffffffffffffffffffff\n              and\n              0xffffffffffffffffffffffffffffffffffffffff\n              and\n              dup2\n              mstore\n              0x20\n              add\n              swap1\n              dup2\n              mstore\n              0x20\n              add\n              0x00\n              keccak256\n                /* \"staking/StakingRewardsFactory.sol\":22856:22890  rewards[account] = earned(account) */\n              dup2\n              swap1\n              sstore\n              pop\n                /* \"staking/StakingRewardsFactory.sol\":22938:22958  rewardPerTokenStored */\n              sload(0x07)\n                /* \"staking/StakingRewardsFactory.sol\":22904:22926  userRewardPerTokenPaid */\n              0x08\n                /* \"staking/StakingRewardsFactory.sol\":22904:22935  userRewardPerTokenPaid[account] */\n              0x00\n                /* \"staking/StakingRewardsFactory.sol\":22927:22934  account */\n              dup4\n                /* \"staking/StakingRewardsFactory.sol\":22904:22935  userRewardPerTokenPaid[account] */\n              0xffffffffffffffffffffffffffffffffffffffff\n              and\n              0xffffffffffffffffffffffffffffffffffffffff\n              and\n              dup2\n              mstore\n              0x20\n              add\n              swap1\n              dup2\n              mstore\n              0x20\n              add\n              0x00\n              keccak256\n                /* \"staking/StakingRewardsFactory.sol\":22904:22958  userRewardPerTokenPaid[account] = rewardPerTokenStored */\n              dup2\n              swap1\n              sstore\n              pop\n                /* \"staking/StakingRewardsFactory.sol\":22815:22969  if (account != address(0)) {... */\n            tag_139:\n                /* \"staking/StakingRewardsFactory.sol\":20318:20319  0 */\n              0x00\n                /* \"staking/StakingRewardsFactory.sol\":20309:20315  amount */\n              dup4\n                /* \"staking/StakingRewardsFactory.sol\":20309:20319  amount > 0 */\n              gt\n                /* \"staking/StakingRewardsFactory.sol\":20301:20338  require(amount > 0, \"Cannot stake 0\") */\n              tag_142\n              jumpi\n              mload(0x40)\n              0x08c379a000000000000000000000000000000000000000000000000000000000\n              dup2\n              mstore\n              0x04\n              add\n              dup1\n              dup1\n              0x20\n              add\n              dup3\n              dup2\n              sub\n              dup3\n              mstore\n              0x0e\n              dup2\n              mstore\n              0x20\n              add\n              dup1\n              0x43616e6e6f74207374616b652030000000000000000000000000000000000000\n              dup2\n              mstore\n              pop\n              0x20\n              add\n              swap2\n              pop\n              pop\n              mload(0x40)\n              dup1\n              swap2\n              sub\n              swap1\n              revert\n            tag_142:\n                /* \"staking/StakingRewardsFactory.sol\":20363:20387  _totalSupply.add(amount) */\n              tag_143\n                /* \"staking/StakingRewardsFactory.sol\":20380:20386  amount */\n              dup4\n                /* \"staking/StakingRewardsFactory.sol\":20363:20375  _totalSupply */\n              sload(0x0a)\n                /* \"staking/StakingRewardsFactory.sol\":20363:20379  _totalSupply.add */\n              tag_83\n              swap1\n                /* \"staking/StakingRewardsFactory.sol\":20363:20387  _totalSupply.add(amount) */\n              swap2\n              swap1\n              0xffffffff\n              and\n              jump\t// in\n            tag_143:\n                /* \"staking/StakingRewardsFactory.sol\":20348:20360  _totalSupply */\n              0x0a\n                /* \"staking/StakingRewardsFactory.sol\":20348:20387  _totalSupply = _totalSupply.add(amount) */\n              dup2\n              swap1\n              sstore\n              pop\n                /* \"staking/StakingRewardsFactory.sol\":20421:20454  _balances[msg.sender].add(amount) */\n              tag_144\n                /* \"staking/StakingRewardsFactory.sol\":20447:20453  amount */\n              dup4\n                /* \"staking/StakingRewardsFactory.sol\":20421:20430  _balances */\n              0x0b\n                /* \"staking/StakingRewardsFactory.sol\":20421:20442  _balances[msg.sender] */\n              0x00\n                /* \"staking/StakingRewardsFactory.sol\":20431:20441  msg.sender */\n              caller\n                /* \"staking/StakingRewardsFactory.sol\":20421:20442  _balances[msg.sender] */\n              0xffffffffffffffffffffffffffffffffffffffff\n              and\n              0xffffffffffffffffffffffffffffffffffffffff\n              and\n              dup2\n              mstore\n              0x20\n              add\n              swap1\n              dup2\n              mstore\n              0x20\n              add\n              0x00\n              keccak256\n              sload\n                /* \"staking/StakingRewardsFactory.sol\":20421:20446  _balances[msg.sender].add */\n              tag_83\n              swap1\n                /* \"staking/StakingRewardsFactory.sol\":20421:20454  _balances[msg.sender].add(amount) */\n              swap2\n              swap1\n              0xffffffff\n              and\n              jump\t// in\n            tag_144:\n                /* \"staking/StakingRewardsFactory.sol\":20397:20406  _balances */\n              0x0b\n                /* \"staking/StakingRewardsFactory.sol\":20397:20418  _balances[msg.sender] */\n              0x00\n                /* \"staking/StakingRewardsFactory.sol\":20407:20417  msg.sender */\n              caller\n                /* \"staking/StakingRewardsFactory.sol\":20397:20418  _balances[msg.sender] */\n              0xffffffffffffffffffffffffffffffffffffffff\n              and\n              0xffffffffffffffffffffffffffffffffffffffff\n              and\n              dup2\n              mstore\n              0x20\n              add\n              swap1\n              dup2\n              mstore\n              0x20\n              add\n              0x00\n              keccak256\n                /* \"staking/StakingRewardsFactory.sol\":20397:20454  _balances[msg.sender] = _balances[msg.sender].add(amount) */\n              dup2\n              swap1\n              sstore\n              pop\n                /* \"staking/StakingRewardsFactory.sol\":20464:20528  stakingToken.safeTransferFrom(msg.sender, address(this), amount) */\n              tag_145\n                /* \"staking/StakingRewardsFactory.sol\":20494:20504  msg.sender */\n              caller\n                /* \"staking/StakingRewardsFactory.sol\":20514:20518  this */\n              address\n                /* \"staking/StakingRewardsFactory.sol\":20521:20527  amount */\n              dup6\n                /* \"staking/StakingRewardsFactory.sol\":20464:20476  stakingToken */\n              0x03\n              0x00\n              swap1\n              sload\n              swap1\n              0x0100\n              exp\n              swap1\n              div\n              0xffffffffffffffffffffffffffffffffffffffff\n              and\n                /* \"staking/StakingRewardsFactory.sol\":20464:20493  stakingToken.safeTransferFrom */\n              0xffffffffffffffffffffffffffffffffffffffff\n              and\n              tag_146\n              swap1\n                /* \"staking/StakingRewardsFactory.sol\":20464:20528  stakingToken.safeTransferFrom(msg.sender, address(this), amount) */\n              swap4\n              swap3\n              swap2\n              swap1\n              0xffffffff\n              and\n              jump\t// in\n            tag_145:\n                /* \"staking/StakingRewardsFactory.sol\":20550:20560  msg.sender */\n              caller\n                /* \"staking/StakingRewardsFactory.sol\":20543:20569  Staked(msg.sender, amount) */\n              0xffffffffffffffffffffffffffffffffffffffff\n              and\n              0x9e71bc8eea02a63969f509818f2dafb9254532904319f9dbda79b67bd34a5f3d\n                /* \"staking/StakingRewardsFactory.sol\":20562:20568  amount */\n              dup5\n                /* \"staking/StakingRewardsFactory.sol\":20543:20569  Staked(msg.sender, amount) */\n              mload(0x40)\n              dup1\n              dup3\n              dup2\n              mstore\n              0x20\n              add\n              swap2\n              pop\n              pop\n              mload(0x40)\n              dup1\n              swap2\n              sub\n              swap1\n              log2\n                /* \"staking/StakingRewardsFactory.sol\":16749:16750  _ */\n              pop\n                /* \"staking/StakingRewardsFactory.sol\":16784:16797  _guardCounter */\n              sload(0x01)\n                /* \"staking/StakingRewardsFactory.sol\":16768:16780  localCounter */\n              dup2\n                /* \"staking/StakingRewardsFactory.sol\":16768:16797  localCounter == _guardCounter */\n              eq\n                /* \"staking/StakingRewardsFactory.sol\":16760:16833  require(localCounter == _guardCounter, \"ReentrancyGuard: reentrant call\") */\n              tag_147\n              jumpi\n              mload(0x40)\n              0x08c379a000000000000000000000000000000000000000000000000000000000\n              dup2\n              mstore\n              0x04\n              add\n              dup1\n              dup1\n              0x20\n              add\n              dup3\n              dup2\n              sub\n              dup3\n              mstore\n              0x1f\n              dup2\n              mstore\n              0x20\n              add\n              dup1\n              0x5265656e7472616e637947756172643a207265656e7472616e742063616c6c00\n              dup2\n              mstore\n              pop\n              0x20\n              add\n              swap2\n              pop\n              pop\n              mload(0x40)\n              dup1\n              swap2\n              sub\n              swap1\n              revert\n            tag_147:\n                /* \"staking/StakingRewardsFactory.sol\":20213:20576  function stake(uint256 amount) external nonReentrant updateReward(msg.sender) {... */\n              pop\n              pop\n              jump\t// out\n                /* \"staking/StakingRewardsFactory.sol\":18088:18117  uint256 public lastUpdateTime */\n            tag_60:\n              sload(0x06)\n              dup2\n              jump\t// out\n                /* \"staking/StakingRewardsFactory.sol\":19077:19399  function rewardPerToken() public view returns (uint256) {... */\n            tag_62:\n                /* \"staking/StakingRewardsFactory.sol\":19124:19131  uint256 */\n              0x00\n                /* \"staking/StakingRewardsFactory.sol\":19163:19164  0 */\n              dup1\n                /* \"staking/StakingRewardsFactory.sol\":19147:19159  _totalSupply */\n              sload(0x0a)\n                /* \"staking/StakingRewardsFactory.sol\":19147:19164  _totalSupply == 0 */\n              eq\n                /* \"staking/StakingRewardsFactory.sol\":19143:19218  if (_totalSupply == 0) {... */\n              iszero\n              tag_149\n              jumpi\n                /* \"staking/StakingRewardsFactory.sol\":19187:19207  rewardPerTokenStored */\n              sload(0x07)\n                /* \"staking/StakingRewardsFactory.sol\":19180:19207  return rewardPerTokenStored */\n              swap1\n              pop\n              jump(tag_148)\n                /* \"staking/StakingRewardsFactory.sol\":19143:19218  if (_totalSupply == 0) {... */\n            tag_149:\n                /* \"staking/StakingRewardsFactory.sol\":19246:19392  rewardPerTokenStored.add(... */\n              tag_150\n                /* \"staking/StakingRewardsFactory.sol\":19288:19378  lastTimeRewardApplicable().sub(lastUpdateTime).mul(rewardRate).mul(1e18).div(_totalSupply) */\n              tag_151\n                /* \"staking/StakingRewardsFactory.sol\":19365:19377  _totalSupply */\n              sload(0x0a)\n                /* \"staking/StakingRewardsFactory.sol\":19288:19360  lastTimeRewardApplicable().sub(lastUpdateTime).mul(rewardRate).mul(1e18) */\n              tag_152\n                /* \"staking/StakingRewardsFactory.sol\":19355:19359  1e18 */\n              0x0de0b6b3a7640000\n                /* \"staking/StakingRewardsFactory.sol\":19288:19350  lastTimeRewardApplicable().sub(lastUpdateTime).mul(rewardRate) */\n              tag_153\n                /* \"staking/StakingRewardsFactory.sol\":19339:19349  rewardRate */\n              sload(0x05)\n                /* \"staking/StakingRewardsFactory.sol\":19288:19334  lastTimeRewardApplicable().sub(lastUpdateTime) */\n              tag_154\n                /* \"staking/StakingRewardsFactory.sol\":19319:19333  lastUpdateTime */\n              sload(0x06)\n                /* \"staking/StakingRewardsFactory.sol\":19288:19314  lastTimeRewardApplicable() */\n              tag_155\n                /* \"staking/StakingRewardsFactory.sol\":19288:19312  lastTimeRewardApplicable */\n              tag_52\n                /* \"staking/StakingRewardsFactory.sol\":19288:19314  lastTimeRewardApplicable() */\n              jump\t// in\n            tag_155:\n                /* \"staking/StakingRewardsFactory.sol\":19288:19318  lastTimeRewardApplicable().sub */\n              tag_80\n              swap1\n                /* \"staking/StakingRewardsFactory.sol\":19288:19334  lastTimeRewardApplicable().sub(lastUpdateTime) */\n              swap2\n              swap1\n              0xffffffff\n              and\n              jump\t// in\n            tag_154:\n                /* \"staking/StakingRewardsFactory.sol\":19288:19338  lastTimeRewardApplicable().sub(lastUpdateTime).mul */\n              tag_81\n              swap1\n                /* \"staking/StakingRewardsFactory.sol\":19288:19350  lastTimeRewardApplicable().sub(lastUpdateTime).mul(rewardRate) */\n              swap2\n              swap1\n              0xffffffff\n              and\n              jump\t// in\n            tag_153:\n                /* \"staking/StakingRewardsFactory.sol\":19288:19354  lastTimeRewardApplicable().sub(lastUpdateTime).mul(rewardRate).mul */\n              tag_81\n              swap1\n                /* \"staking/StakingRewardsFactory.sol\":19288:19360  lastTimeRewardApplicable().sub(lastUpdateTime).mul(rewardRate).mul(1e18) */\n              swap2\n              swap1\n              0xffffffff\n              and\n              jump\t// in\n            tag_152:\n                /* \"staking/StakingRewardsFactory.sol\":19288:19364  lastTimeRewardApplicable().sub(lastUpdateTime).mul(rewardRate).mul(1e18).div */\n              tag_82\n              swap1\n                /* \"staking/StakingRewardsFactory.sol\":19288:19378  lastTimeRewardApplicable().sub(lastUpdateTime).mul(rewardRate).mul(1e18).div(_totalSupply) */\n              swap2\n              swap1\n              0xffffffff\n              and\n              jump\t// in\n            tag_151:\n                /* \"staking/StakingRewardsFactory.sol\":19246:19266  rewardPerTokenStored */\n              sload(0x07)\n                /* \"staking/StakingRewardsFactory.sol\":19246:19270  rewardPerTokenStored.add */\n              tag_83\n              swap1\n                /* \"staking/StakingRewardsFactory.sol\":19246:19392  rewardPerTokenStored.add(... */\n              swap2\n              swap1\n              0xffffffff\n              and\n              jump\t// in\n            tag_150:\n                /* \"staking/StakingRewardsFactory.sol\":19227:19392  return... */\n              swap1\n              pop\n                /* \"staking/StakingRewardsFactory.sol\":19077:19399  function rewardPerToken() public view returns (uint256) {... */\n            tag_148:\n              swap1\n              jump\t// out\n                /* \"staking/StakingRewardsFactory.sol\":17952:17978  IERC20 public rewardsToken */\n            tag_64:\n              0x02\n              0x00\n              swap1\n              sload\n              swap1\n              0x0100\n              exp\n              swap1\n              div\n              0xffffffffffffffffffffffffffffffffffffffff\n              and\n              dup2\n              jump\t// out\n                /* \"staking/StakingRewardsFactory.sol\":18123:18158  uint256 public rewardPerTokenStored */\n            tag_66:\n              sload(0x07)\n              dup2\n              jump\t// out\n                /* \"staking/StakingRewardsFactory.sol\":21245:21339  function exit() external {... */\n            tag_68:\n                /* \"staking/StakingRewardsFactory.sol\":21280:21311  withdraw(_balances[msg.sender]) */\n              tag_157\n                /* \"staking/StakingRewardsFactory.sol\":21289:21298  _balances */\n              0x0b\n                /* \"staking/StakingRewardsFactory.sol\":21289:21310  _balances[msg.sender] */\n              0x00\n                /* \"staking/StakingRewardsFactory.sol\":21299:21309  msg.sender */\n              caller\n                /* \"staking/StakingRewardsFactory.sol\":21289:21310  _balances[msg.sender] */\n              0xffffffffffffffffffffffffffffffffffffffff\n              and\n              0xffffffffffffffffffffffffffffffffffffffff\n              and\n              dup2\n              mstore\n              0x20\n              add\n              swap1\n              dup2\n              mstore\n              0x20\n              add\n              0x00\n              keccak256\n              sload\n                /* \"staking/StakingRewardsFactory.sol\":21280:21288  withdraw */\n              tag_39\n                /* \"staking/StakingRewardsFactory.sol\":21280:21311  withdraw(_balances[msg.sender]) */\n              jump\t// in\n            tag_157:\n                /* \"staking/StakingRewardsFactory.sol\":21321:21332  getReward() */\n              tag_158\n                /* \"staking/StakingRewardsFactory.sol\":21321:21330  getReward */\n              tag_41\n                /* \"staking/StakingRewardsFactory.sol\":21321:21332  getReward() */\n              jump\t// in\n            tag_158:\n                /* \"staking/StakingRewardsFactory.sol\":21245:21339  function exit() external {... */\n              jump\t// out\n                /* \"staking/StakingRewardsFactory.sol\":18016:18047  uint256 public periodFinish = 0 */\n            tag_70:\n              sload(0x04)\n              dup2\n              jump\t// out\n                /* \"staking/StakingRewardsFactory.sol\":19659:20207  function stakeWithPermit(uint256 amount, uint deadline, uint8 v, bytes32 r, bytes32 s) external nonReentrant updateReward(msg.sender) {... */\n            tag_73:\n                /* \"staking/StakingRewardsFactory.sol\":16692:16693  1 */\n              0x01\n                /* \"staking/StakingRewardsFactory.sol\":16675:16688  _guardCounter */\n              dup1\n              0x00\n                /* \"staking/StakingRewardsFactory.sol\":16675:16693  _guardCounter += 1 */\n              dup3\n              dup3\n              sload\n              add\n              swap3\n              pop\n              pop\n              dup2\n              swap1\n              sstore\n              pop\n                /* \"staking/StakingRewardsFactory.sol\":16703:16723  uint256 localCounter */\n              0x00\n                /* \"staking/StakingRewardsFactory.sol\":16726:16739  _guardCounter */\n              sload(0x01)\n                /* \"staking/StakingRewardsFactory.sol\":16703:16739  uint256 localCounter = _guardCounter */\n              swap1\n              pop\n                /* \"staking/StakingRewardsFactory.sol\":19781:19791  msg.sender */\n              caller\n                /* \"staking/StakingRewardsFactory.sol\":22736:22752  rewardPerToken() */\n              tag_161\n                /* \"staking/StakingRewardsFactory.sol\":22736:22750  rewardPerToken */\n              tag_62\n                /* \"staking/StakingRewardsFactory.sol\":22736:22752  rewardPerToken() */\n              jump\t// in\n            tag_161:\n                /* \"staking/StakingRewardsFactory.sol\":22713:22733  rewardPerTokenStored */\n              0x07\n                /* \"staking/StakingRewardsFactory.sol\":22713:22752  rewardPerTokenStored = rewardPerToken() */\n              dup2\n              swap1\n              sstore\n              pop\n                /* \"staking/StakingRewardsFactory.sol\":22779:22805  lastTimeRewardApplicable() */\n              tag_162\n                /* \"staking/StakingRewardsFactory.sol\":22779:22803  lastTimeRewardApplicable */\n              tag_52\n                /* \"staking/StakingRewardsFactory.sol\":22779:22805  lastTimeRewardApplicable() */\n              jump\t// in\n            tag_162:\n                /* \"staking/StakingRewardsFactory.sol\":22762:22776  lastUpdateTime */\n              0x06\n                /* \"staking/StakingRewardsFactory.sol\":22762:22805  lastUpdateTime = lastTimeRewardApplicable() */\n              dup2\n              swap1\n              sstore\n              pop\n                /* \"staking/StakingRewardsFactory.sol\":22838:22839  0 */\n              0x00\n                /* \"staking/StakingRewardsFactory.sol\":22819:22840  account != address(0) */\n              0xffffffffffffffffffffffffffffffffffffffff\n              and\n                /* \"staking/StakingRewardsFactory.sol\":22819:22826  account */\n              dup2\n                /* \"staking/StakingRewardsFactory.sol\":22819:22840  account != address(0) */\n              0xffffffffffffffffffffffffffffffffffffffff\n              and\n              eq\n                /* \"staking/StakingRewardsFactory.sol\":22815:22969  if (account != address(0)) {... */\n              tag_163\n              jumpi\n                /* \"staking/StakingRewardsFactory.sol\":22875:22890  earned(account) */\n              tag_164\n                /* \"staking/StakingRewardsFactory.sol\":22882:22889  account */\n              dup2\n                /* \"staking/StakingRewardsFactory.sol\":22875:22881  earned */\n              tag_28\n                /* \"staking/StakingRewardsFactory.sol\":22875:22890  earned(account) */\n              jump\t// in\n            tag_164:\n                /* \"staking/StakingRewardsFactory.sol\":22856:22863  rewards */\n              0x09\n                /* \"staking/StakingRewardsFactory.sol\":22856:22872  rewards[account] */\n              0x00\n                /* \"staking/StakingRewardsFactory.sol\":22864:22871  account */\n              dup4\n                /* \"staking/StakingRewardsFactory.sol\":22856:22872  rewards[account] */\n              0xffffffffffffffffffffffffffffffffffffffff\n              and\n              0xffffffffffffffffffffffffffffffffffffffff\n              and\n              dup2\n              mstore\n              0x20\n              add\n              swap1\n              dup2\n              mstore\n              0x20\n              add\n              0x00\n              keccak256\n                /* \"staking/StakingRewardsFactory.sol\":22856:22890  rewards[account] = earned(account) */\n              dup2\n              swap1\n              sstore\n              pop\n                /* \"staking/StakingRewardsFactory.sol\":22938:22958  rewardPerTokenStored */\n              sload(0x07)\n                /* \"staking/StakingRewardsFactory.sol\":22904:22926  userRewardPerTokenPaid */\n              0x08\n                /* \"staking/StakingRewardsFactory.sol\":22904:22935  userRewardPerTokenPaid[account] */\n              0x00\n                /* \"staking/StakingRewardsFactory.sol\":22927:22934  account */\n              dup4\n                /* \"staking/StakingRewardsFactory.sol\":22904:22935  userRewardPerTokenPaid[account] */\n              0xffffffffffffffffffffffffffffffffffffffff\n              and\n              0xffffffffffffffffffffffffffffffffffffffff\n              and\n              dup2\n              mstore\n              0x20\n              add\n              swap1\n              dup2\n              mstore\n              0x20\n              add\n              0x00\n              keccak256\n                /* \"staking/StakingRewardsFactory.sol\":22904:22958  userRewardPerTokenPaid[account] = rewardPerTokenStored */\n              dup2\n              swap1\n              sstore\n              pop\n                /* \"staking/StakingRewardsFactory.sol\":22815:22969  if (account != address(0)) {... */\n            tag_163:\n                /* \"staking/StakingRewardsFactory.sol\":19820:19821  0 */\n              0x00\n                /* \"staking/StakingRewardsFactory.sol\":19811:19817  amount */\n              dup8\n                /* \"staking/StakingRewardsFactory.sol\":19811:19821  amount > 0 */\n              gt\n                /* \"staking/StakingRewardsFactory.sol\":19803:19840  require(amount > 0, \"Cannot stake 0\") */\n              tag_166\n              jumpi\n              mload(0x40)\n              0x08c379a000000000000000000000000000000000000000000000000000000000\n              dup2\n              mstore\n              0x04\n              add\n              dup1\n              dup1\n              0x20\n              add\n              dup3\n              dup2\n              sub\n              dup3\n              mstore\n              0x0e\n              dup2\n              mstore\n              0x20\n              add\n              dup1\n              0x43616e6e6f74207374616b652030000000000000000000000000000000000000\n              dup2\n              mstore\n              pop\n              0x20\n              add\n              swap2\n              pop\n              pop\n              mload(0x40)\n              dup1\n              swap2\n              sub\n              swap1\n              revert\n            tag_166:\n                /* \"staking/StakingRewardsFactory.sol\":19865:19889  _totalSupply.add(amount) */\n              tag_167\n                /* \"staking/StakingRewardsFactory.sol\":19882:19888  amount */\n              dup8\n                /* \"staking/StakingRewardsFactory.sol\":19865:19877  _totalSupply */\n              sload(0x0a)\n                /* \"staking/StakingRewardsFactory.sol\":19865:19881  _totalSupply.add */\n              tag_83\n              swap1\n                /* \"staking/StakingRewardsFactory.sol\":19865:19889  _totalSupply.add(amount) */\n              swap2\n              swap1\n              0xffffffff\n              and\n              jump\t// in\n            tag_167:\n                /* \"staking/StakingRewardsFactory.sol\":19850:19862  _totalSupply */\n              0x0a\n                /* \"staking/StakingRewardsFactory.sol\":19850:19889  _totalSupply = _totalSupply.add(amount) */\n              dup2\n              swap1\n              sstore\n              pop\n                /* \"staking/StakingRewardsFactory.sol\":19923:19956  _balances[msg.sender].add(amount) */\n              tag_168\n                /* \"staking/StakingRewardsFactory.sol\":19949:19955  amount */\n              dup8\n                /* \"staking/StakingRewardsFactory.sol\":19923:19932  _balances */\n              0x0b\n                /* \"staking/StakingRewardsFactory.sol\":19923:19944  _balances[msg.sender] */\n              0x00\n                /* \"staking/StakingRewardsFactory.sol\":19933:19943  msg.sender */\n              caller\n                /* \"staking/StakingRewardsFactory.sol\":19923:19944  _balances[msg.sender] */\n              0xffffffffffffffffffffffffffffffffffffffff\n              and\n              0xffffffffffffffffffffffffffffffffffffffff\n              and\n              dup2\n              mstore\n              0x20\n              add\n              swap1\n              dup2\n              mstore\n              0x20\n              add\n              0x00\n              keccak256\n              sload\n                /* \"staking/StakingRewardsFactory.sol\":19923:19948  _balances[msg.sender].add */\n              tag_83\n              swap1\n                /* \"staking/StakingRewardsFactory.sol\":19923:19956  _balances[msg.sender].add(amount) */\n              swap2\n              swap1\n              0xffffffff\n              and\n              jump\t// in\n            tag_168:\n                /* \"staking/StakingRewardsFactory.sol\":19899:19908  _balances */\n              0x0b\n                /* \"staking/StakingRewardsFactory.sol\":19899:19920  _balances[msg.sender] */\n              0x00\n                /* \"staking/StakingRewardsFactory.sol\":19909:19919  msg.sender */\n              caller\n                /* \"staking/StakingRewardsFactory.sol\":19899:19920  _balances[msg.sender] */\n              0xffffffffffffffffffffffffffffffffffffffff\n              and\n              0xffffffffffffffffffffffffffffffffffffffff\n              and\n              dup2\n              mstore\n              0x20\n              add\n              swap1\n              dup2\n              mstore\n              0x20\n              add\n              0x00\n              keccak256\n                /* \"staking/StakingRewardsFactory.sol\":19899:19956  _balances[msg.sender] = _balances[msg.sender].add(amount) */\n              dup2\n              swap1\n              sstore\n              pop\n                /* \"staking/StakingRewardsFactory.sol\":20009:20021  stakingToken */\n              0x03\n              0x00\n              swap1\n              sload\n              swap1\n              0x0100\n              exp\n              swap1\n              div\n              0xffffffffffffffffffffffffffffffffffffffff\n              and\n                /* \"staking/StakingRewardsFactory.sol\":19985:20030  IUniswapV2ERC20(address(stakingToken)).permit */\n              0xffffffffffffffffffffffffffffffffffffffff\n              and\n              0xd505accf\n                /* \"staking/StakingRewardsFactory.sol\":20031:20041  msg.sender */\n              caller\n                /* \"staking/StakingRewardsFactory.sol\":20051:20055  this */\n              address\n                /* \"staking/StakingRewardsFactory.sol\":20058:20064  amount */\n              dup11\n                /* \"staking/StakingRewardsFactory.sol\":20066:20074  deadline */\n              dup11\n                /* \"staking/StakingRewardsFactory.sol\":20076:20077  v */\n              dup11\n                /* \"staking/StakingRewardsFactory.sol\":20079:20080  r */\n              dup11\n                /* \"staking/StakingRewardsFactory.sol\":20082:20083  s */\n              dup11\n                /* \"staking/StakingRewardsFactory.sol\":19985:20084  IUniswapV2ERC20(address(stakingToken)).permit(msg.sender, address(this), amount, deadline, v, r, s) */\n              mload(0x40)\n              dup9\n              0xffffffff\n              and\n              0xe0\n              shl\n              dup2\n              mstore\n              0x04\n              add\n              dup1\n              dup9\n              0xffffffffffffffffffffffffffffffffffffffff\n              and\n              0xffffffffffffffffffffffffffffffffffffffff\n              and\n              dup2\n              mstore\n              0x20\n              add\n              dup8\n              0xffffffffffffffffffffffffffffffffffffffff\n              and\n              0xffffffffffffffffffffffffffffffffffffffff\n              and\n              dup2\n              mstore\n              0x20\n              add\n              dup7\n              dup2\n              mstore\n              0x20\n              add\n              dup6\n              dup2\n              mstore\n              0x20\n              add\n              dup5\n              0xff\n              and\n              0xff\n              and\n              dup2\n              mstore\n              0x20\n              add\n              dup4\n              dup2\n              mstore\n              0x20\n              add\n              dup3\n              dup2\n              mstore\n              0x20\n              add\n              swap8\n              pop\n              pop\n              pop\n              pop\n              pop\n              pop\n              pop\n              pop\n              0x00\n              mload(0x40)\n              dup1\n              dup4\n              sub\n              dup2\n              0x00\n              dup8\n              dup1\n              extcodesize\n              iszero\n                /* \"--CODEGEN--\":8:17   */\n              dup1\n                /* \"--CODEGEN--\":5:7   */\n              iszero\n              tag_169\n              jumpi\n                /* \"--CODEGEN--\":30:31   */\n              0x00\n                /* \"--CODEGEN--\":27:28   */\n              dup1\n                /* \"--CODEGEN--\":20:32   */\n              revert\n                /* \"--CODEGEN--\":5:7   */\n            tag_169:\n                /* \"staking/StakingRewardsFactory.sol\":19985:20084  IUniswapV2ERC20(address(stakingToken)).permit(msg.sender, address(this), amount, deadline, v, r, s) */\n              pop\n              gas\n              call\n              iszero\n                /* \"--CODEGEN--\":8:17   */\n              dup1\n                /* \"--CODEGEN--\":5:7   */\n              iszero\n              tag_170\n              jumpi\n                /* \"--CODEGEN--\":45:61   */\n              returndatasize\n                /* \"--CODEGEN--\":42:43   */\n              0x00\n                /* \"--CODEGEN--\":39:40   */\n              dup1\n                /* \"--CODEGEN--\":24:62   */\n              returndatacopy\n                /* \"--CODEGEN--\":77:93   */\n              returndatasize\n                /* \"--CODEGEN--\":74:75   */\n              0x00\n                /* \"--CODEGEN--\":67:94   */\n              revert\n                /* \"--CODEGEN--\":5:7   */\n            tag_170:\n                /* \"staking/StakingRewardsFactory.sol\":19985:20084  IUniswapV2ERC20(address(stakingToken)).permit(msg.sender, address(this), amount, deadline, v, r, s) */\n              pop\n              pop\n              pop\n              pop\n                /* \"staking/StakingRewardsFactory.sol\":20095:20159  stakingToken.safeTransferFrom(msg.sender, address(this), amount) */\n              tag_171\n                /* \"staking/StakingRewardsFactory.sol\":20125:20135  msg.sender */\n              caller\n                /* \"staking/StakingRewardsFactory.sol\":20145:20149  this */\n              address\n                /* \"staking/StakingRewardsFactory.sol\":20152:20158  amount */\n              dup10\n                /* \"staking/StakingRewardsFactory.sol\":20095:20107  stakingToken */\n              0x03\n              0x00\n              swap1\n              sload\n              swap1\n              0x0100\n              exp\n              swap1\n              div\n              0xffffffffffffffffffffffffffffffffffffffff\n              and\n                /* \"staking/StakingRewardsFactory.sol\":20095:20124  stakingToken.safeTransferFrom */\n              0xffffffffffffffffffffffffffffffffffffffff\n              and\n              tag_146\n              swap1\n                /* \"staking/StakingRewardsFactory.sol\":20095:20159  stakingToken.safeTransferFrom(msg.sender, address(this), amount) */\n              swap4\n              swap3\n              swap2\n              swap1\n              0xffffffff\n              and\n              jump\t// in\n            tag_171:\n                /* \"staking/StakingRewardsFactory.sol\":20181:20191  msg.sender */\n              caller\n                /* \"staking/StakingRewardsFactory.sol\":20174:20200  Staked(msg.sender, amount) */\n              0xffffffffffffffffffffffffffffffffffffffff\n              and\n              0x9e71bc8eea02a63969f509818f2dafb9254532904319f9dbda79b67bd34a5f3d\n                /* \"staking/StakingRewardsFactory.sol\":20193:20199  amount */\n              dup9\n                /* \"staking/StakingRewardsFactory.sol\":20174:20200  Staked(msg.sender, amount) */\n              mload(0x40)\n              dup1\n              dup3\n              dup2\n              mstore\n              0x20\n              add\n              swap2\n              pop\n              pop\n              mload(0x40)\n              dup1\n              swap2\n              sub\n              swap1\n              log2\n                /* \"staking/StakingRewardsFactory.sol\":16749:16750  _ */\n              pop\n                /* \"staking/StakingRewardsFactory.sol\":16784:16797  _guardCounter */\n              sload(0x01)\n                /* \"staking/StakingRewardsFactory.sol\":16768:16780  localCounter */\n              dup2\n                /* \"staking/StakingRewardsFactory.sol\":16768:16797  localCounter == _guardCounter */\n              eq\n                /* \"staking/StakingRewardsFactory.sol\":16760:16833  require(localCounter == _guardCounter, \"ReentrancyGuard: reentrant call\") */\n              tag_172\n              jumpi\n              mload(0x40)\n              0x08c379a000000000000000000000000000000000000000000000000000000000\n              dup2\n              mstore\n              0x04\n              add\n              dup1\n              dup1\n              0x20\n              add\n              dup3\n              dup2\n              sub\n              dup3\n              mstore\n              0x1f\n              dup2\n              mstore\n              0x20\n              add\n              dup1\n              0x5265656e7472616e637947756172643a207265656e7472616e742063616c6c00\n              dup2\n              mstore\n              pop\n              0x20\n              add\n              swap2\n              pop\n              pop\n              mload(0x40)\n              dup1\n              swap2\n              sub\n              swap1\n              revert\n            tag_172:\n                /* \"staking/StakingRewardsFactory.sol\":19659:20207  function stakeWithPermit(uint256 amount, uint deadline, uint8 v, bytes32 r, bytes32 s) external nonReentrant updateReward(msg.sender) {... */\n              pop\n              pop\n              pop\n              pop\n              pop\n              pop\n              jump\t// out\n                /* \"staking/StakingRewardsFactory.sol\":6349:6528  function sub(uint256 a, uint256 b) internal pure returns (uint256) {... */\n            tag_80:\n                /* \"staking/StakingRewardsFactory.sol\":6407:6414  uint256 */\n              0x00\n                /* \"staking/StakingRewardsFactory.sol\":6439:6440  a */\n              dup3\n                /* \"staking/StakingRewardsFactory.sol\":6434:6435  b */\n              dup3\n                /* \"staking/StakingRewardsFactory.sol\":6434:6440  b <= a */\n              gt\n              iszero\n                /* \"staking/StakingRewardsFactory.sol\":6426:6475  require(b <= a, \"SafeMath: subtraction overflow\") */\n              tag_174\n              jumpi\n              mload(0x40)\n              0x08c379a000000000000000000000000000000000000000000000000000000000\n              dup2\n              mstore\n              0x04\n              add\n              dup1\n              dup1\n              0x20\n              add\n              dup3\n              dup2\n              sub\n              dup3\n              mstore\n              0x1e\n              dup2\n              mstore\n              0x20\n              add\n              dup1\n              0x536166654d6174683a207375627472616374696f6e206f766572666c6f770000\n              dup2\n              mstore\n              pop\n              0x20\n              add\n              swap2\n              pop\n              pop\n              mload(0x40)\n              dup1\n              swap2\n              sub\n              swap1\n              revert\n            tag_174:\n                /* \"staking/StakingRewardsFactory.sol\":6485:6494  uint256 c */\n              0x00\n                /* \"staking/StakingRewardsFactory.sol\":6501:6502  b */\n              dup3\n                /* \"staking/StakingRewardsFactory.sol\":6497:6498  a */\n              dup5\n                /* \"staking/StakingRewardsFactory.sol\":6497:6502  a - b */\n              sub\n                /* \"staking/StakingRewardsFactory.sol\":6485:6502  uint256 c = a - b */\n              swap1\n              pop\n                /* \"staking/StakingRewardsFactory.sol\":6520:6521  c */\n              dup1\n                /* \"staking/StakingRewardsFactory.sol\":6513:6521  return c */\n              swap2\n              pop\n              pop\n                /* \"staking/StakingRewardsFactory.sol\":6349:6528  function sub(uint256 a, uint256 b) internal pure returns (uint256) {... */\n              swap3\n              swap2\n              pop\n              pop\n              jump\t// out\n                /* \"staking/StakingRewardsFactory.sol\":6768:7226  function mul(uint256 a, uint256 b) internal pure returns (uint256) {... */\n            tag_81:\n                /* \"staking/StakingRewardsFactory.sol\":6826:6833  uint256 */\n              0x00\n                /* \"staking/StakingRewardsFactory.sol\":7071:7072  0 */\n              dup1\n                /* \"staking/StakingRewardsFactory.sol\":7066:7067  a */\n              dup4\n                /* \"staking/StakingRewardsFactory.sol\":7066:7072  a == 0 */\n              eq\n                /* \"staking/StakingRewardsFactory.sol\":7062:7107  if (a == 0) {... */\n              iszero\n              tag_176\n              jumpi\n                /* \"staking/StakingRewardsFactory.sol\":7095:7096  0 */\n              0x00\n                /* \"staking/StakingRewardsFactory.sol\":7088:7096  return 0 */\n              swap1\n              pop\n              jump(tag_175)\n                /* \"staking/StakingRewardsFactory.sol\":7062:7107  if (a == 0) {... */\n            tag_176:\n                /* \"staking/StakingRewardsFactory.sol\":7117:7126  uint256 c */\n              0x00\n                /* \"staking/StakingRewardsFactory.sol\":7133:7134  b */\n              dup3\n                /* \"staking/StakingRewardsFactory.sol\":7129:7130  a */\n              dup5\n                /* \"staking/StakingRewardsFactory.sol\":7129:7134  a * b */\n              mul\n                /* \"staking/StakingRewardsFactory.sol\":7117:7134  uint256 c = a * b */\n              swap1\n              pop\n                /* \"staking/StakingRewardsFactory.sol\":7161:7162  b */\n              dup3\n                /* \"staking/StakingRewardsFactory.sol\":7156:7157  a */\n              dup5\n                /* \"staking/StakingRewardsFactory.sol\":7152:7153  c */\n              dup3\n                /* \"staking/StakingRewardsFactory.sol\":7152:7157  c / a */\n              dup2\n              tag_177\n              jumpi\n              invalid\n            tag_177:\n              div\n                /* \"staking/StakingRewardsFactory.sol\":7152:7162  c / a == b */\n              eq\n                /* \"staking/StakingRewardsFactory.sol\":7144:7200  require(c / a == b, \"SafeMath: multiplication overflow\") */\n              tag_178\n              jumpi\n              mload(0x40)\n              0x08c379a000000000000000000000000000000000000000000000000000000000\n              dup2\n              mstore\n              0x04\n              add\n              dup1\n              dup1\n              0x20\n              add\n              dup3\n              dup2\n              sub\n              dup3\n              mstore\n              0x21\n              dup2\n              mstore\n              0x20\n              add\n              dup1\n              data_9113bb53c2876a3805b2c9242029423fc540a728243ce887ab24c82cf119fba3\n              0x21\n              swap2\n              codecopy\n              0x40\n              add\n              swap2\n              pop\n              pop\n              mload(0x40)\n              dup1\n              swap2\n              sub\n              swap1\n              revert\n            tag_178:\n                /* \"staking/StakingRewardsFactory.sol\":7218:7219  c */\n              dup1\n                /* \"staking/StakingRewardsFactory.sol\":7211:7219  return c */\n              swap2\n              pop\n              pop\n                /* \"staking/StakingRewardsFactory.sol\":6768:7226  function mul(uint256 a, uint256 b) internal pure returns (uint256) {... */\n            tag_175:\n              swap3\n              swap2\n              pop\n              pop\n              jump\t// out\n                /* \"staking/StakingRewardsFactory.sol\":7681:8007  function div(uint256 a, uint256 b) internal pure returns (uint256) {... */\n            tag_82:\n                /* \"staking/StakingRewardsFactory.sol\":7739:7746  uint256 */\n              0x00\n                /* \"staking/StakingRewardsFactory.sol\":7836:7837  0 */\n              dup1\n                /* \"staking/StakingRewardsFactory.sol\":7832:7833  b */\n              dup3\n                /* \"staking/StakingRewardsFactory.sol\":7832:7837  b > 0 */\n              gt\n                /* \"staking/StakingRewardsFactory.sol\":7824:7868  require(b > 0, \"SafeMath: division by zero\") */\n              tag_180\n              jumpi\n              mload(0x40)\n              0x08c379a000000000000000000000000000000000000000000000000000000000\n              dup2\n              mstore\n              0x04\n              add\n              dup1\n              dup1\n              0x20\n              add\n              dup3\n              dup2\n              sub\n              dup3\n              mstore\n              0x1a\n              dup2\n              mstore\n              0x20\n              add\n              dup1\n              0x536166654d6174683a206469766973696f6e206279207a65726f000000000000\n              dup2\n              mstore\n              pop\n              0x20\n              add\n              swap2\n              pop\n              pop\n              mload(0x40)\n              dup1\n              swap2\n              sub\n              swap1\n              revert\n            tag_180:\n                /* \"staking/StakingRewardsFactory.sol\":7878:7887  uint256 c */\n              0x00\n                /* \"staking/StakingRewardsFactory.sol\":7894:7895  b */\n              dup3\n                /* \"staking/StakingRewardsFactory.sol\":7890:7891  a */\n              dup5\n                /* \"staking/StakingRewardsFactory.sol\":7890:7895  a / b */\n              dup2\n              tag_181\n              jumpi\n              invalid\n            tag_181:\n              div\n                /* \"staking/StakingRewardsFactory.sol\":7878:7895  uint256 c = a / b */\n              swap1\n              pop\n                /* \"staking/StakingRewardsFactory.sol\":7999:8000  c */\n              dup1\n                /* \"staking/StakingRewardsFactory.sol\":7992:8000  return c */\n              swap2\n              pop\n              pop\n                /* \"staking/StakingRewardsFactory.sol\":7681:8007  function div(uint256 a, uint256 b) internal pure returns (uint256) {... */\n              swap3\n              swap2\n              pop\n              pop\n              jump\t// out\n                /* \"staking/StakingRewardsFactory.sol\":5909:6085  function add(uint256 a, uint256 b) internal pure returns (uint256) {... */\n            tag_83:\n                /* \"staking/StakingRewardsFactory.sol\":5967:5974  uint256 */\n              0x00\n                /* \"staking/StakingRewardsFactory.sol\":5986:5995  uint256 c */\n              dup1\n                /* \"staking/StakingRewardsFactory.sol\":6002:6003  b */\n              dup3\n                /* \"staking/StakingRewardsFactory.sol\":5998:5999  a */\n              dup5\n                /* \"staking/StakingRewardsFactory.sol\":5998:6003  a + b */\n              add\n                /* \"staking/StakingRewardsFactory.sol\":5986:6003  uint256 c = a + b */\n              swap1\n              pop\n                /* \"staking/StakingRewardsFactory.sol\":6026:6027  a */\n              dup4\n                /* \"staking/StakingRewardsFactory.sol\":6021:6022  c */\n              dup2\n                /* \"staking/StakingRewardsFactory.sol\":6021:6027  c >= a */\n              lt\n              iszero\n                /* \"staking/StakingRewardsFactory.sol\":6013:6059  require(c >= a, \"SafeMath: addition overflow\") */\n              tag_183\n              jumpi\n              mload(0x40)\n              0x08c379a000000000000000000000000000000000000000000000000000000000\n              dup2\n              mstore\n              0x04\n              add\n              dup1\n              dup1\n              0x20\n              add\n              dup3\n              dup2\n              sub\n              dup3\n              mstore\n              0x1b\n              dup2\n              mstore\n              0x20\n              add\n              dup1\n              0x536166654d6174683a206164646974696f6e206f766572666c6f770000000000\n              dup2\n              mstore\n              pop\n              0x20\n              add\n              swap2\n              pop\n              pop\n              mload(0x40)\n              dup1\n              swap2\n              sub\n              swap1\n              revert\n            tag_183:\n                /* \"staking/StakingRewardsFactory.sol\":6077:6078  c */\n              dup1\n                /* \"staking/StakingRewardsFactory.sol\":6070:6078  return c */\n              swap2\n              pop\n              pop\n                /* \"staking/StakingRewardsFactory.sol\":5909:6085  function add(uint256 a, uint256 b) internal pure returns (uint256) {... */\n              swap3\n              swap2\n              pop\n              pop\n              jump\t// out\n                /* \"staking/StakingRewardsFactory.sol\":12341:12515  function safeTransfer(IERC20 token, address to, uint256 value) internal {... */\n            tag_119:\n                /* \"staking/StakingRewardsFactory.sol\":12423:12508  callOptionalReturn(token, abi.encodeWithSelector(token.transfer.selector, to, value)) */\n              tag_185\n                /* \"staking/StakingRewardsFactory.sol\":12442:12447  token */\n              dup4\n                /* \"staking/StakingRewardsFactory.sol\":12472:12477  token */\n              dup5\n                /* \"staking/StakingRewardsFactory.sol\":12472:12486  token.transfer */\n              0xffffffffffffffffffffffffffffffffffffffff\n              and\n              0xa9059cbb\n                /* \"staking/StakingRewardsFactory.sol\":12472:12495  token.transfer.selector */\n              swap1\n              pop\n              0xe0\n              shl\n                /* \"staking/StakingRewardsFactory.sol\":12497:12499  to */\n              dup5\n                /* \"staking/StakingRewardsFactory.sol\":12501:12506  value */\n              dup5\n                /* \"staking/StakingRewardsFactory.sol\":12449:12507  abi.encodeWithSelector(token.transfer.selector, to, value) */\n              add(0x24, mload(0x40))\n              dup1\n              dup4\n              0xffffffffffffffffffffffffffffffffffffffff\n              and\n              0xffffffffffffffffffffffffffffffffffffffff\n              and\n              dup2\n              mstore\n              0x20\n              add\n              dup3\n              dup2\n              mstore\n              0x20\n              add\n              swap3\n              pop\n              pop\n              pop\n              mload(0x40)\n                /* \"--CODEGEN--\":49:53   */\n              0x20\n                /* \"--CODEGEN--\":39:46   */\n              dup2\n                /* \"--CODEGEN--\":30:37   */\n              dup4\n                /* \"--CODEGEN--\":26:47   */\n              sub\n                /* \"--CODEGEN--\":22:54   */\n              sub\n                /* \"--CODEGEN--\":13:20   */\n              dup2\n                /* \"--CODEGEN--\":6:55   */\n              mstore\n                /* \"staking/StakingRewardsFactory.sol\":12449:12507  abi.encodeWithSelector(token.transfer.selector, to, value) */\n              swap1\n              0x40\n              mstore\n              swap1\n              not(0xffffffffffffffffffffffffffffffffffffffffffffffffffffffff)\n              and\n                /* \"--CODEGEN--\":38:42   */\n              0x20\n                /* \"--CODEGEN--\":29:36   */\n              dup3\n                /* \"--CODEGEN--\":25:43   */\n              add\n                /* \"--CODEGEN--\":67:77   */\n              dup1\n                /* \"--CODEGEN--\":61:78   */\n              mload\n                /* \"--CODEGEN--\":96:154   */\n              0xffffffffffffffffffffffffffffffffffffffffffffffffffffffff\n                /* \"--CODEGEN--\":199:207   */\n              dup4\n                /* \"--CODEGEN--\":192:196   */\n              dup2\n                /* \"--CODEGEN--\":186:190   */\n              dup4\n                /* \"--CODEGEN--\":182:197   */\n              and\n                /* \"--CODEGEN--\":179:208   */\n              or\n                /* \"--CODEGEN--\":167:177   */\n              dup4\n                /* \"--CODEGEN--\":160:209   */\n              mstore\n                /* \"--CODEGEN--\":0:215   */\n              pop\n              pop\n              pop\n                /* \"staking/StakingRewardsFactory.sol\":12449:12507  abi.encodeWithSelector(token.transfer.selector, to, value) */\n              pop\n                /* \"staking/StakingRewardsFactory.sol\":12423:12441  callOptionalReturn */\n              tag_186\n                /* \"staking/StakingRewardsFactory.sol\":12423:12508  callOptionalReturn(token, abi.encodeWithSelector(token.transfer.selector, to, value)) */\n              jump\t// in\n            tag_185:\n                /* \"staking/StakingRewardsFactory.sol\":12341:12515  function safeTransfer(IERC20 token, address to, uint256 value) internal {... */\n              pop\n              pop\n              pop\n              jump\t// out\n                /* \"staking/StakingRewardsFactory.sol\":8937:9041  function min(uint256 a, uint256 b) internal pure returns (uint256) {... */\n            tag_134:\n                /* \"staking/StakingRewardsFactory.sol\":8995:9002  uint256 */\n              0x00\n                /* \"staking/StakingRewardsFactory.sol\":9025:9026  b */\n              dup2\n                /* \"staking/StakingRewardsFactory.sol\":9021:9022  a */\n              dup4\n                /* \"staking/StakingRewardsFactory.sol\":9021:9026  a < b */\n              lt\n                /* \"staking/StakingRewardsFactory.sol\":9021:9034  a < b ? a : b */\n              tag_188\n              jumpi\n                /* \"staking/StakingRewardsFactory.sol\":9033:9034  b */\n              dup2\n                /* \"staking/StakingRewardsFactory.sol\":9021:9034  a < b ? a : b */\n              jump(tag_189)\n            tag_188:\n                /* \"staking/StakingRewardsFactory.sol\":9029:9030  a */\n              dup3\n                /* \"staking/StakingRewardsFactory.sol\":9021:9034  a < b ? a : b */\n            tag_189:\n                /* \"staking/StakingRewardsFactory.sol\":9014:9034  return a < b ? a : b */\n              swap1\n              pop\n                /* \"staking/StakingRewardsFactory.sol\":8937:9041  function min(uint256 a, uint256 b) internal pure returns (uint256) {... */\n              swap3\n              swap2\n              pop\n              pop\n              jump\t// out\n                /* \"staking/StakingRewardsFactory.sol\":12521:12723  function safeTransferFrom(IERC20 token, address from, address to, uint256 value) internal {... */\n            tag_146:\n                /* \"staking/StakingRewardsFactory.sol\":12621:12716  callOptionalReturn(token, abi.encodeWithSelector(token.transferFrom.selector, from, to, value)) */\n              tag_191\n                /* \"staking/StakingRewardsFactory.sol\":12640:12645  token */\n              dup5\n                /* \"staking/StakingRewardsFactory.sol\":12670:12675  token */\n              dup6\n                /* \"staking/StakingRewardsFactory.sol\":12670:12688  token.transferFrom */\n              0xffffffffffffffffffffffffffffffffffffffff\n              and\n              0x23b872dd\n                /* \"staking/StakingRewardsFactory.sol\":12670:12697  token.transferFrom.selector */\n              swap1\n              pop\n              0xe0\n              shl\n                /* \"staking/StakingRewardsFactory.sol\":12699:12703  from */\n              dup6\n                /* \"staking/StakingRewardsFactory.sol\":12705:12707  to */\n              dup6\n                /* \"staking/StakingRewardsFactory.sol\":12709:12714  value */\n              dup6\n                /* \"staking/StakingRewardsFactory.sol\":12647:12715  abi.encodeWithSelector(token.transferFrom.selector, from, to, value) */\n              add(0x24, mload(0x40))\n              dup1\n              dup5\n              0xffffffffffffffffffffffffffffffffffffffff\n              and\n              0xffffffffffffffffffffffffffffffffffffffff\n              and\n              dup2\n              mstore\n              0x20\n              add\n              dup4\n              0xffffffffffffffffffffffffffffffffffffffff\n              and\n              0xffffffffffffffffffffffffffffffffffffffff\n              and\n              dup2\n              mstore\n              0x20\n              add\n              dup3\n              dup2\n              mstore\n              0x20\n              add\n              swap4\n              pop\n              pop\n              pop\n              pop\n              mload(0x40)\n                /* \"--CODEGEN--\":49:53   */\n              0x20\n                /* \"--CODEGEN--\":39:46   */\n              dup2\n                /* \"--CODEGEN--\":30:37   */\n              dup4\n                /* \"--CODEGEN--\":26:47   */\n              sub\n                /* \"--CODEGEN--\":22:54   */\n              sub\n                /* \"--CODEGEN--\":13:20   */\n              dup2\n                /* \"--CODEGEN--\":6:55   */\n              mstore\n                /* \"staking/StakingRewardsFactory.sol\":12647:12715  abi.encodeWithSelector(token.transferFrom.selector, from, to, value) */\n              swap1\n              0x40\n              mstore\n              swap1\n              not(0xffffffffffffffffffffffffffffffffffffffffffffffffffffffff)\n              and\n                /* \"--CODEGEN--\":38:42   */\n              0x20\n                /* \"--CODEGEN--\":29:36   */\n              dup3\n                /* \"--CODEGEN--\":25:43   */\n              add\n                /* \"--CODEGEN--\":67:77   */\n              dup1\n                /* \"--CODEGEN--\":61:78   */\n              mload\n                /* \"--CODEGEN--\":96:154   */\n              0xffffffffffffffffffffffffffffffffffffffffffffffffffffffff\n                /* \"--CODEGEN--\":199:207   */\n              dup4\n                /* \"--CODEGEN--\":192:196   */\n              dup2\n                /* \"--CODEGEN--\":186:190   */\n              dup4\n                /* \"--CODEGEN--\":182:197   */\n              and\n                /* \"--CODEGEN--\":179:208   */\n              or\n                /* \"--CODEGEN--\":167:177   */\n              dup4\n                /* \"--CODEGEN--\":160:209   */\n              mstore\n                /* \"--CODEGEN--\":0:215   */\n              pop\n              pop\n              pop\n                /* \"staking/StakingRewardsFactory.sol\":12647:12715  abi.encodeWithSelector(token.transferFrom.selector, from, to, value) */\n              pop\n                /* \"staking/StakingRewardsFactory.sol\":12621:12639  callOptionalReturn */\n              tag_186\n                /* \"staking/StakingRewardsFactory.sol\":12621:12716  callOptionalReturn(token, abi.encodeWithSelector(token.transferFrom.selector, from, to, value)) */\n              jump\t// in\n            tag_191:\n                /* \"staking/StakingRewardsFactory.sol\":12521:12723  function safeTransferFrom(IERC20 token, address from, address to, uint256 value) internal {... */\n              pop\n              pop\n              pop\n              pop\n              jump\t// out\n                /* \"staking/StakingRewardsFactory.sol\":14300:15395  function callOptionalReturn(IERC20 token, bytes memory data) private {... */\n            tag_186:\n                /* \"staking/StakingRewardsFactory.sol\":14895:14922  address(token).isContract() */\n              tag_193\n                /* \"staking/StakingRewardsFactory.sol\":14903:14908  token */\n              dup3\n                /* \"staking/StakingRewardsFactory.sol\":14895:14920  address(token).isContract */\n              0xffffffffffffffffffffffffffffffffffffffff\n              and\n              tag_194\n                /* \"staking/StakingRewardsFactory.sol\":14895:14922  address(token).isContract() */\n              jump\t// in\n            tag_193:\n                /* \"staking/StakingRewardsFactory.sol\":14887:14958  require(address(token).isContract(), \"SafeERC20: call to non-contract\") */\n              tag_195\n              jumpi\n              mload(0x40)\n              0x08c379a000000000000000000000000000000000000000000000000000000000\n              dup2\n              mstore\n              0x04\n              add\n              dup1\n              dup1\n              0x20\n              add\n              dup3\n              dup2\n              sub\n              dup3\n              mstore\n              0x1f\n              dup2\n              mstore\n              0x20\n              add\n              dup1\n              0x5361666545524332303a2063616c6c20746f206e6f6e2d636f6e747261637400\n              dup2\n              mstore\n              pop\n              0x20\n              add\n              swap2\n              pop\n              pop\n              mload(0x40)\n              dup1\n              swap2\n              sub\n              swap1\n              revert\n            tag_195:\n                /* \"staking/StakingRewardsFactory.sol\":15029:15041  bool success */\n              0x00\n                /* \"staking/StakingRewardsFactory.sol\":15043:15066  bytes memory returndata */\n              0x60\n                /* \"staking/StakingRewardsFactory.sol\":15078:15083  token */\n              dup4\n                /* \"staking/StakingRewardsFactory.sol\":15070:15089  address(token).call */\n              0xffffffffffffffffffffffffffffffffffffffff\n              and\n                /* \"staking/StakingRewardsFactory.sol\":15090:15094  data */\n              dup4\n                /* \"staking/StakingRewardsFactory.sol\":15070:15095  address(token).call(data) */\n              mload(0x40)\n              dup1\n              dup3\n              dup1\n              mload\n              swap1\n              0x20\n              add\n              swap1\n              dup1\n              dup4\n              dup4\n                /* \"--CODEGEN--\":36:189   */\n            tag_196:\n                /* \"--CODEGEN--\":66:68   */\n              0x20\n                /* \"--CODEGEN--\":61:64   */\n              dup4\n                /* \"--CODEGEN--\":58:69   */\n              lt\n                /* \"--CODEGEN--\":36:189   */\n              tag_198\n              jumpi\n                /* \"--CODEGEN--\":182:185   */\n              dup1\n                /* \"--CODEGEN--\":176:186   */\n              mload\n                /* \"--CODEGEN--\":171:174   */\n              dup3\n                /* \"--CODEGEN--\":164:187   */\n              mstore\n                /* \"--CODEGEN--\":98:100   */\n              0x20\n                /* \"--CODEGEN--\":93:96   */\n              dup3\n                /* \"--CODEGEN--\":89:101   */\n              add\n                /* \"--CODEGEN--\":82:101   */\n              swap2\n              pop\n                /* \"--CODEGEN--\":123:125   */\n              0x20\n                /* \"--CODEGEN--\":118:121   */\n              dup2\n                /* \"--CODEGEN--\":114:126   */\n              add\n                /* \"--CODEGEN--\":107:126   */\n              swap1\n              pop\n                /* \"--CODEGEN--\":148:150   */\n              0x20\n                /* \"--CODEGEN--\":143:146   */\n              dup4\n                /* \"--CODEGEN--\":139:151   */\n              sub\n                /* \"--CODEGEN--\":132:151   */\n              swap3\n              pop\n                /* \"--CODEGEN--\":36:189   */\n              jump(tag_196)\n            tag_198:\n                /* \"--CODEGEN--\":274:275   */\n              0x01\n                /* \"--CODEGEN--\":267:270   */\n              dup4\n                /* \"--CODEGEN--\":263:265   */\n              0x20\n                /* \"--CODEGEN--\":259:271   */\n              sub\n                /* \"--CODEGEN--\":254:257   */\n              0x0100\n                /* \"--CODEGEN--\":250:272   */\n              exp\n                /* \"--CODEGEN--\":246:276   */\n              sub\n                /* \"--CODEGEN--\":315:319   */\n              dup1\n                /* \"--CODEGEN--\":311:320   */\n              not\n                /* \"--CODEGEN--\":305:308   */\n              dup3\n                /* \"--CODEGEN--\":299:309   */\n              mload\n                /* \"--CODEGEN--\":295:321   */\n              and\n                /* \"--CODEGEN--\":356:360   */\n              dup2\n                /* \"--CODEGEN--\":350:353   */\n              dup5\n                /* \"--CODEGEN--\":344:354   */\n              mload\n                /* \"--CODEGEN--\":340:361   */\n              and\n                /* \"--CODEGEN--\":389:396   */\n              dup1\n                /* \"--CODEGEN--\":380:387   */\n              dup3\n                /* \"--CODEGEN--\":377:397   */\n              or\n                /* \"--CODEGEN--\":372:375   */\n              dup6\n                /* \"--CODEGEN--\":365:398   */\n              mstore\n                /* \"--CODEGEN--\":3:402   */\n              pop\n              pop\n              pop\n                /* \"staking/StakingRewardsFactory.sol\":15070:15095  address(token).call(data) */\n              pop\n              pop\n              pop\n              swap1\n              pop\n              add\n              swap2\n              pop\n              pop\n              0x00\n              mload(0x40)\n              dup1\n              dup4\n              sub\n              dup2\n              0x00\n              dup7\n              gas\n              call\n              swap2\n              pop\n              pop\n              returndatasize\n                /* \"--CODEGEN--\":14:15   */\n              dup1\n                /* \"--CODEGEN--\":21:22   */\n              0x00\n                /* \"--CODEGEN--\":16:47   */\n              dup2\n              eq\n              tag_200\n              jumpi\n                /* \"--CODEGEN--\":75:79   */\n              0x40\n                /* \"--CODEGEN--\":69:80   */\n              mload\n                /* \"--CODEGEN--\":64:80   */\n              swap2\n              pop\n                /* \"--CODEGEN--\":144:148   */\n              0x1f\n                /* \"--CODEGEN--\":140:149   */\n              not\n                /* \"--CODEGEN--\":133:137   */\n              0x3f\n                /* \"--CODEGEN--\":115:131   */\n              returndatasize\n                /* \"--CODEGEN--\":111:138   */\n              add\n                /* \"--CODEGEN--\":107:150   */\n              and\n                /* \"--CODEGEN--\":104:105   */\n              dup3\n                /* \"--CODEGEN--\":100:151   */\n              add\n                /* \"--CODEGEN--\":94:98   */\n              0x40\n                /* \"--CODEGEN--\":87:152   */\n              mstore\n                /* \"--CODEGEN--\":169:185   */\n              returndatasize\n                /* \"--CODEGEN--\":166:167   */\n              dup3\n                /* \"--CODEGEN--\":159:186   */\n              mstore\n                /* \"--CODEGEN--\":225:241   */\n              returndatasize\n                /* \"--CODEGEN--\":222:223   */\n              0x00\n                /* \"--CODEGEN--\":215:219   */\n              0x20\n                /* \"--CODEGEN--\":212:213   */\n              dup5\n                /* \"--CODEGEN--\":208:220   */\n              add\n                /* \"--CODEGEN--\":193:242   */\n              returndatacopy\n                /* \"--CODEGEN--\":7:249   */\n              jump(tag_199)\n                /* \"--CODEGEN--\":16:47   */\n            tag_200:\n                /* \"--CODEGEN--\":36:40   */\n              0x60\n                /* \"--CODEGEN--\":31:40   */\n              swap2\n              pop\n                /* \"--CODEGEN--\":7:249   */\n            tag_199:\n              pop\n                /* \"staking/StakingRewardsFactory.sol\":15028:15095  (bool success, bytes memory returndata) = address(token).call(data) */\n              swap2\n              pop\n              swap2\n              pop\n                /* \"staking/StakingRewardsFactory.sol\":15113:15120  success */\n              dup2\n                /* \"staking/StakingRewardsFactory.sol\":15105:15157  require(success, \"SafeERC20: low-level call failed\") */\n              tag_201\n              jumpi\n              mload(0x40)\n              0x08c379a000000000000000000000000000000000000000000000000000000000\n              dup2\n              mstore\n              0x04\n              add\n              dup1\n              dup1\n              0x20\n              add\n              dup3\n              dup2\n              sub\n              dup3\n              mstore\n              0x20\n              dup2\n              mstore\n              0x20\n              add\n              dup1\n              0x5361666545524332303a206c6f772d6c6576656c2063616c6c206661696c6564\n              dup2\n              mstore\n              pop\n              0x20\n              add\n              swap2\n              pop\n              pop\n              mload(0x40)\n              dup1\n              swap2\n              sub\n              swap1\n              revert\n            tag_201:\n                /* \"staking/StakingRewardsFactory.sol\":15192:15193  0 */\n              0x00\n                /* \"staking/StakingRewardsFactory.sol\":15172:15182  returndata */\n              dup2\n                /* \"staking/StakingRewardsFactory.sol\":15172:15189  returndata.length */\n              mload\n                /* \"staking/StakingRewardsFactory.sol\":15172:15193  returndata.length > 0 */\n              gt\n                /* \"staking/StakingRewardsFactory.sol\":15168:15389  if (returndata.length > 0) { // Return data is optional... */\n              iszero\n              tag_202\n              jumpi\n                /* \"staking/StakingRewardsFactory.sol\":15312:15322  returndata */\n              dup1\n                /* \"staking/StakingRewardsFactory.sol\":15301:15331  abi.decode(returndata, (bool)) */\n              dup1\n              0x20\n              add\n              swap1\n              mload\n                /* \"--CODEGEN--\":13:15   */\n              0x20\n                /* \"--CODEGEN--\":8:11   */\n              dup2\n                /* \"--CODEGEN--\":5:16   */\n              lt\n                /* \"--CODEGEN--\":2:4   */\n              iszero\n              tag_203\n              jumpi\n                /* \"--CODEGEN--\":29:30   */\n              0x00\n                /* \"--CODEGEN--\":26:27   */\n              dup1\n                /* \"--CODEGEN--\":19:31   */\n              revert\n                /* \"--CODEGEN--\":2:4   */\n            tag_203:\n                /* \"staking/StakingRewardsFactory.sol\":15301:15331  abi.decode(returndata, (bool)) */\n              dup2\n              add\n              swap1\n              dup1\n              dup1\n              mload\n              swap1\n              0x20\n              add\n              swap1\n              swap3\n              swap2\n              swap1\n              pop\n              pop\n              pop\n                /* \"staking/StakingRewardsFactory.sol\":15293:15378  require(abi.decode(returndata, (bool)), \"SafeERC20: ERC20 operation did not succeed\") */\n              tag_204\n              jumpi\n              mload(0x40)\n              0x08c379a000000000000000000000000000000000000000000000000000000000\n              dup2\n              mstore\n              0x04\n              add\n              dup1\n              dup1\n              0x20\n              add\n              dup3\n              dup2\n              sub\n              dup3\n              mstore\n              0x2a\n              dup2\n              mstore\n              0x20\n              add\n              dup1\n              data_e11ad79d1e4a7f2e5f376964cb99e8e8f7904e3fc16a109f7a7ecb9aa7956dcd\n              0x2a\n              swap2\n              codecopy\n              0x40\n              add\n              swap2\n              pop\n              pop\n              mload(0x40)\n              dup1\n              swap2\n              sub\n              swap1\n              revert\n            tag_204:\n                /* \"staking/StakingRewardsFactory.sol\":15168:15389  if (returndata.length > 0) { // Return data is optional... */\n            tag_202:\n                /* \"staking/StakingRewardsFactory.sol\":14300:15395  function callOptionalReturn(IERC20 token, bytes memory data) private {... */\n              pop\n              pop\n              pop\n              pop\n              jump\t// out\n                /* \"staking/StakingRewardsFactory.sol\":11379:11792  function isContract(address account) internal view returns (bool) {... */\n            tag_194:\n                /* \"staking/StakingRewardsFactory.sol\":11439:11443  bool */\n              0x00\n                /* \"staking/StakingRewardsFactory.sol\":11642:11654  uint256 size */\n              dup1\n                /* \"staking/StakingRewardsFactory.sol\":11751:11758  account */\n              dup3\n                /* \"staking/StakingRewardsFactory.sol\":11739:11759  extcodesize(account) */\n              extcodesize\n                /* \"staking/StakingRewardsFactory.sol\":11731:11759  size := extcodesize(account) */\n              swap1\n              pop\n                /* \"staking/StakingRewardsFactory.sol\":11784:11785  0 */\n              0x00\n                /* \"staking/StakingRewardsFactory.sol\":11777:11781  size */\n              dup2\n                /* \"staking/StakingRewardsFactory.sol\":11777:11785  size > 0 */\n              gt\n                /* \"staking/StakingRewardsFactory.sol\":11770:11785  return size > 0 */\n              swap2\n              pop\n              pop\n                /* \"staking/StakingRewardsFactory.sol\":11379:11792  function isContract(address account) internal view returns (bool) {... */\n              swap2\n              swap1\n              pop\n              jump\t// out\n            stop\n            data_9113bb53c2876a3805b2c9242029423fc540a728243ce887ab24c82cf119fba3 536166654d6174683a206d756c7469706c69636174696f6e206f766572666c6f77\n            data_d50b095422f4cbfcb4c90fbd4d55aaf0967bf1d90e94bb6a1ae9fc4ee7e733de 43616c6c6572206973206e6f742052657761726473446973747269627574696f6e20636f6e7472616374\n            data_e11ad79d1e4a7f2e5f376964cb99e8e8f7904e3fc16a109f7a7ecb9aa7956dcd 5361666545524332303a204552433230206f7065726174696f6e20646964206e6f742073756363656564\n\n            auxdata: 0xa265627a7a7231582057c159b1069c21758147db4804e5998803c982af08deba3c18630b6c8c6777b564736f6c63430005100032\n        }\n    }\n\n    auxdata: 0xa265627a7a723158202c98d0d83e2ca4ba7f0996b7153407bee9f0e73c0fd19d7c7e4ecf1ff1a7456664736f6c63430005100032\n}\n",
				"bytecode": {
					"linkReferences": {},
					"object": "608060405234801561001057600080fd5b506040516138bd3803806138bd8339818101604052604081101561003357600080fd5b810190808051906020019092919080519060200190929190505050336000806101000a81548173ffffffffffffffffffffffffffffffffffffffff021916908373ffffffffffffffffffffffffffffffffffffffff1602179055506000809054906101000a900473ffffffffffffffffffffffffffffffffffffffff1673ffffffffffffffffffffffffffffffffffffffff16600073ffffffffffffffffffffffffffffffffffffffff167f8be0079c531659141344cd1fd0a4f28419497f9722a3daafe3b4186f6b6457e060405160405180910390a342811015610163576040517f08c379a00000000000000000000000000000000000000000000000000000000081526004018080602001828103825260348152602001806138896034913960400191505060405180910390fd5b81600160006101000a81548173ffffffffffffffffffffffffffffffffffffffff021916908373ffffffffffffffffffffffffffffffffffffffff1602179055508060028190555050506136cd806101bc6000396000f3fe608060405234801561001057600080fd5b50600436106100cf5760003560e01c80638f32d59b1161008c578063cfda547811610066578063cfda547814610304578063d09b6d431461035c578063d1af0c7d146103b4578063f2fde38b146103fe576100cf565b80638f32d59b146102ba578063a0928c11146102dc578063ae741d8d146102fa576100cf565b8063344e5e34146100d45780636cf8caf814610142578063715018a6146101d45780637572719e146101de57806381e162981461022c5780638da5cb5b14610270575b600080fd5b610100600480360360208110156100ea57600080fd5b8101908080359060200190929190505050610442565b604051808273ffffffffffffffffffffffffffffffffffffffff1673ffffffffffffffffffffffffffffffffffffffff16815260200191505060405180910390f35b6101846004803603602081101561015857600080fd5b81019080803573ffffffffffffffffffffffffffffffffffffffff16906020019092919050505061047e565b604051808473ffffffffffffffffffffffffffffffffffffffff1673ffffffffffffffffffffffffffffffffffffffff168152602001838152602001828152602001935050505060405180910390f35b6101dc6104c8565b005b61022a600480360360408110156101f457600080fd5b81019080803573ffffffffffffffffffffffffffffffffffffffff16906020019092919080359060200190929190505050610601565b005b61026e6004803603602081101561024257600080fd5b81019080803573ffffffffffffffffffffffffffffffffffffffff169060200190929190505050610742565b005b610278610ac8565b604051808273ffffffffffffffffffffffffffffffffffffffff1673ffffffffffffffffffffffffffffffffffffffff16815260200191505060405180910390f35b6102c2610af1565b604051808215151515815260200191505060405180910390f35b6102e4610b48565b6040518082815260200191505060405180910390f35b610302610b4e565b005b61035a6004803603606081101561031a57600080fd5b81019080803573ffffffffffffffffffffffffffffffffffffffff1690602001909291908035906020019092919080359060200190929190505050610c0f565b005b6103b26004803603606081101561037257600080fd5b81019080803573ffffffffffffffffffffffffffffffffffffffff1690602001909291908035906020019092919080359060200190929190505050610f1f565b005b6103bc61109e565b604051808273ffffffffffffffffffffffffffffffffffffffff1673ffffffffffffffffffffffffffffffffffffffff16815260200191505060405180910390f35b6104406004803603602081101561041457600080fd5b81019080803573ffffffffffffffffffffffffffffffffffffffff1690602001909291905050506110c4565b005b6003818154811061044f57fe5b906000526020600020016000915054906101000a900473ffffffffffffffffffffffffffffffffffffffff1681565b60046020528060005260406000206000915090508060000160009054906101000a900473ffffffffffffffffffffffffffffffffffffffff16908060010154908060020154905083565b6104d0610af1565b610542576040517f08c379a00000000000000000000000000000000000000000000000000000000081526004018080602001828103825260208152602001807f4f776e61626c653a2063616c6c6572206973206e6f7420746865206f776e657281525060200191505060405180910390fd5b600073ffffffffffffffffffffffffffffffffffffffff166000809054906101000a900473ffffffffffffffffffffffffffffffffffffffff1673ffffffffffffffffffffffffffffffffffffffff167f8be0079c531659141344cd1fd0a4f28419497f9722a3daafe3b4186f6b6457e060405160405180910390a360008060006101000a81548173ffffffffffffffffffffffffffffffffffffffff021916908373ffffffffffffffffffffffffffffffffffffffff160217905550565b610609610af1565b61067b576040517f08c379a00000000000000000000000000000000000000000000000000000000081526004018080602001828103825260208152602001807f4f776e61626c653a2063616c6c6572206973206e6f7420746865206f776e657281525060200191505060405180910390fd5b8173ffffffffffffffffffffffffffffffffffffffff1663a9059cbb33836040518363ffffffff1660e01b8152600401808373ffffffffffffffffffffffffffffffffffffffff1673ffffffffffffffffffffffffffffffffffffffff16815260200182815260200192505050602060405180830381600087803b15801561070257600080fd5b505af1158015610716573d6000803e3d6000fd5b505050506040513d602081101561072c57600080fd5b8101908080519060200190929190505050505050565b60025442101561079d576040517f08c379a000000000000000000000000000000000000000000000000000000000815260040180806020018281038252603481526020018061362e6034913960400191505060405180910390fd5b6000600460008373ffffffffffffffffffffffffffffffffffffffff1673ffffffffffffffffffffffffffffffffffffffff1681526020019081526020016000209050600073ffffffffffffffffffffffffffffffffffffffff168160000160009054906101000a900473ffffffffffffffffffffffffffffffffffffffff1673ffffffffffffffffffffffffffffffffffffffff16141561088a576040517f08c379a00000000000000000000000000000000000000000000000000000000081526004018080602001828103825260378152602001806136626037913960400191505060405180910390fd5b600081600101541180156108a2575060008160020154115b15610ac4576000816001015490506000826002015490506000836001018190555060008360020181905550600160009054906101000a900473ffffffffffffffffffffffffffffffffffffffff1673ffffffffffffffffffffffffffffffffffffffff1663a9059cbb8460000160009054906101000a900473ffffffffffffffffffffffffffffffffffffffff16846040518363ffffffff1660e01b8152600401808373ffffffffffffffffffffffffffffffffffffffff1673ffffffffffffffffffffffffffffffffffffffff16815260200182815260200192505050602060405180830381600087803b15801561099a57600080fd5b505af11580156109ae573d6000803e3d6000fd5b505050506040513d60208110156109c457600080fd5b8101908080519060200190929190505050610a2a576040517f08c379a000000000000000000000000000000000000000000000000000000000815260040180806020018281038252603a8152602001806135f4603a913960400191505060405180910390fd5b8260000160009054906101000a900473ffffffffffffffffffffffffffffffffffffffff1673ffffffffffffffffffffffffffffffffffffffff1663246132f983836040518363ffffffff1660e01b81526004018083815260200182815260200192505050600060405180830381600087803b158015610aa957600080fd5b505af1158015610abd573d6000803e3d6000fd5b5050505050505b5050565b60008060009054906101000a900473ffffffffffffffffffffffffffffffffffffffff16905090565b60008060009054906101000a900473ffffffffffffffffffffffffffffffffffffffff1673ffffffffffffffffffffffffffffffffffffffff163373ffffffffffffffffffffffffffffffffffffffff1614905090565b60025481565b600060038054905011610bac576040517f08c379a00000000000000000000000000000000000000000000000000000000081526004018080602001828103825260458152602001806135af6045913960600191505060405180910390fd5b60008090505b600380549050811015610c0c57610bff60038281548110610bcf57fe5b9060005260206000200160009054906101000a900473ffffffffffffffffffffffffffffffffffffffff16610742565b8080600101915050610bb2565b50565b610c17610af1565b610c89576040517f08c379a00000000000000000000000000000000000000000000000000000000081526004018080602001828103825260208152602001807f4f776e61626c653a2063616c6c6572206973206e6f7420746865206f776e657281525060200191505060405180910390fd5b6000600460008573ffffffffffffffffffffffffffffffffffffffff1673ffffffffffffffffffffffffffffffffffffffff1681526020019081526020016000209050600073ffffffffffffffffffffffffffffffffffffffff168160000160009054906101000a900473ffffffffffffffffffffffffffffffffffffffff1673ffffffffffffffffffffffffffffffffffffffff1614610d75576040517f08c379a000000000000000000000000000000000000000000000000000000000815260040180806020018281038252602f815260200180613580602f913960400191505060405180910390fd5b30600160009054906101000a900473ffffffffffffffffffffffffffffffffffffffff1685604051610da69061128e565b808473ffffffffffffffffffffffffffffffffffffffff1673ffffffffffffffffffffffffffffffffffffffff1681526020018373ffffffffffffffffffffffffffffffffffffffff1673ffffffffffffffffffffffffffffffffffffffff1681526020018273ffffffffffffffffffffffffffffffffffffffff1673ffffffffffffffffffffffffffffffffffffffff1681526020019350505050604051809103906000f080158015610e5e573d6000803e3d6000fd5b508160000160006101000a81548173ffffffffffffffffffffffffffffffffffffffff021916908373ffffffffffffffffffffffffffffffffffffffff16021790555082816001018190555081816002018190555060038490806001815401808255809150509060018203906000526020600020016000909192909190916101000a81548173ffffffffffffffffffffffffffffffffffffffff021916908373ffffffffffffffffffffffffffffffffffffffff1602179055505050505050565b610f27610af1565b610f99576040517f08c379a00000000000000000000000000000000000000000000000000000000081526004018080602001828103825260208152602001807f4f776e61626c653a2063616c6c6572206973206e6f7420746865206f776e657281525060200191505060405180910390fd5b6000600460008573ffffffffffffffffffffffffffffffffffffffff1673ffffffffffffffffffffffffffffffffffffffff1681526020019081526020016000209050600073ffffffffffffffffffffffffffffffffffffffff168160000160009054906101000a900473ffffffffffffffffffffffffffffffffffffffff1673ffffffffffffffffffffffffffffffffffffffff161415611086576040517f08c379a000000000000000000000000000000000000000000000000000000000815260040180806020018281038252602b815260200180613555602b913960400191505060405180910390fd5b82816001018190555081816002018190555050505050565b600160009054906101000a900473ffffffffffffffffffffffffffffffffffffffff1681565b6110cc610af1565b61113e576040517f08c379a00000000000000000000000000000000000000000000000000000000081526004018080602001828103825260208152602001807f4f776e61626c653a2063616c6c6572206973206e6f7420746865206f776e657281525060200191505060405180910390fd5b6111478161114a565b50565b600073ffffffffffffffffffffffffffffffffffffffff168173ffffffffffffffffffffffffffffffffffffffff1614156111d0576040517f08c379a000000000000000000000000000000000000000000000000000000000815260040180806020018281038252602681526020018061352f6026913960400191505060405180910390fd5b8073ffffffffffffffffffffffffffffffffffffffff166000809054906101000a900473ffffffffffffffffffffffffffffffffffffffff1673ffffffffffffffffffffffffffffffffffffffff167f8be0079c531659141344cd1fd0a4f28419497f9722a3daafe3b4186f6b6457e060405160405180910390a3806000806101000a81548173ffffffffffffffffffffffffffffffffffffffff021916908373ffffffffffffffffffffffffffffffffffffffff16021790555050565b6122938061129c8339019056fe60806040526000600455600060055534801561001a57600080fd5b506040516122933803806122938339818101604052606081101561003d57600080fd5b810190808051906020019092919080519060200190929190805190602001909291905050506001808190555081600260006101000a81548173ffffffffffffffffffffffffffffffffffffffff021916908373ffffffffffffffffffffffffffffffffffffffff16021790555080600360006101000a81548173ffffffffffffffffffffffffffffffffffffffff021916908373ffffffffffffffffffffffffffffffffffffffff160217905550826000806101000a81548173ffffffffffffffffffffffffffffffffffffffff021916908373ffffffffffffffffffffffffffffffffffffffff1602179055505050506121568061013d6000396000f3fe608060405234801561001057600080fd5b506004361061012b5760003560e01c806380faa57d116100ad578063d1af0c7d11610071578063d1af0c7d14610458578063df136d65146104a2578063e9fad8ee146104c0578063ebe2b12b146104ca578063ecd9ba82146104e85761012b565b806380faa57d146103785780638b87634714610396578063a694fc3a146103ee578063c8f33c911461041c578063cd3daf9d1461043a5761012b565b80633d18b912116100f45780633d18b912146102645780633fc6df6e1461026e57806370a08231146102b857806372f702f3146103105780637b0a47ee1461035a5761012b565b80628cc262146101305780630700037d1461018857806318160ddd146101e0578063246132f9146101fe5780632e1a7d4d14610236575b600080fd5b6101726004803603602081101561014657600080fd5b81019080803573ffffffffffffffffffffffffffffffffffffffff169060200190929190505050610541565b6040518082815260200191505060405180910390f35b6101ca6004803603602081101561019e57600080fd5b81019080803573ffffffffffffffffffffffffffffffffffffffff16906020019092919050505061065f565b6040518082815260200191505060405180910390f35b6101e8610677565b6040518082815260200191505060405180910390f35b6102346004803603604081101561021457600080fd5b810190808035906020019092919080359060200190929190505050610681565b005b6102626004803603602081101561024c57600080fd5b8101908080359060200190929190505050610aeb565b005b61026c610e23565b005b6102766110c8565b604051808273ffffffffffffffffffffffffffffffffffffffff1673ffffffffffffffffffffffffffffffffffffffff16815260200191505060405180910390f35b6102fa600480360360208110156102ce57600080fd5b81019080803573ffffffffffffffffffffffffffffffffffffffff1690602001909291905050506110ed565b6040518082815260200191505060405180910390f35b610318611136565b604051808273ffffffffffffffffffffffffffffffffffffffff1673ffffffffffffffffffffffffffffffffffffffff16815260200191505060405180910390f35b61036261115c565b6040518082815260200191505060405180910390f35b610380611162565b6040518082815260200191505060405180910390f35b6103d8600480360360208110156103ac57600080fd5b81019080803573ffffffffffffffffffffffffffffffffffffffff169060200190929190505050611175565b6040518082815260200191505060405180910390f35b61041a6004803603602081101561040457600080fd5b810190808035906020019092919050505061118d565b005b6104246114c7565b6040518082815260200191505060405180910390f35b6104426114cd565b6040518082815260200191505060405180910390f35b61046061155b565b604051808273ffffffffffffffffffffffffffffffffffffffff1673ffffffffffffffffffffffffffffffffffffffff16815260200191505060405180910390f35b6104aa611581565b6040518082815260200191505060405180910390f35b6104c8611587565b005b6104d26115d9565b6040518082815260200191505060405180910390f35b61053f600480360360a08110156104fe57600080fd5b810190808035906020019092919080359060200190929190803560ff16906020019092919080359060200190929190803590602001909291905050506115df565b005b6000610658600960008473ffffffffffffffffffffffffffffffffffffffff1673ffffffffffffffffffffffffffffffffffffffff1681526020019081526020016000205461064a670de0b6b3a764000061063c6105ee600860008973ffffffffffffffffffffffffffffffffffffffff1673ffffffffffffffffffffffffffffffffffffffff168152602001908152602001600020546105e06114cd565b611a3890919063ffffffff16565b600b60008973ffffffffffffffffffffffffffffffffffffffff1673ffffffffffffffffffffffffffffffffffffffff16815260200190815260200160002054611ac190919063ffffffff16565b611b4790919063ffffffff16565b611bd690919063ffffffff16565b9050919050565b60096020528060005260406000206000915090505481565b6000600a54905090565b6000809054906101000a900473ffffffffffffffffffffffffffffffffffffffff1673ffffffffffffffffffffffffffffffffffffffff163373ffffffffffffffffffffffffffffffffffffffff1614610726576040517f08c379a000000000000000000000000000000000000000000000000000000000815260040180806020018281038252602a8152602001806120ce602a913960400191505060405180910390fd5b60006107306114cd565b60078190555061073e611162565b600681905550600073ffffffffffffffffffffffffffffffffffffffff168173ffffffffffffffffffffffffffffffffffffffff161461080b5761078181610541565b600960008373ffffffffffffffffffffffffffffffffffffffff1673ffffffffffffffffffffffffffffffffffffffff16815260200190815260200160002081905550600754600860008373ffffffffffffffffffffffffffffffffffffffff1673ffffffffffffffffffffffffffffffffffffffff168152602001908152602001600020819055505b6004546108218342611bd690919063ffffffff16565b1015610895576040517f08c379a000000000000000000000000000000000000000000000000000000000815260040180806020018281038252601d8152602001807f43616e6e6f7420726564756365206578697374696e6720706572696f6400000081525060200191505060405180910390fd5b60045442106108bc576108b18284611b4790919063ffffffff16565b60058190555061091c565b60006108d342600454611a3890919063ffffffff16565b905060006108ec60055483611ac190919063ffffffff16565b9050610913846109058388611bd690919063ffffffff16565b611b4790919063ffffffff16565b60058190555050505b6000600260009054906101000a900473ffffffffffffffffffffffffffffffffffffffff1673ffffffffffffffffffffffffffffffffffffffff166370a08231306040518263ffffffff1660e01b8152600401808273ffffffffffffffffffffffffffffffffffffffff1673ffffffffffffffffffffffffffffffffffffffff16815260200191505060206040518083038186803b1580156109bd57600080fd5b505afa1580156109d1573d6000803e3d6000fd5b505050506040513d60208110156109e757600080fd5b81019080805190602001909291905050509050610a0d8382611b4790919063ffffffff16565b6005541115610a84576040517f08c379a00000000000000000000000000000000000000000000000000000000081526004018080602001828103825260188152602001807f50726f76696465642072657761726420746f6f2068696768000000000000000081525060200191505060405180910390fd5b42600681905550610a9e8342611bd690919063ffffffff16565b6004819055507f6c07ee05dcf262f13abf9d87b846ee789d2f90fe991d495acd7d7fc109ee1f5584600454604051808381526020018281526020019250505060405180910390a150505050565b600180600082825401925050819055506000600154905033610b0b6114cd565b600781905550610b19611162565b600681905550600073ffffffffffffffffffffffffffffffffffffffff168173ffffffffffffffffffffffffffffffffffffffff1614610be657610b5c81610541565b600960008373ffffffffffffffffffffffffffffffffffffffff1673ffffffffffffffffffffffffffffffffffffffff16815260200190815260200160002081905550600754600860008373ffffffffffffffffffffffffffffffffffffffff1673ffffffffffffffffffffffffffffffffffffffff168152602001908152602001600020819055505b60008311610c5c576040517f08c379a00000000000000000000000000000000000000000000000000000000081526004018080602001828103825260118152602001807f43616e6e6f74207769746864726177203000000000000000000000000000000081525060200191505060405180910390fd5b610c7183600a54611a3890919063ffffffff16565b600a81905550610cc983600b60003373ffffffffffffffffffffffffffffffffffffffff1673ffffffffffffffffffffffffffffffffffffffff16815260200190815260200160002054611a3890919063ffffffff16565b600b60003373ffffffffffffffffffffffffffffffffffffffff1673ffffffffffffffffffffffffffffffffffffffff16815260200190815260200160002081905550610d593384600360009054906101000a900473ffffffffffffffffffffffffffffffffffffffff1673ffffffffffffffffffffffffffffffffffffffff16611c5e9092919063ffffffff16565b3373ffffffffffffffffffffffffffffffffffffffff167f7084f5476618d8e60b11ef0d7d3f06914655adb8793e28ff7f018d4c76d505d5846040518082815260200191505060405180910390a2506001548114610e1f576040517f08c379a000000000000000000000000000000000000000000000000000000000815260040180806020018281038252601f8152602001807f5265656e7472616e637947756172643a207265656e7472616e742063616c6c0081525060200191505060405180910390fd5b5050565b600180600082825401925050819055506000600154905033610e436114cd565b600781905550610e51611162565b600681905550600073ffffffffffffffffffffffffffffffffffffffff168173ffffffffffffffffffffffffffffffffffffffff1614610f1e57610e9481610541565b600960008373ffffffffffffffffffffffffffffffffffffffff1673ffffffffffffffffffffffffffffffffffffffff16815260200190815260200160002081905550600754600860008373ffffffffffffffffffffffffffffffffffffffff1673ffffffffffffffffffffffffffffffffffffffff168152602001908152602001600020819055505b6000600960003373ffffffffffffffffffffffffffffffffffffffff1673ffffffffffffffffffffffffffffffffffffffff168152602001908152602001600020549050600081111561104c576000600960003373ffffffffffffffffffffffffffffffffffffffff1673ffffffffffffffffffffffffffffffffffffffff16815260200190815260200160002081905550610ffd3382600260009054906101000a900473ffffffffffffffffffffffffffffffffffffffff1673ffffffffffffffffffffffffffffffffffffffff16611c5e9092919063ffffffff16565b3373ffffffffffffffffffffffffffffffffffffffff167fe2403640ba68fed3a2f88b7557551d1993f84b99bb10ff833f0cf8db0c5e0486826040518082815260200191505060405180910390a25b505060015481146110c5576040517f08c379a000000000000000000000000000000000000000000000000000000000815260040180806020018281038252601f8152602001807f5265656e7472616e637947756172643a207265656e7472616e742063616c6c0081525060200191505060405180910390fd5b50565b6000809054906101000a900473ffffffffffffffffffffffffffffffffffffffff1681565b6000600b60008373ffffffffffffffffffffffffffffffffffffffff1673ffffffffffffffffffffffffffffffffffffffff168152602001908152602001600020549050919050565b600360009054906101000a900473ffffffffffffffffffffffffffffffffffffffff1681565b60055481565b600061117042600454611d2f565b905090565b60086020528060005260406000206000915090505481565b6001806000828254019250508190555060006001549050336111ad6114cd565b6007819055506111bb611162565b600681905550600073ffffffffffffffffffffffffffffffffffffffff168173ffffffffffffffffffffffffffffffffffffffff1614611288576111fe81610541565b600960008373ffffffffffffffffffffffffffffffffffffffff1673ffffffffffffffffffffffffffffffffffffffff16815260200190815260200160002081905550600754600860008373ffffffffffffffffffffffffffffffffffffffff1673ffffffffffffffffffffffffffffffffffffffff168152602001908152602001600020819055505b600083116112fe576040517f08c379a000000000000000000000000000000000000000000000000000000000815260040180806020018281038252600e8152602001807f43616e6e6f74207374616b65203000000000000000000000000000000000000081525060200191505060405180910390fd5b61131383600a54611bd690919063ffffffff16565b600a8190555061136b83600b60003373ffffffffffffffffffffffffffffffffffffffff1673ffffffffffffffffffffffffffffffffffffffff16815260200190815260200160002054611bd690919063ffffffff16565b600b60003373ffffffffffffffffffffffffffffffffffffffff1673ffffffffffffffffffffffffffffffffffffffff168152602001908152602001600020819055506113fd333085600360009054906101000a900473ffffffffffffffffffffffffffffffffffffffff1673ffffffffffffffffffffffffffffffffffffffff16611d48909392919063ffffffff16565b3373ffffffffffffffffffffffffffffffffffffffff167f9e71bc8eea02a63969f509818f2dafb9254532904319f9dbda79b67bd34a5f3d846040518082815260200191505060405180910390a25060015481146114c3576040517f08c379a000000000000000000000000000000000000000000000000000000000815260040180806020018281038252601f8152602001807f5265656e7472616e637947756172643a207265656e7472616e742063616c6c0081525060200191505060405180910390fd5b5050565b60065481565b600080600a5414156114e3576007549050611558565b611555611544600a54611536670de0b6b3a764000061152860055461151a60065461150c611162565b611a3890919063ffffffff16565b611ac190919063ffffffff16565b611ac190919063ffffffff16565b611b4790919063ffffffff16565b600754611bd690919063ffffffff16565b90505b90565b600260009054906101000a900473ffffffffffffffffffffffffffffffffffffffff1681565b60075481565b6115cf600b60003373ffffffffffffffffffffffffffffffffffffffff1673ffffffffffffffffffffffffffffffffffffffff16815260200190815260200160002054610aeb565b6115d7610e23565b565b60045481565b6001806000828254019250508190555060006001549050336115ff6114cd565b60078190555061160d611162565b600681905550600073ffffffffffffffffffffffffffffffffffffffff168173ffffffffffffffffffffffffffffffffffffffff16146116da5761165081610541565b600960008373ffffffffffffffffffffffffffffffffffffffff1673ffffffffffffffffffffffffffffffffffffffff16815260200190815260200160002081905550600754600860008373ffffffffffffffffffffffffffffffffffffffff1673ffffffffffffffffffffffffffffffffffffffff168152602001908152602001600020819055505b60008711611750576040517f08c379a000000000000000000000000000000000000000000000000000000000815260040180806020018281038252600e8152602001807f43616e6e6f74207374616b65203000000000000000000000000000000000000081525060200191505060405180910390fd5b61176587600a54611bd690919063ffffffff16565b600a819055506117bd87600b60003373ffffffffffffffffffffffffffffffffffffffff1673ffffffffffffffffffffffffffffffffffffffff16815260200190815260200160002054611bd690919063ffffffff16565b600b60003373ffffffffffffffffffffffffffffffffffffffff1673ffffffffffffffffffffffffffffffffffffffff16815260200190815260200160002081905550600360009054906101000a900473ffffffffffffffffffffffffffffffffffffffff1673ffffffffffffffffffffffffffffffffffffffff1663d505accf33308a8a8a8a8a6040518863ffffffff1660e01b8152600401808873ffffffffffffffffffffffffffffffffffffffff1673ffffffffffffffffffffffffffffffffffffffff1681526020018773ffffffffffffffffffffffffffffffffffffffff1673ffffffffffffffffffffffffffffffffffffffff1681526020018681526020018581526020018460ff1660ff168152602001838152602001828152602001975050505050505050600060405180830381600087803b15801561190357600080fd5b505af1158015611917573d6000803e3d6000fd5b5050505061196a333089600360009054906101000a900473ffffffffffffffffffffffffffffffffffffffff1673ffffffffffffffffffffffffffffffffffffffff16611d48909392919063ffffffff16565b3373ffffffffffffffffffffffffffffffffffffffff167f9e71bc8eea02a63969f509818f2dafb9254532904319f9dbda79b67bd34a5f3d886040518082815260200191505060405180910390a2506001548114611a30576040517f08c379a000000000000000000000000000000000000000000000000000000000815260040180806020018281038252601f8152602001807f5265656e7472616e637947756172643a207265656e7472616e742063616c6c0081525060200191505060405180910390fd5b505050505050565b600082821115611ab0576040517f08c379a000000000000000000000000000000000000000000000000000000000815260040180806020018281038252601e8152602001807f536166654d6174683a207375627472616374696f6e206f766572666c6f77000081525060200191505060405180910390fd5b600082840390508091505092915050565b600080831415611ad45760009050611b41565b6000828402905082848281611ae557fe5b0414611b3c576040517f08c379a00000000000000000000000000000000000000000000000000000000081526004018080602001828103825260218152602001806120ad6021913960400191505060405180910390fd5b809150505b92915050565b6000808211611bbe576040517f08c379a000000000000000000000000000000000000000000000000000000000815260040180806020018281038252601a8152602001807f536166654d6174683a206469766973696f6e206279207a65726f00000000000081525060200191505060405180910390fd5b6000828481611bc957fe5b0490508091505092915050565b600080828401905083811015611c54576040517f08c379a000000000000000000000000000000000000000000000000000000000815260040180806020018281038252601b8152602001807f536166654d6174683a206164646974696f6e206f766572666c6f77000000000081525060200191505060405180910390fd5b8091505092915050565b611d2a838473ffffffffffffffffffffffffffffffffffffffff1663a9059cbb905060e01b8484604051602401808373ffffffffffffffffffffffffffffffffffffffff1673ffffffffffffffffffffffffffffffffffffffff16815260200182815260200192505050604051602081830303815290604052907bffffffffffffffffffffffffffffffffffffffffffffffffffffffff19166020820180517bffffffffffffffffffffffffffffffffffffffffffffffffffffffff8381831617835250505050611e4e565b505050565b6000818310611d3e5781611d40565b825b905092915050565b611e48848573ffffffffffffffffffffffffffffffffffffffff166323b872dd905060e01b858585604051602401808473ffffffffffffffffffffffffffffffffffffffff1673ffffffffffffffffffffffffffffffffffffffff1681526020018373ffffffffffffffffffffffffffffffffffffffff1673ffffffffffffffffffffffffffffffffffffffff1681526020018281526020019350505050604051602081830303815290604052907bffffffffffffffffffffffffffffffffffffffffffffffffffffffff19166020820180517bffffffffffffffffffffffffffffffffffffffffffffffffffffffff8381831617835250505050611e4e565b50505050565b611e6d8273ffffffffffffffffffffffffffffffffffffffff16612099565b611edf576040517f08c379a000000000000000000000000000000000000000000000000000000000815260040180806020018281038252601f8152602001807f5361666545524332303a2063616c6c20746f206e6f6e2d636f6e74726163740081525060200191505060405180910390fd5b600060608373ffffffffffffffffffffffffffffffffffffffff16836040518082805190602001908083835b60208310611f2e5780518252602082019150602081019050602083039250611f0b565b6001836020036101000a0380198251168184511680821785525050505050509050019150506000604051808303816000865af19150503d8060008114611f90576040519150601f19603f3d011682016040523d82523d6000602084013e611f95565b606091505b50915091508161200d576040517f08c379a00000000000000000000000000000000000000000000000000000000081526004018080602001828103825260208152602001807f5361666545524332303a206c6f772d6c6576656c2063616c6c206661696c656481525060200191505060405180910390fd5b6000815111156120935780806020019051602081101561202c57600080fd5b8101908080519060200190929190505050612092576040517f08c379a000000000000000000000000000000000000000000000000000000000815260040180806020018281038252602a8152602001806120f8602a913960400191505060405180910390fd5b5b50505050565b600080823b90506000811191505091905056fe536166654d6174683a206d756c7469706c69636174696f6e206f766572666c6f7743616c6c6572206973206e6f742052657761726473446973747269627574696f6e20636f6e74726163745361666545524332303a204552433230206f7065726174696f6e20646964206e6f742073756363656564a265627a7a7231582057c159b1069c21758147db4804e5998803c982af08deba3c18630b6c8c6777b564736f6c634300051000324f776e61626c653a206e6577206f776e657220697320746865207a65726f20616464726573735374616b696e6752657761726473466163746f72793a3a7570646174653a206e6f74206465706c6f7965645374616b696e6752657761726473466163746f72793a3a6465706c6f793a20616c7265616479206465706c6f7965645374616b696e6752657761726473466163746f72793a3a6e6f74696679526577617264416d6f756e74733a2063616c6c6564206265666f726520616e79206465706c6f79735374616b696e6752657761726473466163746f72793a3a6e6f74696679526577617264416d6f756e743a207472616e73666572206661696c65645374616b696e6752657761726473466163746f72793a3a6e6f74696679526577617264416d6f756e743a206e6f742072656164795374616b696e6752657761726473466163746f72793a3a6e6f74696679526577617264416d6f756e743a206e6f74206465706c6f796564a265627a7a723158202c98d0d83e2ca4ba7f0996b7153407bee9f0e73c0fd19d7c7e4ecf1ff1a7456664736f6c634300051000325374616b696e6752657761726473466163746f72793a3a636f6e7374727563746f723a2067656e6573697320746f6f20736f6f6e",
					"opcodes": "PUSH1 0x80 PUSH1 0x40 MSTORE CALLVALUE DUP1 ISZERO PUSH2 0x10 JUMPI PUSH1 0x0 DUP1 REVERT JUMPDEST POP PUSH1 0x40 MLOAD PUSH2 0x38BD CODESIZE SUB DUP1 PUSH2 0x38BD DUP4 CODECOPY DUP2 DUP2 ADD PUSH1 0x40 MSTORE PUSH1 0x40 DUP2 LT ISZERO PUSH2 0x33 JUMPI PUSH1 0x0 DUP1 REVERT JUMPDEST DUP2 ADD SWAP1 DUP1 DUP1 MLOAD SWAP1 PUSH1 0x20 ADD SWAP1 SWAP3 SWAP2 SWAP1 DUP1 MLOAD SWAP1 PUSH1 0x20 ADD SWAP1 SWAP3 SWAP2 SWAP1 POP POP POP CALLER PUSH1 0x0 DUP1 PUSH2 0x100 EXP DUP2 SLOAD DUP2 PUSH20 0xFFFFFFFFFFFFFFFFFFFFFFFFFFFFFFFFFFFFFFFF MUL NOT AND SWAP1 DUP4 PUSH20 0xFFFFFFFFFFFFFFFFFFFFFFFFFFFFFFFFFFFFFFFF AND MUL OR SWAP1 SSTORE POP PUSH1 0x0 DUP1 SWAP1 SLOAD SWAP1 PUSH2 0x100 EXP SWAP1 DIV PUSH20 0xFFFFFFFFFFFFFFFFFFFFFFFFFFFFFFFFFFFFFFFF AND PUSH20 0xFFFFFFFFFFFFFFFFFFFFFFFFFFFFFFFFFFFFFFFF AND PUSH1 0x0 PUSH20 0xFFFFFFFFFFFFFFFFFFFFFFFFFFFFFFFFFFFFFFFF AND PUSH32 0x8BE0079C531659141344CD1FD0A4F28419497F9722A3DAAFE3B4186F6B6457E0 PUSH1 0x40 MLOAD PUSH1 0x40 MLOAD DUP1 SWAP2 SUB SWAP1 LOG3 TIMESTAMP DUP2 LT ISZERO PUSH2 0x163 JUMPI PUSH1 0x40 MLOAD PUSH32 0x8C379A000000000000000000000000000000000000000000000000000000000 DUP2 MSTORE PUSH1 0x4 ADD DUP1 DUP1 PUSH1 0x20 ADD DUP3 DUP2 SUB DUP3 MSTORE PUSH1 0x34 DUP2 MSTORE PUSH1 0x20 ADD DUP1 PUSH2 0x3889 PUSH1 0x34 SWAP2 CODECOPY PUSH1 0x40 ADD SWAP2 POP POP PUSH1 0x40 MLOAD DUP1 SWAP2 SUB SWAP1 REVERT JUMPDEST DUP2 PUSH1 0x1 PUSH1 0x0 PUSH2 0x100 EXP DUP2 SLOAD DUP2 PUSH20 0xFFFFFFFFFFFFFFFFFFFFFFFFFFFFFFFFFFFFFFFF MUL NOT AND SWAP1 DUP4 PUSH20 0xFFFFFFFFFFFFFFFFFFFFFFFFFFFFFFFFFFFFFFFF AND MUL OR SWAP1 SSTORE POP DUP1 PUSH1 0x2 DUP2 SWAP1 SSTORE POP POP POP PUSH2 0x36CD DUP1 PUSH2 0x1BC PUSH1 0x0 CODECOPY PUSH1 0x0 RETURN INVALID PUSH1 0x80 PUSH1 0x40 MSTORE CALLVALUE DUP1 ISZERO PUSH2 0x10 JUMPI PUSH1 0x0 DUP1 REVERT JUMPDEST POP PUSH1 0x4 CALLDATASIZE LT PUSH2 0xCF JUMPI PUSH1 0x0 CALLDATALOAD PUSH1 0xE0 SHR DUP1 PUSH4 0x8F32D59B GT PUSH2 0x8C JUMPI DUP1 PUSH4 0xCFDA5478 GT PUSH2 0x66 JUMPI DUP1 PUSH4 0xCFDA5478 EQ PUSH2 0x304 JUMPI DUP1 PUSH4 0xD09B6D43 EQ PUSH2 0x35C JUMPI DUP1 PUSH4 0xD1AF0C7D EQ PUSH2 0x3B4 JUMPI DUP1 PUSH4 0xF2FDE38B EQ PUSH2 0x3FE JUMPI PUSH2 0xCF JUMP JUMPDEST DUP1 PUSH4 0x8F32D59B EQ PUSH2 0x2BA JUMPI DUP1 PUSH4 0xA0928C11 EQ PUSH2 0x2DC JUMPI DUP1 PUSH4 0xAE741D8D EQ PUSH2 0x2FA JUMPI PUSH2 0xCF JUMP JUMPDEST DUP1 PUSH4 0x344E5E34 EQ PUSH2 0xD4 JUMPI DUP1 PUSH4 0x6CF8CAF8 EQ PUSH2 0x142 JUMPI DUP1 PUSH4 0x715018A6 EQ PUSH2 0x1D4 JUMPI DUP1 PUSH4 0x7572719E EQ PUSH2 0x1DE JUMPI DUP1 PUSH4 0x81E16298 EQ PUSH2 0x22C JUMPI DUP1 PUSH4 0x8DA5CB5B EQ PUSH2 0x270 JUMPI JUMPDEST PUSH1 0x0 DUP1 REVERT JUMPDEST PUSH2 0x100 PUSH1 0x4 DUP1 CALLDATASIZE SUB PUSH1 0x20 DUP2 LT ISZERO PUSH2 0xEA JUMPI PUSH1 0x0 DUP1 REVERT JUMPDEST DUP2 ADD SWAP1 DUP1 DUP1 CALLDATALOAD SWAP1 PUSH1 0x20 ADD SWAP1 SWAP3 SWAP2 SWAP1 POP POP POP PUSH2 0x442 JUMP JUMPDEST PUSH1 0x40 MLOAD DUP1 DUP3 PUSH20 0xFFFFFFFFFFFFFFFFFFFFFFFFFFFFFFFFFFFFFFFF AND PUSH20 0xFFFFFFFFFFFFFFFFFFFFFFFFFFFFFFFFFFFFFFFF AND DUP2 MSTORE PUSH1 0x20 ADD SWAP2 POP POP PUSH1 0x40 MLOAD DUP1 SWAP2 SUB SWAP1 RETURN JUMPDEST PUSH2 0x184 PUSH1 0x4 DUP1 CALLDATASIZE SUB PUSH1 0x20 DUP2 LT ISZERO PUSH2 0x158 JUMPI PUSH1 0x0 DUP1 REVERT JUMPDEST DUP2 ADD SWAP1 DUP1 DUP1 CALLDATALOAD PUSH20 0xFFFFFFFFFFFFFFFFFFFFFFFFFFFFFFFFFFFFFFFF AND SWAP1 PUSH1 0x20 ADD SWAP1 SWAP3 SWAP2 SWAP1 POP POP POP PUSH2 0x47E JUMP JUMPDEST PUSH1 0x40 MLOAD DUP1 DUP5 PUSH20 0xFFFFFFFFFFFFFFFFFFFFFFFFFFFFFFFFFFFFFFFF AND PUSH20 0xFFFFFFFFFFFFFFFFFFFFFFFFFFFFFFFFFFFFFFFF AND DUP2 MSTORE PUSH1 0x20 ADD DUP4 DUP2 MSTORE PUSH1 0x20 ADD DUP3 DUP2 MSTORE PUSH1 0x20 ADD SWAP4 POP POP POP POP PUSH1 0x40 MLOAD DUP1 SWAP2 SUB SWAP1 RETURN JUMPDEST PUSH2 0x1DC PUSH2 0x4C8 JUMP JUMPDEST STOP JUMPDEST PUSH2 0x22A PUSH1 0x4 DUP1 CALLDATASIZE SUB PUSH1 0x40 DUP2 LT ISZERO PUSH2 0x1F4 JUMPI PUSH1 0x0 DUP1 REVERT JUMPDEST DUP2 ADD SWAP1 DUP1 DUP1 CALLDATALOAD PUSH20 0xFFFFFFFFFFFFFFFFFFFFFFFFFFFFFFFFFFFFFFFF AND SWAP1 PUSH1 0x20 ADD SWAP1 SWAP3 SWAP2 SWAP1 DUP1 CALLDATALOAD SWAP1 PUSH1 0x20 ADD SWAP1 SWAP3 SWAP2 SWAP1 POP POP POP PUSH2 0x601 JUMP JUMPDEST STOP JUMPDEST PUSH2 0x26E PUSH1 0x4 DUP1 CALLDATASIZE SUB PUSH1 0x20 DUP2 LT ISZERO PUSH2 0x242 JUMPI PUSH1 0x0 DUP1 REVERT JUMPDEST DUP2 ADD SWAP1 DUP1 DUP1 CALLDATALOAD PUSH20 0xFFFFFFFFFFFFFFFFFFFFFFFFFFFFFFFFFFFFFFFF AND SWAP1 PUSH1 0x20 ADD SWAP1 SWAP3 SWAP2 SWAP1 POP POP POP PUSH2 0x742 JUMP JUMPDEST STOP JUMPDEST PUSH2 0x278 PUSH2 0xAC8 JUMP JUMPDEST PUSH1 0x40 MLOAD DUP1 DUP3 PUSH20 0xFFFFFFFFFFFFFFFFFFFFFFFFFFFFFFFFFFFFFFFF AND PUSH20 0xFFFFFFFFFFFFFFFFFFFFFFFFFFFFFFFFFFFFFFFF AND DUP2 MSTORE PUSH1 0x20 ADD SWAP2 POP POP PUSH1 0x40 MLOAD DUP1 SWAP2 SUB SWAP1 RETURN JUMPDEST PUSH2 0x2C2 PUSH2 0xAF1 JUMP JUMPDEST PUSH1 0x40 MLOAD DUP1 DUP3 ISZERO ISZERO ISZERO ISZERO DUP2 MSTORE PUSH1 0x20 ADD SWAP2 POP POP PUSH1 0x40 MLOAD DUP1 SWAP2 SUB SWAP1 RETURN JUMPDEST PUSH2 0x2E4 PUSH2 0xB48 JUMP JUMPDEST PUSH1 0x40 MLOAD DUP1 DUP3 DUP2 MSTORE PUSH1 0x20 ADD SWAP2 POP POP PUSH1 0x40 MLOAD DUP1 SWAP2 SUB SWAP1 RETURN JUMPDEST PUSH2 0x302 PUSH2 0xB4E JUMP JUMPDEST STOP JUMPDEST PUSH2 0x35A PUSH1 0x4 DUP1 CALLDATASIZE SUB PUSH1 0x60 DUP2 LT ISZERO PUSH2 0x31A JUMPI PUSH1 0x0 DUP1 REVERT JUMPDEST DUP2 ADD SWAP1 DUP1 DUP1 CALLDATALOAD PUSH20 0xFFFFFFFFFFFFFFFFFFFFFFFFFFFFFFFFFFFFFFFF AND SWAP1 PUSH1 0x20 ADD SWAP1 SWAP3 SWAP2 SWAP1 DUP1 CALLDATALOAD SWAP1 PUSH1 0x20 ADD SWAP1 SWAP3 SWAP2 SWAP1 DUP1 CALLDATALOAD SWAP1 PUSH1 0x20 ADD SWAP1 SWAP3 SWAP2 SWAP1 POP POP POP PUSH2 0xC0F JUMP JUMPDEST STOP JUMPDEST PUSH2 0x3B2 PUSH1 0x4 DUP1 CALLDATASIZE SUB PUSH1 0x60 DUP2 LT ISZERO PUSH2 0x372 JUMPI PUSH1 0x0 DUP1 REVERT JUMPDEST DUP2 ADD SWAP1 DUP1 DUP1 CALLDATALOAD PUSH20 0xFFFFFFFFFFFFFFFFFFFFFFFFFFFFFFFFFFFFFFFF AND SWAP1 PUSH1 0x20 ADD SWAP1 SWAP3 SWAP2 SWAP1 DUP1 CALLDATALOAD SWAP1 PUSH1 0x20 ADD SWAP1 SWAP3 SWAP2 SWAP1 DUP1 CALLDATALOAD SWAP1 PUSH1 0x20 ADD SWAP1 SWAP3 SWAP2 SWAP1 POP POP POP PUSH2 0xF1F JUMP JUMPDEST STOP JUMPDEST PUSH2 0x3BC PUSH2 0x109E JUMP JUMPDEST PUSH1 0x40 MLOAD DUP1 DUP3 PUSH20 0xFFFFFFFFFFFFFFFFFFFFFFFFFFFFFFFFFFFFFFFF AND PUSH20 0xFFFFFFFFFFFFFFFFFFFFFFFFFFFFFFFFFFFFFFFF AND DUP2 MSTORE PUSH1 0x20 ADD SWAP2 POP POP PUSH1 0x40 MLOAD DUP1 SWAP2 SUB SWAP1 RETURN JUMPDEST PUSH2 0x440 PUSH1 0x4 DUP1 CALLDATASIZE SUB PUSH1 0x20 DUP2 LT ISZERO PUSH2 0x414 JUMPI PUSH1 0x0 DUP1 REVERT JUMPDEST DUP2 ADD SWAP1 DUP1 DUP1 CALLDATALOAD PUSH20 0xFFFFFFFFFFFFFFFFFFFFFFFFFFFFFFFFFFFFFFFF AND SWAP1 PUSH1 0x20 ADD SWAP1 SWAP3 SWAP2 SWAP1 POP POP POP PUSH2 0x10C4 JUMP JUMPDEST STOP JUMPDEST PUSH1 0x3 DUP2 DUP2 SLOAD DUP2 LT PUSH2 0x44F JUMPI INVALID JUMPDEST SWAP1 PUSH1 0x0 MSTORE PUSH1 0x20 PUSH1 0x0 KECCAK256 ADD PUSH1 0x0 SWAP2 POP SLOAD SWAP1 PUSH2 0x100 EXP SWAP1 DIV PUSH20 0xFFFFFFFFFFFFFFFFFFFFFFFFFFFFFFFFFFFFFFFF AND DUP2 JUMP JUMPDEST PUSH1 0x4 PUSH1 0x20 MSTORE DUP1 PUSH1 0x0 MSTORE PUSH1 0x40 PUSH1 0x0 KECCAK256 PUSH1 0x0 SWAP2 POP SWAP1 POP DUP1 PUSH1 0x0 ADD PUSH1 0x0 SWAP1 SLOAD SWAP1 PUSH2 0x100 EXP SWAP1 DIV PUSH20 0xFFFFFFFFFFFFFFFFFFFFFFFFFFFFFFFFFFFFFFFF AND SWAP1 DUP1 PUSH1 0x1 ADD SLOAD SWAP1 DUP1 PUSH1 0x2 ADD SLOAD SWAP1 POP DUP4 JUMP JUMPDEST PUSH2 0x4D0 PUSH2 0xAF1 JUMP JUMPDEST PUSH2 0x542 JUMPI PUSH1 0x40 MLOAD PUSH32 0x8C379A000000000000000000000000000000000000000000000000000000000 DUP2 MSTORE PUSH1 0x4 ADD DUP1 DUP1 PUSH1 0x20 ADD DUP3 DUP2 SUB DUP3 MSTORE PUSH1 0x20 DUP2 MSTORE PUSH1 0x20 ADD DUP1 PUSH32 0x4F776E61626C653A2063616C6C6572206973206E6F7420746865206F776E6572 DUP2 MSTORE POP PUSH1 0x20 ADD SWAP2 POP POP PUSH1 0x40 MLOAD DUP1 SWAP2 SUB SWAP1 REVERT JUMPDEST PUSH1 0x0 PUSH20 0xFFFFFFFFFFFFFFFFFFFFFFFFFFFFFFFFFFFFFFFF AND PUSH1 0x0 DUP1 SWAP1 SLOAD SWAP1 PUSH2 0x100 EXP SWAP1 DIV PUSH20 0xFFFFFFFFFFFFFFFFFFFFFFFFFFFFFFFFFFFFFFFF AND PUSH20 0xFFFFFFFFFFFFFFFFFFFFFFFFFFFFFFFFFFFFFFFF AND PUSH32 0x8BE0079C531659141344CD1FD0A4F28419497F9722A3DAAFE3B4186F6B6457E0 PUSH1 0x40 MLOAD PUSH1 0x40 MLOAD DUP1 SWAP2 SUB SWAP1 LOG3 PUSH1 0x0 DUP1 PUSH1 0x0 PUSH2 0x100 EXP DUP2 SLOAD DUP2 PUSH20 0xFFFFFFFFFFFFFFFFFFFFFFFFFFFFFFFFFFFFFFFF MUL NOT AND SWAP1 DUP4 PUSH20 0xFFFFFFFFFFFFFFFFFFFFFFFFFFFFFFFFFFFFFFFF AND MUL OR SWAP1 SSTORE POP JUMP JUMPDEST PUSH2 0x609 PUSH2 0xAF1 JUMP JUMPDEST PUSH2 0x67B JUMPI PUSH1 0x40 MLOAD PUSH32 0x8C379A000000000000000000000000000000000000000000000000000000000 DUP2 MSTORE PUSH1 0x4 ADD DUP1 DUP1 PUSH1 0x20 ADD DUP3 DUP2 SUB DUP3 MSTORE PUSH1 0x20 DUP2 MSTORE PUSH1 0x20 ADD DUP1 PUSH32 0x4F776E61626C653A2063616C6C6572206973206E6F7420746865206F776E6572 DUP2 MSTORE POP PUSH1 0x20 ADD SWAP2 POP POP PUSH1 0x40 MLOAD DUP1 SWAP2 SUB SWAP1 REVERT JUMPDEST DUP2 PUSH20 0xFFFFFFFFFFFFFFFFFFFFFFFFFFFFFFFFFFFFFFFF AND PUSH4 0xA9059CBB CALLER DUP4 PUSH1 0x40 MLOAD DUP4 PUSH4 0xFFFFFFFF AND PUSH1 0xE0 SHL DUP2 MSTORE PUSH1 0x4 ADD DUP1 DUP4 PUSH20 0xFFFFFFFFFFFFFFFFFFFFFFFFFFFFFFFFFFFFFFFF AND PUSH20 0xFFFFFFFFFFFFFFFFFFFFFFFFFFFFFFFFFFFFFFFF AND DUP2 MSTORE PUSH1 0x20 ADD DUP3 DUP2 MSTORE PUSH1 0x20 ADD SWAP3 POP POP POP PUSH1 0x20 PUSH1 0x40 MLOAD DUP1 DUP4 SUB DUP2 PUSH1 0x0 DUP8 DUP1 EXTCODESIZE ISZERO DUP1 ISZERO PUSH2 0x702 JUMPI PUSH1 0x0 DUP1 REVERT JUMPDEST POP GAS CALL ISZERO DUP1 ISZERO PUSH2 0x716 JUMPI RETURNDATASIZE PUSH1 0x0 DUP1 RETURNDATACOPY RETURNDATASIZE PUSH1 0x0 REVERT JUMPDEST POP POP POP POP PUSH1 0x40 MLOAD RETURNDATASIZE PUSH1 0x20 DUP2 LT ISZERO PUSH2 0x72C JUMPI PUSH1 0x0 DUP1 REVERT JUMPDEST DUP2 ADD SWAP1 DUP1 DUP1 MLOAD SWAP1 PUSH1 0x20 ADD SWAP1 SWAP3 SWAP2 SWAP1 POP POP POP POP POP POP JUMP JUMPDEST PUSH1 0x2 SLOAD TIMESTAMP LT ISZERO PUSH2 0x79D JUMPI PUSH1 0x40 MLOAD PUSH32 0x8C379A000000000000000000000000000000000000000000000000000000000 DUP2 MSTORE PUSH1 0x4 ADD DUP1 DUP1 PUSH1 0x20 ADD DUP3 DUP2 SUB DUP3 MSTORE PUSH1 0x34 DUP2 MSTORE PUSH1 0x20 ADD DUP1 PUSH2 0x362E PUSH1 0x34 SWAP2 CODECOPY PUSH1 0x40 ADD SWAP2 POP POP PUSH1 0x40 MLOAD DUP1 SWAP2 SUB SWAP1 REVERT JUMPDEST PUSH1 0x0 PUSH1 0x4 PUSH1 0x0 DUP4 PUSH20 0xFFFFFFFFFFFFFFFFFFFFFFFFFFFFFFFFFFFFFFFF AND PUSH20 0xFFFFFFFFFFFFFFFFFFFFFFFFFFFFFFFFFFFFFFFF AND DUP2 MSTORE PUSH1 0x20 ADD SWAP1 DUP2 MSTORE PUSH1 0x20 ADD PUSH1 0x0 KECCAK256 SWAP1 POP PUSH1 0x0 PUSH20 0xFFFFFFFFFFFFFFFFFFFFFFFFFFFFFFFFFFFFFFFF AND DUP2 PUSH1 0x0 ADD PUSH1 0x0 SWAP1 SLOAD SWAP1 PUSH2 0x100 EXP SWAP1 DIV PUSH20 0xFFFFFFFFFFFFFFFFFFFFFFFFFFFFFFFFFFFFFFFF AND PUSH20 0xFFFFFFFFFFFFFFFFFFFFFFFFFFFFFFFFFFFFFFFF AND EQ ISZERO PUSH2 0x88A JUMPI PUSH1 0x40 MLOAD PUSH32 0x8C379A000000000000000000000000000000000000000000000000000000000 DUP2 MSTORE PUSH1 0x4 ADD DUP1 DUP1 PUSH1 0x20 ADD DUP3 DUP2 SUB DUP3 MSTORE PUSH1 0x37 DUP2 MSTORE PUSH1 0x20 ADD DUP1 PUSH2 0x3662 PUSH1 0x37 SWAP2 CODECOPY PUSH1 0x40 ADD SWAP2 POP POP PUSH1 0x40 MLOAD DUP1 SWAP2 SUB SWAP1 REVERT JUMPDEST PUSH1 0x0 DUP2 PUSH1 0x1 ADD SLOAD GT DUP1 ISZERO PUSH2 0x8A2 JUMPI POP PUSH1 0x0 DUP2 PUSH1 0x2 ADD SLOAD GT JUMPDEST ISZERO PUSH2 0xAC4 JUMPI PUSH1 0x0 DUP2 PUSH1 0x1 ADD SLOAD SWAP1 POP PUSH1 0x0 DUP3 PUSH1 0x2 ADD SLOAD SWAP1 POP PUSH1 0x0 DUP4 PUSH1 0x1 ADD DUP2 SWAP1 SSTORE POP PUSH1 0x0 DUP4 PUSH1 0x2 ADD DUP2 SWAP1 SSTORE POP PUSH1 0x1 PUSH1 0x0 SWAP1 SLOAD SWAP1 PUSH2 0x100 EXP SWAP1 DIV PUSH20 0xFFFFFFFFFFFFFFFFFFFFFFFFFFFFFFFFFFFFFFFF AND PUSH20 0xFFFFFFFFFFFFFFFFFFFFFFFFFFFFFFFFFFFFFFFF AND PUSH4 0xA9059CBB DUP5 PUSH1 0x0 ADD PUSH1 0x0 SWAP1 SLOAD SWAP1 PUSH2 0x100 EXP SWAP1 DIV PUSH20 0xFFFFFFFFFFFFFFFFFFFFFFFFFFFFFFFFFFFFFFFF AND DUP5 PUSH1 0x40 MLOAD DUP4 PUSH4 0xFFFFFFFF AND PUSH1 0xE0 SHL DUP2 MSTORE PUSH1 0x4 ADD DUP1 DUP4 PUSH20 0xFFFFFFFFFFFFFFFFFFFFFFFFFFFFFFFFFFFFFFFF AND PUSH20 0xFFFFFFFFFFFFFFFFFFFFFFFFFFFFFFFFFFFFFFFF AND DUP2 MSTORE PUSH1 0x20 ADD DUP3 DUP2 MSTORE PUSH1 0x20 ADD SWAP3 POP POP POP PUSH1 0x20 PUSH1 0x40 MLOAD DUP1 DUP4 SUB DUP2 PUSH1 0x0 DUP8 DUP1 EXTCODESIZE ISZERO DUP1 ISZERO PUSH2 0x99A JUMPI PUSH1 0x0 DUP1 REVERT JUMPDEST POP GAS CALL ISZERO DUP1 ISZERO PUSH2 0x9AE JUMPI RETURNDATASIZE PUSH1 0x0 DUP1 RETURNDATACOPY RETURNDATASIZE PUSH1 0x0 REVERT JUMPDEST POP POP POP POP PUSH1 0x40 MLOAD RETURNDATASIZE PUSH1 0x20 DUP2 LT ISZERO PUSH2 0x9C4 JUMPI PUSH1 0x0 DUP1 REVERT JUMPDEST DUP2 ADD SWAP1 DUP1 DUP1 MLOAD SWAP1 PUSH1 0x20 ADD SWAP1 SWAP3 SWAP2 SWAP1 POP POP POP PUSH2 0xA2A JUMPI PUSH1 0x40 MLOAD PUSH32 0x8C379A000000000000000000000000000000000000000000000000000000000 DUP2 MSTORE PUSH1 0x4 ADD DUP1 DUP1 PUSH1 0x20 ADD DUP3 DUP2 SUB DUP3 MSTORE PUSH1 0x3A DUP2 MSTORE PUSH1 0x20 ADD DUP1 PUSH2 0x35F4 PUSH1 0x3A SWAP2 CODECOPY PUSH1 0x40 ADD SWAP2 POP POP PUSH1 0x40 MLOAD DUP1 SWAP2 SUB SWAP1 REVERT JUMPDEST DUP3 PUSH1 0x0 ADD PUSH1 0x0 SWAP1 SLOAD SWAP1 PUSH2 0x100 EXP SWAP1 DIV PUSH20 0xFFFFFFFFFFFFFFFFFFFFFFFFFFFFFFFFFFFFFFFF AND PUSH20 0xFFFFFFFFFFFFFFFFFFFFFFFFFFFFFFFFFFFFFFFF AND PUSH4 0x246132F9 DUP4 DUP4 PUSH1 0x40 MLOAD DUP4 PUSH4 0xFFFFFFFF AND PUSH1 0xE0 SHL DUP2 MSTORE PUSH1 0x4 ADD DUP1 DUP4 DUP2 MSTORE PUSH1 0x20 ADD DUP3 DUP2 MSTORE PUSH1 0x20 ADD SWAP3 POP POP POP PUSH1 0x0 PUSH1 0x40 MLOAD DUP1 DUP4 SUB DUP2 PUSH1 0x0 DUP8 DUP1 EXTCODESIZE ISZERO DUP1 ISZERO PUSH2 0xAA9 JUMPI PUSH1 0x0 DUP1 REVERT JUMPDEST POP GAS CALL ISZERO DUP1 ISZERO PUSH2 0xABD JUMPI RETURNDATASIZE PUSH1 0x0 DUP1 RETURNDATACOPY RETURNDATASIZE PUSH1 0x0 REVERT JUMPDEST POP POP POP POP POP POP JUMPDEST POP POP JUMP JUMPDEST PUSH1 0x0 DUP1 PUSH1 0x0 SWAP1 SLOAD SWAP1 PUSH2 0x100 EXP SWAP1 DIV PUSH20 0xFFFFFFFFFFFFFFFFFFFFFFFFFFFFFFFFFFFFFFFF AND SWAP1 POP SWAP1 JUMP JUMPDEST PUSH1 0x0 DUP1 PUSH1 0x0 SWAP1 SLOAD SWAP1 PUSH2 0x100 EXP SWAP1 DIV PUSH20 0xFFFFFFFFFFFFFFFFFFFFFFFFFFFFFFFFFFFFFFFF AND PUSH20 0xFFFFFFFFFFFFFFFFFFFFFFFFFFFFFFFFFFFFFFFF AND CALLER PUSH20 0xFFFFFFFFFFFFFFFFFFFFFFFFFFFFFFFFFFFFFFFF AND EQ SWAP1 POP SWAP1 JUMP JUMPDEST PUSH1 0x2 SLOAD DUP2 JUMP JUMPDEST PUSH1 0x0 PUSH1 0x3 DUP1 SLOAD SWAP1 POP GT PUSH2 0xBAC JUMPI PUSH1 0x40 MLOAD PUSH32 0x8C379A000000000000000000000000000000000000000000000000000000000 DUP2 MSTORE PUSH1 0x4 ADD DUP1 DUP1 PUSH1 0x20 ADD DUP3 DUP2 SUB DUP3 MSTORE PUSH1 0x45 DUP2 MSTORE PUSH1 0x20 ADD DUP1 PUSH2 0x35AF PUSH1 0x45 SWAP2 CODECOPY PUSH1 0x60 ADD SWAP2 POP POP PUSH1 0x40 MLOAD DUP1 SWAP2 SUB SWAP1 REVERT JUMPDEST PUSH1 0x0 DUP1 SWAP1 POP JUMPDEST PUSH1 0x3 DUP1 SLOAD SWAP1 POP DUP2 LT ISZERO PUSH2 0xC0C JUMPI PUSH2 0xBFF PUSH1 0x3 DUP3 DUP2 SLOAD DUP2 LT PUSH2 0xBCF JUMPI INVALID JUMPDEST SWAP1 PUSH1 0x0 MSTORE PUSH1 0x20 PUSH1 0x0 KECCAK256 ADD PUSH1 0x0 SWAP1 SLOAD SWAP1 PUSH2 0x100 EXP SWAP1 DIV PUSH20 0xFFFFFFFFFFFFFFFFFFFFFFFFFFFFFFFFFFFFFFFF AND PUSH2 0x742 JUMP JUMPDEST DUP1 DUP1 PUSH1 0x1 ADD SWAP2 POP POP PUSH2 0xBB2 JUMP JUMPDEST POP JUMP JUMPDEST PUSH2 0xC17 PUSH2 0xAF1 JUMP JUMPDEST PUSH2 0xC89 JUMPI PUSH1 0x40 MLOAD PUSH32 0x8C379A000000000000000000000000000000000000000000000000000000000 DUP2 MSTORE PUSH1 0x4 ADD DUP1 DUP1 PUSH1 0x20 ADD DUP3 DUP2 SUB DUP3 MSTORE PUSH1 0x20 DUP2 MSTORE PUSH1 0x20 ADD DUP1 PUSH32 0x4F776E61626C653A2063616C6C6572206973206E6F7420746865206F776E6572 DUP2 MSTORE POP PUSH1 0x20 ADD SWAP2 POP POP PUSH1 0x40 MLOAD DUP1 SWAP2 SUB SWAP1 REVERT JUMPDEST PUSH1 0x0 PUSH1 0x4 PUSH1 0x0 DUP6 PUSH20 0xFFFFFFFFFFFFFFFFFFFFFFFFFFFFFFFFFFFFFFFF AND PUSH20 0xFFFFFFFFFFFFFFFFFFFFFFFFFFFFFFFFFFFFFFFF AND DUP2 MSTORE PUSH1 0x20 ADD SWAP1 DUP2 MSTORE PUSH1 0x20 ADD PUSH1 0x0 KECCAK256 SWAP1 POP PUSH1 0x0 PUSH20 0xFFFFFFFFFFFFFFFFFFFFFFFFFFFFFFFFFFFFFFFF AND DUP2 PUSH1 0x0 ADD PUSH1 0x0 SWAP1 SLOAD SWAP1 PUSH2 0x100 EXP SWAP1 DIV PUSH20 0xFFFFFFFFFFFFFFFFFFFFFFFFFFFFFFFFFFFFFFFF AND PUSH20 0xFFFFFFFFFFFFFFFFFFFFFFFFFFFFFFFFFFFFFFFF AND EQ PUSH2 0xD75 JUMPI PUSH1 0x40 MLOAD PUSH32 0x8C379A000000000000000000000000000000000000000000000000000000000 DUP2 MSTORE PUSH1 0x4 ADD DUP1 DUP1 PUSH1 0x20 ADD DUP3 DUP2 SUB DUP3 MSTORE PUSH1 0x2F DUP2 MSTORE PUSH1 0x20 ADD DUP1 PUSH2 0x3580 PUSH1 0x2F SWAP2 CODECOPY PUSH1 0x40 ADD SWAP2 POP POP PUSH1 0x40 MLOAD DUP1 SWAP2 SUB SWAP1 REVERT JUMPDEST ADDRESS PUSH1 0x1 PUSH1 0x0 SWAP1 SLOAD SWAP1 PUSH2 0x100 EXP SWAP1 DIV PUSH20 0xFFFFFFFFFFFFFFFFFFFFFFFFFFFFFFFFFFFFFFFF AND DUP6 PUSH1 0x40 MLOAD PUSH2 0xDA6 SWAP1 PUSH2 0x128E JUMP JUMPDEST DUP1 DUP5 PUSH20 0xFFFFFFFFFFFFFFFFFFFFFFFFFFFFFFFFFFFFFFFF AND PUSH20 0xFFFFFFFFFFFFFFFFFFFFFFFFFFFFFFFFFFFFFFFF AND DUP2 MSTORE PUSH1 0x20 ADD DUP4 PUSH20 0xFFFFFFFFFFFFFFFFFFFFFFFFFFFFFFFFFFFFFFFF AND PUSH20 0xFFFFFFFFFFFFFFFFFFFFFFFFFFFFFFFFFFFFFFFF AND DUP2 MSTORE PUSH1 0x20 ADD DUP3 PUSH20 0xFFFFFFFFFFFFFFFFFFFFFFFFFFFFFFFFFFFFFFFF AND PUSH20 0xFFFFFFFFFFFFFFFFFFFFFFFFFFFFFFFFFFFFFFFF AND DUP2 MSTORE PUSH1 0x20 ADD SWAP4 POP POP POP POP PUSH1 0x40 MLOAD DUP1 SWAP2 SUB SWAP1 PUSH1 0x0 CREATE DUP1 ISZERO DUP1 ISZERO PUSH2 0xE5E JUMPI RETURNDATASIZE PUSH1 0x0 DUP1 RETURNDATACOPY RETURNDATASIZE PUSH1 0x0 REVERT JUMPDEST POP DUP2 PUSH1 0x0 ADD PUSH1 0x0 PUSH2 0x100 EXP DUP2 SLOAD DUP2 PUSH20 0xFFFFFFFFFFFFFFFFFFFFFFFFFFFFFFFFFFFFFFFF MUL NOT AND SWAP1 DUP4 PUSH20 0xFFFFFFFFFFFFFFFFFFFFFFFFFFFFFFFFFFFFFFFF AND MUL OR SWAP1 SSTORE POP DUP3 DUP2 PUSH1 0x1 ADD DUP2 SWAP1 SSTORE POP DUP2 DUP2 PUSH1 0x2 ADD DUP2 SWAP1 SSTORE POP PUSH1 0x3 DUP5 SWAP1 DUP1 PUSH1 0x1 DUP2 SLOAD ADD DUP1 DUP3 SSTORE DUP1 SWAP2 POP POP SWAP1 PUSH1 0x1 DUP3 SUB SWAP1 PUSH1 0x0 MSTORE PUSH1 0x20 PUSH1 0x0 KECCAK256 ADD PUSH1 0x0 SWAP1 SWAP2 SWAP3 SWAP1 SWAP2 SWAP1 SWAP2 PUSH2 0x100 EXP DUP2 SLOAD DUP2 PUSH20 0xFFFFFFFFFFFFFFFFFFFFFFFFFFFFFFFFFFFFFFFF MUL NOT AND SWAP1 DUP4 PUSH20 0xFFFFFFFFFFFFFFFFFFFFFFFFFFFFFFFFFFFFFFFF AND MUL OR SWAP1 SSTORE POP POP POP POP POP POP JUMP JUMPDEST PUSH2 0xF27 PUSH2 0xAF1 JUMP JUMPDEST PUSH2 0xF99 JUMPI PUSH1 0x40 MLOAD PUSH32 0x8C379A000000000000000000000000000000000000000000000000000000000 DUP2 MSTORE PUSH1 0x4 ADD DUP1 DUP1 PUSH1 0x20 ADD DUP3 DUP2 SUB DUP3 MSTORE PUSH1 0x20 DUP2 MSTORE PUSH1 0x20 ADD DUP1 PUSH32 0x4F776E61626C653A2063616C6C6572206973206E6F7420746865206F776E6572 DUP2 MSTORE POP PUSH1 0x20 ADD SWAP2 POP POP PUSH1 0x40 MLOAD DUP1 SWAP2 SUB SWAP1 REVERT JUMPDEST PUSH1 0x0 PUSH1 0x4 PUSH1 0x0 DUP6 PUSH20 0xFFFFFFFFFFFFFFFFFFFFFFFFFFFFFFFFFFFFFFFF AND PUSH20 0xFFFFFFFFFFFFFFFFFFFFFFFFFFFFFFFFFFFFFFFF AND DUP2 MSTORE PUSH1 0x20 ADD SWAP1 DUP2 MSTORE PUSH1 0x20 ADD PUSH1 0x0 KECCAK256 SWAP1 POP PUSH1 0x0 PUSH20 0xFFFFFFFFFFFFFFFFFFFFFFFFFFFFFFFFFFFFFFFF AND DUP2 PUSH1 0x0 ADD PUSH1 0x0 SWAP1 SLOAD SWAP1 PUSH2 0x100 EXP SWAP1 DIV PUSH20 0xFFFFFFFFFFFFFFFFFFFFFFFFFFFFFFFFFFFFFFFF AND PUSH20 0xFFFFFFFFFFFFFFFFFFFFFFFFFFFFFFFFFFFFFFFF AND EQ ISZERO PUSH2 0x1086 JUMPI PUSH1 0x40 MLOAD PUSH32 0x8C379A000000000000000000000000000000000000000000000000000000000 DUP2 MSTORE PUSH1 0x4 ADD DUP1 DUP1 PUSH1 0x20 ADD DUP3 DUP2 SUB DUP3 MSTORE PUSH1 0x2B DUP2 MSTORE PUSH1 0x20 ADD DUP1 PUSH2 0x3555 PUSH1 0x2B SWAP2 CODECOPY PUSH1 0x40 ADD SWAP2 POP POP PUSH1 0x40 MLOAD DUP1 SWAP2 SUB SWAP1 REVERT JUMPDEST DUP3 DUP2 PUSH1 0x1 ADD DUP2 SWAP1 SSTORE POP DUP2 DUP2 PUSH1 0x2 ADD DUP2 SWAP1 SSTORE POP POP POP POP POP JUMP JUMPDEST PUSH1 0x1 PUSH1 0x0 SWAP1 SLOAD SWAP1 PUSH2 0x100 EXP SWAP1 DIV PUSH20 0xFFFFFFFFFFFFFFFFFFFFFFFFFFFFFFFFFFFFFFFF AND DUP2 JUMP JUMPDEST PUSH2 0x10CC PUSH2 0xAF1 JUMP JUMPDEST PUSH2 0x113E JUMPI PUSH1 0x40 MLOAD PUSH32 0x8C379A000000000000000000000000000000000000000000000000000000000 DUP2 MSTORE PUSH1 0x4 ADD DUP1 DUP1 PUSH1 0x20 ADD DUP3 DUP2 SUB DUP3 MSTORE PUSH1 0x20 DUP2 MSTORE PUSH1 0x20 ADD DUP1 PUSH32 0x4F776E61626C653A2063616C6C6572206973206E6F7420746865206F776E6572 DUP2 MSTORE POP PUSH1 0x20 ADD SWAP2 POP POP PUSH1 0x40 MLOAD DUP1 SWAP2 SUB SWAP1 REVERT JUMPDEST PUSH2 0x1147 DUP2 PUSH2 0x114A JUMP JUMPDEST POP JUMP JUMPDEST PUSH1 0x0 PUSH20 0xFFFFFFFFFFFFFFFFFFFFFFFFFFFFFFFFFFFFFFFF AND DUP2 PUSH20 0xFFFFFFFFFFFFFFFFFFFFFFFFFFFFFFFFFFFFFFFF AND EQ ISZERO PUSH2 0x11D0 JUMPI PUSH1 0x40 MLOAD PUSH32 0x8C379A000000000000000000000000000000000000000000000000000000000 DUP2 MSTORE PUSH1 0x4 ADD DUP1 DUP1 PUSH1 0x20 ADD DUP3 DUP2 SUB DUP3 MSTORE PUSH1 0x26 DUP2 MSTORE PUSH1 0x20 ADD DUP1 PUSH2 0x352F PUSH1 0x26 SWAP2 CODECOPY PUSH1 0x40 ADD SWAP2 POP POP PUSH1 0x40 MLOAD DUP1 SWAP2 SUB SWAP1 REVERT JUMPDEST DUP1 PUSH20 0xFFFFFFFFFFFFFFFFFFFFFFFFFFFFFFFFFFFFFFFF AND PUSH1 0x0 DUP1 SWAP1 SLOAD SWAP1 PUSH2 0x100 EXP SWAP1 DIV PUSH20 0xFFFFFFFFFFFFFFFFFFFFFFFFFFFFFFFFFFFFFFFF AND PUSH20 0xFFFFFFFFFFFFFFFFFFFFFFFFFFFFFFFFFFFFFFFF AND PUSH32 0x8BE0079C531659141344CD1FD0A4F28419497F9722A3DAAFE3B4186F6B6457E0 PUSH1 0x40 MLOAD PUSH1 0x40 MLOAD DUP1 SWAP2 SUB SWAP1 LOG3 DUP1 PUSH1 0x0 DUP1 PUSH2 0x100 EXP DUP2 SLOAD DUP2 PUSH20 0xFFFFFFFFFFFFFFFFFFFFFFFFFFFFFFFFFFFFFFFF MUL NOT AND SWAP1 DUP4 PUSH20 0xFFFFFFFFFFFFFFFFFFFFFFFFFFFFFFFFFFFFFFFF AND MUL OR SWAP1 SSTORE POP POP JUMP JUMPDEST PUSH2 0x2293 DUP1 PUSH2 0x129C DUP4 CODECOPY ADD SWAP1 JUMP INVALID PUSH1 0x80 PUSH1 0x40 MSTORE PUSH1 0x0 PUSH1 0x4 SSTORE PUSH1 0x0 PUSH1 0x5 SSTORE CALLVALUE DUP1 ISZERO PUSH2 0x1A JUMPI PUSH1 0x0 DUP1 REVERT JUMPDEST POP PUSH1 0x40 MLOAD PUSH2 0x2293 CODESIZE SUB DUP1 PUSH2 0x2293 DUP4 CODECOPY DUP2 DUP2 ADD PUSH1 0x40 MSTORE PUSH1 0x60 DUP2 LT ISZERO PUSH2 0x3D JUMPI PUSH1 0x0 DUP1 REVERT JUMPDEST DUP2 ADD SWAP1 DUP1 DUP1 MLOAD SWAP1 PUSH1 0x20 ADD SWAP1 SWAP3 SWAP2 SWAP1 DUP1 MLOAD SWAP1 PUSH1 0x20 ADD SWAP1 SWAP3 SWAP2 SWAP1 DUP1 MLOAD SWAP1 PUSH1 0x20 ADD SWAP1 SWAP3 SWAP2 SWAP1 POP POP POP PUSH1 0x1 DUP1 DUP2 SWAP1 SSTORE POP DUP2 PUSH1 0x2 PUSH1 0x0 PUSH2 0x100 EXP DUP2 SLOAD DUP2 PUSH20 0xFFFFFFFFFFFFFFFFFFFFFFFFFFFFFFFFFFFFFFFF MUL NOT AND SWAP1 DUP4 PUSH20 0xFFFFFFFFFFFFFFFFFFFFFFFFFFFFFFFFFFFFFFFF AND MUL OR SWAP1 SSTORE POP DUP1 PUSH1 0x3 PUSH1 0x0 PUSH2 0x100 EXP DUP2 SLOAD DUP2 PUSH20 0xFFFFFFFFFFFFFFFFFFFFFFFFFFFFFFFFFFFFFFFF MUL NOT AND SWAP1 DUP4 PUSH20 0xFFFFFFFFFFFFFFFFFFFFFFFFFFFFFFFFFFFFFFFF AND MUL OR SWAP1 SSTORE POP DUP3 PUSH1 0x0 DUP1 PUSH2 0x100 EXP DUP2 SLOAD DUP2 PUSH20 0xFFFFFFFFFFFFFFFFFFFFFFFFFFFFFFFFFFFFFFFF MUL NOT AND SWAP1 DUP4 PUSH20 0xFFFFFFFFFFFFFFFFFFFFFFFFFFFFFFFFFFFFFFFF AND MUL OR SWAP1 SSTORE POP POP POP POP PUSH2 0x2156 DUP1 PUSH2 0x13D PUSH1 0x0 CODECOPY PUSH1 0x0 RETURN INVALID PUSH1 0x80 PUSH1 0x40 MSTORE CALLVALUE DUP1 ISZERO PUSH2 0x10 JUMPI PUSH1 0x0 DUP1 REVERT JUMPDEST POP PUSH1 0x4 CALLDATASIZE LT PUSH2 0x12B JUMPI PUSH1 0x0 CALLDATALOAD PUSH1 0xE0 SHR DUP1 PUSH4 0x80FAA57D GT PUSH2 0xAD JUMPI DUP1 PUSH4 0xD1AF0C7D GT PUSH2 0x71 JUMPI DUP1 PUSH4 0xD1AF0C7D EQ PUSH2 0x458 JUMPI DUP1 PUSH4 0xDF136D65 EQ PUSH2 0x4A2 JUMPI DUP1 PUSH4 0xE9FAD8EE EQ PUSH2 0x4C0 JUMPI DUP1 PUSH4 0xEBE2B12B EQ PUSH2 0x4CA JUMPI DUP1 PUSH4 0xECD9BA82 EQ PUSH2 0x4E8 JUMPI PUSH2 0x12B JUMP JUMPDEST DUP1 PUSH4 0x80FAA57D EQ PUSH2 0x378 JUMPI DUP1 PUSH4 0x8B876347 EQ PUSH2 0x396 JUMPI DUP1 PUSH4 0xA694FC3A EQ PUSH2 0x3EE JUMPI DUP1 PUSH4 0xC8F33C91 EQ PUSH2 0x41C JUMPI DUP1 PUSH4 0xCD3DAF9D EQ PUSH2 0x43A JUMPI PUSH2 0x12B JUMP JUMPDEST DUP1 PUSH4 0x3D18B912 GT PUSH2 0xF4 JUMPI DUP1 PUSH4 0x3D18B912 EQ PUSH2 0x264 JUMPI DUP1 PUSH4 0x3FC6DF6E EQ PUSH2 0x26E JUMPI DUP1 PUSH4 0x70A08231 EQ PUSH2 0x2B8 JUMPI DUP1 PUSH4 0x72F702F3 EQ PUSH2 0x310 JUMPI DUP1 PUSH4 0x7B0A47EE EQ PUSH2 0x35A JUMPI PUSH2 0x12B JUMP JUMPDEST DUP1 PUSH3 0x8CC262 EQ PUSH2 0x130 JUMPI DUP1 PUSH4 0x700037D EQ PUSH2 0x188 JUMPI DUP1 PUSH4 0x18160DDD EQ PUSH2 0x1E0 JUMPI DUP1 PUSH4 0x246132F9 EQ PUSH2 0x1FE JUMPI DUP1 PUSH4 0x2E1A7D4D EQ PUSH2 0x236 JUMPI JUMPDEST PUSH1 0x0 DUP1 REVERT JUMPDEST PUSH2 0x172 PUSH1 0x4 DUP1 CALLDATASIZE SUB PUSH1 0x20 DUP2 LT ISZERO PUSH2 0x146 JUMPI PUSH1 0x0 DUP1 REVERT JUMPDEST DUP2 ADD SWAP1 DUP1 DUP1 CALLDATALOAD PUSH20 0xFFFFFFFFFFFFFFFFFFFFFFFFFFFFFFFFFFFFFFFF AND SWAP1 PUSH1 0x20 ADD SWAP1 SWAP3 SWAP2 SWAP1 POP POP POP PUSH2 0x541 JUMP JUMPDEST PUSH1 0x40 MLOAD DUP1 DUP3 DUP2 MSTORE PUSH1 0x20 ADD SWAP2 POP POP PUSH1 0x40 MLOAD DUP1 SWAP2 SUB SWAP1 RETURN JUMPDEST PUSH2 0x1CA PUSH1 0x4 DUP1 CALLDATASIZE SUB PUSH1 0x20 DUP2 LT ISZERO PUSH2 0x19E JUMPI PUSH1 0x0 DUP1 REVERT JUMPDEST DUP2 ADD SWAP1 DUP1 DUP1 CALLDATALOAD PUSH20 0xFFFFFFFFFFFFFFFFFFFFFFFFFFFFFFFFFFFFFFFF AND SWAP1 PUSH1 0x20 ADD SWAP1 SWAP3 SWAP2 SWAP1 POP POP POP PUSH2 0x65F JUMP JUMPDEST PUSH1 0x40 MLOAD DUP1 DUP3 DUP2 MSTORE PUSH1 0x20 ADD SWAP2 POP POP PUSH1 0x40 MLOAD DUP1 SWAP2 SUB SWAP1 RETURN JUMPDEST PUSH2 0x1E8 PUSH2 0x677 JUMP JUMPDEST PUSH1 0x40 MLOAD DUP1 DUP3 DUP2 MSTORE PUSH1 0x20 ADD SWAP2 POP POP PUSH1 0x40 MLOAD DUP1 SWAP2 SUB SWAP1 RETURN JUMPDEST PUSH2 0x234 PUSH1 0x4 DUP1 CALLDATASIZE SUB PUSH1 0x40 DUP2 LT ISZERO PUSH2 0x214 JUMPI PUSH1 0x0 DUP1 REVERT JUMPDEST DUP2 ADD SWAP1 DUP1 DUP1 CALLDATALOAD SWAP1 PUSH1 0x20 ADD SWAP1 SWAP3 SWAP2 SWAP1 DUP1 CALLDATALOAD SWAP1 PUSH1 0x20 ADD SWAP1 SWAP3 SWAP2 SWAP1 POP POP POP PUSH2 0x681 JUMP JUMPDEST STOP JUMPDEST PUSH2 0x262 PUSH1 0x4 DUP1 CALLDATASIZE SUB PUSH1 0x20 DUP2 LT ISZERO PUSH2 0x24C JUMPI PUSH1 0x0 DUP1 REVERT JUMPDEST DUP2 ADD SWAP1 DUP1 DUP1 CALLDATALOAD SWAP1 PUSH1 0x20 ADD SWAP1 SWAP3 SWAP2 SWAP1 POP POP POP PUSH2 0xAEB JUMP JUMPDEST STOP JUMPDEST PUSH2 0x26C PUSH2 0xE23 JUMP JUMPDEST STOP JUMPDEST PUSH2 0x276 PUSH2 0x10C8 JUMP JUMPDEST PUSH1 0x40 MLOAD DUP1 DUP3 PUSH20 0xFFFFFFFFFFFFFFFFFFFFFFFFFFFFFFFFFFFFFFFF AND PUSH20 0xFFFFFFFFFFFFFFFFFFFFFFFFFFFFFFFFFFFFFFFF AND DUP2 MSTORE PUSH1 0x20 ADD SWAP2 POP POP PUSH1 0x40 MLOAD DUP1 SWAP2 SUB SWAP1 RETURN JUMPDEST PUSH2 0x2FA PUSH1 0x4 DUP1 CALLDATASIZE SUB PUSH1 0x20 DUP2 LT ISZERO PUSH2 0x2CE JUMPI PUSH1 0x0 DUP1 REVERT JUMPDEST DUP2 ADD SWAP1 DUP1 DUP1 CALLDATALOAD PUSH20 0xFFFFFFFFFFFFFFFFFFFFFFFFFFFFFFFFFFFFFFFF AND SWAP1 PUSH1 0x20 ADD SWAP1 SWAP3 SWAP2 SWAP1 POP POP POP PUSH2 0x10ED JUMP JUMPDEST PUSH1 0x40 MLOAD DUP1 DUP3 DUP2 MSTORE PUSH1 0x20 ADD SWAP2 POP POP PUSH1 0x40 MLOAD DUP1 SWAP2 SUB SWAP1 RETURN JUMPDEST PUSH2 0x318 PUSH2 0x1136 JUMP JUMPDEST PUSH1 0x40 MLOAD DUP1 DUP3 PUSH20 0xFFFFFFFFFFFFFFFFFFFFFFFFFFFFFFFFFFFFFFFF AND PUSH20 0xFFFFFFFFFFFFFFFFFFFFFFFFFFFFFFFFFFFFFFFF AND DUP2 MSTORE PUSH1 0x20 ADD SWAP2 POP POP PUSH1 0x40 MLOAD DUP1 SWAP2 SUB SWAP1 RETURN JUMPDEST PUSH2 0x362 PUSH2 0x115C JUMP JUMPDEST PUSH1 0x40 MLOAD DUP1 DUP3 DUP2 MSTORE PUSH1 0x20 ADD SWAP2 POP POP PUSH1 0x40 MLOAD DUP1 SWAP2 SUB SWAP1 RETURN JUMPDEST PUSH2 0x380 PUSH2 0x1162 JUMP JUMPDEST PUSH1 0x40 MLOAD DUP1 DUP3 DUP2 MSTORE PUSH1 0x20 ADD SWAP2 POP POP PUSH1 0x40 MLOAD DUP1 SWAP2 SUB SWAP1 RETURN JUMPDEST PUSH2 0x3D8 PUSH1 0x4 DUP1 CALLDATASIZE SUB PUSH1 0x20 DUP2 LT ISZERO PUSH2 0x3AC JUMPI PUSH1 0x0 DUP1 REVERT JUMPDEST DUP2 ADD SWAP1 DUP1 DUP1 CALLDATALOAD PUSH20 0xFFFFFFFFFFFFFFFFFFFFFFFFFFFFFFFFFFFFFFFF AND SWAP1 PUSH1 0x20 ADD SWAP1 SWAP3 SWAP2 SWAP1 POP POP POP PUSH2 0x1175 JUMP JUMPDEST PUSH1 0x40 MLOAD DUP1 DUP3 DUP2 MSTORE PUSH1 0x20 ADD SWAP2 POP POP PUSH1 0x40 MLOAD DUP1 SWAP2 SUB SWAP1 RETURN JUMPDEST PUSH2 0x41A PUSH1 0x4 DUP1 CALLDATASIZE SUB PUSH1 0x20 DUP2 LT ISZERO PUSH2 0x404 JUMPI PUSH1 0x0 DUP1 REVERT JUMPDEST DUP2 ADD SWAP1 DUP1 DUP1 CALLDATALOAD SWAP1 PUSH1 0x20 ADD SWAP1 SWAP3 SWAP2 SWAP1 POP POP POP PUSH2 0x118D JUMP JUMPDEST STOP JUMPDEST PUSH2 0x424 PUSH2 0x14C7 JUMP JUMPDEST PUSH1 0x40 MLOAD DUP1 DUP3 DUP2 MSTORE PUSH1 0x20 ADD SWAP2 POP POP PUSH1 0x40 MLOAD DUP1 SWAP2 SUB SWAP1 RETURN JUMPDEST PUSH2 0x442 PUSH2 0x14CD JUMP JUMPDEST PUSH1 0x40 MLOAD DUP1 DUP3 DUP2 MSTORE PUSH1 0x20 ADD SWAP2 POP POP PUSH1 0x40 MLOAD DUP1 SWAP2 SUB SWAP1 RETURN JUMPDEST PUSH2 0x460 PUSH2 0x155B JUMP JUMPDEST PUSH1 0x40 MLOAD DUP1 DUP3 PUSH20 0xFFFFFFFFFFFFFFFFFFFFFFFFFFFFFFFFFFFFFFFF AND PUSH20 0xFFFFFFFFFFFFFFFFFFFFFFFFFFFFFFFFFFFFFFFF AND DUP2 MSTORE PUSH1 0x20 ADD SWAP2 POP POP PUSH1 0x40 MLOAD DUP1 SWAP2 SUB SWAP1 RETURN JUMPDEST PUSH2 0x4AA PUSH2 0x1581 JUMP JUMPDEST PUSH1 0x40 MLOAD DUP1 DUP3 DUP2 MSTORE PUSH1 0x20 ADD SWAP2 POP POP PUSH1 0x40 MLOAD DUP1 SWAP2 SUB SWAP1 RETURN JUMPDEST PUSH2 0x4C8 PUSH2 0x1587 JUMP JUMPDEST STOP JUMPDEST PUSH2 0x4D2 PUSH2 0x15D9 JUMP JUMPDEST PUSH1 0x40 MLOAD DUP1 DUP3 DUP2 MSTORE PUSH1 0x20 ADD SWAP2 POP POP PUSH1 0x40 MLOAD DUP1 SWAP2 SUB SWAP1 RETURN JUMPDEST PUSH2 0x53F PUSH1 0x4 DUP1 CALLDATASIZE SUB PUSH1 0xA0 DUP2 LT ISZERO PUSH2 0x4FE JUMPI PUSH1 0x0 DUP1 REVERT JUMPDEST DUP2 ADD SWAP1 DUP1 DUP1 CALLDATALOAD SWAP1 PUSH1 0x20 ADD SWAP1 SWAP3 SWAP2 SWAP1 DUP1 CALLDATALOAD SWAP1 PUSH1 0x20 ADD SWAP1 SWAP3 SWAP2 SWAP1 DUP1 CALLDATALOAD PUSH1 0xFF AND SWAP1 PUSH1 0x20 ADD SWAP1 SWAP3 SWAP2 SWAP1 DUP1 CALLDATALOAD SWAP1 PUSH1 0x20 ADD SWAP1 SWAP3 SWAP2 SWAP1 DUP1 CALLDATALOAD SWAP1 PUSH1 0x20 ADD SWAP1 SWAP3 SWAP2 SWAP1 POP POP POP PUSH2 0x15DF JUMP JUMPDEST STOP JUMPDEST PUSH1 0x0 PUSH2 0x658 PUSH1 0x9 PUSH1 0x0 DUP5 PUSH20 0xFFFFFFFFFFFFFFFFFFFFFFFFFFFFFFFFFFFFFFFF AND PUSH20 0xFFFFFFFFFFFFFFFFFFFFFFFFFFFFFFFFFFFFFFFF AND DUP2 MSTORE PUSH1 0x20 ADD SWAP1 DUP2 MSTORE PUSH1 0x20 ADD PUSH1 0x0 KECCAK256 SLOAD PUSH2 0x64A PUSH8 0xDE0B6B3A7640000 PUSH2 0x63C PUSH2 0x5EE PUSH1 0x8 PUSH1 0x0 DUP10 PUSH20 0xFFFFFFFFFFFFFFFFFFFFFFFFFFFFFFFFFFFFFFFF AND PUSH20 0xFFFFFFFFFFFFFFFFFFFFFFFFFFFFFFFFFFFFFFFF AND DUP2 MSTORE PUSH1 0x20 ADD SWAP1 DUP2 MSTORE PUSH1 0x20 ADD PUSH1 0x0 KECCAK256 SLOAD PUSH2 0x5E0 PUSH2 0x14CD JUMP JUMPDEST PUSH2 0x1A38 SWAP1 SWAP2 SWAP1 PUSH4 0xFFFFFFFF AND JUMP JUMPDEST PUSH1 0xB PUSH1 0x0 DUP10 PUSH20 0xFFFFFFFFFFFFFFFFFFFFFFFFFFFFFFFFFFFFFFFF AND PUSH20 0xFFFFFFFFFFFFFFFFFFFFFFFFFFFFFFFFFFFFFFFF AND DUP2 MSTORE PUSH1 0x20 ADD SWAP1 DUP2 MSTORE PUSH1 0x20 ADD PUSH1 0x0 KECCAK256 SLOAD PUSH2 0x1AC1 SWAP1 SWAP2 SWAP1 PUSH4 0xFFFFFFFF AND JUMP JUMPDEST PUSH2 0x1B47 SWAP1 SWAP2 SWAP1 PUSH4 0xFFFFFFFF AND JUMP JUMPDEST PUSH2 0x1BD6 SWAP1 SWAP2 SWAP1 PUSH4 0xFFFFFFFF AND JUMP JUMPDEST SWAP1 POP SWAP2 SWAP1 POP JUMP JUMPDEST PUSH1 0x9 PUSH1 0x20 MSTORE DUP1 PUSH1 0x0 MSTORE PUSH1 0x40 PUSH1 0x0 KECCAK256 PUSH1 0x0 SWAP2 POP SWAP1 POP SLOAD DUP2 JUMP JUMPDEST PUSH1 0x0 PUSH1 0xA SLOAD SWAP1 POP SWAP1 JUMP JUMPDEST PUSH1 0x0 DUP1 SWAP1 SLOAD SWAP1 PUSH2 0x100 EXP SWAP1 DIV PUSH20 0xFFFFFFFFFFFFFFFFFFFFFFFFFFFFFFFFFFFFFFFF AND PUSH20 0xFFFFFFFFFFFFFFFFFFFFFFFFFFFFFFFFFFFFFFFF AND CALLER PUSH20 0xFFFFFFFFFFFFFFFFFFFFFFFFFFFFFFFFFFFFFFFF AND EQ PUSH2 0x726 JUMPI PUSH1 0x40 MLOAD PUSH32 0x8C379A000000000000000000000000000000000000000000000000000000000 DUP2 MSTORE PUSH1 0x4 ADD DUP1 DUP1 PUSH1 0x20 ADD DUP3 DUP2 SUB DUP3 MSTORE PUSH1 0x2A DUP2 MSTORE PUSH1 0x20 ADD DUP1 PUSH2 0x20CE PUSH1 0x2A SWAP2 CODECOPY PUSH1 0x40 ADD SWAP2 POP POP PUSH1 0x40 MLOAD DUP1 SWAP2 SUB SWAP1 REVERT JUMPDEST PUSH1 0x0 PUSH2 0x730 PUSH2 0x14CD JUMP JUMPDEST PUSH1 0x7 DUP2 SWAP1 SSTORE POP PUSH2 0x73E PUSH2 0x1162 JUMP JUMPDEST PUSH1 0x6 DUP2 SWAP1 SSTORE POP PUSH1 0x0 PUSH20 0xFFFFFFFFFFFFFFFFFFFFFFFFFFFFFFFFFFFFFFFF AND DUP2 PUSH20 0xFFFFFFFFFFFFFFFFFFFFFFFFFFFFFFFFFFFFFFFF AND EQ PUSH2 0x80B JUMPI PUSH2 0x781 DUP2 PUSH2 0x541 JUMP JUMPDEST PUSH1 0x9 PUSH1 0x0 DUP4 PUSH20 0xFFFFFFFFFFFFFFFFFFFFFFFFFFFFFFFFFFFFFFFF AND PUSH20 0xFFFFFFFFFFFFFFFFFFFFFFFFFFFFFFFFFFFFFFFF AND DUP2 MSTORE PUSH1 0x20 ADD SWAP1 DUP2 MSTORE PUSH1 0x20 ADD PUSH1 0x0 KECCAK256 DUP2 SWAP1 SSTORE POP PUSH1 0x7 SLOAD PUSH1 0x8 PUSH1 0x0 DUP4 PUSH20 0xFFFFFFFFFFFFFFFFFFFFFFFFFFFFFFFFFFFFFFFF AND PUSH20 0xFFFFFFFFFFFFFFFFFFFFFFFFFFFFFFFFFFFFFFFF AND DUP2 MSTORE PUSH1 0x20 ADD SWAP1 DUP2 MSTORE PUSH1 0x20 ADD PUSH1 0x0 KECCAK256 DUP2 SWAP1 SSTORE POP JUMPDEST PUSH1 0x4 SLOAD PUSH2 0x821 DUP4 TIMESTAMP PUSH2 0x1BD6 SWAP1 SWAP2 SWAP1 PUSH4 0xFFFFFFFF AND JUMP JUMPDEST LT ISZERO PUSH2 0x895 JUMPI PUSH1 0x40 MLOAD PUSH32 0x8C379A000000000000000000000000000000000000000000000000000000000 DUP2 MSTORE PUSH1 0x4 ADD DUP1 DUP1 PUSH1 0x20 ADD DUP3 DUP2 SUB DUP3 MSTORE PUSH1 0x1D DUP2 MSTORE PUSH1 0x20 ADD DUP1 PUSH32 0x43616E6E6F7420726564756365206578697374696E6720706572696F64000000 DUP2 MSTORE POP PUSH1 0x20 ADD SWAP2 POP POP PUSH1 0x40 MLOAD DUP1 SWAP2 SUB SWAP1 REVERT JUMPDEST PUSH1 0x4 SLOAD TIMESTAMP LT PUSH2 0x8BC JUMPI PUSH2 0x8B1 DUP3 DUP5 PUSH2 0x1B47 SWAP1 SWAP2 SWAP1 PUSH4 0xFFFFFFFF AND JUMP JUMPDEST PUSH1 0x5 DUP2 SWAP1 SSTORE POP PUSH2 0x91C JUMP JUMPDEST PUSH1 0x0 PUSH2 0x8D3 TIMESTAMP PUSH1 0x4 SLOAD PUSH2 0x1A38 SWAP1 SWAP2 SWAP1 PUSH4 0xFFFFFFFF AND JUMP JUMPDEST SWAP1 POP PUSH1 0x0 PUSH2 0x8EC PUSH1 0x5 SLOAD DUP4 PUSH2 0x1AC1 SWAP1 SWAP2 SWAP1 PUSH4 0xFFFFFFFF AND JUMP JUMPDEST SWAP1 POP PUSH2 0x913 DUP5 PUSH2 0x905 DUP4 DUP9 PUSH2 0x1BD6 SWAP1 SWAP2 SWAP1 PUSH4 0xFFFFFFFF AND JUMP JUMPDEST PUSH2 0x1B47 SWAP1 SWAP2 SWAP1 PUSH4 0xFFFFFFFF AND JUMP JUMPDEST PUSH1 0x5 DUP2 SWAP1 SSTORE POP POP POP JUMPDEST PUSH1 0x0 PUSH1 0x2 PUSH1 0x0 SWAP1 SLOAD SWAP1 PUSH2 0x100 EXP SWAP1 DIV PUSH20 0xFFFFFFFFFFFFFFFFFFFFFFFFFFFFFFFFFFFFFFFF AND PUSH20 0xFFFFFFFFFFFFFFFFFFFFFFFFFFFFFFFFFFFFFFFF AND PUSH4 0x70A08231 ADDRESS PUSH1 0x40 MLOAD DUP3 PUSH4 0xFFFFFFFF AND PUSH1 0xE0 SHL DUP2 MSTORE PUSH1 0x4 ADD DUP1 DUP3 PUSH20 0xFFFFFFFFFFFFFFFFFFFFFFFFFFFFFFFFFFFFFFFF AND PUSH20 0xFFFFFFFFFFFFFFFFFFFFFFFFFFFFFFFFFFFFFFFF AND DUP2 MSTORE PUSH1 0x20 ADD SWAP2 POP POP PUSH1 0x20 PUSH1 0x40 MLOAD DUP1 DUP4 SUB DUP2 DUP7 DUP1 EXTCODESIZE ISZERO DUP1 ISZERO PUSH2 0x9BD JUMPI PUSH1 0x0 DUP1 REVERT JUMPDEST POP GAS STATICCALL ISZERO DUP1 ISZERO PUSH2 0x9D1 JUMPI RETURNDATASIZE PUSH1 0x0 DUP1 RETURNDATACOPY RETURNDATASIZE PUSH1 0x0 REVERT JUMPDEST POP POP POP POP PUSH1 0x40 MLOAD RETURNDATASIZE PUSH1 0x20 DUP2 LT ISZERO PUSH2 0x9E7 JUMPI PUSH1 0x0 DUP1 REVERT JUMPDEST DUP2 ADD SWAP1 DUP1 DUP1 MLOAD SWAP1 PUSH1 0x20 ADD SWAP1 SWAP3 SWAP2 SWAP1 POP POP POP SWAP1 POP PUSH2 0xA0D DUP4 DUP3 PUSH2 0x1B47 SWAP1 SWAP2 SWAP1 PUSH4 0xFFFFFFFF AND JUMP JUMPDEST PUSH1 0x5 SLOAD GT ISZERO PUSH2 0xA84 JUMPI PUSH1 0x40 MLOAD PUSH32 0x8C379A000000000000000000000000000000000000000000000000000000000 DUP2 MSTORE PUSH1 0x4 ADD DUP1 DUP1 PUSH1 0x20 ADD DUP3 DUP2 SUB DUP3 MSTORE PUSH1 0x18 DUP2 MSTORE PUSH1 0x20 ADD DUP1 PUSH32 0x50726F76696465642072657761726420746F6F20686967680000000000000000 DUP2 MSTORE POP PUSH1 0x20 ADD SWAP2 POP POP PUSH1 0x40 MLOAD DUP1 SWAP2 SUB SWAP1 REVERT JUMPDEST TIMESTAMP PUSH1 0x6 DUP2 SWAP1 SSTORE POP PUSH2 0xA9E DUP4 TIMESTAMP PUSH2 0x1BD6 SWAP1 SWAP2 SWAP1 PUSH4 0xFFFFFFFF AND JUMP JUMPDEST PUSH1 0x4 DUP2 SWAP1 SSTORE POP PUSH32 0x6C07EE05DCF262F13ABF9D87B846EE789D2F90FE991D495ACD7D7FC109EE1F55 DUP5 PUSH1 0x4 SLOAD PUSH1 0x40 MLOAD DUP1 DUP4 DUP2 MSTORE PUSH1 0x20 ADD DUP3 DUP2 MSTORE PUSH1 0x20 ADD SWAP3 POP POP POP PUSH1 0x40 MLOAD DUP1 SWAP2 SUB SWAP1 LOG1 POP POP POP POP JUMP JUMPDEST PUSH1 0x1 DUP1 PUSH1 0x0 DUP3 DUP3 SLOAD ADD SWAP3 POP POP DUP2 SWAP1 SSTORE POP PUSH1 0x0 PUSH1 0x1 SLOAD SWAP1 POP CALLER PUSH2 0xB0B PUSH2 0x14CD JUMP JUMPDEST PUSH1 0x7 DUP2 SWAP1 SSTORE POP PUSH2 0xB19 PUSH2 0x1162 JUMP JUMPDEST PUSH1 0x6 DUP2 SWAP1 SSTORE POP PUSH1 0x0 PUSH20 0xFFFFFFFFFFFFFFFFFFFFFFFFFFFFFFFFFFFFFFFF AND DUP2 PUSH20 0xFFFFFFFFFFFFFFFFFFFFFFFFFFFFFFFFFFFFFFFF AND EQ PUSH2 0xBE6 JUMPI PUSH2 0xB5C DUP2 PUSH2 0x541 JUMP JUMPDEST PUSH1 0x9 PUSH1 0x0 DUP4 PUSH20 0xFFFFFFFFFFFFFFFFFFFFFFFFFFFFFFFFFFFFFFFF AND PUSH20 0xFFFFFFFFFFFFFFFFFFFFFFFFFFFFFFFFFFFFFFFF AND DUP2 MSTORE PUSH1 0x20 ADD SWAP1 DUP2 MSTORE PUSH1 0x20 ADD PUSH1 0x0 KECCAK256 DUP2 SWAP1 SSTORE POP PUSH1 0x7 SLOAD PUSH1 0x8 PUSH1 0x0 DUP4 PUSH20 0xFFFFFFFFFFFFFFFFFFFFFFFFFFFFFFFFFFFFFFFF AND PUSH20 0xFFFFFFFFFFFFFFFFFFFFFFFFFFFFFFFFFFFFFFFF AND DUP2 MSTORE PUSH1 0x20 ADD SWAP1 DUP2 MSTORE PUSH1 0x20 ADD PUSH1 0x0 KECCAK256 DUP2 SWAP1 SSTORE POP JUMPDEST PUSH1 0x0 DUP4 GT PUSH2 0xC5C JUMPI PUSH1 0x40 MLOAD PUSH32 0x8C379A000000000000000000000000000000000000000000000000000000000 DUP2 MSTORE PUSH1 0x4 ADD DUP1 DUP1 PUSH1 0x20 ADD DUP3 DUP2 SUB DUP3 MSTORE PUSH1 0x11 DUP2 MSTORE PUSH1 0x20 ADD DUP1 PUSH32 0x43616E6E6F742077697468647261772030000000000000000000000000000000 DUP2 MSTORE POP PUSH1 0x20 ADD SWAP2 POP POP PUSH1 0x40 MLOAD DUP1 SWAP2 SUB SWAP1 REVERT JUMPDEST PUSH2 0xC71 DUP4 PUSH1 0xA SLOAD PUSH2 0x1A38 SWAP1 SWAP2 SWAP1 PUSH4 0xFFFFFFFF AND JUMP JUMPDEST PUSH1 0xA DUP2 SWAP1 SSTORE POP PUSH2 0xCC9 DUP4 PUSH1 0xB PUSH1 0x0 CALLER PUSH20 0xFFFFFFFFFFFFFFFFFFFFFFFFFFFFFFFFFFFFFFFF AND PUSH20 0xFFFFFFFFFFFFFFFFFFFFFFFFFFFFFFFFFFFFFFFF AND DUP2 MSTORE PUSH1 0x20 ADD SWAP1 DUP2 MSTORE PUSH1 0x20 ADD PUSH1 0x0 KECCAK256 SLOAD PUSH2 0x1A38 SWAP1 SWAP2 SWAP1 PUSH4 0xFFFFFFFF AND JUMP JUMPDEST PUSH1 0xB PUSH1 0x0 CALLER PUSH20 0xFFFFFFFFFFFFFFFFFFFFFFFFFFFFFFFFFFFFFFFF AND PUSH20 0xFFFFFFFFFFFFFFFFFFFFFFFFFFFFFFFFFFFFFFFF AND DUP2 MSTORE PUSH1 0x20 ADD SWAP1 DUP2 MSTORE PUSH1 0x20 ADD PUSH1 0x0 KECCAK256 DUP2 SWAP1 SSTORE POP PUSH2 0xD59 CALLER DUP5 PUSH1 0x3 PUSH1 0x0 SWAP1 SLOAD SWAP1 PUSH2 0x100 EXP SWAP1 DIV PUSH20 0xFFFFFFFFFFFFFFFFFFFFFFFFFFFFFFFFFFFFFFFF AND PUSH20 0xFFFFFFFFFFFFFFFFFFFFFFFFFFFFFFFFFFFFFFFF AND PUSH2 0x1C5E SWAP1 SWAP3 SWAP2 SWAP1 PUSH4 0xFFFFFFFF AND JUMP JUMPDEST CALLER PUSH20 0xFFFFFFFFFFFFFFFFFFFFFFFFFFFFFFFFFFFFFFFF AND PUSH32 0x7084F5476618D8E60B11EF0D7D3F06914655ADB8793E28FF7F018D4C76D505D5 DUP5 PUSH1 0x40 MLOAD DUP1 DUP3 DUP2 MSTORE PUSH1 0x20 ADD SWAP2 POP POP PUSH1 0x40 MLOAD DUP1 SWAP2 SUB SWAP1 LOG2 POP PUSH1 0x1 SLOAD DUP2 EQ PUSH2 0xE1F JUMPI PUSH1 0x40 MLOAD PUSH32 0x8C379A000000000000000000000000000000000000000000000000000000000 DUP2 MSTORE PUSH1 0x4 ADD DUP1 DUP1 PUSH1 0x20 ADD DUP3 DUP2 SUB DUP3 MSTORE PUSH1 0x1F DUP2 MSTORE PUSH1 0x20 ADD DUP1 PUSH32 0x5265656E7472616E637947756172643A207265656E7472616E742063616C6C00 DUP2 MSTORE POP PUSH1 0x20 ADD SWAP2 POP POP PUSH1 0x40 MLOAD DUP1 SWAP2 SUB SWAP1 REVERT JUMPDEST POP POP JUMP JUMPDEST PUSH1 0x1 DUP1 PUSH1 0x0 DUP3 DUP3 SLOAD ADD SWAP3 POP POP DUP2 SWAP1 SSTORE POP PUSH1 0x0 PUSH1 0x1 SLOAD SWAP1 POP CALLER PUSH2 0xE43 PUSH2 0x14CD JUMP JUMPDEST PUSH1 0x7 DUP2 SWAP1 SSTORE POP PUSH2 0xE51 PUSH2 0x1162 JUMP JUMPDEST PUSH1 0x6 DUP2 SWAP1 SSTORE POP PUSH1 0x0 PUSH20 0xFFFFFFFFFFFFFFFFFFFFFFFFFFFFFFFFFFFFFFFF AND DUP2 PUSH20 0xFFFFFFFFFFFFFFFFFFFFFFFFFFFFFFFFFFFFFFFF AND EQ PUSH2 0xF1E JUMPI PUSH2 0xE94 DUP2 PUSH2 0x541 JUMP JUMPDEST PUSH1 0x9 PUSH1 0x0 DUP4 PUSH20 0xFFFFFFFFFFFFFFFFFFFFFFFFFFFFFFFFFFFFFFFF AND PUSH20 0xFFFFFFFFFFFFFFFFFFFFFFFFFFFFFFFFFFFFFFFF AND DUP2 MSTORE PUSH1 0x20 ADD SWAP1 DUP2 MSTORE PUSH1 0x20 ADD PUSH1 0x0 KECCAK256 DUP2 SWAP1 SSTORE POP PUSH1 0x7 SLOAD PUSH1 0x8 PUSH1 0x0 DUP4 PUSH20 0xFFFFFFFFFFFFFFFFFFFFFFFFFFFFFFFFFFFFFFFF AND PUSH20 0xFFFFFFFFFFFFFFFFFFFFFFFFFFFFFFFFFFFFFFFF AND DUP2 MSTORE PUSH1 0x20 ADD SWAP1 DUP2 MSTORE PUSH1 0x20 ADD PUSH1 0x0 KECCAK256 DUP2 SWAP1 SSTORE POP JUMPDEST PUSH1 0x0 PUSH1 0x9 PUSH1 0x0 CALLER PUSH20 0xFFFFFFFFFFFFFFFFFFFFFFFFFFFFFFFFFFFFFFFF AND PUSH20 0xFFFFFFFFFFFFFFFFFFFFFFFFFFFFFFFFFFFFFFFF AND DUP2 MSTORE PUSH1 0x20 ADD SWAP1 DUP2 MSTORE PUSH1 0x20 ADD PUSH1 0x0 KECCAK256 SLOAD SWAP1 POP PUSH1 0x0 DUP2 GT ISZERO PUSH2 0x104C JUMPI PUSH1 0x0 PUSH1 0x9 PUSH1 0x0 CALLER PUSH20 0xFFFFFFFFFFFFFFFFFFFFFFFFFFFFFFFFFFFFFFFF AND PUSH20 0xFFFFFFFFFFFFFFFFFFFFFFFFFFFFFFFFFFFFFFFF AND DUP2 MSTORE PUSH1 0x20 ADD SWAP1 DUP2 MSTORE PUSH1 0x20 ADD PUSH1 0x0 KECCAK256 DUP2 SWAP1 SSTORE POP PUSH2 0xFFD CALLER DUP3 PUSH1 0x2 PUSH1 0x0 SWAP1 SLOAD SWAP1 PUSH2 0x100 EXP SWAP1 DIV PUSH20 0xFFFFFFFFFFFFFFFFFFFFFFFFFFFFFFFFFFFFFFFF AND PUSH20 0xFFFFFFFFFFFFFFFFFFFFFFFFFFFFFFFFFFFFFFFF AND PUSH2 0x1C5E SWAP1 SWAP3 SWAP2 SWAP1 PUSH4 0xFFFFFFFF AND JUMP JUMPDEST CALLER PUSH20 0xFFFFFFFFFFFFFFFFFFFFFFFFFFFFFFFFFFFFFFFF AND PUSH32 0xE2403640BA68FED3A2F88B7557551D1993F84B99BB10FF833F0CF8DB0C5E0486 DUP3 PUSH1 0x40 MLOAD DUP1 DUP3 DUP2 MSTORE PUSH1 0x20 ADD SWAP2 POP POP PUSH1 0x40 MLOAD DUP1 SWAP2 SUB SWAP1 LOG2 JUMPDEST POP POP PUSH1 0x1 SLOAD DUP2 EQ PUSH2 0x10C5 JUMPI PUSH1 0x40 MLOAD PUSH32 0x8C379A000000000000000000000000000000000000000000000000000000000 DUP2 MSTORE PUSH1 0x4 ADD DUP1 DUP1 PUSH1 0x20 ADD DUP3 DUP2 SUB DUP3 MSTORE PUSH1 0x1F DUP2 MSTORE PUSH1 0x20 ADD DUP1 PUSH32 0x5265656E7472616E637947756172643A207265656E7472616E742063616C6C00 DUP2 MSTORE POP PUSH1 0x20 ADD SWAP2 POP POP PUSH1 0x40 MLOAD DUP1 SWAP2 SUB SWAP1 REVERT JUMPDEST POP JUMP JUMPDEST PUSH1 0x0 DUP1 SWAP1 SLOAD SWAP1 PUSH2 0x100 EXP SWAP1 DIV PUSH20 0xFFFFFFFFFFFFFFFFFFFFFFFFFFFFFFFFFFFFFFFF AND DUP2 JUMP JUMPDEST PUSH1 0x0 PUSH1 0xB PUSH1 0x0 DUP4 PUSH20 0xFFFFFFFFFFFFFFFFFFFFFFFFFFFFFFFFFFFFFFFF AND PUSH20 0xFFFFFFFFFFFFFFFFFFFFFFFFFFFFFFFFFFFFFFFF AND DUP2 MSTORE PUSH1 0x20 ADD SWAP1 DUP2 MSTORE PUSH1 0x20 ADD PUSH1 0x0 KECCAK256 SLOAD SWAP1 POP SWAP2 SWAP1 POP JUMP JUMPDEST PUSH1 0x3 PUSH1 0x0 SWAP1 SLOAD SWAP1 PUSH2 0x100 EXP SWAP1 DIV PUSH20 0xFFFFFFFFFFFFFFFFFFFFFFFFFFFFFFFFFFFFFFFF AND DUP2 JUMP JUMPDEST PUSH1 0x5 SLOAD DUP2 JUMP JUMPDEST PUSH1 0x0 PUSH2 0x1170 TIMESTAMP PUSH1 0x4 SLOAD PUSH2 0x1D2F JUMP JUMPDEST SWAP1 POP SWAP1 JUMP JUMPDEST PUSH1 0x8 PUSH1 0x20 MSTORE DUP1 PUSH1 0x0 MSTORE PUSH1 0x40 PUSH1 0x0 KECCAK256 PUSH1 0x0 SWAP2 POP SWAP1 POP SLOAD DUP2 JUMP JUMPDEST PUSH1 0x1 DUP1 PUSH1 0x0 DUP3 DUP3 SLOAD ADD SWAP3 POP POP DUP2 SWAP1 SSTORE POP PUSH1 0x0 PUSH1 0x1 SLOAD SWAP1 POP CALLER PUSH2 0x11AD PUSH2 0x14CD JUMP JUMPDEST PUSH1 0x7 DUP2 SWAP1 SSTORE POP PUSH2 0x11BB PUSH2 0x1162 JUMP JUMPDEST PUSH1 0x6 DUP2 SWAP1 SSTORE POP PUSH1 0x0 PUSH20 0xFFFFFFFFFFFFFFFFFFFFFFFFFFFFFFFFFFFFFFFF AND DUP2 PUSH20 0xFFFFFFFFFFFFFFFFFFFFFFFFFFFFFFFFFFFFFFFF AND EQ PUSH2 0x1288 JUMPI PUSH2 0x11FE DUP2 PUSH2 0x541 JUMP JUMPDEST PUSH1 0x9 PUSH1 0x0 DUP4 PUSH20 0xFFFFFFFFFFFFFFFFFFFFFFFFFFFFFFFFFFFFFFFF AND PUSH20 0xFFFFFFFFFFFFFFFFFFFFFFFFFFFFFFFFFFFFFFFF AND DUP2 MSTORE PUSH1 0x20 ADD SWAP1 DUP2 MSTORE PUSH1 0x20 ADD PUSH1 0x0 KECCAK256 DUP2 SWAP1 SSTORE POP PUSH1 0x7 SLOAD PUSH1 0x8 PUSH1 0x0 DUP4 PUSH20 0xFFFFFFFFFFFFFFFFFFFFFFFFFFFFFFFFFFFFFFFF AND PUSH20 0xFFFFFFFFFFFFFFFFFFFFFFFFFFFFFFFFFFFFFFFF AND DUP2 MSTORE PUSH1 0x20 ADD SWAP1 DUP2 MSTORE PUSH1 0x20 ADD PUSH1 0x0 KECCAK256 DUP2 SWAP1 SSTORE POP JUMPDEST PUSH1 0x0 DUP4 GT PUSH2 0x12FE JUMPI PUSH1 0x40 MLOAD PUSH32 0x8C379A000000000000000000000000000000000000000000000000000000000 DUP2 MSTORE PUSH1 0x4 ADD DUP1 DUP1 PUSH1 0x20 ADD DUP3 DUP2 SUB DUP3 MSTORE PUSH1 0xE DUP2 MSTORE PUSH1 0x20 ADD DUP1 PUSH32 0x43616E6E6F74207374616B652030000000000000000000000000000000000000 DUP2 MSTORE POP PUSH1 0x20 ADD SWAP2 POP POP PUSH1 0x40 MLOAD DUP1 SWAP2 SUB SWAP1 REVERT JUMPDEST PUSH2 0x1313 DUP4 PUSH1 0xA SLOAD PUSH2 0x1BD6 SWAP1 SWAP2 SWAP1 PUSH4 0xFFFFFFFF AND JUMP JUMPDEST PUSH1 0xA DUP2 SWAP1 SSTORE POP PUSH2 0x136B DUP4 PUSH1 0xB PUSH1 0x0 CALLER PUSH20 0xFFFFFFFFFFFFFFFFFFFFFFFFFFFFFFFFFFFFFFFF AND PUSH20 0xFFFFFFFFFFFFFFFFFFFFFFFFFFFFFFFFFFFFFFFF AND DUP2 MSTORE PUSH1 0x20 ADD SWAP1 DUP2 MSTORE PUSH1 0x20 ADD PUSH1 0x0 KECCAK256 SLOAD PUSH2 0x1BD6 SWAP1 SWAP2 SWAP1 PUSH4 0xFFFFFFFF AND JUMP JUMPDEST PUSH1 0xB PUSH1 0x0 CALLER PUSH20 0xFFFFFFFFFFFFFFFFFFFFFFFFFFFFFFFFFFFFFFFF AND PUSH20 0xFFFFFFFFFFFFFFFFFFFFFFFFFFFFFFFFFFFFFFFF AND DUP2 MSTORE PUSH1 0x20 ADD SWAP1 DUP2 MSTORE PUSH1 0x20 ADD PUSH1 0x0 KECCAK256 DUP2 SWAP1 SSTORE POP PUSH2 0x13FD CALLER ADDRESS DUP6 PUSH1 0x3 PUSH1 0x0 SWAP1 SLOAD SWAP1 PUSH2 0x100 EXP SWAP1 DIV PUSH20 0xFFFFFFFFFFFFFFFFFFFFFFFFFFFFFFFFFFFFFFFF AND PUSH20 0xFFFFFFFFFFFFFFFFFFFFFFFFFFFFFFFFFFFFFFFF AND PUSH2 0x1D48 SWAP1 SWAP4 SWAP3 SWAP2 SWAP1 PUSH4 0xFFFFFFFF AND JUMP JUMPDEST CALLER PUSH20 0xFFFFFFFFFFFFFFFFFFFFFFFFFFFFFFFFFFFFFFFF AND PUSH32 0x9E71BC8EEA02A63969F509818F2DAFB9254532904319F9DBDA79B67BD34A5F3D DUP5 PUSH1 0x40 MLOAD DUP1 DUP3 DUP2 MSTORE PUSH1 0x20 ADD SWAP2 POP POP PUSH1 0x40 MLOAD DUP1 SWAP2 SUB SWAP1 LOG2 POP PUSH1 0x1 SLOAD DUP2 EQ PUSH2 0x14C3 JUMPI PUSH1 0x40 MLOAD PUSH32 0x8C379A000000000000000000000000000000000000000000000000000000000 DUP2 MSTORE PUSH1 0x4 ADD DUP1 DUP1 PUSH1 0x20 ADD DUP3 DUP2 SUB DUP3 MSTORE PUSH1 0x1F DUP2 MSTORE PUSH1 0x20 ADD DUP1 PUSH32 0x5265656E7472616E637947756172643A207265656E7472616E742063616C6C00 DUP2 MSTORE POP PUSH1 0x20 ADD SWAP2 POP POP PUSH1 0x40 MLOAD DUP1 SWAP2 SUB SWAP1 REVERT JUMPDEST POP POP JUMP JUMPDEST PUSH1 0x6 SLOAD DUP2 JUMP JUMPDEST PUSH1 0x0 DUP1 PUSH1 0xA SLOAD EQ ISZERO PUSH2 0x14E3 JUMPI PUSH1 0x7 SLOAD SWAP1 POP PUSH2 0x1558 JUMP JUMPDEST PUSH2 0x1555 PUSH2 0x1544 PUSH1 0xA SLOAD PUSH2 0x1536 PUSH8 0xDE0B6B3A7640000 PUSH2 0x1528 PUSH1 0x5 SLOAD PUSH2 0x151A PUSH1 0x6 SLOAD PUSH2 0x150C PUSH2 0x1162 JUMP JUMPDEST PUSH2 0x1A38 SWAP1 SWAP2 SWAP1 PUSH4 0xFFFFFFFF AND JUMP JUMPDEST PUSH2 0x1AC1 SWAP1 SWAP2 SWAP1 PUSH4 0xFFFFFFFF AND JUMP JUMPDEST PUSH2 0x1AC1 SWAP1 SWAP2 SWAP1 PUSH4 0xFFFFFFFF AND JUMP JUMPDEST PUSH2 0x1B47 SWAP1 SWAP2 SWAP1 PUSH4 0xFFFFFFFF AND JUMP JUMPDEST PUSH1 0x7 SLOAD PUSH2 0x1BD6 SWAP1 SWAP2 SWAP1 PUSH4 0xFFFFFFFF AND JUMP JUMPDEST SWAP1 POP JUMPDEST SWAP1 JUMP JUMPDEST PUSH1 0x2 PUSH1 0x0 SWAP1 SLOAD SWAP1 PUSH2 0x100 EXP SWAP1 DIV PUSH20 0xFFFFFFFFFFFFFFFFFFFFFFFFFFFFFFFFFFFFFFFF AND DUP2 JUMP JUMPDEST PUSH1 0x7 SLOAD DUP2 JUMP JUMPDEST PUSH2 0x15CF PUSH1 0xB PUSH1 0x0 CALLER PUSH20 0xFFFFFFFFFFFFFFFFFFFFFFFFFFFFFFFFFFFFFFFF AND PUSH20 0xFFFFFFFFFFFFFFFFFFFFFFFFFFFFFFFFFFFFFFFF AND DUP2 MSTORE PUSH1 0x20 ADD SWAP1 DUP2 MSTORE PUSH1 0x20 ADD PUSH1 0x0 KECCAK256 SLOAD PUSH2 0xAEB JUMP JUMPDEST PUSH2 0x15D7 PUSH2 0xE23 JUMP JUMPDEST JUMP JUMPDEST PUSH1 0x4 SLOAD DUP2 JUMP JUMPDEST PUSH1 0x1 DUP1 PUSH1 0x0 DUP3 DUP3 SLOAD ADD SWAP3 POP POP DUP2 SWAP1 SSTORE POP PUSH1 0x0 PUSH1 0x1 SLOAD SWAP1 POP CALLER PUSH2 0x15FF PUSH2 0x14CD JUMP JUMPDEST PUSH1 0x7 DUP2 SWAP1 SSTORE POP PUSH2 0x160D PUSH2 0x1162 JUMP JUMPDEST PUSH1 0x6 DUP2 SWAP1 SSTORE POP PUSH1 0x0 PUSH20 0xFFFFFFFFFFFFFFFFFFFFFFFFFFFFFFFFFFFFFFFF AND DUP2 PUSH20 0xFFFFFFFFFFFFFFFFFFFFFFFFFFFFFFFFFFFFFFFF AND EQ PUSH2 0x16DA JUMPI PUSH2 0x1650 DUP2 PUSH2 0x541 JUMP JUMPDEST PUSH1 0x9 PUSH1 0x0 DUP4 PUSH20 0xFFFFFFFFFFFFFFFFFFFFFFFFFFFFFFFFFFFFFFFF AND PUSH20 0xFFFFFFFFFFFFFFFFFFFFFFFFFFFFFFFFFFFFFFFF AND DUP2 MSTORE PUSH1 0x20 ADD SWAP1 DUP2 MSTORE PUSH1 0x20 ADD PUSH1 0x0 KECCAK256 DUP2 SWAP1 SSTORE POP PUSH1 0x7 SLOAD PUSH1 0x8 PUSH1 0x0 DUP4 PUSH20 0xFFFFFFFFFFFFFFFFFFFFFFFFFFFFFFFFFFFFFFFF AND PUSH20 0xFFFFFFFFFFFFFFFFFFFFFFFFFFFFFFFFFFFFFFFF AND DUP2 MSTORE PUSH1 0x20 ADD SWAP1 DUP2 MSTORE PUSH1 0x20 ADD PUSH1 0x0 KECCAK256 DUP2 SWAP1 SSTORE POP JUMPDEST PUSH1 0x0 DUP8 GT PUSH2 0x1750 JUMPI PUSH1 0x40 MLOAD PUSH32 0x8C379A000000000000000000000000000000000000000000000000000000000 DUP2 MSTORE PUSH1 0x4 ADD DUP1 DUP1 PUSH1 0x20 ADD DUP3 DUP2 SUB DUP3 MSTORE PUSH1 0xE DUP2 MSTORE PUSH1 0x20 ADD DUP1 PUSH32 0x43616E6E6F74207374616B652030000000000000000000000000000000000000 DUP2 MSTORE POP PUSH1 0x20 ADD SWAP2 POP POP PUSH1 0x40 MLOAD DUP1 SWAP2 SUB SWAP1 REVERT JUMPDEST PUSH2 0x1765 DUP8 PUSH1 0xA SLOAD PUSH2 0x1BD6 SWAP1 SWAP2 SWAP1 PUSH4 0xFFFFFFFF AND JUMP JUMPDEST PUSH1 0xA DUP2 SWAP1 SSTORE POP PUSH2 0x17BD DUP8 PUSH1 0xB PUSH1 0x0 CALLER PUSH20 0xFFFFFFFFFFFFFFFFFFFFFFFFFFFFFFFFFFFFFFFF AND PUSH20 0xFFFFFFFFFFFFFFFFFFFFFFFFFFFFFFFFFFFFFFFF AND DUP2 MSTORE PUSH1 0x20 ADD SWAP1 DUP2 MSTORE PUSH1 0x20 ADD PUSH1 0x0 KECCAK256 SLOAD PUSH2 0x1BD6 SWAP1 SWAP2 SWAP1 PUSH4 0xFFFFFFFF AND JUMP JUMPDEST PUSH1 0xB PUSH1 0x0 CALLER PUSH20 0xFFFFFFFFFFFFFFFFFFFFFFFFFFFFFFFFFFFFFFFF AND PUSH20 0xFFFFFFFFFFFFFFFFFFFFFFFFFFFFFFFFFFFFFFFF AND DUP2 MSTORE PUSH1 0x20 ADD SWAP1 DUP2 MSTORE PUSH1 0x20 ADD PUSH1 0x0 KECCAK256 DUP2 SWAP1 SSTORE POP PUSH1 0x3 PUSH1 0x0 SWAP1 SLOAD SWAP1 PUSH2 0x100 EXP SWAP1 DIV PUSH20 0xFFFFFFFFFFFFFFFFFFFFFFFFFFFFFFFFFFFFFFFF AND PUSH20 0xFFFFFFFFFFFFFFFFFFFFFFFFFFFFFFFFFFFFFFFF AND PUSH4 0xD505ACCF CALLER ADDRESS DUP11 DUP11 DUP11 DUP11 DUP11 PUSH1 0x40 MLOAD DUP9 PUSH4 0xFFFFFFFF AND PUSH1 0xE0 SHL DUP2 MSTORE PUSH1 0x4 ADD DUP1 DUP9 PUSH20 0xFFFFFFFFFFFFFFFFFFFFFFFFFFFFFFFFFFFFFFFF AND PUSH20 0xFFFFFFFFFFFFFFFFFFFFFFFFFFFFFFFFFFFFFFFF AND DUP2 MSTORE PUSH1 0x20 ADD DUP8 PUSH20 0xFFFFFFFFFFFFFFFFFFFFFFFFFFFFFFFFFFFFFFFF AND PUSH20 0xFFFFFFFFFFFFFFFFFFFFFFFFFFFFFFFFFFFFFFFF AND DUP2 MSTORE PUSH1 0x20 ADD DUP7 DUP2 MSTORE PUSH1 0x20 ADD DUP6 DUP2 MSTORE PUSH1 0x20 ADD DUP5 PUSH1 0xFF AND PUSH1 0xFF AND DUP2 MSTORE PUSH1 0x20 ADD DUP4 DUP2 MSTORE PUSH1 0x20 ADD DUP3 DUP2 MSTORE PUSH1 0x20 ADD SWAP8 POP POP POP POP POP POP POP POP PUSH1 0x0 PUSH1 0x40 MLOAD DUP1 DUP4 SUB DUP2 PUSH1 0x0 DUP8 DUP1 EXTCODESIZE ISZERO DUP1 ISZERO PUSH2 0x1903 JUMPI PUSH1 0x0 DUP1 REVERT JUMPDEST POP GAS CALL ISZERO DUP1 ISZERO PUSH2 0x1917 JUMPI RETURNDATASIZE PUSH1 0x0 DUP1 RETURNDATACOPY RETURNDATASIZE PUSH1 0x0 REVERT JUMPDEST POP POP POP POP PUSH2 0x196A CALLER ADDRESS DUP10 PUSH1 0x3 PUSH1 0x0 SWAP1 SLOAD SWAP1 PUSH2 0x100 EXP SWAP1 DIV PUSH20 0xFFFFFFFFFFFFFFFFFFFFFFFFFFFFFFFFFFFFFFFF AND PUSH20 0xFFFFFFFFFFFFFFFFFFFFFFFFFFFFFFFFFFFFFFFF AND PUSH2 0x1D48 SWAP1 SWAP4 SWAP3 SWAP2 SWAP1 PUSH4 0xFFFFFFFF AND JUMP JUMPDEST CALLER PUSH20 0xFFFFFFFFFFFFFFFFFFFFFFFFFFFFFFFFFFFFFFFF AND PUSH32 0x9E71BC8EEA02A63969F509818F2DAFB9254532904319F9DBDA79B67BD34A5F3D DUP9 PUSH1 0x40 MLOAD DUP1 DUP3 DUP2 MSTORE PUSH1 0x20 ADD SWAP2 POP POP PUSH1 0x40 MLOAD DUP1 SWAP2 SUB SWAP1 LOG2 POP PUSH1 0x1 SLOAD DUP2 EQ PUSH2 0x1A30 JUMPI PUSH1 0x40 MLOAD PUSH32 0x8C379A000000000000000000000000000000000000000000000000000000000 DUP2 MSTORE PUSH1 0x4 ADD DUP1 DUP1 PUSH1 0x20 ADD DUP3 DUP2 SUB DUP3 MSTORE PUSH1 0x1F DUP2 MSTORE PUSH1 0x20 ADD DUP1 PUSH32 0x5265656E7472616E637947756172643A207265656E7472616E742063616C6C00 DUP2 MSTORE POP PUSH1 0x20 ADD SWAP2 POP POP PUSH1 0x40 MLOAD DUP1 SWAP2 SUB SWAP1 REVERT JUMPDEST POP POP POP POP POP POP JUMP JUMPDEST PUSH1 0x0 DUP3 DUP3 GT ISZERO PUSH2 0x1AB0 JUMPI PUSH1 0x40 MLOAD PUSH32 0x8C379A000000000000000000000000000000000000000000000000000000000 DUP2 MSTORE PUSH1 0x4 ADD DUP1 DUP1 PUSH1 0x20 ADD DUP3 DUP2 SUB DUP3 MSTORE PUSH1 0x1E DUP2 MSTORE PUSH1 0x20 ADD DUP1 PUSH32 0x536166654D6174683A207375627472616374696F6E206F766572666C6F770000 DUP2 MSTORE POP PUSH1 0x20 ADD SWAP2 POP POP PUSH1 0x40 MLOAD DUP1 SWAP2 SUB SWAP1 REVERT JUMPDEST PUSH1 0x0 DUP3 DUP5 SUB SWAP1 POP DUP1 SWAP2 POP POP SWAP3 SWAP2 POP POP JUMP JUMPDEST PUSH1 0x0 DUP1 DUP4 EQ ISZERO PUSH2 0x1AD4 JUMPI PUSH1 0x0 SWAP1 POP PUSH2 0x1B41 JUMP JUMPDEST PUSH1 0x0 DUP3 DUP5 MUL SWAP1 POP DUP3 DUP5 DUP3 DUP2 PUSH2 0x1AE5 JUMPI INVALID JUMPDEST DIV EQ PUSH2 0x1B3C JUMPI PUSH1 0x40 MLOAD PUSH32 0x8C379A000000000000000000000000000000000000000000000000000000000 DUP2 MSTORE PUSH1 0x4 ADD DUP1 DUP1 PUSH1 0x20 ADD DUP3 DUP2 SUB DUP3 MSTORE PUSH1 0x21 DUP2 MSTORE PUSH1 0x20 ADD DUP1 PUSH2 0x20AD PUSH1 0x21 SWAP2 CODECOPY PUSH1 0x40 ADD SWAP2 POP POP PUSH1 0x40 MLOAD DUP1 SWAP2 SUB SWAP1 REVERT JUMPDEST DUP1 SWAP2 POP POP JUMPDEST SWAP3 SWAP2 POP POP JUMP JUMPDEST PUSH1 0x0 DUP1 DUP3 GT PUSH2 0x1BBE JUMPI PUSH1 0x40 MLOAD PUSH32 0x8C379A000000000000000000000000000000000000000000000000000000000 DUP2 MSTORE PUSH1 0x4 ADD DUP1 DUP1 PUSH1 0x20 ADD DUP3 DUP2 SUB DUP3 MSTORE PUSH1 0x1A DUP2 MSTORE PUSH1 0x20 ADD DUP1 PUSH32 0x536166654D6174683A206469766973696F6E206279207A65726F000000000000 DUP2 MSTORE POP PUSH1 0x20 ADD SWAP2 POP POP PUSH1 0x40 MLOAD DUP1 SWAP2 SUB SWAP1 REVERT JUMPDEST PUSH1 0x0 DUP3 DUP5 DUP2 PUSH2 0x1BC9 JUMPI INVALID JUMPDEST DIV SWAP1 POP DUP1 SWAP2 POP POP SWAP3 SWAP2 POP POP JUMP JUMPDEST PUSH1 0x0 DUP1 DUP3 DUP5 ADD SWAP1 POP DUP4 DUP2 LT ISZERO PUSH2 0x1C54 JUMPI PUSH1 0x40 MLOAD PUSH32 0x8C379A000000000000000000000000000000000000000000000000000000000 DUP2 MSTORE PUSH1 0x4 ADD DUP1 DUP1 PUSH1 0x20 ADD DUP3 DUP2 SUB DUP3 MSTORE PUSH1 0x1B DUP2 MSTORE PUSH1 0x20 ADD DUP1 PUSH32 0x536166654D6174683A206164646974696F6E206F766572666C6F770000000000 DUP2 MSTORE POP PUSH1 0x20 ADD SWAP2 POP POP PUSH1 0x40 MLOAD DUP1 SWAP2 SUB SWAP1 REVERT JUMPDEST DUP1 SWAP2 POP POP SWAP3 SWAP2 POP POP JUMP JUMPDEST PUSH2 0x1D2A DUP4 DUP5 PUSH20 0xFFFFFFFFFFFFFFFFFFFFFFFFFFFFFFFFFFFFFFFF AND PUSH4 0xA9059CBB SWAP1 POP PUSH1 0xE0 SHL DUP5 DUP5 PUSH1 0x40 MLOAD PUSH1 0x24 ADD DUP1 DUP4 PUSH20 0xFFFFFFFFFFFFFFFFFFFFFFFFFFFFFFFFFFFFFFFF AND PUSH20 0xFFFFFFFFFFFFFFFFFFFFFFFFFFFFFFFFFFFFFFFF AND DUP2 MSTORE PUSH1 0x20 ADD DUP3 DUP2 MSTORE PUSH1 0x20 ADD SWAP3 POP POP POP PUSH1 0x40 MLOAD PUSH1 0x20 DUP2 DUP4 SUB SUB DUP2 MSTORE SWAP1 PUSH1 0x40 MSTORE SWAP1 PUSH28 0xFFFFFFFFFFFFFFFFFFFFFFFFFFFFFFFFFFFFFFFFFFFFFFFFFFFFFFFF NOT AND PUSH1 0x20 DUP3 ADD DUP1 MLOAD PUSH28 0xFFFFFFFFFFFFFFFFFFFFFFFFFFFFFFFFFFFFFFFFFFFFFFFFFFFFFFFF DUP4 DUP2 DUP4 AND OR DUP4 MSTORE POP POP POP POP PUSH2 0x1E4E JUMP JUMPDEST POP POP POP JUMP JUMPDEST PUSH1 0x0 DUP2 DUP4 LT PUSH2 0x1D3E JUMPI DUP2 PUSH2 0x1D40 JUMP JUMPDEST DUP3 JUMPDEST SWAP1 POP SWAP3 SWAP2 POP POP JUMP JUMPDEST PUSH2 0x1E48 DUP5 DUP6 PUSH20 0xFFFFFFFFFFFFFFFFFFFFFFFFFFFFFFFFFFFFFFFF AND PUSH4 0x23B872DD SWAP1 POP PUSH1 0xE0 SHL DUP6 DUP6 DUP6 PUSH1 0x40 MLOAD PUSH1 0x24 ADD DUP1 DUP5 PUSH20 0xFFFFFFFFFFFFFFFFFFFFFFFFFFFFFFFFFFFFFFFF AND PUSH20 0xFFFFFFFFFFFFFFFFFFFFFFFFFFFFFFFFFFFFFFFF AND DUP2 MSTORE PUSH1 0x20 ADD DUP4 PUSH20 0xFFFFFFFFFFFFFFFFFFFFFFFFFFFFFFFFFFFFFFFF AND PUSH20 0xFFFFFFFFFFFFFFFFFFFFFFFFFFFFFFFFFFFFFFFF AND DUP2 MSTORE PUSH1 0x20 ADD DUP3 DUP2 MSTORE PUSH1 0x20 ADD SWAP4 POP POP POP POP PUSH1 0x40 MLOAD PUSH1 0x20 DUP2 DUP4 SUB SUB DUP2 MSTORE SWAP1 PUSH1 0x40 MSTORE SWAP1 PUSH28 0xFFFFFFFFFFFFFFFFFFFFFFFFFFFFFFFFFFFFFFFFFFFFFFFFFFFFFFFF NOT AND PUSH1 0x20 DUP3 ADD DUP1 MLOAD PUSH28 0xFFFFFFFFFFFFFFFFFFFFFFFFFFFFFFFFFFFFFFFFFFFFFFFFFFFFFFFF DUP4 DUP2 DUP4 AND OR DUP4 MSTORE POP POP POP POP PUSH2 0x1E4E JUMP JUMPDEST POP POP POP POP JUMP JUMPDEST PUSH2 0x1E6D DUP3 PUSH20 0xFFFFFFFFFFFFFFFFFFFFFFFFFFFFFFFFFFFFFFFF AND PUSH2 0x2099 JUMP JUMPDEST PUSH2 0x1EDF JUMPI PUSH1 0x40 MLOAD PUSH32 0x8C379A000000000000000000000000000000000000000000000000000000000 DUP2 MSTORE PUSH1 0x4 ADD DUP1 DUP1 PUSH1 0x20 ADD DUP3 DUP2 SUB DUP3 MSTORE PUSH1 0x1F DUP2 MSTORE PUSH1 0x20 ADD DUP1 PUSH32 0x5361666545524332303A2063616C6C20746F206E6F6E2D636F6E747261637400 DUP2 MSTORE POP PUSH1 0x20 ADD SWAP2 POP POP PUSH1 0x40 MLOAD DUP1 SWAP2 SUB SWAP1 REVERT JUMPDEST PUSH1 0x0 PUSH1 0x60 DUP4 PUSH20 0xFFFFFFFFFFFFFFFFFFFFFFFFFFFFFFFFFFFFFFFF AND DUP4 PUSH1 0x40 MLOAD DUP1 DUP3 DUP1 MLOAD SWAP1 PUSH1 0x20 ADD SWAP1 DUP1 DUP4 DUP4 JUMPDEST PUSH1 0x20 DUP4 LT PUSH2 0x1F2E JUMPI DUP1 MLOAD DUP3 MSTORE PUSH1 0x20 DUP3 ADD SWAP2 POP PUSH1 0x20 DUP2 ADD SWAP1 POP PUSH1 0x20 DUP4 SUB SWAP3 POP PUSH2 0x1F0B JUMP JUMPDEST PUSH1 0x1 DUP4 PUSH1 0x20 SUB PUSH2 0x100 EXP SUB DUP1 NOT DUP3 MLOAD AND DUP2 DUP5 MLOAD AND DUP1 DUP3 OR DUP6 MSTORE POP POP POP POP POP POP SWAP1 POP ADD SWAP2 POP POP PUSH1 0x0 PUSH1 0x40 MLOAD DUP1 DUP4 SUB DUP2 PUSH1 0x0 DUP7 GAS CALL SWAP2 POP POP RETURNDATASIZE DUP1 PUSH1 0x0 DUP2 EQ PUSH2 0x1F90 JUMPI PUSH1 0x40 MLOAD SWAP2 POP PUSH1 0x1F NOT PUSH1 0x3F RETURNDATASIZE ADD AND DUP3 ADD PUSH1 0x40 MSTORE RETURNDATASIZE DUP3 MSTORE RETURNDATASIZE PUSH1 0x0 PUSH1 0x20 DUP5 ADD RETURNDATACOPY PUSH2 0x1F95 JUMP JUMPDEST PUSH1 0x60 SWAP2 POP JUMPDEST POP SWAP2 POP SWAP2 POP DUP2 PUSH2 0x200D JUMPI PUSH1 0x40 MLOAD PUSH32 0x8C379A000000000000000000000000000000000000000000000000000000000 DUP2 MSTORE PUSH1 0x4 ADD DUP1 DUP1 PUSH1 0x20 ADD DUP3 DUP2 SUB DUP3 MSTORE PUSH1 0x20 DUP2 MSTORE PUSH1 0x20 ADD DUP1 PUSH32 0x5361666545524332303A206C6F772D6C6576656C2063616C6C206661696C6564 DUP2 MSTORE POP PUSH1 0x20 ADD SWAP2 POP POP PUSH1 0x40 MLOAD DUP1 SWAP2 SUB SWAP1 REVERT JUMPDEST PUSH1 0x0 DUP2 MLOAD GT ISZERO PUSH2 0x2093 JUMPI DUP1 DUP1 PUSH1 0x20 ADD SWAP1 MLOAD PUSH1 0x20 DUP2 LT ISZERO PUSH2 0x202C JUMPI PUSH1 0x0 DUP1 REVERT JUMPDEST DUP2 ADD SWAP1 DUP1 DUP1 MLOAD SWAP1 PUSH1 0x20 ADD SWAP1 SWAP3 SWAP2 SWAP1 POP POP POP PUSH2 0x2092 JUMPI PUSH1 0x40 MLOAD PUSH32 0x8C379A000000000000000000000000000000000000000000000000000000000 DUP2 MSTORE PUSH1 0x4 ADD DUP1 DUP1 PUSH1 0x20 ADD DUP3 DUP2 SUB DUP3 MSTORE PUSH1 0x2A DUP2 MSTORE PUSH1 0x20 ADD DUP1 PUSH2 0x20F8 PUSH1 0x2A SWAP2 CODECOPY PUSH1 0x40 ADD SWAP2 POP POP PUSH1 0x40 MLOAD DUP1 SWAP2 SUB SWAP1 REVERT JUMPDEST JUMPDEST POP POP POP POP JUMP JUMPDEST PUSH1 0x0 DUP1 DUP3 EXTCODESIZE SWAP1 POP PUSH1 0x0 DUP2 GT SWAP2 POP POP SWAP2 SWAP1 POP JUMP INVALID MSTORE8 PUSH2 0x6665 0x4D PUSH2 0x7468 GASPRICE KECCAK256 PUSH14 0x756C7469706C69636174696F6E20 PUSH16 0x766572666C6F7743616C6C6572206973 KECCAK256 PUSH15 0x6F7420526577617264734469737472 PUSH10 0x627574696F6E20636F6E PUSH21 0x726163745361666545524332303A20455243323020 PUSH16 0x7065726174696F6E20646964206E6F74 KECCAK256 PUSH20 0x756363656564A265627A7A7231582057C159B106 SWAP13 0x21 PUSH22 0x8147DB4804E5998803C982AF08DEBA3C18630B6C8C67 PUSH24 0xB564736F6C634300051000324F776E61626C653A206E6577 KECCAK256 PUSH16 0x776E657220697320746865207A65726F KECCAK256 PUSH2 0x6464 PUSH19 0x6573735374616B696E67526577617264734661 PUSH4 0x746F7279 GASPRICE GASPRICE PUSH22 0x70646174653A206E6F74206465706C6F796564537461 PUSH12 0x696E67526577617264734661 PUSH4 0x746F7279 GASPRICE GASPRICE PUSH5 0x65706C6F79 GASPRICE KECCAK256 PUSH2 0x6C72 PUSH6 0x616479206465 PUSH17 0x6C6F7965645374616B696E675265776172 PUSH5 0x7346616374 PUSH16 0x72793A3A6E6F74696679526577617264 COINBASE PUSH14 0x6F756E74733A2063616C6C656420 PUSH3 0x65666F PUSH19 0x6520616E79206465706C6F79735374616B696E PUSH8 0x5265776172647346 PUSH2 0x6374 PUSH16 0x72793A3A6E6F74696679526577617264 COINBASE PUSH14 0x6F756E743A207472616E73666572 KECCAK256 PUSH7 0x61696C65645374 PUSH2 0x6B69 PUSH15 0x6752657761726473466163746F7279 GASPRICE GASPRICE PUSH15 0x6F74696679526577617264416D6F75 PUSH15 0x743A206E6F74207265616479537461 PUSH12 0x696E67526577617264734661 PUSH4 0x746F7279 GASPRICE GASPRICE PUSH15 0x6F74696679526577617264416D6F75 PUSH15 0x743A206E6F74206465706C6F796564 LOG2 PUSH6 0x627A7A723158 KECCAK256 0x2C SWAP9 0xD0 0xD8 RETURNDATACOPY 0x2C LOG4 0xBA PUSH32 0x996B7153407BEE9F0E73C0FD19D7C7E4ECF1FF1A7456664736F6C6343000510 STOP ORIGIN MSTORE8 PUSH21 0x616B696E6752657761726473466163746F72793A3A PUSH4 0x6F6E7374 PUSH19 0x7563746F723A2067656E6573697320746F6F20 PUSH20 0x6F6F6E0000000000000000000000000000000000 "
				},
				"gasEstimates": {
					"creation": {
						"codeDepositCost": "2805800",
						"executionCost": "infinite",
						"totalCost": "infinite"
					},
					"external": {
						"deploy(address,uint256,uint256)": "infinite",
						"isOwner()": "1101",
						"notifyRewardAmount(address)": "infinite",
						"notifyRewardAmounts()": "infinite",
						"owner()": "1172",
						"pullExtraTokens(address,uint256)": "infinite",
						"renounceOwnership()": "24342",
						"rewardsToken()": "1119",
						"stakingRewardsGenesis()": "1050",
						"stakingRewardsInfoByStakingToken(address)": "2918",
						"stakingTokens(uint256)": "2018",
						"transferOwnership(address)": "infinite",
						"update(address,uint256,uint256)": "infinite"
					}
				},
				"methodIdentifiers": {
					"deploy(address,uint256,uint256)": "cfda5478",
					"isOwner()": "8f32d59b",
					"notifyRewardAmount(address)": "81e16298",
					"notifyRewardAmounts()": "ae741d8d",
					"owner()": "8da5cb5b",
					"pullExtraTokens(address,uint256)": "7572719e",
					"renounceOwnership()": "715018a6",
					"rewardsToken()": "d1af0c7d",
					"stakingRewardsGenesis()": "a0928c11",
					"stakingRewardsInfoByStakingToken(address)": "6cf8caf8",
					"stakingTokens(uint256)": "344e5e34",
					"transferOwnership(address)": "f2fde38b",
					"update(address,uint256,uint256)": "d09b6d43"
				}
			},
			"storageLayout": {
				"storage": [
					{
						"astId": 70,
						"contract": "staking/StakingRewardsFactory.sol:StakingRewardsFactory",
						"label": "_owner",
						"offset": 0,
						"slot": "0",
						"type": "t_address"
					},
					{
						"astId": 1352,
						"contract": "staking/StakingRewardsFactory.sol:StakingRewardsFactory",
						"label": "rewardsToken",
						"offset": 0,
						"slot": "1",
						"type": "t_address"
					},
					{
						"astId": 1354,
						"contract": "staking/StakingRewardsFactory.sol:StakingRewardsFactory",
						"label": "stakingRewardsGenesis",
						"offset": 0,
						"slot": "2",
						"type": "t_uint256"
					},
					{
						"astId": 1357,
						"contract": "staking/StakingRewardsFactory.sol:StakingRewardsFactory",
						"label": "stakingTokens",
						"offset": 0,
						"slot": "3",
						"type": "t_array(t_address)dyn_storage"
					},
					{
						"astId": 1368,
						"contract": "staking/StakingRewardsFactory.sol:StakingRewardsFactory",
						"label": "stakingRewardsInfoByStakingToken",
						"offset": 0,
						"slot": "4",
						"type": "t_mapping(t_address,t_struct(StakingRewardsInfo)1364_storage)"
					}
				],
				"types": {
					"t_address": {
						"encoding": "inplace",
						"label": "address",
						"numberOfBytes": "20"
					},
					"t_array(t_address)dyn_storage": {
						"base": "t_address",
						"encoding": "dynamic_array",
						"label": "address[]",
						"numberOfBytes": "32"
					},
					"t_mapping(t_address,t_struct(StakingRewardsInfo)1364_storage)": {
						"encoding": "mapping",
						"key": "t_address",
						"label": "mapping(address => struct StakingRewardsFactory.StakingRewardsInfo)",
						"numberOfBytes": "32",
						"value": "t_struct(StakingRewardsInfo)1364_storage"
					},
					"t_struct(StakingRewardsInfo)1364_storage": {
						"encoding": "inplace",
						"label": "struct StakingRewardsFactory.StakingRewardsInfo",
						"members": [
							{
								"astId": 1359,
								"contract": "staking/StakingRewardsFactory.sol:StakingRewardsFactory",
								"label": "stakingRewards",
								"offset": 0,
								"slot": "0",
								"type": "t_address"
							},
							{
								"astId": 1361,
								"contract": "staking/StakingRewardsFactory.sol:StakingRewardsFactory",
								"label": "rewardAmount",
								"offset": 0,
								"slot": "1",
								"type": "t_uint256"
							},
							{
								"astId": 1363,
								"contract": "staking/StakingRewardsFactory.sol:StakingRewardsFactory",
								"label": "duration",
								"offset": 0,
								"slot": "2",
								"type": "t_uint256"
							}
						],
						"numberOfBytes": "96"
					},
					"t_uint256": {
						"encoding": "inplace",
						"label": "uint256",
						"numberOfBytes": "32"
					}
				}
			},
			"userdoc": {
				"methods": {
					"deploy(address,uint256,uint256)": {
						"notice": "// permissioned functions"
					},
					"notifyRewardAmounts()": {
						"notice": "// permissionless functions"
					}
				}
			}
		}
	}
}