{
	"staking/StakingRewardsFactory.sol": {
		"StakingRewards": {
			"abi": [
				{
					"inputs": [
						{
							"internalType": "address",
							"name": "_rewardsDistribution",
							"type": "address"
						},
						{
							"internalType": "address",
							"name": "_rewardsToken",
							"type": "address"
						},
						{
							"internalType": "address",
							"name": "_stakingToken",
							"type": "address"
						}
					],
					"payable": false,
					"stateMutability": "nonpayable",
					"type": "constructor"
				},
				{
					"anonymous": false,
					"inputs": [
						{
							"indexed": false,
							"internalType": "uint256",
							"name": "reward",
							"type": "uint256"
						},
						{
							"indexed": false,
							"internalType": "uint256",
							"name": "periodFinish",
							"type": "uint256"
						}
					],
					"name": "RewardAdded",
					"type": "event"
				},
				{
					"anonymous": false,
					"inputs": [
						{
							"indexed": true,
							"internalType": "address",
							"name": "user",
							"type": "address"
						},
						{
							"indexed": false,
							"internalType": "uint256",
							"name": "reward",
							"type": "uint256"
						}
					],
					"name": "RewardPaid",
					"type": "event"
				},
				{
					"anonymous": false,
					"inputs": [
						{
							"indexed": true,
							"internalType": "address",
							"name": "user",
							"type": "address"
						},
						{
							"indexed": false,
							"internalType": "uint256",
							"name": "amount",
							"type": "uint256"
						}
					],
					"name": "Staked",
					"type": "event"
				},
				{
					"anonymous": false,
					"inputs": [
						{
							"indexed": true,
							"internalType": "address",
							"name": "user",
							"type": "address"
						},
						{
							"indexed": false,
							"internalType": "uint256",
							"name": "amount",
							"type": "uint256"
						}
					],
					"name": "Withdrawn",
					"type": "event"
				},
				{
					"constant": true,
					"inputs": [
						{
							"internalType": "address",
							"name": "account",
							"type": "address"
						}
					],
					"name": "balanceOf",
					"outputs": [
						{
							"internalType": "uint256",
							"name": "",
							"type": "uint256"
						}
					],
					"payable": false,
					"stateMutability": "view",
					"type": "function"
				},
				{
					"constant": true,
					"inputs": [
						{
							"internalType": "address",
							"name": "account",
							"type": "address"
						}
					],
					"name": "earned",
					"outputs": [
						{
							"internalType": "uint256",
							"name": "",
							"type": "uint256"
						}
					],
					"payable": false,
					"stateMutability": "view",
					"type": "function"
				},
				{
					"constant": false,
					"inputs": [],
					"name": "exit",
					"outputs": [],
					"payable": false,
					"stateMutability": "nonpayable",
					"type": "function"
				},
				{
					"constant": false,
					"inputs": [],
					"name": "getReward",
					"outputs": [],
					"payable": false,
					"stateMutability": "nonpayable",
					"type": "function"
				},
				{
					"constant": true,
					"inputs": [],
					"name": "lastTimeRewardApplicable",
					"outputs": [
						{
							"internalType": "uint256",
							"name": "",
							"type": "uint256"
						}
					],
					"payable": false,
					"stateMutability": "view",
					"type": "function"
				},
				{
					"constant": true,
					"inputs": [],
					"name": "lastUpdateTime",
					"outputs": [
						{
							"internalType": "uint256",
							"name": "",
							"type": "uint256"
						}
					],
					"payable": false,
					"stateMutability": "view",
					"type": "function"
				},
				{
					"constant": false,
					"inputs": [
						{
							"internalType": "uint256",
							"name": "reward",
							"type": "uint256"
						},
						{
							"internalType": "uint256",
							"name": "rewardsDuration",
							"type": "uint256"
						}
					],
					"name": "notifyRewardAmount",
					"outputs": [],
					"payable": false,
					"stateMutability": "nonpayable",
					"type": "function"
				},
				{
					"constant": true,
					"inputs": [],
					"name": "periodFinish",
					"outputs": [
						{
							"internalType": "uint256",
							"name": "",
							"type": "uint256"
						}
					],
					"payable": false,
					"stateMutability": "view",
					"type": "function"
				},
				{
					"constant": true,
					"inputs": [],
					"name": "rewardPerToken",
					"outputs": [
						{
							"internalType": "uint256",
							"name": "",
							"type": "uint256"
						}
					],
					"payable": false,
					"stateMutability": "view",
					"type": "function"
				},
				{
					"constant": true,
					"inputs": [],
					"name": "rewardPerTokenStored",
					"outputs": [
						{
							"internalType": "uint256",
							"name": "",
							"type": "uint256"
						}
					],
					"payable": false,
					"stateMutability": "view",
					"type": "function"
				},
				{
					"constant": true,
					"inputs": [],
					"name": "rewardRate",
					"outputs": [
						{
							"internalType": "uint256",
							"name": "",
							"type": "uint256"
						}
					],
					"payable": false,
					"stateMutability": "view",
					"type": "function"
				},
				{
					"constant": true,
					"inputs": [
						{
							"internalType": "address",
							"name": "",
							"type": "address"
						}
					],
					"name": "rewards",
					"outputs": [
						{
							"internalType": "uint256",
							"name": "",
							"type": "uint256"
						}
					],
					"payable": false,
					"stateMutability": "view",
					"type": "function"
				},
				{
					"constant": true,
					"inputs": [],
					"name": "rewardsDistribution",
					"outputs": [
						{
							"internalType": "address",
							"name": "",
							"type": "address"
						}
					],
					"payable": false,
					"stateMutability": "view",
					"type": "function"
				},
				{
					"constant": true,
					"inputs": [],
					"name": "rewardsToken",
					"outputs": [
						{
							"internalType": "contract IERC20",
							"name": "",
							"type": "address"
						}
					],
					"payable": false,
					"stateMutability": "view",
					"type": "function"
				},
				{
					"constant": false,
					"inputs": [
						{
							"internalType": "uint256",
							"name": "amount",
							"type": "uint256"
						}
					],
					"name": "stake",
					"outputs": [],
					"payable": false,
					"stateMutability": "nonpayable",
					"type": "function"
				},
				{
					"constant": false,
					"inputs": [
						{
							"internalType": "uint256",
							"name": "amount",
							"type": "uint256"
						},
						{
							"internalType": "uint256",
							"name": "deadline",
							"type": "uint256"
						},
						{
							"internalType": "uint8",
							"name": "v",
							"type": "uint8"
						},
						{
							"internalType": "bytes32",
							"name": "r",
							"type": "bytes32"
						},
						{
							"internalType": "bytes32",
							"name": "s",
							"type": "bytes32"
						}
					],
					"name": "stakeWithPermit",
					"outputs": [],
					"payable": false,
					"stateMutability": "nonpayable",
					"type": "function"
				},
				{
					"constant": true,
					"inputs": [],
					"name": "stakingToken",
					"outputs": [
						{
							"internalType": "contract IERC20",
							"name": "",
							"type": "address"
						}
					],
					"payable": false,
					"stateMutability": "view",
					"type": "function"
				},
				{
					"constant": true,
					"inputs": [],
					"name": "totalSupply",
					"outputs": [
						{
							"internalType": "uint256",
							"name": "",
							"type": "uint256"
						}
					],
					"payable": false,
					"stateMutability": "view",
					"type": "function"
				},
				{
					"constant": true,
					"inputs": [
						{
							"internalType": "address",
							"name": "",
							"type": "address"
						}
					],
					"name": "userRewardPerTokenPaid",
					"outputs": [
						{
							"internalType": "uint256",
							"name": "",
							"type": "uint256"
						}
					],
					"payable": false,
					"stateMutability": "view",
					"type": "function"
				},
				{
					"constant": false,
					"inputs": [
						{
							"internalType": "uint256",
							"name": "amount",
							"type": "uint256"
						}
					],
					"name": "withdraw",
					"outputs": [],
					"payable": false,
					"stateMutability": "nonpayable",
					"type": "function"
				}
			],
			"devdoc": {
				"methods": {}
			},
			"evm": {
				"assembly": "    /* \"staking/StakingRewardsFactory.sol\":17742:23265  contract StakingRewards is IStakingRewards, RewardsDistributionRecipient, ReentrancyGuard {... */\n  mstore(0x40, 0x80)\n    /* \"staking/StakingRewardsFactory.sol\":18046:18047  0 */\n  0x00\n    /* \"staking/StakingRewardsFactory.sol\":18016:18047  uint256 public periodFinish = 0 */\n  0x04\n  sstore\n    /* \"staking/StakingRewardsFactory.sol\":18081:18082  0 */\n  0x00\n    /* \"staking/StakingRewardsFactory.sol\":18053:18082  uint256 public rewardRate = 0 */\n  0x05\n  sstore\n    /* \"staking/StakingRewardsFactory.sol\":18408:18684  constructor(... */\n  callvalue\n    /* \"--CODEGEN--\":8:17   */\n  dup1\n    /* \"--CODEGEN--\":5:7   */\n  iszero\n  tag_1\n  jumpi\n    /* \"--CODEGEN--\":30:31   */\n  0x00\n    /* \"--CODEGEN--\":27:28   */\n  dup1\n    /* \"--CODEGEN--\":20:32   */\n  revert\n    /* \"--CODEGEN--\":5:7   */\ntag_1:\n    /* \"staking/StakingRewardsFactory.sol\":18408:18684  constructor(... */\n  pop\n  mload(0x40)\n  sub(codesize, bytecodeSize)\n  dup1\n  bytecodeSize\n  dup4\n  codecopy\n  dup2\n  dup2\n  add\n  0x40\n  mstore\n    /* \"--CODEGEN--\":13:15   */\n  0x60\n    /* \"--CODEGEN--\":8:11   */\n  dup2\n    /* \"--CODEGEN--\":5:16   */\n  lt\n    /* \"--CODEGEN--\":2:4   */\n  iszero\n  tag_2\n  jumpi\n    /* \"--CODEGEN--\":29:30   */\n  0x00\n    /* \"--CODEGEN--\":26:27   */\n  dup1\n    /* \"--CODEGEN--\":19:31   */\n  revert\n    /* \"--CODEGEN--\":2:4   */\ntag_2:\n    /* \"staking/StakingRewardsFactory.sol\":18408:18684  constructor(... */\n  dup2\n  add\n  swap1\n  dup1\n  dup1\n  mload\n  swap1\n  0x20\n  add\n  swap1\n  swap3\n  swap2\n  swap1\n  dup1\n  mload\n  swap1\n  0x20\n  add\n  swap1\n  swap3\n  swap2\n  swap1\n  dup1\n  mload\n  swap1\n  0x20\n  add\n  swap1\n  swap3\n  swap2\n  swap1\n  pop\n  pop\n  pop\n    /* \"staking/StakingRewardsFactory.sol\":16258:16259  1 */\n  0x01\n    /* \"staking/StakingRewardsFactory.sol\":16242:16255  _guardCounter */\n  dup1\n    /* \"staking/StakingRewardsFactory.sol\":16242:16259  _guardCounter = 1 */\n  dup2\n  swap1\n  sstore\n  pop\n    /* \"staking/StakingRewardsFactory.sol\":18565:18578  _rewardsToken */\n  dup2\n    /* \"staking/StakingRewardsFactory.sol\":18543:18555  rewardsToken */\n  0x02\n  0x00\n    /* \"staking/StakingRewardsFactory.sol\":18543:18579  rewardsToken = IERC20(_rewardsToken) */\n  0x0100\n  exp\n  dup2\n  sload\n  dup2\n  0xffffffffffffffffffffffffffffffffffffffff\n  mul\n  not\n  and\n  swap1\n  dup4\n  0xffffffffffffffffffffffffffffffffffffffff\n  and\n  mul\n  or\n  swap1\n  sstore\n  pop\n    /* \"staking/StakingRewardsFactory.sol\":18611:18624  _stakingToken */\n  dup1\n    /* \"staking/StakingRewardsFactory.sol\":18589:18601  stakingToken */\n  0x03\n  0x00\n    /* \"staking/StakingRewardsFactory.sol\":18589:18625  stakingToken = IERC20(_stakingToken) */\n  0x0100\n  exp\n  dup2\n  sload\n  dup2\n  0xffffffffffffffffffffffffffffffffffffffff\n  mul\n  not\n  and\n  swap1\n  dup4\n  0xffffffffffffffffffffffffffffffffffffffff\n  and\n  mul\n  or\n  swap1\n  sstore\n  pop\n    /* \"staking/StakingRewardsFactory.sol\":18657:18677  _rewardsDistribution */\n  dup3\n    /* \"staking/StakingRewardsFactory.sol\":18635:18654  rewardsDistribution */\n  0x00\n  dup1\n    /* \"staking/StakingRewardsFactory.sol\":18635:18677  rewardsDistribution = _rewardsDistribution */\n  0x0100\n  exp\n  dup2\n  sload\n  dup2\n  0xffffffffffffffffffffffffffffffffffffffff\n  mul\n  not\n  and\n  swap1\n  dup4\n  0xffffffffffffffffffffffffffffffffffffffff\n  and\n  mul\n  or\n  swap1\n  sstore\n  pop\n    /* \"staking/StakingRewardsFactory.sol\":18408:18684  constructor(... */\n  pop\n  pop\n  pop\n    /* \"staking/StakingRewardsFactory.sol\":17742:23265  contract StakingRewards is IStakingRewards, RewardsDistributionRecipient, ReentrancyGuard {... */\n  dataSize(sub_0)\n  dup1\n  dataOffset(sub_0)\n  0x00\n  codecopy\n  0x00\n  return\nstop\n\nsub_0: assembly {\n        /* \"staking/StakingRewardsFactory.sol\":17742:23265  contract StakingRewards is IStakingRewards, RewardsDistributionRecipient, ReentrancyGuard {... */\n      mstore(0x40, 0x80)\n      callvalue\n        /* \"--CODEGEN--\":8:17   */\n      dup1\n        /* \"--CODEGEN--\":5:7   */\n      iszero\n      tag_1\n      jumpi\n        /* \"--CODEGEN--\":30:31   */\n      0x00\n        /* \"--CODEGEN--\":27:28   */\n      dup1\n        /* \"--CODEGEN--\":20:32   */\n      revert\n        /* \"--CODEGEN--\":5:7   */\n    tag_1:\n        /* \"staking/StakingRewardsFactory.sol\":17742:23265  contract StakingRewards is IStakingRewards, RewardsDistributionRecipient, ReentrancyGuard {... */\n      pop\n      jumpi(tag_2, lt(calldatasize, 0x04))\n      shr(0xe0, calldataload(0x00))\n      dup1\n      0x80faa57d\n      gt\n      tag_23\n      jumpi\n      dup1\n      0xd1af0c7d\n      gt\n      tag_24\n      jumpi\n      dup1\n      0xd1af0c7d\n      eq\n      tag_18\n      jumpi\n      dup1\n      0xdf136d65\n      eq\n      tag_19\n      jumpi\n      dup1\n      0xe9fad8ee\n      eq\n      tag_20\n      jumpi\n      dup1\n      0xebe2b12b\n      eq\n      tag_21\n      jumpi\n      dup1\n      0xecd9ba82\n      eq\n      tag_22\n      jumpi\n      jump(tag_2)\n    tag_24:\n      dup1\n      0x80faa57d\n      eq\n      tag_13\n      jumpi\n      dup1\n      0x8b876347\n      eq\n      tag_14\n      jumpi\n      dup1\n      0xa694fc3a\n      eq\n      tag_15\n      jumpi\n      dup1\n      0xc8f33c91\n      eq\n      tag_16\n      jumpi\n      dup1\n      0xcd3daf9d\n      eq\n      tag_17\n      jumpi\n      jump(tag_2)\n    tag_23:\n      dup1\n      0x3d18b912\n      gt\n      tag_25\n      jumpi\n      dup1\n      0x3d18b912\n      eq\n      tag_8\n      jumpi\n      dup1\n      0x3fc6df6e\n      eq\n      tag_9\n      jumpi\n      dup1\n      0x70a08231\n      eq\n      tag_10\n      jumpi\n      dup1\n      0x72f702f3\n      eq\n      tag_11\n      jumpi\n      dup1\n      0x7b0a47ee\n      eq\n      tag_12\n      jumpi\n      jump(tag_2)\n    tag_25:\n      dup1\n      0x8cc262\n      eq\n      tag_3\n      jumpi\n      dup1\n      0x0700037d\n      eq\n      tag_4\n      jumpi\n      dup1\n      0x18160ddd\n      eq\n      tag_5\n      jumpi\n      dup1\n      0x246132f9\n      eq\n      tag_6\n      jumpi\n      dup1\n      0x2e1a7d4d\n      eq\n      tag_7\n      jumpi\n    tag_2:\n      0x00\n      dup1\n      revert\n        /* \"staking/StakingRewardsFactory.sol\":19405:19601  function earned(address account) public view returns (uint256) {... */\n    tag_3:\n      tag_26\n      0x04\n      dup1\n      calldatasize\n      sub\n        /* \"--CODEGEN--\":13:15   */\n      0x20\n        /* \"--CODEGEN--\":8:11   */\n      dup2\n        /* \"--CODEGEN--\":5:16   */\n      lt\n        /* \"--CODEGEN--\":2:4   */\n      iszero\n      tag_27\n      jumpi\n        /* \"--CODEGEN--\":29:30   */\n      0x00\n        /* \"--CODEGEN--\":26:27   */\n      dup1\n        /* \"--CODEGEN--\":19:31   */\n      revert\n        /* \"--CODEGEN--\":2:4   */\n    tag_27:\n        /* \"staking/StakingRewardsFactory.sol\":19405:19601  function earned(address account) public view returns (uint256) {... */\n      dup2\n      add\n      swap1\n      dup1\n      dup1\n      calldataload\n      0xffffffffffffffffffffffffffffffffffffffff\n      and\n      swap1\n      0x20\n      add\n      swap1\n      swap3\n      swap2\n      swap1\n      pop\n      pop\n      pop\n      tag_28\n      jump\t// in\n    tag_26:\n      mload(0x40)\n      dup1\n      dup3\n      dup2\n      mstore\n      0x20\n      add\n      swap2\n      pop\n      pop\n      mload(0x40)\n      dup1\n      swap2\n      sub\n      swap1\n      return\n        /* \"staking/StakingRewardsFactory.sol\":18228:18270  mapping(address => uint256) public rewards */\n    tag_4:\n      tag_29\n      0x04\n      dup1\n      calldatasize\n      sub\n        /* \"--CODEGEN--\":13:15   */\n      0x20\n        /* \"--CODEGEN--\":8:11   */\n      dup2\n        /* \"--CODEGEN--\":5:16   */\n      lt\n        /* \"--CODEGEN--\":2:4   */\n      iszero\n      tag_30\n      jumpi\n        /* \"--CODEGEN--\":29:30   */\n      0x00\n        /* \"--CODEGEN--\":26:27   */\n      dup1\n        /* \"--CODEGEN--\":19:31   */\n      revert\n        /* \"--CODEGEN--\":2:4   */\n    tag_30:\n        /* \"staking/StakingRewardsFactory.sol\":18228:18270  mapping(address => uint256) public rewards */\n      dup2\n      add\n      swap1\n      dup1\n      dup1\n      calldataload\n      0xffffffffffffffffffffffffffffffffffffffff\n      and\n      swap1\n      0x20\n      add\n      swap1\n      swap3\n      swap2\n      swap1\n      pop\n      pop\n      pop\n      tag_31\n      jump\t// in\n    tag_29:\n      mload(0x40)\n      dup1\n      dup3\n      dup2\n      mstore\n      0x20\n      add\n      swap2\n      pop\n      pop\n      mload(0x40)\n      dup1\n      swap2\n      sub\n      swap1\n      return\n        /* \"staking/StakingRewardsFactory.sol\":18729:18820  function totalSupply() external view returns (uint256) {... */\n    tag_5:\n      tag_32\n      tag_33\n      jump\t// in\n    tag_32:\n      mload(0x40)\n      dup1\n      dup3\n      dup2\n      mstore\n      0x20\n      add\n      swap2\n      pop\n      pop\n      mload(0x40)\n      dup1\n      swap2\n      sub\n      swap1\n      return\n        /* \"staking/StakingRewardsFactory.sol\":21399:22615  function notifyRewardAmount(uint256 reward, uint256 rewardsDuration) external onlyRewardsDistribution updateReward(address(0)) {... */\n    tag_6:\n      tag_34\n      0x04\n      dup1\n      calldatasize\n      sub\n        /* \"--CODEGEN--\":13:15   */\n      0x40\n        /* \"--CODEGEN--\":8:11   */\n      dup2\n        /* \"--CODEGEN--\":5:16   */\n      lt\n        /* \"--CODEGEN--\":2:4   */\n      iszero\n      tag_35\n      jumpi\n        /* \"--CODEGEN--\":29:30   */\n      0x00\n        /* \"--CODEGEN--\":26:27   */\n      dup1\n        /* \"--CODEGEN--\":19:31   */\n      revert\n        /* \"--CODEGEN--\":2:4   */\n    tag_35:\n        /* \"staking/StakingRewardsFactory.sol\":21399:22615  function notifyRewardAmount(uint256 reward, uint256 rewardsDuration) external onlyRewardsDistribution updateReward(address(0)) {... */\n      dup2\n      add\n      swap1\n      dup1\n      dup1\n      calldataload\n      swap1\n      0x20\n      add\n      swap1\n      swap3\n      swap2\n      swap1\n      dup1\n      calldataload\n      swap1\n      0x20\n      add\n      swap1\n      swap3\n      swap2\n      swap1\n      pop\n      pop\n      pop\n      tag_36\n      jump\t// in\n    tag_34:\n      stop\n        /* \"staking/StakingRewardsFactory.sol\":20582:20933  function withdraw(uint256 amount) public nonReentrant updateReward(msg.sender) {... */\n    tag_7:\n      tag_37\n      0x04\n      dup1\n      calldatasize\n      sub\n        /* \"--CODEGEN--\":13:15   */\n      0x20\n        /* \"--CODEGEN--\":8:11   */\n      dup2\n        /* \"--CODEGEN--\":5:16   */\n      lt\n        /* \"--CODEGEN--\":2:4   */\n      iszero\n      tag_38\n      jumpi\n        /* \"--CODEGEN--\":29:30   */\n      0x00\n        /* \"--CODEGEN--\":26:27   */\n      dup1\n        /* \"--CODEGEN--\":19:31   */\n      revert\n        /* \"--CODEGEN--\":2:4   */\n    tag_38:\n        /* \"staking/StakingRewardsFactory.sol\":20582:20933  function withdraw(uint256 amount) public nonReentrant updateReward(msg.sender) {... */\n      dup2\n      add\n      swap1\n      dup1\n      dup1\n      calldataload\n      swap1\n      0x20\n      add\n      swap1\n      swap3\n      swap2\n      swap1\n      pop\n      pop\n      pop\n      tag_39\n      jump\t// in\n    tag_37:\n      stop\n        /* \"staking/StakingRewardsFactory.sol\":20939:21239  function getReward() public nonReentrant updateReward(msg.sender) {... */\n    tag_8:\n      tag_40\n      tag_41\n      jump\t// in\n    tag_40:\n      stop\n        /* \"staking/StakingRewardsFactory.sol\":17469:17503  address public rewardsDistribution */\n    tag_9:\n      tag_42\n      tag_43\n      jump\t// in\n    tag_42:\n      mload(0x40)\n      dup1\n      dup3\n      0xffffffffffffffffffffffffffffffffffffffff\n      and\n      0xffffffffffffffffffffffffffffffffffffffff\n      and\n      dup2\n      mstore\n      0x20\n      add\n      swap2\n      pop\n      pop\n      mload(0x40)\n      dup1\n      swap2\n      sub\n      swap1\n      return\n        /* \"staking/StakingRewardsFactory.sol\":18826:18936  function balanceOf(address account) external view returns (uint256) {... */\n    tag_10:\n      tag_44\n      0x04\n      dup1\n      calldatasize\n      sub\n        /* \"--CODEGEN--\":13:15   */\n      0x20\n        /* \"--CODEGEN--\":8:11   */\n      dup2\n        /* \"--CODEGEN--\":5:16   */\n      lt\n        /* \"--CODEGEN--\":2:4   */\n      iszero\n      tag_45\n      jumpi\n        /* \"--CODEGEN--\":29:30   */\n      0x00\n        /* \"--CODEGEN--\":26:27   */\n      dup1\n        /* \"--CODEGEN--\":19:31   */\n      revert\n        /* \"--CODEGEN--\":2:4   */\n    tag_45:\n        /* \"staking/StakingRewardsFactory.sol\":18826:18936  function balanceOf(address account) external view returns (uint256) {... */\n      dup2\n      add\n      swap1\n      dup1\n      dup1\n      calldataload\n      0xffffffffffffffffffffffffffffffffffffffff\n      and\n      swap1\n      0x20\n      add\n      swap1\n      swap3\n      swap2\n      swap1\n      pop\n      pop\n      pop\n      tag_46\n      jump\t// in\n    tag_44:\n      mload(0x40)\n      dup1\n      dup3\n      dup2\n      mstore\n      0x20\n      add\n      swap2\n      pop\n      pop\n      mload(0x40)\n      dup1\n      swap2\n      sub\n      swap1\n      return\n        /* \"staking/StakingRewardsFactory.sol\":17984:18010  IERC20 public stakingToken */\n    tag_11:\n      tag_47\n      tag_48\n      jump\t// in\n    tag_47:\n      mload(0x40)\n      dup1\n      dup3\n      0xffffffffffffffffffffffffffffffffffffffff\n      and\n      0xffffffffffffffffffffffffffffffffffffffff\n      and\n      dup2\n      mstore\n      0x20\n      add\n      swap2\n      pop\n      pop\n      mload(0x40)\n      dup1\n      swap2\n      sub\n      swap1\n      return\n        /* \"staking/StakingRewardsFactory.sol\":18053:18082  uint256 public rewardRate = 0 */\n    tag_12:\n      tag_49\n      tag_50\n      jump\t// in\n    tag_49:\n      mload(0x40)\n      dup1\n      dup3\n      dup2\n      mstore\n      0x20\n      add\n      swap2\n      pop\n      pop\n      mload(0x40)\n      dup1\n      swap2\n      sub\n      swap1\n      return\n        /* \"staking/StakingRewardsFactory.sol\":18942:19071  function lastTimeRewardApplicable() public view returns (uint256) {... */\n    tag_13:\n      tag_51\n      tag_52\n      jump\t// in\n    tag_51:\n      mload(0x40)\n      dup1\n      dup3\n      dup2\n      mstore\n      0x20\n      add\n      swap2\n      pop\n      pop\n      mload(0x40)\n      dup1\n      swap2\n      sub\n      swap1\n      return\n        /* \"staking/StakingRewardsFactory.sol\":18165:18222  mapping(address => uint256) public userRewardPerTokenPaid */\n    tag_14:\n      tag_53\n      0x04\n      dup1\n      calldatasize\n      sub\n        /* \"--CODEGEN--\":13:15   */\n      0x20\n        /* \"--CODEGEN--\":8:11   */\n      dup2\n        /* \"--CODEGEN--\":5:16   */\n      lt\n        /* \"--CODEGEN--\":2:4   */\n      iszero\n      tag_54\n      jumpi\n        /* \"--CODEGEN--\":29:30   */\n      0x00\n        /* \"--CODEGEN--\":26:27   */\n      dup1\n        /* \"--CODEGEN--\":19:31   */\n      revert\n        /* \"--CODEGEN--\":2:4   */\n    tag_54:\n        /* \"staking/StakingRewardsFactory.sol\":18165:18222  mapping(address => uint256) public userRewardPerTokenPaid */\n      dup2\n      add\n      swap1\n      dup1\n      dup1\n      calldataload\n      0xffffffffffffffffffffffffffffffffffffffff\n      and\n      swap1\n      0x20\n      add\n      swap1\n      swap3\n      swap2\n      swap1\n      pop\n      pop\n      pop\n      tag_55\n      jump\t// in\n    tag_53:\n      mload(0x40)\n      dup1\n      dup3\n      dup2\n      mstore\n      0x20\n      add\n      swap2\n      pop\n      pop\n      mload(0x40)\n      dup1\n      swap2\n      sub\n      swap1\n      return\n        /* \"staking/StakingRewardsFactory.sol\":20213:20576  function stake(uint256 amount) external nonReentrant updateReward(msg.sender) {... */\n    tag_15:\n      tag_56\n      0x04\n      dup1\n      calldatasize\n      sub\n        /* \"--CODEGEN--\":13:15   */\n      0x20\n        /* \"--CODEGEN--\":8:11   */\n      dup2\n        /* \"--CODEGEN--\":5:16   */\n      lt\n        /* \"--CODEGEN--\":2:4   */\n      iszero\n      tag_57\n      jumpi\n        /* \"--CODEGEN--\":29:30   */\n      0x00\n        /* \"--CODEGEN--\":26:27   */\n      dup1\n        /* \"--CODEGEN--\":19:31   */\n      revert\n        /* \"--CODEGEN--\":2:4   */\n    tag_57:\n        /* \"staking/StakingRewardsFactory.sol\":20213:20576  function stake(uint256 amount) external nonReentrant updateReward(msg.sender) {... */\n      dup2\n      add\n      swap1\n      dup1\n      dup1\n      calldataload\n      swap1\n      0x20\n      add\n      swap1\n      swap3\n      swap2\n      swap1\n      pop\n      pop\n      pop\n      tag_58\n      jump\t// in\n    tag_56:\n      stop\n        /* \"staking/StakingRewardsFactory.sol\":18088:18117  uint256 public lastUpdateTime */\n    tag_16:\n      tag_59\n      tag_60\n      jump\t// in\n    tag_59:\n      mload(0x40)\n      dup1\n      dup3\n      dup2\n      mstore\n      0x20\n      add\n      swap2\n      pop\n      pop\n      mload(0x40)\n      dup1\n      swap2\n      sub\n      swap1\n      return\n        /* \"staking/StakingRewardsFactory.sol\":19077:19399  function rewardPerToken() public view returns (uint256) {... */\n    tag_17:\n      tag_61\n      tag_62\n      jump\t// in\n    tag_61:\n      mload(0x40)\n      dup1\n      dup3\n      dup2\n      mstore\n      0x20\n      add\n      swap2\n      pop\n      pop\n      mload(0x40)\n      dup1\n      swap2\n      sub\n      swap1\n      return\n        /* \"staking/StakingRewardsFactory.sol\":17952:17978  IERC20 public rewardsToken */\n    tag_18:\n      tag_63\n      tag_64\n      jump\t// in\n    tag_63:\n      mload(0x40)\n      dup1\n      dup3\n      0xffffffffffffffffffffffffffffffffffffffff\n      and\n      0xffffffffffffffffffffffffffffffffffffffff\n      and\n      dup2\n      mstore\n      0x20\n      add\n      swap2\n      pop\n      pop\n      mload(0x40)\n      dup1\n      swap2\n      sub\n      swap1\n      return\n        /* \"staking/StakingRewardsFactory.sol\":18123:18158  uint256 public rewardPerTokenStored */\n    tag_19:\n      tag_65\n      tag_66\n      jump\t// in\n    tag_65:\n      mload(0x40)\n      dup1\n      dup3\n      dup2\n      mstore\n      0x20\n      add\n      swap2\n      pop\n      pop\n      mload(0x40)\n      dup1\n      swap2\n      sub\n      swap1\n      return\n        /* \"staking/StakingRewardsFactory.sol\":21245:21339  function exit() external {... */\n    tag_20:\n      tag_67\n      tag_68\n      jump\t// in\n    tag_67:\n      stop\n        /* \"staking/StakingRewardsFactory.sol\":18016:18047  uint256 public periodFinish = 0 */\n    tag_21:\n      tag_69\n      tag_70\n      jump\t// in\n    tag_69:\n      mload(0x40)\n      dup1\n      dup3\n      dup2\n      mstore\n      0x20\n      add\n      swap2\n      pop\n      pop\n      mload(0x40)\n      dup1\n      swap2\n      sub\n      swap1\n      return\n        /* \"staking/StakingRewardsFactory.sol\":19659:20207  function stakeWithPermit(uint256 amount, uint deadline, uint8 v, bytes32 r, bytes32 s) external nonReentrant updateReward(msg.sender) {... */\n    tag_22:\n      tag_71\n      0x04\n      dup1\n      calldatasize\n      sub\n        /* \"--CODEGEN--\":13:16   */\n      0xa0\n        /* \"--CODEGEN--\":8:11   */\n      dup2\n        /* \"--CODEGEN--\":5:17   */\n      lt\n        /* \"--CODEGEN--\":2:4   */\n      iszero\n      tag_72\n      jumpi\n        /* \"--CODEGEN--\":30:31   */\n      0x00\n        /* \"--CODEGEN--\":27:28   */\n      dup1\n        /* \"--CODEGEN--\":20:32   */\n      revert\n        /* \"--CODEGEN--\":2:4   */\n    tag_72:\n        /* \"staking/StakingRewardsFactory.sol\":19659:20207  function stakeWithPermit(uint256 amount, uint deadline, uint8 v, bytes32 r, bytes32 s) external nonReentrant updateReward(msg.sender) {... */\n      dup2\n      add\n      swap1\n      dup1\n      dup1\n      calldataload\n      swap1\n      0x20\n      add\n      swap1\n      swap3\n      swap2\n      swap1\n      dup1\n      calldataload\n      swap1\n      0x20\n      add\n      swap1\n      swap3\n      swap2\n      swap1\n      dup1\n      calldataload\n      0xff\n      and\n      swap1\n      0x20\n      add\n      swap1\n      swap3\n      swap2\n      swap1\n      dup1\n      calldataload\n      swap1\n      0x20\n      add\n      swap1\n      swap3\n      swap2\n      swap1\n      dup1\n      calldataload\n      swap1\n      0x20\n      add\n      swap1\n      swap3\n      swap2\n      swap1\n      pop\n      pop\n      pop\n      tag_73\n      jump\t// in\n    tag_71:\n      stop\n        /* \"staking/StakingRewardsFactory.sol\":19405:19601  function earned(address account) public view returns (uint256) {... */\n    tag_28:\n        /* \"staking/StakingRewardsFactory.sol\":19459:19466  uint256 */\n      0x00\n        /* \"staking/StakingRewardsFactory.sol\":19485:19594  _balances[account].mul(rewardPerToken().sub(userRewardPerTokenPaid[account])).div(1e18).add(rewards[account]) */\n      tag_75\n        /* \"staking/StakingRewardsFactory.sol\":19577:19584  rewards */\n      0x09\n        /* \"staking/StakingRewardsFactory.sol\":19577:19593  rewards[account] */\n      0x00\n        /* \"staking/StakingRewardsFactory.sol\":19585:19592  account */\n      dup5\n        /* \"staking/StakingRewardsFactory.sol\":19577:19593  rewards[account] */\n      0xffffffffffffffffffffffffffffffffffffffff\n      and\n      0xffffffffffffffffffffffffffffffffffffffff\n      and\n      dup2\n      mstore\n      0x20\n      add\n      swap1\n      dup2\n      mstore\n      0x20\n      add\n      0x00\n      keccak256\n      sload\n        /* \"staking/StakingRewardsFactory.sol\":19485:19572  _balances[account].mul(rewardPerToken().sub(userRewardPerTokenPaid[account])).div(1e18) */\n      tag_76\n        /* \"staking/StakingRewardsFactory.sol\":19567:19571  1e18 */\n      0x0de0b6b3a7640000\n        /* \"staking/StakingRewardsFactory.sol\":19485:19562  _balances[account].mul(rewardPerToken().sub(userRewardPerTokenPaid[account])) */\n      tag_77\n        /* \"staking/StakingRewardsFactory.sol\":19508:19561  rewardPerToken().sub(userRewardPerTokenPaid[account]) */\n      tag_78\n        /* \"staking/StakingRewardsFactory.sol\":19529:19551  userRewardPerTokenPaid */\n      0x08\n        /* \"staking/StakingRewardsFactory.sol\":19529:19560  userRewardPerTokenPaid[account] */\n      0x00\n        /* \"staking/StakingRewardsFactory.sol\":19552:19559  account */\n      dup10\n        /* \"staking/StakingRewardsFactory.sol\":19529:19560  userRewardPerTokenPaid[account] */\n      0xffffffffffffffffffffffffffffffffffffffff\n      and\n      0xffffffffffffffffffffffffffffffffffffffff\n      and\n      dup2\n      mstore\n      0x20\n      add\n      swap1\n      dup2\n      mstore\n      0x20\n      add\n      0x00\n      keccak256\n      sload\n        /* \"staking/StakingRewardsFactory.sol\":19508:19524  rewardPerToken() */\n      tag_79\n        /* \"staking/StakingRewardsFactory.sol\":19508:19522  rewardPerToken */\n      tag_62\n        /* \"staking/StakingRewardsFactory.sol\":19508:19524  rewardPerToken() */\n      jump\t// in\n    tag_79:\n        /* \"staking/StakingRewardsFactory.sol\":19508:19528  rewardPerToken().sub */\n      tag_80\n      swap1\n        /* \"staking/StakingRewardsFactory.sol\":19508:19561  rewardPerToken().sub(userRewardPerTokenPaid[account]) */\n      swap2\n      swap1\n      0xffffffff\n      and\n      jump\t// in\n    tag_78:\n        /* \"staking/StakingRewardsFactory.sol\":19485:19494  _balances */\n      0x0b\n        /* \"staking/StakingRewardsFactory.sol\":19485:19503  _balances[account] */\n      0x00\n        /* \"staking/StakingRewardsFactory.sol\":19495:19502  account */\n      dup10\n        /* \"staking/StakingRewardsFactory.sol\":19485:19503  _balances[account] */\n      0xffffffffffffffffffffffffffffffffffffffff\n      and\n      0xffffffffffffffffffffffffffffffffffffffff\n      and\n      dup2\n      mstore\n      0x20\n      add\n      swap1\n      dup2\n      mstore\n      0x20\n      add\n      0x00\n      keccak256\n      sload\n        /* \"staking/StakingRewardsFactory.sol\":19485:19507  _balances[account].mul */\n      tag_81\n      swap1\n        /* \"staking/StakingRewardsFactory.sol\":19485:19562  _balances[account].mul(rewardPerToken().sub(userRewardPerTokenPaid[account])) */\n      swap2\n      swap1\n      0xffffffff\n      and\n      jump\t// in\n    tag_77:\n        /* \"staking/StakingRewardsFactory.sol\":19485:19566  _balances[account].mul(rewardPerToken().sub(userRewardPerTokenPaid[account])).div */\n      tag_82\n      swap1\n        /* \"staking/StakingRewardsFactory.sol\":19485:19572  _balances[account].mul(rewardPerToken().sub(userRewardPerTokenPaid[account])).div(1e18) */\n      swap2\n      swap1\n      0xffffffff\n      and\n      jump\t// in\n    tag_76:\n        /* \"staking/StakingRewardsFactory.sol\":19485:19576  _balances[account].mul(rewardPerToken().sub(userRewardPerTokenPaid[account])).div(1e18).add */\n      tag_83\n      swap1\n        /* \"staking/StakingRewardsFactory.sol\":19485:19594  _balances[account].mul(rewardPerToken().sub(userRewardPerTokenPaid[account])).div(1e18).add(rewards[account]) */\n      swap2\n      swap1\n      0xffffffff\n      and\n      jump\t// in\n    tag_75:\n        /* \"staking/StakingRewardsFactory.sol\":19478:19594  return _balances[account].mul(rewardPerToken().sub(userRewardPerTokenPaid[account])).div(1e18).add(rewards[account]) */\n      swap1\n      pop\n        /* \"staking/StakingRewardsFactory.sol\":19405:19601  function earned(address account) public view returns (uint256) {... */\n      swap2\n      swap1\n      pop\n      jump\t// out\n        /* \"staking/StakingRewardsFactory.sol\":18228:18270  mapping(address => uint256) public rewards */\n    tag_31:\n      mstore(0x20, 0x09)\n      dup1\n      0x00\n      mstore\n      keccak256(0x00, 0x40)\n      0x00\n      swap2\n      pop\n      swap1\n      pop\n      sload\n      dup2\n      jump\t// out\n        /* \"staking/StakingRewardsFactory.sol\":18729:18820  function totalSupply() external view returns (uint256) {... */\n    tag_33:\n        /* \"staking/StakingRewardsFactory.sol\":18775:18782  uint256 */\n      0x00\n        /* \"staking/StakingRewardsFactory.sol\":18801:18813  _totalSupply */\n      sload(0x0a)\n        /* \"staking/StakingRewardsFactory.sol\":18794:18813  return _totalSupply */\n      swap1\n      pop\n        /* \"staking/StakingRewardsFactory.sol\":18729:18820  function totalSupply() external view returns (uint256) {... */\n      swap1\n      jump\t// out\n        /* \"staking/StakingRewardsFactory.sol\":21399:22615  function notifyRewardAmount(uint256 reward, uint256 rewardsDuration) external onlyRewardsDistribution updateReward(address(0)) {... */\n    tag_36:\n        /* \"staking/StakingRewardsFactory.sol\":17654:17673  rewardsDistribution */\n      0x00\n      dup1\n      swap1\n      sload\n      swap1\n      0x0100\n      exp\n      swap1\n      div\n      0xffffffffffffffffffffffffffffffffffffffff\n      and\n        /* \"staking/StakingRewardsFactory.sol\":17640:17673  msg.sender == rewardsDistribution */\n      0xffffffffffffffffffffffffffffffffffffffff\n      and\n        /* \"staking/StakingRewardsFactory.sol\":17640:17650  msg.sender */\n      caller\n        /* \"staking/StakingRewardsFactory.sol\":17640:17673  msg.sender == rewardsDistribution */\n      0xffffffffffffffffffffffffffffffffffffffff\n      and\n      eq\n        /* \"staking/StakingRewardsFactory.sol\":17632:17720  require(msg.sender == rewardsDistribution, \"Caller is not RewardsDistribution contract\") */\n      tag_86\n      jumpi\n      mload(0x40)\n      0x08c379a000000000000000000000000000000000000000000000000000000000\n      dup2\n      mstore\n      0x04\n      add\n      dup1\n      dup1\n      0x20\n      add\n      dup3\n      dup2\n      sub\n      dup3\n      mstore\n      0x2a\n      dup2\n      mstore\n      0x20\n      add\n      dup1\n      data_d50b095422f4cbfcb4c90fbd4d55aaf0967bf1d90e94bb6a1ae9fc4ee7e733de\n      0x2a\n      swap2\n      codecopy\n      0x40\n      add\n      swap2\n      pop\n      pop\n      mload(0x40)\n      dup1\n      swap2\n      sub\n      swap1\n      revert\n    tag_86:\n        /* \"staking/StakingRewardsFactory.sol\":21522:21523  0 */\n      0x00\n        /* \"staking/StakingRewardsFactory.sol\":22736:22752  rewardPerToken() */\n      tag_88\n        /* \"staking/StakingRewardsFactory.sol\":22736:22750  rewardPerToken */\n      tag_62\n        /* \"staking/StakingRewardsFactory.sol\":22736:22752  rewardPerToken() */\n      jump\t// in\n    tag_88:\n        /* \"staking/StakingRewardsFactory.sol\":22713:22733  rewardPerTokenStored */\n      0x07\n        /* \"staking/StakingRewardsFactory.sol\":22713:22752  rewardPerTokenStored = rewardPerToken() */\n      dup2\n      swap1\n      sstore\n      pop\n        /* \"staking/StakingRewardsFactory.sol\":22779:22805  lastTimeRewardApplicable() */\n      tag_89\n        /* \"staking/StakingRewardsFactory.sol\":22779:22803  lastTimeRewardApplicable */\n      tag_52\n        /* \"staking/StakingRewardsFactory.sol\":22779:22805  lastTimeRewardApplicable() */\n      jump\t// in\n    tag_89:\n        /* \"staking/StakingRewardsFactory.sol\":22762:22776  lastUpdateTime */\n      0x06\n        /* \"staking/StakingRewardsFactory.sol\":22762:22805  lastUpdateTime = lastTimeRewardApplicable() */\n      dup2\n      swap1\n      sstore\n      pop\n        /* \"staking/StakingRewardsFactory.sol\":22838:22839  0 */\n      0x00\n        /* \"staking/StakingRewardsFactory.sol\":22819:22840  account != address(0) */\n      0xffffffffffffffffffffffffffffffffffffffff\n      and\n        /* \"staking/StakingRewardsFactory.sol\":22819:22826  account */\n      dup2\n        /* \"staking/StakingRewardsFactory.sol\":22819:22840  account != address(0) */\n      0xffffffffffffffffffffffffffffffffffffffff\n      and\n      eq\n        /* \"staking/StakingRewardsFactory.sol\":22815:22969  if (account != address(0)) {... */\n      tag_90\n      jumpi\n        /* \"staking/StakingRewardsFactory.sol\":22875:22890  earned(account) */\n      tag_91\n        /* \"staking/StakingRewardsFactory.sol\":22882:22889  account */\n      dup2\n        /* \"staking/StakingRewardsFactory.sol\":22875:22881  earned */\n      tag_28\n        /* \"staking/StakingRewardsFactory.sol\":22875:22890  earned(account) */\n      jump\t// in\n    tag_91:\n        /* \"staking/StakingRewardsFactory.sol\":22856:22863  rewards */\n      0x09\n        /* \"staking/StakingRewardsFactory.sol\":22856:22872  rewards[account] */\n      0x00\n        /* \"staking/StakingRewardsFactory.sol\":22864:22871  account */\n      dup4\n        /* \"staking/StakingRewardsFactory.sol\":22856:22872  rewards[account] */\n      0xffffffffffffffffffffffffffffffffffffffff\n      and\n      0xffffffffffffffffffffffffffffffffffffffff\n      and\n      dup2\n      mstore\n      0x20\n      add\n      swap1\n      dup2\n      mstore\n      0x20\n      add\n      0x00\n      keccak256\n        /* \"staking/StakingRewardsFactory.sol\":22856:22890  rewards[account] = earned(account) */\n      dup2\n      swap1\n      sstore\n      pop\n        /* \"staking/StakingRewardsFactory.sol\":22938:22958  rewardPerTokenStored */\n      sload(0x07)\n        /* \"staking/StakingRewardsFactory.sol\":22904:22926  userRewardPerTokenPaid */\n      0x08\n        /* \"staking/StakingRewardsFactory.sol\":22904:22935  userRewardPerTokenPaid[account] */\n      0x00\n        /* \"staking/StakingRewardsFactory.sol\":22927:22934  account */\n      dup4\n        /* \"staking/StakingRewardsFactory.sol\":22904:22935  userRewardPerTokenPaid[account] */\n      0xffffffffffffffffffffffffffffffffffffffff\n      and\n      0xffffffffffffffffffffffffffffffffffffffff\n      and\n      dup2\n      mstore\n      0x20\n      add\n      swap1\n      dup2\n      mstore\n      0x20\n      add\n      0x00\n      keccak256\n        /* \"staking/StakingRewardsFactory.sol\":22904:22958  userRewardPerTokenPaid[account] = rewardPerTokenStored */\n      dup2\n      swap1\n      sstore\n      pop\n        /* \"staking/StakingRewardsFactory.sol\":22815:22969  if (account != address(0)) {... */\n    tag_90:\n        /* \"staking/StakingRewardsFactory.sol\":21584:21596  periodFinish */\n      sload(0x04)\n        /* \"staking/StakingRewardsFactory.sol\":21544:21580  block.timestamp.add(rewardsDuration) */\n      tag_93\n        /* \"staking/StakingRewardsFactory.sol\":21564:21579  rewardsDuration */\n      dup4\n        /* \"staking/StakingRewardsFactory.sol\":21544:21559  block.timestamp */\n      timestamp\n        /* \"staking/StakingRewardsFactory.sol\":21544:21563  block.timestamp.add */\n      tag_83\n      swap1\n        /* \"staking/StakingRewardsFactory.sol\":21544:21580  block.timestamp.add(rewardsDuration) */\n      swap2\n      swap1\n      0xffffffff\n      and\n      jump\t// in\n    tag_93:\n        /* \"staking/StakingRewardsFactory.sol\":21544:21596  block.timestamp.add(rewardsDuration) >= periodFinish */\n      lt\n      iszero\n        /* \"staking/StakingRewardsFactory.sol\":21536:21630  require(block.timestamp.add(rewardsDuration) >= periodFinish, \"Cannot reduce existing period\") */\n      tag_94\n      jumpi\n      mload(0x40)\n      0x08c379a000000000000000000000000000000000000000000000000000000000\n      dup2\n      mstore\n      0x04\n      add\n      dup1\n      dup1\n      0x20\n      add\n      dup3\n      dup2\n      sub\n      dup3\n      mstore\n      0x1d\n      dup2\n      mstore\n      0x20\n      add\n      dup1\n      0x43616e6e6f7420726564756365206578697374696e6720706572696f64000000\n      dup2\n      mstore\n      pop\n      0x20\n      add\n      swap2\n      pop\n      pop\n      mload(0x40)\n      dup1\n      swap2\n      sub\n      swap1\n      revert\n    tag_94:\n        /* \"staking/StakingRewardsFactory.sol\":21672:21684  periodFinish */\n      sload(0x04)\n        /* \"staking/StakingRewardsFactory.sol\":21653:21668  block.timestamp */\n      timestamp\n        /* \"staking/StakingRewardsFactory.sol\":21653:21684  block.timestamp >= periodFinish */\n      lt\n        /* \"staking/StakingRewardsFactory.sol\":21649:21961  if (block.timestamp >= periodFinish) {... */\n      tag_95\n      jumpi\n        /* \"staking/StakingRewardsFactory.sol\":21713:21740  reward.div(rewardsDuration) */\n      tag_96\n        /* \"staking/StakingRewardsFactory.sol\":21724:21739  rewardsDuration */\n      dup3\n        /* \"staking/StakingRewardsFactory.sol\":21713:21719  reward */\n      dup5\n        /* \"staking/StakingRewardsFactory.sol\":21713:21723  reward.div */\n      tag_82\n      swap1\n        /* \"staking/StakingRewardsFactory.sol\":21713:21740  reward.div(rewardsDuration) */\n      swap2\n      swap1\n      0xffffffff\n      and\n      jump\t// in\n    tag_96:\n        /* \"staking/StakingRewardsFactory.sol\":21700:21710  rewardRate */\n      0x05\n        /* \"staking/StakingRewardsFactory.sol\":21700:21740  rewardRate = reward.div(rewardsDuration) */\n      dup2\n      swap1\n      sstore\n      pop\n        /* \"staking/StakingRewardsFactory.sol\":21649:21961  if (block.timestamp >= periodFinish) {... */\n      jump(tag_97)\n    tag_95:\n        /* \"staking/StakingRewardsFactory.sol\":21771:21788  uint256 remaining */\n      0x00\n        /* \"staking/StakingRewardsFactory.sol\":21791:21824  periodFinish.sub(block.timestamp) */\n      tag_98\n        /* \"staking/StakingRewardsFactory.sol\":21808:21823  block.timestamp */\n      timestamp\n        /* \"staking/StakingRewardsFactory.sol\":21791:21803  periodFinish */\n      sload(0x04)\n        /* \"staking/StakingRewardsFactory.sol\":21791:21807  periodFinish.sub */\n      tag_80\n      swap1\n        /* \"staking/StakingRewardsFactory.sol\":21791:21824  periodFinish.sub(block.timestamp) */\n      swap2\n      swap1\n      0xffffffff\n      and\n      jump\t// in\n    tag_98:\n        /* \"staking/StakingRewardsFactory.sol\":21771:21824  uint256 remaining = periodFinish.sub(block.timestamp) */\n      swap1\n      pop\n        /* \"staking/StakingRewardsFactory.sol\":21838:21854  uint256 leftover */\n      0x00\n        /* \"staking/StakingRewardsFactory.sol\":21857:21882  remaining.mul(rewardRate) */\n      tag_99\n        /* \"staking/StakingRewardsFactory.sol\":21871:21881  rewardRate */\n      sload(0x05)\n        /* \"staking/StakingRewardsFactory.sol\":21857:21866  remaining */\n      dup4\n        /* \"staking/StakingRewardsFactory.sol\":21857:21870  remaining.mul */\n      tag_81\n      swap1\n        /* \"staking/StakingRewardsFactory.sol\":21857:21882  remaining.mul(rewardRate) */\n      swap2\n      swap1\n      0xffffffff\n      and\n      jump\t// in\n    tag_99:\n        /* \"staking/StakingRewardsFactory.sol\":21838:21882  uint256 leftover = remaining.mul(rewardRate) */\n      swap1\n      pop\n        /* \"staking/StakingRewardsFactory.sol\":21909:21950  reward.add(leftover).div(rewardsDuration) */\n      tag_100\n        /* \"staking/StakingRewardsFactory.sol\":21934:21949  rewardsDuration */\n      dup5\n        /* \"staking/StakingRewardsFactory.sol\":21909:21929  reward.add(leftover) */\n      tag_101\n        /* \"staking/StakingRewardsFactory.sol\":21920:21928  leftover */\n      dup4\n        /* \"staking/StakingRewardsFactory.sol\":21909:21915  reward */\n      dup9\n        /* \"staking/StakingRewardsFactory.sol\":21909:21919  reward.add */\n      tag_83\n      swap1\n        /* \"staking/StakingRewardsFactory.sol\":21909:21929  reward.add(leftover) */\n      swap2\n      swap1\n      0xffffffff\n      and\n      jump\t// in\n    tag_101:\n        /* \"staking/StakingRewardsFactory.sol\":21909:21933  reward.add(leftover).div */\n      tag_82\n      swap1\n        /* \"staking/StakingRewardsFactory.sol\":21909:21950  reward.add(leftover).div(rewardsDuration) */\n      swap2\n      swap1\n      0xffffffff\n      and\n      jump\t// in\n    tag_100:\n        /* \"staking/StakingRewardsFactory.sol\":21896:21906  rewardRate */\n      0x05\n        /* \"staking/StakingRewardsFactory.sol\":21896:21950  rewardRate = reward.add(leftover).div(rewardsDuration) */\n      dup2\n      swap1\n      sstore\n      pop\n        /* \"staking/StakingRewardsFactory.sol\":21649:21961  if (block.timestamp >= periodFinish) {... */\n      pop\n      pop\n    tag_97:\n        /* \"staking/StakingRewardsFactory.sol\":22315:22327  uint balance */\n      0x00\n        /* \"staking/StakingRewardsFactory.sol\":22330:22342  rewardsToken */\n      0x02\n      0x00\n      swap1\n      sload\n      swap1\n      0x0100\n      exp\n      swap1\n      div\n      0xffffffffffffffffffffffffffffffffffffffff\n      and\n        /* \"staking/StakingRewardsFactory.sol\":22330:22352  rewardsToken.balanceOf */\n      0xffffffffffffffffffffffffffffffffffffffff\n      and\n      0x70a08231\n        /* \"staking/StakingRewardsFactory.sol\":22361:22365  this */\n      address\n        /* \"staking/StakingRewardsFactory.sol\":22330:22367  rewardsToken.balanceOf(address(this)) */\n      mload(0x40)\n      dup3\n      0xffffffff\n      and\n      0xe0\n      shl\n      dup2\n      mstore\n      0x04\n      add\n      dup1\n      dup3\n      0xffffffffffffffffffffffffffffffffffffffff\n      and\n      0xffffffffffffffffffffffffffffffffffffffff\n      and\n      dup2\n      mstore\n      0x20\n      add\n      swap2\n      pop\n      pop\n      0x20\n      mload(0x40)\n      dup1\n      dup4\n      sub\n      dup2\n      dup7\n      dup1\n      extcodesize\n      iszero\n        /* \"--CODEGEN--\":8:17   */\n      dup1\n        /* \"--CODEGEN--\":5:7   */\n      iszero\n      tag_102\n      jumpi\n        /* \"--CODEGEN--\":30:31   */\n      0x00\n        /* \"--CODEGEN--\":27:28   */\n      dup1\n        /* \"--CODEGEN--\":20:32   */\n      revert\n        /* \"--CODEGEN--\":5:7   */\n    tag_102:\n        /* \"staking/StakingRewardsFactory.sol\":22330:22367  rewardsToken.balanceOf(address(this)) */\n      pop\n      gas\n      staticcall\n      iszero\n        /* \"--CODEGEN--\":8:17   */\n      dup1\n        /* \"--CODEGEN--\":5:7   */\n      iszero\n      tag_103\n      jumpi\n        /* \"--CODEGEN--\":45:61   */\n      returndatasize\n        /* \"--CODEGEN--\":42:43   */\n      0x00\n        /* \"--CODEGEN--\":39:40   */\n      dup1\n        /* \"--CODEGEN--\":24:62   */\n      returndatacopy\n        /* \"--CODEGEN--\":77:93   */\n      returndatasize\n        /* \"--CODEGEN--\":74:75   */\n      0x00\n        /* \"--CODEGEN--\":67:94   */\n      revert\n        /* \"--CODEGEN--\":5:7   */\n    tag_103:\n        /* \"staking/StakingRewardsFactory.sol\":22330:22367  rewardsToken.balanceOf(address(this)) */\n      pop\n      pop\n      pop\n      pop\n      mload(0x40)\n      returndatasize\n        /* \"--CODEGEN--\":13:15   */\n      0x20\n        /* \"--CODEGEN--\":8:11   */\n      dup2\n        /* \"--CODEGEN--\":5:16   */\n      lt\n        /* \"--CODEGEN--\":2:4   */\n      iszero\n      tag_104\n      jumpi\n        /* \"--CODEGEN--\":29:30   */\n      0x00\n        /* \"--CODEGEN--\":26:27   */\n      dup1\n        /* \"--CODEGEN--\":19:31   */\n      revert\n        /* \"--CODEGEN--\":2:4   */\n    tag_104:\n        /* \"staking/StakingRewardsFactory.sol\":22330:22367  rewardsToken.balanceOf(address(this)) */\n      dup2\n      add\n      swap1\n      dup1\n      dup1\n      mload\n      swap1\n      0x20\n      add\n      swap1\n      swap3\n      swap2\n      swap1\n      pop\n      pop\n      pop\n        /* \"staking/StakingRewardsFactory.sol\":22315:22367  uint balance = rewardsToken.balanceOf(address(this)) */\n      swap1\n      pop\n        /* \"staking/StakingRewardsFactory.sol\":22399:22427  balance.div(rewardsDuration) */\n      tag_105\n        /* \"staking/StakingRewardsFactory.sol\":22411:22426  rewardsDuration */\n      dup4\n        /* \"staking/StakingRewardsFactory.sol\":22399:22406  balance */\n      dup3\n        /* \"staking/StakingRewardsFactory.sol\":22399:22410  balance.div */\n      tag_82\n      swap1\n        /* \"staking/StakingRewardsFactory.sol\":22399:22427  balance.div(rewardsDuration) */\n      swap2\n      swap1\n      0xffffffff\n      and\n      jump\t// in\n    tag_105:\n        /* \"staking/StakingRewardsFactory.sol\":22385:22395  rewardRate */\n      sload(0x05)\n        /* \"staking/StakingRewardsFactory.sol\":22385:22427  rewardRate <= balance.div(rewardsDuration) */\n      gt\n      iszero\n        /* \"staking/StakingRewardsFactory.sol\":22377:22456  require(rewardRate <= balance.div(rewardsDuration), \"Provided reward too high\") */\n      tag_106\n      jumpi\n      mload(0x40)\n      0x08c379a000000000000000000000000000000000000000000000000000000000\n      dup2\n      mstore\n      0x04\n      add\n      dup1\n      dup1\n      0x20\n      add\n      dup3\n      dup2\n      sub\n      dup3\n      mstore\n      0x18\n      dup2\n      mstore\n      0x20\n      add\n      dup1\n      0x50726f76696465642072657761726420746f6f20686967680000000000000000\n      dup2\n      mstore\n      pop\n      0x20\n      add\n      swap2\n      pop\n      pop\n      mload(0x40)\n      dup1\n      swap2\n      sub\n      swap1\n      revert\n    tag_106:\n        /* \"staking/StakingRewardsFactory.sol\":22484:22499  block.timestamp */\n      timestamp\n        /* \"staking/StakingRewardsFactory.sol\":22467:22481  lastUpdateTime */\n      0x06\n        /* \"staking/StakingRewardsFactory.sol\":22467:22499  lastUpdateTime = block.timestamp */\n      dup2\n      swap1\n      sstore\n      pop\n        /* \"staking/StakingRewardsFactory.sol\":22524:22560  block.timestamp.add(rewardsDuration) */\n      tag_107\n        /* \"staking/StakingRewardsFactory.sol\":22544:22559  rewardsDuration */\n      dup4\n        /* \"staking/StakingRewardsFactory.sol\":22524:22539  block.timestamp */\n      timestamp\n        /* \"staking/StakingRewardsFactory.sol\":22524:22543  block.timestamp.add */\n      tag_83\n      swap1\n        /* \"staking/StakingRewardsFactory.sol\":22524:22560  block.timestamp.add(rewardsDuration) */\n      swap2\n      swap1\n      0xffffffff\n      and\n      jump\t// in\n    tag_107:\n        /* \"staking/StakingRewardsFactory.sol\":22509:22521  periodFinish */\n      0x04\n        /* \"staking/StakingRewardsFactory.sol\":22509:22560  periodFinish = block.timestamp.add(rewardsDuration) */\n      dup2\n      swap1\n      sstore\n      pop\n        /* \"staking/StakingRewardsFactory.sol\":22575:22608  RewardAdded(reward, periodFinish) */\n      0x6c07ee05dcf262f13abf9d87b846ee789d2f90fe991d495acd7d7fc109ee1f55\n        /* \"staking/StakingRewardsFactory.sol\":22587:22593  reward */\n      dup5\n        /* \"staking/StakingRewardsFactory.sol\":22595:22607  periodFinish */\n      sload(0x04)\n        /* \"staking/StakingRewardsFactory.sol\":22575:22608  RewardAdded(reward, periodFinish) */\n      mload(0x40)\n      dup1\n      dup4\n      dup2\n      mstore\n      0x20\n      add\n      dup3\n      dup2\n      mstore\n      0x20\n      add\n      swap3\n      pop\n      pop\n      pop\n      mload(0x40)\n      dup1\n      swap2\n      sub\n      swap1\n      log1\n        /* \"staking/StakingRewardsFactory.sol\":22978:22979  _ */\n      pop\n        /* \"staking/StakingRewardsFactory.sol\":17730:17731  _ */\n      pop\n        /* \"staking/StakingRewardsFactory.sol\":21399:22615  function notifyRewardAmount(uint256 reward, uint256 rewardsDuration) external onlyRewardsDistribution updateReward(address(0)) {... */\n      pop\n      pop\n      jump\t// out\n        /* \"staking/StakingRewardsFactory.sol\":20582:20933  function withdraw(uint256 amount) public nonReentrant updateReward(msg.sender) {... */\n    tag_39:\n        /* \"staking/StakingRewardsFactory.sol\":16692:16693  1 */\n      0x01\n        /* \"staking/StakingRewardsFactory.sol\":16675:16688  _guardCounter */\n      dup1\n      0x00\n        /* \"staking/StakingRewardsFactory.sol\":16675:16693  _guardCounter += 1 */\n      dup3\n      dup3\n      sload\n      add\n      swap3\n      pop\n      pop\n      dup2\n      swap1\n      sstore\n      pop\n        /* \"staking/StakingRewardsFactory.sol\":16703:16723  uint256 localCounter */\n      0x00\n        /* \"staking/StakingRewardsFactory.sol\":16726:16739  _guardCounter */\n      sload(0x01)\n        /* \"staking/StakingRewardsFactory.sol\":16703:16739  uint256 localCounter = _guardCounter */\n      swap1\n      pop\n        /* \"staking/StakingRewardsFactory.sol\":20649:20659  msg.sender */\n      caller\n        /* \"staking/StakingRewardsFactory.sol\":22736:22752  rewardPerToken() */\n      tag_110\n        /* \"staking/StakingRewardsFactory.sol\":22736:22750  rewardPerToken */\n      tag_62\n        /* \"staking/StakingRewardsFactory.sol\":22736:22752  rewardPerToken() */\n      jump\t// in\n    tag_110:\n        /* \"staking/StakingRewardsFactory.sol\":22713:22733  rewardPerTokenStored */\n      0x07\n        /* \"staking/StakingRewardsFactory.sol\":22713:22752  rewardPerTokenStored = rewardPerToken() */\n      dup2\n      swap1\n      sstore\n      pop\n        /* \"staking/StakingRewardsFactory.sol\":22779:22805  lastTimeRewardApplicable() */\n      tag_111\n        /* \"staking/StakingRewardsFactory.sol\":22779:22803  lastTimeRewardApplicable */\n      tag_52\n        /* \"staking/StakingRewardsFactory.sol\":22779:22805  lastTimeRewardApplicable() */\n      jump\t// in\n    tag_111:\n        /* \"staking/StakingRewardsFactory.sol\":22762:22776  lastUpdateTime */\n      0x06\n        /* \"staking/StakingRewardsFactory.sol\":22762:22805  lastUpdateTime = lastTimeRewardApplicable() */\n      dup2\n      swap1\n      sstore\n      pop\n        /* \"staking/StakingRewardsFactory.sol\":22838:22839  0 */\n      0x00\n        /* \"staking/StakingRewardsFactory.sol\":22819:22840  account != address(0) */\n      0xffffffffffffffffffffffffffffffffffffffff\n      and\n        /* \"staking/StakingRewardsFactory.sol\":22819:22826  account */\n      dup2\n        /* \"staking/StakingRewardsFactory.sol\":22819:22840  account != address(0) */\n      0xffffffffffffffffffffffffffffffffffffffff\n      and\n      eq\n        /* \"staking/StakingRewardsFactory.sol\":22815:22969  if (account != address(0)) {... */\n      tag_112\n      jumpi\n        /* \"staking/StakingRewardsFactory.sol\":22875:22890  earned(account) */\n      tag_113\n        /* \"staking/StakingRewardsFactory.sol\":22882:22889  account */\n      dup2\n        /* \"staking/StakingRewardsFactory.sol\":22875:22881  earned */\n      tag_28\n        /* \"staking/StakingRewardsFactory.sol\":22875:22890  earned(account) */\n      jump\t// in\n    tag_113:\n        /* \"staking/StakingRewardsFactory.sol\":22856:22863  rewards */\n      0x09\n        /* \"staking/StakingRewardsFactory.sol\":22856:22872  rewards[account] */\n      0x00\n        /* \"staking/StakingRewardsFactory.sol\":22864:22871  account */\n      dup4\n        /* \"staking/StakingRewardsFactory.sol\":22856:22872  rewards[account] */\n      0xffffffffffffffffffffffffffffffffffffffff\n      and\n      0xffffffffffffffffffffffffffffffffffffffff\n      and\n      dup2\n      mstore\n      0x20\n      add\n      swap1\n      dup2\n      mstore\n      0x20\n      add\n      0x00\n      keccak256\n        /* \"staking/StakingRewardsFactory.sol\":22856:22890  rewards[account] = earned(account) */\n      dup2\n      swap1\n      sstore\n      pop\n        /* \"staking/StakingRewardsFactory.sol\":22938:22958  rewardPerTokenStored */\n      sload(0x07)\n        /* \"staking/StakingRewardsFactory.sol\":22904:22926  userRewardPerTokenPaid */\n      0x08\n        /* \"staking/StakingRewardsFactory.sol\":22904:22935  userRewardPerTokenPaid[account] */\n      0x00\n        /* \"staking/StakingRewardsFactory.sol\":22927:22934  account */\n      dup4\n        /* \"staking/StakingRewardsFactory.sol\":22904:22935  userRewardPerTokenPaid[account] */\n      0xffffffffffffffffffffffffffffffffffffffff\n      and\n      0xffffffffffffffffffffffffffffffffffffffff\n      and\n      dup2\n      mstore\n      0x20\n      add\n      swap1\n      dup2\n      mstore\n      0x20\n      add\n      0x00\n      keccak256\n        /* \"staking/StakingRewardsFactory.sol\":22904:22958  userRewardPerTokenPaid[account] = rewardPerTokenStored */\n      dup2\n      swap1\n      sstore\n      pop\n        /* \"staking/StakingRewardsFactory.sol\":22815:22969  if (account != address(0)) {... */\n    tag_112:\n        /* \"staking/StakingRewardsFactory.sol\":20688:20689  0 */\n      0x00\n        /* \"staking/StakingRewardsFactory.sol\":20679:20685  amount */\n      dup4\n        /* \"staking/StakingRewardsFactory.sol\":20679:20689  amount > 0 */\n      gt\n        /* \"staking/StakingRewardsFactory.sol\":20671:20711  require(amount > 0, \"Cannot withdraw 0\") */\n      tag_115\n      jumpi\n      mload(0x40)\n      0x08c379a000000000000000000000000000000000000000000000000000000000\n      dup2\n      mstore\n      0x04\n      add\n      dup1\n      dup1\n      0x20\n      add\n      dup3\n      dup2\n      sub\n      dup3\n      mstore\n      0x11\n      dup2\n      mstore\n      0x20\n      add\n      dup1\n      0x43616e6e6f742077697468647261772030000000000000000000000000000000\n      dup2\n      mstore\n      pop\n      0x20\n      add\n      swap2\n      pop\n      pop\n      mload(0x40)\n      dup1\n      swap2\n      sub\n      swap1\n      revert\n    tag_115:\n        /* \"staking/StakingRewardsFactory.sol\":20736:20760  _totalSupply.sub(amount) */\n      tag_116\n        /* \"staking/StakingRewardsFactory.sol\":20753:20759  amount */\n      dup4\n        /* \"staking/StakingRewardsFactory.sol\":20736:20748  _totalSupply */\n      sload(0x0a)\n        /* \"staking/StakingRewardsFactory.sol\":20736:20752  _totalSupply.sub */\n      tag_80\n      swap1\n        /* \"staking/StakingRewardsFactory.sol\":20736:20760  _totalSupply.sub(amount) */\n      swap2\n      swap1\n      0xffffffff\n      and\n      jump\t// in\n    tag_116:\n        /* \"staking/StakingRewardsFactory.sol\":20721:20733  _totalSupply */\n      0x0a\n        /* \"staking/StakingRewardsFactory.sol\":20721:20760  _totalSupply = _totalSupply.sub(amount) */\n      dup2\n      swap1\n      sstore\n      pop\n        /* \"staking/StakingRewardsFactory.sol\":20794:20827  _balances[msg.sender].sub(amount) */\n      tag_117\n        /* \"staking/StakingRewardsFactory.sol\":20820:20826  amount */\n      dup4\n        /* \"staking/StakingRewardsFactory.sol\":20794:20803  _balances */\n      0x0b\n        /* \"staking/StakingRewardsFactory.sol\":20794:20815  _balances[msg.sender] */\n      0x00\n        /* \"staking/StakingRewardsFactory.sol\":20804:20814  msg.sender */\n      caller\n        /* \"staking/StakingRewardsFactory.sol\":20794:20815  _balances[msg.sender] */\n      0xffffffffffffffffffffffffffffffffffffffff\n      and\n      0xffffffffffffffffffffffffffffffffffffffff\n      and\n      dup2\n      mstore\n      0x20\n      add\n      swap1\n      dup2\n      mstore\n      0x20\n      add\n      0x00\n      keccak256\n      sload\n        /* \"staking/StakingRewardsFactory.sol\":20794:20819  _balances[msg.sender].sub */\n      tag_80\n      swap1\n        /* \"staking/StakingRewardsFactory.sol\":20794:20827  _balances[msg.sender].sub(amount) */\n      swap2\n      swap1\n      0xffffffff\n      and\n      jump\t// in\n    tag_117:\n        /* \"staking/StakingRewardsFactory.sol\":20770:20779  _balances */\n      0x0b\n        /* \"staking/StakingRewardsFactory.sol\":20770:20791  _balances[msg.sender] */\n      0x00\n        /* \"staking/StakingRewardsFactory.sol\":20780:20790  msg.sender */\n      caller\n        /* \"staking/StakingRewardsFactory.sol\":20770:20791  _balances[msg.sender] */\n      0xffffffffffffffffffffffffffffffffffffffff\n      and\n      0xffffffffffffffffffffffffffffffffffffffff\n      and\n      dup2\n      mstore\n      0x20\n      add\n      swap1\n      dup2\n      mstore\n      0x20\n      add\n      0x00\n      keccak256\n        /* \"staking/StakingRewardsFactory.sol\":20770:20827  _balances[msg.sender] = _balances[msg.sender].sub(amount) */\n      dup2\n      swap1\n      sstore\n      pop\n        /* \"staking/StakingRewardsFactory.sol\":20837:20882  stakingToken.safeTransfer(msg.sender, amount) */\n      tag_118\n        /* \"staking/StakingRewardsFactory.sol\":20863:20873  msg.sender */\n      caller\n        /* \"staking/StakingRewardsFactory.sol\":20875:20881  amount */\n      dup5\n        /* \"staking/StakingRewardsFactory.sol\":20837:20849  stakingToken */\n      0x03\n      0x00\n      swap1\n      sload\n      swap1\n      0x0100\n      exp\n      swap1\n      div\n      0xffffffffffffffffffffffffffffffffffffffff\n      and\n        /* \"staking/StakingRewardsFactory.sol\":20837:20862  stakingToken.safeTransfer */\n      0xffffffffffffffffffffffffffffffffffffffff\n      and\n      tag_119\n      swap1\n        /* \"staking/StakingRewardsFactory.sol\":20837:20882  stakingToken.safeTransfer(msg.sender, amount) */\n      swap3\n      swap2\n      swap1\n      0xffffffff\n      and\n      jump\t// in\n    tag_118:\n        /* \"staking/StakingRewardsFactory.sol\":20907:20917  msg.sender */\n      caller\n        /* \"staking/StakingRewardsFactory.sol\":20897:20926  Withdrawn(msg.sender, amount) */\n      0xffffffffffffffffffffffffffffffffffffffff\n      and\n      0x7084f5476618d8e60b11ef0d7d3f06914655adb8793e28ff7f018d4c76d505d5\n        /* \"staking/StakingRewardsFactory.sol\":20919:20925  amount */\n      dup5\n        /* \"staking/StakingRewardsFactory.sol\":20897:20926  Withdrawn(msg.sender, amount) */\n      mload(0x40)\n      dup1\n      dup3\n      dup2\n      mstore\n      0x20\n      add\n      swap2\n      pop\n      pop\n      mload(0x40)\n      dup1\n      swap2\n      sub\n      swap1\n      log2\n        /* \"staking/StakingRewardsFactory.sol\":16749:16750  _ */\n      pop\n        /* \"staking/StakingRewardsFactory.sol\":16784:16797  _guardCounter */\n      sload(0x01)\n        /* \"staking/StakingRewardsFactory.sol\":16768:16780  localCounter */\n      dup2\n        /* \"staking/StakingRewardsFactory.sol\":16768:16797  localCounter == _guardCounter */\n      eq\n        /* \"staking/StakingRewardsFactory.sol\":16760:16833  require(localCounter == _guardCounter, \"ReentrancyGuard: reentrant call\") */\n      tag_120\n      jumpi\n      mload(0x40)\n      0x08c379a000000000000000000000000000000000000000000000000000000000\n      dup2\n      mstore\n      0x04\n      add\n      dup1\n      dup1\n      0x20\n      add\n      dup3\n      dup2\n      sub\n      dup3\n      mstore\n      0x1f\n      dup2\n      mstore\n      0x20\n      add\n      dup1\n      0x5265656e7472616e637947756172643a207265656e7472616e742063616c6c00\n      dup2\n      mstore\n      pop\n      0x20\n      add\n      swap2\n      pop\n      pop\n      mload(0x40)\n      dup1\n      swap2\n      sub\n      swap1\n      revert\n    tag_120:\n        /* \"staking/StakingRewardsFactory.sol\":20582:20933  function withdraw(uint256 amount) public nonReentrant updateReward(msg.sender) {... */\n      pop\n      pop\n      jump\t// out\n        /* \"staking/StakingRewardsFactory.sol\":20939:21239  function getReward() public nonReentrant updateReward(msg.sender) {... */\n    tag_41:\n        /* \"staking/StakingRewardsFactory.sol\":16692:16693  1 */\n      0x01\n        /* \"staking/StakingRewardsFactory.sol\":16675:16688  _guardCounter */\n      dup1\n      0x00\n        /* \"staking/StakingRewardsFactory.sol\":16675:16693  _guardCounter += 1 */\n      dup3\n      dup3\n      sload\n      add\n      swap3\n      pop\n      pop\n      dup2\n      swap1\n      sstore\n      pop\n        /* \"staking/StakingRewardsFactory.sol\":16703:16723  uint256 localCounter */\n      0x00\n        /* \"staking/StakingRewardsFactory.sol\":16726:16739  _guardCounter */\n      sload(0x01)\n        /* \"staking/StakingRewardsFactory.sol\":16703:16739  uint256 localCounter = _guardCounter */\n      swap1\n      pop\n        /* \"staking/StakingRewardsFactory.sol\":20993:21003  msg.sender */\n      caller\n        /* \"staking/StakingRewardsFactory.sol\":22736:22752  rewardPerToken() */\n      tag_123\n        /* \"staking/StakingRewardsFactory.sol\":22736:22750  rewardPerToken */\n      tag_62\n        /* \"staking/StakingRewardsFactory.sol\":22736:22752  rewardPerToken() */\n      jump\t// in\n    tag_123:\n        /* \"staking/StakingRewardsFactory.sol\":22713:22733  rewardPerTokenStored */\n      0x07\n        /* \"staking/StakingRewardsFactory.sol\":22713:22752  rewardPerTokenStored = rewardPerToken() */\n      dup2\n      swap1\n      sstore\n      pop\n        /* \"staking/StakingRewardsFactory.sol\":22779:22805  lastTimeRewardApplicable() */\n      tag_124\n        /* \"staking/StakingRewardsFactory.sol\":22779:22803  lastTimeRewardApplicable */\n      tag_52\n        /* \"staking/StakingRewardsFactory.sol\":22779:22805  lastTimeRewardApplicable() */\n      jump\t// in\n    tag_124:\n        /* \"staking/StakingRewardsFactory.sol\":22762:22776  lastUpdateTime */\n      0x06\n        /* \"staking/StakingRewardsFactory.sol\":22762:22805  lastUpdateTime = lastTimeRewardApplicable() */\n      dup2\n      swap1\n      sstore\n      pop\n        /* \"staking/StakingRewardsFactory.sol\":22838:22839  0 */\n      0x00\n        /* \"staking/StakingRewardsFactory.sol\":22819:22840  account != address(0) */\n      0xffffffffffffffffffffffffffffffffffffffff\n      and\n        /* \"staking/StakingRewardsFactory.sol\":22819:22826  account */\n      dup2\n        /* \"staking/StakingRewardsFactory.sol\":22819:22840  account != address(0) */\n      0xffffffffffffffffffffffffffffffffffffffff\n      and\n      eq\n        /* \"staking/StakingRewardsFactory.sol\":22815:22969  if (account != address(0)) {... */\n      tag_125\n      jumpi\n        /* \"staking/StakingRewardsFactory.sol\":22875:22890  earned(account) */\n      tag_126\n        /* \"staking/StakingRewardsFactory.sol\":22882:22889  account */\n      dup2\n        /* \"staking/StakingRewardsFactory.sol\":22875:22881  earned */\n      tag_28\n        /* \"staking/StakingRewardsFactory.sol\":22875:22890  earned(account) */\n      jump\t// in\n    tag_126:\n        /* \"staking/StakingRewardsFactory.sol\":22856:22863  rewards */\n      0x09\n        /* \"staking/StakingRewardsFactory.sol\":22856:22872  rewards[account] */\n      0x00\n        /* \"staking/StakingRewardsFactory.sol\":22864:22871  account */\n      dup4\n        /* \"staking/StakingRewardsFactory.sol\":22856:22872  rewards[account] */\n      0xffffffffffffffffffffffffffffffffffffffff\n      and\n      0xffffffffffffffffffffffffffffffffffffffff\n      and\n      dup2\n      mstore\n      0x20\n      add\n      swap1\n      dup2\n      mstore\n      0x20\n      add\n      0x00\n      keccak256\n        /* \"staking/StakingRewardsFactory.sol\":22856:22890  rewards[account] = earned(account) */\n      dup2\n      swap1\n      sstore\n      pop\n        /* \"staking/StakingRewardsFactory.sol\":22938:22958  rewardPerTokenStored */\n      sload(0x07)\n        /* \"staking/StakingRewardsFactory.sol\":22904:22926  userRewardPerTokenPaid */\n      0x08\n        /* \"staking/StakingRewardsFactory.sol\":22904:22935  userRewardPerTokenPaid[account] */\n      0x00\n        /* \"staking/StakingRewardsFactory.sol\":22927:22934  account */\n      dup4\n        /* \"staking/StakingRewardsFactory.sol\":22904:22935  userRewardPerTokenPaid[account] */\n      0xffffffffffffffffffffffffffffffffffffffff\n      and\n      0xffffffffffffffffffffffffffffffffffffffff\n      and\n      dup2\n      mstore\n      0x20\n      add\n      swap1\n      dup2\n      mstore\n      0x20\n      add\n      0x00\n      keccak256\n        /* \"staking/StakingRewardsFactory.sol\":22904:22958  userRewardPerTokenPaid[account] = rewardPerTokenStored */\n      dup2\n      swap1\n      sstore\n      pop\n        /* \"staking/StakingRewardsFactory.sol\":22815:22969  if (account != address(0)) {... */\n    tag_125:\n        /* \"staking/StakingRewardsFactory.sol\":21015:21029  uint256 reward */\n      0x00\n        /* \"staking/StakingRewardsFactory.sol\":21032:21039  rewards */\n      0x09\n        /* \"staking/StakingRewardsFactory.sol\":21032:21051  rewards[msg.sender] */\n      0x00\n        /* \"staking/StakingRewardsFactory.sol\":21040:21050  msg.sender */\n      caller\n        /* \"staking/StakingRewardsFactory.sol\":21032:21051  rewards[msg.sender] */\n      0xffffffffffffffffffffffffffffffffffffffff\n      and\n      0xffffffffffffffffffffffffffffffffffffffff\n      and\n      dup2\n      mstore\n      0x20\n      add\n      swap1\n      dup2\n      mstore\n      0x20\n      add\n      0x00\n      keccak256\n      sload\n        /* \"staking/StakingRewardsFactory.sol\":21015:21051  uint256 reward = rewards[msg.sender] */\n      swap1\n      pop\n        /* \"staking/StakingRewardsFactory.sol\":21074:21075  0 */\n      0x00\n        /* \"staking/StakingRewardsFactory.sol\":21065:21071  reward */\n      dup2\n        /* \"staking/StakingRewardsFactory.sol\":21065:21075  reward > 0 */\n      gt\n        /* \"staking/StakingRewardsFactory.sol\":21061:21233  if (reward > 0) {... */\n      iszero\n      tag_128\n      jumpi\n        /* \"staking/StakingRewardsFactory.sol\":21113:21114  0 */\n      0x00\n        /* \"staking/StakingRewardsFactory.sol\":21091:21098  rewards */\n      0x09\n        /* \"staking/StakingRewardsFactory.sol\":21091:21110  rewards[msg.sender] */\n      0x00\n        /* \"staking/StakingRewardsFactory.sol\":21099:21109  msg.sender */\n      caller\n        /* \"staking/StakingRewardsFactory.sol\":21091:21110  rewards[msg.sender] */\n      0xffffffffffffffffffffffffffffffffffffffff\n      and\n      0xffffffffffffffffffffffffffffffffffffffff\n      and\n      dup2\n      mstore\n      0x20\n      add\n      swap1\n      dup2\n      mstore\n      0x20\n      add\n      0x00\n      keccak256\n        /* \"staking/StakingRewardsFactory.sol\":21091:21114  rewards[msg.sender] = 0 */\n      dup2\n      swap1\n      sstore\n      pop\n        /* \"staking/StakingRewardsFactory.sol\":21128:21173  rewardsToken.safeTransfer(msg.sender, reward) */\n      tag_129\n        /* \"staking/StakingRewardsFactory.sol\":21154:21164  msg.sender */\n      caller\n        /* \"staking/StakingRewardsFactory.sol\":21166:21172  reward */\n      dup3\n        /* \"staking/StakingRewardsFactory.sol\":21128:21140  rewardsToken */\n      0x02\n      0x00\n      swap1\n      sload\n      swap1\n      0x0100\n      exp\n      swap1\n      div\n      0xffffffffffffffffffffffffffffffffffffffff\n      and\n        /* \"staking/StakingRewardsFactory.sol\":21128:21153  rewardsToken.safeTransfer */\n      0xffffffffffffffffffffffffffffffffffffffff\n      and\n      tag_119\n      swap1\n        /* \"staking/StakingRewardsFactory.sol\":21128:21173  rewardsToken.safeTransfer(msg.sender, reward) */\n      swap3\n      swap2\n      swap1\n      0xffffffff\n      and\n      jump\t// in\n    tag_129:\n        /* \"staking/StakingRewardsFactory.sol\":21203:21213  msg.sender */\n      caller\n        /* \"staking/StakingRewardsFactory.sol\":21192:21222  RewardPaid(msg.sender, reward) */\n      0xffffffffffffffffffffffffffffffffffffffff\n      and\n      0xe2403640ba68fed3a2f88b7557551d1993f84b99bb10ff833f0cf8db0c5e0486\n        /* \"staking/StakingRewardsFactory.sol\":21215:21221  reward */\n      dup3\n        /* \"staking/StakingRewardsFactory.sol\":21192:21222  RewardPaid(msg.sender, reward) */\n      mload(0x40)\n      dup1\n      dup3\n      dup2\n      mstore\n      0x20\n      add\n      swap2\n      pop\n      pop\n      mload(0x40)\n      dup1\n      swap2\n      sub\n      swap1\n      log2\n        /* \"staking/StakingRewardsFactory.sol\":21061:21233  if (reward > 0) {... */\n    tag_128:\n        /* \"staking/StakingRewardsFactory.sol\":22978:22979  _ */\n      pop\n        /* \"staking/StakingRewardsFactory.sol\":16749:16750  _ */\n      pop\n        /* \"staking/StakingRewardsFactory.sol\":16784:16797  _guardCounter */\n      sload(0x01)\n        /* \"staking/StakingRewardsFactory.sol\":16768:16780  localCounter */\n      dup2\n        /* \"staking/StakingRewardsFactory.sol\":16768:16797  localCounter == _guardCounter */\n      eq\n        /* \"staking/StakingRewardsFactory.sol\":16760:16833  require(localCounter == _guardCounter, \"ReentrancyGuard: reentrant call\") */\n      tag_130\n      jumpi\n      mload(0x40)\n      0x08c379a000000000000000000000000000000000000000000000000000000000\n      dup2\n      mstore\n      0x04\n      add\n      dup1\n      dup1\n      0x20\n      add\n      dup3\n      dup2\n      sub\n      dup3\n      mstore\n      0x1f\n      dup2\n      mstore\n      0x20\n      add\n      dup1\n      0x5265656e7472616e637947756172643a207265656e7472616e742063616c6c00\n      dup2\n      mstore\n      pop\n      0x20\n      add\n      swap2\n      pop\n      pop\n      mload(0x40)\n      dup1\n      swap2\n      sub\n      swap1\n      revert\n    tag_130:\n        /* \"staking/StakingRewardsFactory.sol\":20939:21239  function getReward() public nonReentrant updateReward(msg.sender) {... */\n      pop\n      jump\t// out\n        /* \"staking/StakingRewardsFactory.sol\":17469:17503  address public rewardsDistribution */\n    tag_43:\n      0x00\n      dup1\n      swap1\n      sload\n      swap1\n      0x0100\n      exp\n      swap1\n      div\n      0xffffffffffffffffffffffffffffffffffffffff\n      and\n      dup2\n      jump\t// out\n        /* \"staking/StakingRewardsFactory.sol\":18826:18936  function balanceOf(address account) external view returns (uint256) {... */\n    tag_46:\n        /* \"staking/StakingRewardsFactory.sol\":18885:18892  uint256 */\n      0x00\n        /* \"staking/StakingRewardsFactory.sol\":18911:18920  _balances */\n      0x0b\n        /* \"staking/StakingRewardsFactory.sol\":18911:18929  _balances[account] */\n      0x00\n        /* \"staking/StakingRewardsFactory.sol\":18921:18928  account */\n      dup4\n        /* \"staking/StakingRewardsFactory.sol\":18911:18929  _balances[account] */\n      0xffffffffffffffffffffffffffffffffffffffff\n      and\n      0xffffffffffffffffffffffffffffffffffffffff\n      and\n      dup2\n      mstore\n      0x20\n      add\n      swap1\n      dup2\n      mstore\n      0x20\n      add\n      0x00\n      keccak256\n      sload\n        /* \"staking/StakingRewardsFactory.sol\":18904:18929  return _balances[account] */\n      swap1\n      pop\n        /* \"staking/StakingRewardsFactory.sol\":18826:18936  function balanceOf(address account) external view returns (uint256) {... */\n      swap2\n      swap1\n      pop\n      jump\t// out\n        /* \"staking/StakingRewardsFactory.sol\":17984:18010  IERC20 public stakingToken */\n    tag_48:\n      0x03\n      0x00\n      swap1\n      sload\n      swap1\n      0x0100\n      exp\n      swap1\n      div\n      0xffffffffffffffffffffffffffffffffffffffff\n      and\n      dup2\n      jump\t// out\n        /* \"staking/StakingRewardsFactory.sol\":18053:18082  uint256 public rewardRate = 0 */\n    tag_50:\n      sload(0x05)\n      dup2\n      jump\t// out\n        /* \"staking/StakingRewardsFactory.sol\":18942:19071  function lastTimeRewardApplicable() public view returns (uint256) {... */\n    tag_52:\n        /* \"staking/StakingRewardsFactory.sol\":18999:19006  uint256 */\n      0x00\n        /* \"staking/StakingRewardsFactory.sol\":19025:19064  Math.min(block.timestamp, periodFinish) */\n      tag_133\n        /* \"staking/StakingRewardsFactory.sol\":19034:19049  block.timestamp */\n      timestamp\n        /* \"staking/StakingRewardsFactory.sol\":19051:19063  periodFinish */\n      sload(0x04)\n        /* \"staking/StakingRewardsFactory.sol\":19025:19033  Math.min */\n      tag_134\n        /* \"staking/StakingRewardsFactory.sol\":19025:19064  Math.min(block.timestamp, periodFinish) */\n      jump\t// in\n    tag_133:\n        /* \"staking/StakingRewardsFactory.sol\":19018:19064  return Math.min(block.timestamp, periodFinish) */\n      swap1\n      pop\n        /* \"staking/StakingRewardsFactory.sol\":18942:19071  function lastTimeRewardApplicable() public view returns (uint256) {... */\n      swap1\n      jump\t// out\n        /* \"staking/StakingRewardsFactory.sol\":18165:18222  mapping(address => uint256) public userRewardPerTokenPaid */\n    tag_55:\n      mstore(0x20, 0x08)\n      dup1\n      0x00\n      mstore\n      keccak256(0x00, 0x40)\n      0x00\n      swap2\n      pop\n      swap1\n      pop\n      sload\n      dup2\n      jump\t// out\n        /* \"staking/StakingRewardsFactory.sol\":20213:20576  function stake(uint256 amount) external nonReentrant updateReward(msg.sender) {... */\n    tag_58:\n        /* \"staking/StakingRewardsFactory.sol\":16692:16693  1 */\n      0x01\n        /* \"staking/StakingRewardsFactory.sol\":16675:16688  _guardCounter */\n      dup1\n      0x00\n        /* \"staking/StakingRewardsFactory.sol\":16675:16693  _guardCounter += 1 */\n      dup3\n      dup3\n      sload\n      add\n      swap3\n      pop\n      pop\n      dup2\n      swap1\n      sstore\n      pop\n        /* \"staking/StakingRewardsFactory.sol\":16703:16723  uint256 localCounter */\n      0x00\n        /* \"staking/StakingRewardsFactory.sol\":16726:16739  _guardCounter */\n      sload(0x01)\n        /* \"staking/StakingRewardsFactory.sol\":16703:16739  uint256 localCounter = _guardCounter */\n      swap1\n      pop\n        /* \"staking/StakingRewardsFactory.sol\":20279:20289  msg.sender */\n      caller\n        /* \"staking/StakingRewardsFactory.sol\":22736:22752  rewardPerToken() */\n      tag_137\n        /* \"staking/StakingRewardsFactory.sol\":22736:22750  rewardPerToken */\n      tag_62\n        /* \"staking/StakingRewardsFactory.sol\":22736:22752  rewardPerToken() */\n      jump\t// in\n    tag_137:\n        /* \"staking/StakingRewardsFactory.sol\":22713:22733  rewardPerTokenStored */\n      0x07\n        /* \"staking/StakingRewardsFactory.sol\":22713:22752  rewardPerTokenStored = rewardPerToken() */\n      dup2\n      swap1\n      sstore\n      pop\n        /* \"staking/StakingRewardsFactory.sol\":22779:22805  lastTimeRewardApplicable() */\n      tag_138\n        /* \"staking/StakingRewardsFactory.sol\":22779:22803  lastTimeRewardApplicable */\n      tag_52\n        /* \"staking/StakingRewardsFactory.sol\":22779:22805  lastTimeRewardApplicable() */\n      jump\t// in\n    tag_138:\n        /* \"staking/StakingRewardsFactory.sol\":22762:22776  lastUpdateTime */\n      0x06\n        /* \"staking/StakingRewardsFactory.sol\":22762:22805  lastUpdateTime = lastTimeRewardApplicable() */\n      dup2\n      swap1\n      sstore\n      pop\n        /* \"staking/StakingRewardsFactory.sol\":22838:22839  0 */\n      0x00\n        /* \"staking/StakingRewardsFactory.sol\":22819:22840  account != address(0) */\n      0xffffffffffffffffffffffffffffffffffffffff\n      and\n        /* \"staking/StakingRewardsFactory.sol\":22819:22826  account */\n      dup2\n        /* \"staking/StakingRewardsFactory.sol\":22819:22840  account != address(0) */\n      0xffffffffffffffffffffffffffffffffffffffff\n      and\n      eq\n        /* \"staking/StakingRewardsFactory.sol\":22815:22969  if (account != address(0)) {... */\n      tag_139\n      jumpi\n        /* \"staking/StakingRewardsFactory.sol\":22875:22890  earned(account) */\n      tag_140\n        /* \"staking/StakingRewardsFactory.sol\":22882:22889  account */\n      dup2\n        /* \"staking/StakingRewardsFactory.sol\":22875:22881  earned */\n      tag_28\n        /* \"staking/StakingRewardsFactory.sol\":22875:22890  earned(account) */\n      jump\t// in\n    tag_140:\n        /* \"staking/StakingRewardsFactory.sol\":22856:22863  rewards */\n      0x09\n        /* \"staking/StakingRewardsFactory.sol\":22856:22872  rewards[account] */\n      0x00\n        /* \"staking/StakingRewardsFactory.sol\":22864:22871  account */\n      dup4\n        /* \"staking/StakingRewardsFactory.sol\":22856:22872  rewards[account] */\n      0xffffffffffffffffffffffffffffffffffffffff\n      and\n      0xffffffffffffffffffffffffffffffffffffffff\n      and\n      dup2\n      mstore\n      0x20\n      add\n      swap1\n      dup2\n      mstore\n      0x20\n      add\n      0x00\n      keccak256\n        /* \"staking/StakingRewardsFactory.sol\":22856:22890  rewards[account] = earned(account) */\n      dup2\n      swap1\n      sstore\n      pop\n        /* \"staking/StakingRewardsFactory.sol\":22938:22958  rewardPerTokenStored */\n      sload(0x07)\n        /* \"staking/StakingRewardsFactory.sol\":22904:22926  userRewardPerTokenPaid */\n      0x08\n        /* \"staking/StakingRewardsFactory.sol\":22904:22935  userRewardPerTokenPaid[account] */\n      0x00\n        /* \"staking/StakingRewardsFactory.sol\":22927:22934  account */\n      dup4\n        /* \"staking/StakingRewardsFactory.sol\":22904:22935  userRewardPerTokenPaid[account] */\n      0xffffffffffffffffffffffffffffffffffffffff\n      and\n      0xffffffffffffffffffffffffffffffffffffffff\n      and\n      dup2\n      mstore\n      0x20\n      add\n      swap1\n      dup2\n      mstore\n      0x20\n      add\n      0x00\n      keccak256\n        /* \"staking/StakingRewardsFactory.sol\":22904:22958  userRewardPerTokenPaid[account] = rewardPerTokenStored */\n      dup2\n      swap1\n      sstore\n      pop\n        /* \"staking/StakingRewardsFactory.sol\":22815:22969  if (account != address(0)) {... */\n    tag_139:\n        /* \"staking/StakingRewardsFactory.sol\":20318:20319  0 */\n      0x00\n        /* \"staking/StakingRewardsFactory.sol\":20309:20315  amount */\n      dup4\n        /* \"staking/StakingRewardsFactory.sol\":20309:20319  amount > 0 */\n      gt\n        /* \"staking/StakingRewardsFactory.sol\":20301:20338  require(amount > 0, \"Cannot stake 0\") */\n      tag_142\n      jumpi\n      mload(0x40)\n      0x08c379a000000000000000000000000000000000000000000000000000000000\n      dup2\n      mstore\n      0x04\n      add\n      dup1\n      dup1\n      0x20\n      add\n      dup3\n      dup2\n      sub\n      dup3\n      mstore\n      0x0e\n      dup2\n      mstore\n      0x20\n      add\n      dup1\n      0x43616e6e6f74207374616b652030000000000000000000000000000000000000\n      dup2\n      mstore\n      pop\n      0x20\n      add\n      swap2\n      pop\n      pop\n      mload(0x40)\n      dup1\n      swap2\n      sub\n      swap1\n      revert\n    tag_142:\n        /* \"staking/StakingRewardsFactory.sol\":20363:20387  _totalSupply.add(amount) */\n      tag_143\n        /* \"staking/StakingRewardsFactory.sol\":20380:20386  amount */\n      dup4\n        /* \"staking/StakingRewardsFactory.sol\":20363:20375  _totalSupply */\n      sload(0x0a)\n        /* \"staking/StakingRewardsFactory.sol\":20363:20379  _totalSupply.add */\n      tag_83\n      swap1\n        /* \"staking/StakingRewardsFactory.sol\":20363:20387  _totalSupply.add(amount) */\n      swap2\n      swap1\n      0xffffffff\n      and\n      jump\t// in\n    tag_143:\n        /* \"staking/StakingRewardsFactory.sol\":20348:20360  _totalSupply */\n      0x0a\n        /* \"staking/StakingRewardsFactory.sol\":20348:20387  _totalSupply = _totalSupply.add(amount) */\n      dup2\n      swap1\n      sstore\n      pop\n        /* \"staking/StakingRewardsFactory.sol\":20421:20454  _balances[msg.sender].add(amount) */\n      tag_144\n        /* \"staking/StakingRewardsFactory.sol\":20447:20453  amount */\n      dup4\n        /* \"staking/StakingRewardsFactory.sol\":20421:20430  _balances */\n      0x0b\n        /* \"staking/StakingRewardsFactory.sol\":20421:20442  _balances[msg.sender] */\n      0x00\n        /* \"staking/StakingRewardsFactory.sol\":20431:20441  msg.sender */\n      caller\n        /* \"staking/StakingRewardsFactory.sol\":20421:20442  _balances[msg.sender] */\n      0xffffffffffffffffffffffffffffffffffffffff\n      and\n      0xffffffffffffffffffffffffffffffffffffffff\n      and\n      dup2\n      mstore\n      0x20\n      add\n      swap1\n      dup2\n      mstore\n      0x20\n      add\n      0x00\n      keccak256\n      sload\n        /* \"staking/StakingRewardsFactory.sol\":20421:20446  _balances[msg.sender].add */\n      tag_83\n      swap1\n        /* \"staking/StakingRewardsFactory.sol\":20421:20454  _balances[msg.sender].add(amount) */\n      swap2\n      swap1\n      0xffffffff\n      and\n      jump\t// in\n    tag_144:\n        /* \"staking/StakingRewardsFactory.sol\":20397:20406  _balances */\n      0x0b\n        /* \"staking/StakingRewardsFactory.sol\":20397:20418  _balances[msg.sender] */\n      0x00\n        /* \"staking/StakingRewardsFactory.sol\":20407:20417  msg.sender */\n      caller\n        /* \"staking/StakingRewardsFactory.sol\":20397:20418  _balances[msg.sender] */\n      0xffffffffffffffffffffffffffffffffffffffff\n      and\n      0xffffffffffffffffffffffffffffffffffffffff\n      and\n      dup2\n      mstore\n      0x20\n      add\n      swap1\n      dup2\n      mstore\n      0x20\n      add\n      0x00\n      keccak256\n        /* \"staking/StakingRewardsFactory.sol\":20397:20454  _balances[msg.sender] = _balances[msg.sender].add(amount) */\n      dup2\n      swap1\n      sstore\n      pop\n        /* \"staking/StakingRewardsFactory.sol\":20464:20528  stakingToken.safeTransferFrom(msg.sender, address(this), amount) */\n      tag_145\n        /* \"staking/StakingRewardsFactory.sol\":20494:20504  msg.sender */\n      caller\n        /* \"staking/StakingRewardsFactory.sol\":20514:20518  this */\n      address\n        /* \"staking/StakingRewardsFactory.sol\":20521:20527  amount */\n      dup6\n        /* \"staking/StakingRewardsFactory.sol\":20464:20476  stakingToken */\n      0x03\n      0x00\n      swap1\n      sload\n      swap1\n      0x0100\n      exp\n      swap1\n      div\n      0xffffffffffffffffffffffffffffffffffffffff\n      and\n        /* \"staking/StakingRewardsFactory.sol\":20464:20493  stakingToken.safeTransferFrom */\n      0xffffffffffffffffffffffffffffffffffffffff\n      and\n      tag_146\n      swap1\n        /* \"staking/StakingRewardsFactory.sol\":20464:20528  stakingToken.safeTransferFrom(msg.sender, address(this), amount) */\n      swap4\n      swap3\n      swap2\n      swap1\n      0xffffffff\n      and\n      jump\t// in\n    tag_145:\n        /* \"staking/StakingRewardsFactory.sol\":20550:20560  msg.sender */\n      caller\n        /* \"staking/StakingRewardsFactory.sol\":20543:20569  Staked(msg.sender, amount) */\n      0xffffffffffffffffffffffffffffffffffffffff\n      and\n      0x9e71bc8eea02a63969f509818f2dafb9254532904319f9dbda79b67bd34a5f3d\n        /* \"staking/StakingRewardsFactory.sol\":20562:20568  amount */\n      dup5\n        /* \"staking/StakingRewardsFactory.sol\":20543:20569  Staked(msg.sender, amount) */\n      mload(0x40)\n      dup1\n      dup3\n      dup2\n      mstore\n      0x20\n      add\n      swap2\n      pop\n      pop\n      mload(0x40)\n      dup1\n      swap2\n      sub\n      swap1\n      log2\n        /* \"staking/StakingRewardsFactory.sol\":16749:16750  _ */\n      pop\n        /* \"staking/StakingRewardsFactory.sol\":16784:16797  _guardCounter */\n      sload(0x01)\n        /* \"staking/StakingRewardsFactory.sol\":16768:16780  localCounter */\n      dup2\n        /* \"staking/StakingRewardsFactory.sol\":16768:16797  localCounter == _guardCounter */\n      eq\n        /* \"staking/StakingRewardsFactory.sol\":16760:16833  require(localCounter == _guardCounter, \"ReentrancyGuard: reentrant call\") */\n      tag_147\n      jumpi\n      mload(0x40)\n      0x08c379a000000000000000000000000000000000000000000000000000000000\n      dup2\n      mstore\n      0x04\n      add\n      dup1\n      dup1\n      0x20\n      add\n      dup3\n      dup2\n      sub\n      dup3\n      mstore\n      0x1f\n      dup2\n      mstore\n      0x20\n      add\n      dup1\n      0x5265656e7472616e637947756172643a207265656e7472616e742063616c6c00\n      dup2\n      mstore\n      pop\n      0x20\n      add\n      swap2\n      pop\n      pop\n      mload(0x40)\n      dup1\n      swap2\n      sub\n      swap1\n      revert\n    tag_147:\n        /* \"staking/StakingRewardsFactory.sol\":20213:20576  function stake(uint256 amount) external nonReentrant updateReward(msg.sender) {... */\n      pop\n      pop\n      jump\t// out\n        /* \"staking/StakingRewardsFactory.sol\":18088:18117  uint256 public lastUpdateTime */\n    tag_60:\n      sload(0x06)\n      dup2\n      jump\t// out\n        /* \"staking/StakingRewardsFactory.sol\":19077:19399  function rewardPerToken() public view returns (uint256) {... */\n    tag_62:\n        /* \"staking/StakingRewardsFactory.sol\":19124:19131  uint256 */\n      0x00\n        /* \"staking/StakingRewardsFactory.sol\":19163:19164  0 */\n      dup1\n        /* \"staking/StakingRewardsFactory.sol\":19147:19159  _totalSupply */\n      sload(0x0a)\n        /* \"staking/StakingRewardsFactory.sol\":19147:19164  _totalSupply == 0 */\n      eq\n        /* \"staking/StakingRewardsFactory.sol\":19143:19218  if (_totalSupply == 0) {... */\n      iszero\n      tag_149\n      jumpi\n        /* \"staking/StakingRewardsFactory.sol\":19187:19207  rewardPerTokenStored */\n      sload(0x07)\n        /* \"staking/StakingRewardsFactory.sol\":19180:19207  return rewardPerTokenStored */\n      swap1\n      pop\n      jump(tag_148)\n        /* \"staking/StakingRewardsFactory.sol\":19143:19218  if (_totalSupply == 0) {... */\n    tag_149:\n        /* \"staking/StakingRewardsFactory.sol\":19246:19392  rewardPerTokenStored.add(... */\n      tag_150\n        /* \"staking/StakingRewardsFactory.sol\":19288:19378  lastTimeRewardApplicable().sub(lastUpdateTime).mul(rewardRate).mul(1e18).div(_totalSupply) */\n      tag_151\n        /* \"staking/StakingRewardsFactory.sol\":19365:19377  _totalSupply */\n      sload(0x0a)\n        /* \"staking/StakingRewardsFactory.sol\":19288:19360  lastTimeRewardApplicable().sub(lastUpdateTime).mul(rewardRate).mul(1e18) */\n      tag_152\n        /* \"staking/StakingRewardsFactory.sol\":19355:19359  1e18 */\n      0x0de0b6b3a7640000\n        /* \"staking/StakingRewardsFactory.sol\":19288:19350  lastTimeRewardApplicable().sub(lastUpdateTime).mul(rewardRate) */\n      tag_153\n        /* \"staking/StakingRewardsFactory.sol\":19339:19349  rewardRate */\n      sload(0x05)\n        /* \"staking/StakingRewardsFactory.sol\":19288:19334  lastTimeRewardApplicable().sub(lastUpdateTime) */\n      tag_154\n        /* \"staking/StakingRewardsFactory.sol\":19319:19333  lastUpdateTime */\n      sload(0x06)\n        /* \"staking/StakingRewardsFactory.sol\":19288:19314  lastTimeRewardApplicable() */\n      tag_155\n        /* \"staking/StakingRewardsFactory.sol\":19288:19312  lastTimeRewardApplicable */\n      tag_52\n        /* \"staking/StakingRewardsFactory.sol\":19288:19314  lastTimeRewardApplicable() */\n      jump\t// in\n    tag_155:\n        /* \"staking/StakingRewardsFactory.sol\":19288:19318  lastTimeRewardApplicable().sub */\n      tag_80\n      swap1\n        /* \"staking/StakingRewardsFactory.sol\":19288:19334  lastTimeRewardApplicable().sub(lastUpdateTime) */\n      swap2\n      swap1\n      0xffffffff\n      and\n      jump\t// in\n    tag_154:\n        /* \"staking/StakingRewardsFactory.sol\":19288:19338  lastTimeRewardApplicable().sub(lastUpdateTime).mul */\n      tag_81\n      swap1\n        /* \"staking/StakingRewardsFactory.sol\":19288:19350  lastTimeRewardApplicable().sub(lastUpdateTime).mul(rewardRate) */\n      swap2\n      swap1\n      0xffffffff\n      and\n      jump\t// in\n    tag_153:\n        /* \"staking/StakingRewardsFactory.sol\":19288:19354  lastTimeRewardApplicable().sub(lastUpdateTime).mul(rewardRate).mul */\n      tag_81\n      swap1\n        /* \"staking/StakingRewardsFactory.sol\":19288:19360  lastTimeRewardApplicable().sub(lastUpdateTime).mul(rewardRate).mul(1e18) */\n      swap2\n      swap1\n      0xffffffff\n      and\n      jump\t// in\n    tag_152:\n        /* \"staking/StakingRewardsFactory.sol\":19288:19364  lastTimeRewardApplicable().sub(lastUpdateTime).mul(rewardRate).mul(1e18).div */\n      tag_82\n      swap1\n        /* \"staking/StakingRewardsFactory.sol\":19288:19378  lastTimeRewardApplicable().sub(lastUpdateTime).mul(rewardRate).mul(1e18).div(_totalSupply) */\n      swap2\n      swap1\n      0xffffffff\n      and\n      jump\t// in\n    tag_151:\n        /* \"staking/StakingRewardsFactory.sol\":19246:19266  rewardPerTokenStored */\n      sload(0x07)\n        /* \"staking/StakingRewardsFactory.sol\":19246:19270  rewardPerTokenStored.add */\n      tag_83\n      swap1\n        /* \"staking/StakingRewardsFactory.sol\":19246:19392  rewardPerTokenStored.add(... */\n      swap2\n      swap1\n      0xffffffff\n      and\n      jump\t// in\n    tag_150:\n        /* \"staking/StakingRewardsFactory.sol\":19227:19392  return... */\n      swap1\n      pop\n        /* \"staking/StakingRewardsFactory.sol\":19077:19399  function rewardPerToken() public view returns (uint256) {... */\n    tag_148:\n      swap1\n      jump\t// out\n        /* \"staking/StakingRewardsFactory.sol\":17952:17978  IERC20 public rewardsToken */\n    tag_64:\n      0x02\n      0x00\n      swap1\n      sload\n      swap1\n      0x0100\n      exp\n      swap1\n      div\n      0xffffffffffffffffffffffffffffffffffffffff\n      and\n      dup2\n      jump\t// out\n        /* \"staking/StakingRewardsFactory.sol\":18123:18158  uint256 public rewardPerTokenStored */\n    tag_66:\n      sload(0x07)\n      dup2\n      jump\t// out\n        /* \"staking/StakingRewardsFactory.sol\":21245:21339  function exit() external {... */\n    tag_68:\n        /* \"staking/StakingRewardsFactory.sol\":21280:21311  withdraw(_balances[msg.sender]) */\n      tag_157\n        /* \"staking/StakingRewardsFactory.sol\":21289:21298  _balances */\n      0x0b\n        /* \"staking/StakingRewardsFactory.sol\":21289:21310  _balances[msg.sender] */\n      0x00\n        /* \"staking/StakingRewardsFactory.sol\":21299:21309  msg.sender */\n      caller\n        /* \"staking/StakingRewardsFactory.sol\":21289:21310  _balances[msg.sender] */\n      0xffffffffffffffffffffffffffffffffffffffff\n      and\n      0xffffffffffffffffffffffffffffffffffffffff\n      and\n      dup2\n      mstore\n      0x20\n      add\n      swap1\n      dup2\n      mstore\n      0x20\n      add\n      0x00\n      keccak256\n      sload\n        /* \"staking/StakingRewardsFactory.sol\":21280:21288  withdraw */\n      tag_39\n        /* \"staking/StakingRewardsFactory.sol\":21280:21311  withdraw(_balances[msg.sender]) */\n      jump\t// in\n    tag_157:\n        /* \"staking/StakingRewardsFactory.sol\":21321:21332  getReward() */\n      tag_158\n        /* \"staking/StakingRewardsFactory.sol\":21321:21330  getReward */\n      tag_41\n        /* \"staking/StakingRewardsFactory.sol\":21321:21332  getReward() */\n      jump\t// in\n    tag_158:\n        /* \"staking/StakingRewardsFactory.sol\":21245:21339  function exit() external {... */\n      jump\t// out\n        /* \"staking/StakingRewardsFactory.sol\":18016:18047  uint256 public periodFinish = 0 */\n    tag_70:\n      sload(0x04)\n      dup2\n      jump\t// out\n        /* \"staking/StakingRewardsFactory.sol\":19659:20207  function stakeWithPermit(uint256 amount, uint deadline, uint8 v, bytes32 r, bytes32 s) external nonReentrant updateReward(msg.sender) {... */\n    tag_73:\n        /* \"staking/StakingRewardsFactory.sol\":16692:16693  1 */\n      0x01\n        /* \"staking/StakingRewardsFactory.sol\":16675:16688  _guardCounter */\n      dup1\n      0x00\n        /* \"staking/StakingRewardsFactory.sol\":16675:16693  _guardCounter += 1 */\n      dup3\n      dup3\n      sload\n      add\n      swap3\n      pop\n      pop\n      dup2\n      swap1\n      sstore\n      pop\n        /* \"staking/StakingRewardsFactory.sol\":16703:16723  uint256 localCounter */\n      0x00\n        /* \"staking/StakingRewardsFactory.sol\":16726:16739  _guardCounter */\n      sload(0x01)\n        /* \"staking/StakingRewardsFactory.sol\":16703:16739  uint256 localCounter = _guardCounter */\n      swap1\n      pop\n        /* \"staking/StakingRewardsFactory.sol\":19781:19791  msg.sender */\n      caller\n        /* \"staking/StakingRewardsFactory.sol\":22736:22752  rewardPerToken() */\n      tag_161\n        /* \"staking/StakingRewardsFactory.sol\":22736:22750  rewardPerToken */\n      tag_62\n        /* \"staking/StakingRewardsFactory.sol\":22736:22752  rewardPerToken() */\n      jump\t// in\n    tag_161:\n        /* \"staking/StakingRewardsFactory.sol\":22713:22733  rewardPerTokenStored */\n      0x07\n        /* \"staking/StakingRewardsFactory.sol\":22713:22752  rewardPerTokenStored = rewardPerToken() */\n      dup2\n      swap1\n      sstore\n      pop\n        /* \"staking/StakingRewardsFactory.sol\":22779:22805  lastTimeRewardApplicable() */\n      tag_162\n        /* \"staking/StakingRewardsFactory.sol\":22779:22803  lastTimeRewardApplicable */\n      tag_52\n        /* \"staking/StakingRewardsFactory.sol\":22779:22805  lastTimeRewardApplicable() */\n      jump\t// in\n    tag_162:\n        /* \"staking/StakingRewardsFactory.sol\":22762:22776  lastUpdateTime */\n      0x06\n        /* \"staking/StakingRewardsFactory.sol\":22762:22805  lastUpdateTime = lastTimeRewardApplicable() */\n      dup2\n      swap1\n      sstore\n      pop\n        /* \"staking/StakingRewardsFactory.sol\":22838:22839  0 */\n      0x00\n        /* \"staking/StakingRewardsFactory.sol\":22819:22840  account != address(0) */\n      0xffffffffffffffffffffffffffffffffffffffff\n      and\n        /* \"staking/StakingRewardsFactory.sol\":22819:22826  account */\n      dup2\n        /* \"staking/StakingRewardsFactory.sol\":22819:22840  account != address(0) */\n      0xffffffffffffffffffffffffffffffffffffffff\n      and\n      eq\n        /* \"staking/StakingRewardsFactory.sol\":22815:22969  if (account != address(0)) {... */\n      tag_163\n      jumpi\n        /* \"staking/StakingRewardsFactory.sol\":22875:22890  earned(account) */\n      tag_164\n        /* \"staking/StakingRewardsFactory.sol\":22882:22889  account */\n      dup2\n        /* \"staking/StakingRewardsFactory.sol\":22875:22881  earned */\n      tag_28\n        /* \"staking/StakingRewardsFactory.sol\":22875:22890  earned(account) */\n      jump\t// in\n    tag_164:\n        /* \"staking/StakingRewardsFactory.sol\":22856:22863  rewards */\n      0x09\n        /* \"staking/StakingRewardsFactory.sol\":22856:22872  rewards[account] */\n      0x00\n        /* \"staking/StakingRewardsFactory.sol\":22864:22871  account */\n      dup4\n        /* \"staking/StakingRewardsFactory.sol\":22856:22872  rewards[account] */\n      0xffffffffffffffffffffffffffffffffffffffff\n      and\n      0xffffffffffffffffffffffffffffffffffffffff\n      and\n      dup2\n      mstore\n      0x20\n      add\n      swap1\n      dup2\n      mstore\n      0x20\n      add\n      0x00\n      keccak256\n        /* \"staking/StakingRewardsFactory.sol\":22856:22890  rewards[account] = earned(account) */\n      dup2\n      swap1\n      sstore\n      pop\n        /* \"staking/StakingRewardsFactory.sol\":22938:22958  rewardPerTokenStored */\n      sload(0x07)\n        /* \"staking/StakingRewardsFactory.sol\":22904:22926  userRewardPerTokenPaid */\n      0x08\n        /* \"staking/StakingRewardsFactory.sol\":22904:22935  userRewardPerTokenPaid[account] */\n      0x00\n        /* \"staking/StakingRewardsFactory.sol\":22927:22934  account */\n      dup4\n        /* \"staking/StakingRewardsFactory.sol\":22904:22935  userRewardPerTokenPaid[account] */\n      0xffffffffffffffffffffffffffffffffffffffff\n      and\n      0xffffffffffffffffffffffffffffffffffffffff\n      and\n      dup2\n      mstore\n      0x20\n      add\n      swap1\n      dup2\n      mstore\n      0x20\n      add\n      0x00\n      keccak256\n        /* \"staking/StakingRewardsFactory.sol\":22904:22958  userRewardPerTokenPaid[account] = rewardPerTokenStored */\n      dup2\n      swap1\n      sstore\n      pop\n        /* \"staking/StakingRewardsFactory.sol\":22815:22969  if (account != address(0)) {... */\n    tag_163:\n        /* \"staking/StakingRewardsFactory.sol\":19820:19821  0 */\n      0x00\n        /* \"staking/StakingRewardsFactory.sol\":19811:19817  amount */\n      dup8\n        /* \"staking/StakingRewardsFactory.sol\":19811:19821  amount > 0 */\n      gt\n        /* \"staking/StakingRewardsFactory.sol\":19803:19840  require(amount > 0, \"Cannot stake 0\") */\n      tag_166\n      jumpi\n      mload(0x40)\n      0x08c379a000000000000000000000000000000000000000000000000000000000\n      dup2\n      mstore\n      0x04\n      add\n      dup1\n      dup1\n      0x20\n      add\n      dup3\n      dup2\n      sub\n      dup3\n      mstore\n      0x0e\n      dup2\n      mstore\n      0x20\n      add\n      dup1\n      0x43616e6e6f74207374616b652030000000000000000000000000000000000000\n      dup2\n      mstore\n      pop\n      0x20\n      add\n      swap2\n      pop\n      pop\n      mload(0x40)\n      dup1\n      swap2\n      sub\n      swap1\n      revert\n    tag_166:\n        /* \"staking/StakingRewardsFactory.sol\":19865:19889  _totalSupply.add(amount) */\n      tag_167\n        /* \"staking/StakingRewardsFactory.sol\":19882:19888  amount */\n      dup8\n        /* \"staking/StakingRewardsFactory.sol\":19865:19877  _totalSupply */\n      sload(0x0a)\n        /* \"staking/StakingRewardsFactory.sol\":19865:19881  _totalSupply.add */\n      tag_83\n      swap1\n        /* \"staking/StakingRewardsFactory.sol\":19865:19889  _totalSupply.add(amount) */\n      swap2\n      swap1\n      0xffffffff\n      and\n      jump\t// in\n    tag_167:\n        /* \"staking/StakingRewardsFactory.sol\":19850:19862  _totalSupply */\n      0x0a\n        /* \"staking/StakingRewardsFactory.sol\":19850:19889  _totalSupply = _totalSupply.add(amount) */\n      dup2\n      swap1\n      sstore\n      pop\n        /* \"staking/StakingRewardsFactory.sol\":19923:19956  _balances[msg.sender].add(amount) */\n      tag_168\n        /* \"staking/StakingRewardsFactory.sol\":19949:19955  amount */\n      dup8\n        /* \"staking/StakingRewardsFactory.sol\":19923:19932  _balances */\n      0x0b\n        /* \"staking/StakingRewardsFactory.sol\":19923:19944  _balances[msg.sender] */\n      0x00\n        /* \"staking/StakingRewardsFactory.sol\":19933:19943  msg.sender */\n      caller\n        /* \"staking/StakingRewardsFactory.sol\":19923:19944  _balances[msg.sender] */\n      0xffffffffffffffffffffffffffffffffffffffff\n      and\n      0xffffffffffffffffffffffffffffffffffffffff\n      and\n      dup2\n      mstore\n      0x20\n      add\n      swap1\n      dup2\n      mstore\n      0x20\n      add\n      0x00\n      keccak256\n      sload\n        /* \"staking/StakingRewardsFactory.sol\":19923:19948  _balances[msg.sender].add */\n      tag_83\n      swap1\n        /* \"staking/StakingRewardsFactory.sol\":19923:19956  _balances[msg.sender].add(amount) */\n      swap2\n      swap1\n      0xffffffff\n      and\n      jump\t// in\n    tag_168:\n        /* \"staking/StakingRewardsFactory.sol\":19899:19908  _balances */\n      0x0b\n        /* \"staking/StakingRewardsFactory.sol\":19899:19920  _balances[msg.sender] */\n      0x00\n        /* \"staking/StakingRewardsFactory.sol\":19909:19919  msg.sender */\n      caller\n        /* \"staking/StakingRewardsFactory.sol\":19899:19920  _balances[msg.sender] */\n      0xffffffffffffffffffffffffffffffffffffffff\n      and\n      0xffffffffffffffffffffffffffffffffffffffff\n      and\n      dup2\n      mstore\n      0x20\n      add\n      swap1\n      dup2\n      mstore\n      0x20\n      add\n      0x00\n      keccak256\n        /* \"staking/StakingRewardsFactory.sol\":19899:19956  _balances[msg.sender] = _balances[msg.sender].add(amount) */\n      dup2\n      swap1\n      sstore\n      pop\n        /* \"staking/StakingRewardsFactory.sol\":20009:20021  stakingToken */\n      0x03\n      0x00\n      swap1\n      sload\n      swap1\n      0x0100\n      exp\n      swap1\n      div\n      0xffffffffffffffffffffffffffffffffffffffff\n      and\n        /* \"staking/StakingRewardsFactory.sol\":19985:20030  IUniswapV2ERC20(address(stakingToken)).permit */\n      0xffffffffffffffffffffffffffffffffffffffff\n      and\n      0xd505accf\n        /* \"staking/StakingRewardsFactory.sol\":20031:20041  msg.sender */\n      caller\n        /* \"staking/StakingRewardsFactory.sol\":20051:20055  this */\n      address\n        /* \"staking/StakingRewardsFactory.sol\":20058:20064  amount */\n      dup11\n        /* \"staking/StakingRewardsFactory.sol\":20066:20074  deadline */\n      dup11\n        /* \"staking/StakingRewardsFactory.sol\":20076:20077  v */\n      dup11\n        /* \"staking/StakingRewardsFactory.sol\":20079:20080  r */\n      dup11\n        /* \"staking/StakingRewardsFactory.sol\":20082:20083  s */\n      dup11\n        /* \"staking/StakingRewardsFactory.sol\":19985:20084  IUniswapV2ERC20(address(stakingToken)).permit(msg.sender, address(this), amount, deadline, v, r, s) */\n      mload(0x40)\n      dup9\n      0xffffffff\n      and\n      0xe0\n      shl\n      dup2\n      mstore\n      0x04\n      add\n      dup1\n      dup9\n      0xffffffffffffffffffffffffffffffffffffffff\n      and\n      0xffffffffffffffffffffffffffffffffffffffff\n      and\n      dup2\n      mstore\n      0x20\n      add\n      dup8\n      0xffffffffffffffffffffffffffffffffffffffff\n      and\n      0xffffffffffffffffffffffffffffffffffffffff\n      and\n      dup2\n      mstore\n      0x20\n      add\n      dup7\n      dup2\n      mstore\n      0x20\n      add\n      dup6\n      dup2\n      mstore\n      0x20\n      add\n      dup5\n      0xff\n      and\n      0xff\n      and\n      dup2\n      mstore\n      0x20\n      add\n      dup4\n      dup2\n      mstore\n      0x20\n      add\n      dup3\n      dup2\n      mstore\n      0x20\n      add\n      swap8\n      pop\n      pop\n      pop\n      pop\n      pop\n      pop\n      pop\n      pop\n      0x00\n      mload(0x40)\n      dup1\n      dup4\n      sub\n      dup2\n      0x00\n      dup8\n      dup1\n      extcodesize\n      iszero\n        /* \"--CODEGEN--\":8:17   */\n      dup1\n        /* \"--CODEGEN--\":5:7   */\n      iszero\n      tag_169\n      jumpi\n        /* \"--CODEGEN--\":30:31   */\n      0x00\n        /* \"--CODEGEN--\":27:28   */\n      dup1\n        /* \"--CODEGEN--\":20:32   */\n      revert\n        /* \"--CODEGEN--\":5:7   */\n    tag_169:\n        /* \"staking/StakingRewardsFactory.sol\":19985:20084  IUniswapV2ERC20(address(stakingToken)).permit(msg.sender, address(this), amount, deadline, v, r, s) */\n      pop\n      gas\n      call\n      iszero\n        /* \"--CODEGEN--\":8:17   */\n      dup1\n        /* \"--CODEGEN--\":5:7   */\n      iszero\n      tag_170\n      jumpi\n        /* \"--CODEGEN--\":45:61   */\n      returndatasize\n        /* \"--CODEGEN--\":42:43   */\n      0x00\n        /* \"--CODEGEN--\":39:40   */\n      dup1\n        /* \"--CODEGEN--\":24:62   */\n      returndatacopy\n        /* \"--CODEGEN--\":77:93   */\n      returndatasize\n        /* \"--CODEGEN--\":74:75   */\n      0x00\n        /* \"--CODEGEN--\":67:94   */\n      revert\n        /* \"--CODEGEN--\":5:7   */\n    tag_170:\n        /* \"staking/StakingRewardsFactory.sol\":19985:20084  IUniswapV2ERC20(address(stakingToken)).permit(msg.sender, address(this), amount, deadline, v, r, s) */\n      pop\n      pop\n      pop\n      pop\n        /* \"staking/StakingRewardsFactory.sol\":20095:20159  stakingToken.safeTransferFrom(msg.sender, address(this), amount) */\n      tag_171\n        /* \"staking/StakingRewardsFactory.sol\":20125:20135  msg.sender */\n      caller\n        /* \"staking/StakingRewardsFactory.sol\":20145:20149  this */\n      address\n        /* \"staking/StakingRewardsFactory.sol\":20152:20158  amount */\n      dup10\n        /* \"staking/StakingRewardsFactory.sol\":20095:20107  stakingToken */\n      0x03\n      0x00\n      swap1\n      sload\n      swap1\n      0x0100\n      exp\n      swap1\n      div\n      0xffffffffffffffffffffffffffffffffffffffff\n      and\n        /* \"staking/StakingRewardsFactory.sol\":20095:20124  stakingToken.safeTransferFrom */\n      0xffffffffffffffffffffffffffffffffffffffff\n      and\n      tag_146\n      swap1\n        /* \"staking/StakingRewardsFactory.sol\":20095:20159  stakingToken.safeTransferFrom(msg.sender, address(this), amount) */\n      swap4\n      swap3\n      swap2\n      swap1\n      0xffffffff\n      and\n      jump\t// in\n    tag_171:\n        /* \"staking/StakingRewardsFactory.sol\":20181:20191  msg.sender */\n      caller\n        /* \"staking/StakingRewardsFactory.sol\":20174:20200  Staked(msg.sender, amount) */\n      0xffffffffffffffffffffffffffffffffffffffff\n      and\n      0x9e71bc8eea02a63969f509818f2dafb9254532904319f9dbda79b67bd34a5f3d\n        /* \"staking/StakingRewardsFactory.sol\":20193:20199  amount */\n      dup9\n        /* \"staking/StakingRewardsFactory.sol\":20174:20200  Staked(msg.sender, amount) */\n      mload(0x40)\n      dup1\n      dup3\n      dup2\n      mstore\n      0x20\n      add\n      swap2\n      pop\n      pop\n      mload(0x40)\n      dup1\n      swap2\n      sub\n      swap1\n      log2\n        /* \"staking/StakingRewardsFactory.sol\":16749:16750  _ */\n      pop\n        /* \"staking/StakingRewardsFactory.sol\":16784:16797  _guardCounter */\n      sload(0x01)\n        /* \"staking/StakingRewardsFactory.sol\":16768:16780  localCounter */\n      dup2\n        /* \"staking/StakingRewardsFactory.sol\":16768:16797  localCounter == _guardCounter */\n      eq\n        /* \"staking/StakingRewardsFactory.sol\":16760:16833  require(localCounter == _guardCounter, \"ReentrancyGuard: reentrant call\") */\n      tag_172\n      jumpi\n      mload(0x40)\n      0x08c379a000000000000000000000000000000000000000000000000000000000\n      dup2\n      mstore\n      0x04\n      add\n      dup1\n      dup1\n      0x20\n      add\n      dup3\n      dup2\n      sub\n      dup3\n      mstore\n      0x1f\n      dup2\n      mstore\n      0x20\n      add\n      dup1\n      0x5265656e7472616e637947756172643a207265656e7472616e742063616c6c00\n      dup2\n      mstore\n      pop\n      0x20\n      add\n      swap2\n      pop\n      pop\n      mload(0x40)\n      dup1\n      swap2\n      sub\n      swap1\n      revert\n    tag_172:\n        /* \"staking/StakingRewardsFactory.sol\":19659:20207  function stakeWithPermit(uint256 amount, uint deadline, uint8 v, bytes32 r, bytes32 s) external nonReentrant updateReward(msg.sender) {... */\n      pop\n      pop\n      pop\n      pop\n      pop\n      pop\n      jump\t// out\n        /* \"staking/StakingRewardsFactory.sol\":6349:6528  function sub(uint256 a, uint256 b) internal pure returns (uint256) {... */\n    tag_80:\n        /* \"staking/StakingRewardsFactory.sol\":6407:6414  uint256 */\n      0x00\n        /* \"staking/StakingRewardsFactory.sol\":6439:6440  a */\n      dup3\n        /* \"staking/StakingRewardsFactory.sol\":6434:6435  b */\n      dup3\n        /* \"staking/StakingRewardsFactory.sol\":6434:6440  b <= a */\n      gt\n      iszero\n        /* \"staking/StakingRewardsFactory.sol\":6426:6475  require(b <= a, \"SafeMath: subtraction overflow\") */\n      tag_174\n      jumpi\n      mload(0x40)\n      0x08c379a000000000000000000000000000000000000000000000000000000000\n      dup2\n      mstore\n      0x04\n      add\n      dup1\n      dup1\n      0x20\n      add\n      dup3\n      dup2\n      sub\n      dup3\n      mstore\n      0x1e\n      dup2\n      mstore\n      0x20\n      add\n      dup1\n      0x536166654d6174683a207375627472616374696f6e206f766572666c6f770000\n      dup2\n      mstore\n      pop\n      0x20\n      add\n      swap2\n      pop\n      pop\n      mload(0x40)\n      dup1\n      swap2\n      sub\n      swap1\n      revert\n    tag_174:\n        /* \"staking/StakingRewardsFactory.sol\":6485:6494  uint256 c */\n      0x00\n        /* \"staking/StakingRewardsFactory.sol\":6501:6502  b */\n      dup3\n        /* \"staking/StakingRewardsFactory.sol\":6497:6498  a */\n      dup5\n        /* \"staking/StakingRewardsFactory.sol\":6497:6502  a - b */\n      sub\n        /* \"staking/StakingRewardsFactory.sol\":6485:6502  uint256 c = a - b */\n      swap1\n      pop\n        /* \"staking/StakingRewardsFactory.sol\":6520:6521  c */\n      dup1\n        /* \"staking/StakingRewardsFactory.sol\":6513:6521  return c */\n      swap2\n      pop\n      pop\n        /* \"staking/StakingRewardsFactory.sol\":6349:6528  function sub(uint256 a, uint256 b) internal pure returns (uint256) {... */\n      swap3\n      swap2\n      pop\n      pop\n      jump\t// out\n        /* \"staking/StakingRewardsFactory.sol\":6768:7226  function mul(uint256 a, uint256 b) internal pure returns (uint256) {... */\n    tag_81:\n        /* \"staking/StakingRewardsFactory.sol\":6826:6833  uint256 */\n      0x00\n        /* \"staking/StakingRewardsFactory.sol\":7071:7072  0 */\n      dup1\n        /* \"staking/StakingRewardsFactory.sol\":7066:7067  a */\n      dup4\n        /* \"staking/StakingRewardsFactory.sol\":7066:7072  a == 0 */\n      eq\n        /* \"staking/StakingRewardsFactory.sol\":7062:7107  if (a == 0) {... */\n      iszero\n      tag_176\n      jumpi\n        /* \"staking/StakingRewardsFactory.sol\":7095:7096  0 */\n      0x00\n        /* \"staking/StakingRewardsFactory.sol\":7088:7096  return 0 */\n      swap1\n      pop\n      jump(tag_175)\n        /* \"staking/StakingRewardsFactory.sol\":7062:7107  if (a == 0) {... */\n    tag_176:\n        /* \"staking/StakingRewardsFactory.sol\":7117:7126  uint256 c */\n      0x00\n        /* \"staking/StakingRewardsFactory.sol\":7133:7134  b */\n      dup3\n        /* \"staking/StakingRewardsFactory.sol\":7129:7130  a */\n      dup5\n        /* \"staking/StakingRewardsFactory.sol\":7129:7134  a * b */\n      mul\n        /* \"staking/StakingRewardsFactory.sol\":7117:7134  uint256 c = a * b */\n      swap1\n      pop\n        /* \"staking/StakingRewardsFactory.sol\":7161:7162  b */\n      dup3\n        /* \"staking/StakingRewardsFactory.sol\":7156:7157  a */\n      dup5\n        /* \"staking/StakingRewardsFactory.sol\":7152:7153  c */\n      dup3\n        /* \"staking/StakingRewardsFactory.sol\":7152:7157  c / a */\n      dup2\n      tag_177\n      jumpi\n      invalid\n    tag_177:\n      div\n        /* \"staking/StakingRewardsFactory.sol\":7152:7162  c / a == b */\n      eq\n        /* \"staking/StakingRewardsFactory.sol\":7144:7200  require(c / a == b, \"SafeMath: multiplication overflow\") */\n      tag_178\n      jumpi\n      mload(0x40)\n      0x08c379a000000000000000000000000000000000000000000000000000000000\n      dup2\n      mstore\n      0x04\n      add\n      dup1\n      dup1\n      0x20\n      add\n      dup3\n      dup2\n      sub\n      dup3\n      mstore\n      0x21\n      dup2\n      mstore\n      0x20\n      add\n      dup1\n      data_9113bb53c2876a3805b2c9242029423fc540a728243ce887ab24c82cf119fba3\n      0x21\n      swap2\n      codecopy\n      0x40\n      add\n      swap2\n      pop\n      pop\n      mload(0x40)\n      dup1\n      swap2\n      sub\n      swap1\n      revert\n    tag_178:\n        /* \"staking/StakingRewardsFactory.sol\":7218:7219  c */\n      dup1\n        /* \"staking/StakingRewardsFactory.sol\":7211:7219  return c */\n      swap2\n      pop\n      pop\n        /* \"staking/StakingRewardsFactory.sol\":6768:7226  function mul(uint256 a, uint256 b) internal pure returns (uint256) {... */\n    tag_175:\n      swap3\n      swap2\n      pop\n      pop\n      jump\t// out\n        /* \"staking/StakingRewardsFactory.sol\":7681:8007  function div(uint256 a, uint256 b) internal pure returns (uint256) {... */\n    tag_82:\n        /* \"staking/StakingRewardsFactory.sol\":7739:7746  uint256 */\n      0x00\n        /* \"staking/StakingRewardsFactory.sol\":7836:7837  0 */\n      dup1\n        /* \"staking/StakingRewardsFactory.sol\":7832:7833  b */\n      dup3\n        /* \"staking/StakingRewardsFactory.sol\":7832:7837  b > 0 */\n      gt\n        /* \"staking/StakingRewardsFactory.sol\":7824:7868  require(b > 0, \"SafeMath: division by zero\") */\n      tag_180\n      jumpi\n      mload(0x40)\n      0x08c379a000000000000000000000000000000000000000000000000000000000\n      dup2\n      mstore\n      0x04\n      add\n      dup1\n      dup1\n      0x20\n      add\n      dup3\n      dup2\n      sub\n      dup3\n      mstore\n      0x1a\n      dup2\n      mstore\n      0x20\n      add\n      dup1\n      0x536166654d6174683a206469766973696f6e206279207a65726f000000000000\n      dup2\n      mstore\n      pop\n      0x20\n      add\n      swap2\n      pop\n      pop\n      mload(0x40)\n      dup1\n      swap2\n      sub\n      swap1\n      revert\n    tag_180:\n        /* \"staking/StakingRewardsFactory.sol\":7878:7887  uint256 c */\n      0x00\n        /* \"staking/StakingRewardsFactory.sol\":7894:7895  b */\n      dup3\n        /* \"staking/StakingRewardsFactory.sol\":7890:7891  a */\n      dup5\n        /* \"staking/StakingRewardsFactory.sol\":7890:7895  a / b */\n      dup2\n      tag_181\n      jumpi\n      invalid\n    tag_181:\n      div\n        /* \"staking/StakingRewardsFactory.sol\":7878:7895  uint256 c = a / b */\n      swap1\n      pop\n        /* \"staking/StakingRewardsFactory.sol\":7999:8000  c */\n      dup1\n        /* \"staking/StakingRewardsFactory.sol\":7992:8000  return c */\n      swap2\n      pop\n      pop\n        /* \"staking/StakingRewardsFactory.sol\":7681:8007  function div(uint256 a, uint256 b) internal pure returns (uint256) {... */\n      swap3\n      swap2\n      pop\n      pop\n      jump\t// out\n        /* \"staking/StakingRewardsFactory.sol\":5909:6085  function add(uint256 a, uint256 b) internal pure returns (uint256) {... */\n    tag_83:\n        /* \"staking/StakingRewardsFactory.sol\":5967:5974  uint256 */\n      0x00\n        /* \"staking/StakingRewardsFactory.sol\":5986:5995  uint256 c */\n      dup1\n        /* \"staking/StakingRewardsFactory.sol\":6002:6003  b */\n      dup3\n        /* \"staking/StakingRewardsFactory.sol\":5998:5999  a */\n      dup5\n        /* \"staking/StakingRewardsFactory.sol\":5998:6003  a + b */\n      add\n        /* \"staking/StakingRewardsFactory.sol\":5986:6003  uint256 c = a + b */\n      swap1\n      pop\n        /* \"staking/StakingRewardsFactory.sol\":6026:6027  a */\n      dup4\n        /* \"staking/StakingRewardsFactory.sol\":6021:6022  c */\n      dup2\n        /* \"staking/StakingRewardsFactory.sol\":6021:6027  c >= a */\n      lt\n      iszero\n        /* \"staking/StakingRewardsFactory.sol\":6013:6059  require(c >= a, \"SafeMath: addition overflow\") */\n      tag_183\n      jumpi\n      mload(0x40)\n      0x08c379a000000000000000000000000000000000000000000000000000000000\n      dup2\n      mstore\n      0x04\n      add\n      dup1\n      dup1\n      0x20\n      add\n      dup3\n      dup2\n      sub\n      dup3\n      mstore\n      0x1b\n      dup2\n      mstore\n      0x20\n      add\n      dup1\n      0x536166654d6174683a206164646974696f6e206f766572666c6f770000000000\n      dup2\n      mstore\n      pop\n      0x20\n      add\n      swap2\n      pop\n      pop\n      mload(0x40)\n      dup1\n      swap2\n      sub\n      swap1\n      revert\n    tag_183:\n        /* \"staking/StakingRewardsFactory.sol\":6077:6078  c */\n      dup1\n        /* \"staking/StakingRewardsFactory.sol\":6070:6078  return c */\n      swap2\n      pop\n      pop\n        /* \"staking/StakingRewardsFactory.sol\":5909:6085  function add(uint256 a, uint256 b) internal pure returns (uint256) {... */\n      swap3\n      swap2\n      pop\n      pop\n      jump\t// out\n        /* \"staking/StakingRewardsFactory.sol\":12341:12515  function safeTransfer(IERC20 token, address to, uint256 value) internal {... */\n    tag_119:\n        /* \"staking/StakingRewardsFactory.sol\":12423:12508  callOptionalReturn(token, abi.encodeWithSelector(token.transfer.selector, to, value)) */\n      tag_185\n        /* \"staking/StakingRewardsFactory.sol\":12442:12447  token */\n      dup4\n        /* \"staking/StakingRewardsFactory.sol\":12472:12477  token */\n      dup5\n        /* \"staking/StakingRewardsFactory.sol\":12472:12486  token.transfer */\n      0xffffffffffffffffffffffffffffffffffffffff\n      and\n      0xa9059cbb\n        /* \"staking/StakingRewardsFactory.sol\":12472:12495  token.transfer.selector */\n      swap1\n      pop\n      0xe0\n      shl\n        /* \"staking/StakingRewardsFactory.sol\":12497:12499  to */\n      dup5\n        /* \"staking/StakingRewardsFactory.sol\":12501:12506  value */\n      dup5\n        /* \"staking/StakingRewardsFactory.sol\":12449:12507  abi.encodeWithSelector(token.transfer.selector, to, value) */\n      add(0x24, mload(0x40))\n      dup1\n      dup4\n      0xffffffffffffffffffffffffffffffffffffffff\n      and\n      0xffffffffffffffffffffffffffffffffffffffff\n      and\n      dup2\n      mstore\n      0x20\n      add\n      dup3\n      dup2\n      mstore\n      0x20\n      add\n      swap3\n      pop\n      pop\n      pop\n      mload(0x40)\n        /* \"--CODEGEN--\":49:53   */\n      0x20\n        /* \"--CODEGEN--\":39:46   */\n      dup2\n        /* \"--CODEGEN--\":30:37   */\n      dup4\n        /* \"--CODEGEN--\":26:47   */\n      sub\n        /* \"--CODEGEN--\":22:54   */\n      sub\n        /* \"--CODEGEN--\":13:20   */\n      dup2\n        /* \"--CODEGEN--\":6:55   */\n      mstore\n        /* \"staking/StakingRewardsFactory.sol\":12449:12507  abi.encodeWithSelector(token.transfer.selector, to, value) */\n      swap1\n      0x40\n      mstore\n      swap1\n      not(0xffffffffffffffffffffffffffffffffffffffffffffffffffffffff)\n      and\n        /* \"--CODEGEN--\":38:42   */\n      0x20\n        /* \"--CODEGEN--\":29:36   */\n      dup3\n        /* \"--CODEGEN--\":25:43   */\n      add\n        /* \"--CODEGEN--\":67:77   */\n      dup1\n        /* \"--CODEGEN--\":61:78   */\n      mload\n        /* \"--CODEGEN--\":96:154   */\n      0xffffffffffffffffffffffffffffffffffffffffffffffffffffffff\n        /* \"--CODEGEN--\":199:207   */\n      dup4\n        /* \"--CODEGEN--\":192:196   */\n      dup2\n        /* \"--CODEGEN--\":186:190   */\n      dup4\n        /* \"--CODEGEN--\":182:197   */\n      and\n        /* \"--CODEGEN--\":179:208   */\n      or\n        /* \"--CODEGEN--\":167:177   */\n      dup4\n        /* \"--CODEGEN--\":160:209   */\n      mstore\n        /* \"--CODEGEN--\":0:215   */\n      pop\n      pop\n      pop\n        /* \"staking/StakingRewardsFactory.sol\":12449:12507  abi.encodeWithSelector(token.transfer.selector, to, value) */\n      pop\n        /* \"staking/StakingRewardsFactory.sol\":12423:12441  callOptionalReturn */\n      tag_186\n        /* \"staking/StakingRewardsFactory.sol\":12423:12508  callOptionalReturn(token, abi.encodeWithSelector(token.transfer.selector, to, value)) */\n      jump\t// in\n    tag_185:\n        /* \"staking/StakingRewardsFactory.sol\":12341:12515  function safeTransfer(IERC20 token, address to, uint256 value) internal {... */\n      pop\n      pop\n      pop\n      jump\t// out\n        /* \"staking/StakingRewardsFactory.sol\":8937:9041  function min(uint256 a, uint256 b) internal pure returns (uint256) {... */\n    tag_134:\n        /* \"staking/StakingRewardsFactory.sol\":8995:9002  uint256 */\n      0x00\n        /* \"staking/StakingRewardsFactory.sol\":9025:9026  b */\n      dup2\n        /* \"staking/StakingRewardsFactory.sol\":9021:9022  a */\n      dup4\n        /* \"staking/StakingRewardsFactory.sol\":9021:9026  a < b */\n      lt\n        /* \"staking/StakingRewardsFactory.sol\":9021:9034  a < b ? a : b */\n      tag_188\n      jumpi\n        /* \"staking/StakingRewardsFactory.sol\":9033:9034  b */\n      dup2\n        /* \"staking/StakingRewardsFactory.sol\":9021:9034  a < b ? a : b */\n      jump(tag_189)\n    tag_188:\n        /* \"staking/StakingRewardsFactory.sol\":9029:9030  a */\n      dup3\n        /* \"staking/StakingRewardsFactory.sol\":9021:9034  a < b ? a : b */\n    tag_189:\n        /* \"staking/StakingRewardsFactory.sol\":9014:9034  return a < b ? a : b */\n      swap1\n      pop\n        /* \"staking/StakingRewardsFactory.sol\":8937:9041  function min(uint256 a, uint256 b) internal pure returns (uint256) {... */\n      swap3\n      swap2\n      pop\n      pop\n      jump\t// out\n        /* \"staking/StakingRewardsFactory.sol\":12521:12723  function safeTransferFrom(IERC20 token, address from, address to, uint256 value) internal {... */\n    tag_146:\n        /* \"staking/StakingRewardsFactory.sol\":12621:12716  callOptionalReturn(token, abi.encodeWithSelector(token.transferFrom.selector, from, to, value)) */\n      tag_191\n        /* \"staking/StakingRewardsFactory.sol\":12640:12645  token */\n      dup5\n        /* \"staking/StakingRewardsFactory.sol\":12670:12675  token */\n      dup6\n        /* \"staking/StakingRewardsFactory.sol\":12670:12688  token.transferFrom */\n      0xffffffffffffffffffffffffffffffffffffffff\n      and\n      0x23b872dd\n        /* \"staking/StakingRewardsFactory.sol\":12670:12697  token.transferFrom.selector */\n      swap1\n      pop\n      0xe0\n      shl\n        /* \"staking/StakingRewardsFactory.sol\":12699:12703  from */\n      dup6\n        /* \"staking/StakingRewardsFactory.sol\":12705:12707  to */\n      dup6\n        /* \"staking/StakingRewardsFactory.sol\":12709:12714  value */\n      dup6\n        /* \"staking/StakingRewardsFactory.sol\":12647:12715  abi.encodeWithSelector(token.transferFrom.selector, from, to, value) */\n      add(0x24, mload(0x40))\n      dup1\n      dup5\n      0xffffffffffffffffffffffffffffffffffffffff\n      and\n      0xffffffffffffffffffffffffffffffffffffffff\n      and\n      dup2\n      mstore\n      0x20\n      add\n      dup4\n      0xffffffffffffffffffffffffffffffffffffffff\n      and\n      0xffffffffffffffffffffffffffffffffffffffff\n      and\n      dup2\n      mstore\n      0x20\n      add\n      dup3\n      dup2\n      mstore\n      0x20\n      add\n      swap4\n      pop\n      pop\n      pop\n      pop\n      mload(0x40)\n        /* \"--CODEGEN--\":49:53   */\n      0x20\n        /* \"--CODEGEN--\":39:46   */\n      dup2\n        /* \"--CODEGEN--\":30:37   */\n      dup4\n        /* \"--CODEGEN--\":26:47   */\n      sub\n        /* \"--CODEGEN--\":22:54   */\n      sub\n        /* \"--CODEGEN--\":13:20   */\n      dup2\n        /* \"--CODEGEN--\":6:55   */\n      mstore\n        /* \"staking/StakingRewardsFactory.sol\":12647:12715  abi.encodeWithSelector(token.transferFrom.selector, from, to, value) */\n      swap1\n      0x40\n      mstore\n      swap1\n      not(0xffffffffffffffffffffffffffffffffffffffffffffffffffffffff)\n      and\n        /* \"--CODEGEN--\":38:42   */\n      0x20\n        /* \"--CODEGEN--\":29:36   */\n      dup3\n        /* \"--CODEGEN--\":25:43   */\n      add\n        /* \"--CODEGEN--\":67:77   */\n      dup1\n        /* \"--CODEGEN--\":61:78   */\n      mload\n        /* \"--CODEGEN--\":96:154   */\n      0xffffffffffffffffffffffffffffffffffffffffffffffffffffffff\n        /* \"--CODEGEN--\":199:207   */\n      dup4\n        /* \"--CODEGEN--\":192:196   */\n      dup2\n        /* \"--CODEGEN--\":186:190   */\n      dup4\n        /* \"--CODEGEN--\":182:197   */\n      and\n        /* \"--CODEGEN--\":179:208   */\n      or\n        /* \"--CODEGEN--\":167:177   */\n      dup4\n        /* \"--CODEGEN--\":160:209   */\n      mstore\n        /* \"--CODEGEN--\":0:215   */\n      pop\n      pop\n      pop\n        /* \"staking/StakingRewardsFactory.sol\":12647:12715  abi.encodeWithSelector(token.transferFrom.selector, from, to, value) */\n      pop\n        /* \"staking/StakingRewardsFactory.sol\":12621:12639  callOptionalReturn */\n      tag_186\n        /* \"staking/StakingRewardsFactory.sol\":12621:12716  callOptionalReturn(token, abi.encodeWithSelector(token.transferFrom.selector, from, to, value)) */\n      jump\t// in\n    tag_191:\n        /* \"staking/StakingRewardsFactory.sol\":12521:12723  function safeTransferFrom(IERC20 token, address from, address to, uint256 value) internal {... */\n      pop\n      pop\n      pop\n      pop\n      jump\t// out\n        /* \"staking/StakingRewardsFactory.sol\":14300:15395  function callOptionalReturn(IERC20 token, bytes memory data) private {... */\n    tag_186:\n        /* \"staking/StakingRewardsFactory.sol\":14895:14922  address(token).isContract() */\n      tag_193\n        /* \"staking/StakingRewardsFactory.sol\":14903:14908  token */\n      dup3\n        /* \"staking/StakingRewardsFactory.sol\":14895:14920  address(token).isContract */\n      0xffffffffffffffffffffffffffffffffffffffff\n      and\n      tag_194\n        /* \"staking/StakingRewardsFactory.sol\":14895:14922  address(token).isContract() */\n      jump\t// in\n    tag_193:\n        /* \"staking/StakingRewardsFactory.sol\":14887:14958  require(address(token).isContract(), \"SafeERC20: call to non-contract\") */\n      tag_195\n      jumpi\n      mload(0x40)\n      0x08c379a000000000000000000000000000000000000000000000000000000000\n      dup2\n      mstore\n      0x04\n      add\n      dup1\n      dup1\n      0x20\n      add\n      dup3\n      dup2\n      sub\n      dup3\n      mstore\n      0x1f\n      dup2\n      mstore\n      0x20\n      add\n      dup1\n      0x5361666545524332303a2063616c6c20746f206e6f6e2d636f6e747261637400\n      dup2\n      mstore\n      pop\n      0x20\n      add\n      swap2\n      pop\n      pop\n      mload(0x40)\n      dup1\n      swap2\n      sub\n      swap1\n      revert\n    tag_195:\n        /* \"staking/StakingRewardsFactory.sol\":15029:15041  bool success */\n      0x00\n        /* \"staking/StakingRewardsFactory.sol\":15043:15066  bytes memory returndata */\n      0x60\n        /* \"staking/StakingRewardsFactory.sol\":15078:15083  token */\n      dup4\n        /* \"staking/StakingRewardsFactory.sol\":15070:15089  address(token).call */\n      0xffffffffffffffffffffffffffffffffffffffff\n      and\n        /* \"staking/StakingRewardsFactory.sol\":15090:15094  data */\n      dup4\n        /* \"staking/StakingRewardsFactory.sol\":15070:15095  address(token).call(data) */\n      mload(0x40)\n      dup1\n      dup3\n      dup1\n      mload\n      swap1\n      0x20\n      add\n      swap1\n      dup1\n      dup4\n      dup4\n        /* \"--CODEGEN--\":36:189   */\n    tag_196:\n        /* \"--CODEGEN--\":66:68   */\n      0x20\n        /* \"--CODEGEN--\":61:64   */\n      dup4\n        /* \"--CODEGEN--\":58:69   */\n      lt\n        /* \"--CODEGEN--\":36:189   */\n      tag_198\n      jumpi\n        /* \"--CODEGEN--\":182:185   */\n      dup1\n        /* \"--CODEGEN--\":176:186   */\n      mload\n        /* \"--CODEGEN--\":171:174   */\n      dup3\n        /* \"--CODEGEN--\":164:187   */\n      mstore\n        /* \"--CODEGEN--\":98:100   */\n      0x20\n        /* \"--CODEGEN--\":93:96   */\n      dup3\n        /* \"--CODEGEN--\":89:101   */\n      add\n        /* \"--CODEGEN--\":82:101   */\n      swap2\n      pop\n        /* \"--CODEGEN--\":123:125   */\n      0x20\n        /* \"--CODEGEN--\":118:121   */\n      dup2\n        /* \"--CODEGEN--\":114:126   */\n      add\n        /* \"--CODEGEN--\":107:126   */\n      swap1\n      pop\n        /* \"--CODEGEN--\":148:150   */\n      0x20\n        /* \"--CODEGEN--\":143:146   */\n      dup4\n        /* \"--CODEGEN--\":139:151   */\n      sub\n        /* \"--CODEGEN--\":132:151   */\n      swap3\n      pop\n        /* \"--CODEGEN--\":36:189   */\n      jump(tag_196)\n    tag_198:\n        /* \"--CODEGEN--\":274:275   */\n      0x01\n        /* \"--CODEGEN--\":267:270   */\n      dup4\n        /* \"--CODEGEN--\":263:265   */\n      0x20\n        /* \"--CODEGEN--\":259:271   */\n      sub\n        /* \"--CODEGEN--\":254:257   */\n      0x0100\n        /* \"--CODEGEN--\":250:272   */\n      exp\n        /* \"--CODEGEN--\":246:276   */\n      sub\n        /* \"--CODEGEN--\":315:319   */\n      dup1\n        /* \"--CODEGEN--\":311:320   */\n      not\n        /* \"--CODEGEN--\":305:308   */\n      dup3\n        /* \"--CODEGEN--\":299:309   */\n      mload\n        /* \"--CODEGEN--\":295:321   */\n      and\n        /* \"--CODEGEN--\":356:360   */\n      dup2\n        /* \"--CODEGEN--\":350:353   */\n      dup5\n        /* \"--CODEGEN--\":344:354   */\n      mload\n        /* \"--CODEGEN--\":340:361   */\n      and\n        /* \"--CODEGEN--\":389:396   */\n      dup1\n        /* \"--CODEGEN--\":380:387   */\n      dup3\n        /* \"--CODEGEN--\":377:397   */\n      or\n        /* \"--CODEGEN--\":372:375   */\n      dup6\n        /* \"--CODEGEN--\":365:398   */\n      mstore\n        /* \"--CODEGEN--\":3:402   */\n      pop\n      pop\n      pop\n        /* \"staking/StakingRewardsFactory.sol\":15070:15095  address(token).call(data) */\n      pop\n      pop\n      pop\n      swap1\n      pop\n      add\n      swap2\n      pop\n      pop\n      0x00\n      mload(0x40)\n      dup1\n      dup4\n      sub\n      dup2\n      0x00\n      dup7\n      gas\n      call\n      swap2\n      pop\n      pop\n      returndatasize\n        /* \"--CODEGEN--\":14:15   */\n      dup1\n        /* \"--CODEGEN--\":21:22   */\n      0x00\n        /* \"--CODEGEN--\":16:47   */\n      dup2\n      eq\n      tag_200\n      jumpi\n        /* \"--CODEGEN--\":75:79   */\n      0x40\n        /* \"--CODEGEN--\":69:80   */\n      mload\n        /* \"--CODEGEN--\":64:80   */\n      swap2\n      pop\n        /* \"--CODEGEN--\":144:148   */\n      0x1f\n        /* \"--CODEGEN--\":140:149   */\n      not\n        /* \"--CODEGEN--\":133:137   */\n      0x3f\n        /* \"--CODEGEN--\":115:131   */\n      returndatasize\n        /* \"--CODEGEN--\":111:138   */\n      add\n        /* \"--CODEGEN--\":107:150   */\n      and\n        /* \"--CODEGEN--\":104:105   */\n      dup3\n        /* \"--CODEGEN--\":100:151   */\n      add\n        /* \"--CODEGEN--\":94:98   */\n      0x40\n        /* \"--CODEGEN--\":87:152   */\n      mstore\n        /* \"--CODEGEN--\":169:185   */\n      returndatasize\n        /* \"--CODEGEN--\":166:167   */\n      dup3\n        /* \"--CODEGEN--\":159:186   */\n      mstore\n        /* \"--CODEGEN--\":225:241   */\n      returndatasize\n        /* \"--CODEGEN--\":222:223   */\n      0x00\n        /* \"--CODEGEN--\":215:219   */\n      0x20\n        /* \"--CODEGEN--\":212:213   */\n      dup5\n        /* \"--CODEGEN--\":208:220   */\n      add\n        /* \"--CODEGEN--\":193:242   */\n      returndatacopy\n        /* \"--CODEGEN--\":7:249   */\n      jump(tag_199)\n        /* \"--CODEGEN--\":16:47   */\n    tag_200:\n        /* \"--CODEGEN--\":36:40   */\n      0x60\n        /* \"--CODEGEN--\":31:40   */\n      swap2\n      pop\n        /* \"--CODEGEN--\":7:249   */\n    tag_199:\n      pop\n        /* \"staking/StakingRewardsFactory.sol\":15028:15095  (bool success, bytes memory returndata) = address(token).call(data) */\n      swap2\n      pop\n      swap2\n      pop\n        /* \"staking/StakingRewardsFactory.sol\":15113:15120  success */\n      dup2\n        /* \"staking/StakingRewardsFactory.sol\":15105:15157  require(success, \"SafeERC20: low-level call failed\") */\n      tag_201\n      jumpi\n      mload(0x40)\n      0x08c379a000000000000000000000000000000000000000000000000000000000\n      dup2\n      mstore\n      0x04\n      add\n      dup1\n      dup1\n      0x20\n      add\n      dup3\n      dup2\n      sub\n      dup3\n      mstore\n      0x20\n      dup2\n      mstore\n      0x20\n      add\n      dup1\n      0x5361666545524332303a206c6f772d6c6576656c2063616c6c206661696c6564\n      dup2\n      mstore\n      pop\n      0x20\n      add\n      swap2\n      pop\n      pop\n      mload(0x40)\n      dup1\n      swap2\n      sub\n      swap1\n      revert\n    tag_201:\n        /* \"staking/StakingRewardsFactory.sol\":15192:15193  0 */\n      0x00\n        /* \"staking/StakingRewardsFactory.sol\":15172:15182  returndata */\n      dup2\n        /* \"staking/StakingRewardsFactory.sol\":15172:15189  returndata.length */\n      mload\n        /* \"staking/StakingRewardsFactory.sol\":15172:15193  returndata.length > 0 */\n      gt\n        /* \"staking/StakingRewardsFactory.sol\":15168:15389  if (returndata.length > 0) { // Return data is optional... */\n      iszero\n      tag_202\n      jumpi\n        /* \"staking/StakingRewardsFactory.sol\":15312:15322  returndata */\n      dup1\n        /* \"staking/StakingRewardsFactory.sol\":15301:15331  abi.decode(returndata, (bool)) */\n      dup1\n      0x20\n      add\n      swap1\n      mload\n        /* \"--CODEGEN--\":13:15   */\n      0x20\n        /* \"--CODEGEN--\":8:11   */\n      dup2\n        /* \"--CODEGEN--\":5:16   */\n      lt\n        /* \"--CODEGEN--\":2:4   */\n      iszero\n      tag_203\n      jumpi\n        /* \"--CODEGEN--\":29:30   */\n      0x00\n        /* \"--CODEGEN--\":26:27   */\n      dup1\n        /* \"--CODEGEN--\":19:31   */\n      revert\n        /* \"--CODEGEN--\":2:4   */\n    tag_203:\n        /* \"staking/StakingRewardsFactory.sol\":15301:15331  abi.decode(returndata, (bool)) */\n      dup2\n      add\n      swap1\n      dup1\n      dup1\n      mload\n      swap1\n      0x20\n      add\n      swap1\n      swap3\n      swap2\n      swap1\n      pop\n      pop\n      pop\n        /* \"staking/StakingRewardsFactory.sol\":15293:15378  require(abi.decode(returndata, (bool)), \"SafeERC20: ERC20 operation did not succeed\") */\n      tag_204\n      jumpi\n      mload(0x40)\n      0x08c379a000000000000000000000000000000000000000000000000000000000\n      dup2\n      mstore\n      0x04\n      add\n      dup1\n      dup1\n      0x20\n      add\n      dup3\n      dup2\n      sub\n      dup3\n      mstore\n      0x2a\n      dup2\n      mstore\n      0x20\n      add\n      dup1\n      data_e11ad79d1e4a7f2e5f376964cb99e8e8f7904e3fc16a109f7a7ecb9aa7956dcd\n      0x2a\n      swap2\n      codecopy\n      0x40\n      add\n      swap2\n      pop\n      pop\n      mload(0x40)\n      dup1\n      swap2\n      sub\n      swap1\n      revert\n    tag_204:\n        /* \"staking/StakingRewardsFactory.sol\":15168:15389  if (returndata.length > 0) { // Return data is optional... */\n    tag_202:\n        /* \"staking/StakingRewardsFactory.sol\":14300:15395  function callOptionalReturn(IERC20 token, bytes memory data) private {... */\n      pop\n      pop\n      pop\n      pop\n      jump\t// out\n        /* \"staking/StakingRewardsFactory.sol\":11379:11792  function isContract(address account) internal view returns (bool) {... */\n    tag_194:\n        /* \"staking/StakingRewardsFactory.sol\":11439:11443  bool */\n      0x00\n        /* \"staking/StakingRewardsFactory.sol\":11642:11654  uint256 size */\n      dup1\n        /* \"staking/StakingRewardsFactory.sol\":11751:11758  account */\n      dup3\n        /* \"staking/StakingRewardsFactory.sol\":11739:11759  extcodesize(account) */\n      extcodesize\n        /* \"staking/StakingRewardsFactory.sol\":11731:11759  size := extcodesize(account) */\n      swap1\n      pop\n        /* \"staking/StakingRewardsFactory.sol\":11784:11785  0 */\n      0x00\n        /* \"staking/StakingRewardsFactory.sol\":11777:11781  size */\n      dup2\n        /* \"staking/StakingRewardsFactory.sol\":11777:11785  size > 0 */\n      gt\n        /* \"staking/StakingRewardsFactory.sol\":11770:11785  return size > 0 */\n      swap2\n      pop\n      pop\n        /* \"staking/StakingRewardsFactory.sol\":11379:11792  function isContract(address account) internal view returns (bool) {... */\n      swap2\n      swap1\n      pop\n      jump\t// out\n    stop\n    data_9113bb53c2876a3805b2c9242029423fc540a728243ce887ab24c82cf119fba3 536166654d6174683a206d756c7469706c69636174696f6e206f766572666c6f77\n    data_d50b095422f4cbfcb4c90fbd4d55aaf0967bf1d90e94bb6a1ae9fc4ee7e733de 43616c6c6572206973206e6f742052657761726473446973747269627574696f6e20636f6e7472616374\n    data_e11ad79d1e4a7f2e5f376964cb99e8e8f7904e3fc16a109f7a7ecb9aa7956dcd 5361666545524332303a204552433230206f7065726174696f6e20646964206e6f742073756363656564\n\n    auxdata: 0xa265627a7a7231582057c159b1069c21758147db4804e5998803c982af08deba3c18630b6c8c6777b564736f6c63430005100032\n}\n",
				"bytecode": {
					"linkReferences": {},
					"object": "60806040526000600455600060055534801561001a57600080fd5b506040516122933803806122938339818101604052606081101561003d57600080fd5b810190808051906020019092919080519060200190929190805190602001909291905050506001808190555081600260006101000a81548173ffffffffffffffffffffffffffffffffffffffff021916908373ffffffffffffffffffffffffffffffffffffffff16021790555080600360006101000a81548173ffffffffffffffffffffffffffffffffffffffff021916908373ffffffffffffffffffffffffffffffffffffffff160217905550826000806101000a81548173ffffffffffffffffffffffffffffffffffffffff021916908373ffffffffffffffffffffffffffffffffffffffff1602179055505050506121568061013d6000396000f3fe608060405234801561001057600080fd5b506004361061012b5760003560e01c806380faa57d116100ad578063d1af0c7d11610071578063d1af0c7d14610458578063df136d65146104a2578063e9fad8ee146104c0578063ebe2b12b146104ca578063ecd9ba82146104e85761012b565b806380faa57d146103785780638b87634714610396578063a694fc3a146103ee578063c8f33c911461041c578063cd3daf9d1461043a5761012b565b80633d18b912116100f45780633d18b912146102645780633fc6df6e1461026e57806370a08231146102b857806372f702f3146103105780637b0a47ee1461035a5761012b565b80628cc262146101305780630700037d1461018857806318160ddd146101e0578063246132f9146101fe5780632e1a7d4d14610236575b600080fd5b6101726004803603602081101561014657600080fd5b81019080803573ffffffffffffffffffffffffffffffffffffffff169060200190929190505050610541565b6040518082815260200191505060405180910390f35b6101ca6004803603602081101561019e57600080fd5b81019080803573ffffffffffffffffffffffffffffffffffffffff16906020019092919050505061065f565b6040518082815260200191505060405180910390f35b6101e8610677565b6040518082815260200191505060405180910390f35b6102346004803603604081101561021457600080fd5b810190808035906020019092919080359060200190929190505050610681565b005b6102626004803603602081101561024c57600080fd5b8101908080359060200190929190505050610aeb565b005b61026c610e23565b005b6102766110c8565b604051808273ffffffffffffffffffffffffffffffffffffffff1673ffffffffffffffffffffffffffffffffffffffff16815260200191505060405180910390f35b6102fa600480360360208110156102ce57600080fd5b81019080803573ffffffffffffffffffffffffffffffffffffffff1690602001909291905050506110ed565b6040518082815260200191505060405180910390f35b610318611136565b604051808273ffffffffffffffffffffffffffffffffffffffff1673ffffffffffffffffffffffffffffffffffffffff16815260200191505060405180910390f35b61036261115c565b6040518082815260200191505060405180910390f35b610380611162565b6040518082815260200191505060405180910390f35b6103d8600480360360208110156103ac57600080fd5b81019080803573ffffffffffffffffffffffffffffffffffffffff169060200190929190505050611175565b6040518082815260200191505060405180910390f35b61041a6004803603602081101561040457600080fd5b810190808035906020019092919050505061118d565b005b6104246114c7565b6040518082815260200191505060405180910390f35b6104426114cd565b6040518082815260200191505060405180910390f35b61046061155b565b604051808273ffffffffffffffffffffffffffffffffffffffff1673ffffffffffffffffffffffffffffffffffffffff16815260200191505060405180910390f35b6104aa611581565b6040518082815260200191505060405180910390f35b6104c8611587565b005b6104d26115d9565b6040518082815260200191505060405180910390f35b61053f600480360360a08110156104fe57600080fd5b810190808035906020019092919080359060200190929190803560ff16906020019092919080359060200190929190803590602001909291905050506115df565b005b6000610658600960008473ffffffffffffffffffffffffffffffffffffffff1673ffffffffffffffffffffffffffffffffffffffff1681526020019081526020016000205461064a670de0b6b3a764000061063c6105ee600860008973ffffffffffffffffffffffffffffffffffffffff1673ffffffffffffffffffffffffffffffffffffffff168152602001908152602001600020546105e06114cd565b611a3890919063ffffffff16565b600b60008973ffffffffffffffffffffffffffffffffffffffff1673ffffffffffffffffffffffffffffffffffffffff16815260200190815260200160002054611ac190919063ffffffff16565b611b4790919063ffffffff16565b611bd690919063ffffffff16565b9050919050565b60096020528060005260406000206000915090505481565b6000600a54905090565b6000809054906101000a900473ffffffffffffffffffffffffffffffffffffffff1673ffffffffffffffffffffffffffffffffffffffff163373ffffffffffffffffffffffffffffffffffffffff1614610726576040517f08c379a000000000000000000000000000000000000000000000000000000000815260040180806020018281038252602a8152602001806120ce602a913960400191505060405180910390fd5b60006107306114cd565b60078190555061073e611162565b600681905550600073ffffffffffffffffffffffffffffffffffffffff168173ffffffffffffffffffffffffffffffffffffffff161461080b5761078181610541565b600960008373ffffffffffffffffffffffffffffffffffffffff1673ffffffffffffffffffffffffffffffffffffffff16815260200190815260200160002081905550600754600860008373ffffffffffffffffffffffffffffffffffffffff1673ffffffffffffffffffffffffffffffffffffffff168152602001908152602001600020819055505b6004546108218342611bd690919063ffffffff16565b1015610895576040517f08c379a000000000000000000000000000000000000000000000000000000000815260040180806020018281038252601d8152602001807f43616e6e6f7420726564756365206578697374696e6720706572696f6400000081525060200191505060405180910390fd5b60045442106108bc576108b18284611b4790919063ffffffff16565b60058190555061091c565b60006108d342600454611a3890919063ffffffff16565b905060006108ec60055483611ac190919063ffffffff16565b9050610913846109058388611bd690919063ffffffff16565b611b4790919063ffffffff16565b60058190555050505b6000600260009054906101000a900473ffffffffffffffffffffffffffffffffffffffff1673ffffffffffffffffffffffffffffffffffffffff166370a08231306040518263ffffffff1660e01b8152600401808273ffffffffffffffffffffffffffffffffffffffff1673ffffffffffffffffffffffffffffffffffffffff16815260200191505060206040518083038186803b1580156109bd57600080fd5b505afa1580156109d1573d6000803e3d6000fd5b505050506040513d60208110156109e757600080fd5b81019080805190602001909291905050509050610a0d8382611b4790919063ffffffff16565b6005541115610a84576040517f08c379a00000000000000000000000000000000000000000000000000000000081526004018080602001828103825260188152602001807f50726f76696465642072657761726420746f6f2068696768000000000000000081525060200191505060405180910390fd5b42600681905550610a9e8342611bd690919063ffffffff16565b6004819055507f6c07ee05dcf262f13abf9d87b846ee789d2f90fe991d495acd7d7fc109ee1f5584600454604051808381526020018281526020019250505060405180910390a150505050565b600180600082825401925050819055506000600154905033610b0b6114cd565b600781905550610b19611162565b600681905550600073ffffffffffffffffffffffffffffffffffffffff168173ffffffffffffffffffffffffffffffffffffffff1614610be657610b5c81610541565b600960008373ffffffffffffffffffffffffffffffffffffffff1673ffffffffffffffffffffffffffffffffffffffff16815260200190815260200160002081905550600754600860008373ffffffffffffffffffffffffffffffffffffffff1673ffffffffffffffffffffffffffffffffffffffff168152602001908152602001600020819055505b60008311610c5c576040517f08c379a00000000000000000000000000000000000000000000000000000000081526004018080602001828103825260118152602001807f43616e6e6f74207769746864726177203000000000000000000000000000000081525060200191505060405180910390fd5b610c7183600a54611a3890919063ffffffff16565b600a81905550610cc983600b60003373ffffffffffffffffffffffffffffffffffffffff1673ffffffffffffffffffffffffffffffffffffffff16815260200190815260200160002054611a3890919063ffffffff16565b600b60003373ffffffffffffffffffffffffffffffffffffffff1673ffffffffffffffffffffffffffffffffffffffff16815260200190815260200160002081905550610d593384600360009054906101000a900473ffffffffffffffffffffffffffffffffffffffff1673ffffffffffffffffffffffffffffffffffffffff16611c5e9092919063ffffffff16565b3373ffffffffffffffffffffffffffffffffffffffff167f7084f5476618d8e60b11ef0d7d3f06914655adb8793e28ff7f018d4c76d505d5846040518082815260200191505060405180910390a2506001548114610e1f576040517f08c379a000000000000000000000000000000000000000000000000000000000815260040180806020018281038252601f8152602001807f5265656e7472616e637947756172643a207265656e7472616e742063616c6c0081525060200191505060405180910390fd5b5050565b600180600082825401925050819055506000600154905033610e436114cd565b600781905550610e51611162565b600681905550600073ffffffffffffffffffffffffffffffffffffffff168173ffffffffffffffffffffffffffffffffffffffff1614610f1e57610e9481610541565b600960008373ffffffffffffffffffffffffffffffffffffffff1673ffffffffffffffffffffffffffffffffffffffff16815260200190815260200160002081905550600754600860008373ffffffffffffffffffffffffffffffffffffffff1673ffffffffffffffffffffffffffffffffffffffff168152602001908152602001600020819055505b6000600960003373ffffffffffffffffffffffffffffffffffffffff1673ffffffffffffffffffffffffffffffffffffffff168152602001908152602001600020549050600081111561104c576000600960003373ffffffffffffffffffffffffffffffffffffffff1673ffffffffffffffffffffffffffffffffffffffff16815260200190815260200160002081905550610ffd3382600260009054906101000a900473ffffffffffffffffffffffffffffffffffffffff1673ffffffffffffffffffffffffffffffffffffffff16611c5e9092919063ffffffff16565b3373ffffffffffffffffffffffffffffffffffffffff167fe2403640ba68fed3a2f88b7557551d1993f84b99bb10ff833f0cf8db0c5e0486826040518082815260200191505060405180910390a25b505060015481146110c5576040517f08c379a000000000000000000000000000000000000000000000000000000000815260040180806020018281038252601f8152602001807f5265656e7472616e637947756172643a207265656e7472616e742063616c6c0081525060200191505060405180910390fd5b50565b6000809054906101000a900473ffffffffffffffffffffffffffffffffffffffff1681565b6000600b60008373ffffffffffffffffffffffffffffffffffffffff1673ffffffffffffffffffffffffffffffffffffffff168152602001908152602001600020549050919050565b600360009054906101000a900473ffffffffffffffffffffffffffffffffffffffff1681565b60055481565b600061117042600454611d2f565b905090565b60086020528060005260406000206000915090505481565b6001806000828254019250508190555060006001549050336111ad6114cd565b6007819055506111bb611162565b600681905550600073ffffffffffffffffffffffffffffffffffffffff168173ffffffffffffffffffffffffffffffffffffffff1614611288576111fe81610541565b600960008373ffffffffffffffffffffffffffffffffffffffff1673ffffffffffffffffffffffffffffffffffffffff16815260200190815260200160002081905550600754600860008373ffffffffffffffffffffffffffffffffffffffff1673ffffffffffffffffffffffffffffffffffffffff168152602001908152602001600020819055505b600083116112fe576040517f08c379a000000000000000000000000000000000000000000000000000000000815260040180806020018281038252600e8152602001807f43616e6e6f74207374616b65203000000000000000000000000000000000000081525060200191505060405180910390fd5b61131383600a54611bd690919063ffffffff16565b600a8190555061136b83600b60003373ffffffffffffffffffffffffffffffffffffffff1673ffffffffffffffffffffffffffffffffffffffff16815260200190815260200160002054611bd690919063ffffffff16565b600b60003373ffffffffffffffffffffffffffffffffffffffff1673ffffffffffffffffffffffffffffffffffffffff168152602001908152602001600020819055506113fd333085600360009054906101000a900473ffffffffffffffffffffffffffffffffffffffff1673ffffffffffffffffffffffffffffffffffffffff16611d48909392919063ffffffff16565b3373ffffffffffffffffffffffffffffffffffffffff167f9e71bc8eea02a63969f509818f2dafb9254532904319f9dbda79b67bd34a5f3d846040518082815260200191505060405180910390a25060015481146114c3576040517f08c379a000000000000000000000000000000000000000000000000000000000815260040180806020018281038252601f8152602001807f5265656e7472616e637947756172643a207265656e7472616e742063616c6c0081525060200191505060405180910390fd5b5050565b60065481565b600080600a5414156114e3576007549050611558565b611555611544600a54611536670de0b6b3a764000061152860055461151a60065461150c611162565b611a3890919063ffffffff16565b611ac190919063ffffffff16565b611ac190919063ffffffff16565b611b4790919063ffffffff16565b600754611bd690919063ffffffff16565b90505b90565b600260009054906101000a900473ffffffffffffffffffffffffffffffffffffffff1681565b60075481565b6115cf600b60003373ffffffffffffffffffffffffffffffffffffffff1673ffffffffffffffffffffffffffffffffffffffff16815260200190815260200160002054610aeb565b6115d7610e23565b565b60045481565b6001806000828254019250508190555060006001549050336115ff6114cd565b60078190555061160d611162565b600681905550600073ffffffffffffffffffffffffffffffffffffffff168173ffffffffffffffffffffffffffffffffffffffff16146116da5761165081610541565b600960008373ffffffffffffffffffffffffffffffffffffffff1673ffffffffffffffffffffffffffffffffffffffff16815260200190815260200160002081905550600754600860008373ffffffffffffffffffffffffffffffffffffffff1673ffffffffffffffffffffffffffffffffffffffff168152602001908152602001600020819055505b60008711611750576040517f08c379a000000000000000000000000000000000000000000000000000000000815260040180806020018281038252600e8152602001807f43616e6e6f74207374616b65203000000000000000000000000000000000000081525060200191505060405180910390fd5b61176587600a54611bd690919063ffffffff16565b600a819055506117bd87600b60003373ffffffffffffffffffffffffffffffffffffffff1673ffffffffffffffffffffffffffffffffffffffff16815260200190815260200160002054611bd690919063ffffffff16565b600b60003373ffffffffffffffffffffffffffffffffffffffff1673ffffffffffffffffffffffffffffffffffffffff16815260200190815260200160002081905550600360009054906101000a900473ffffffffffffffffffffffffffffffffffffffff1673ffffffffffffffffffffffffffffffffffffffff1663d505accf33308a8a8a8a8a6040518863ffffffff1660e01b8152600401808873ffffffffffffffffffffffffffffffffffffffff1673ffffffffffffffffffffffffffffffffffffffff1681526020018773ffffffffffffffffffffffffffffffffffffffff1673ffffffffffffffffffffffffffffffffffffffff1681526020018681526020018581526020018460ff1660ff168152602001838152602001828152602001975050505050505050600060405180830381600087803b15801561190357600080fd5b505af1158015611917573d6000803e3d6000fd5b5050505061196a333089600360009054906101000a900473ffffffffffffffffffffffffffffffffffffffff1673ffffffffffffffffffffffffffffffffffffffff16611d48909392919063ffffffff16565b3373ffffffffffffffffffffffffffffffffffffffff167f9e71bc8eea02a63969f509818f2dafb9254532904319f9dbda79b67bd34a5f3d886040518082815260200191505060405180910390a2506001548114611a30576040517f08c379a000000000000000000000000000000000000000000000000000000000815260040180806020018281038252601f8152602001807f5265656e7472616e637947756172643a207265656e7472616e742063616c6c0081525060200191505060405180910390fd5b505050505050565b600082821115611ab0576040517f08c379a000000000000000000000000000000000000000000000000000000000815260040180806020018281038252601e8152602001807f536166654d6174683a207375627472616374696f6e206f766572666c6f77000081525060200191505060405180910390fd5b600082840390508091505092915050565b600080831415611ad45760009050611b41565b6000828402905082848281611ae557fe5b0414611b3c576040517f08c379a00000000000000000000000000000000000000000000000000000000081526004018080602001828103825260218152602001806120ad6021913960400191505060405180910390fd5b809150505b92915050565b6000808211611bbe576040517f08c379a000000000000000000000000000000000000000000000000000000000815260040180806020018281038252601a8152602001807f536166654d6174683a206469766973696f6e206279207a65726f00000000000081525060200191505060405180910390fd5b6000828481611bc957fe5b0490508091505092915050565b600080828401905083811015611c54576040517f08c379a000000000000000000000000000000000000000000000000000000000815260040180806020018281038252601b8152602001807f536166654d6174683a206164646974696f6e206f766572666c6f77000000000081525060200191505060405180910390fd5b8091505092915050565b611d2a838473ffffffffffffffffffffffffffffffffffffffff1663a9059cbb905060e01b8484604051602401808373ffffffffffffffffffffffffffffffffffffffff1673ffffffffffffffffffffffffffffffffffffffff16815260200182815260200192505050604051602081830303815290604052907bffffffffffffffffffffffffffffffffffffffffffffffffffffffff19166020820180517bffffffffffffffffffffffffffffffffffffffffffffffffffffffff8381831617835250505050611e4e565b505050565b6000818310611d3e5781611d40565b825b905092915050565b611e48848573ffffffffffffffffffffffffffffffffffffffff166323b872dd905060e01b858585604051602401808473ffffffffffffffffffffffffffffffffffffffff1673ffffffffffffffffffffffffffffffffffffffff1681526020018373ffffffffffffffffffffffffffffffffffffffff1673ffffffffffffffffffffffffffffffffffffffff1681526020018281526020019350505050604051602081830303815290604052907bffffffffffffffffffffffffffffffffffffffffffffffffffffffff19166020820180517bffffffffffffffffffffffffffffffffffffffffffffffffffffffff8381831617835250505050611e4e565b50505050565b611e6d8273ffffffffffffffffffffffffffffffffffffffff16612099565b611edf576040517f08c379a000000000000000000000000000000000000000000000000000000000815260040180806020018281038252601f8152602001807f5361666545524332303a2063616c6c20746f206e6f6e2d636f6e74726163740081525060200191505060405180910390fd5b600060608373ffffffffffffffffffffffffffffffffffffffff16836040518082805190602001908083835b60208310611f2e5780518252602082019150602081019050602083039250611f0b565b6001836020036101000a0380198251168184511680821785525050505050509050019150506000604051808303816000865af19150503d8060008114611f90576040519150601f19603f3d011682016040523d82523d6000602084013e611f95565b606091505b50915091508161200d576040517f08c379a00000000000000000000000000000000000000000000000000000000081526004018080602001828103825260208152602001807f5361666545524332303a206c6f772d6c6576656c2063616c6c206661696c656481525060200191505060405180910390fd5b6000815111156120935780806020019051602081101561202c57600080fd5b8101908080519060200190929190505050612092576040517f08c379a000000000000000000000000000000000000000000000000000000000815260040180806020018281038252602a8152602001806120f8602a913960400191505060405180910390fd5b5b50505050565b600080823b90506000811191505091905056fe536166654d6174683a206d756c7469706c69636174696f6e206f766572666c6f7743616c6c6572206973206e6f742052657761726473446973747269627574696f6e20636f6e74726163745361666545524332303a204552433230206f7065726174696f6e20646964206e6f742073756363656564a265627a7a7231582057c159b1069c21758147db4804e5998803c982af08deba3c18630b6c8c6777b564736f6c63430005100032",
					"opcodes": "PUSH1 0x80 PUSH1 0x40 MSTORE PUSH1 0x0 PUSH1 0x4 SSTORE PUSH1 0x0 PUSH1 0x5 SSTORE CALLVALUE DUP1 ISZERO PUSH2 0x1A JUMPI PUSH1 0x0 DUP1 REVERT JUMPDEST POP PUSH1 0x40 MLOAD PUSH2 0x2293 CODESIZE SUB DUP1 PUSH2 0x2293 DUP4 CODECOPY DUP2 DUP2 ADD PUSH1 0x40 MSTORE PUSH1 0x60 DUP2 LT ISZERO PUSH2 0x3D JUMPI PUSH1 0x0 DUP1 REVERT JUMPDEST DUP2 ADD SWAP1 DUP1 DUP1 MLOAD SWAP1 PUSH1 0x20 ADD SWAP1 SWAP3 SWAP2 SWAP1 DUP1 MLOAD SWAP1 PUSH1 0x20 ADD SWAP1 SWAP3 SWAP2 SWAP1 DUP1 MLOAD SWAP1 PUSH1 0x20 ADD SWAP1 SWAP3 SWAP2 SWAP1 POP POP POP PUSH1 0x1 DUP1 DUP2 SWAP1 SSTORE POP DUP2 PUSH1 0x2 PUSH1 0x0 PUSH2 0x100 EXP DUP2 SLOAD DUP2 PUSH20 0xFFFFFFFFFFFFFFFFFFFFFFFFFFFFFFFFFFFFFFFF MUL NOT AND SWAP1 DUP4 PUSH20 0xFFFFFFFFFFFFFFFFFFFFFFFFFFFFFFFFFFFFFFFF AND MUL OR SWAP1 SSTORE POP DUP1 PUSH1 0x3 PUSH1 0x0 PUSH2 0x100 EXP DUP2 SLOAD DUP2 PUSH20 0xFFFFFFFFFFFFFFFFFFFFFFFFFFFFFFFFFFFFFFFF MUL NOT AND SWAP1 DUP4 PUSH20 0xFFFFFFFFFFFFFFFFFFFFFFFFFFFFFFFFFFFFFFFF AND MUL OR SWAP1 SSTORE POP DUP3 PUSH1 0x0 DUP1 PUSH2 0x100 EXP DUP2 SLOAD DUP2 PUSH20 0xFFFFFFFFFFFFFFFFFFFFFFFFFFFFFFFFFFFFFFFF MUL NOT AND SWAP1 DUP4 PUSH20 0xFFFFFFFFFFFFFFFFFFFFFFFFFFFFFFFFFFFFFFFF AND MUL OR SWAP1 SSTORE POP POP POP POP PUSH2 0x2156 DUP1 PUSH2 0x13D PUSH1 0x0 CODECOPY PUSH1 0x0 RETURN INVALID PUSH1 0x80 PUSH1 0x40 MSTORE CALLVALUE DUP1 ISZERO PUSH2 0x10 JUMPI PUSH1 0x0 DUP1 REVERT JUMPDEST POP PUSH1 0x4 CALLDATASIZE LT PUSH2 0x12B JUMPI PUSH1 0x0 CALLDATALOAD PUSH1 0xE0 SHR DUP1 PUSH4 0x80FAA57D GT PUSH2 0xAD JUMPI DUP1 PUSH4 0xD1AF0C7D GT PUSH2 0x71 JUMPI DUP1 PUSH4 0xD1AF0C7D EQ PUSH2 0x458 JUMPI DUP1 PUSH4 0xDF136D65 EQ PUSH2 0x4A2 JUMPI DUP1 PUSH4 0xE9FAD8EE EQ PUSH2 0x4C0 JUMPI DUP1 PUSH4 0xEBE2B12B EQ PUSH2 0x4CA JUMPI DUP1 PUSH4 0xECD9BA82 EQ PUSH2 0x4E8 JUMPI PUSH2 0x12B JUMP JUMPDEST DUP1 PUSH4 0x80FAA57D EQ PUSH2 0x378 JUMPI DUP1 PUSH4 0x8B876347 EQ PUSH2 0x396 JUMPI DUP1 PUSH4 0xA694FC3A EQ PUSH2 0x3EE JUMPI DUP1 PUSH4 0xC8F33C91 EQ PUSH2 0x41C JUMPI DUP1 PUSH4 0xCD3DAF9D EQ PUSH2 0x43A JUMPI PUSH2 0x12B JUMP JUMPDEST DUP1 PUSH4 0x3D18B912 GT PUSH2 0xF4 JUMPI DUP1 PUSH4 0x3D18B912 EQ PUSH2 0x264 JUMPI DUP1 PUSH4 0x3FC6DF6E EQ PUSH2 0x26E JUMPI DUP1 PUSH4 0x70A08231 EQ PUSH2 0x2B8 JUMPI DUP1 PUSH4 0x72F702F3 EQ PUSH2 0x310 JUMPI DUP1 PUSH4 0x7B0A47EE EQ PUSH2 0x35A JUMPI PUSH2 0x12B JUMP JUMPDEST DUP1 PUSH3 0x8CC262 EQ PUSH2 0x130 JUMPI DUP1 PUSH4 0x700037D EQ PUSH2 0x188 JUMPI DUP1 PUSH4 0x18160DDD EQ PUSH2 0x1E0 JUMPI DUP1 PUSH4 0x246132F9 EQ PUSH2 0x1FE JUMPI DUP1 PUSH4 0x2E1A7D4D EQ PUSH2 0x236 JUMPI JUMPDEST PUSH1 0x0 DUP1 REVERT JUMPDEST PUSH2 0x172 PUSH1 0x4 DUP1 CALLDATASIZE SUB PUSH1 0x20 DUP2 LT ISZERO PUSH2 0x146 JUMPI PUSH1 0x0 DUP1 REVERT JUMPDEST DUP2 ADD SWAP1 DUP1 DUP1 CALLDATALOAD PUSH20 0xFFFFFFFFFFFFFFFFFFFFFFFFFFFFFFFFFFFFFFFF AND SWAP1 PUSH1 0x20 ADD SWAP1 SWAP3 SWAP2 SWAP1 POP POP POP PUSH2 0x541 JUMP JUMPDEST PUSH1 0x40 MLOAD DUP1 DUP3 DUP2 MSTORE PUSH1 0x20 ADD SWAP2 POP POP PUSH1 0x40 MLOAD DUP1 SWAP2 SUB SWAP1 RETURN JUMPDEST PUSH2 0x1CA PUSH1 0x4 DUP1 CALLDATASIZE SUB PUSH1 0x20 DUP2 LT ISZERO PUSH2 0x19E JUMPI PUSH1 0x0 DUP1 REVERT JUMPDEST DUP2 ADD SWAP1 DUP1 DUP1 CALLDATALOAD PUSH20 0xFFFFFFFFFFFFFFFFFFFFFFFFFFFFFFFFFFFFFFFF AND SWAP1 PUSH1 0x20 ADD SWAP1 SWAP3 SWAP2 SWAP1 POP POP POP PUSH2 0x65F JUMP JUMPDEST PUSH1 0x40 MLOAD DUP1 DUP3 DUP2 MSTORE PUSH1 0x20 ADD SWAP2 POP POP PUSH1 0x40 MLOAD DUP1 SWAP2 SUB SWAP1 RETURN JUMPDEST PUSH2 0x1E8 PUSH2 0x677 JUMP JUMPDEST PUSH1 0x40 MLOAD DUP1 DUP3 DUP2 MSTORE PUSH1 0x20 ADD SWAP2 POP POP PUSH1 0x40 MLOAD DUP1 SWAP2 SUB SWAP1 RETURN JUMPDEST PUSH2 0x234 PUSH1 0x4 DUP1 CALLDATASIZE SUB PUSH1 0x40 DUP2 LT ISZERO PUSH2 0x214 JUMPI PUSH1 0x0 DUP1 REVERT JUMPDEST DUP2 ADD SWAP1 DUP1 DUP1 CALLDATALOAD SWAP1 PUSH1 0x20 ADD SWAP1 SWAP3 SWAP2 SWAP1 DUP1 CALLDATALOAD SWAP1 PUSH1 0x20 ADD SWAP1 SWAP3 SWAP2 SWAP1 POP POP POP PUSH2 0x681 JUMP JUMPDEST STOP JUMPDEST PUSH2 0x262 PUSH1 0x4 DUP1 CALLDATASIZE SUB PUSH1 0x20 DUP2 LT ISZERO PUSH2 0x24C JUMPI PUSH1 0x0 DUP1 REVERT JUMPDEST DUP2 ADD SWAP1 DUP1 DUP1 CALLDATALOAD SWAP1 PUSH1 0x20 ADD SWAP1 SWAP3 SWAP2 SWAP1 POP POP POP PUSH2 0xAEB JUMP JUMPDEST STOP JUMPDEST PUSH2 0x26C PUSH2 0xE23 JUMP JUMPDEST STOP JUMPDEST PUSH2 0x276 PUSH2 0x10C8 JUMP JUMPDEST PUSH1 0x40 MLOAD DUP1 DUP3 PUSH20 0xFFFFFFFFFFFFFFFFFFFFFFFFFFFFFFFFFFFFFFFF AND PUSH20 0xFFFFFFFFFFFFFFFFFFFFFFFFFFFFFFFFFFFFFFFF AND DUP2 MSTORE PUSH1 0x20 ADD SWAP2 POP POP PUSH1 0x40 MLOAD DUP1 SWAP2 SUB SWAP1 RETURN JUMPDEST PUSH2 0x2FA PUSH1 0x4 DUP1 CALLDATASIZE SUB PUSH1 0x20 DUP2 LT ISZERO PUSH2 0x2CE JUMPI PUSH1 0x0 DUP1 REVERT JUMPDEST DUP2 ADD SWAP1 DUP1 DUP1 CALLDATALOAD PUSH20 0xFFFFFFFFFFFFFFFFFFFFFFFFFFFFFFFFFFFFFFFF AND SWAP1 PUSH1 0x20 ADD SWAP1 SWAP3 SWAP2 SWAP1 POP POP POP PUSH2 0x10ED JUMP JUMPDEST PUSH1 0x40 MLOAD DUP1 DUP3 DUP2 MSTORE PUSH1 0x20 ADD SWAP2 POP POP PUSH1 0x40 MLOAD DUP1 SWAP2 SUB SWAP1 RETURN JUMPDEST PUSH2 0x318 PUSH2 0x1136 JUMP JUMPDEST PUSH1 0x40 MLOAD DUP1 DUP3 PUSH20 0xFFFFFFFFFFFFFFFFFFFFFFFFFFFFFFFFFFFFFFFF AND PUSH20 0xFFFFFFFFFFFFFFFFFFFFFFFFFFFFFFFFFFFFFFFF AND DUP2 MSTORE PUSH1 0x20 ADD SWAP2 POP POP PUSH1 0x40 MLOAD DUP1 SWAP2 SUB SWAP1 RETURN JUMPDEST PUSH2 0x362 PUSH2 0x115C JUMP JUMPDEST PUSH1 0x40 MLOAD DUP1 DUP3 DUP2 MSTORE PUSH1 0x20 ADD SWAP2 POP POP PUSH1 0x40 MLOAD DUP1 SWAP2 SUB SWAP1 RETURN JUMPDEST PUSH2 0x380 PUSH2 0x1162 JUMP JUMPDEST PUSH1 0x40 MLOAD DUP1 DUP3 DUP2 MSTORE PUSH1 0x20 ADD SWAP2 POP POP PUSH1 0x40 MLOAD DUP1 SWAP2 SUB SWAP1 RETURN JUMPDEST PUSH2 0x3D8 PUSH1 0x4 DUP1 CALLDATASIZE SUB PUSH1 0x20 DUP2 LT ISZERO PUSH2 0x3AC JUMPI PUSH1 0x0 DUP1 REVERT JUMPDEST DUP2 ADD SWAP1 DUP1 DUP1 CALLDATALOAD PUSH20 0xFFFFFFFFFFFFFFFFFFFFFFFFFFFFFFFFFFFFFFFF AND SWAP1 PUSH1 0x20 ADD SWAP1 SWAP3 SWAP2 SWAP1 POP POP POP PUSH2 0x1175 JUMP JUMPDEST PUSH1 0x40 MLOAD DUP1 DUP3 DUP2 MSTORE PUSH1 0x20 ADD SWAP2 POP POP PUSH1 0x40 MLOAD DUP1 SWAP2 SUB SWAP1 RETURN JUMPDEST PUSH2 0x41A PUSH1 0x4 DUP1 CALLDATASIZE SUB PUSH1 0x20 DUP2 LT ISZERO PUSH2 0x404 JUMPI PUSH1 0x0 DUP1 REVERT JUMPDEST DUP2 ADD SWAP1 DUP1 DUP1 CALLDATALOAD SWAP1 PUSH1 0x20 ADD SWAP1 SWAP3 SWAP2 SWAP1 POP POP POP PUSH2 0x118D JUMP JUMPDEST STOP JUMPDEST PUSH2 0x424 PUSH2 0x14C7 JUMP JUMPDEST PUSH1 0x40 MLOAD DUP1 DUP3 DUP2 MSTORE PUSH1 0x20 ADD SWAP2 POP POP PUSH1 0x40 MLOAD DUP1 SWAP2 SUB SWAP1 RETURN JUMPDEST PUSH2 0x442 PUSH2 0x14CD JUMP JUMPDEST PUSH1 0x40 MLOAD DUP1 DUP3 DUP2 MSTORE PUSH1 0x20 ADD SWAP2 POP POP PUSH1 0x40 MLOAD DUP1 SWAP2 SUB SWAP1 RETURN JUMPDEST PUSH2 0x460 PUSH2 0x155B JUMP JUMPDEST PUSH1 0x40 MLOAD DUP1 DUP3 PUSH20 0xFFFFFFFFFFFFFFFFFFFFFFFFFFFFFFFFFFFFFFFF AND PUSH20 0xFFFFFFFFFFFFFFFFFFFFFFFFFFFFFFFFFFFFFFFF AND DUP2 MSTORE PUSH1 0x20 ADD SWAP2 POP POP PUSH1 0x40 MLOAD DUP1 SWAP2 SUB SWAP1 RETURN JUMPDEST PUSH2 0x4AA PUSH2 0x1581 JUMP JUMPDEST PUSH1 0x40 MLOAD DUP1 DUP3 DUP2 MSTORE PUSH1 0x20 ADD SWAP2 POP POP PUSH1 0x40 MLOAD DUP1 SWAP2 SUB SWAP1 RETURN JUMPDEST PUSH2 0x4C8 PUSH2 0x1587 JUMP JUMPDEST STOP JUMPDEST PUSH2 0x4D2 PUSH2 0x15D9 JUMP JUMPDEST PUSH1 0x40 MLOAD DUP1 DUP3 DUP2 MSTORE PUSH1 0x20 ADD SWAP2 POP POP PUSH1 0x40 MLOAD DUP1 SWAP2 SUB SWAP1 RETURN JUMPDEST PUSH2 0x53F PUSH1 0x4 DUP1 CALLDATASIZE SUB PUSH1 0xA0 DUP2 LT ISZERO PUSH2 0x4FE JUMPI PUSH1 0x0 DUP1 REVERT JUMPDEST DUP2 ADD SWAP1 DUP1 DUP1 CALLDATALOAD SWAP1 PUSH1 0x20 ADD SWAP1 SWAP3 SWAP2 SWAP1 DUP1 CALLDATALOAD SWAP1 PUSH1 0x20 ADD SWAP1 SWAP3 SWAP2 SWAP1 DUP1 CALLDATALOAD PUSH1 0xFF AND SWAP1 PUSH1 0x20 ADD SWAP1 SWAP3 SWAP2 SWAP1 DUP1 CALLDATALOAD SWAP1 PUSH1 0x20 ADD SWAP1 SWAP3 SWAP2 SWAP1 DUP1 CALLDATALOAD SWAP1 PUSH1 0x20 ADD SWAP1 SWAP3 SWAP2 SWAP1 POP POP POP PUSH2 0x15DF JUMP JUMPDEST STOP JUMPDEST PUSH1 0x0 PUSH2 0x658 PUSH1 0x9 PUSH1 0x0 DUP5 PUSH20 0xFFFFFFFFFFFFFFFFFFFFFFFFFFFFFFFFFFFFFFFF AND PUSH20 0xFFFFFFFFFFFFFFFFFFFFFFFFFFFFFFFFFFFFFFFF AND DUP2 MSTORE PUSH1 0x20 ADD SWAP1 DUP2 MSTORE PUSH1 0x20 ADD PUSH1 0x0 KECCAK256 SLOAD PUSH2 0x64A PUSH8 0xDE0B6B3A7640000 PUSH2 0x63C PUSH2 0x5EE PUSH1 0x8 PUSH1 0x0 DUP10 PUSH20 0xFFFFFFFFFFFFFFFFFFFFFFFFFFFFFFFFFFFFFFFF AND PUSH20 0xFFFFFFFFFFFFFFFFFFFFFFFFFFFFFFFFFFFFFFFF AND DUP2 MSTORE PUSH1 0x20 ADD SWAP1 DUP2 MSTORE PUSH1 0x20 ADD PUSH1 0x0 KECCAK256 SLOAD PUSH2 0x5E0 PUSH2 0x14CD JUMP JUMPDEST PUSH2 0x1A38 SWAP1 SWAP2 SWAP1 PUSH4 0xFFFFFFFF AND JUMP JUMPDEST PUSH1 0xB PUSH1 0x0 DUP10 PUSH20 0xFFFFFFFFFFFFFFFFFFFFFFFFFFFFFFFFFFFFFFFF AND PUSH20 0xFFFFFFFFFFFFFFFFFFFFFFFFFFFFFFFFFFFFFFFF AND DUP2 MSTORE PUSH1 0x20 ADD SWAP1 DUP2 MSTORE PUSH1 0x20 ADD PUSH1 0x0 KECCAK256 SLOAD PUSH2 0x1AC1 SWAP1 SWAP2 SWAP1 PUSH4 0xFFFFFFFF AND JUMP JUMPDEST PUSH2 0x1B47 SWAP1 SWAP2 SWAP1 PUSH4 0xFFFFFFFF AND JUMP JUMPDEST PUSH2 0x1BD6 SWAP1 SWAP2 SWAP1 PUSH4 0xFFFFFFFF AND JUMP JUMPDEST SWAP1 POP SWAP2 SWAP1 POP JUMP JUMPDEST PUSH1 0x9 PUSH1 0x20 MSTORE DUP1 PUSH1 0x0 MSTORE PUSH1 0x40 PUSH1 0x0 KECCAK256 PUSH1 0x0 SWAP2 POP SWAP1 POP SLOAD DUP2 JUMP JUMPDEST PUSH1 0x0 PUSH1 0xA SLOAD SWAP1 POP SWAP1 JUMP JUMPDEST PUSH1 0x0 DUP1 SWAP1 SLOAD SWAP1 PUSH2 0x100 EXP SWAP1 DIV PUSH20 0xFFFFFFFFFFFFFFFFFFFFFFFFFFFFFFFFFFFFFFFF AND PUSH20 0xFFFFFFFFFFFFFFFFFFFFFFFFFFFFFFFFFFFFFFFF AND CALLER PUSH20 0xFFFFFFFFFFFFFFFFFFFFFFFFFFFFFFFFFFFFFFFF AND EQ PUSH2 0x726 JUMPI PUSH1 0x40 MLOAD PUSH32 0x8C379A000000000000000000000000000000000000000000000000000000000 DUP2 MSTORE PUSH1 0x4 ADD DUP1 DUP1 PUSH1 0x20 ADD DUP3 DUP2 SUB DUP3 MSTORE PUSH1 0x2A DUP2 MSTORE PUSH1 0x20 ADD DUP1 PUSH2 0x20CE PUSH1 0x2A SWAP2 CODECOPY PUSH1 0x40 ADD SWAP2 POP POP PUSH1 0x40 MLOAD DUP1 SWAP2 SUB SWAP1 REVERT JUMPDEST PUSH1 0x0 PUSH2 0x730 PUSH2 0x14CD JUMP JUMPDEST PUSH1 0x7 DUP2 SWAP1 SSTORE POP PUSH2 0x73E PUSH2 0x1162 JUMP JUMPDEST PUSH1 0x6 DUP2 SWAP1 SSTORE POP PUSH1 0x0 PUSH20 0xFFFFFFFFFFFFFFFFFFFFFFFFFFFFFFFFFFFFFFFF AND DUP2 PUSH20 0xFFFFFFFFFFFFFFFFFFFFFFFFFFFFFFFFFFFFFFFF AND EQ PUSH2 0x80B JUMPI PUSH2 0x781 DUP2 PUSH2 0x541 JUMP JUMPDEST PUSH1 0x9 PUSH1 0x0 DUP4 PUSH20 0xFFFFFFFFFFFFFFFFFFFFFFFFFFFFFFFFFFFFFFFF AND PUSH20 0xFFFFFFFFFFFFFFFFFFFFFFFFFFFFFFFFFFFFFFFF AND DUP2 MSTORE PUSH1 0x20 ADD SWAP1 DUP2 MSTORE PUSH1 0x20 ADD PUSH1 0x0 KECCAK256 DUP2 SWAP1 SSTORE POP PUSH1 0x7 SLOAD PUSH1 0x8 PUSH1 0x0 DUP4 PUSH20 0xFFFFFFFFFFFFFFFFFFFFFFFFFFFFFFFFFFFFFFFF AND PUSH20 0xFFFFFFFFFFFFFFFFFFFFFFFFFFFFFFFFFFFFFFFF AND DUP2 MSTORE PUSH1 0x20 ADD SWAP1 DUP2 MSTORE PUSH1 0x20 ADD PUSH1 0x0 KECCAK256 DUP2 SWAP1 SSTORE POP JUMPDEST PUSH1 0x4 SLOAD PUSH2 0x821 DUP4 TIMESTAMP PUSH2 0x1BD6 SWAP1 SWAP2 SWAP1 PUSH4 0xFFFFFFFF AND JUMP JUMPDEST LT ISZERO PUSH2 0x895 JUMPI PUSH1 0x40 MLOAD PUSH32 0x8C379A000000000000000000000000000000000000000000000000000000000 DUP2 MSTORE PUSH1 0x4 ADD DUP1 DUP1 PUSH1 0x20 ADD DUP3 DUP2 SUB DUP3 MSTORE PUSH1 0x1D DUP2 MSTORE PUSH1 0x20 ADD DUP1 PUSH32 0x43616E6E6F7420726564756365206578697374696E6720706572696F64000000 DUP2 MSTORE POP PUSH1 0x20 ADD SWAP2 POP POP PUSH1 0x40 MLOAD DUP1 SWAP2 SUB SWAP1 REVERT JUMPDEST PUSH1 0x4 SLOAD TIMESTAMP LT PUSH2 0x8BC JUMPI PUSH2 0x8B1 DUP3 DUP5 PUSH2 0x1B47 SWAP1 SWAP2 SWAP1 PUSH4 0xFFFFFFFF AND JUMP JUMPDEST PUSH1 0x5 DUP2 SWAP1 SSTORE POP PUSH2 0x91C JUMP JUMPDEST PUSH1 0x0 PUSH2 0x8D3 TIMESTAMP PUSH1 0x4 SLOAD PUSH2 0x1A38 SWAP1 SWAP2 SWAP1 PUSH4 0xFFFFFFFF AND JUMP JUMPDEST SWAP1 POP PUSH1 0x0 PUSH2 0x8EC PUSH1 0x5 SLOAD DUP4 PUSH2 0x1AC1 SWAP1 SWAP2 SWAP1 PUSH4 0xFFFFFFFF AND JUMP JUMPDEST SWAP1 POP PUSH2 0x913 DUP5 PUSH2 0x905 DUP4 DUP9 PUSH2 0x1BD6 SWAP1 SWAP2 SWAP1 PUSH4 0xFFFFFFFF AND JUMP JUMPDEST PUSH2 0x1B47 SWAP1 SWAP2 SWAP1 PUSH4 0xFFFFFFFF AND JUMP JUMPDEST PUSH1 0x5 DUP2 SWAP1 SSTORE POP POP POP JUMPDEST PUSH1 0x0 PUSH1 0x2 PUSH1 0x0 SWAP1 SLOAD SWAP1 PUSH2 0x100 EXP SWAP1 DIV PUSH20 0xFFFFFFFFFFFFFFFFFFFFFFFFFFFFFFFFFFFFFFFF AND PUSH20 0xFFFFFFFFFFFFFFFFFFFFFFFFFFFFFFFFFFFFFFFF AND PUSH4 0x70A08231 ADDRESS PUSH1 0x40 MLOAD DUP3 PUSH4 0xFFFFFFFF AND PUSH1 0xE0 SHL DUP2 MSTORE PUSH1 0x4 ADD DUP1 DUP3 PUSH20 0xFFFFFFFFFFFFFFFFFFFFFFFFFFFFFFFFFFFFFFFF AND PUSH20 0xFFFFFFFFFFFFFFFFFFFFFFFFFFFFFFFFFFFFFFFF AND DUP2 MSTORE PUSH1 0x20 ADD SWAP2 POP POP PUSH1 0x20 PUSH1 0x40 MLOAD DUP1 DUP4 SUB DUP2 DUP7 DUP1 EXTCODESIZE ISZERO DUP1 ISZERO PUSH2 0x9BD JUMPI PUSH1 0x0 DUP1 REVERT JUMPDEST POP GAS STATICCALL ISZERO DUP1 ISZERO PUSH2 0x9D1 JUMPI RETURNDATASIZE PUSH1 0x0 DUP1 RETURNDATACOPY RETURNDATASIZE PUSH1 0x0 REVERT JUMPDEST POP POP POP POP PUSH1 0x40 MLOAD RETURNDATASIZE PUSH1 0x20 DUP2 LT ISZERO PUSH2 0x9E7 JUMPI PUSH1 0x0 DUP1 REVERT JUMPDEST DUP2 ADD SWAP1 DUP1 DUP1 MLOAD SWAP1 PUSH1 0x20 ADD SWAP1 SWAP3 SWAP2 SWAP1 POP POP POP SWAP1 POP PUSH2 0xA0D DUP4 DUP3 PUSH2 0x1B47 SWAP1 SWAP2 SWAP1 PUSH4 0xFFFFFFFF AND JUMP JUMPDEST PUSH1 0x5 SLOAD GT ISZERO PUSH2 0xA84 JUMPI PUSH1 0x40 MLOAD PUSH32 0x8C379A000000000000000000000000000000000000000000000000000000000 DUP2 MSTORE PUSH1 0x4 ADD DUP1 DUP1 PUSH1 0x20 ADD DUP3 DUP2 SUB DUP3 MSTORE PUSH1 0x18 DUP2 MSTORE PUSH1 0x20 ADD DUP1 PUSH32 0x50726F76696465642072657761726420746F6F20686967680000000000000000 DUP2 MSTORE POP PUSH1 0x20 ADD SWAP2 POP POP PUSH1 0x40 MLOAD DUP1 SWAP2 SUB SWAP1 REVERT JUMPDEST TIMESTAMP PUSH1 0x6 DUP2 SWAP1 SSTORE POP PUSH2 0xA9E DUP4 TIMESTAMP PUSH2 0x1BD6 SWAP1 SWAP2 SWAP1 PUSH4 0xFFFFFFFF AND JUMP JUMPDEST PUSH1 0x4 DUP2 SWAP1 SSTORE POP PUSH32 0x6C07EE05DCF262F13ABF9D87B846EE789D2F90FE991D495ACD7D7FC109EE1F55 DUP5 PUSH1 0x4 SLOAD PUSH1 0x40 MLOAD DUP1 DUP4 DUP2 MSTORE PUSH1 0x20 ADD DUP3 DUP2 MSTORE PUSH1 0x20 ADD SWAP3 POP POP POP PUSH1 0x40 MLOAD DUP1 SWAP2 SUB SWAP1 LOG1 POP POP POP POP JUMP JUMPDEST PUSH1 0x1 DUP1 PUSH1 0x0 DUP3 DUP3 SLOAD ADD SWAP3 POP POP DUP2 SWAP1 SSTORE POP PUSH1 0x0 PUSH1 0x1 SLOAD SWAP1 POP CALLER PUSH2 0xB0B PUSH2 0x14CD JUMP JUMPDEST PUSH1 0x7 DUP2 SWAP1 SSTORE POP PUSH2 0xB19 PUSH2 0x1162 JUMP JUMPDEST PUSH1 0x6 DUP2 SWAP1 SSTORE POP PUSH1 0x0 PUSH20 0xFFFFFFFFFFFFFFFFFFFFFFFFFFFFFFFFFFFFFFFF AND DUP2 PUSH20 0xFFFFFFFFFFFFFFFFFFFFFFFFFFFFFFFFFFFFFFFF AND EQ PUSH2 0xBE6 JUMPI PUSH2 0xB5C DUP2 PUSH2 0x541 JUMP JUMPDEST PUSH1 0x9 PUSH1 0x0 DUP4 PUSH20 0xFFFFFFFFFFFFFFFFFFFFFFFFFFFFFFFFFFFFFFFF AND PUSH20 0xFFFFFFFFFFFFFFFFFFFFFFFFFFFFFFFFFFFFFFFF AND DUP2 MSTORE PUSH1 0x20 ADD SWAP1 DUP2 MSTORE PUSH1 0x20 ADD PUSH1 0x0 KECCAK256 DUP2 SWAP1 SSTORE POP PUSH1 0x7 SLOAD PUSH1 0x8 PUSH1 0x0 DUP4 PUSH20 0xFFFFFFFFFFFFFFFFFFFFFFFFFFFFFFFFFFFFFFFF AND PUSH20 0xFFFFFFFFFFFFFFFFFFFFFFFFFFFFFFFFFFFFFFFF AND DUP2 MSTORE PUSH1 0x20 ADD SWAP1 DUP2 MSTORE PUSH1 0x20 ADD PUSH1 0x0 KECCAK256 DUP2 SWAP1 SSTORE POP JUMPDEST PUSH1 0x0 DUP4 GT PUSH2 0xC5C JUMPI PUSH1 0x40 MLOAD PUSH32 0x8C379A000000000000000000000000000000000000000000000000000000000 DUP2 MSTORE PUSH1 0x4 ADD DUP1 DUP1 PUSH1 0x20 ADD DUP3 DUP2 SUB DUP3 MSTORE PUSH1 0x11 DUP2 MSTORE PUSH1 0x20 ADD DUP1 PUSH32 0x43616E6E6F742077697468647261772030000000000000000000000000000000 DUP2 MSTORE POP PUSH1 0x20 ADD SWAP2 POP POP PUSH1 0x40 MLOAD DUP1 SWAP2 SUB SWAP1 REVERT JUMPDEST PUSH2 0xC71 DUP4 PUSH1 0xA SLOAD PUSH2 0x1A38 SWAP1 SWAP2 SWAP1 PUSH4 0xFFFFFFFF AND JUMP JUMPDEST PUSH1 0xA DUP2 SWAP1 SSTORE POP PUSH2 0xCC9 DUP4 PUSH1 0xB PUSH1 0x0 CALLER PUSH20 0xFFFFFFFFFFFFFFFFFFFFFFFFFFFFFFFFFFFFFFFF AND PUSH20 0xFFFFFFFFFFFFFFFFFFFFFFFFFFFFFFFFFFFFFFFF AND DUP2 MSTORE PUSH1 0x20 ADD SWAP1 DUP2 MSTORE PUSH1 0x20 ADD PUSH1 0x0 KECCAK256 SLOAD PUSH2 0x1A38 SWAP1 SWAP2 SWAP1 PUSH4 0xFFFFFFFF AND JUMP JUMPDEST PUSH1 0xB PUSH1 0x0 CALLER PUSH20 0xFFFFFFFFFFFFFFFFFFFFFFFFFFFFFFFFFFFFFFFF AND PUSH20 0xFFFFFFFFFFFFFFFFFFFFFFFFFFFFFFFFFFFFFFFF AND DUP2 MSTORE PUSH1 0x20 ADD SWAP1 DUP2 MSTORE PUSH1 0x20 ADD PUSH1 0x0 KECCAK256 DUP2 SWAP1 SSTORE POP PUSH2 0xD59 CALLER DUP5 PUSH1 0x3 PUSH1 0x0 SWAP1 SLOAD SWAP1 PUSH2 0x100 EXP SWAP1 DIV PUSH20 0xFFFFFFFFFFFFFFFFFFFFFFFFFFFFFFFFFFFFFFFF AND PUSH20 0xFFFFFFFFFFFFFFFFFFFFFFFFFFFFFFFFFFFFFFFF AND PUSH2 0x1C5E SWAP1 SWAP3 SWAP2 SWAP1 PUSH4 0xFFFFFFFF AND JUMP JUMPDEST CALLER PUSH20 0xFFFFFFFFFFFFFFFFFFFFFFFFFFFFFFFFFFFFFFFF AND PUSH32 0x7084F5476618D8E60B11EF0D7D3F06914655ADB8793E28FF7F018D4C76D505D5 DUP5 PUSH1 0x40 MLOAD DUP1 DUP3 DUP2 MSTORE PUSH1 0x20 ADD SWAP2 POP POP PUSH1 0x40 MLOAD DUP1 SWAP2 SUB SWAP1 LOG2 POP PUSH1 0x1 SLOAD DUP2 EQ PUSH2 0xE1F JUMPI PUSH1 0x40 MLOAD PUSH32 0x8C379A000000000000000000000000000000000000000000000000000000000 DUP2 MSTORE PUSH1 0x4 ADD DUP1 DUP1 PUSH1 0x20 ADD DUP3 DUP2 SUB DUP3 MSTORE PUSH1 0x1F DUP2 MSTORE PUSH1 0x20 ADD DUP1 PUSH32 0x5265656E7472616E637947756172643A207265656E7472616E742063616C6C00 DUP2 MSTORE POP PUSH1 0x20 ADD SWAP2 POP POP PUSH1 0x40 MLOAD DUP1 SWAP2 SUB SWAP1 REVERT JUMPDEST POP POP JUMP JUMPDEST PUSH1 0x1 DUP1 PUSH1 0x0 DUP3 DUP3 SLOAD ADD SWAP3 POP POP DUP2 SWAP1 SSTORE POP PUSH1 0x0 PUSH1 0x1 SLOAD SWAP1 POP CALLER PUSH2 0xE43 PUSH2 0x14CD JUMP JUMPDEST PUSH1 0x7 DUP2 SWAP1 SSTORE POP PUSH2 0xE51 PUSH2 0x1162 JUMP JUMPDEST PUSH1 0x6 DUP2 SWAP1 SSTORE POP PUSH1 0x0 PUSH20 0xFFFFFFFFFFFFFFFFFFFFFFFFFFFFFFFFFFFFFFFF AND DUP2 PUSH20 0xFFFFFFFFFFFFFFFFFFFFFFFFFFFFFFFFFFFFFFFF AND EQ PUSH2 0xF1E JUMPI PUSH2 0xE94 DUP2 PUSH2 0x541 JUMP JUMPDEST PUSH1 0x9 PUSH1 0x0 DUP4 PUSH20 0xFFFFFFFFFFFFFFFFFFFFFFFFFFFFFFFFFFFFFFFF AND PUSH20 0xFFFFFFFFFFFFFFFFFFFFFFFFFFFFFFFFFFFFFFFF AND DUP2 MSTORE PUSH1 0x20 ADD SWAP1 DUP2 MSTORE PUSH1 0x20 ADD PUSH1 0x0 KECCAK256 DUP2 SWAP1 SSTORE POP PUSH1 0x7 SLOAD PUSH1 0x8 PUSH1 0x0 DUP4 PUSH20 0xFFFFFFFFFFFFFFFFFFFFFFFFFFFFFFFFFFFFFFFF AND PUSH20 0xFFFFFFFFFFFFFFFFFFFFFFFFFFFFFFFFFFFFFFFF AND DUP2 MSTORE PUSH1 0x20 ADD SWAP1 DUP2 MSTORE PUSH1 0x20 ADD PUSH1 0x0 KECCAK256 DUP2 SWAP1 SSTORE POP JUMPDEST PUSH1 0x0 PUSH1 0x9 PUSH1 0x0 CALLER PUSH20 0xFFFFFFFFFFFFFFFFFFFFFFFFFFFFFFFFFFFFFFFF AND PUSH20 0xFFFFFFFFFFFFFFFFFFFFFFFFFFFFFFFFFFFFFFFF AND DUP2 MSTORE PUSH1 0x20 ADD SWAP1 DUP2 MSTORE PUSH1 0x20 ADD PUSH1 0x0 KECCAK256 SLOAD SWAP1 POP PUSH1 0x0 DUP2 GT ISZERO PUSH2 0x104C JUMPI PUSH1 0x0 PUSH1 0x9 PUSH1 0x0 CALLER PUSH20 0xFFFFFFFFFFFFFFFFFFFFFFFFFFFFFFFFFFFFFFFF AND PUSH20 0xFFFFFFFFFFFFFFFFFFFFFFFFFFFFFFFFFFFFFFFF AND DUP2 MSTORE PUSH1 0x20 ADD SWAP1 DUP2 MSTORE PUSH1 0x20 ADD PUSH1 0x0 KECCAK256 DUP2 SWAP1 SSTORE POP PUSH2 0xFFD CALLER DUP3 PUSH1 0x2 PUSH1 0x0 SWAP1 SLOAD SWAP1 PUSH2 0x100 EXP SWAP1 DIV PUSH20 0xFFFFFFFFFFFFFFFFFFFFFFFFFFFFFFFFFFFFFFFF AND PUSH20 0xFFFFFFFFFFFFFFFFFFFFFFFFFFFFFFFFFFFFFFFF AND PUSH2 0x1C5E SWAP1 SWAP3 SWAP2 SWAP1 PUSH4 0xFFFFFFFF AND JUMP JUMPDEST CALLER PUSH20 0xFFFFFFFFFFFFFFFFFFFFFFFFFFFFFFFFFFFFFFFF AND PUSH32 0xE2403640BA68FED3A2F88B7557551D1993F84B99BB10FF833F0CF8DB0C5E0486 DUP3 PUSH1 0x40 MLOAD DUP1 DUP3 DUP2 MSTORE PUSH1 0x20 ADD SWAP2 POP POP PUSH1 0x40 MLOAD DUP1 SWAP2 SUB SWAP1 LOG2 JUMPDEST POP POP PUSH1 0x1 SLOAD DUP2 EQ PUSH2 0x10C5 JUMPI PUSH1 0x40 MLOAD PUSH32 0x8C379A000000000000000000000000000000000000000000000000000000000 DUP2 MSTORE PUSH1 0x4 ADD DUP1 DUP1 PUSH1 0x20 ADD DUP3 DUP2 SUB DUP3 MSTORE PUSH1 0x1F DUP2 MSTORE PUSH1 0x20 ADD DUP1 PUSH32 0x5265656E7472616E637947756172643A207265656E7472616E742063616C6C00 DUP2 MSTORE POP PUSH1 0x20 ADD SWAP2 POP POP PUSH1 0x40 MLOAD DUP1 SWAP2 SUB SWAP1 REVERT JUMPDEST POP JUMP JUMPDEST PUSH1 0x0 DUP1 SWAP1 SLOAD SWAP1 PUSH2 0x100 EXP SWAP1 DIV PUSH20 0xFFFFFFFFFFFFFFFFFFFFFFFFFFFFFFFFFFFFFFFF AND DUP2 JUMP JUMPDEST PUSH1 0x0 PUSH1 0xB PUSH1 0x0 DUP4 PUSH20 0xFFFFFFFFFFFFFFFFFFFFFFFFFFFFFFFFFFFFFFFF AND PUSH20 0xFFFFFFFFFFFFFFFFFFFFFFFFFFFFFFFFFFFFFFFF AND DUP2 MSTORE PUSH1 0x20 ADD SWAP1 DUP2 MSTORE PUSH1 0x20 ADD PUSH1 0x0 KECCAK256 SLOAD SWAP1 POP SWAP2 SWAP1 POP JUMP JUMPDEST PUSH1 0x3 PUSH1 0x0 SWAP1 SLOAD SWAP1 PUSH2 0x100 EXP SWAP1 DIV PUSH20 0xFFFFFFFFFFFFFFFFFFFFFFFFFFFFFFFFFFFFFFFF AND DUP2 JUMP JUMPDEST PUSH1 0x5 SLOAD DUP2 JUMP JUMPDEST PUSH1 0x0 PUSH2 0x1170 TIMESTAMP PUSH1 0x4 SLOAD PUSH2 0x1D2F JUMP JUMPDEST SWAP1 POP SWAP1 JUMP JUMPDEST PUSH1 0x8 PUSH1 0x20 MSTORE DUP1 PUSH1 0x0 MSTORE PUSH1 0x40 PUSH1 0x0 KECCAK256 PUSH1 0x0 SWAP2 POP SWAP1 POP SLOAD DUP2 JUMP JUMPDEST PUSH1 0x1 DUP1 PUSH1 0x0 DUP3 DUP3 SLOAD ADD SWAP3 POP POP DUP2 SWAP1 SSTORE POP PUSH1 0x0 PUSH1 0x1 SLOAD SWAP1 POP CALLER PUSH2 0x11AD PUSH2 0x14CD JUMP JUMPDEST PUSH1 0x7 DUP2 SWAP1 SSTORE POP PUSH2 0x11BB PUSH2 0x1162 JUMP JUMPDEST PUSH1 0x6 DUP2 SWAP1 SSTORE POP PUSH1 0x0 PUSH20 0xFFFFFFFFFFFFFFFFFFFFFFFFFFFFFFFFFFFFFFFF AND DUP2 PUSH20 0xFFFFFFFFFFFFFFFFFFFFFFFFFFFFFFFFFFFFFFFF AND EQ PUSH2 0x1288 JUMPI PUSH2 0x11FE DUP2 PUSH2 0x541 JUMP JUMPDEST PUSH1 0x9 PUSH1 0x0 DUP4 PUSH20 0xFFFFFFFFFFFFFFFFFFFFFFFFFFFFFFFFFFFFFFFF AND PUSH20 0xFFFFFFFFFFFFFFFFFFFFFFFFFFFFFFFFFFFFFFFF AND DUP2 MSTORE PUSH1 0x20 ADD SWAP1 DUP2 MSTORE PUSH1 0x20 ADD PUSH1 0x0 KECCAK256 DUP2 SWAP1 SSTORE POP PUSH1 0x7 SLOAD PUSH1 0x8 PUSH1 0x0 DUP4 PUSH20 0xFFFFFFFFFFFFFFFFFFFFFFFFFFFFFFFFFFFFFFFF AND PUSH20 0xFFFFFFFFFFFFFFFFFFFFFFFFFFFFFFFFFFFFFFFF AND DUP2 MSTORE PUSH1 0x20 ADD SWAP1 DUP2 MSTORE PUSH1 0x20 ADD PUSH1 0x0 KECCAK256 DUP2 SWAP1 SSTORE POP JUMPDEST PUSH1 0x0 DUP4 GT PUSH2 0x12FE JUMPI PUSH1 0x40 MLOAD PUSH32 0x8C379A000000000000000000000000000000000000000000000000000000000 DUP2 MSTORE PUSH1 0x4 ADD DUP1 DUP1 PUSH1 0x20 ADD DUP3 DUP2 SUB DUP3 MSTORE PUSH1 0xE DUP2 MSTORE PUSH1 0x20 ADD DUP1 PUSH32 0x43616E6E6F74207374616B652030000000000000000000000000000000000000 DUP2 MSTORE POP PUSH1 0x20 ADD SWAP2 POP POP PUSH1 0x40 MLOAD DUP1 SWAP2 SUB SWAP1 REVERT JUMPDEST PUSH2 0x1313 DUP4 PUSH1 0xA SLOAD PUSH2 0x1BD6 SWAP1 SWAP2 SWAP1 PUSH4 0xFFFFFFFF AND JUMP JUMPDEST PUSH1 0xA DUP2 SWAP1 SSTORE POP PUSH2 0x136B DUP4 PUSH1 0xB PUSH1 0x0 CALLER PUSH20 0xFFFFFFFFFFFFFFFFFFFFFFFFFFFFFFFFFFFFFFFF AND PUSH20 0xFFFFFFFFFFFFFFFFFFFFFFFFFFFFFFFFFFFFFFFF AND DUP2 MSTORE PUSH1 0x20 ADD SWAP1 DUP2 MSTORE PUSH1 0x20 ADD PUSH1 0x0 KECCAK256 SLOAD PUSH2 0x1BD6 SWAP1 SWAP2 SWAP1 PUSH4 0xFFFFFFFF AND JUMP JUMPDEST PUSH1 0xB PUSH1 0x0 CALLER PUSH20 0xFFFFFFFFFFFFFFFFFFFFFFFFFFFFFFFFFFFFFFFF AND PUSH20 0xFFFFFFFFFFFFFFFFFFFFFFFFFFFFFFFFFFFFFFFF AND DUP2 MSTORE PUSH1 0x20 ADD SWAP1 DUP2 MSTORE PUSH1 0x20 ADD PUSH1 0x0 KECCAK256 DUP2 SWAP1 SSTORE POP PUSH2 0x13FD CALLER ADDRESS DUP6 PUSH1 0x3 PUSH1 0x0 SWAP1 SLOAD SWAP1 PUSH2 0x100 EXP SWAP1 DIV PUSH20 0xFFFFFFFFFFFFFFFFFFFFFFFFFFFFFFFFFFFFFFFF AND PUSH20 0xFFFFFFFFFFFFFFFFFFFFFFFFFFFFFFFFFFFFFFFF AND PUSH2 0x1D48 SWAP1 SWAP4 SWAP3 SWAP2 SWAP1 PUSH4 0xFFFFFFFF AND JUMP JUMPDEST CALLER PUSH20 0xFFFFFFFFFFFFFFFFFFFFFFFFFFFFFFFFFFFFFFFF AND PUSH32 0x9E71BC8EEA02A63969F509818F2DAFB9254532904319F9DBDA79B67BD34A5F3D DUP5 PUSH1 0x40 MLOAD DUP1 DUP3 DUP2 MSTORE PUSH1 0x20 ADD SWAP2 POP POP PUSH1 0x40 MLOAD DUP1 SWAP2 SUB SWAP1 LOG2 POP PUSH1 0x1 SLOAD DUP2 EQ PUSH2 0x14C3 JUMPI PUSH1 0x40 MLOAD PUSH32 0x8C379A000000000000000000000000000000000000000000000000000000000 DUP2 MSTORE PUSH1 0x4 ADD DUP1 DUP1 PUSH1 0x20 ADD DUP3 DUP2 SUB DUP3 MSTORE PUSH1 0x1F DUP2 MSTORE PUSH1 0x20 ADD DUP1 PUSH32 0x5265656E7472616E637947756172643A207265656E7472616E742063616C6C00 DUP2 MSTORE POP PUSH1 0x20 ADD SWAP2 POP POP PUSH1 0x40 MLOAD DUP1 SWAP2 SUB SWAP1 REVERT JUMPDEST POP POP JUMP JUMPDEST PUSH1 0x6 SLOAD DUP2 JUMP JUMPDEST PUSH1 0x0 DUP1 PUSH1 0xA SLOAD EQ ISZERO PUSH2 0x14E3 JUMPI PUSH1 0x7 SLOAD SWAP1 POP PUSH2 0x1558 JUMP JUMPDEST PUSH2 0x1555 PUSH2 0x1544 PUSH1 0xA SLOAD PUSH2 0x1536 PUSH8 0xDE0B6B3A7640000 PUSH2 0x1528 PUSH1 0x5 SLOAD PUSH2 0x151A PUSH1 0x6 SLOAD PUSH2 0x150C PUSH2 0x1162 JUMP JUMPDEST PUSH2 0x1A38 SWAP1 SWAP2 SWAP1 PUSH4 0xFFFFFFFF AND JUMP JUMPDEST PUSH2 0x1AC1 SWAP1 SWAP2 SWAP1 PUSH4 0xFFFFFFFF AND JUMP JUMPDEST PUSH2 0x1AC1 SWAP1 SWAP2 SWAP1 PUSH4 0xFFFFFFFF AND JUMP JUMPDEST PUSH2 0x1B47 SWAP1 SWAP2 SWAP1 PUSH4 0xFFFFFFFF AND JUMP JUMPDEST PUSH1 0x7 SLOAD PUSH2 0x1BD6 SWAP1 SWAP2 SWAP1 PUSH4 0xFFFFFFFF AND JUMP JUMPDEST SWAP1 POP JUMPDEST SWAP1 JUMP JUMPDEST PUSH1 0x2 PUSH1 0x0 SWAP1 SLOAD SWAP1 PUSH2 0x100 EXP SWAP1 DIV PUSH20 0xFFFFFFFFFFFFFFFFFFFFFFFFFFFFFFFFFFFFFFFF AND DUP2 JUMP JUMPDEST PUSH1 0x7 SLOAD DUP2 JUMP JUMPDEST PUSH2 0x15CF PUSH1 0xB PUSH1 0x0 CALLER PUSH20 0xFFFFFFFFFFFFFFFFFFFFFFFFFFFFFFFFFFFFFFFF AND PUSH20 0xFFFFFFFFFFFFFFFFFFFFFFFFFFFFFFFFFFFFFFFF AND DUP2 MSTORE PUSH1 0x20 ADD SWAP1 DUP2 MSTORE PUSH1 0x20 ADD PUSH1 0x0 KECCAK256 SLOAD PUSH2 0xAEB JUMP JUMPDEST PUSH2 0x15D7 PUSH2 0xE23 JUMP JUMPDEST JUMP JUMPDEST PUSH1 0x4 SLOAD DUP2 JUMP JUMPDEST PUSH1 0x1 DUP1 PUSH1 0x0 DUP3 DUP3 SLOAD ADD SWAP3 POP POP DUP2 SWAP1 SSTORE POP PUSH1 0x0 PUSH1 0x1 SLOAD SWAP1 POP CALLER PUSH2 0x15FF PUSH2 0x14CD JUMP JUMPDEST PUSH1 0x7 DUP2 SWAP1 SSTORE POP PUSH2 0x160D PUSH2 0x1162 JUMP JUMPDEST PUSH1 0x6 DUP2 SWAP1 SSTORE POP PUSH1 0x0 PUSH20 0xFFFFFFFFFFFFFFFFFFFFFFFFFFFFFFFFFFFFFFFF AND DUP2 PUSH20 0xFFFFFFFFFFFFFFFFFFFFFFFFFFFFFFFFFFFFFFFF AND EQ PUSH2 0x16DA JUMPI PUSH2 0x1650 DUP2 PUSH2 0x541 JUMP JUMPDEST PUSH1 0x9 PUSH1 0x0 DUP4 PUSH20 0xFFFFFFFFFFFFFFFFFFFFFFFFFFFFFFFFFFFFFFFF AND PUSH20 0xFFFFFFFFFFFFFFFFFFFFFFFFFFFFFFFFFFFFFFFF AND DUP2 MSTORE PUSH1 0x20 ADD SWAP1 DUP2 MSTORE PUSH1 0x20 ADD PUSH1 0x0 KECCAK256 DUP2 SWAP1 SSTORE POP PUSH1 0x7 SLOAD PUSH1 0x8 PUSH1 0x0 DUP4 PUSH20 0xFFFFFFFFFFFFFFFFFFFFFFFFFFFFFFFFFFFFFFFF AND PUSH20 0xFFFFFFFFFFFFFFFFFFFFFFFFFFFFFFFFFFFFFFFF AND DUP2 MSTORE PUSH1 0x20 ADD SWAP1 DUP2 MSTORE PUSH1 0x20 ADD PUSH1 0x0 KECCAK256 DUP2 SWAP1 SSTORE POP JUMPDEST PUSH1 0x0 DUP8 GT PUSH2 0x1750 JUMPI PUSH1 0x40 MLOAD PUSH32 0x8C379A000000000000000000000000000000000000000000000000000000000 DUP2 MSTORE PUSH1 0x4 ADD DUP1 DUP1 PUSH1 0x20 ADD DUP3 DUP2 SUB DUP3 MSTORE PUSH1 0xE DUP2 MSTORE PUSH1 0x20 ADD DUP1 PUSH32 0x43616E6E6F74207374616B652030000000000000000000000000000000000000 DUP2 MSTORE POP PUSH1 0x20 ADD SWAP2 POP POP PUSH1 0x40 MLOAD DUP1 SWAP2 SUB SWAP1 REVERT JUMPDEST PUSH2 0x1765 DUP8 PUSH1 0xA SLOAD PUSH2 0x1BD6 SWAP1 SWAP2 SWAP1 PUSH4 0xFFFFFFFF AND JUMP JUMPDEST PUSH1 0xA DUP2 SWAP1 SSTORE POP PUSH2 0x17BD DUP8 PUSH1 0xB PUSH1 0x0 CALLER PUSH20 0xFFFFFFFFFFFFFFFFFFFFFFFFFFFFFFFFFFFFFFFF AND PUSH20 0xFFFFFFFFFFFFFFFFFFFFFFFFFFFFFFFFFFFFFFFF AND DUP2 MSTORE PUSH1 0x20 ADD SWAP1 DUP2 MSTORE PUSH1 0x20 ADD PUSH1 0x0 KECCAK256 SLOAD PUSH2 0x1BD6 SWAP1 SWAP2 SWAP1 PUSH4 0xFFFFFFFF AND JUMP JUMPDEST PUSH1 0xB PUSH1 0x0 CALLER PUSH20 0xFFFFFFFFFFFFFFFFFFFFFFFFFFFFFFFFFFFFFFFF AND PUSH20 0xFFFFFFFFFFFFFFFFFFFFFFFFFFFFFFFFFFFFFFFF AND DUP2 MSTORE PUSH1 0x20 ADD SWAP1 DUP2 MSTORE PUSH1 0x20 ADD PUSH1 0x0 KECCAK256 DUP2 SWAP1 SSTORE POP PUSH1 0x3 PUSH1 0x0 SWAP1 SLOAD SWAP1 PUSH2 0x100 EXP SWAP1 DIV PUSH20 0xFFFFFFFFFFFFFFFFFFFFFFFFFFFFFFFFFFFFFFFF AND PUSH20 0xFFFFFFFFFFFFFFFFFFFFFFFFFFFFFFFFFFFFFFFF AND PUSH4 0xD505ACCF CALLER ADDRESS DUP11 DUP11 DUP11 DUP11 DUP11 PUSH1 0x40 MLOAD DUP9 PUSH4 0xFFFFFFFF AND PUSH1 0xE0 SHL DUP2 MSTORE PUSH1 0x4 ADD DUP1 DUP9 PUSH20 0xFFFFFFFFFFFFFFFFFFFFFFFFFFFFFFFFFFFFFFFF AND PUSH20 0xFFFFFFFFFFFFFFFFFFFFFFFFFFFFFFFFFFFFFFFF AND DUP2 MSTORE PUSH1 0x20 ADD DUP8 PUSH20 0xFFFFFFFFFFFFFFFFFFFFFFFFFFFFFFFFFFFFFFFF AND PUSH20 0xFFFFFFFFFFFFFFFFFFFFFFFFFFFFFFFFFFFFFFFF AND DUP2 MSTORE PUSH1 0x20 ADD DUP7 DUP2 MSTORE PUSH1 0x20 ADD DUP6 DUP2 MSTORE PUSH1 0x20 ADD DUP5 PUSH1 0xFF AND PUSH1 0xFF AND DUP2 MSTORE PUSH1 0x20 ADD DUP4 DUP2 MSTORE PUSH1 0x20 ADD DUP3 DUP2 MSTORE PUSH1 0x20 ADD SWAP8 POP POP POP POP POP POP POP POP PUSH1 0x0 PUSH1 0x40 MLOAD DUP1 DUP4 SUB DUP2 PUSH1 0x0 DUP8 DUP1 EXTCODESIZE ISZERO DUP1 ISZERO PUSH2 0x1903 JUMPI PUSH1 0x0 DUP1 REVERT JUMPDEST POP GAS CALL ISZERO DUP1 ISZERO PUSH2 0x1917 JUMPI RETURNDATASIZE PUSH1 0x0 DUP1 RETURNDATACOPY RETURNDATASIZE PUSH1 0x0 REVERT JUMPDEST POP POP POP POP PUSH2 0x196A CALLER ADDRESS DUP10 PUSH1 0x3 PUSH1 0x0 SWAP1 SLOAD SWAP1 PUSH2 0x100 EXP SWAP1 DIV PUSH20 0xFFFFFFFFFFFFFFFFFFFFFFFFFFFFFFFFFFFFFFFF AND PUSH20 0xFFFFFFFFFFFFFFFFFFFFFFFFFFFFFFFFFFFFFFFF AND PUSH2 0x1D48 SWAP1 SWAP4 SWAP3 SWAP2 SWAP1 PUSH4 0xFFFFFFFF AND JUMP JUMPDEST CALLER PUSH20 0xFFFFFFFFFFFFFFFFFFFFFFFFFFFFFFFFFFFFFFFF AND PUSH32 0x9E71BC8EEA02A63969F509818F2DAFB9254532904319F9DBDA79B67BD34A5F3D DUP9 PUSH1 0x40 MLOAD DUP1 DUP3 DUP2 MSTORE PUSH1 0x20 ADD SWAP2 POP POP PUSH1 0x40 MLOAD DUP1 SWAP2 SUB SWAP1 LOG2 POP PUSH1 0x1 SLOAD DUP2 EQ PUSH2 0x1A30 JUMPI PUSH1 0x40 MLOAD PUSH32 0x8C379A000000000000000000000000000000000000000000000000000000000 DUP2 MSTORE PUSH1 0x4 ADD DUP1 DUP1 PUSH1 0x20 ADD DUP3 DUP2 SUB DUP3 MSTORE PUSH1 0x1F DUP2 MSTORE PUSH1 0x20 ADD DUP1 PUSH32 0x5265656E7472616E637947756172643A207265656E7472616E742063616C6C00 DUP2 MSTORE POP PUSH1 0x20 ADD SWAP2 POP POP PUSH1 0x40 MLOAD DUP1 SWAP2 SUB SWAP1 REVERT JUMPDEST POP POP POP POP POP POP JUMP JUMPDEST PUSH1 0x0 DUP3 DUP3 GT ISZERO PUSH2 0x1AB0 JUMPI PUSH1 0x40 MLOAD PUSH32 0x8C379A000000000000000000000000000000000000000000000000000000000 DUP2 MSTORE PUSH1 0x4 ADD DUP1 DUP1 PUSH1 0x20 ADD DUP3 DUP2 SUB DUP3 MSTORE PUSH1 0x1E DUP2 MSTORE PUSH1 0x20 ADD DUP1 PUSH32 0x536166654D6174683A207375627472616374696F6E206F766572666C6F770000 DUP2 MSTORE POP PUSH1 0x20 ADD SWAP2 POP POP PUSH1 0x40 MLOAD DUP1 SWAP2 SUB SWAP1 REVERT JUMPDEST PUSH1 0x0 DUP3 DUP5 SUB SWAP1 POP DUP1 SWAP2 POP POP SWAP3 SWAP2 POP POP JUMP JUMPDEST PUSH1 0x0 DUP1 DUP4 EQ ISZERO PUSH2 0x1AD4 JUMPI PUSH1 0x0 SWAP1 POP PUSH2 0x1B41 JUMP JUMPDEST PUSH1 0x0 DUP3 DUP5 MUL SWAP1 POP DUP3 DUP5 DUP3 DUP2 PUSH2 0x1AE5 JUMPI INVALID JUMPDEST DIV EQ PUSH2 0x1B3C JUMPI PUSH1 0x40 MLOAD PUSH32 0x8C379A000000000000000000000000000000000000000000000000000000000 DUP2 MSTORE PUSH1 0x4 ADD DUP1 DUP1 PUSH1 0x20 ADD DUP3 DUP2 SUB DUP3 MSTORE PUSH1 0x21 DUP2 MSTORE PUSH1 0x20 ADD DUP1 PUSH2 0x20AD PUSH1 0x21 SWAP2 CODECOPY PUSH1 0x40 ADD SWAP2 POP POP PUSH1 0x40 MLOAD DUP1 SWAP2 SUB SWAP1 REVERT JUMPDEST DUP1 SWAP2 POP POP JUMPDEST SWAP3 SWAP2 POP POP JUMP JUMPDEST PUSH1 0x0 DUP1 DUP3 GT PUSH2 0x1BBE JUMPI PUSH1 0x40 MLOAD PUSH32 0x8C379A000000000000000000000000000000000000000000000000000000000 DUP2 MSTORE PUSH1 0x4 ADD DUP1 DUP1 PUSH1 0x20 ADD DUP3 DUP2 SUB DUP3 MSTORE PUSH1 0x1A DUP2 MSTORE PUSH1 0x20 ADD DUP1 PUSH32 0x536166654D6174683A206469766973696F6E206279207A65726F000000000000 DUP2 MSTORE POP PUSH1 0x20 ADD SWAP2 POP POP PUSH1 0x40 MLOAD DUP1 SWAP2 SUB SWAP1 REVERT JUMPDEST PUSH1 0x0 DUP3 DUP5 DUP2 PUSH2 0x1BC9 JUMPI INVALID JUMPDEST DIV SWAP1 POP DUP1 SWAP2 POP POP SWAP3 SWAP2 POP POP JUMP JUMPDEST PUSH1 0x0 DUP1 DUP3 DUP5 ADD SWAP1 POP DUP4 DUP2 LT ISZERO PUSH2 0x1C54 JUMPI PUSH1 0x40 MLOAD PUSH32 0x8C379A000000000000000000000000000000000000000000000000000000000 DUP2 MSTORE PUSH1 0x4 ADD DUP1 DUP1 PUSH1 0x20 ADD DUP3 DUP2 SUB DUP3 MSTORE PUSH1 0x1B DUP2 MSTORE PUSH1 0x20 ADD DUP1 PUSH32 0x536166654D6174683A206164646974696F6E206F766572666C6F770000000000 DUP2 MSTORE POP PUSH1 0x20 ADD SWAP2 POP POP PUSH1 0x40 MLOAD DUP1 SWAP2 SUB SWAP1 REVERT JUMPDEST DUP1 SWAP2 POP POP SWAP3 SWAP2 POP POP JUMP JUMPDEST PUSH2 0x1D2A DUP4 DUP5 PUSH20 0xFFFFFFFFFFFFFFFFFFFFFFFFFFFFFFFFFFFFFFFF AND PUSH4 0xA9059CBB SWAP1 POP PUSH1 0xE0 SHL DUP5 DUP5 PUSH1 0x40 MLOAD PUSH1 0x24 ADD DUP1 DUP4 PUSH20 0xFFFFFFFFFFFFFFFFFFFFFFFFFFFFFFFFFFFFFFFF AND PUSH20 0xFFFFFFFFFFFFFFFFFFFFFFFFFFFFFFFFFFFFFFFF AND DUP2 MSTORE PUSH1 0x20 ADD DUP3 DUP2 MSTORE PUSH1 0x20 ADD SWAP3 POP POP POP PUSH1 0x40 MLOAD PUSH1 0x20 DUP2 DUP4 SUB SUB DUP2 MSTORE SWAP1 PUSH1 0x40 MSTORE SWAP1 PUSH28 0xFFFFFFFFFFFFFFFFFFFFFFFFFFFFFFFFFFFFFFFFFFFFFFFFFFFFFFFF NOT AND PUSH1 0x20 DUP3 ADD DUP1 MLOAD PUSH28 0xFFFFFFFFFFFFFFFFFFFFFFFFFFFFFFFFFFFFFFFFFFFFFFFFFFFFFFFF DUP4 DUP2 DUP4 AND OR DUP4 MSTORE POP POP POP POP PUSH2 0x1E4E JUMP JUMPDEST POP POP POP JUMP JUMPDEST PUSH1 0x0 DUP2 DUP4 LT PUSH2 0x1D3E JUMPI DUP2 PUSH2 0x1D40 JUMP JUMPDEST DUP3 JUMPDEST SWAP1 POP SWAP3 SWAP2 POP POP JUMP JUMPDEST PUSH2 0x1E48 DUP5 DUP6 PUSH20 0xFFFFFFFFFFFFFFFFFFFFFFFFFFFFFFFFFFFFFFFF AND PUSH4 0x23B872DD SWAP1 POP PUSH1 0xE0 SHL DUP6 DUP6 DUP6 PUSH1 0x40 MLOAD PUSH1 0x24 ADD DUP1 DUP5 PUSH20 0xFFFFFFFFFFFFFFFFFFFFFFFFFFFFFFFFFFFFFFFF AND PUSH20 0xFFFFFFFFFFFFFFFFFFFFFFFFFFFFFFFFFFFFFFFF AND DUP2 MSTORE PUSH1 0x20 ADD DUP4 PUSH20 0xFFFFFFFFFFFFFFFFFFFFFFFFFFFFFFFFFFFFFFFF AND PUSH20 0xFFFFFFFFFFFFFFFFFFFFFFFFFFFFFFFFFFFFFFFF AND DUP2 MSTORE PUSH1 0x20 ADD DUP3 DUP2 MSTORE PUSH1 0x20 ADD SWAP4 POP POP POP POP PUSH1 0x40 MLOAD PUSH1 0x20 DUP2 DUP4 SUB SUB DUP2 MSTORE SWAP1 PUSH1 0x40 MSTORE SWAP1 PUSH28 0xFFFFFFFFFFFFFFFFFFFFFFFFFFFFFFFFFFFFFFFFFFFFFFFFFFFFFFFF NOT AND PUSH1 0x20 DUP3 ADD DUP1 MLOAD PUSH28 0xFFFFFFFFFFFFFFFFFFFFFFFFFFFFFFFFFFFFFFFFFFFFFFFFFFFFFFFF DUP4 DUP2 DUP4 AND OR DUP4 MSTORE POP POP POP POP PUSH2 0x1E4E JUMP JUMPDEST POP POP POP POP JUMP JUMPDEST PUSH2 0x1E6D DUP3 PUSH20 0xFFFFFFFFFFFFFFFFFFFFFFFFFFFFFFFFFFFFFFFF AND PUSH2 0x2099 JUMP JUMPDEST PUSH2 0x1EDF JUMPI PUSH1 0x40 MLOAD PUSH32 0x8C379A000000000000000000000000000000000000000000000000000000000 DUP2 MSTORE PUSH1 0x4 ADD DUP1 DUP1 PUSH1 0x20 ADD DUP3 DUP2 SUB DUP3 MSTORE PUSH1 0x1F DUP2 MSTORE PUSH1 0x20 ADD DUP1 PUSH32 0x5361666545524332303A2063616C6C20746F206E6F6E2D636F6E747261637400 DUP2 MSTORE POP PUSH1 0x20 ADD SWAP2 POP POP PUSH1 0x40 MLOAD DUP1 SWAP2 SUB SWAP1 REVERT JUMPDEST PUSH1 0x0 PUSH1 0x60 DUP4 PUSH20 0xFFFFFFFFFFFFFFFFFFFFFFFFFFFFFFFFFFFFFFFF AND DUP4 PUSH1 0x40 MLOAD DUP1 DUP3 DUP1 MLOAD SWAP1 PUSH1 0x20 ADD SWAP1 DUP1 DUP4 DUP4 JUMPDEST PUSH1 0x20 DUP4 LT PUSH2 0x1F2E JUMPI DUP1 MLOAD DUP3 MSTORE PUSH1 0x20 DUP3 ADD SWAP2 POP PUSH1 0x20 DUP2 ADD SWAP1 POP PUSH1 0x20 DUP4 SUB SWAP3 POP PUSH2 0x1F0B JUMP JUMPDEST PUSH1 0x1 DUP4 PUSH1 0x20 SUB PUSH2 0x100 EXP SUB DUP1 NOT DUP3 MLOAD AND DUP2 DUP5 MLOAD AND DUP1 DUP3 OR DUP6 MSTORE POP POP POP POP POP POP SWAP1 POP ADD SWAP2 POP POP PUSH1 0x0 PUSH1 0x40 MLOAD DUP1 DUP4 SUB DUP2 PUSH1 0x0 DUP7 GAS CALL SWAP2 POP POP RETURNDATASIZE DUP1 PUSH1 0x0 DUP2 EQ PUSH2 0x1F90 JUMPI PUSH1 0x40 MLOAD SWAP2 POP PUSH1 0x1F NOT PUSH1 0x3F RETURNDATASIZE ADD AND DUP3 ADD PUSH1 0x40 MSTORE RETURNDATASIZE DUP3 MSTORE RETURNDATASIZE PUSH1 0x0 PUSH1 0x20 DUP5 ADD RETURNDATACOPY PUSH2 0x1F95 JUMP JUMPDEST PUSH1 0x60 SWAP2 POP JUMPDEST POP SWAP2 POP SWAP2 POP DUP2 PUSH2 0x200D JUMPI PUSH1 0x40 MLOAD PUSH32 0x8C379A000000000000000000000000000000000000000000000000000000000 DUP2 MSTORE PUSH1 0x4 ADD DUP1 DUP1 PUSH1 0x20 ADD DUP3 DUP2 SUB DUP3 MSTORE PUSH1 0x20 DUP2 MSTORE PUSH1 0x20 ADD DUP1 PUSH32 0x5361666545524332303A206C6F772D6C6576656C2063616C6C206661696C6564 DUP2 MSTORE POP PUSH1 0x20 ADD SWAP2 POP POP PUSH1 0x40 MLOAD DUP1 SWAP2 SUB SWAP1 REVERT JUMPDEST PUSH1 0x0 DUP2 MLOAD GT ISZERO PUSH2 0x2093 JUMPI DUP1 DUP1 PUSH1 0x20 ADD SWAP1 MLOAD PUSH1 0x20 DUP2 LT ISZERO PUSH2 0x202C JUMPI PUSH1 0x0 DUP1 REVERT JUMPDEST DUP2 ADD SWAP1 DUP1 DUP1 MLOAD SWAP1 PUSH1 0x20 ADD SWAP1 SWAP3 SWAP2 SWAP1 POP POP POP PUSH2 0x2092 JUMPI PUSH1 0x40 MLOAD PUSH32 0x8C379A000000000000000000000000000000000000000000000000000000000 DUP2 MSTORE PUSH1 0x4 ADD DUP1 DUP1 PUSH1 0x20 ADD DUP3 DUP2 SUB DUP3 MSTORE PUSH1 0x2A DUP2 MSTORE PUSH1 0x20 ADD DUP1 PUSH2 0x20F8 PUSH1 0x2A SWAP2 CODECOPY PUSH1 0x40 ADD SWAP2 POP POP PUSH1 0x40 MLOAD DUP1 SWAP2 SUB SWAP1 REVERT JUMPDEST JUMPDEST POP POP POP POP JUMP JUMPDEST PUSH1 0x0 DUP1 DUP3 EXTCODESIZE SWAP1 POP PUSH1 0x0 DUP2 GT SWAP2 POP POP SWAP2 SWAP1 POP JUMP INVALID MSTORE8 PUSH2 0x6665 0x4D PUSH2 0x7468 GASPRICE KECCAK256 PUSH14 0x756C7469706C69636174696F6E20 PUSH16 0x766572666C6F7743616C6C6572206973 KECCAK256 PUSH15 0x6F7420526577617264734469737472 PUSH10 0x627574696F6E20636F6E PUSH21 0x726163745361666545524332303A20455243323020 PUSH16 0x7065726174696F6E20646964206E6F74 KECCAK256 PUSH20 0x756363656564A265627A7A7231582057C159B106 SWAP13 0x21 PUSH22 0x8147DB4804E5998803C982AF08DEBA3C18630B6C8C67 PUSH24 0xB564736F6C63430005100032000000000000000000000000 "
				},
				"gasEstimates": {
					"creation": {
						"codeDepositCost": "1706800",
						"executionCost": "infinite",
						"totalCost": "infinite"
					},
					"external": {
						"balanceOf(address)": "1263",
						"earned(address)": "infinite",
						"exit()": "infinite",
						"getReward()": "infinite",
						"lastTimeRewardApplicable()": "1117",
						"lastUpdateTime()": "1094",
						"notifyRewardAmount(uint256,uint256)": "infinite",
						"periodFinish()": "1093",
						"rewardPerToken()": "infinite",
						"rewardPerTokenStored()": "1049",
						"rewardRate()": "1116",
						"rewards(address)": "1215",
						"rewardsDistribution()": "1098",
						"rewardsToken()": "1075",
						"stake(uint256)": "infinite",
						"stakeWithPermit(uint256,uint256,uint8,bytes32,bytes32)": "infinite",
						"stakingToken()": "1142",
						"totalSupply()": "1081",
						"userRewardPerTokenPaid(address)": "1214",
						"withdraw(uint256)": "infinite"
					}
				},
				"methodIdentifiers": {
					"balanceOf(address)": "70a08231",
					"earned(address)": "008cc262",
					"exit()": "e9fad8ee",
					"getReward()": "3d18b912",
					"lastTimeRewardApplicable()": "80faa57d",
					"lastUpdateTime()": "c8f33c91",
					"notifyRewardAmount(uint256,uint256)": "246132f9",
					"periodFinish()": "ebe2b12b",
					"rewardPerToken()": "cd3daf9d",
					"rewardPerTokenStored()": "df136d65",
					"rewardRate()": "7b0a47ee",
					"rewards(address)": "0700037d",
					"rewardsDistribution()": "3fc6df6e",
					"rewardsToken()": "d1af0c7d",
					"stake(uint256)": "a694fc3a",
					"stakeWithPermit(uint256,uint256,uint8,bytes32,bytes32)": "ecd9ba82",
					"stakingToken()": "72f702f3",
					"totalSupply()": "18160ddd",
					"userRewardPerTokenPaid(address)": "8b876347",
					"withdraw(uint256)": "2e1a7d4d"
				}
			},
			"storageLayout": {
				"storage": [
					{
						"astId": 739,
						"contract": "staking/StakingRewardsFactory.sol:StakingRewards",
						"label": "rewardsDistribution",
						"offset": 0,
						"slot": "0",
						"type": "t_address"
					},
					{
						"astId": 663,
						"contract": "staking/StakingRewardsFactory.sol:StakingRewards",
						"label": "_guardCounter",
						"offset": 0,
						"slot": "1",
						"type": "t_uint256"
					},
					{
						"astId": 773,
						"contract": "staking/StakingRewardsFactory.sol:StakingRewards",
						"label": "rewardsToken",
						"offset": 0,
						"slot": "2",
						"type": "t_contract(IERC20)68"
					},
					{
						"astId": 775,
						"contract": "staking/StakingRewardsFactory.sol:StakingRewards",
						"label": "stakingToken",
						"offset": 0,
						"slot": "3",
						"type": "t_contract(IERC20)68"
					},
					{
						"astId": 778,
						"contract": "staking/StakingRewardsFactory.sol:StakingRewards",
						"label": "periodFinish",
						"offset": 0,
						"slot": "4",
						"type": "t_uint256"
					},
					{
						"astId": 781,
						"contract": "staking/StakingRewardsFactory.sol:StakingRewards",
						"label": "rewardRate",
						"offset": 0,
						"slot": "5",
						"type": "t_uint256"
					},
					{
						"astId": 783,
						"contract": "staking/StakingRewardsFactory.sol:StakingRewards",
						"label": "lastUpdateTime",
						"offset": 0,
						"slot": "6",
						"type": "t_uint256"
					},
					{
						"astId": 785,
						"contract": "staking/StakingRewardsFactory.sol:StakingRewards",
						"label": "rewardPerTokenStored",
						"offset": 0,
						"slot": "7",
						"type": "t_uint256"
					},
					{
						"astId": 789,
						"contract": "staking/StakingRewardsFactory.sol:StakingRewards",
						"label": "userRewardPerTokenPaid",
						"offset": 0,
						"slot": "8",
						"type": "t_mapping(t_address,t_uint256)"
					},
					{
						"astId": 793,
						"contract": "staking/StakingRewardsFactory.sol:StakingRewards",
						"label": "rewards",
						"offset": 0,
						"slot": "9",
						"type": "t_mapping(t_address,t_uint256)"
					},
					{
						"astId": 795,
						"contract": "staking/StakingRewardsFactory.sol:StakingRewards",
						"label": "_totalSupply",
						"offset": 0,
						"slot": "10",
						"type": "t_uint256"
					},
					{
						"astId": 799,
						"contract": "staking/StakingRewardsFactory.sol:StakingRewards",
						"label": "_balances",
						"offset": 0,
						"slot": "11",
						"type": "t_mapping(t_address,t_uint256)"
					}
				],
				"types": {
					"t_address": {
						"encoding": "inplace",
						"label": "address",
						"numberOfBytes": "20"
					},
					"t_contract(IERC20)68": {
						"encoding": "inplace",
						"label": "contract IERC20",
						"numberOfBytes": "20"
					},
					"t_mapping(t_address,t_uint256)": {
						"encoding": "mapping",
						"key": "t_address",
						"label": "mapping(address => uint256)",
						"numberOfBytes": "32",
						"value": "t_uint256"
					},
					"t_uint256": {
						"encoding": "inplace",
						"label": "uint256",
						"numberOfBytes": "32"
					}
				}
			},
			"userdoc": {
				"methods": {}
			}
		}
	}
}